
/Users/julianrutten/Documents/Repositories/owl_node/OwlNode/target/3.2.0/photon/OwlNode.elf:     file format elf32-littlearm

Sections:
Idx Name          Size      VMA       LMA       File off  Algn
  0 .module_info  00000018  080a0000  080a0000  00010000  2**0
                  CONTENTS, ALLOC, LOAD, READONLY, DATA
  1 .dynalib      00000004  080a0018  080a0018  00010018  2**2
                  CONTENTS, ALLOC, LOAD, READONLY, DATA
  2 .text         00015fa0  080a0020  080a0020  00010020  2**3
                  CONTENTS, ALLOC, LOAD, READONLY, CODE
  3 .ARM.exidx    00000008  080b5fc0  080b5fc0  00025fc0  2**2
                  CONTENTS, ALLOC, LOAD, READONLY, DATA
  4 .backup       00000a14  40024000  080b5fc8  00034000  2**3
                  CONTENTS, ALLOC, LOAD, DATA
  5 .data         0000013c  20000000  080b69dc  00040000  2**3
                  CONTENTS, ALLOC, LOAD, DATA
  6 .bss          00001d44  20000140  20000140  00050140  2**3
                  ALLOC
  7 .module_info_suffix 00000028  080b6b18  080b6b18  00046b18  2**0
                  CONTENTS, ALLOC, LOAD, READONLY, DATA
  8 .module_info_crc 00000004  080b6b40  080b6b40  00046b40  2**0
                  CONTENTS, ALLOC, LOAD, READONLY, DATA
  9 .debug_info   0022d7ab  00000000  00000000  00046b44  2**0
                  CONTENTS, READONLY, DEBUGGING, OCTETS
 10 .debug_abbrev 0002bce7  00000000  00000000  002742ef  2**0
                  CONTENTS, READONLY, DEBUGGING, OCTETS
 11 .debug_loc    0003af26  00000000  00000000  0029ffd6  2**0
                  CONTENTS, READONLY, DEBUGGING, OCTETS
 12 .debug_aranges 000036e8  00000000  00000000  002daefc  2**0
                  CONTENTS, READONLY, DEBUGGING, OCTETS
 13 .debug_ranges 00009f18  00000000  00000000  002de5e4  2**0
                  CONTENTS, READONLY, DEBUGGING, OCTETS
 14 .debug_macro  00052bf7  00000000  00000000  002e84fc  2**0
                  CONTENTS, READONLY, DEBUGGING, OCTETS
 15 .debug_line   00089fff  00000000  00000000  0033b0f3  2**0
                  CONTENTS, READONLY, DEBUGGING, OCTETS
 16 .debug_str    000d68e2  00000000  00000000  003c50f2  2**0
                  CONTENTS, READONLY, DEBUGGING, OCTETS
 17 .debug_frame  0000a348  00000000  00000000  0049b9d4  2**2
                  CONTENTS, READONLY, DEBUGGING, OCTETS

Disassembly of section .text:

080a0020 <module_user_pre_init>:
/**
 * Initializes this user module. Returns the start of the heap.
 */
void* module_user_pre_init() {

    if ( (&link_global_data_start!=&link_global_data_initial_values) && (link_global_data_size != 0))
 80a0020:	4809      	ldr	r0, [pc, #36]	; (80a0048 <module_user_pre_init+0x28>)
 80a0022:	490a      	ldr	r1, [pc, #40]	; (80a004c <module_user_pre_init+0x2c>)
void* module_user_pre_init() {
 80a0024:	b508      	push	{r3, lr}
    if ( (&link_global_data_start!=&link_global_data_initial_values) && (link_global_data_size != 0))
 80a0026:	4288      	cmp	r0, r1
 80a0028:	d005      	beq.n	80a0036 <module_user_pre_init+0x16>
 80a002a:	4a09      	ldr	r2, [pc, #36]	; (80a0050 <module_user_pre_init+0x30>)
 80a002c:	4282      	cmp	r2, r0
 80a002e:	d002      	beq.n	80a0036 <module_user_pre_init+0x16>
    {
        memcpy(&link_global_data_start, &link_global_data_initial_values, link_global_data_size);
 80a0030:	1a12      	subs	r2, r2, r0
 80a0032:	f011 fd5b 	bl	80b1aec <memcpy>
    }

    memset(&link_bss_location, 0, link_bss_size );
 80a0036:	4807      	ldr	r0, [pc, #28]	; (80a0054 <module_user_pre_init+0x34>)
 80a0038:	4a07      	ldr	r2, [pc, #28]	; (80a0058 <module_user_pre_init+0x38>)
 80a003a:	2100      	movs	r1, #0
 80a003c:	1a12      	subs	r2, r2, r0
 80a003e:	f011 fd7d 	bl	80b1b3c <memset>
    return &link_heap_start;
}
 80a0042:	4806      	ldr	r0, [pc, #24]	; (80a005c <module_user_pre_init+0x3c>)
 80a0044:	bd08      	pop	{r3, pc}
 80a0046:	bf00      	nop
 80a0048:	20000000 	.word	0x20000000
 80a004c:	080b69dc 	.word	0x080b69dc
 80a0050:	2000013c 	.word	0x2000013c
 80a0054:	20000140 	.word	0x20000140
 80a0058:	20001e84 	.word	0x20001e84
 80a005c:	20001e84 	.word	0x20001e84

080a0060 <module_user_init>:
extern constructor_ptr_t link_constructors_location[];
extern constructor_ptr_t link_constructors_end;
#define link_constructors_size   ((unsigned long)&link_constructors_end  -  (unsigned long)&link_constructors_location )

void module_user_init()
{
 80a0060:	b570      	push	{r4, r5, r6, lr}
    module_user_init_hook();
 80a0062:	f00e fbf5 	bl	80ae850 <module_user_init_hook>

    // invoke constructors
    for (size_t ctor_num=0; ctor_num < link_constructors_size/sizeof(constructor_ptr_t); ctor_num++ )
 80a0066:	2500      	movs	r5, #0
 80a0068:	4e05      	ldr	r6, [pc, #20]	; (80a0080 <module_user_init+0x20>)
 80a006a:	4c06      	ldr	r4, [pc, #24]	; (80a0084 <module_user_init+0x24>)
 80a006c:	1ba4      	subs	r4, r4, r6
 80a006e:	08a4      	lsrs	r4, r4, #2
 80a0070:	42ac      	cmp	r4, r5
 80a0072:	d100      	bne.n	80a0076 <module_user_init+0x16>
    {
        link_constructors_location[ctor_num]();
    }
}
 80a0074:	bd70      	pop	{r4, r5, r6, pc}
        link_constructors_location[ctor_num]();
 80a0076:	f856 3b04 	ldr.w	r3, [r6], #4
 80a007a:	4798      	blx	r3
    for (size_t ctor_num=0; ctor_num < link_constructors_size/sizeof(constructor_ptr_t); ctor_num++ )
 80a007c:	3501      	adds	r5, #1
 80a007e:	e7f7      	b.n	80a0070 <module_user_init+0x10>
 80a0080:	080b5f94 	.word	0x080b5f94
 80a0084:	080b5fb8 	.word	0x080b5fb8

080a0088 <module_user_setup>:

/**
 * Export these functions with a fuller name so they don't clash with the setup/loop wrappers in the system module.
 */
void module_user_setup() {
    setup();
 80a0088:	f004 bb24 	b.w	80a46d4 <setup>

080a008c <module_user_loop>:
}

void module_user_loop() {
 80a008c:	b508      	push	{r3, lr}
    loop();
 80a008e:	f005 fe65 	bl	80a5d5c <loop>
    _post_loop();
}
 80a0092:	e8bd 4008 	ldmia.w	sp!, {r3, lr}
    _post_loop();
 80a0096:	f00e bb93 	b.w	80ae7c0 <_post_loop>

080a009a <_Znwj>:
 * Implement C++ new/delete operators using the heap
 */

void *operator new(size_t size)
{
	return malloc(size);
 80a009a:	f00b baeb 	b.w	80ab674 <malloc>

080a009e <_Znaj>:
 80a009e:	f00b bae9 	b.w	80ab674 <malloc>

080a00a2 <_ZdlPvj>:
	free(p);
}

void operator delete(void *p, size_t size)
{
	free(p);
 80a00a2:	f00b baef 	b.w	80ab684 <free>
	...

080a00a8 <__cxa_pure_virtual>:
    return (char*)"";
}

/* Default implementation for call made to pure virtual function. */
void __cxa_pure_virtual() {
  PANIC(PureVirtualCall,"Call on pure virtual");
 80a00a8:	2100      	movs	r1, #0
 80a00aa:	200c      	movs	r0, #12
void __cxa_pure_virtual() {
 80a00ac:	b508      	push	{r3, lr}
  PANIC(PureVirtualCall,"Call on pure virtual");
 80a00ae:	4a02      	ldr	r2, [pc, #8]	; (80a00b8 <__cxa_pure_virtual+0x10>)
 80a00b0:	f00b f99a 	bl	80ab3e8 <panic_>
  while (1);
 80a00b4:	e7fe      	b.n	80a00b4 <__cxa_pure_virtual+0xc>
 80a00b6:	bf00      	nop
 80a00b8:	080ab021 	.word	0x080ab021

080a00bc <__cxa_guard_acquire>:

/* Provide default implemenation for __cxa_guard_acquire() and
 * __cxa_guard_release(). Note: these must be revisited if a multitasking
 * OS is ported to this platform. */
__extension__ typedef int __guard __attribute__((mode (__DI__)));
int __cxa_guard_acquire(__guard *g) {return !*(char *)(g);};
 80a00bc:	7800      	ldrb	r0, [r0, #0]
 80a00be:	fab0 f080 	clz	r0, r0
 80a00c2:	0940      	lsrs	r0, r0, #5
 80a00c4:	4770      	bx	lr

080a00c6 <__cxa_guard_release>:
void __cxa_guard_release (__guard *g) {*(char *)g = 1;};
 80a00c6:	2301      	movs	r3, #1
 80a00c8:	7003      	strb	r3, [r0, #0]
 80a00ca:	4770      	bx	lr

080a00cc <_ZN5spark10LogHandler5writeEPKcj>:
    }
}

inline void spark::LogHandler::write(const char *data, size_t size) {
    // Default implementation does nothing
}
 80a00cc:	4770      	bx	lr

080a00ce <_ZN5spark16StreamLogHandler5writeEPKcj>:
inline Print* spark::StreamLogHandler::stream() const {
    return stream_;
}

inline void spark::StreamLogHandler::write(const char *data, size_t size) {
    stream_->write((const uint8_t*)data, size);
 80a00ce:	6a00      	ldr	r0, [r0, #32]
 80a00d0:	6803      	ldr	r3, [r0, #0]
 80a00d2:	68db      	ldr	r3, [r3, #12]
 80a00d4:	4718      	bx	r3

080a00d6 <_ZN5Timer12invoke_timerEPv>:
private:
	volatile bool running;
    os_timer_t handle;
    timer_callback_fn callback;

    static void invoke_timer(os_timer_t timer)
 80a00d6:	b513      	push	{r0, r1, r4, lr}
typedef std::function<os_thread_return_t(void)> wiring_thread_fn_t;

class SingleThreadedSection {
public:
    SingleThreadedSection() {
        os_thread_scheduling(false, NULL);
 80a00d8:	2100      	movs	r1, #0
 80a00da:	4604      	mov	r4, r0
 80a00dc:	4608      	mov	r0, r1
 80a00de:	f00a ff27 	bl	80aaf30 <os_thread_scheduling>
    {
        Timer* t = nullptr;
        SINGLE_THREADED_BLOCK() {
            void* id = nullptr;
 80a00e2:	2300      	movs	r3, #0
            os_timer_get_id(timer, &id);
 80a00e4:	4620      	mov	r0, r4
 80a00e6:	a901      	add	r1, sp, #4
            void* id = nullptr;
 80a00e8:	9301      	str	r3, [sp, #4]
            os_timer_get_id(timer, &id);
 80a00ea:	f00a ff39 	bl	80aaf60 <os_timer_get_id>
            t = static_cast<Timer*>(id);
 80a00ee:	9c01      	ldr	r4, [sp, #4]
            if (t) {
 80a00f0:	b10c      	cbz	r4, 80a00f6 <_ZN5Timer12invoke_timerEPv+0x20>
                t->running = true;
 80a00f2:	2301      	movs	r3, #1
 80a00f4:	7123      	strb	r3, [r4, #4]
    }

    ~SingleThreadedSection() {
        os_thread_scheduling(true, NULL);
 80a00f6:	2100      	movs	r1, #0
 80a00f8:	2001      	movs	r0, #1
 80a00fa:	f00a ff19 	bl	80aaf30 <os_thread_scheduling>
            }
        }
        if (t) {
 80a00fe:	b12c      	cbz	r4, 80a010c <_ZN5Timer12invoke_timerEPv+0x36>
            t->timeout();
 80a0100:	6823      	ldr	r3, [r4, #0]
 80a0102:	4620      	mov	r0, r4
 80a0104:	689b      	ldr	r3, [r3, #8]
 80a0106:	4798      	blx	r3
            t->running = false;
 80a0108:	2300      	movs	r3, #0
 80a010a:	7123      	strb	r3, [r4, #4]
        }
    }
 80a010c:	b002      	add	sp, #8
 80a010e:	bd10      	pop	{r4, pc}

080a0110 <_ZNSt17_Function_handlerIFvvEPS0_E10_M_managerERSt9_Any_dataRKS3_St18_Manager_operation>:
    public:
      static bool
      _M_manager(_Any_data& __dest, const _Any_data& __source,
		 _Manager_operation __op)
      {
	switch (__op)
 80a0110:	2a01      	cmp	r2, #1
 80a0112:	d102      	bne.n	80a011a <_ZNSt17_Function_handlerIFvvEPS0_E10_M_managerERSt9_Any_dataRKS3_St18_Manager_operation+0xa>
	  case __get_type_info:
	    __dest._M_access<const type_info*>() = &typeid(_Functor);
	    break;
#endif
	  case __get_functor_ptr:
	    __dest._M_access<_Functor*>() = _Base::_M_get_pointer(__source);
 80a0114:	6001      	str	r1, [r0, #0]

	  default:
	    _Base::_M_manager(__dest, __source, __op);
	  }
	return false;
      }
 80a0116:	2000      	movs	r0, #0
 80a0118:	4770      	bx	lr
	  switch (__op)
 80a011a:	2a02      	cmp	r2, #2
	  ::new (__dest._M_access()) _Functor(__source._M_access<_Functor>());
 80a011c:	bf04      	itt	eq
 80a011e:	680b      	ldreq	r3, [r1, #0]
 80a0120:	6003      	streq	r3, [r0, #0]
	      break;
 80a0122:	e7f8      	b.n	80a0116 <_ZNSt17_Function_handlerIFvvEPS0_E10_M_managerERSt9_Any_dataRKS3_St18_Manager_operation+0x6>

080a0124 <_ZNSt17_Function_handlerIFvvEPS0_E9_M_invokeERKSt9_Any_data>:
    { return static_cast<_Up&&>(__t); }

  template<typename _Res, typename _Fn, typename... _Args>
    constexpr _Res
    __invoke_impl(__invoke_other, _Fn&& __f, _Args&&... __args)
    { return std::forward<_Fn>(__f)(std::forward<_Args>(__args)...); }
 80a0124:	6803      	ldr	r3, [r0, #0]
 80a0126:	4718      	bx	r3

080a0128 <_ZNK11SystemClass11resetReasonEv.isra.0>:

    inline bool enabled(system_flag_t flag) const {
        return get_flag(flag) != 0;
    }

    inline int resetReason() const {
 80a0128:	b507      	push	{r0, r1, r2, lr}
        int reason = RESET_REASON_NONE;
 80a012a:	2200      	movs	r2, #0
        HAL_Core_Get_Last_Reset_Info(&reason, nullptr, nullptr);
 80a012c:	a801      	add	r0, sp, #4
 80a012e:	4611      	mov	r1, r2
        int reason = RESET_REASON_NONE;
 80a0130:	9201      	str	r2, [sp, #4]
        HAL_Core_Get_Last_Reset_Info(&reason, nullptr, nullptr);
 80a0132:	f00a ff5d 	bl	80aaff0 <HAL_Core_Get_Last_Reset_Info>
        return reason;
    }
 80a0136:	9801      	ldr	r0, [sp, #4]
 80a0138:	b003      	add	sp, #12
 80a013a:	f85d fb04 	ldr.w	pc, [sp], #4
	...

080a0140 <_ZN8particle24SystemSleepConfiguration8durationEm.isra.0>:
            gpio(pins[i], mode);
        }
        return *this;
    }

    SystemSleepConfiguration& duration(system_tick_t ms) {
 80a0140:	b570      	push	{r4, r5, r6, lr}
        if (valid_) {
 80a0142:	7d03      	ldrb	r3, [r0, #20]
    SystemSleepConfiguration& duration(system_tick_t ms) {
 80a0144:	4605      	mov	r5, r0
 80a0146:	460e      	mov	r6, r1
        if (valid_) {
 80a0148:	b1cb      	cbz	r3, 80a017e <_ZN8particle24SystemSleepConfiguration8durationEm.isra.0+0x3e>
        return wakeupSourceFeatured(type, config_->wakeup_sources);
 80a014a:	6803      	ldr	r3, [r0, #0]
 80a014c:	68db      	ldr	r3, [r3, #12]
        if (!start) {
 80a014e:	b123      	cbz	r3, 80a015a <_ZN8particle24SystemSleepConfiguration8durationEm.isra.0+0x1a>
            if (start->type == type) {
 80a0150:	889a      	ldrh	r2, [r3, #4]
 80a0152:	2a04      	cmp	r2, #4
 80a0154:	d016      	beq.n	80a0184 <_ZN8particle24SystemSleepConfiguration8durationEm.isra.0+0x44>
            start = start->next;
 80a0156:	689b      	ldr	r3, [r3, #8]
        while (start) {
 80a0158:	e7f9      	b.n	80a014e <_ZN8particle24SystemSleepConfiguration8durationEm.isra.0+0xe>
            if (wakeup) {
                reinterpret_cast<hal_wakeup_source_rtc_t*>(wakeup)->ms = ms;
                return *this;
            }
            // Otherwise, configure RTC as wakeup source.
            auto wakeupSource = new(std::nothrow) hal_wakeup_source_rtc_t();
 80a015a:	2010      	movs	r0, #16
 80a015c:	490a      	ldr	r1, [pc, #40]	; (80a0188 <_ZN8particle24SystemSleepConfiguration8durationEm.isra.0+0x48>)
 80a015e:	f00e fd15 	bl	80aeb8c <_ZnwjRKSt9nothrow_t>
 80a0162:	4604      	mov	r4, r0
 80a0164:	b160      	cbz	r0, 80a0180 <_ZN8particle24SystemSleepConfiguration8durationEm.isra.0+0x40>
 80a0166:	2210      	movs	r2, #16
 80a0168:	2100      	movs	r1, #0
 80a016a:	f011 fce7 	bl	80b1b3c <memset>
            if (!wakeupSource) {
                valid_ = false;
                return *this;
            }
            wakeupSource->base.size = sizeof(hal_wakeup_source_rtc_t);
 80a016e:	4b07      	ldr	r3, [pc, #28]	; (80a018c <_ZN8particle24SystemSleepConfiguration8durationEm.isra.0+0x4c>)
 80a0170:	6023      	str	r3, [r4, #0]
            wakeupSource->base.version = HAL_SLEEP_VERSION;
            wakeupSource->base.type = HAL_WAKEUP_SOURCE_TYPE_RTC;
 80a0172:	2304      	movs	r3, #4
 80a0174:	80a3      	strh	r3, [r4, #4]
            wakeupSource->base.next = config_.wakeup_sources;
 80a0176:	692b      	ldr	r3, [r5, #16]
            wakeupSource->ms = ms;
            config_.wakeup_sources = reinterpret_cast<hal_wakeup_source_base_t*>(wakeupSource);
 80a0178:	612c      	str	r4, [r5, #16]
            wakeupSource->ms = ms;
 80a017a:	e9c4 3602 	strd	r3, r6, [r4, #8]
        }
        return *this;
    }
 80a017e:	bd70      	pop	{r4, r5, r6, pc}
                valid_ = false;
 80a0180:	7528      	strb	r0, [r5, #20]
                return *this;
 80a0182:	e7fc      	b.n	80a017e <_ZN8particle24SystemSleepConfiguration8durationEm.isra.0+0x3e>
                reinterpret_cast<hal_wakeup_source_rtc_t*>(wakeup)->ms = ms;
 80a0184:	60de      	str	r6, [r3, #12]
                return *this;
 80a0186:	e7fa      	b.n	80a017e <_ZN8particle24SystemSleepConfiguration8durationEm.isra.0+0x3e>
 80a0188:	080b5a74 	.word	0x080b5a74
 80a018c:	00030010 	.word	0x00030010

080a0190 <_ZN5spark9WiFiClass14setCredentialsEPKcS2_mm.isra.0>:

    bool setCredentials(const char *ssid, const char *password) {
        return setCredentials(ssid, password, WPA2);
    }

    bool setCredentials(const char *ssid, const char *password, unsigned long security, unsigned long cipher=WLAN_CIPHER_NOT_SET) {
 80a0190:	e92d 43f0 	stmdb	sp!, {r4, r5, r6, r7, r8, r9, lr}
 80a0194:	4680      	mov	r8, r0
 80a0196:	4614      	mov	r4, r2
 80a0198:	4699      	mov	r9, r3
        return setCredentials(ssid, ssid ? strlen(ssid) : 0, password, password ? strlen(password) : 0, security, cipher);
 80a019a:	460d      	mov	r5, r1
    bool setCredentials(const char *ssid, const char *password, unsigned long security, unsigned long cipher=WLAN_CIPHER_NOT_SET) {
 80a019c:	b095      	sub	sp, #84	; 0x54
        return setCredentials(ssid, ssid ? strlen(ssid) : 0, password, password ? strlen(password) : 0, security, cipher);
 80a019e:	b311      	cbz	r1, 80a01e6 <_ZN5spark9WiFiClass14setCredentialsEPKcS2_mm.isra.0+0x56>
 80a01a0:	4608      	mov	r0, r1
 80a01a2:	f012 fabb 	bl	80b271c <strlen>
 80a01a6:	4607      	mov	r7, r0
 80a01a8:	b1fc      	cbz	r4, 80a01ea <_ZN5spark9WiFiClass14setCredentialsEPKcS2_mm.isra.0+0x5a>
 80a01aa:	4620      	mov	r0, r4
 80a01ac:	f012 fab6 	bl	80b271c <strlen>
 80a01b0:	4606      	mov	r6, r0

    bool setCredentials(const char *ssid, unsigned int ssidLen, const char *password,
            unsigned int passwordLen, unsigned long security=WLAN_SEC_UNSEC, unsigned long cipher=WLAN_CIPHER_NOT_SET) {

        WLanCredentials creds;
        memset(&creds, 0, sizeof(creds));
 80a01b2:	2238      	movs	r2, #56	; 0x38
 80a01b4:	2100      	movs	r1, #0
 80a01b6:	a806      	add	r0, sp, #24
 80a01b8:	f011 fcc0 	bl	80b1b3c <memset>
        creds.size = sizeof(creds);
 80a01bc:	234c      	movs	r3, #76	; 0x4c
        creds.ssid = ssid;
 80a01be:	e9cd 3501 	strd	r3, r5, [sp, #4]
        creds.ssid_len = ssidLen;
        creds.password = password;
        creds.password_len = passwordLen;
        creds.security = WLanSecurityType(security);
        creds.cipher = WLanSecurityCipher(cipher);
 80a01c2:	9b1c      	ldr	r3, [sp, #112]	; 0x70
        return (network_set_credentials(*this, 0, &creds, NULL) == 0);
 80a01c4:	f8d8 0004 	ldr.w	r0, [r8, #4]
        creds.cipher = WLanSecurityCipher(cipher);
 80a01c8:	f88d 3019 	strb.w	r3, [sp, #25]
        return (network_set_credentials(*this, 0, &creds, NULL) == 0);
 80a01cc:	2300      	movs	r3, #0
 80a01ce:	aa01      	add	r2, sp, #4
 80a01d0:	4619      	mov	r1, r3
        creds.password = password;
 80a01d2:	e9cd 7403 	strd	r7, r4, [sp, #12]
        creds.password_len = passwordLen;
 80a01d6:	9605      	str	r6, [sp, #20]
        creds.security = WLanSecurityType(security);
 80a01d8:	f88d 9018 	strb.w	r9, [sp, #24]
        return (network_set_credentials(*this, 0, &creds, NULL) == 0);
 80a01dc:	f00b fa1a 	bl	80ab614 <network_set_credentials>
    }
 80a01e0:	b015      	add	sp, #84	; 0x54
 80a01e2:	e8bd 83f0 	ldmia.w	sp!, {r4, r5, r6, r7, r8, r9, pc}
        return setCredentials(ssid, ssid ? strlen(ssid) : 0, password, password ? strlen(password) : 0, security, cipher);
 80a01e6:	460f      	mov	r7, r1
 80a01e8:	e7de      	b.n	80a01a8 <_ZN5spark9WiFiClass14setCredentialsEPKcS2_mm.isra.0+0x18>
 80a01ea:	4626      	mov	r6, r4
 80a01ec:	e7e1      	b.n	80a01b2 <_ZN5spark9WiFiClass14setCredentialsEPKcS2_mm.isra.0+0x22>
	...

080a01f0 <_ZN5spark16SerialLogHandlerD1Ev>:
            StreamLogHandler(Serial, level, filters) {
        Serial.begin(baud);
        LogManager::instance()->addHandler(this);
    }

    virtual ~SerialLogHandler() {
 80a01f0:	b510      	push	{r4, lr}
 80a01f2:	4604      	mov	r4, r0
 80a01f4:	4b09      	ldr	r3, [pc, #36]	; (80a021c <_ZN5spark16SerialLogHandlerD1Ev+0x2c>)
 80a01f6:	6003      	str	r3, [r0, #0]
        LogManager::instance()->removeHandler(this);
 80a01f8:	f00c fa0c 	bl	80ac614 <_ZN5spark10LogManager8instanceEv>
 80a01fc:	4621      	mov	r1, r4
 80a01fe:	f00c fc66 	bl	80acace <_ZN5spark10LogManager13removeHandlerEPNS_10LogHandlerE>
        Serial.end();
 80a0202:	f00e f8c9 	bl	80ae398 <_Z16_fetch_usbserialv>
 80a0206:	f00e f8b9 	bl	80ae37c <_ZN9USBSerial3endEv>
    virtual ~LogHandler() = default;
 80a020a:	4620      	mov	r0, r4
 80a020c:	4b04      	ldr	r3, [pc, #16]	; (80a0220 <_ZN5spark16SerialLogHandlerD1Ev+0x30>)
 80a020e:	f840 3b04 	str.w	r3, [r0], #4
 80a0212:	f00c faf9 	bl	80ac808 <_ZN5spark6detail9LogFilterD1Ev>
    }
 80a0216:	4620      	mov	r0, r4
 80a0218:	bd10      	pop	{r4, pc}
 80a021a:	bf00      	nop
 80a021c:	080b498c 	.word	0x080b498c
 80a0220:	080b4974 	.word	0x080b4974

080a0224 <_ZN5spark16SerialLogHandlerD0Ev>:
    virtual ~SerialLogHandler() {
 80a0224:	b510      	push	{r4, lr}
 80a0226:	4604      	mov	r4, r0
    }
 80a0228:	f7ff ffe2 	bl	80a01f0 <_ZN5spark16SerialLogHandlerD1Ev>
 80a022c:	4620      	mov	r0, r4
 80a022e:	2124      	movs	r1, #36	; 0x24
 80a0230:	f7ff ff37 	bl	80a00a2 <_ZdlPvj>
 80a0234:	4620      	mov	r0, r4
 80a0236:	bd10      	pop	{r4, pc}

080a0238 <_ZN5Print6printfEPKcz>:
    size_t println(double, int = 2);
    size_t println(const Printable&);
    size_t println(void);
    size_t println(const __FlashStringHelper*);

    size_t printf(const char* format, ...) __attribute__ ((format(printf, 2, 3)))
 80a0238:	b40e      	push	{r1, r2, r3}
 80a023a:	b503      	push	{r0, r1, lr}
 80a023c:	ab03      	add	r3, sp, #12
 80a023e:	f853 2b04 	ldr.w	r2, [r3], #4
    {
        va_list args;
        va_start(args, format);
        auto r = this->vprintf(false, format, args);
 80a0242:	2100      	movs	r1, #0
        va_start(args, format);
 80a0244:	9301      	str	r3, [sp, #4]
        auto r = this->vprintf(false, format, args);
 80a0246:	f00d f9b0 	bl	80ad5aa <_ZN5Print7vprintfEbPKcSt9__va_list>
        va_end(args);
        return r;
    }
 80a024a:	b002      	add	sp, #8
 80a024c:	f85d eb04 	ldr.w	lr, [sp], #4
 80a0250:	b003      	add	sp, #12
 80a0252:	4770      	bx	lr

080a0254 <_ZN5Print8printlnfEPKcz>:

    size_t printlnf(const char* format, ...) __attribute__ ((format(printf, 2, 3)))
 80a0254:	b40e      	push	{r1, r2, r3}
 80a0256:	b503      	push	{r0, r1, lr}
 80a0258:	ab03      	add	r3, sp, #12
 80a025a:	f853 2b04 	ldr.w	r2, [r3], #4
    {
        va_list args;
        va_start(args, format);
        auto r = this->vprintf(true, format, args);
 80a025e:	2101      	movs	r1, #1
        va_start(args, format);
 80a0260:	9301      	str	r3, [sp, #4]
        auto r = this->vprintf(true, format, args);
 80a0262:	f00d f9a2 	bl	80ad5aa <_ZN5Print7vprintfEbPKcSt9__va_list>
        va_end(args);
        return r;
    }
 80a0266:	b002      	add	sp, #8
 80a0268:	f85d eb04 	ldr.w	lr, [sp], #4
 80a026c:	b003      	add	sp, #12
 80a026e:	4770      	bx	lr

080a0270 <_ZN15WiFiAccessPointC1Ev>:
   int maxDataRate;   // the mdr in bits/s
   int rssi;        // when scanning

#ifdef __cplusplus

   WiFiAccessPoint()
 80a0270:	b510      	push	{r4, lr}
   {
       memset(this, 0, sizeof(*this));
 80a0272:	2234      	movs	r2, #52	; 0x34
   WiFiAccessPoint()
 80a0274:	4604      	mov	r4, r0
       memset(this, 0, sizeof(*this));
 80a0276:	2100      	movs	r1, #0
 80a0278:	3004      	adds	r0, #4
 80a027a:	f011 fc5f 	bl	80b1b3c <memset>
       size = sizeof(*this);
 80a027e:	2338      	movs	r3, #56	; 0x38
   }
 80a0280:	4620      	mov	r0, r4
       size = sizeof(*this);
 80a0282:	6023      	str	r3, [r4, #0]
   }
 80a0284:	bd10      	pop	{r4, pc}

080a0286 <_ZN5spark9WiFiClass3offEv>:
        network_off(*this, 0, 0, NULL);
 80a0286:	2300      	movs	r3, #0
 80a0288:	6840      	ldr	r0, [r0, #4]
 80a028a:	461a      	mov	r2, r3
 80a028c:	4619      	mov	r1, r3
 80a028e:	f00b b9a9 	b.w	80ab5e4 <network_off>

080a0292 <_ZN5spark9WiFiClass11wifi_configEv>:
        return (WLanConfig*)network_config(*this, 0, NULL);
 80a0292:	2200      	movs	r2, #0
 80a0294:	6840      	ldr	r0, [r0, #4]
 80a0296:	4611      	mov	r1, r2
 80a0298:	f00b b974 	b.w	80ab584 <network_config>

080a029c <_ZN5spark9WiFiClass10connectingEv>:
        return network_connecting(*this, 0, NULL);
 80a029c:	2200      	movs	r2, #0
 80a029e:	6840      	ldr	r0, [r0, #4]
 80a02a0:	4611      	mov	r1, r2
 80a02a2:	f00b b97f 	b.w	80ab5a4 <network_connecting>

080a02a6 <_ZN5spark9WiFiClass5readyEv>:
        return network_ready(*this, 0, NULL);
 80a02a6:	2200      	movs	r2, #0
 80a02a8:	6840      	ldr	r0, [r0, #4]
 80a02aa:	4611      	mov	r1, r2
 80a02ac:	f00b b98a 	b.w	80ab5c4 <network_ready>

080a02b0 <_ZNSt14_Function_baseD1Ev>:
    ~_Function_base()
 80a02b0:	b510      	push	{r4, lr}
      if (_M_manager)
 80a02b2:	6883      	ldr	r3, [r0, #8]
    ~_Function_base()
 80a02b4:	4604      	mov	r4, r0
      if (_M_manager)
 80a02b6:	b113      	cbz	r3, 80a02be <_ZNSt14_Function_baseD1Ev+0xe>
	_M_manager(_M_functor, _M_functor, __destroy_functor);
 80a02b8:	2203      	movs	r2, #3
 80a02ba:	4601      	mov	r1, r0
 80a02bc:	4798      	blx	r3
    }
 80a02be:	4620      	mov	r0, r4
 80a02c0:	bd10      	pop	{r4, pc}
	...

080a02c4 <_ZN5TimerD1Ev>:
    virtual ~Timer() {
 80a02c4:	b537      	push	{r0, r1, r2, r4, r5, lr}
 80a02c6:	4b13      	ldr	r3, [pc, #76]	; (80a0314 <_ZN5TimerD1Ev+0x50>)
 80a02c8:	4604      	mov	r4, r0
 80a02ca:	6003      	str	r3, [r0, #0]
        if (handle) {
 80a02cc:	6880      	ldr	r0, [r0, #8]
 80a02ce:	b1c8      	cbz	r0, 80a0304 <_ZN5TimerD1Ev+0x40>
        return handle ? !os_timer_change(handle, OS_TIMER_CHANGE_STOP, fromISR, 0, block, nullptr) : false;
 80a02d0:	2500      	movs	r5, #0
 80a02d2:	f06f 4300 	mvn.w	r3, #2147483648	; 0x80000000
 80a02d6:	2102      	movs	r1, #2
 80a02d8:	e9cd 3500 	strd	r3, r5, [sp]
 80a02dc:	462a      	mov	r2, r5
 80a02de:	462b      	mov	r3, r5
 80a02e0:	f00a fe46 	bl	80aaf70 <os_timer_change>
            os_timer_set_id(handle, nullptr);
 80a02e4:	4629      	mov	r1, r5
 80a02e6:	68a0      	ldr	r0, [r4, #8]
 80a02e8:	f00a fe72 	bl	80aafd0 <os_timer_set_id>
            while (running) {
 80a02ec:	7923      	ldrb	r3, [r4, #4]
 80a02ee:	f003 05ff 	and.w	r5, r3, #255	; 0xff
 80a02f2:	b113      	cbz	r3, 80a02fa <_ZN5TimerD1Ev+0x36>
                os_thread_yield();
 80a02f4:	f00a fe0c 	bl	80aaf10 <os_thread_yield>
            while (running) {
 80a02f8:	e7f8      	b.n	80a02ec <_ZN5TimerD1Ev+0x28>
            os_timer_destroy(handle, nullptr);
 80a02fa:	4629      	mov	r1, r5
 80a02fc:	68a0      	ldr	r0, [r4, #8]
 80a02fe:	f00a fe27 	bl	80aaf50 <os_timer_destroy>
            handle = nullptr;
 80a0302:	60a5      	str	r5, [r4, #8]
   *  @ingroup functors
   *
   *  Polymorphic function wrapper.
   */
  template<typename _Res, typename... _ArgTypes>
    class function<_Res(_ArgTypes...)>
 80a0304:	f104 000c 	add.w	r0, r4, #12
 80a0308:	f7ff ffd2 	bl	80a02b0 <_ZNSt14_Function_baseD1Ev>
    }
 80a030c:	4620      	mov	r0, r4
 80a030e:	b003      	add	sp, #12
 80a0310:	bd30      	pop	{r4, r5, pc}
 80a0312:	bf00      	nop
 80a0314:	080b4960 	.word	0x080b4960

080a0318 <_ZN5TimerD0Ev>:
    virtual ~Timer() {
 80a0318:	b510      	push	{r4, lr}
 80a031a:	4604      	mov	r4, r0
    }
 80a031c:	f7ff ffd2 	bl	80a02c4 <_ZN5TimerD1Ev>
 80a0320:	4620      	mov	r0, r4
 80a0322:	211c      	movs	r1, #28
 80a0324:	f7ff febd 	bl	80a00a2 <_ZdlPvj>
 80a0328:	4620      	mov	r0, r4
 80a032a:	bd10      	pop	{r4, pc}

080a032c <_ZN8particle24SystemSleepConfigurationC1Ev>:
    SystemSleepConfiguration()
 80a032c:	b538      	push	{r3, r4, r5, lr}
 80a032e:	4604      	mov	r4, r0
              valid_(true) {
 80a0330:	2510      	movs	r5, #16
            : SystemSleepConfigurationHelper(&config_),
 80a0332:	3004      	adds	r0, #4
              valid_(true) {
 80a0334:	462a      	mov	r2, r5
 80a0336:	2100      	movs	r1, #0
        : config_(config) {
 80a0338:	6020      	str	r0, [r4, #0]
              valid_(true) {
 80a033a:	f011 fbff 	bl	80b1b3c <memset>
 80a033e:	2301      	movs	r3, #1
 80a0340:	7523      	strb	r3, [r4, #20]
        config_.version = HAL_SLEEP_VERSION;
 80a0342:	2303      	movs	r3, #3
    }
 80a0344:	4620      	mov	r0, r4
        config_.size = sizeof(hal_sleep_config_t);
 80a0346:	80a5      	strh	r5, [r4, #4]
        config_.version = HAL_SLEEP_VERSION;
 80a0348:	80e3      	strh	r3, [r4, #6]
    }
 80a034a:	bd38      	pop	{r3, r4, r5, pc}

080a034c <_ZN8particle24SystemSleepConfigurationD1Ev>:
    ~SystemSleepConfiguration() {
 80a034c:	b538      	push	{r3, r4, r5, lr}
 80a034e:	4604      	mov	r4, r0
        auto wakeupSource = config_.wakeup_sources;
 80a0350:	6900      	ldr	r0, [r0, #16]
        while (wakeupSource) {
 80a0352:	b128      	cbz	r0, 80a0360 <_ZN8particle24SystemSleepConfigurationD1Ev+0x14>
            auto next = wakeupSource->next;
 80a0354:	6885      	ldr	r5, [r0, #8]
            delete wakeupSource;
 80a0356:	210c      	movs	r1, #12
 80a0358:	f7ff fea3 	bl	80a00a2 <_ZdlPvj>
            wakeupSource = next;
 80a035c:	4628      	mov	r0, r5
        while (wakeupSource) {
 80a035e:	e7f8      	b.n	80a0352 <_ZN8particle24SystemSleepConfigurationD1Ev+0x6>
    }
 80a0360:	4620      	mov	r0, r4
 80a0362:	bd38      	pop	{r3, r4, r5, pc}

080a0364 <_ZN8particle24SystemSleepConfiguration4gpioEt13InterruptMode>:
    SystemSleepConfiguration& gpio(pin_t pin, InterruptMode mode) {
 80a0364:	b5f8      	push	{r3, r4, r5, r6, r7, lr}
        if (valid_) {
 80a0366:	7d03      	ldrb	r3, [r0, #20]
    SystemSleepConfiguration& gpio(pin_t pin, InterruptMode mode) {
 80a0368:	4605      	mov	r5, r0
 80a036a:	460f      	mov	r7, r1
 80a036c:	4616      	mov	r6, r2
        if (valid_) {
 80a036e:	b18b      	cbz	r3, 80a0394 <_ZN8particle24SystemSleepConfiguration4gpioEt13InterruptMode+0x30>
        return wakeupSourceFeatured(type, config_->wakeup_sources);
 80a0370:	6803      	ldr	r3, [r0, #0]
 80a0372:	68db      	ldr	r3, [r3, #12]
        if (!start) {
 80a0374:	b183      	cbz	r3, 80a0398 <_ZN8particle24SystemSleepConfiguration4gpioEt13InterruptMode+0x34>
            if (start->type == type) {
 80a0376:	889a      	ldrh	r2, [r3, #4]
 80a0378:	2a01      	cmp	r2, #1
 80a037a:	d006      	beq.n	80a038a <_ZN8particle24SystemSleepConfiguration4gpioEt13InterruptMode+0x26>
            start = start->next;
 80a037c:	689b      	ldr	r3, [r3, #8]
        while (start) {
 80a037e:	e7f9      	b.n	80a0374 <_ZN8particle24SystemSleepConfiguration4gpioEt13InterruptMode+0x10>
                wakeup = wakeupSourceFeatured(HAL_WAKEUP_SOURCE_TYPE_GPIO, wakeup->next);
 80a0380:	689b      	ldr	r3, [r3, #8]
        if (!start) {
 80a0382:	b14b      	cbz	r3, 80a0398 <_ZN8particle24SystemSleepConfiguration4gpioEt13InterruptMode+0x34>
            if (start->type == type) {
 80a0384:	889a      	ldrh	r2, [r3, #4]
 80a0386:	2a01      	cmp	r2, #1
 80a0388:	d1fa      	bne.n	80a0380 <_ZN8particle24SystemSleepConfiguration4gpioEt13InterruptMode+0x1c>
            while (wakeup) {
 80a038a:	b12b      	cbz	r3, 80a0398 <_ZN8particle24SystemSleepConfiguration4gpioEt13InterruptMode+0x34>
                if (gpioWakeup->pin == pin) {
 80a038c:	899a      	ldrh	r2, [r3, #12]
 80a038e:	42ba      	cmp	r2, r7
 80a0390:	d1f6      	bne.n	80a0380 <_ZN8particle24SystemSleepConfiguration4gpioEt13InterruptMode+0x1c>
                    gpioWakeup->mode = mode;
 80a0392:	739e      	strb	r6, [r3, #14]
    }
 80a0394:	4628      	mov	r0, r5
 80a0396:	bdf8      	pop	{r3, r4, r5, r6, r7, pc}
            auto wakeupSource = new(std::nothrow) hal_wakeup_source_gpio_t();
 80a0398:	2010      	movs	r0, #16
 80a039a:	490a      	ldr	r1, [pc, #40]	; (80a03c4 <_ZN8particle24SystemSleepConfiguration4gpioEt13InterruptMode+0x60>)
 80a039c:	f00e fbf6 	bl	80aeb8c <_ZnwjRKSt9nothrow_t>
 80a03a0:	4604      	mov	r4, r0
 80a03a2:	b168      	cbz	r0, 80a03c0 <_ZN8particle24SystemSleepConfiguration4gpioEt13InterruptMode+0x5c>
 80a03a4:	2210      	movs	r2, #16
 80a03a6:	2100      	movs	r1, #0
 80a03a8:	f011 fbc8 	bl	80b1b3c <memset>
            wakeupSource->base.size = sizeof(hal_wakeup_source_gpio_t);
 80a03ac:	4b06      	ldr	r3, [pc, #24]	; (80a03c8 <_ZN8particle24SystemSleepConfiguration4gpioEt13InterruptMode+0x64>)
            wakeupSource->pin = pin;
 80a03ae:	81a7      	strh	r7, [r4, #12]
            wakeupSource->base.size = sizeof(hal_wakeup_source_gpio_t);
 80a03b0:	6023      	str	r3, [r4, #0]
            wakeupSource->base.type = HAL_WAKEUP_SOURCE_TYPE_GPIO;
 80a03b2:	2301      	movs	r3, #1
 80a03b4:	80a3      	strh	r3, [r4, #4]
            wakeupSource->base.next = config_.wakeup_sources;
 80a03b6:	692b      	ldr	r3, [r5, #16]
            wakeupSource->mode = mode;
 80a03b8:	73a6      	strb	r6, [r4, #14]
            wakeupSource->base.next = config_.wakeup_sources;
 80a03ba:	60a3      	str	r3, [r4, #8]
            config_.wakeup_sources = reinterpret_cast<hal_wakeup_source_base_t*>(wakeupSource);
 80a03bc:	612c      	str	r4, [r5, #16]
 80a03be:	e7e9      	b.n	80a0394 <_ZN8particle24SystemSleepConfiguration4gpioEt13InterruptMode+0x30>
                valid_ = false;
 80a03c0:	7528      	strb	r0, [r5, #20]
                return *this;
 80a03c2:	e7e7      	b.n	80a0394 <_ZN8particle24SystemSleepConfiguration4gpioEt13InterruptMode+0x30>
 80a03c4:	080b5a74 	.word	0x080b5a74
 80a03c8:	00030010 	.word	0x00030010

080a03cc <_ZN17SystemSleepResult22freeWakeupSourceMemoryEv>:
    void freeWakeupSourceMemory() {
 80a03cc:	b510      	push	{r4, lr}
 80a03ce:	4604      	mov	r4, r0
        if (wakeupSource_) {
 80a03d0:	6800      	ldr	r0, [r0, #0]
 80a03d2:	b118      	cbz	r0, 80a03dc <_ZN17SystemSleepResult22freeWakeupSourceMemoryEv+0x10>
            free(wakeupSource_);
 80a03d4:	f00b f956 	bl	80ab684 <free>
            wakeupSource_ = nullptr;
 80a03d8:	2300      	movs	r3, #0
 80a03da:	6023      	str	r3, [r4, #0]
    }
 80a03dc:	bd10      	pop	{r4, pc}
	...

080a03e0 <_ZN11SystemClass11sleepResultEv>:
    inline pin_t wakeUpPin() {
        return sleepResult().pin();
    }

    // FIXME: SystemSleepResult
    SleepResult sleepResult() {
 80a03e0:	b5f0      	push	{r4, r5, r6, r7, lr}
        //         // Woken up from standby mode
        //         sleepResult_ = SleepResult(WAKEUP_REASON_PIN_OR_RTC, SYSTEM_ERROR_NONE, WKP);
        //     }
        // });
        static bool f = false;
        if (!f) {
 80a03e2:	4b23      	ldr	r3, [pc, #140]	; (80a0470 <_ZN11SystemClass11sleepResultEv+0x90>)
    SleepResult sleepResult() {
 80a03e4:	4605      	mov	r5, r0
        if (!f) {
 80a03e6:	781e      	ldrb	r6, [r3, #0]
    SleepResult sleepResult() {
 80a03e8:	460c      	mov	r4, r1
 80a03ea:	b085      	sub	sp, #20
 80a03ec:	1d8f      	adds	r7, r1, #6
        if (!f) {
 80a03ee:	b9f6      	cbnz	r6, 80a042e <_ZN11SystemClass11sleepResultEv+0x4e>
            f = true;
 80a03f0:	2201      	movs	r2, #1
 80a03f2:	701a      	strb	r2, [r3, #0]
            if (resetReason() == RESET_REASON_POWER_MANAGEMENT) {
 80a03f4:	f7ff fe98 	bl	80a0128 <_ZNK11SystemClass11resetReasonEv.isra.0>
 80a03f8:	281e      	cmp	r0, #30
 80a03fa:	d118      	bne.n	80a042e <_ZN11SystemClass11sleepResultEv+0x4e>
            : wakeupSource_(nullptr),
 80a03fc:	f44f 3240 	mov.w	r2, #196608	; 0x30000
 80a0400:	f44f 1388 	mov.w	r3, #1114112	; 0x110000
 80a0404:	e9cd 2302 	strd	r2, r3, [sp, #8]
        compatResult_ = result.compatResult_;
 80a0408:	f8dd 300a 	ldr.w	r3, [sp, #10]
        error_ = result.error_;
 80a040c:	80a6      	strh	r6, [r4, #4]
        compatResult_ = result.compatResult_;
 80a040e:	f8c4 3006 	str.w	r3, [r4, #6]
 80a0412:	f8bd 300e 	ldrh.w	r3, [sp, #14]
        freeWakeupSourceMemory();
 80a0416:	4620      	mov	r0, r4
        compatResult_ = result.compatResult_;
 80a0418:	80bb      	strh	r3, [r7, #4]
              compatResult_(r) {
 80a041a:	9601      	str	r6, [sp, #4]
        freeWakeupSourceMemory();
 80a041c:	f7ff ffd6 	bl	80a03cc <_ZN17SystemSleepResult22freeWakeupSourceMemoryEv>
        if (result.wakeupSource_) {
 80a0420:	9b01      	ldr	r3, [sp, #4]
 80a0422:	b10b      	cbz	r3, 80a0428 <_ZN11SystemClass11sleepResultEv+0x48>
            wakeupSource_ = result.wakeupSource_;
 80a0424:	6023      	str	r3, [r4, #0]
            result.wakeupSource_ = nullptr;
 80a0426:	9601      	str	r6, [sp, #4]
        freeWakeupSourceMemory();
 80a0428:	a801      	add	r0, sp, #4
 80a042a:	f7ff ffcf 	bl	80a03cc <_ZN17SystemSleepResult22freeWakeupSourceMemoryEv>
        if (error_ || wakeupSource_) {
 80a042e:	f9b4 3004 	ldrsh.w	r3, [r4, #4]
 80a0432:	6822      	ldr	r2, [r4, #0]
 80a0434:	b943      	cbnz	r3, 80a0448 <_ZN11SystemClass11sleepResultEv+0x68>
 80a0436:	b942      	cbnz	r2, 80a044a <_ZN11SystemClass11sleepResultEv+0x6a>
                // Woken up from standby mode
                systemSleepResult_ = SystemSleepResult(SleepResult(WAKEUP_REASON_PIN_OR_RTC, SYSTEM_ERROR_NONE, WKP));
            }
        }
        return systemSleepResult_;
    }
 80a0438:	4628      	mov	r0, r5
        return compatResult_;
 80a043a:	f8d4 3006 	ldr.w	r3, [r4, #6]
 80a043e:	602b      	str	r3, [r5, #0]
 80a0440:	88bb      	ldrh	r3, [r7, #4]
 80a0442:	80ab      	strh	r3, [r5, #4]
    }
 80a0444:	b005      	add	sp, #20
 80a0446:	bdf0      	pop	{r4, r5, r6, r7, pc}
        if (wakeupSource_) {
 80a0448:	b122      	cbz	r2, 80a0454 <_ZN11SystemClass11sleepResultEv+0x74>
            return static_cast<SystemSleepWakeupReason>(wakeupSource_->type);
 80a044a:	8891      	ldrh	r1, [r2, #4]
            switch (wakeupReason()) {
 80a044c:	2901      	cmp	r1, #1
 80a044e:	d003      	beq.n	80a0458 <_ZN11SystemClass11sleepResultEv+0x78>
 80a0450:	2904      	cmp	r1, #4
 80a0452:	d006      	beq.n	80a0462 <_ZN11SystemClass11sleepResultEv+0x82>
                    compatResult_ = SleepResult(WAKEUP_REASON_UNKNOWN, error());
 80a0454:	2204      	movs	r2, #4
 80a0456:	e005      	b.n	80a0464 <_ZN11SystemClass11sleepResultEv+0x84>
            return reinterpret_cast<hal_wakeup_source_gpio_t*>(wakeupSource_)->pin;
 80a0458:	8992      	ldrh	r2, [r2, #12]
                    compatResult_ = SleepResult(WAKEUP_REASON_PIN, error(), wakeupPin());
 80a045a:	71a1      	strb	r1, [r4, #6]
 80a045c:	8123      	strh	r3, [r4, #8]
 80a045e:	8162      	strh	r2, [r4, #10]
                    break;
 80a0460:	e7ea      	b.n	80a0438 <_ZN11SystemClass11sleepResultEv+0x58>
                    compatResult_ = SleepResult(WAKEUP_REASON_RTC, error());
 80a0462:	2202      	movs	r2, #2
                    compatResult_ = SleepResult(WAKEUP_REASON_UNKNOWN, error());
 80a0464:	8123      	strh	r3, [r4, #8]
 80a0466:	f64f 73ff 	movw	r3, #65535	; 0xffff
 80a046a:	71a2      	strb	r2, [r4, #6]
 80a046c:	8163      	strh	r3, [r4, #10]
                    break;
 80a046e:	e7e3      	b.n	80a0438 <_ZN11SystemClass11sleepResultEv+0x58>
 80a0470:	20000140 	.word	0x20000140

080a0474 <_ZN6ThreadC1EPKcPFvPvES2_hj>:
public:
    Thread()
    {
    }

    Thread(const char* name, os_thread_fn_t function, void* function_param=NULL,
 80a0474:	e92d 41f3 	stmdb	sp!, {r0, r1, r4, r5, r6, r7, r8, lr}
 80a0478:	4604      	mov	r4, r0
 80a047a:	460e      	mov	r6, r1
            os_thread_prio_t priority=OS_THREAD_PRIORITY_DEFAULT, size_t stack_size=OS_THREAD_STACK_SIZE_DEFAULT)
        : d_(new(std::nothrow) Data)
 80a047c:	2014      	movs	r0, #20
 80a047e:	491c      	ldr	r1, [pc, #112]	; (80a04f0 <_ZN6ThreadC1EPKcPFvPvES2_hj+0x7c>)
    Thread(const char* name, os_thread_fn_t function, void* function_param=NULL,
 80a0480:	4690      	mov	r8, r2
 80a0482:	461f      	mov	r7, r3
        : d_(new(std::nothrow) Data)
 80a0484:	f00e fb82 	bl	80aeb8c <_ZnwjRKSt9nothrow_t>
 80a0488:	b130      	cbz	r0, 80a0498 <_ZN6ThreadC1EPKcPFvPvES2_hj+0x24>

  template<std::size_t _Idx, typename _Head>
    struct _Head_base<_Idx, _Head, false>
    {
      constexpr _Head_base()
      : _M_head_impl() { }
 80a048a:	2500      	movs	r5, #0
            exited(false) {
 80a048c:	e9c0 5500 	strd	r5, r5, [r0]
 80a0490:	e9c0 5502 	strd	r5, r5, [r0, #8]
 80a0494:	7405      	strb	r5, [r0, #16]
 80a0496:	7445      	strb	r5, [r0, #17]
      static_assert( !is_rvalue_reference<_Dp>::value,
		     "unique_ptr's deleter type must be a function object type"
		     " or an lvalue reference type" );

      __uniq_ptr_impl() = default;
      __uniq_ptr_impl(pointer __p) : _M_t() { _M_ptr() = __p; }
 80a0498:	6020      	str	r0, [r4, #0]
    {
        if (!d_) {
 80a049a:	b198      	cbz	r0, 80a04c4 <_ZN6ThreadC1EPKcPFvPvES2_hj+0x50>
            goto error;
        }
        d_->func = function;
        d_->func_param = function_param;
        if (os_thread_create(&d_->handle, name, priority, &Thread::run, d_.get(), stack_size) != 0) {
 80a049c:	9b09      	ldr	r3, [sp, #36]	; 0x24
        d_->func_param = function_param;
 80a049e:	e9c0 8702 	strd	r8, r7, [r0, #8]
        if (os_thread_create(&d_->handle, name, priority, &Thread::run, d_.get(), stack_size) != 0) {
 80a04a2:	4631      	mov	r1, r6
 80a04a4:	e9cd 0300 	strd	r0, r3, [sp]
 80a04a8:	f89d 2020 	ldrb.w	r2, [sp, #32]
 80a04ac:	4b11      	ldr	r3, [pc, #68]	; (80a04f4 <_ZN6ThreadC1EPKcPFvPvES2_hj+0x80>)
 80a04ae:	3004      	adds	r0, #4
 80a04b0:	f00a fd26 	bl	80aaf00 <os_thread_create>
 80a04b4:	b930      	cbnz	r0, 80a04c4 <_ZN6ThreadC1EPKcPFvPvES2_hj+0x50>
	_M_deleter() = std::forward<_Dp>(__u._M_deleter());
	return *this;
      }

      pointer&   _M_ptr() { return std::get<0>(_M_t); }
      pointer    _M_ptr() const { return std::get<0>(_M_t); }
 80a04b6:	6823      	ldr	r3, [r4, #0]
            goto error;
        }
        while (!d_->started) {
 80a04b8:	7c1b      	ldrb	r3, [r3, #16]
 80a04ba:	b9a3      	cbnz	r3, 80a04e6 <_ZN6ThreadC1EPKcPFvPvES2_hj+0x72>
            // FIXME: This used to be os_thread_yield() but for some unknown reasons sometimes
            // it doesn't let the new thread to run.
            HAL_Delay_Milliseconds(1);
 80a04bc:	2001      	movs	r0, #1
 80a04be:	f00a fda7 	bl	80ab010 <HAL_Delay_Milliseconds>
        while (!d_->started) {
 80a04c2:	e7f8      	b.n	80a04b6 <_ZN6ThreadC1EPKcPFvPvES2_hj+0x42>
      const _Dp& _M_deleter() const { return std::get<1>(_M_t); }

      void reset(pointer __p) noexcept
      {
	const pointer __old_p = _M_ptr();
	_M_ptr() = __p;
 80a04c4:	2300      	movs	r3, #0
	const pointer __old_p = _M_ptr();
 80a04c6:	6825      	ldr	r5, [r4, #0]
	_M_ptr() = __p;
 80a04c8:	6023      	str	r3, [r4, #0]
	if (__old_p)
 80a04ca:	b165      	cbz	r5, 80a04e6 <_ZN6ThreadC1EPKcPFvPvES2_hj+0x72>
      ~unique_ptr() noexcept
      {
	static_assert(__is_invocable<deleter_type&, pointer>::value,
		      "unique_ptr's deleter must be invocable with a pointer");
	auto& __ptr = _M_t._M_ptr();
	if (__ptr != nullptr)
 80a04cc:	682e      	ldr	r6, [r5, #0]
 80a04ce:	b136      	cbz	r6, 80a04de <_ZN6ThreadC1EPKcPFvPvES2_hj+0x6a>
 80a04d0:	4630      	mov	r0, r6
 80a04d2:	f7ff feed 	bl	80a02b0 <_ZNSt14_Function_baseD1Ev>
	delete __ptr;
 80a04d6:	2110      	movs	r1, #16
 80a04d8:	4630      	mov	r0, r6
 80a04da:	f7ff fde2 	bl	80a00a2 <_ZdlPvj>
 80a04de:	2114      	movs	r1, #20
 80a04e0:	4628      	mov	r0, r5
 80a04e2:	f7ff fdde 	bl	80a00a2 <_ZdlPvj>
        }
        return;
    error:
        d_.reset();
    }
 80a04e6:	4620      	mov	r0, r4
 80a04e8:	b002      	add	sp, #8
 80a04ea:	e8bd 81f0 	ldmia.w	sp!, {r4, r5, r6, r7, r8, pc}
 80a04ee:	bf00      	nop
 80a04f0:	080b5a74 	.word	0x080b5a74
 80a04f4:	080a4445 	.word	0x080a4445

080a04f8 <_ZN19ApplicationWatchdog7checkinEv>:
	}

	/**
	 * Lifesign that the application is still working normally.
	 */
	static void checkin()
 80a04f8:	b508      	push	{r3, lr}
		return HAL_Timer_Get_Milli_Seconds();
 80a04fa:	f00a fd99 	bl	80ab030 <HAL_Timer_Get_Milli_Seconds>
	{
		last_checkin = current_time();
 80a04fe:	4b01      	ldr	r3, [pc, #4]	; (80a0504 <_ZN19ApplicationWatchdog7checkinEv+0xc>)
 80a0500:	6018      	str	r0, [r3, #0]
	}
 80a0502:	bd08      	pop	{r3, pc}
 80a0504:	20001d70 	.word	0x20001d70

080a0508 <_ZNK5spark6Logger4infoEPKcz>:
    va_start(args, fmt);
    log(LOG_LEVEL_TRACE, fmt, args);
    va_end(args);
}

inline void spark::Logger::info(const char *fmt, ...) const {
 80a0508:	b40e      	push	{r1, r2, r3}
}

inline void spark::Logger::log(LogLevel level, const char *fmt, va_list args) const {
    LogAttributes attr;
    attr.size = sizeof(LogAttributes);
    attr.flags = 0;
 80a050a:	f04f 0c20 	mov.w	ip, #32
 80a050e:	2300      	movs	r3, #0
inline void spark::Logger::info(const char *fmt, ...) const {
 80a0510:	b500      	push	{lr}
 80a0512:	b08c      	sub	sp, #48	; 0x30
 80a0514:	aa0d      	add	r2, sp, #52	; 0x34
 80a0516:	f852 1b04 	ldr.w	r1, [r2], #4
    attr.flags = 0;
 80a051a:	e9cd c304 	strd	ip, r3, [sp, #16]
    log_message_v(level, name_, &attr, nullptr, fmt, args);
 80a051e:	e9cd 1200 	strd	r1, r2, [sp]
    va_start(args, fmt);
 80a0522:	9203      	str	r2, [sp, #12]
    log_message_v(level, name_, &attr, nullptr, fmt, args);
 80a0524:	6801      	ldr	r1, [r0, #0]
 80a0526:	aa04      	add	r2, sp, #16
 80a0528:	201e      	movs	r0, #30
 80a052a:	f00a ff6d 	bl	80ab408 <log_message_v>
}
 80a052e:	b00c      	add	sp, #48	; 0x30
 80a0530:	f85d eb04 	ldr.w	lr, [sp], #4
 80a0534:	b003      	add	sp, #12
 80a0536:	4770      	bx	lr

080a0538 <_Z23getNewSensorMeasurementv>:

// Used for sending to LoRa.
bool haveSentArray[nMaxReadings + 1 + (PIR1Size / maxPIRCountPerMessage) + 1 + (PIR2Size / maxPIRCountPerMessage) + 1];

void getNewSensorMeasurement()
{
 80a0538:	b500      	push	{lr}
  if (!currentlySendingViaLoRa)
 80a053a:	4b13      	ldr	r3, [pc, #76]	; (80a0588 <_Z23getNewSensorMeasurementv+0x50>)
{
 80a053c:	b089      	sub	sp, #36	; 0x24
  if (!currentlySendingViaLoRa)
 80a053e:	781a      	ldrb	r2, [r3, #0]
 80a0540:	4b12      	ldr	r3, [pc, #72]	; (80a058c <_Z23getNewSensorMeasurementv+0x54>)
 80a0542:	b9ea      	cbnz	r2, 80a0580 <_Z23getNewSensorMeasurementv+0x48>
  {
    rdyForUpdate = true;
 80a0544:	2201      	movs	r2, #1

class StringSumHelper : public String
{
public:
	StringSumHelper(const String &s) : String(s) {}
	StringSumHelper(const char *p) : String(p) {}
 80a0546:	4912      	ldr	r1, [pc, #72]	; (80a0590 <_Z23getNewSensorMeasurementv+0x58>)
 80a0548:	4668      	mov	r0, sp
 80a054a:	701a      	strb	r2, [r3, #0]
 80a054c:	f00d f9e2 	bl	80ad914 <_ZN6StringC1EPK19__FlashStringHelper>
    Log.info("Taking measurement " + String(sensors.getReadingCounter()));
 80a0550:	4b10      	ldr	r3, [pc, #64]	; (80a0594 <_Z23getNewSensorMeasurementv+0x5c>)
 80a0552:	220a      	movs	r2, #10
 80a0554:	f8d3 1234 	ldr.w	r1, [r3, #564]	; 0x234
 80a0558:	a804      	add	r0, sp, #16
 80a055a:	f00d fa5b 	bl	80ada14 <_ZN6StringC1Eih>
 80a055e:	a904      	add	r1, sp, #16
 80a0560:	4668      	mov	r0, sp
 80a0562:	f00d fadb 	bl	80adb1c <_ZplRK15StringSumHelperRK6String>
 80a0566:	6801      	ldr	r1, [r0, #0]
 80a0568:	480b      	ldr	r0, [pc, #44]	; (80a0598 <_Z23getNewSensorMeasurementv+0x60>)
 80a056a:	f7ff ffcd 	bl	80a0508 <_ZNK5spark6Logger4infoEPKcz>
 80a056e:	a804      	add	r0, sp, #16
 80a0570:	f00d f986 	bl	80ad880 <_ZN6StringD1Ev>
class StringSumHelper : public String
 80a0574:	4668      	mov	r0, sp
 80a0576:	f00d f983 	bl	80ad880 <_ZN6StringD1Ev>
      tempSensorCounter = sensors.getReadingCounter();
    } */
  }
  else
    rdyForUpdate = false;
}
 80a057a:	b009      	add	sp, #36	; 0x24
 80a057c:	f85d fb04 	ldr.w	pc, [sp], #4
    rdyForUpdate = false;
 80a0580:	2200      	movs	r2, #0
 80a0582:	701a      	strb	r2, [r3, #0]
}
 80a0584:	e7f9      	b.n	80a057a <_Z23getNewSensorMeasurementv+0x42>
 80a0586:	bf00      	nop
 80a0588:	2000029c 	.word	0x2000029c
 80a058c:	200004e0 	.word	0x200004e0
 80a0590:	080b3133 	.word	0x080b3133
 80a0594:	20001624 	.word	0x20001624
 80a0598:	20001c94 	.word	0x20001c94

080a059c <_ZN16SensorControllerC1Ev>:
// The Class
class SensorController
{

public:
  SensorController(void){}; // Start controller and initalise std values
 80a059c:	b5f8      	push	{r3, r4, r5, r6, r7, lr}
 80a059e:	4604      	mov	r4, r0
	pointer _M_start;
	pointer _M_finish;
	pointer _M_end_of_storage;

	_Vector_impl_data() _GLIBCXX_NOEXCEPT
	: _M_start(), _M_finish(), _M_end_of_storage()
 80a05a0:	2600      	movs	r6, #0
 80a05a2:	f104 0510 	add.w	r5, r4, #16
 80a05a6:	4946      	ldr	r1, [pc, #280]	; (80a06c0 <_ZN16SensorControllerC1Ev+0x124>)
 80a05a8:	f00d f9b4 	bl	80ad914 <_ZN6StringC1EPK19__FlashStringHelper>
 80a05ac:	2299      	movs	r2, #153	; 0x99
 80a05ae:	4628      	mov	r0, r5
 80a05b0:	4944      	ldr	r1, [pc, #272]	; (80a06c4 <_ZN16SensorControllerC1Ev+0x128>)
 80a05b2:	f011 fa9b 	bl	80b1aec <memcpy>
 80a05b6:	462a      	mov	r2, r5
 80a05b8:	2109      	movs	r1, #9
 80a05ba:	e9c4 662b 	strd	r6, r6, [r4, #172]	; 0xac
 80a05be:	e9c4 662d 	strd	r6, r6, [r4, #180]	; 0xb4
 80a05c2:	e9c4 662f 	strd	r6, r6, [r4, #188]	; 0xbc
 80a05c6:	f104 00c4 	add.w	r0, r4, #196	; 0xc4
 80a05ca:	f008 fb95 	bl	80a8cf8 <_ZN9ads1115_1C1EiPA3_c>
 80a05ce:	462a      	mov	r2, r5
 80a05d0:	210d      	movs	r1, #13
 80a05d2:	f504 709e 	add.w	r0, r4, #316	; 0x13c
 80a05d6:	f008 fccb 	bl	80a8f70 <_ZN9ads1115_2C1EiPA3_c>
 80a05da:	462a      	mov	r2, r5
 80a05dc:	2111      	movs	r1, #17
 80a05de:	f504 70da 	add.w	r0, r4, #436	; 0x1b4
 80a05e2:	f008 fe01 	bl	80a91e8 <_ZN9ads1115_3C1EiPA3_c>
 80a05e6:	462a      	mov	r2, r5
 80a05e8:	2115      	movs	r1, #21
 80a05ea:	f504 700b 	add.w	r0, r4, #556	; 0x22c
 80a05ee:	f008 ff37 	bl	80a9460 <_ZN9ads1115_4C1EiPA3_c>
 80a05f2:	462a      	mov	r2, r5
 80a05f4:	2119      	movs	r1, #25
 80a05f6:	f504 7029 	add.w	r0, r4, #676	; 0x2a4
 80a05fa:	f006 ff0b 	bl	80a7414 <_ZN6BME280C1EiPA3_c>
 80a05fe:	462a      	mov	r2, r5
 80a0600:	211e      	movs	r1, #30
 80a0602:	f504 705a 	add.w	r0, r4, #872	; 0x368
 80a0606:	f007 f8a3 	bl	80a7750 <_ZN6CCS811C1EiPA3_c>
 80a060a:	462a      	mov	r2, r5
 80a060c:	2121      	movs	r1, #33	; 0x21
 80a060e:	f504 7075 	add.w	r0, r4, #980	; 0x3d4
 80a0612:	f007 f98f 	bl	80a7934 <_ZN5HTU21C1EiPA3_c>
 80a0616:	462a      	mov	r2, r5
 80a0618:	2123      	movs	r1, #35	; 0x23
 80a061a:	f204 4024 	addw	r0, r4, #1060	; 0x424
 80a061e:	f007 fa67 	bl	80a7af0 <_ZN9MCP9808_jC1EiPA3_c>
 80a0622:	462a      	mov	r2, r5
 80a0624:	2124      	movs	r1, #36	; 0x24
 80a0626:	f504 608c 	add.w	r0, r4, #1120	; 0x460
 80a062a:	f007 fb77 	bl	80a7d1c <_ZN5SGP30C1EiPA3_c>
 80a062e:	462a      	mov	r2, r5
 80a0630:	2126      	movs	r1, #38	; 0x26
 80a0632:	f504 6098 	add.w	r0, r4, #1216	; 0x4c0
 80a0636:	f007 fd2d 	bl	80a8094 <_ZN5SOIL1C1EiPA3_c>
 80a063a:	462a      	mov	r2, r5
 80a063c:	2128      	movs	r1, #40	; 0x28
 80a063e:	f204 501c 	addw	r0, r4, #1308	; 0x51c
 80a0642:	f007 fe29 	bl	80a8298 <_ZN5SOIL2C1EiPA3_c>
 80a0646:	462a      	mov	r2, r5
 80a0648:	212a      	movs	r1, #42	; 0x2a
 80a064a:	f504 60af 	add.w	r0, r4, #1400	; 0x578
 80a064e:	f007 ff25 	bl	80a849c <_ZN5SOIL3C1EiPA3_c>
 80a0652:	462a      	mov	r2, r5
 80a0654:	212c      	movs	r1, #44	; 0x2c
 80a0656:	f204 50d4 	addw	r0, r4, #1492	; 0x5d4
 80a065a:	f008 f821 	bl	80a86a0 <_ZN5SOIL4C1EiPA3_c>
 80a065e:	462a      	mov	r2, r5
 80a0660:	212e      	movs	r1, #46	; 0x2e
 80a0662:	f504 60c6 	add.w	r0, r4, #1584	; 0x630
 80a0666:	f008 f951 	bl	80a890c <_ZN7TSL2561C1EiPA3_c>
 80a066a:	462a      	mov	r2, r5
 80a066c:	2132      	movs	r1, #50	; 0x32
 80a066e:	f504 60d6 	add.w	r0, r4, #1712	; 0x6b0
 80a0672:	f008 fa1f 	bl	80a8ab4 <_ZN8VEML6070C1EiPA3_c>
 80a0676:	4f12      	ldr	r7, [pc, #72]	; (80a06c0 <_ZN16SensorControllerC1Ev+0x124>)
 80a0678:	f8c4 66e8 	str.w	r6, [r4, #1768]	; 0x6e8
 80a067c:	f8c4 66ec 	str.w	r6, [r4, #1772]	; 0x6ec
 80a0680:	f8c4 66f0 	str.w	r6, [r4, #1776]	; 0x6f0
 80a0684:	f8c4 66f4 	str.w	r6, [r4, #1780]	; 0x6f4
 80a0688:	f8c4 66f8 	str.w	r6, [r4, #1784]	; 0x6f8
 80a068c:	f8c4 66fc 	str.w	r6, [r4, #1788]	; 0x6fc
 80a0690:	f504 5691 	add.w	r6, r4, #4640	; 0x1220
 80a0694:	f604 65f8 	addw	r5, r4, #3832	; 0xef8
 80a0698:	3608      	adds	r6, #8
 80a069a:	4628      	mov	r0, r5
 80a069c:	4639      	mov	r1, r7
 80a069e:	3510      	adds	r5, #16
 80a06a0:	f00d f938 	bl	80ad914 <_ZN6StringC1EPK19__FlashStringHelper>
 80a06a4:	42ae      	cmp	r6, r5
 80a06a6:	d1f8      	bne.n	80a069a <_ZN16SensorControllerC1Ev+0xfe>
 80a06a8:	2200      	movs	r2, #0
 80a06aa:	f504 5380 	add.w	r3, r4, #4096	; 0x1000
 80a06ae:	f8c3 222c 	str.w	r2, [r3, #556]	; 0x22c
 80a06b2:	f883 2230 	strb.w	r2, [r3, #560]	; 0x230
 80a06b6:	f8c3 2234 	str.w	r2, [r3, #564]	; 0x234
 80a06ba:	4620      	mov	r0, r4
 80a06bc:	bdf8      	pop	{r3, r4, r5, r6, r7, pc}
 80a06be:	bf00      	nop
 80a06c0:	080b5867 	.word	0x080b5867
 80a06c4:	080b49f6 	.word	0x080b49f6

080a06c8 <_ZN16SensorController9CalibrateEv>:
  // float *getLatestData(){};                                //{ return staticReadingsVec[savedReadings - 1].data(); };
  // String getJsonCodes(int index){};                        //{ return String(JasonNameVec[index]); };

  void sleep(){}; //{ weatherSensor.goToSleep(); };

  void Calibrate()
 80a06c8:	b538      	push	{r3, r4, r5, lr}
  {
    if (gasSensor.isConnected())
 80a06ca:	f890 3478 	ldrb.w	r3, [r0, #1144]	; 0x478
  void Calibrate()
 80a06ce:	4604      	mov	r4, r0
    if (gasSensor.isConnected())
 80a06d0:	b173      	cbz	r3, 80a06f0 <_ZN16SensorController9CalibrateEv+0x28>
    {
      weatherSensor.UpdateReading();
 80a06d2:	f500 7529 	add.w	r5, r0, #676	; 0x2a4
 80a06d6:	4628      	mov	r0, r5
 80a06d8:	f006 ff6e 	bl	80a75b8 <_ZN6BME28013UpdateReadingEv>
      gasSensor.setAbsHumidity(weatherSensor.getAbsHumidity());
 80a06dc:	4628      	mov	r0, r5
 80a06de:	f006 ff1f 	bl	80a7520 <_ZN6BME28014getAbsHumidityEv>
 80a06e2:	4601      	mov	r1, r0
 80a06e4:	f504 608c 	add.w	r0, r4, #1120	; 0x460
    }
  };
 80a06e8:	e8bd 4038 	ldmia.w	sp!, {r3, r4, r5, lr}
      gasSensor.setAbsHumidity(weatherSensor.getAbsHumidity());
 80a06ec:	f007 bba0 	b.w	80a7e30 <_ZN5SGP3014setAbsHumidityEm>
  };
 80a06f0:	bd38      	pop	{r3, r4, r5, pc}
	...

080a06f4 <_ZN10EEPROMinfoC1E6String>:
  EEPROMinfo(String newname) : flag(0), name(""), TVOC_base(0), eCO2_base(0), setGas(false), gasSetDate(0)
 80a06f4:	b5f8      	push	{r3, r4, r5, r6, r7, lr}
 80a06f6:	2400      	movs	r4, #0
 80a06f8:	4b16      	ldr	r3, [pc, #88]	; (80a0754 <_ZN10EEPROMinfoC1E6String+0x60>)
 80a06fa:	4606      	mov	r6, r0
 80a06fc:	f893 3099 	ldrb.w	r3, [r3, #153]	; 0x99
 80a0700:	460f      	mov	r7, r1
 80a0702:	7043      	strb	r3, [r0, #1]
 80a0704:	2217      	movs	r2, #23
 80a0706:	7004      	strb	r4, [r0, #0]
 80a0708:	4621      	mov	r1, r4
 80a070a:	3002      	adds	r0, #2
 80a070c:	f011 fa16 	bl	80b1b3c <memset>
 80a0710:	2300      	movs	r3, #0
 80a0712:	2200      	movs	r2, #0
 80a0714:	e9c6 2308 	strd	r2, r3, [r6, #32]
    if (newname.length() < 24)
 80a0718:	68bb      	ldr	r3, [r7, #8]
  EEPROMinfo(String newname) : flag(0), name(""), TVOC_base(0), eCO2_base(0), setGas(false), gasSetDate(0)
 80a071a:	8374      	strh	r4, [r6, #26]
    if (newname.length() < 24)
 80a071c:	2b17      	cmp	r3, #23
  EEPROMinfo(String newname) : flag(0), name(""), TVOC_base(0), eCO2_base(0), setGas(false), gasSetDate(0)
 80a071e:	83b4      	strh	r4, [r6, #28]
 80a0720:	77b4      	strb	r4, [r6, #30]
 80a0722:	f106 0501 	add.w	r5, r6, #1
    if (newname.length() < 24)
 80a0726:	d80a      	bhi.n	80a073e <_ZN10EEPROMinfoC1E6String+0x4a>
      for (size_t i = 0; i < newname.length(); i++)
 80a0728:	68bb      	ldr	r3, [r7, #8]
 80a072a:	42a3      	cmp	r3, r4
 80a072c:	d910      	bls.n	80a0750 <_ZN10EEPROMinfoC1E6String+0x5c>
        name[i] = newname.charAt(i);
 80a072e:	4621      	mov	r1, r4
 80a0730:	4638      	mov	r0, r7
 80a0732:	f00d fa59 	bl	80adbe8 <_ZNK6String6charAtEj>
      for (size_t i = 0; i < newname.length(); i++)
 80a0736:	3401      	adds	r4, #1
        name[i] = newname.charAt(i);
 80a0738:	f805 0b01 	strb.w	r0, [r5], #1
      for (size_t i = 0; i < newname.length(); i++)
 80a073c:	e7f4      	b.n	80a0728 <_ZN10EEPROMinfoC1E6String+0x34>
        name[i] = newname.charAt(i);
 80a073e:	4621      	mov	r1, r4
 80a0740:	4638      	mov	r0, r7
 80a0742:	f00d fa51 	bl	80adbe8 <_ZNK6String6charAtEj>
      for (size_t i = 0; i < 24; i++)
 80a0746:	3401      	adds	r4, #1
 80a0748:	2c18      	cmp	r4, #24
        name[i] = newname.charAt(i);
 80a074a:	f805 0b01 	strb.w	r0, [r5], #1
      for (size_t i = 0; i < 24; i++)
 80a074e:	d1f6      	bne.n	80a073e <_ZN10EEPROMinfoC1E6String+0x4a>
  }
 80a0750:	4630      	mov	r0, r6
 80a0752:	bdf8      	pop	{r3, r4, r5, r6, r7, pc}
 80a0754:	080b49f6 	.word	0x080b49f6

080a0758 <_Z13setup_Optionsv>:
{
 80a0758:	b508      	push	{r3, lr}
        return wlan_select_antenna(antenna);
 80a075a:	2003      	movs	r0, #3
 80a075c:	f00a fe24 	bl	80ab3a8 <wlan_select_antenna>
        return HAL_Feature_Set(feature, true);
 80a0760:	2101      	movs	r1, #1
 80a0762:	4608      	mov	r0, r1
 80a0764:	f00a fc3c 	bl	80aafe0 <HAL_Feature_Set>
 80a0768:	2101      	movs	r1, #1
 80a076a:	2004      	movs	r0, #4
 80a076c:	f00a fc38 	bl	80aafe0 <HAL_Feature_Set>
}
 80a0770:	e8bd 4008 	ldmia.w	sp!, {r3, lr}
        system_get_flag(flag, &value, nullptr);
        return value;
    }

    static inline void set_flag(system_flag_t flag, uint8_t value) {
        system_set_flag(flag, value, nullptr);
 80a0774:	2200      	movs	r2, #0
 80a0776:	2001      	movs	r0, #1
 80a0778:	4611      	mov	r1, r2
 80a077a:	f00a be75 	b.w	80ab468 <system_set_flag>
	...

080a0780 <_Z12getDecimalHrv>:
  else
    Log.info("Not near Wakeup time...");
}

float getDecimalHr()
{
 80a0780:	b538      	push	{r3, r4, r5, lr}
  // Log.info("Getting decimal hours for now.");
  int year = Time.year();
 80a0782:	f00d fd35 	bl	80ae1f0 <_ZN9TimeClass4yearEv>
 80a0786:	4604      	mov	r4, r0
  long secFromEpoc = Time.now();
 80a0788:	f00d fce9 	bl	80ae15e <_ZN9TimeClass3nowEv>
  int additionalSeconds = 0;
  if (year > 2020)
 80a078c:	f240 73e4 	movw	r3, #2020	; 0x7e4
 80a0790:	429c      	cmp	r4, r3
  long secFromEpoc = Time.now();
 80a0792:	4605      	mov	r5, r0
  if (year > 2020)
 80a0794:	dd1e      	ble.n	80a07d4 <_Z12getDecimalHrv+0x54>
  {
    additionalSeconds = floor((year - 2021) / 4 + 1) * 86400;
 80a0796:	f2a4 70e5 	subw	r0, r4, #2021	; 0x7e5
 80a079a:	1080      	asrs	r0, r0, #2
  template<typename _Tp>
    inline _GLIBCXX_CONSTEXPR
    typename __gnu_cxx::__enable_if<__is_integer<_Tp>::__value,
                                    double>::__type
    floor(_Tp __x)
    { return __builtin_floor(__x); }
 80a079c:	3001      	adds	r0, #1
 80a079e:	f00f ff73 	bl	80b0688 <__aeabi_i2d>
 80a07a2:	a30d      	add	r3, pc, #52	; (adr r3, 80a07d8 <_Z12getDecimalHrv+0x58>)
 80a07a4:	e9d3 2300 	ldrd	r2, r3, [r3]
 80a07a8:	f00f ffd8 	bl	80b075c <__aeabi_dmul>
 80a07ac:	f010 fa86 	bl	80b0cbc <__aeabi_d2iz>
  }
  long secStartOfYear = 1546300800 + (year - 2019) * 31536000 + additionalSeconds;
 80a07b0:	4b0d      	ldr	r3, [pc, #52]	; (80a07e8 <_Z12getDecimalHrv+0x68>)
 80a07b2:	f2a4 74e3 	subw	r4, r4, #2019	; 0x7e3
 80a07b6:	fb03 0404 	mla	r4, r3, r4, r0
 80a07ba:	480c      	ldr	r0, [pc, #48]	; (80a07ec <_Z12getDecimalHrv+0x6c>)
 80a07bc:	4420      	add	r0, r4
  long diffFromSoY = secFromEpoc - secStartOfYear;
  float hrs = diffFromSoY * 1.0 / 3600.0;
 80a07be:	1a28      	subs	r0, r5, r0
 80a07c0:	f00f ff62 	bl	80b0688 <__aeabi_i2d>
 80a07c4:	a306      	add	r3, pc, #24	; (adr r3, 80a07e0 <_Z12getDecimalHrv+0x60>)
 80a07c6:	e9d3 2300 	ldrd	r2, r3, [r3]
 80a07ca:	f010 f8f1 	bl	80b09b0 <__aeabi_ddiv>
 80a07ce:	f010 fabd 	bl	80b0d4c <__aeabi_d2f>

  return hrs;
}
 80a07d2:	bd38      	pop	{r3, r4, r5, pc}
  int additionalSeconds = 0;
 80a07d4:	2000      	movs	r0, #0
 80a07d6:	e7eb      	b.n	80a07b0 <_Z12getDecimalHrv+0x30>
 80a07d8:	00000000 	.word	0x00000000
 80a07dc:	40f51800 	.word	0x40f51800
 80a07e0:	00000000 	.word	0x00000000
 80a07e4:	40ac2000 	.word	0x40ac2000
 80a07e8:	01e13380 	.word	0x01e13380
 80a07ec:	5c2aad80 	.word	0x5c2aad80

080a07f0 <_Z12StartPIRLoopi>:

  return timeOut;
}

void StartPIRLoop(int pin)
{
 80a07f0:	e92d 43f0 	stmdb	sp!, {r4, r5, r6, r7, r8, r9, lr}
  Log.info("**********************");
 80a07f4:	49a6      	ldr	r1, [pc, #664]	; (80a0a90 <_Z12StartPIRLoopi+0x2a0>)
{
 80a07f6:	b08d      	sub	sp, #52	; 0x34
 80a07f8:	4606      	mov	r6, r0
  Log.info("**********************");
 80a07fa:	48a6      	ldr	r0, [pc, #664]	; (80a0a94 <_Z12StartPIRLoopi+0x2a4>)
 80a07fc:	f7ff fe84 	bl	80a0508 <_ZNK5spark6Logger4infoEPKcz>
  Log.info("      PIR loop");
 80a0800:	49a5      	ldr	r1, [pc, #660]	; (80a0a98 <_Z12StartPIRLoopi+0x2a8>)
 80a0802:	48a4      	ldr	r0, [pc, #656]	; (80a0a94 <_Z12StartPIRLoopi+0x2a4>)
 80a0804:	f7ff fe80 	bl	80a0508 <_ZNK5spark6Logger4infoEPKcz>
  Log.info("**********************");
 80a0808:	49a1      	ldr	r1, [pc, #644]	; (80a0a90 <_Z12StartPIRLoopi+0x2a0>)
 80a080a:	48a2      	ldr	r0, [pc, #648]	; (80a0a94 <_Z12StartPIRLoopi+0x2a4>)
 80a080c:	f7ff fe7c 	bl	80a0508 <_ZNK5spark6Logger4infoEPKcz>
  isPIRLoop = true;
 80a0810:	2301      	movs	r3, #1
 80a0812:	4aa2      	ldr	r2, [pc, #648]	; (80a0a9c <_Z12StartPIRLoopi+0x2ac>)
 80a0814:	4ca2      	ldr	r4, [pc, #648]	; (80a0aa0 <_Z12StartPIRLoopi+0x2b0>)
 80a0816:	7013      	strb	r3, [r2, #0]
  if (isPausingPIR)
 80a0818:	4aa2      	ldr	r2, [pc, #648]	; (80a0aa4 <_Z12StartPIRLoopi+0x2b4>)
 80a081a:	7812      	ldrb	r2, [r2, #0]
 80a081c:	b102      	cbz	r2, 80a0820 <_Z12StartPIRLoopi+0x30>
    pausedPIR = true;
 80a081e:	7063      	strb	r3, [r4, #1]
  float currentTime = getDecimalHr();
 80a0820:	f7ff ffae 	bl	80a0780 <_Z12getDecimalHrv>

  if (!firstload && isControllingRaspPi)
 80a0824:	78a3      	ldrb	r3, [r4, #2]
  float currentTime = getDecimalHr();
 80a0826:	4605      	mov	r5, r0
  if (!firstload && isControllingRaspPi)
 80a0828:	b99b      	cbnz	r3, 80a0852 <_Z12StartPIRLoopi+0x62>
 80a082a:	4b9f      	ldr	r3, [pc, #636]	; (80a0aa8 <_Z12StartPIRLoopi+0x2b8>)
 80a082c:	781b      	ldrb	r3, [r3, #0]
 80a082e:	b183      	cbz	r3, 80a0852 <_Z12StartPIRLoopi+0x62>
  {

    if ((Time.now() - installDate) > 365)
 80a0830:	f00d fc95 	bl	80ae15e <_ZN9TimeClass3nowEv>
 80a0834:	4f9d      	ldr	r7, [pc, #628]	; (80a0aac <_Z12StartPIRLoopi+0x2bc>)
 80a0836:	17c3      	asrs	r3, r0, #31
 80a0838:	e9d7 1200 	ldrd	r1, r2, [r7]
 80a083c:	1a40      	subs	r0, r0, r1
 80a083e:	eb63 0302 	sbc.w	r3, r3, r2
 80a0842:	f5b0 7fb7 	cmp.w	r0, #366	; 0x16e
 80a0846:	f173 0300 	sbcs.w	r3, r3, #0
 80a084a:	f2c0 8149 	blt.w	80a0ae0 <_Z12StartPIRLoopi+0x2f0>
    {
      photosPerDay = 2;
 80a084e:	2302      	movs	r3, #2
 80a0850:	80a3      	strh	r3, [r4, #4]
    else
    {
      photosPerDay = remainingPhotos / (365 - ((Time.now() - installDate) * 1.0 / 86400.0));
    }
  }
  PIRPausedTime = Time.now();
 80a0852:	f00d fc84 	bl	80ae15e <_ZN9TimeClass3nowEv>
 80a0856:	60a0      	str	r0, [r4, #8]
  delay(10);
 80a0858:	200a      	movs	r0, #10
 80a085a:	f00a ff7f 	bl	80ab75c <delay>
  if (pin == 1)
 80a085e:	2e01      	cmp	r6, #1
 80a0860:	f040 8163 	bne.w	80a0b2a <_Z12StartPIRLoopi+0x33a>
  {
    Log.info("PIR 1 detected, saving decimal hours");
 80a0864:	4992      	ldr	r1, [pc, #584]	; (80a0ab0 <_Z12StartPIRLoopi+0x2c0>)
 80a0866:	488b      	ldr	r0, [pc, #556]	; (80a0a94 <_Z12StartPIRLoopi+0x2a4>)
 80a0868:	f7ff fe4e 	bl	80a0508 <_ZNK5spark6Logger4infoEPKcz>
    PIR1[nPIR1] = currentTime;
 80a086c:	89a3      	ldrh	r3, [r4, #12]
 80a086e:	eb04 0283 	add.w	r2, r4, r3, lsl #2
 80a0872:	6115      	str	r5, [r2, #16]
    nPIR1++;
    LoRaPIR1Count++;
 80a0874:	8aa2      	ldrh	r2, [r4, #20]
    nPIR1++;
 80a0876:	3301      	adds	r3, #1
 80a0878:	b29b      	uxth	r3, r3
    LoRaPIR1Count++;
 80a087a:	3201      	adds	r2, #1
    nPIR1++;
 80a087c:	81a3      	strh	r3, [r4, #12]
    LoRaPIR1Count++;
 80a087e:	82a2      	strh	r2, [r4, #20]
    if (nPIR1 >= PIR1Size)
 80a0880:	b113      	cbz	r3, 80a0888 <_Z12StartPIRLoopi+0x98>
    {
      LoopedPIR1 = true;
      nPIR1 = 0;
 80a0882:	2300      	movs	r3, #0
      LoopedPIR1 = true;
 80a0884:	75a6      	strb	r6, [r4, #22]
      nPIR1 = 0;
 80a0886:	81a3      	strh	r3, [r4, #12]
      LoopedPIR2 = true;
      nPIR2 = 0;
    }
  }

  Log.info("**********************");
 80a0888:	4981      	ldr	r1, [pc, #516]	; (80a0a90 <_Z12StartPIRLoopi+0x2a0>)
 80a088a:	4882      	ldr	r0, [pc, #520]	; (80a0a94 <_Z12StartPIRLoopi+0x2a4>)
 80a088c:	f7ff fe3c 	bl	80a0508 <_ZNK5spark6Logger4infoEPKcz>
	StringSumHelper(const char *p) : String(p) {}
 80a0890:	4988      	ldr	r1, [pc, #544]	; (80a0ab4 <_Z12StartPIRLoopi+0x2c4>)
 80a0892:	a804      	add	r0, sp, #16
 80a0894:	f00d f83e 	bl	80ad914 <_ZN6StringC1EPK19__FlashStringHelper>
  Log.info("Taking " + String(photosPerDay) + " photos a day. " + String(remainingPhotos) + " remainging photos.");
 80a0898:	220a      	movs	r2, #10
 80a089a:	88a1      	ldrh	r1, [r4, #4]
 80a089c:	4668      	mov	r0, sp
 80a089e:	f00d f8b9 	bl	80ada14 <_ZN6StringC1Eih>
 80a08a2:	4669      	mov	r1, sp
 80a08a4:	a804      	add	r0, sp, #16
 80a08a6:	f00d f939 	bl	80adb1c <_ZplRK15StringSumHelperRK6String>
 80a08aa:	4983      	ldr	r1, [pc, #524]	; (80a0ab8 <_Z12StartPIRLoopi+0x2c8>)
 80a08ac:	f00d f942 	bl	80adb34 <_ZplRK15StringSumHelperPKc>
 80a08b0:	4606      	mov	r6, r0
 80a08b2:	220a      	movs	r2, #10
 80a08b4:	88e1      	ldrh	r1, [r4, #6]
 80a08b6:	a808      	add	r0, sp, #32
 80a08b8:	f00d f8ac 	bl	80ada14 <_ZN6StringC1Eih>
 80a08bc:	4630      	mov	r0, r6
 80a08be:	a908      	add	r1, sp, #32
 80a08c0:	f00d f92c 	bl	80adb1c <_ZplRK15StringSumHelperRK6String>
 80a08c4:	497d      	ldr	r1, [pc, #500]	; (80a0abc <_Z12StartPIRLoopi+0x2cc>)
 80a08c6:	f00d f935 	bl	80adb34 <_ZplRK15StringSumHelperPKc>
 80a08ca:	6801      	ldr	r1, [r0, #0]
 80a08cc:	4871      	ldr	r0, [pc, #452]	; (80a0a94 <_Z12StartPIRLoopi+0x2a4>)
 80a08ce:	f7ff fe1b 	bl	80a0508 <_ZNK5spark6Logger4infoEPKcz>
 80a08d2:	a808      	add	r0, sp, #32
 80a08d4:	f00c ffd4 	bl	80ad880 <_ZN6StringD1Ev>
 80a08d8:	4668      	mov	r0, sp
 80a08da:	f00c ffd1 	bl	80ad880 <_ZN6StringD1Ev>
class StringSumHelper : public String
 80a08de:	a804      	add	r0, sp, #16
 80a08e0:	f00c ffce 	bl	80ad880 <_ZN6StringD1Ev>
  Log.info("Time since last photo: %d seconds. Last photoDay: %d seconds", (int)(Time.now() - lastPhoto), (int)(Time.now() - lastPhotoDay));
 80a08e4:	f00d fc3b 	bl	80ae15e <_ZN9TimeClass3nowEv>
 80a08e8:	6a66      	ldr	r6, [r4, #36]	; 0x24
  Log.info("Time until next photo: %d seconds.", (int)((86400 / photosPerDay) - (Time.now() - lastPhoto)));
 80a08ea:	4f75      	ldr	r7, [pc, #468]	; (80a0ac0 <_Z12StartPIRLoopi+0x2d0>)
  Log.info("Time since last photo: %d seconds. Last photoDay: %d seconds", (int)(Time.now() - lastPhoto), (int)(Time.now() - lastPhotoDay));
 80a08ec:	1b86      	subs	r6, r0, r6
 80a08ee:	f00d fc36 	bl	80ae15e <_ZN9TimeClass3nowEv>
 80a08f2:	6aa3      	ldr	r3, [r4, #40]	; 0x28
 80a08f4:	4632      	mov	r2, r6
 80a08f6:	1ac3      	subs	r3, r0, r3
 80a08f8:	4972      	ldr	r1, [pc, #456]	; (80a0ac4 <_Z12StartPIRLoopi+0x2d4>)
 80a08fa:	4866      	ldr	r0, [pc, #408]	; (80a0a94 <_Z12StartPIRLoopi+0x2a4>)
 80a08fc:	f7ff fe04 	bl	80a0508 <_ZNK5spark6Logger4infoEPKcz>
  Log.info("Time until next photo: %d seconds.", (int)((86400 / photosPerDay) - (Time.now() - lastPhoto)));
 80a0900:	88a6      	ldrh	r6, [r4, #4]
 80a0902:	f8d4 8024 	ldr.w	r8, [r4, #36]	; 0x24
 80a0906:	fbb7 f6f6 	udiv	r6, r7, r6
 80a090a:	f00d fc28 	bl	80ae15e <_ZN9TimeClass3nowEv>
 80a090e:	4446      	add	r6, r8
 80a0910:	1a32      	subs	r2, r6, r0
 80a0912:	496d      	ldr	r1, [pc, #436]	; (80a0ac8 <_Z12StartPIRLoopi+0x2d8>)
 80a0914:	485f      	ldr	r0, [pc, #380]	; (80a0a94 <_Z12StartPIRLoopi+0x2a4>)
 80a0916:	f7ff fdf7 	bl	80a0508 <_ZNK5spark6Logger4infoEPKcz>

  if (!firstload && isControllingRaspPi && remainingPhotos > 0 && !takingPhoto && photosPerDay > 0 && (Time.now() - lastPhoto) > (86400 / photosPerDay))
 80a091a:	78a3      	ldrb	r3, [r4, #2]
 80a091c:	2b00      	cmp	r3, #0
 80a091e:	f040 80ac 	bne.w	80a0a7a <_Z12StartPIRLoopi+0x28a>
 80a0922:	4b61      	ldr	r3, [pc, #388]	; (80a0aa8 <_Z12StartPIRLoopi+0x2b8>)
 80a0924:	781b      	ldrb	r3, [r3, #0]
 80a0926:	2b00      	cmp	r3, #0
 80a0928:	f000 80a7 	beq.w	80a0a7a <_Z12StartPIRLoopi+0x28a>
 80a092c:	88e3      	ldrh	r3, [r4, #6]
 80a092e:	2b00      	cmp	r3, #0
 80a0930:	f000 80a3 	beq.w	80a0a7a <_Z12StartPIRLoopi+0x28a>
 80a0934:	f894 302c 	ldrb.w	r3, [r4, #44]	; 0x2c
 80a0938:	2b00      	cmp	r3, #0
 80a093a:	f040 809e 	bne.w	80a0a7a <_Z12StartPIRLoopi+0x28a>
 80a093e:	88a3      	ldrh	r3, [r4, #4]
 80a0940:	2b00      	cmp	r3, #0
 80a0942:	f000 809a 	beq.w	80a0a7a <_Z12StartPIRLoopi+0x28a>
 80a0946:	f00d fc0a 	bl	80ae15e <_ZN9TimeClass3nowEv>
 80a094a:	6a63      	ldr	r3, [r4, #36]	; 0x24
 80a094c:	1ac0      	subs	r0, r0, r3
 80a094e:	88a3      	ldrh	r3, [r4, #4]
 80a0950:	fbb7 f3f3 	udiv	r3, r7, r3
 80a0954:	4298      	cmp	r0, r3
 80a0956:	f240 8090 	bls.w	80a0a7a <_Z12StartPIRLoopi+0x28a>
  {
    Log.info("**********************");
 80a095a:	494d      	ldr	r1, [pc, #308]	; (80a0a90 <_Z12StartPIRLoopi+0x2a0>)
 80a095c:	484d      	ldr	r0, [pc, #308]	; (80a0a94 <_Z12StartPIRLoopi+0x2a4>)
 80a095e:	f7ff fdd3 	bl	80a0508 <_ZNK5spark6Logger4infoEPKcz>
    Log.info("      Taking Photo");
 80a0962:	495a      	ldr	r1, [pc, #360]	; (80a0acc <_Z12StartPIRLoopi+0x2dc>)
 80a0964:	484b      	ldr	r0, [pc, #300]	; (80a0a94 <_Z12StartPIRLoopi+0x2a4>)
 80a0966:	f7ff fdcf 	bl	80a0508 <_ZNK5spark6Logger4infoEPKcz>
    Log.info("**********************");
 80a096a:	4949      	ldr	r1, [pc, #292]	; (80a0a90 <_Z12StartPIRLoopi+0x2a0>)
 80a096c:	4849      	ldr	r0, [pc, #292]	; (80a0a94 <_Z12StartPIRLoopi+0x2a4>)
 80a096e:	f7ff fdcb 	bl	80a0508 <_ZNK5spark6Logger4infoEPKcz>
    digitalWrite(raspPiPinOut, HIGH);
 80a0972:	4b57      	ldr	r3, [pc, #348]	; (80a0ad0 <_Z12StartPIRLoopi+0x2e0>)
 80a0974:	2101      	movs	r1, #1
 80a0976:	8818      	ldrh	r0, [r3, #0]
 80a0978:	f00d fff7 	bl	80ae96a <digitalWrite>
    delay(10);
 80a097c:	200a      	movs	r0, #10
 80a097e:	f00a feed 	bl	80ab75c <delay>
    lastPhoto = Time.now();
 80a0982:	f00d fbec 	bl	80ae15e <_ZN9TimeClass3nowEv>
    remainingPhotos--;
 80a0986:	88e3      	ldrh	r3, [r4, #6]
    {
      remainingPhotos = 0;
    }

    takingPhoto = true;
    triggeredPhoto = true;
 80a0988:	4a52      	ldr	r2, [pc, #328]	; (80a0ad4 <_Z12StartPIRLoopi+0x2e4>)
    remainingPhotos--;
 80a098a:	3b01      	subs	r3, #1
 80a098c:	80e3      	strh	r3, [r4, #6]
    takingPhoto = true;
 80a098e:	2301      	movs	r3, #1
    lastPhoto = Time.now();
 80a0990:	6260      	str	r0, [r4, #36]	; 0x24
    takingPhoto = true;
 80a0992:	f884 302c 	strb.w	r3, [r4, #44]	; 0x2c
    triggeredPhoto = true;
 80a0996:	7013      	strb	r3, [r2, #0]

    if ((Time.now() - lastPhotoDay) > 86400)
 80a0998:	f00d fbe1 	bl	80ae15e <_ZN9TimeClass3nowEv>
 80a099c:	6aa3      	ldr	r3, [r4, #40]	; 0x28
 80a099e:	1ac0      	subs	r0, r0, r3
 80a09a0:	42b8      	cmp	r0, r7
 80a09a2:	d928      	bls.n	80a09f6 <_Z12StartPIRLoopi+0x206>
    {
      lastPhotoDay = Time.now();
 80a09a4:	f00d fbdb 	bl	80ae15e <_ZN9TimeClass3nowEv>
 80a09a8:	62a0      	str	r0, [r4, #40]	; 0x28
      photosPerDay = remainingPhotos / (365 - ((Time.now() - installDate) * 1.0 / 86400.0));
 80a09aa:	88e0      	ldrh	r0, [r4, #6]
 80a09ac:	f00f fe6c 	bl	80b0688 <__aeabi_i2d>
 80a09b0:	460f      	mov	r7, r1
 80a09b2:	4606      	mov	r6, r0
 80a09b4:	f00d fbd3 	bl	80ae15e <_ZN9TimeClass3nowEv>
 80a09b8:	4603      	mov	r3, r0
 80a09ba:	4a3c      	ldr	r2, [pc, #240]	; (80a0aac <_Z12StartPIRLoopi+0x2bc>)
 80a09bc:	17c1      	asrs	r1, r0, #31
 80a09be:	e9d2 0200 	ldrd	r0, r2, [r2]
 80a09c2:	1a18      	subs	r0, r3, r0
 80a09c4:	eb61 0102 	sbc.w	r1, r1, r2
 80a09c8:	f00f fe9a 	bl	80b0700 <__aeabi_l2d>
 80a09cc:	a32c      	add	r3, pc, #176	; (adr r3, 80a0a80 <_Z12StartPIRLoopi+0x290>)
 80a09ce:	e9d3 2300 	ldrd	r2, r3, [r3]
 80a09d2:	f00f ffed 	bl	80b09b0 <__aeabi_ddiv>
 80a09d6:	4602      	mov	r2, r0
 80a09d8:	460b      	mov	r3, r1
 80a09da:	a12b      	add	r1, pc, #172	; (adr r1, 80a0a88 <_Z12StartPIRLoopi+0x298>)
 80a09dc:	e9d1 0100 	ldrd	r0, r1, [r1]
 80a09e0:	f00f fd04 	bl	80b03ec <__aeabi_dsub>
 80a09e4:	4602      	mov	r2, r0
 80a09e6:	460b      	mov	r3, r1
 80a09e8:	4630      	mov	r0, r6
 80a09ea:	4639      	mov	r1, r7
 80a09ec:	f00f ffe0 	bl	80b09b0 <__aeabi_ddiv>
 80a09f0:	f010 f98c 	bl	80b0d0c <__aeabi_d2uiz>
 80a09f4:	80a0      	strh	r0, [r4, #4]
    }

    if (PIR2Pin == WKP)
 80a09f6:	4b38      	ldr	r3, [pc, #224]	; (80a0ad8 <_Z12StartPIRLoopi+0x2e8>)
 80a09f8:	881b      	ldrh	r3, [r3, #0]
 80a09fa:	2b11      	cmp	r3, #17
 80a09fc:	d113      	bne.n	80a0a26 <_Z12StartPIRLoopi+0x236>
    {
      Log.info("Saving photo trigger on as PIR 2 decimal hours");
 80a09fe:	4937      	ldr	r1, [pc, #220]	; (80a0adc <_Z12StartPIRLoopi+0x2ec>)
 80a0a00:	4824      	ldr	r0, [pc, #144]	; (80a0a94 <_Z12StartPIRLoopi+0x2a4>)
 80a0a02:	f7ff fd81 	bl	80a0508 <_ZNK5spark6Logger4infoEPKcz>
      PIR2[nPIR2] = currentTime;
 80a0a06:	8b23      	ldrh	r3, [r4, #24]
 80a0a08:	eb04 0283 	add.w	r2, r4, r3, lsl #2
 80a0a0c:	61d5      	str	r5, [r2, #28]
      nPIR2++;
      LoRaPIR2Count++;
 80a0a0e:	8c22      	ldrh	r2, [r4, #32]
      nPIR2++;
 80a0a10:	3301      	adds	r3, #1
 80a0a12:	b29b      	uxth	r3, r3
      LoRaPIR2Count++;
 80a0a14:	3201      	adds	r2, #1
      nPIR2++;
 80a0a16:	8323      	strh	r3, [r4, #24]
      LoRaPIR2Count++;
 80a0a18:	8422      	strh	r2, [r4, #32]
      if (nPIR2 >= PIR2Size)
 80a0a1a:	b123      	cbz	r3, 80a0a26 <_Z12StartPIRLoopi+0x236>
      {
        LoopedPIR2 = true;
 80a0a1c:	2301      	movs	r3, #1
 80a0a1e:	f884 3022 	strb.w	r3, [r4, #34]	; 0x22
        nPIR2 = 0;
 80a0a22:	2300      	movs	r3, #0
 80a0a24:	8323      	strh	r3, [r4, #24]
	StringSumHelper(const char *p) : String(p) {}
 80a0a26:	4923      	ldr	r1, [pc, #140]	; (80a0ab4 <_Z12StartPIRLoopi+0x2c4>)
 80a0a28:	a804      	add	r0, sp, #16
 80a0a2a:	f00c ff73 	bl	80ad914 <_ZN6StringC1EPK19__FlashStringHelper>
      }
    }
    Log.info("Taking " + String(photosPerDay) + " photos a day. " + String(remainingPhotos) + " remainging photos.");
 80a0a2e:	220a      	movs	r2, #10
 80a0a30:	88a1      	ldrh	r1, [r4, #4]
 80a0a32:	4668      	mov	r0, sp
 80a0a34:	f00c ffee 	bl	80ada14 <_ZN6StringC1Eih>
 80a0a38:	4669      	mov	r1, sp
 80a0a3a:	a804      	add	r0, sp, #16
 80a0a3c:	f00d f86e 	bl	80adb1c <_ZplRK15StringSumHelperRK6String>
 80a0a40:	491d      	ldr	r1, [pc, #116]	; (80a0ab8 <_Z12StartPIRLoopi+0x2c8>)
 80a0a42:	f00d f877 	bl	80adb34 <_ZplRK15StringSumHelperPKc>
 80a0a46:	4605      	mov	r5, r0
 80a0a48:	220a      	movs	r2, #10
 80a0a4a:	88e1      	ldrh	r1, [r4, #6]
 80a0a4c:	a808      	add	r0, sp, #32
 80a0a4e:	f00c ffe1 	bl	80ada14 <_ZN6StringC1Eih>
 80a0a52:	a908      	add	r1, sp, #32
 80a0a54:	4628      	mov	r0, r5
 80a0a56:	f00d f861 	bl	80adb1c <_ZplRK15StringSumHelperRK6String>
 80a0a5a:	4918      	ldr	r1, [pc, #96]	; (80a0abc <_Z12StartPIRLoopi+0x2cc>)
 80a0a5c:	f00d f86a 	bl	80adb34 <_ZplRK15StringSumHelperPKc>
 80a0a60:	6801      	ldr	r1, [r0, #0]
 80a0a62:	480c      	ldr	r0, [pc, #48]	; (80a0a94 <_Z12StartPIRLoopi+0x2a4>)
 80a0a64:	f7ff fd50 	bl	80a0508 <_ZNK5spark6Logger4infoEPKcz>
 80a0a68:	a808      	add	r0, sp, #32
 80a0a6a:	f00c ff09 	bl	80ad880 <_ZN6StringD1Ev>
 80a0a6e:	4668      	mov	r0, sp
 80a0a70:	f00c ff06 	bl	80ad880 <_ZN6StringD1Ev>
class StringSumHelper : public String
 80a0a74:	a804      	add	r0, sp, #16
 80a0a76:	f00c ff03 	bl	80ad880 <_ZN6StringD1Ev>
  }
}
 80a0a7a:	b00d      	add	sp, #52	; 0x34
 80a0a7c:	e8bd 83f0 	ldmia.w	sp!, {r4, r5, r6, r7, r8, r9, pc}
 80a0a80:	00000000 	.word	0x00000000
 80a0a84:	40f51800 	.word	0x40f51800
 80a0a88:	00000000 	.word	0x00000000
 80a0a8c:	4076d000 	.word	0x4076d000
 80a0a90:	080b36fc 	.word	0x080b36fc
 80a0a94:	20001c94 	.word	0x20001c94
 80a0a98:	080b3147 	.word	0x080b3147
 80a0a9c:	200004aa 	.word	0x200004aa
 80a0aa0:	40024000 	.word	0x40024000
 80a0aa4:	200004ab 	.word	0x200004ab
 80a0aa8:	200004a8 	.word	0x200004a8
 80a0aac:	200004a0 	.word	0x200004a0
 80a0ab0:	080b3156 	.word	0x080b3156
 80a0ab4:	080b31a0 	.word	0x080b31a0
 80a0ab8:	080b31a8 	.word	0x080b31a8
 80a0abc:	080b31b8 	.word	0x080b31b8
 80a0ac0:	00015180 	.word	0x00015180
 80a0ac4:	080b31cc 	.word	0x080b31cc
 80a0ac8:	080b3209 	.word	0x080b3209
 80a0acc:	080b322c 	.word	0x080b322c
 80a0ad0:	2000003e 	.word	0x2000003e
 80a0ad4:	20001c50 	.word	0x20001c50
 80a0ad8:	2000000a 	.word	0x2000000a
 80a0adc:	080b323f 	.word	0x080b323f
      photosPerDay = remainingPhotos / (365 - ((Time.now() - installDate) * 1.0 / 86400.0));
 80a0ae0:	88e0      	ldrh	r0, [r4, #6]
 80a0ae2:	f00f fdd1 	bl	80b0688 <__aeabi_i2d>
 80a0ae6:	4689      	mov	r9, r1
 80a0ae8:	4680      	mov	r8, r0
 80a0aea:	f00d fb38 	bl	80ae15e <_ZN9TimeClass3nowEv>
 80a0aee:	e9d7 3200 	ldrd	r3, r2, [r7]
 80a0af2:	17c1      	asrs	r1, r0, #31
 80a0af4:	1ac0      	subs	r0, r0, r3
 80a0af6:	eb61 0102 	sbc.w	r1, r1, r2
 80a0afa:	f00f fe01 	bl	80b0700 <__aeabi_l2d>
 80a0afe:	a318      	add	r3, pc, #96	; (adr r3, 80a0b60 <_Z12StartPIRLoopi+0x370>)
 80a0b00:	e9d3 2300 	ldrd	r2, r3, [r3]
 80a0b04:	f00f ff54 	bl	80b09b0 <__aeabi_ddiv>
 80a0b08:	4602      	mov	r2, r0
 80a0b0a:	460b      	mov	r3, r1
 80a0b0c:	a116      	add	r1, pc, #88	; (adr r1, 80a0b68 <_Z12StartPIRLoopi+0x378>)
 80a0b0e:	e9d1 0100 	ldrd	r0, r1, [r1]
 80a0b12:	f00f fc6b 	bl	80b03ec <__aeabi_dsub>
 80a0b16:	4602      	mov	r2, r0
 80a0b18:	460b      	mov	r3, r1
 80a0b1a:	4640      	mov	r0, r8
 80a0b1c:	4649      	mov	r1, r9
 80a0b1e:	f00f ff47 	bl	80b09b0 <__aeabi_ddiv>
 80a0b22:	f010 f8f3 	bl	80b0d0c <__aeabi_d2uiz>
 80a0b26:	80a0      	strh	r0, [r4, #4]
 80a0b28:	e693      	b.n	80a0852 <_Z12StartPIRLoopi+0x62>
  else if (pin == 2)
 80a0b2a:	2e02      	cmp	r6, #2
 80a0b2c:	f47f aeac 	bne.w	80a0888 <_Z12StartPIRLoopi+0x98>
    Log.info("PIR 2 detected, saving decimal hours");
 80a0b30:	490f      	ldr	r1, [pc, #60]	; (80a0b70 <_Z12StartPIRLoopi+0x380>)
 80a0b32:	4810      	ldr	r0, [pc, #64]	; (80a0b74 <_Z12StartPIRLoopi+0x384>)
 80a0b34:	f7ff fce8 	bl	80a0508 <_ZNK5spark6Logger4infoEPKcz>
    PIR2[nPIR2] = currentTime;
 80a0b38:	8b23      	ldrh	r3, [r4, #24]
 80a0b3a:	eb04 0283 	add.w	r2, r4, r3, lsl #2
 80a0b3e:	61d5      	str	r5, [r2, #28]
    LoRaPIR2Count++;
 80a0b40:	8c22      	ldrh	r2, [r4, #32]
    nPIR2++;
 80a0b42:	3301      	adds	r3, #1
 80a0b44:	b29b      	uxth	r3, r3
    LoRaPIR2Count++;
 80a0b46:	3201      	adds	r2, #1
    nPIR2++;
 80a0b48:	8323      	strh	r3, [r4, #24]
    LoRaPIR2Count++;
 80a0b4a:	8422      	strh	r2, [r4, #32]
    if (nPIR2 >= PIR2Size)
 80a0b4c:	2b00      	cmp	r3, #0
 80a0b4e:	f43f ae9b 	beq.w	80a0888 <_Z12StartPIRLoopi+0x98>
      LoopedPIR2 = true;
 80a0b52:	2301      	movs	r3, #1
 80a0b54:	f884 3022 	strb.w	r3, [r4, #34]	; 0x22
      nPIR2 = 0;
 80a0b58:	2300      	movs	r3, #0
 80a0b5a:	8323      	strh	r3, [r4, #24]
 80a0b5c:	e694      	b.n	80a0888 <_Z12StartPIRLoopi+0x98>
 80a0b5e:	bf00      	nop
 80a0b60:	00000000 	.word	0x00000000
 80a0b64:	40f51800 	.word	0x40f51800
 80a0b68:	00000000 	.word	0x00000000
 80a0b6c:	4076d000 	.word	0x4076d000
 80a0b70:	080b317b 	.word	0x080b317b
 80a0b74:	20001c94 	.word	0x20001c94

080a0b78 <_Z15StoreSensorInfov>:
    }
  }
}

void StoreSensorInfo()
{
 80a0b78:	e92d 41ff 	stmdb	sp!, {r0, r1, r2, r3, r4, r5, r6, r7, r8, lr}
  /*
  float currentReadings[nReadings - 7];
  uint8_t currentReadingsJsonCode[nReadings - 7];
  */
  nReadingsSaved = 0;
 80a0b7c:	2300      	movs	r3, #0
 80a0b7e:	4e1f      	ldr	r6, [pc, #124]	; (80a0bfc <_Z15StoreSensorInfov+0x84>)
  String tempCode = "--";
  if (!haveStoredSensorInfo)
 80a0b80:	4f1f      	ldr	r7, [pc, #124]	; (80a0c00 <_Z15StoreSensorInfov+0x88>)
  String tempCode = "--";
 80a0b82:	4668      	mov	r0, sp
 80a0b84:	491f      	ldr	r1, [pc, #124]	; (80a0c04 <_Z15StoreSensorInfov+0x8c>)
  nReadingsSaved = 0;
 80a0b86:	6033      	str	r3, [r6, #0]
  String tempCode = "--";
 80a0b88:	f00c fec4 	bl	80ad914 <_ZN6StringC1EPK19__FlashStringHelper>
  if (!haveStoredSensorInfo)
 80a0b8c:	783c      	ldrb	r4, [r7, #0]
 80a0b8e:	bb74      	cbnz	r4, 80a0bee <_Z15StoreSensorInfov+0x76>
  {
    // Log Decimal hours.
    currentReadingsJsonCode[0] = Dh_Index;
 80a0b90:	2308      	movs	r3, #8
 80a0b92:	4d1d      	ldr	r5, [pc, #116]	; (80a0c08 <_Z15StoreSensorInfov+0x90>)
 80a0b94:	702b      	strb	r3, [r5, #0]
    currentReadings[0] = getDecimalHr();
 80a0b96:	f7ff fdf3 	bl	80a0780 <_Z12getDecimalHrv>
    nReadingsSaved++;
 80a0b9a:	6833      	ldr	r3, [r6, #0]
    currentReadings[0] = getDecimalHr();
 80a0b9c:	491b      	ldr	r1, [pc, #108]	; (80a0c0c <_Z15StoreSensorInfov+0x94>)
    nReadingsSaved++;
 80a0b9e:	3301      	adds	r3, #1
 80a0ba0:	6033      	str	r3, [r6, #0]

      // [23.2.4.2] capacity
      /**  Returns the number of elements in the %vector.  */
      size_type
      size() const _GLIBCXX_NOEXCEPT
      { return size_type(this->_M_impl._M_finish - this->_M_impl._M_start); }
 80a0ba2:	4b1b      	ldr	r3, [pc, #108]	; (80a0c10 <_Z15StoreSensorInfov+0x98>)
    currentReadings[0] = getDecimalHr();
 80a0ba4:	6008      	str	r0, [r1, #0]
 80a0ba6:	f8d3 e6f4 	ldr.w	lr, [r3, #1780]	; 0x6f4
 80a0baa:	f8d3 26f8 	ldr.w	r2, [r3, #1784]	; 0x6f8
       *   Returns a pointer such that [data(), data() + size()) is a valid
       *   range.  For a non-empty %vector, data() == &front().
       */
      _Tp*
      data() _GLIBCXX_NOEXCEPT
      { return _M_data_ptr(this->_M_impl._M_start); }
 80a0bae:	f8d3 86e8 	ldr.w	r8, [r3, #1768]	; 0x6e8
      { return size_type(this->_M_impl._M_finish - this->_M_impl._M_start); }
 80a0bb2:	eba2 020e 	sub.w	r2, r2, lr
  uint8_t getLatestReadingsCount() { return latestReadingCodes.size(); };
 80a0bb6:	fa5f fc82 	uxtb.w	ip, r2
      { return _M_data_ptr(this->_M_impl._M_start); }
 80a0bba:	4623      	mov	r3, r4
 80a0bbc:	462a      	mov	r2, r5

    for (uint8_t i = 0; i < sensors.getLatestReadingsCount(); i++)
 80a0bbe:	b2d8      	uxtb	r0, r3
 80a0bc0:	4584      	cmp	ip, r0
 80a0bc2:	f101 0104 	add.w	r1, r1, #4
 80a0bc6:	f102 0201 	add.w	r2, r2, #1
 80a0bca:	d90a      	bls.n	80a0be2 <_Z15StoreSensorInfov+0x6a>
    {
      currentReadings[1 + i] = *(sensors.getLatestReadings() + i);
 80a0bcc:	f858 0023 	ldr.w	r0, [r8, r3, lsl #2]
 80a0bd0:	6008      	str	r0, [r1, #0]
      currentReadingsJsonCode[1 + i] = *(sensors.getLatestReadingCodes() + i);
 80a0bd2:	f81e 0003 	ldrb.w	r0, [lr, r3]
 80a0bd6:	3301      	adds	r3, #1
 80a0bd8:	7010      	strb	r0, [r2, #0]
      nReadingsSaved++;
 80a0bda:	6830      	ldr	r0, [r6, #0]
 80a0bdc:	3001      	adds	r0, #1
 80a0bde:	6030      	str	r0, [r6, #0]
    for (uint8_t i = 0; i < sensors.getLatestReadingsCount(); i++)
 80a0be0:	e7ed      	b.n	80a0bbe <_Z15StoreSensorInfov+0x46>
    }

    haveStoredSensorInfo = true;
 80a0be2:	2301      	movs	r3, #1
    Log.info("Successful! - Stored latest sensor readings temporarily.");
 80a0be4:	490b      	ldr	r1, [pc, #44]	; (80a0c14 <_Z15StoreSensorInfov+0x9c>)
 80a0be6:	480c      	ldr	r0, [pc, #48]	; (80a0c18 <_Z15StoreSensorInfov+0xa0>)
    haveStoredSensorInfo = true;
 80a0be8:	703b      	strb	r3, [r7, #0]
    Log.info("Successful! - Stored latest sensor readings temporarily.");
 80a0bea:	f7ff fc8d 	bl	80a0508 <_ZNK5spark6Logger4infoEPKcz>
  String tempCode = "--";
 80a0bee:	4668      	mov	r0, sp
 80a0bf0:	f00c fe46 	bl	80ad880 <_ZN6StringD1Ev>
  }
}
 80a0bf4:	b004      	add	sp, #16
 80a0bf6:	e8bd 81f0 	ldmia.w	sp!, {r4, r5, r6, r7, r8, pc}
 80a0bfa:	bf00      	nop
 80a0bfc:	200004d8 	.word	0x200004d8
 80a0c00:	2000049e 	.word	0x2000049e
 80a0c04:	080b326e 	.word	0x080b326e
 80a0c08:	20000270 	.word	0x20000270
 80a0c0c:	200001c0 	.word	0x200001c0
 80a0c10:	20000624 	.word	0x20000624
 80a0c14:	080b3271 	.word	0x080b3271
 80a0c18:	20001c94 	.word	0x20001c94

080a0c1c <_Z20tryToStoreSensorInfov>:
{
 80a0c1c:	b510      	push	{r4, lr}
  if (isSensorLoop)
 80a0c1e:	4b1f      	ldr	r3, [pc, #124]	; (80a0c9c <_Z20tryToStoreSensorInfov+0x80>)
 80a0c20:	781b      	ldrb	r3, [r3, #0]
 80a0c22:	2b00      	cmp	r3, #0
 80a0c24:	d038      	beq.n	80a0c98 <_Z20tryToStoreSensorInfov+0x7c>
    if (rdyForUpdate)
 80a0c26:	4c1e      	ldr	r4, [pc, #120]	; (80a0ca0 <_Z20tryToStoreSensorInfov+0x84>)
 80a0c28:	7823      	ldrb	r3, [r4, #0]
 80a0c2a:	b123      	cbz	r3, 80a0c36 <_Z20tryToStoreSensorInfov+0x1a>
      sensors.UpdateSensors();
 80a0c2c:	481d      	ldr	r0, [pc, #116]	; (80a0ca4 <_Z20tryToStoreSensorInfov+0x88>)
 80a0c2e:	f005 fb43 	bl	80a62b8 <_ZN16SensorController13UpdateSensorsEv>
      rdyForUpdate = false;
 80a0c32:	2300      	movs	r3, #0
 80a0c34:	7023      	strb	r3, [r4, #0]
    if (!haveStoredSensorInfo && sensors.isReadyToSend())
 80a0c36:	4b1c      	ldr	r3, [pc, #112]	; (80a0ca8 <_Z20tryToStoreSensorInfov+0x8c>)
 80a0c38:	781b      	ldrb	r3, [r3, #0]
 80a0c3a:	bb6b      	cbnz	r3, 80a0c98 <_Z20tryToStoreSensorInfov+0x7c>

  bool isReadyToSend() { return readyToSend; };
 80a0c3c:	4b1b      	ldr	r3, [pc, #108]	; (80a0cac <_Z20tryToStoreSensorInfov+0x90>)
 80a0c3e:	f893 3230 	ldrb.w	r3, [r3, #560]	; 0x230
 80a0c42:	b34b      	cbz	r3, 80a0c98 <_Z20tryToStoreSensorInfov+0x7c>
      Log.info("Trying to Store Sensor Info...");
 80a0c44:	491a      	ldr	r1, [pc, #104]	; (80a0cb0 <_Z20tryToStoreSensorInfov+0x94>)
 80a0c46:	481b      	ldr	r0, [pc, #108]	; (80a0cb4 <_Z20tryToStoreSensorInfov+0x98>)
 80a0c48:	f7ff fc5e 	bl	80a0508 <_ZNK5spark6Logger4infoEPKcz>
      StoreSensorInfo();
 80a0c4c:	f7ff ff94 	bl	80a0b78 <_Z15StoreSensorInfov>
      delay(50);
 80a0c50:	2032      	movs	r0, #50	; 0x32
 80a0c52:	f00a fd83 	bl	80ab75c <delay>

#ifdef __cplusplus
extern "C" {
#endif

inline system_tick_t millis(void) { return HAL_Timer_Get_Milli_Seconds(); }
 80a0c56:	f00a f9eb 	bl	80ab030 <HAL_Timer_Get_Milli_Seconds>
      if (millis() - timeStart > totalTimeOn * 0.9f - 10000)
 80a0c5a:	4a17      	ldr	r2, [pc, #92]	; (80a0cb8 <_Z20tryToStoreSensorInfov+0x9c>)
 80a0c5c:	e9d2 3100 	ldrd	r3, r1, [r2]
 80a0c60:	1ac0      	subs	r0, r0, r3
 80a0c62:	eb61 0141 	sbc.w	r1, r1, r1, lsl #1
 80a0c66:	f010 f989 	bl	80b0f7c <__aeabi_ul2f>
 80a0c6a:	4b14      	ldr	r3, [pc, #80]	; (80a0cbc <_Z20tryToStoreSensorInfov+0xa0>)
 80a0c6c:	4604      	mov	r4, r0
 80a0c6e:	6818      	ldr	r0, [r3, #0]
 80a0c70:	f010 f972 	bl	80b0f58 <__aeabi_ui2f>
 80a0c74:	4912      	ldr	r1, [pc, #72]	; (80a0cc0 <_Z20tryToStoreSensorInfov+0xa4>)
 80a0c76:	f010 f9c7 	bl	80b1008 <__aeabi_fmul>
 80a0c7a:	4912      	ldr	r1, [pc, #72]	; (80a0cc4 <_Z20tryToStoreSensorInfov+0xa8>)
 80a0c7c:	f010 f8ba 	bl	80b0df4 <__aeabi_fsub>
 80a0c80:	4601      	mov	r1, r0
 80a0c82:	4620      	mov	r0, r4
 80a0c84:	f010 fb7c 	bl	80b1380 <__aeabi_fcmpgt>
 80a0c88:	b130      	cbz	r0, 80a0c98 <_Z20tryToStoreSensorInfov+0x7c>
        Log.info("Not cloud ready in time. Saving to offline memory.");
 80a0c8a:	490f      	ldr	r1, [pc, #60]	; (80a0cc8 <_Z20tryToStoreSensorInfov+0xac>)
 80a0c8c:	4809      	ldr	r0, [pc, #36]	; (80a0cb4 <_Z20tryToStoreSensorInfov+0x98>)
 80a0c8e:	f7ff fc3b 	bl	80a0508 <_ZNK5spark6Logger4infoEPKcz>
        saveOffline = true;
 80a0c92:	2201      	movs	r2, #1
 80a0c94:	4b0d      	ldr	r3, [pc, #52]	; (80a0ccc <_Z20tryToStoreSensorInfov+0xb0>)
 80a0c96:	701a      	strb	r2, [r3, #0]
}
 80a0c98:	bd10      	pop	{r4, pc}
 80a0c9a:	bf00      	nop
 80a0c9c:	200004ac 	.word	0x200004ac
 80a0ca0:	200004e0 	.word	0x200004e0
 80a0ca4:	20000624 	.word	0x20000624
 80a0ca8:	2000049e 	.word	0x2000049e
 80a0cac:	20001624 	.word	0x20001624
 80a0cb0:	080b32aa 	.word	0x080b32aa
 80a0cb4:	20001c94 	.word	0x20001c94
 80a0cb8:	20001c48 	.word	0x20001c48
 80a0cbc:	20000050 	.word	0x20000050
 80a0cc0:	3f666666 	.word	0x3f666666
 80a0cc4:	461c4000 	.word	0x461c4000
 80a0cc8:	080b32c9 	.word	0x080b32c9
 80a0ccc:	20000604 	.word	0x20000604

080a0cd0 <_Z20printOfflineReadingsv>:

void printOfflineReadings()
{
 80a0cd0:	e92d 4ff0 	stmdb	sp!, {r4, r5, r6, r7, r8, r9, sl, fp, lr}
 80a0cd4:	b085      	sub	sp, #20

  Serial.printf("\t[ %s:%6.1f ", sensors.JSONnames[JSONCodeReading[0]], offlineReadings1D[0]);
 80a0cd6:	f00d fb5f 	bl	80ae398 <_Z16_fetch_usbserialv>
 80a0cda:	4c51      	ldr	r4, [pc, #324]	; (80a0e20 <_Z20printOfflineReadingsv+0x150>)
 80a0cdc:	4606      	mov	r6, r0
 80a0cde:	f894 202d 	ldrb.w	r2, [r4, #45]	; 0x2d
 80a0ce2:	f8d4 0220 	ldr.w	r0, [r4, #544]	; 0x220
 80a0ce6:	eb02 0242 	add.w	r2, r2, r2, lsl #1
 80a0cea:	f102 0510 	add.w	r5, r2, #16
 80a0cee:	f00f fcdd 	bl	80b06ac <__aeabi_f2d>
 80a0cf2:	4f4c      	ldr	r7, [pc, #304]	; (80a0e24 <_Z20printOfflineReadingsv+0x154>)
 80a0cf4:	e9cd 0100 	strd	r0, r1, [sp]
 80a0cf8:	443d      	add	r5, r7
 80a0cfa:	462a      	mov	r2, r5
 80a0cfc:	4630      	mov	r0, r6
 80a0cfe:	494a      	ldr	r1, [pc, #296]	; (80a0e28 <_Z20printOfflineReadingsv+0x158>)
 80a0d00:	f7ff fa9a 	bl	80a0238 <_ZN5Print6printfEPKcz>
  for (size_t i = 1; i < nMaxReadings; i++)
 80a0d04:	2601      	movs	r6, #1
      else
        Serial.printf(" %s:%6.1f ", sensors.JSONnames[JSONCodeReading[i]], offlineReadings1D[i]);
    }
    else
    {
      if (offlineReadings1D[i] - (int)offlineReadings1D[i] == 0)
 80a0d06:	f04f 0800 	mov.w	r8, #0
        Serial.printf("; %s:%6d ", sensors.JSONnames[JSONCodeReading[i]], (int)offlineReadings1D[i]);
      else
        Serial.printf("; %s:%6.1f ", sensors.JSONnames[JSONCodeReading[i]], offlineReadings1D[i]);
 80a0d0a:	f8df 9120 	ldr.w	r9, [pc, #288]	; 80a0e2c <_Z20printOfflineReadingsv+0x15c>
        Serial.printf("; %s:%6d ", sensors.JSONnames[JSONCodeReading[i]], (int)offlineReadings1D[i]);
 80a0d0e:	f8df a120 	ldr.w	sl, [pc, #288]	; 80a0e30 <_Z20printOfflineReadingsv+0x160>
 80a0d12:	f104 052d 	add.w	r5, r4, #45	; 0x2d
 80a0d16:	f504 7408 	add.w	r4, r4, #544	; 0x220
    if (i % 20 == 0)
 80a0d1a:	2214      	movs	r2, #20
 80a0d1c:	fbb6 f3f2 	udiv	r3, r6, r2
 80a0d20:	fb02 6313 	mls	r3, r2, r3, r6
 80a0d24:	2b00      	cmp	r3, #0
 80a0d26:	d14c      	bne.n	80a0dc2 <_Z20printOfflineReadingsv+0xf2>
      Serial.printlnf("]");
 80a0d28:	f00d fb36 	bl	80ae398 <_Z16_fetch_usbserialv>
 80a0d2c:	4941      	ldr	r1, [pc, #260]	; (80a0e34 <_Z20printOfflineReadingsv+0x164>)
 80a0d2e:	f7ff fa91 	bl	80a0254 <_ZN5Print8printlnfEPKcz>
      Serial.printf("\t[");
 80a0d32:	f00d fb31 	bl	80ae398 <_Z16_fetch_usbserialv>
 80a0d36:	4940      	ldr	r1, [pc, #256]	; (80a0e38 <_Z20printOfflineReadingsv+0x168>)
 80a0d38:	f7ff fa7e 	bl	80a0238 <_ZN5Print6printfEPKcz>
      if (offlineReadings1D[i] - (int)offlineReadings1D[i] == 0)
 80a0d3c:	f8d4 b004 	ldr.w	fp, [r4, #4]
 80a0d40:	4658      	mov	r0, fp
 80a0d42:	f010 fb3d 	bl	80b13c0 <__aeabi_f2iz>
 80a0d46:	f010 f90b 	bl	80b0f60 <__aeabi_i2f>
 80a0d4a:	4601      	mov	r1, r0
 80a0d4c:	4658      	mov	r0, fp
 80a0d4e:	f010 f851 	bl	80b0df4 <__aeabi_fsub>
 80a0d52:	4641      	mov	r1, r8
 80a0d54:	f010 faec 	bl	80b1330 <__aeabi_fcmpeq>
 80a0d58:	b1f8      	cbz	r0, 80a0d9a <_Z20printOfflineReadingsv+0xca>
        Serial.printf(" %s:%6d ", sensors.JSONnames[JSONCodeReading[i]], (int)offlineReadings1D[i]);
 80a0d5a:	f00d fb1d 	bl	80ae398 <_Z16_fetch_usbserialv>
 80a0d5e:	4683      	mov	fp, r0
 80a0d60:	6860      	ldr	r0, [r4, #4]
 80a0d62:	f010 fb2d 	bl	80b13c0 <__aeabi_f2iz>
 80a0d66:	4603      	mov	r3, r0
 80a0d68:	786a      	ldrb	r2, [r5, #1]
 80a0d6a:	4934      	ldr	r1, [pc, #208]	; (80a0e3c <_Z20printOfflineReadingsv+0x16c>)
 80a0d6c:	eb02 0242 	add.w	r2, r2, r2, lsl #1
 80a0d70:	3210      	adds	r2, #16
 80a0d72:	443a      	add	r2, r7
        Serial.printf("; %s:%6d ", sensors.JSONnames[JSONCodeReading[i]], (int)offlineReadings1D[i]);
 80a0d74:	4658      	mov	r0, fp
 80a0d76:	f7ff fa5f 	bl	80a0238 <_ZN5Print6printfEPKcz>
  for (size_t i = 1; i < nMaxReadings; i++)
 80a0d7a:	3601      	adds	r6, #1
 80a0d7c:	f5b6 7ff9 	cmp.w	r6, #498	; 0x1f2
 80a0d80:	f105 0501 	add.w	r5, r5, #1
 80a0d84:	f104 0404 	add.w	r4, r4, #4
 80a0d88:	d1c7      	bne.n	80a0d1a <_Z20printOfflineReadingsv+0x4a>
    }
  }
  Serial.printlnf("]");
 80a0d8a:	f00d fb05 	bl	80ae398 <_Z16_fetch_usbserialv>
 80a0d8e:	4929      	ldr	r1, [pc, #164]	; (80a0e34 <_Z20printOfflineReadingsv+0x164>)
 80a0d90:	f7ff fa60 	bl	80a0254 <_ZN5Print8printlnfEPKcz>
}
 80a0d94:	b005      	add	sp, #20
 80a0d96:	e8bd 8ff0 	ldmia.w	sp!, {r4, r5, r6, r7, r8, r9, sl, fp, pc}
        Serial.printf(" %s:%6.1f ", sensors.JSONnames[JSONCodeReading[i]], offlineReadings1D[i]);
 80a0d9a:	f00d fafd 	bl	80ae398 <_Z16_fetch_usbserialv>
 80a0d9e:	786a      	ldrb	r2, [r5, #1]
 80a0da0:	4683      	mov	fp, r0
 80a0da2:	eb02 0242 	add.w	r2, r2, r2, lsl #1
 80a0da6:	3210      	adds	r2, #16
 80a0da8:	443a      	add	r2, r7
 80a0daa:	6860      	ldr	r0, [r4, #4]
 80a0dac:	9203      	str	r2, [sp, #12]
 80a0dae:	f00f fc7d 	bl	80b06ac <__aeabi_f2d>
 80a0db2:	9a03      	ldr	r2, [sp, #12]
 80a0db4:	e9cd 0100 	strd	r0, r1, [sp]
 80a0db8:	4921      	ldr	r1, [pc, #132]	; (80a0e40 <_Z20printOfflineReadingsv+0x170>)
        Serial.printf("; %s:%6.1f ", sensors.JSONnames[JSONCodeReading[i]], offlineReadings1D[i]);
 80a0dba:	4658      	mov	r0, fp
 80a0dbc:	f7ff fa3c 	bl	80a0238 <_ZN5Print6printfEPKcz>
 80a0dc0:	e7db      	b.n	80a0d7a <_Z20printOfflineReadingsv+0xaa>
      if (offlineReadings1D[i] - (int)offlineReadings1D[i] == 0)
 80a0dc2:	f8d4 b004 	ldr.w	fp, [r4, #4]
 80a0dc6:	4658      	mov	r0, fp
 80a0dc8:	f010 fafa 	bl	80b13c0 <__aeabi_f2iz>
 80a0dcc:	f010 f8c8 	bl	80b0f60 <__aeabi_i2f>
 80a0dd0:	4601      	mov	r1, r0
 80a0dd2:	4658      	mov	r0, fp
 80a0dd4:	f010 f80e 	bl	80b0df4 <__aeabi_fsub>
 80a0dd8:	4641      	mov	r1, r8
 80a0dda:	f010 faa9 	bl	80b1330 <__aeabi_fcmpeq>
 80a0dde:	b168      	cbz	r0, 80a0dfc <_Z20printOfflineReadingsv+0x12c>
        Serial.printf("; %s:%6d ", sensors.JSONnames[JSONCodeReading[i]], (int)offlineReadings1D[i]);
 80a0de0:	f00d fada 	bl	80ae398 <_Z16_fetch_usbserialv>
 80a0de4:	4683      	mov	fp, r0
 80a0de6:	6860      	ldr	r0, [r4, #4]
 80a0de8:	f010 faea 	bl	80b13c0 <__aeabi_f2iz>
 80a0dec:	786a      	ldrb	r2, [r5, #1]
 80a0dee:	4603      	mov	r3, r0
 80a0df0:	eb02 0242 	add.w	r2, r2, r2, lsl #1
 80a0df4:	3210      	adds	r2, #16
 80a0df6:	4651      	mov	r1, sl
 80a0df8:	443a      	add	r2, r7
 80a0dfa:	e7bb      	b.n	80a0d74 <_Z20printOfflineReadingsv+0xa4>
        Serial.printf("; %s:%6.1f ", sensors.JSONnames[JSONCodeReading[i]], offlineReadings1D[i]);
 80a0dfc:	f00d facc 	bl	80ae398 <_Z16_fetch_usbserialv>
 80a0e00:	786a      	ldrb	r2, [r5, #1]
 80a0e02:	4683      	mov	fp, r0
 80a0e04:	eb02 0242 	add.w	r2, r2, r2, lsl #1
 80a0e08:	3210      	adds	r2, #16
 80a0e0a:	443a      	add	r2, r7
 80a0e0c:	6860      	ldr	r0, [r4, #4]
 80a0e0e:	9203      	str	r2, [sp, #12]
 80a0e10:	f00f fc4c 	bl	80b06ac <__aeabi_f2d>
 80a0e14:	9a03      	ldr	r2, [sp, #12]
 80a0e16:	e9cd 0100 	strd	r0, r1, [sp]
 80a0e1a:	4649      	mov	r1, r9
 80a0e1c:	e7cd      	b.n	80a0dba <_Z20printOfflineReadingsv+0xea>
 80a0e1e:	bf00      	nop
 80a0e20:	40024000 	.word	0x40024000
 80a0e24:	20000624 	.word	0x20000624
 80a0e28:	080b32fc 	.word	0x080b32fc
 80a0e2c:	080b3318 	.word	0x080b3318
 80a0e30:	080b330e 	.word	0x080b330e
 80a0e34:	080b3309 	.word	0x080b3309
 80a0e38:	080b330b 	.word	0x080b330b
 80a0e3c:	080b330f 	.word	0x080b330f
 80a0e40:	080b3319 	.word	0x080b3319

080a0e44 <_Z17getOfflineMessageRt>:
}

//// This gets the text message of the next offline readings.
//   Updates "currentReadIndex" until it equals "offlineIndexEnd"
String getOfflineMessage(uint16_t &ReadingsLength)
{
 80a0e44:	e92d 4ff0 	stmdb	sp!, {r4, r5, r6, r7, r8, r9, sl, fp, lr}
  // Serial.println("Getting offline message for the full message.");
  String messageOut;
  int nReadigns = 0;
  if (currentReadIndex != offlineIndexEnd)
 80a0e48:	4c8b      	ldr	r4, [pc, #556]	; (80a1078 <_Z17getOfflineMessageRt+0x234>)
{
 80a0e4a:	460e      	mov	r6, r1
 80a0e4c:	b093      	sub	sp, #76	; 0x4c
  String messageOut;
 80a0e4e:	498b      	ldr	r1, [pc, #556]	; (80a107c <_Z17getOfflineMessageRt+0x238>)
{
 80a0e50:	4605      	mov	r5, r0
  String messageOut;
 80a0e52:	f00c fd5f 	bl	80ad914 <_ZN6StringC1EPK19__FlashStringHelper>
  if (currentReadIndex != offlineIndexEnd)
 80a0e56:	f8b4 39ec 	ldrh.w	r3, [r4, #2540]	; 0x9ec
 80a0e5a:	f8b4 29ea 	ldrh.w	r2, [r4, #2538]	; 0x9ea
 80a0e5e:	429a      	cmp	r2, r3
 80a0e60:	f000 8106 	beq.w	80a1070 <_Z17getOfflineMessageRt+0x22c>
  {
    if (JSONCodeReading[currentReadIndex] == null_index)
 80a0e64:	4423      	add	r3, r4
 80a0e66:	f893 302d 	ldrb.w	r3, [r3, #45]	; 0x2d
 80a0e6a:	b923      	cbnz	r3, 80a0e76 <_Z17getOfflineMessageRt+0x32>
    {
      Serial.println("WOH! current reading index is null!! not dh!! while getting offline message for full message.");
 80a0e6c:	f00d fa94 	bl	80ae398 <_Z16_fetch_usbserialv>
 80a0e70:	4983      	ldr	r1, [pc, #524]	; (80a1080 <_Z17getOfflineMessageRt+0x23c>)
 80a0e72:	f00c faa2 	bl	80ad3ba <_ZN5Print7printlnEPKc>
    }

    messageOut.concat(String("{"));
 80a0e76:	4983      	ldr	r1, [pc, #524]	; (80a1084 <_Z17getOfflineMessageRt+0x240>)
 80a0e78:	a80e      	add	r0, sp, #56	; 0x38
 80a0e7a:	f00c fd4b 	bl	80ad914 <_ZN6StringC1EPK19__FlashStringHelper>
 80a0e7e:	a90e      	add	r1, sp, #56	; 0x38
 80a0e80:	4628      	mov	r0, r5
 80a0e82:	f00c fe1c 	bl	80adabe <_ZN6String6concatERKS_>
 80a0e86:	a80e      	add	r0, sp, #56	; 0x38
 80a0e88:	f00c fcfa 	bl	80ad880 <_ZN6StringD1Ev>
	StringSumHelper(const char *p) : String(p) {}
 80a0e8c:	497e      	ldr	r1, [pc, #504]	; (80a1088 <_Z17getOfflineMessageRt+0x244>)
 80a0e8e:	a806      	add	r0, sp, #24
 80a0e90:	f00c fd40 	bl	80ad914 <_ZN6StringC1EPK19__FlashStringHelper>
    // First one should be Decimal Hour Timestamp.
    messageOut.concat(String("\"" + String(sensors.JSONnames[JSONCodeReading[currentReadIndex]]) + "\":" +
 80a0e94:	f8b4 39ec 	ldrh.w	r3, [r4, #2540]	; 0x9ec
 80a0e98:	f8df 81f0 	ldr.w	r8, [pc, #496]	; 80a108c <_Z17getOfflineMessageRt+0x248>
 80a0e9c:	4423      	add	r3, r4
 80a0e9e:	f893 102d 	ldrb.w	r1, [r3, #45]	; 0x2d
 80a0ea2:	a802      	add	r0, sp, #8
 80a0ea4:	eb01 0141 	add.w	r1, r1, r1, lsl #1
 80a0ea8:	3110      	adds	r1, #16
 80a0eaa:	4441      	add	r1, r8
 80a0eac:	f00c fd32 	bl	80ad914 <_ZN6StringC1EPK19__FlashStringHelper>
 80a0eb0:	a902      	add	r1, sp, #8
 80a0eb2:	a806      	add	r0, sp, #24
 80a0eb4:	f00c fe32 	bl	80adb1c <_ZplRK15StringSumHelperRK6String>
 80a0eb8:	4975      	ldr	r1, [pc, #468]	; (80a1090 <_Z17getOfflineMessageRt+0x24c>)
 80a0eba:	f00c fe3b 	bl	80adb34 <_ZplRK15StringSumHelperPKc>
 80a0ebe:	4607      	mov	r7, r0
                             String(offlineReadings1D[currentReadIndex], 4) + ","));
 80a0ec0:	f8b4 39ec 	ldrh.w	r3, [r4, #2540]	; 0x9ec
 80a0ec4:	2204      	movs	r2, #4
 80a0ec6:	eb04 0383 	add.w	r3, r4, r3, lsl #2
 80a0eca:	f8d3 1220 	ldr.w	r1, [r3, #544]	; 0x220
 80a0ece:	a80a      	add	r0, sp, #40	; 0x28
 80a0ed0:	f00c fdc7 	bl	80ada62 <_ZN6StringC1Efi>
 80a0ed4:	4638      	mov	r0, r7
 80a0ed6:	a90a      	add	r1, sp, #40	; 0x28
 80a0ed8:	f00c fe20 	bl	80adb1c <_ZplRK15StringSumHelperRK6String>
 80a0edc:	496d      	ldr	r1, [pc, #436]	; (80a1094 <_Z17getOfflineMessageRt+0x250>)
 80a0ede:	f00c fe29 	bl	80adb34 <_ZplRK15StringSumHelperPKc>
 80a0ee2:	4601      	mov	r1, r0
 80a0ee4:	a80e      	add	r0, sp, #56	; 0x38
 80a0ee6:	f00c fd5f 	bl	80ad9a8 <_ZN6StringC1ERKS_>
    messageOut.concat(String("\"" + String(sensors.JSONnames[JSONCodeReading[currentReadIndex]]) + "\":" +
 80a0eea:	a90e      	add	r1, sp, #56	; 0x38
 80a0eec:	4628      	mov	r0, r5
 80a0eee:	f00c fde6 	bl	80adabe <_ZN6String6concatERKS_>
 80a0ef2:	a80e      	add	r0, sp, #56	; 0x38
 80a0ef4:	f00c fcc4 	bl	80ad880 <_ZN6StringD1Ev>
                             String(offlineReadings1D[currentReadIndex], 4) + ","));
 80a0ef8:	a80a      	add	r0, sp, #40	; 0x28
 80a0efa:	f00c fcc1 	bl	80ad880 <_ZN6StringD1Ev>
    messageOut.concat(String("\"" + String(sensors.JSONnames[JSONCodeReading[currentReadIndex]]) + "\":" +
 80a0efe:	a802      	add	r0, sp, #8
 80a0f00:	f00c fcbe 	bl	80ad880 <_ZN6StringD1Ev>
class StringSumHelper : public String
 80a0f04:	a806      	add	r0, sp, #24
 80a0f06:	f00c fcbb 	bl	80ad880 <_ZN6StringD1Ev>
    // Serial.printlnf("Wrote %f to %s. index: %d, nReadigns: %d",offlineReadings1D[currentReadIndex],sensors.JSONnames[JSONCodeReading[currentReadIndex]],currentReadIndex,nReadigns);

    currentReadIndex++;
 80a0f0a:	f8b4 39ec 	ldrh.w	r3, [r4, #2540]	; 0x9ec
{
 80a0f0e:	2701      	movs	r7, #1
    currentReadIndex++;
 80a0f10:	3301      	adds	r3, #1
 80a0f12:	b29b      	uxth	r3, r3
    nReadigns++;

    if (currentReadIndex >= nMaxReadings)
 80a0f14:	f5b3 7ff9 	cmp.w	r3, #498	; 0x1f2
      currentReadIndex = 0;
 80a0f18:	bf28      	it	cs
 80a0f1a:	2300      	movcs	r3, #0

    while (JSONCodeReading[currentReadIndex] != Dh_Index && JSONCodeReading[currentReadIndex] != null_index)
    {
      if (offlineReadings1D[currentReadIndex] - (int)offlineReadings1D[currentReadIndex] == 0)
 80a0f1c:	f04f 0b00 	mov.w	fp, #0
	StringSumHelper(const char *p) : String(p) {}
 80a0f20:	f8df 9164 	ldr.w	r9, [pc, #356]	; 80a1088 <_Z17getOfflineMessageRt+0x244>
        messageOut.concat(String("\"" + String(sensors.JSONnames[JSONCodeReading[currentReadIndex]]) + "\":" +
                                 String(offlineReadings1D[currentReadIndex], 0) + ","));
      }
      else
      {
        messageOut.concat(String("\"" + String(sensors.JSONnames[JSONCodeReading[currentReadIndex]]) + "\":" +
 80a0f24:	f8df a168 	ldr.w	sl, [pc, #360]	; 80a1090 <_Z17getOfflineMessageRt+0x24c>
      currentReadIndex = 0;
 80a0f28:	f8a4 39ec 	strh.w	r3, [r4, #2540]	; 0x9ec
    while (JSONCodeReading[currentReadIndex] != Dh_Index && JSONCodeReading[currentReadIndex] != null_index)
 80a0f2c:	f8b4 39ec 	ldrh.w	r3, [r4, #2540]	; 0x9ec
 80a0f30:	18e2      	adds	r2, r4, r3
 80a0f32:	f892 202d 	ldrb.w	r2, [r2, #45]	; 0x2d
 80a0f36:	f012 0ff7 	tst.w	r2, #247	; 0xf7
 80a0f3a:	d07f      	beq.n	80a103c <_Z17getOfflineMessageRt+0x1f8>
      if (offlineReadings1D[currentReadIndex] - (int)offlineReadings1D[currentReadIndex] == 0)
 80a0f3c:	eb04 0383 	add.w	r3, r4, r3, lsl #2
 80a0f40:	f8d3 3220 	ldr.w	r3, [r3, #544]	; 0x220
 80a0f44:	4618      	mov	r0, r3
 80a0f46:	9301      	str	r3, [sp, #4]
 80a0f48:	f010 fa3a 	bl	80b13c0 <__aeabi_f2iz>
 80a0f4c:	f010 f808 	bl	80b0f60 <__aeabi_i2f>
 80a0f50:	9b01      	ldr	r3, [sp, #4]
 80a0f52:	4601      	mov	r1, r0
 80a0f54:	4618      	mov	r0, r3
 80a0f56:	f00f ff4d 	bl	80b0df4 <__aeabi_fsub>
 80a0f5a:	4659      	mov	r1, fp
 80a0f5c:	f010 f9e8 	bl	80b1330 <__aeabi_fcmpeq>
 80a0f60:	4649      	mov	r1, r9
 80a0f62:	2800      	cmp	r0, #0
 80a0f64:	d04d      	beq.n	80a1002 <_Z17getOfflineMessageRt+0x1be>
 80a0f66:	a806      	add	r0, sp, #24
 80a0f68:	f00c fcd4 	bl	80ad914 <_ZN6StringC1EPK19__FlashStringHelper>
        messageOut.concat(String("\"" + String(sensors.JSONnames[JSONCodeReading[currentReadIndex]]) + "\":" +
 80a0f6c:	f8b4 39ec 	ldrh.w	r3, [r4, #2540]	; 0x9ec
 80a0f70:	a802      	add	r0, sp, #8
 80a0f72:	4423      	add	r3, r4
 80a0f74:	f893 102d 	ldrb.w	r1, [r3, #45]	; 0x2d
 80a0f78:	eb01 0141 	add.w	r1, r1, r1, lsl #1
 80a0f7c:	3110      	adds	r1, #16
 80a0f7e:	4441      	add	r1, r8
 80a0f80:	f00c fcc8 	bl	80ad914 <_ZN6StringC1EPK19__FlashStringHelper>
 80a0f84:	a902      	add	r1, sp, #8
 80a0f86:	a806      	add	r0, sp, #24
 80a0f88:	f00c fdc8 	bl	80adb1c <_ZplRK15StringSumHelperRK6String>
 80a0f8c:	4651      	mov	r1, sl
 80a0f8e:	f00c fdd1 	bl	80adb34 <_ZplRK15StringSumHelperPKc>
                                 String(offlineReadings1D[currentReadIndex], 0) + ","));
 80a0f92:	2200      	movs	r2, #0
 80a0f94:	f8b4 19ec 	ldrh.w	r1, [r4, #2540]	; 0x9ec
        messageOut.concat(String("\"" + String(sensors.JSONnames[JSONCodeReading[currentReadIndex]]) + "\":" +
 80a0f98:	9001      	str	r0, [sp, #4]
                                 String(offlineReadings1D[currentReadIndex], 0) + ","));
 80a0f9a:	eb04 0181 	add.w	r1, r4, r1, lsl #2
                                 String(offlineReadings1D[currentReadIndex], 4) + ","));
 80a0f9e:	f8d1 1220 	ldr.w	r1, [r1, #544]	; 0x220
 80a0fa2:	a80a      	add	r0, sp, #40	; 0x28
 80a0fa4:	f00c fd5d 	bl	80ada62 <_ZN6StringC1Efi>
 80a0fa8:	9b01      	ldr	r3, [sp, #4]
 80a0faa:	a90a      	add	r1, sp, #40	; 0x28
 80a0fac:	4618      	mov	r0, r3
 80a0fae:	f00c fdb5 	bl	80adb1c <_ZplRK15StringSumHelperRK6String>
 80a0fb2:	4938      	ldr	r1, [pc, #224]	; (80a1094 <_Z17getOfflineMessageRt+0x250>)
 80a0fb4:	f00c fdbe 	bl	80adb34 <_ZplRK15StringSumHelperPKc>
 80a0fb8:	4601      	mov	r1, r0
 80a0fba:	a80e      	add	r0, sp, #56	; 0x38
 80a0fbc:	f00c fcf4 	bl	80ad9a8 <_ZN6StringC1ERKS_>
        messageOut.concat(String("\"" + String(sensors.JSONnames[JSONCodeReading[currentReadIndex]]) + "\":" +
 80a0fc0:	a90e      	add	r1, sp, #56	; 0x38
 80a0fc2:	4628      	mov	r0, r5
 80a0fc4:	f00c fd7b 	bl	80adabe <_ZN6String6concatERKS_>
 80a0fc8:	a80e      	add	r0, sp, #56	; 0x38
 80a0fca:	f00c fc59 	bl	80ad880 <_ZN6StringD1Ev>
                                 String(offlineReadings1D[currentReadIndex], 4) + ","));
 80a0fce:	a80a      	add	r0, sp, #40	; 0x28
 80a0fd0:	f00c fc56 	bl	80ad880 <_ZN6StringD1Ev>
        messageOut.concat(String("\"" + String(sensors.JSONnames[JSONCodeReading[currentReadIndex]]) + "\":" +
 80a0fd4:	a802      	add	r0, sp, #8
 80a0fd6:	f00c fc53 	bl	80ad880 <_ZN6StringD1Ev>
class StringSumHelper : public String
 80a0fda:	a806      	add	r0, sp, #24
 80a0fdc:	f00c fc50 	bl	80ad880 <_ZN6StringD1Ev>
      }
      // Serial.printlnf("Wrote %f to %s. index: %d, nReadigns: %d",offlineReadings1D[currentReadIndex],sensors.JSONnames[JSONCodeReading[currentReadIndex]],currentReadIndex,nReadigns);

      currentReadIndex++;
 80a0fe0:	f8b4 39ec 	ldrh.w	r3, [r4, #2540]	; 0x9ec
      nReadigns++;
 80a0fe4:	3701      	adds	r7, #1
      currentReadIndex++;
 80a0fe6:	1c5a      	adds	r2, r3, #1
 80a0fe8:	b292      	uxth	r2, r2

      if (currentReadIndex >= nMaxReadings)
 80a0fea:	f5b2 7ff9 	cmp.w	r2, #498	; 0x1f2
 80a0fee:	d305      	bcc.n	80a0ffc <_Z17getOfflineMessageRt+0x1b8>
        currentReadIndex = currentReadIndex - nMaxReadings;
 80a0ff0:	f46f 72f8 	mvn.w	r2, #496	; 0x1f0
 80a0ff4:	4413      	add	r3, r2
 80a0ff6:	f8a4 39ec 	strh.w	r3, [r4, #2540]	; 0x9ec
 80a0ffa:	e797      	b.n	80a0f2c <_Z17getOfflineMessageRt+0xe8>
      currentReadIndex++;
 80a0ffc:	f8a4 29ec 	strh.w	r2, [r4, #2540]	; 0x9ec
 80a1000:	e794      	b.n	80a0f2c <_Z17getOfflineMessageRt+0xe8>
	StringSumHelper(const char *p) : String(p) {}
 80a1002:	a806      	add	r0, sp, #24
 80a1004:	f00c fc86 	bl	80ad914 <_ZN6StringC1EPK19__FlashStringHelper>
        messageOut.concat(String("\"" + String(sensors.JSONnames[JSONCodeReading[currentReadIndex]]) + "\":" +
 80a1008:	f8b4 39ec 	ldrh.w	r3, [r4, #2540]	; 0x9ec
 80a100c:	a802      	add	r0, sp, #8
 80a100e:	4423      	add	r3, r4
 80a1010:	f893 102d 	ldrb.w	r1, [r3, #45]	; 0x2d
 80a1014:	eb01 0141 	add.w	r1, r1, r1, lsl #1
 80a1018:	3110      	adds	r1, #16
 80a101a:	4441      	add	r1, r8
 80a101c:	f00c fc7a 	bl	80ad914 <_ZN6StringC1EPK19__FlashStringHelper>
 80a1020:	a902      	add	r1, sp, #8
 80a1022:	a806      	add	r0, sp, #24
 80a1024:	f00c fd7a 	bl	80adb1c <_ZplRK15StringSumHelperRK6String>
 80a1028:	4651      	mov	r1, sl
 80a102a:	f00c fd83 	bl	80adb34 <_ZplRK15StringSumHelperPKc>
                                 String(offlineReadings1D[currentReadIndex], 4) + ","));
 80a102e:	f8b4 19ec 	ldrh.w	r1, [r4, #2540]	; 0x9ec
 80a1032:	2204      	movs	r2, #4
        messageOut.concat(String("\"" + String(sensors.JSONnames[JSONCodeReading[currentReadIndex]]) + "\":" +
 80a1034:	9001      	str	r0, [sp, #4]
                                 String(offlineReadings1D[currentReadIndex], 4) + ","));
 80a1036:	eb04 0181 	add.w	r1, r4, r1, lsl #2
 80a103a:	e7b0      	b.n	80a0f9e <_Z17getOfflineMessageRt+0x15a>
 80a103c:	4916      	ldr	r1, [pc, #88]	; (80a1098 <_Z17getOfflineMessageRt+0x254>)
 80a103e:	a80e      	add	r0, sp, #56	; 0x38
 80a1040:	f00c fc68 	bl	80ad914 <_ZN6StringC1EPK19__FlashStringHelper>
    }
    messageOut.concat("\"Dv\":\"" + String(deviceNameRet) + "\"}");
 80a1044:	4915      	ldr	r1, [pc, #84]	; (80a109c <_Z17getOfflineMessageRt+0x258>)
 80a1046:	a80a      	add	r0, sp, #40	; 0x28
 80a1048:	f00c fc64 	bl	80ad914 <_ZN6StringC1EPK19__FlashStringHelper>
 80a104c:	a90a      	add	r1, sp, #40	; 0x28
 80a104e:	a80e      	add	r0, sp, #56	; 0x38
 80a1050:	f00c fd64 	bl	80adb1c <_ZplRK15StringSumHelperRK6String>
 80a1054:	4912      	ldr	r1, [pc, #72]	; (80a10a0 <_Z17getOfflineMessageRt+0x25c>)
 80a1056:	f00c fd6d 	bl	80adb34 <_ZplRK15StringSumHelperPKc>
 80a105a:	4601      	mov	r1, r0
 80a105c:	4628      	mov	r0, r5
 80a105e:	f00c fd2e 	bl	80adabe <_ZN6String6concatERKS_>
 80a1062:	a80a      	add	r0, sp, #40	; 0x28
 80a1064:	f00c fc0c 	bl	80ad880 <_ZN6StringD1Ev>
class StringSumHelper : public String
 80a1068:	a80e      	add	r0, sp, #56	; 0x38
 80a106a:	f00c fc09 	bl	80ad880 <_ZN6StringD1Ev>

    ReadingsLength = nReadigns;
 80a106e:	8037      	strh	r7, [r6, #0]
  }
  // Serial.println("Offline message: "+ messageOut);
  return messageOut;
}
 80a1070:	4628      	mov	r0, r5
 80a1072:	b013      	add	sp, #76	; 0x4c
 80a1074:	e8bd 8ff0 	ldmia.w	sp!, {r4, r5, r6, r7, r8, r9, sl, fp, pc}
 80a1078:	40024000 	.word	0x40024000
 80a107c:	080b5867 	.word	0x080b5867
 80a1080:	080b3324 	.word	0x080b3324
 80a1084:	080b3382 	.word	0x080b3382
 80a1088:	080b33ee 	.word	0x080b33ee
 80a108c:	20000624 	.word	0x20000624
 80a1090:	080b36b0 	.word	0x080b36b0
 80a1094:	080b3384 	.word	0x080b3384
 80a1098:	080b3386 	.word	0x080b3386
 80a109c:	2000000e 	.word	0x2000000e
 80a10a0:	080b338d 	.word	0x080b338d

080a10a4 <_Z21getFullSensorMessagesv>:
{
 80a10a4:	e92d 4ff0 	stmdb	sp!, {r4, r5, r6, r7, r8, r9, sl, fp, lr}
  String messageOut = "";
 80a10a8:	495c      	ldr	r1, [pc, #368]	; (80a121c <_Z21getFullSensorMessagesv+0x178>)
{
 80a10aa:	b093      	sub	sp, #76	; 0x4c
 80a10ac:	4604      	mov	r4, r0
  String messageOut = "";
 80a10ae:	f00c fc31 	bl	80ad914 <_ZN6StringC1EPK19__FlashStringHelper>
  nMessagesToSend = 0;
 80a10b2:	2300      	movs	r3, #0
 80a10b4:	4d5a      	ldr	r5, [pc, #360]	; (80a1220 <_Z21getFullSensorMessagesv+0x17c>)
 80a10b6:	602b      	str	r3, [r5, #0]
  if (haveStoredSensorInfo)
 80a10b8:	4b5a      	ldr	r3, [pc, #360]	; (80a1224 <_Z21getFullSensorMessagesv+0x180>)
 80a10ba:	781b      	ldrb	r3, [r3, #0]
 80a10bc:	2b00      	cmp	r3, #0
 80a10be:	f000 8236 	beq.w	80a152e <_Z21getFullSensorMessagesv+0x48a>
    if (hasSensors)
 80a10c2:	4b59      	ldr	r3, [pc, #356]	; (80a1228 <_Z21getFullSensorMessagesv+0x184>)
 80a10c4:	781b      	ldrb	r3, [r3, #0]
 80a10c6:	2b00      	cmp	r3, #0
 80a10c8:	f000 8149 	beq.w	80a135e <_Z21getFullSensorMessagesv+0x2ba>
      currentReadIndex = offlineIndexStart;
 80a10cc:	4e57      	ldr	r6, [pc, #348]	; (80a122c <_Z21getFullSensorMessagesv+0x188>)
        messageOut.concat(getOfflineMessage(tempSentReadingsLength[nMessagesToSend]));
 80a10ce:	4f58      	ldr	r7, [pc, #352]	; (80a1230 <_Z21getFullSensorMessagesv+0x18c>)
      currentReadIndex = offlineIndexStart;
 80a10d0:	f8b6 39e8 	ldrh.w	r3, [r6, #2536]	; 0x9e8
 80a10d4:	f8a6 39ec 	strh.w	r3, [r6, #2540]	; 0x9ec
      while (currentReadIndex != offlineIndexEnd)
 80a10d8:	f8b6 29ec 	ldrh.w	r2, [r6, #2540]	; 0x9ec
 80a10dc:	f8b6 39ea 	ldrh.w	r3, [r6, #2538]	; 0x9ea
        messageOut.concat(getOfflineMessage(tempSentReadingsLength[nMessagesToSend]));
 80a10e0:	6829      	ldr	r1, [r5, #0]
      while (currentReadIndex != offlineIndexEnd)
 80a10e2:	429a      	cmp	r2, r3
 80a10e4:	d00f      	beq.n	80a1106 <_Z21getFullSensorMessagesv+0x62>
        messageOut.concat(getOfflineMessage(tempSentReadingsLength[nMessagesToSend]));
 80a10e6:	eb07 0141 	add.w	r1, r7, r1, lsl #1
 80a10ea:	a80e      	add	r0, sp, #56	; 0x38
 80a10ec:	f7ff feaa 	bl	80a0e44 <_Z17getOfflineMessageRt>
 80a10f0:	a90e      	add	r1, sp, #56	; 0x38
 80a10f2:	4620      	mov	r0, r4
 80a10f4:	f00c fce3 	bl	80adabe <_ZN6String6concatERKS_>
 80a10f8:	a80e      	add	r0, sp, #56	; 0x38
 80a10fa:	f00c fbc1 	bl	80ad880 <_ZN6StringD1Ev>
        nMessagesToSend++;
 80a10fe:	682b      	ldr	r3, [r5, #0]
 80a1100:	3301      	adds	r3, #1
 80a1102:	602b      	str	r3, [r5, #0]
      while (currentReadIndex != offlineIndexEnd)
 80a1104:	e7e8      	b.n	80a10d8 <_Z21getFullSensorMessagesv+0x34>
      currentReadIndex = offlineIndexStart;
 80a1106:	f8b6 39e8 	ldrh.w	r3, [r6, #2536]	; 0x9e8
      messageOut.concat(String("{"));
 80a110a:	a80e      	add	r0, sp, #56	; 0x38
      currentReadIndex = offlineIndexStart;
 80a110c:	f8a6 39ec 	strh.w	r3, [r6, #2540]	; 0x9ec
      if (OfflineReadingsSavedCount != nMessagesToSend)
 80a1110:	f8b6 39ee 	ldrh.w	r3, [r6, #2542]	; 0x9ee
      messageOut.concat(String("{"));
 80a1114:	2700      	movs	r7, #0
      if (OfflineReadingsSavedCount != nMessagesToSend)
 80a1116:	428b      	cmp	r3, r1
        OfflineReadingsSavedCount = nMessagesToSend;
 80a1118:	bf18      	it	ne
 80a111a:	f8a6 19ee 	strhne.w	r1, [r6, #2542]	; 0x9ee
      messageOut.concat(String("{"));
 80a111e:	4945      	ldr	r1, [pc, #276]	; (80a1234 <_Z21getFullSensorMessagesv+0x190>)
 80a1120:	f00c fbf8 	bl	80ad914 <_ZN6StringC1EPK19__FlashStringHelper>
 80a1124:	a90e      	add	r1, sp, #56	; 0x38
 80a1126:	4620      	mov	r0, r4
 80a1128:	f00c fcc9 	bl	80adabe <_ZN6String6concatERKS_>
 80a112c:	a80e      	add	r0, sp, #56	; 0x38
 80a112e:	f00c fba7 	bl	80ad880 <_ZN6StringD1Ev>
        if (currentReadings[i] - (int)currentReadings[i] == 0)
 80a1132:	f04f 0a00 	mov.w	sl, #0
      for (uint8_t i = 0; i < nReadingsSaved; i++)
 80a1136:	f8df 9100 	ldr.w	r9, [pc, #256]	; 80a1238 <_Z21getFullSensorMessagesv+0x194>
        if (currentReadings[i] - (int)currentReadings[i] == 0)
 80a113a:	f8df 8100 	ldr.w	r8, [pc, #256]	; 80a123c <_Z21getFullSensorMessagesv+0x198>
      for (uint8_t i = 0; i < nReadingsSaved; i++)
 80a113e:	f8d9 3000 	ldr.w	r3, [r9]
 80a1142:	b2fe      	uxtb	r6, r7
 80a1144:	429e      	cmp	r6, r3
 80a1146:	f280 8087 	bge.w	80a1258 <_Z21getFullSensorMessagesv+0x1b4>
        if (currentReadings[i] - (int)currentReadings[i] == 0)
 80a114a:	f858 b026 	ldr.w	fp, [r8, r6, lsl #2]
 80a114e:	4658      	mov	r0, fp
 80a1150:	f010 f936 	bl	80b13c0 <__aeabi_f2iz>
 80a1154:	f00f ff04 	bl	80b0f60 <__aeabi_i2f>
 80a1158:	4601      	mov	r1, r0
 80a115a:	4658      	mov	r0, fp
 80a115c:	f00f fe4a 	bl	80b0df4 <__aeabi_fsub>
 80a1160:	4651      	mov	r1, sl
 80a1162:	f010 f8e5 	bl	80b1330 <__aeabi_fcmpeq>
 80a1166:	f8df b0d8 	ldr.w	fp, [pc, #216]	; 80a1240 <_Z21getFullSensorMessagesv+0x19c>
	StringSumHelper(const char *p) : String(p) {}
 80a116a:	4936      	ldr	r1, [pc, #216]	; (80a1244 <_Z21getFullSensorMessagesv+0x1a0>)
 80a116c:	2800      	cmp	r0, #0
 80a116e:	d03e      	beq.n	80a11ee <_Z21getFullSensorMessagesv+0x14a>
 80a1170:	a806      	add	r0, sp, #24
 80a1172:	f00c fbcf 	bl	80ad914 <_ZN6StringC1EPK19__FlashStringHelper>
          messageOut.concat(String("\"" + String(sensors.JSONnames[currentReadingsJsonCode[i]]) + "\":" +
 80a1176:	f81b 1006 	ldrb.w	r1, [fp, r6]
 80a117a:	4b33      	ldr	r3, [pc, #204]	; (80a1248 <_Z21getFullSensorMessagesv+0x1a4>)
 80a117c:	eb01 0141 	add.w	r1, r1, r1, lsl #1
 80a1180:	4419      	add	r1, r3
 80a1182:	a802      	add	r0, sp, #8
 80a1184:	f00c fbc6 	bl	80ad914 <_ZN6StringC1EPK19__FlashStringHelper>
 80a1188:	a902      	add	r1, sp, #8
 80a118a:	a806      	add	r0, sp, #24
 80a118c:	f00c fcc6 	bl	80adb1c <_ZplRK15StringSumHelperRK6String>
 80a1190:	492e      	ldr	r1, [pc, #184]	; (80a124c <_Z21getFullSensorMessagesv+0x1a8>)
 80a1192:	f00c fccf 	bl	80adb34 <_ZplRK15StringSumHelperPKc>
                                   String(currentReadings[i], 0) + ","));
 80a1196:	2200      	movs	r2, #0
          messageOut.concat(String("\"" + String(sensors.JSONnames[currentReadingsJsonCode[i]]) + "\":" +
 80a1198:	4683      	mov	fp, r0
                                   String(currentReadings[i], 4) + ","));
 80a119a:	f858 1026 	ldr.w	r1, [r8, r6, lsl #2]
 80a119e:	a80a      	add	r0, sp, #40	; 0x28
 80a11a0:	f00c fc5f 	bl	80ada62 <_ZN6StringC1Efi>
 80a11a4:	a90a      	add	r1, sp, #40	; 0x28
 80a11a6:	4658      	mov	r0, fp
 80a11a8:	f00c fcb8 	bl	80adb1c <_ZplRK15StringSumHelperRK6String>
 80a11ac:	4928      	ldr	r1, [pc, #160]	; (80a1250 <_Z21getFullSensorMessagesv+0x1ac>)
 80a11ae:	f00c fcc1 	bl	80adb34 <_ZplRK15StringSumHelperPKc>
 80a11b2:	4601      	mov	r1, r0
 80a11b4:	a80e      	add	r0, sp, #56	; 0x38
 80a11b6:	f00c fbf7 	bl	80ad9a8 <_ZN6StringC1ERKS_>
          messageOut.concat(String("\"" + String(sensors.JSONnames[currentReadingsJsonCode[i]]) + "\":" +
 80a11ba:	a90e      	add	r1, sp, #56	; 0x38
 80a11bc:	4620      	mov	r0, r4
 80a11be:	f00c fc7e 	bl	80adabe <_ZN6String6concatERKS_>
 80a11c2:	a80e      	add	r0, sp, #56	; 0x38
 80a11c4:	f00c fb5c 	bl	80ad880 <_ZN6StringD1Ev>
                                   String(currentReadings[i], 4) + ","));
 80a11c8:	a80a      	add	r0, sp, #40	; 0x28
 80a11ca:	f00c fb59 	bl	80ad880 <_ZN6StringD1Ev>
          messageOut.concat(String("\"" + String(sensors.JSONnames[currentReadingsJsonCode[i]]) + "\":" +
 80a11ce:	a802      	add	r0, sp, #8
 80a11d0:	f00c fb56 	bl	80ad880 <_ZN6StringD1Ev>
class StringSumHelper : public String
 80a11d4:	a806      	add	r0, sp, #24
 80a11d6:	f00c fb53 	bl	80ad880 <_ZN6StringD1Ev>
        if (currentReadingsJsonCode[i] == null_index)
 80a11da:	4b19      	ldr	r3, [pc, #100]	; (80a1240 <_Z21getFullSensorMessagesv+0x19c>)
 80a11dc:	5d9b      	ldrb	r3, [r3, r6]
 80a11de:	b923      	cbnz	r3, 80a11ea <_Z21getFullSensorMessagesv+0x146>
          Serial.println("Woh!! Getting current readings for full message you went too far into null territory!");
 80a11e0:	f00d f8da 	bl	80ae398 <_Z16_fetch_usbserialv>
 80a11e4:	491b      	ldr	r1, [pc, #108]	; (80a1254 <_Z21getFullSensorMessagesv+0x1b0>)
 80a11e6:	f00c f8e8 	bl	80ad3ba <_ZN5Print7printlnEPKc>
      for (uint8_t i = 0; i < nReadingsSaved; i++)
 80a11ea:	3701      	adds	r7, #1
 80a11ec:	e7a7      	b.n	80a113e <_Z21getFullSensorMessagesv+0x9a>
	StringSumHelper(const char *p) : String(p) {}
 80a11ee:	a806      	add	r0, sp, #24
 80a11f0:	f00c fb90 	bl	80ad914 <_ZN6StringC1EPK19__FlashStringHelper>
          messageOut.concat(String("\"" + String(sensors.JSONnames[currentReadingsJsonCode[i]]) + "\":" +
 80a11f4:	f81b 1006 	ldrb.w	r1, [fp, r6]
 80a11f8:	4b13      	ldr	r3, [pc, #76]	; (80a1248 <_Z21getFullSensorMessagesv+0x1a4>)
 80a11fa:	eb01 0141 	add.w	r1, r1, r1, lsl #1
 80a11fe:	4419      	add	r1, r3
 80a1200:	a802      	add	r0, sp, #8
 80a1202:	f00c fb87 	bl	80ad914 <_ZN6StringC1EPK19__FlashStringHelper>
 80a1206:	a902      	add	r1, sp, #8
 80a1208:	a806      	add	r0, sp, #24
 80a120a:	f00c fc87 	bl	80adb1c <_ZplRK15StringSumHelperRK6String>
 80a120e:	490f      	ldr	r1, [pc, #60]	; (80a124c <_Z21getFullSensorMessagesv+0x1a8>)
 80a1210:	f00c fc90 	bl	80adb34 <_ZplRK15StringSumHelperPKc>
                                   String(currentReadings[i], 4) + ","));
 80a1214:	2204      	movs	r2, #4
          messageOut.concat(String("\"" + String(sensors.JSONnames[currentReadingsJsonCode[i]]) + "\":" +
 80a1216:	4683      	mov	fp, r0
 80a1218:	e7bf      	b.n	80a119a <_Z21getFullSensorMessagesv+0xf6>
 80a121a:	bf00      	nop
 80a121c:	080b5867 	.word	0x080b5867
 80a1220:	200004d4 	.word	0x200004d4
 80a1224:	2000049e 	.word	0x2000049e
 80a1228:	20000030 	.word	0x20000030
 80a122c:	40024000 	.word	0x40024000
 80a1230:	2000185e 	.word	0x2000185e
 80a1234:	080b3382 	.word	0x080b3382
 80a1238:	200004d8 	.word	0x200004d8
 80a123c:	200001c0 	.word	0x200001c0
 80a1240:	20000270 	.word	0x20000270
 80a1244:	080b33ee 	.word	0x080b33ee
 80a1248:	20000634 	.word	0x20000634
 80a124c:	080b36b0 	.word	0x080b36b0
 80a1250:	080b3384 	.word	0x080b3384
 80a1254:	080b3390 	.word	0x080b3390
 80a1258:	49b7      	ldr	r1, [pc, #732]	; (80a1538 <_Z21getFullSensorMessagesv+0x494>)
 80a125a:	a806      	add	r0, sp, #24
 80a125c:	f00c fb5a 	bl	80ad914 <_ZN6StringC1EPK19__FlashStringHelper>
      messageOut.concat(String("\"" + String(sensors.JSONnames[Yr_Index]) + "\":" + String(Time.year()) + ","));
 80a1260:	49b6      	ldr	r1, [pc, #728]	; (80a153c <_Z21getFullSensorMessagesv+0x498>)
 80a1262:	a802      	add	r0, sp, #8
 80a1264:	f00c fb56 	bl	80ad914 <_ZN6StringC1EPK19__FlashStringHelper>
 80a1268:	a902      	add	r1, sp, #8
 80a126a:	a806      	add	r0, sp, #24
 80a126c:	f00c fc56 	bl	80adb1c <_ZplRK15StringSumHelperRK6String>
 80a1270:	49b3      	ldr	r1, [pc, #716]	; (80a1540 <_Z21getFullSensorMessagesv+0x49c>)
 80a1272:	f00c fc5f 	bl	80adb34 <_ZplRK15StringSumHelperPKc>
 80a1276:	4606      	mov	r6, r0
 80a1278:	f00c ffba 	bl	80ae1f0 <_ZN9TimeClass4yearEv>
 80a127c:	220a      	movs	r2, #10
 80a127e:	4601      	mov	r1, r0
 80a1280:	a80a      	add	r0, sp, #40	; 0x28
 80a1282:	f00c fbc7 	bl	80ada14 <_ZN6StringC1Eih>
 80a1286:	4630      	mov	r0, r6
 80a1288:	a90a      	add	r1, sp, #40	; 0x28
 80a128a:	f00c fc47 	bl	80adb1c <_ZplRK15StringSumHelperRK6String>
 80a128e:	49ad      	ldr	r1, [pc, #692]	; (80a1544 <_Z21getFullSensorMessagesv+0x4a0>)
 80a1290:	f00c fc50 	bl	80adb34 <_ZplRK15StringSumHelperPKc>
 80a1294:	4601      	mov	r1, r0
 80a1296:	a80e      	add	r0, sp, #56	; 0x38
 80a1298:	f00c fb86 	bl	80ad9a8 <_ZN6StringC1ERKS_>
 80a129c:	a90e      	add	r1, sp, #56	; 0x38
 80a129e:	4620      	mov	r0, r4
 80a12a0:	f00c fc0d 	bl	80adabe <_ZN6String6concatERKS_>
 80a12a4:	a80e      	add	r0, sp, #56	; 0x38
 80a12a6:	f00c faeb 	bl	80ad880 <_ZN6StringD1Ev>
 80a12aa:	a80a      	add	r0, sp, #40	; 0x28
 80a12ac:	f00c fae8 	bl	80ad880 <_ZN6StringD1Ev>
 80a12b0:	a802      	add	r0, sp, #8
 80a12b2:	f00c fae5 	bl	80ad880 <_ZN6StringD1Ev>
class StringSumHelper : public String
 80a12b6:	a806      	add	r0, sp, #24
 80a12b8:	f00c fae2 	bl	80ad880 <_ZN6StringD1Ev>
	StringSumHelper(const char *p) : String(p) {}
 80a12bc:	499e      	ldr	r1, [pc, #632]	; (80a1538 <_Z21getFullSensorMessagesv+0x494>)
 80a12be:	a806      	add	r0, sp, #24
 80a12c0:	f00c fb28 	bl	80ad914 <_ZN6StringC1EPK19__FlashStringHelper>
      messageOut.concat(String("\"" + String(sensors.JSONnames[Zo_Index]) + "\":" + String(sensorsZome) + ","));
 80a12c4:	49a0      	ldr	r1, [pc, #640]	; (80a1548 <_Z21getFullSensorMessagesv+0x4a4>)
 80a12c6:	a802      	add	r0, sp, #8
 80a12c8:	f00c fb24 	bl	80ad914 <_ZN6StringC1EPK19__FlashStringHelper>
 80a12cc:	a902      	add	r1, sp, #8
 80a12ce:	a806      	add	r0, sp, #24
 80a12d0:	f00c fc24 	bl	80adb1c <_ZplRK15StringSumHelperRK6String>
 80a12d4:	499a      	ldr	r1, [pc, #616]	; (80a1540 <_Z21getFullSensorMessagesv+0x49c>)
 80a12d6:	f00c fc2d 	bl	80adb34 <_ZplRK15StringSumHelperPKc>
 80a12da:	220a      	movs	r2, #10
 80a12dc:	4606      	mov	r6, r0
 80a12de:	4611      	mov	r1, r2
 80a12e0:	a80a      	add	r0, sp, #40	; 0x28
 80a12e2:	f00c fb97 	bl	80ada14 <_ZN6StringC1Eih>
 80a12e6:	a90a      	add	r1, sp, #40	; 0x28
 80a12e8:	4630      	mov	r0, r6
 80a12ea:	f00c fc17 	bl	80adb1c <_ZplRK15StringSumHelperRK6String>
 80a12ee:	4995      	ldr	r1, [pc, #596]	; (80a1544 <_Z21getFullSensorMessagesv+0x4a0>)
 80a12f0:	f00c fc20 	bl	80adb34 <_ZplRK15StringSumHelperPKc>
 80a12f4:	4601      	mov	r1, r0
 80a12f6:	a80e      	add	r0, sp, #56	; 0x38
 80a12f8:	f00c fb56 	bl	80ad9a8 <_ZN6StringC1ERKS_>
 80a12fc:	a90e      	add	r1, sp, #56	; 0x38
 80a12fe:	4620      	mov	r0, r4
 80a1300:	f00c fbdd 	bl	80adabe <_ZN6String6concatERKS_>
 80a1304:	a80e      	add	r0, sp, #56	; 0x38
 80a1306:	f00c fabb 	bl	80ad880 <_ZN6StringD1Ev>
 80a130a:	a80a      	add	r0, sp, #40	; 0x28
 80a130c:	f00c fab8 	bl	80ad880 <_ZN6StringD1Ev>
 80a1310:	a802      	add	r0, sp, #8
 80a1312:	f00c fab5 	bl	80ad880 <_ZN6StringD1Ev>
class StringSumHelper : public String
 80a1316:	a806      	add	r0, sp, #24
 80a1318:	f00c fab2 	bl	80ad880 <_ZN6StringD1Ev>
	StringSumHelper(const char *p) : String(p) {}
 80a131c:	498b      	ldr	r1, [pc, #556]	; (80a154c <_Z21getFullSensorMessagesv+0x4a8>)
 80a131e:	a80e      	add	r0, sp, #56	; 0x38
 80a1320:	f00c faf8 	bl	80ad914 <_ZN6StringC1EPK19__FlashStringHelper>
      messageOut.concat("\"Dv\":\"" + String(deviceNameRet) + "\"}");
 80a1324:	498a      	ldr	r1, [pc, #552]	; (80a1550 <_Z21getFullSensorMessagesv+0x4ac>)
 80a1326:	a80a      	add	r0, sp, #40	; 0x28
 80a1328:	f00c faf4 	bl	80ad914 <_ZN6StringC1EPK19__FlashStringHelper>
 80a132c:	a90a      	add	r1, sp, #40	; 0x28
 80a132e:	a80e      	add	r0, sp, #56	; 0x38
 80a1330:	f00c fbf4 	bl	80adb1c <_ZplRK15StringSumHelperRK6String>
 80a1334:	4987      	ldr	r1, [pc, #540]	; (80a1554 <_Z21getFullSensorMessagesv+0x4b0>)
 80a1336:	f00c fbfd 	bl	80adb34 <_ZplRK15StringSumHelperPKc>
 80a133a:	4601      	mov	r1, r0
 80a133c:	4620      	mov	r0, r4
 80a133e:	f00c fbbe 	bl	80adabe <_ZN6String6concatERKS_>
 80a1342:	a80a      	add	r0, sp, #40	; 0x28
 80a1344:	f00c fa9c 	bl	80ad880 <_ZN6StringD1Ev>
class StringSumHelper : public String
 80a1348:	a80e      	add	r0, sp, #56	; 0x38
 80a134a:	f00c fa99 	bl	80ad880 <_ZN6StringD1Ev>
      tempSentReadingsLength[nMessagesToSend] = nReadingsSaved;
 80a134e:	682b      	ldr	r3, [r5, #0]
 80a1350:	f8d9 1000 	ldr.w	r1, [r9]
 80a1354:	4a80      	ldr	r2, [pc, #512]	; (80a1558 <_Z21getFullSensorMessagesv+0x4b4>)
 80a1356:	f822 1013 	strh.w	r1, [r2, r3, lsl #1]
      nMessagesToSend++;
 80a135a:	3301      	adds	r3, #1
 80a135c:	602b      	str	r3, [r5, #0]
    if (hasPIR)
 80a135e:	4b7f      	ldr	r3, [pc, #508]	; (80a155c <_Z21getFullSensorMessagesv+0x4b8>)
 80a1360:	781b      	ldrb	r3, [r3, #0]
 80a1362:	2b00      	cmp	r3, #0
 80a1364:	f000 80e3 	beq.w	80a152e <_Z21getFullSensorMessagesv+0x48a>
      if (LoRaPIR1Count > 0)
 80a1368:	4e7d      	ldr	r6, [pc, #500]	; (80a1560 <_Z21getFullSensorMessagesv+0x4bc>)
 80a136a:	8ab3      	ldrh	r3, [r6, #20]
 80a136c:	2b00      	cmp	r3, #0
 80a136e:	d06d      	beq.n	80a144c <_Z21getFullSensorMessagesv+0x3a8>
        size_t index = (nPIR1 == 0) ? PIR1Size - 1 : nPIR1 - 1;
 80a1370:	89b7      	ldrh	r7, [r6, #12]
 80a1372:	b107      	cbz	r7, 80a1376 <_Z21getFullSensorMessagesv+0x2d2>
 80a1374:	3f01      	subs	r7, #1
        if (LoRaPIR1Count > PIR1Size)
 80a1376:	2b01      	cmp	r3, #1
          LoRaPIR1Count = PIR1Size;
 80a1378:	bf1c      	itt	ne
 80a137a:	2301      	movne	r3, #1
 80a137c:	82b3      	strhne	r3, [r6, #20]
        uint16_t finalLoopLength = LoRaPIR1Count % nPerLoop;
 80a137e:	2313      	movs	r3, #19
 80a1380:	8ab0      	ldrh	r0, [r6, #20]
        nLoops = ceil(LoRaPIR1Count * 1.0 / nPerLoop * 1.0);
 80a1382:	f04f 0900 	mov.w	r9, #0
        uint16_t finalLoopLength = LoRaPIR1Count % nPerLoop;
 80a1386:	fbb0 f8f3 	udiv	r8, r0, r3
 80a138a:	fb03 0818 	mls	r8, r3, r8, r0
 80a138e:	fa1f f888 	uxth.w	r8, r8
          finalLoopLength = nPerLoop;
 80a1392:	f1b8 0f00 	cmp.w	r8, #0
 80a1396:	bf08      	it	eq
 80a1398:	4698      	moveq	r8, r3
        nLoops = ceil(LoRaPIR1Count * 1.0 / nPerLoop * 1.0);
 80a139a:	f00f f975 	bl	80b0688 <__aeabi_i2d>
 80a139e:	4b71      	ldr	r3, [pc, #452]	; (80a1564 <_Z21getFullSensorMessagesv+0x4c0>)
 80a13a0:	2200      	movs	r2, #0
 80a13a2:	f00f fb05 	bl	80b09b0 <__aeabi_ddiv>
 80a13a6:	f00d fbfb 	bl	80aeba0 <ceil>
 80a13aa:	f00f fcaf 	bl	80b0d0c <__aeabi_d2uiz>
            messageOut.concat(String(PIR1[index], 4) + "_");
 80a13ae:	f8df b1b8 	ldr.w	fp, [pc, #440]	; 80a1568 <_Z21getFullSensorMessagesv+0x4c4>
          messageOut.concat("{ \"P1\": \"");
 80a13b2:	4b6e      	ldr	r3, [pc, #440]	; (80a156c <_Z21getFullSensorMessagesv+0x4c8>)
        nLoops = ceil(LoRaPIR1Count * 1.0 / nPerLoop * 1.0);
 80a13b4:	fa1f fa80 	uxth.w	sl, r0
        for (uint16_t j = 0; j < nLoops; j++)
 80a13b8:	fa1f f289 	uxth.w	r2, r9
 80a13bc:	4592      	cmp	sl, r2
 80a13be:	d945      	bls.n	80a144c <_Z21getFullSensorMessagesv+0x3a8>
          messageOut.concat("{ \"P1\": \"");
 80a13c0:	4619      	mov	r1, r3
 80a13c2:	4620      	mov	r0, r4
 80a13c4:	f00c fb89 	bl	80adada <_ZN6String6concatEPKc>
          loopReadingsCount = (j == (nLoops - 1)) ? finalLoopLength : nPerLoop;
 80a13c8:	f10a 32ff 	add.w	r2, sl, #4294967295	; 0xffffffff
 80a13cc:	454a      	cmp	r2, r9
 80a13ce:	bf0c      	ite	eq
 80a13d0:	4643      	moveq	r3, r8
 80a13d2:	2313      	movne	r3, #19
            messageOut.concat(String(PIR1[index], 4) + "_");
 80a13d4:	eb06 0187 	add.w	r1, r6, r7, lsl #2
 80a13d8:	2204      	movs	r2, #4
 80a13da:	6909      	ldr	r1, [r1, #16]
 80a13dc:	a80a      	add	r0, sp, #40	; 0x28
          loopReadingsCount = (j == (nLoops - 1)) ? finalLoopLength : nPerLoop;
 80a13de:	9301      	str	r3, [sp, #4]
            messageOut.concat(String(PIR1[index], 4) + "_");
 80a13e0:	f00c fb3f 	bl	80ada62 <_ZN6StringC1Efi>
	StringSumHelper(const String &s) : String(s) {}
 80a13e4:	a90a      	add	r1, sp, #40	; 0x28
 80a13e6:	a80e      	add	r0, sp, #56	; 0x38
 80a13e8:	f00c fade 	bl	80ad9a8 <_ZN6StringC1ERKS_>
 80a13ec:	4659      	mov	r1, fp
 80a13ee:	a80e      	add	r0, sp, #56	; 0x38
 80a13f0:	f00c fba0 	bl	80adb34 <_ZplRK15StringSumHelperPKc>
 80a13f4:	4601      	mov	r1, r0
 80a13f6:	4620      	mov	r0, r4
 80a13f8:	f00c fb61 	bl	80adabe <_ZN6String6concatERKS_>
class StringSumHelper : public String
 80a13fc:	a80e      	add	r0, sp, #56	; 0x38
 80a13fe:	f00c fa3f 	bl	80ad880 <_ZN6StringD1Ev>
 80a1402:	a80a      	add	r0, sp, #40	; 0x28
 80a1404:	f00c fa3c 	bl	80ad880 <_ZN6StringD1Ev>
            index--;
 80a1408:	9b01      	ldr	r3, [sp, #4]
	StringSumHelper(const char *p) : String(p) {}
 80a140a:	4959      	ldr	r1, [pc, #356]	; (80a1570 <_Z21getFullSensorMessagesv+0x4cc>)
 80a140c:	a80e      	add	r0, sp, #56	; 0x38
 80a140e:	1aff      	subs	r7, r7, r3
 80a1410:	f00c fa80 	bl	80ad914 <_ZN6StringC1EPK19__FlashStringHelper>
          messageOut.concat("\", \"Dv\": \"" + String(deviceNameRet) + "\" }");
 80a1414:	494e      	ldr	r1, [pc, #312]	; (80a1550 <_Z21getFullSensorMessagesv+0x4ac>)
 80a1416:	a80a      	add	r0, sp, #40	; 0x28
 80a1418:	f00c fa7c 	bl	80ad914 <_ZN6StringC1EPK19__FlashStringHelper>
 80a141c:	a90a      	add	r1, sp, #40	; 0x28
 80a141e:	a80e      	add	r0, sp, #56	; 0x38
 80a1420:	f00c fb7c 	bl	80adb1c <_ZplRK15StringSumHelperRK6String>
 80a1424:	4953      	ldr	r1, [pc, #332]	; (80a1574 <_Z21getFullSensorMessagesv+0x4d0>)
 80a1426:	f00c fb85 	bl	80adb34 <_ZplRK15StringSumHelperPKc>
 80a142a:	4601      	mov	r1, r0
 80a142c:	4620      	mov	r0, r4
 80a142e:	f00c fb46 	bl	80adabe <_ZN6String6concatERKS_>
 80a1432:	a80a      	add	r0, sp, #40	; 0x28
 80a1434:	f00c fa24 	bl	80ad880 <_ZN6StringD1Ev>
class StringSumHelper : public String
 80a1438:	a80e      	add	r0, sp, #56	; 0x38
 80a143a:	f00c fa21 	bl	80ad880 <_ZN6StringD1Ev>
          nMessagesToSend++;
 80a143e:	682a      	ldr	r2, [r5, #0]
        for (uint16_t j = 0; j < nLoops; j++)
 80a1440:	4b4a      	ldr	r3, [pc, #296]	; (80a156c <_Z21getFullSensorMessagesv+0x4c8>)
          nMessagesToSend++;
 80a1442:	3201      	adds	r2, #1
 80a1444:	602a      	str	r2, [r5, #0]
        for (uint16_t j = 0; j < nLoops; j++)
 80a1446:	f109 0901 	add.w	r9, r9, #1
 80a144a:	e7b5      	b.n	80a13b8 <_Z21getFullSensorMessagesv+0x314>
      if (LoRaPIR2Count > 0)
 80a144c:	8c33      	ldrh	r3, [r6, #32]
 80a144e:	2b00      	cmp	r3, #0
 80a1450:	d06d      	beq.n	80a152e <_Z21getFullSensorMessagesv+0x48a>
        size_t index = nPIR2 == 0 ? PIR2Size - 1 : nPIR2 - 1;
 80a1452:	8b37      	ldrh	r7, [r6, #24]
 80a1454:	b107      	cbz	r7, 80a1458 <_Z21getFullSensorMessagesv+0x3b4>
 80a1456:	3f01      	subs	r7, #1
        if (LoRaPIR2Count > PIR2Size)
 80a1458:	2b01      	cmp	r3, #1
          LoRaPIR2Count = PIR2Size;
 80a145a:	bf1c      	itt	ne
 80a145c:	2301      	movne	r3, #1
 80a145e:	8433      	strhne	r3, [r6, #32]
        uint16_t finalLoopLength = LoRaPIR2Count % nPerLoop;
 80a1460:	2313      	movs	r3, #19
 80a1462:	8c30      	ldrh	r0, [r6, #32]
        nLoops = ceil(LoRaPIR2Count * 1.0 / nPerLoop * 1.0);
 80a1464:	f04f 0900 	mov.w	r9, #0
        uint16_t finalLoopLength = LoRaPIR2Count % nPerLoop;
 80a1468:	fbb0 f8f3 	udiv	r8, r0, r3
 80a146c:	fb03 0818 	mls	r8, r3, r8, r0
 80a1470:	fa1f f888 	uxth.w	r8, r8
          finalLoopLength = nPerLoop;
 80a1474:	f1b8 0f00 	cmp.w	r8, #0
 80a1478:	bf08      	it	eq
 80a147a:	4698      	moveq	r8, r3
        nLoops = ceil(LoRaPIR2Count * 1.0 / nPerLoop * 1.0);
 80a147c:	f00f f904 	bl	80b0688 <__aeabi_i2d>
 80a1480:	4b38      	ldr	r3, [pc, #224]	; (80a1564 <_Z21getFullSensorMessagesv+0x4c0>)
 80a1482:	2200      	movs	r2, #0
 80a1484:	f00f fa94 	bl	80b09b0 <__aeabi_ddiv>
 80a1488:	f00d fb8a 	bl	80aeba0 <ceil>
 80a148c:	f00f fc3e 	bl	80b0d0c <__aeabi_d2uiz>
            messageOut.concat(String(PIR2[index], 4) + "_");
 80a1490:	f8df b0d4 	ldr.w	fp, [pc, #212]	; 80a1568 <_Z21getFullSensorMessagesv+0x4c4>
          messageOut.concat("{ \"P2\": \"");
 80a1494:	4b38      	ldr	r3, [pc, #224]	; (80a1578 <_Z21getFullSensorMessagesv+0x4d4>)
        nLoops = ceil(LoRaPIR2Count * 1.0 / nPerLoop * 1.0);
 80a1496:	fa1f fa80 	uxth.w	sl, r0
        for (uint16_t j = 0; j < nLoops; j++)
 80a149a:	fa1f f289 	uxth.w	r2, r9
 80a149e:	4592      	cmp	sl, r2
 80a14a0:	d945      	bls.n	80a152e <_Z21getFullSensorMessagesv+0x48a>
          messageOut.concat("{ \"P2\": \"");
 80a14a2:	4619      	mov	r1, r3
 80a14a4:	4620      	mov	r0, r4
 80a14a6:	f00c fb18 	bl	80adada <_ZN6String6concatEPKc>
          loopReadingsCount = (j == (nLoops - 1)) ? finalLoopLength : nPerLoop;
 80a14aa:	f10a 32ff 	add.w	r2, sl, #4294967295	; 0xffffffff
 80a14ae:	454a      	cmp	r2, r9
 80a14b0:	bf0c      	ite	eq
 80a14b2:	4643      	moveq	r3, r8
 80a14b4:	2313      	movne	r3, #19
            messageOut.concat(String(PIR2[index], 4) + "_");
 80a14b6:	eb06 0187 	add.w	r1, r6, r7, lsl #2
 80a14ba:	2204      	movs	r2, #4
 80a14bc:	69c9      	ldr	r1, [r1, #28]
 80a14be:	a80a      	add	r0, sp, #40	; 0x28
          loopReadingsCount = (j == (nLoops - 1)) ? finalLoopLength : nPerLoop;
 80a14c0:	9301      	str	r3, [sp, #4]
            messageOut.concat(String(PIR2[index], 4) + "_");
 80a14c2:	f00c face 	bl	80ada62 <_ZN6StringC1Efi>
	StringSumHelper(const String &s) : String(s) {}
 80a14c6:	a90a      	add	r1, sp, #40	; 0x28
 80a14c8:	a80e      	add	r0, sp, #56	; 0x38
 80a14ca:	f00c fa6d 	bl	80ad9a8 <_ZN6StringC1ERKS_>
 80a14ce:	4659      	mov	r1, fp
 80a14d0:	a80e      	add	r0, sp, #56	; 0x38
 80a14d2:	f00c fb2f 	bl	80adb34 <_ZplRK15StringSumHelperPKc>
 80a14d6:	4601      	mov	r1, r0
 80a14d8:	4620      	mov	r0, r4
 80a14da:	f00c faf0 	bl	80adabe <_ZN6String6concatERKS_>
class StringSumHelper : public String
 80a14de:	a80e      	add	r0, sp, #56	; 0x38
 80a14e0:	f00c f9ce 	bl	80ad880 <_ZN6StringD1Ev>
 80a14e4:	a80a      	add	r0, sp, #40	; 0x28
 80a14e6:	f00c f9cb 	bl	80ad880 <_ZN6StringD1Ev>
            index--;
 80a14ea:	9b01      	ldr	r3, [sp, #4]
	StringSumHelper(const char *p) : String(p) {}
 80a14ec:	4920      	ldr	r1, [pc, #128]	; (80a1570 <_Z21getFullSensorMessagesv+0x4cc>)
 80a14ee:	a80e      	add	r0, sp, #56	; 0x38
 80a14f0:	1aff      	subs	r7, r7, r3
 80a14f2:	f00c fa0f 	bl	80ad914 <_ZN6StringC1EPK19__FlashStringHelper>
          messageOut.concat("\", \"Dv\": \"" + String(deviceNameRet) + "\" }");
 80a14f6:	4916      	ldr	r1, [pc, #88]	; (80a1550 <_Z21getFullSensorMessagesv+0x4ac>)
 80a14f8:	a80a      	add	r0, sp, #40	; 0x28
 80a14fa:	f00c fa0b 	bl	80ad914 <_ZN6StringC1EPK19__FlashStringHelper>
 80a14fe:	a90a      	add	r1, sp, #40	; 0x28
 80a1500:	a80e      	add	r0, sp, #56	; 0x38
 80a1502:	f00c fb0b 	bl	80adb1c <_ZplRK15StringSumHelperRK6String>
 80a1506:	491b      	ldr	r1, [pc, #108]	; (80a1574 <_Z21getFullSensorMessagesv+0x4d0>)
 80a1508:	f00c fb14 	bl	80adb34 <_ZplRK15StringSumHelperPKc>
 80a150c:	4601      	mov	r1, r0
 80a150e:	4620      	mov	r0, r4
 80a1510:	f00c fad5 	bl	80adabe <_ZN6String6concatERKS_>
 80a1514:	a80a      	add	r0, sp, #40	; 0x28
 80a1516:	f00c f9b3 	bl	80ad880 <_ZN6StringD1Ev>
class StringSumHelper : public String
 80a151a:	a80e      	add	r0, sp, #56	; 0x38
 80a151c:	f00c f9b0 	bl	80ad880 <_ZN6StringD1Ev>
          nMessagesToSend++;
 80a1520:	682a      	ldr	r2, [r5, #0]
        for (uint16_t j = 0; j < nLoops; j++)
 80a1522:	4b15      	ldr	r3, [pc, #84]	; (80a1578 <_Z21getFullSensorMessagesv+0x4d4>)
          nMessagesToSend++;
 80a1524:	3201      	adds	r2, #1
 80a1526:	602a      	str	r2, [r5, #0]
        for (uint16_t j = 0; j < nLoops; j++)
 80a1528:	f109 0901 	add.w	r9, r9, #1
 80a152c:	e7b5      	b.n	80a149a <_Z21getFullSensorMessagesv+0x3f6>
}
 80a152e:	4620      	mov	r0, r4
 80a1530:	b013      	add	sp, #76	; 0x4c
 80a1532:	e8bd 8ff0 	ldmia.w	sp!, {r4, r5, r6, r7, r8, r9, sl, fp, pc}
 80a1536:	bf00      	nop
 80a1538:	080b33ee 	.word	0x080b33ee
 80a153c:	20000637 	.word	0x20000637
 80a1540:	080b36b0 	.word	0x080b36b0
 80a1544:	080b3384 	.word	0x080b3384
 80a1548:	20000649 	.word	0x20000649
 80a154c:	080b3386 	.word	0x080b3386
 80a1550:	2000000e 	.word	0x2000000e
 80a1554:	080b338d 	.word	0x080b338d
 80a1558:	2000185e 	.word	0x2000185e
 80a155c:	200002a4 	.word	0x200002a4
 80a1560:	40024000 	.word	0x40024000
 80a1564:	40330000 	.word	0x40330000
 80a1568:	080b33f0 	.word	0x080b33f0
 80a156c:	080b33e6 	.word	0x080b33e6
 80a1570:	080b33f2 	.word	0x080b33f2
 80a1574:	080b33fd 	.word	0x080b33fd
 80a1578:	080b3401 	.word	0x080b3401

080a157c <_Z14IncrimentIndexv>:
  IncrimentIndex();
  OfflineReadingsSavedCount++;
}

void IncrimentIndex()
{
 80a157c:	e92d 41f0 	stmdb	sp!, {r4, r5, r6, r7, r8, lr}
  tempOfflineReadingsCount++;
  offlineIndexEnd++;
 80a1580:	4a22      	ldr	r2, [pc, #136]	; (80a160c <_Z14IncrimentIndexv+0x90>)
  tempOfflineReadingsCount++;
 80a1582:	4d23      	ldr	r5, [pc, #140]	; (80a1610 <_Z14IncrimentIndexv+0x94>)
  offlineIndexEnd++;
 80a1584:	f8b2 19ea 	ldrh.w	r1, [r2, #2538]	; 0x9ea
  tempOfflineReadingsCount++;
 80a1588:	8828      	ldrh	r0, [r5, #0]
  offlineIndexEnd++;
 80a158a:	3101      	adds	r1, #1
 80a158c:	b289      	uxth	r1, r1
  if (offlineIndexEnd >= nMaxReadings)
 80a158e:	f5b1 7ff9 	cmp.w	r1, #498	; 0x1f2
    offlineIndexEnd = 0;
 80a1592:	bf28      	it	cs
 80a1594:	2100      	movcs	r1, #0
 80a1596:	f8a2 19ea 	strh.w	r1, [r2, #2538]	; 0x9ea
  if (offlineIndexEnd == offlineIndexStart)
 80a159a:	f8b2 49e8 	ldrh.w	r4, [r2, #2536]	; 0x9e8
 80a159e:	f8b2 19ea 	ldrh.w	r1, [r2, #2538]	; 0x9ea
  tempOfflineReadingsCount++;
 80a15a2:	1c43      	adds	r3, r0, #1
 80a15a4:	b29b      	uxth	r3, r3
  if (offlineIndexEnd == offlineIndexStart)
 80a15a6:	42a1      	cmp	r1, r4
  tempOfflineReadingsCount++;
 80a15a8:	802b      	strh	r3, [r5, #0]
  if (offlineIndexEnd == offlineIndexStart)
 80a15aa:	d11c      	bne.n	80a15e6 <_Z14IncrimentIndexv+0x6a>
 80a15ac:	2600      	movs	r6, #0
        OfflineReadingsSavedCount--;
        break;
      }
      else
      {
        JSONCodeReading[newIndex] = null_index;
 80a15ae:	46b6      	mov	lr, r6
 80a15b0:	f5a0 70f8 	sub.w	r0, r0, #496	; 0x1f0
        offlineReadings1D[newIndex] = NAN;
 80a15b4:	f8df c05c 	ldr.w	ip, [pc, #92]	; 80a1614 <_Z14IncrimentIndexv+0x98>
 80a15b8:	3101      	adds	r1, #1
 80a15ba:	b280      	uxth	r0, r0
      if (newIndex >= nMaxReadings)
 80a15bc:	f5b1 7ff9 	cmp.w	r1, #498	; 0x1f2
        newIndex = newIndex - nMaxReadings;
 80a15c0:	bf34      	ite	cc
 80a15c2:	460c      	movcc	r4, r1
 80a15c4:	f5a1 74f9 	subcs.w	r4, r1, #498	; 0x1f2
      if (JSONCodeReading[newIndex] == Dh_Index)
 80a15c8:	1917      	adds	r7, r2, r4
 80a15ca:	f897 802d 	ldrb.w	r8, [r7, #45]	; 0x2d
 80a15ce:	f1b8 0f08 	cmp.w	r8, #8
 80a15d2:	d10a      	bne.n	80a15ea <_Z14IncrimentIndexv+0x6e>
 80a15d4:	b106      	cbz	r6, 80a15d8 <_Z14IncrimentIndexv+0x5c>
 80a15d6:	802b      	strh	r3, [r5, #0]
        OfflineReadingsSavedCount--;
 80a15d8:	f8b2 39ee 	ldrh.w	r3, [r2, #2542]	; 0x9ee
        offlineIndexStart = newIndex;
 80a15dc:	f8a2 49e8 	strh.w	r4, [r2, #2536]	; 0x9e8
        OfflineReadingsSavedCount--;
 80a15e0:	3b01      	subs	r3, #1
 80a15e2:	f8a2 39ee 	strh.w	r3, [r2, #2542]	; 0x9ee
      }
      tempOfflineReadingsCount--;
    }
  }
}
 80a15e6:	e8bd 81f0 	ldmia.w	sp!, {r4, r5, r6, r7, r8, pc}
      tempOfflineReadingsCount--;
 80a15ea:	3b01      	subs	r3, #1
 80a15ec:	b29b      	uxth	r3, r3
        offlineReadings1D[newIndex] = NAN;
 80a15ee:	eb02 0484 	add.w	r4, r2, r4, lsl #2
    for (size_t i = 1; i < nMaxReadings; i++)
 80a15f2:	4283      	cmp	r3, r0
 80a15f4:	f04f 0601 	mov.w	r6, #1
        JSONCodeReading[newIndex] = null_index;
 80a15f8:	f887 e02d 	strb.w	lr, [r7, #45]	; 0x2d
        offlineReadings1D[newIndex] = NAN;
 80a15fc:	f8c4 c220 	str.w	ip, [r4, #544]	; 0x220
    for (size_t i = 1; i < nMaxReadings; i++)
 80a1600:	f101 0101 	add.w	r1, r1, #1
 80a1604:	d1da      	bne.n	80a15bc <_Z14IncrimentIndexv+0x40>
 80a1606:	802b      	strh	r3, [r5, #0]
}
 80a1608:	e7ed      	b.n	80a15e6 <_Z14IncrimentIndexv+0x6a>
 80a160a:	bf00      	nop
 80a160c:	40024000 	.word	0x40024000
 80a1610:	2000185c 	.word	0x2000185c
 80a1614:	7fc00000 	.word	0x7fc00000

080a1618 <_Z14addOfflineDataPfPht>:
{
 80a1618:	e92d 41f0 	stmdb	sp!, {r4, r5, r6, r7, r8, lr}
  JSONCodeReading[offlineIndexEnd] = json[0]; // Dh code.
 80a161c:	4c24      	ldr	r4, [pc, #144]	; (80a16b0 <_Z14addOfflineDataPfPht+0x98>)
{
 80a161e:	460f      	mov	r7, r1
  JSONCodeReading[offlineIndexEnd] = json[0]; // Dh code.
 80a1620:	f8b4 39ea 	ldrh.w	r3, [r4, #2538]	; 0x9ea
 80a1624:	7809      	ldrb	r1, [r1, #0]
{
 80a1626:	4690      	mov	r8, r2
  JSONCodeReading[offlineIndexEnd] = json[0]; // Dh code.
 80a1628:	18e2      	adds	r2, r4, r3
 80a162a:	f882 102d 	strb.w	r1, [r2, #45]	; 0x2d
  offlineReadings1D[offlineIndexEnd] = data[0];
 80a162e:	6802      	ldr	r2, [r0, #0]
 80a1630:	eb04 0383 	add.w	r3, r4, r3, lsl #2
 80a1634:	f8c3 2220 	str.w	r2, [r3, #544]	; 0x220
{
 80a1638:	4606      	mov	r6, r0
  IncrimentIndex();
 80a163a:	2500      	movs	r5, #0
 80a163c:	f7ff ff9e 	bl	80a157c <_Z14IncrimentIndexv>
  for (uint16_t i = 1; i < readingsCount; i++)
 80a1640:	3501      	adds	r5, #1
 80a1642:	b2aa      	uxth	r2, r5
    JSONCodeReading[offlineIndexEnd] = json[i]; // new value.
 80a1644:	f8b4 39ea 	ldrh.w	r3, [r4, #2538]	; 0x9ea
  for (uint16_t i = 1; i < readingsCount; i++)
 80a1648:	4542      	cmp	r2, r8
 80a164a:	eb04 0203 	add.w	r2, r4, r3
 80a164e:	d20b      	bcs.n	80a1668 <_Z14addOfflineDataPfPht+0x50>
    JSONCodeReading[offlineIndexEnd] = json[i]; // new value.
 80a1650:	5d79      	ldrb	r1, [r7, r5]
    offlineReadings1D[offlineIndexEnd] = data[i];
 80a1652:	eb04 0383 	add.w	r3, r4, r3, lsl #2
    JSONCodeReading[offlineIndexEnd] = json[i]; // new value.
 80a1656:	f882 102d 	strb.w	r1, [r2, #45]	; 0x2d
    offlineReadings1D[offlineIndexEnd] = data[i];
 80a165a:	f856 2025 	ldr.w	r2, [r6, r5, lsl #2]
 80a165e:	f8c3 2220 	str.w	r2, [r3, #544]	; 0x220
    IncrimentIndex();
 80a1662:	f7ff ff8b 	bl	80a157c <_Z14IncrimentIndexv>
  for (uint16_t i = 1; i < readingsCount; i++)
 80a1666:	e7eb      	b.n	80a1640 <_Z14addOfflineDataPfPht+0x28>
  JSONCodeReading[offlineIndexEnd] = Yr_Index; // year code.
 80a1668:	2301      	movs	r3, #1
 80a166a:	f882 302d 	strb.w	r3, [r2, #45]	; 0x2d
  offlineReadings1D[offlineIndexEnd] = Time.year();
 80a166e:	f00c fdbf 	bl	80ae1f0 <_ZN9TimeClass4yearEv>
 80a1672:	f00f fc75 	bl	80b0f60 <__aeabi_i2f>
 80a1676:	f8b4 59ea 	ldrh.w	r5, [r4, #2538]	; 0x9ea
 80a167a:	eb04 0585 	add.w	r5, r4, r5, lsl #2
 80a167e:	f8c5 0220 	str.w	r0, [r5, #544]	; 0x220
  IncrimentIndex();
 80a1682:	f7ff ff7b 	bl	80a157c <_Z14IncrimentIndexv>
  JSONCodeReading[offlineIndexEnd] = Zo_Index; // zone code.
 80a1686:	2107      	movs	r1, #7
 80a1688:	f8b4 39ea 	ldrh.w	r3, [r4, #2538]	; 0x9ea
 80a168c:	18e2      	adds	r2, r4, r3
 80a168e:	f882 102d 	strb.w	r1, [r2, #45]	; 0x2d
  offlineReadings1D[offlineIndexEnd] = sensorsZome;
 80a1692:	4a08      	ldr	r2, [pc, #32]	; (80a16b4 <_Z14addOfflineDataPfPht+0x9c>)
 80a1694:	eb04 0383 	add.w	r3, r4, r3, lsl #2
 80a1698:	f8c3 2220 	str.w	r2, [r3, #544]	; 0x220
  IncrimentIndex();
 80a169c:	f7ff ff6e 	bl	80a157c <_Z14IncrimentIndexv>
  OfflineReadingsSavedCount++;
 80a16a0:	f8b4 39ee 	ldrh.w	r3, [r4, #2542]	; 0x9ee
 80a16a4:	3301      	adds	r3, #1
 80a16a6:	f8a4 39ee 	strh.w	r3, [r4, #2542]	; 0x9ee
}
 80a16aa:	e8bd 81f0 	ldmia.w	sp!, {r4, r5, r6, r7, r8, pc}
 80a16ae:	bf00      	nop
 80a16b0:	40024000 	.word	0x40024000
 80a16b4:	41200000 	.word	0x41200000

080a16b8 <_Z14trySaveOfflinev>:
{
 80a16b8:	e92d 4ff0 	stmdb	sp!, {r4, r5, r6, r7, r8, r9, sl, fp, lr}
 80a16bc:	b08b      	sub	sp, #44	; 0x2c
  if (isSensorLoop && haveSavedToLoRa && saveOffline && !haveSavedToCloudAndOffline)
 80a16be:	4bb8      	ldr	r3, [pc, #736]	; (80a19a0 <_Z14trySaveOfflinev+0x2e8>)
{
 80a16c0:	af04      	add	r7, sp, #16
  if (isSensorLoop && haveSavedToLoRa && saveOffline && !haveSavedToCloudAndOffline)
 80a16c2:	781b      	ldrb	r3, [r3, #0]
 80a16c4:	2b00      	cmp	r3, #0
 80a16c6:	f000 8207 	beq.w	80a1ad8 <_Z14trySaveOfflinev+0x420>
 80a16ca:	4bb6      	ldr	r3, [pc, #728]	; (80a19a4 <_Z14trySaveOfflinev+0x2ec>)
 80a16cc:	781b      	ldrb	r3, [r3, #0]
 80a16ce:	2b00      	cmp	r3, #0
 80a16d0:	f000 8202 	beq.w	80a1ad8 <_Z14trySaveOfflinev+0x420>
 80a16d4:	4bb4      	ldr	r3, [pc, #720]	; (80a19a8 <_Z14trySaveOfflinev+0x2f0>)
 80a16d6:	781b      	ldrb	r3, [r3, #0]
 80a16d8:	60fb      	str	r3, [r7, #12]
 80a16da:	2b00      	cmp	r3, #0
 80a16dc:	f000 81fc 	beq.w	80a1ad8 <_Z14trySaveOfflinev+0x420>
 80a16e0:	4bb2      	ldr	r3, [pc, #712]	; (80a19ac <_Z14trySaveOfflinev+0x2f4>)
 80a16e2:	781c      	ldrb	r4, [r3, #0]
 80a16e4:	2c00      	cmp	r4, #0
 80a16e6:	f040 81f7 	bne.w	80a1ad8 <_Z14trySaveOfflinev+0x420>
    uint16_t LoRaPIR1loops = ceil(LoRaPIR1Count * 1.0 / maxPIRCountPerMessage * 1.0);
 80a16ea:	4db1      	ldr	r5, [pc, #708]	; (80a19b0 <_Z14trySaveOfflinev+0x2f8>)
 80a16ec:	8aa8      	ldrh	r0, [r5, #20]
 80a16ee:	f00e ffcb 	bl	80b0688 <__aeabi_i2d>
 80a16f2:	2200      	movs	r2, #0
 80a16f4:	4baf      	ldr	r3, [pc, #700]	; (80a19b4 <_Z14trySaveOfflinev+0x2fc>)
 80a16f6:	f00f f95b 	bl	80b09b0 <__aeabi_ddiv>
 80a16fa:	f00d fa51 	bl	80aeba0 <ceil>
 80a16fe:	f00f fb05 	bl	80b0d0c <__aeabi_d2uiz>
 80a1702:	fa1f f880 	uxth.w	r8, r0
    uint16_t LoRaPIR2loops = ceil(LoRaPIR2Count * 1.0 / maxPIRCountPerMessage * 1.0);
 80a1706:	8c28      	ldrh	r0, [r5, #32]
 80a1708:	f00e ffbe 	bl	80b0688 <__aeabi_i2d>
 80a170c:	2200      	movs	r2, #0
 80a170e:	4ba9      	ldr	r3, [pc, #676]	; (80a19b4 <_Z14trySaveOfflinev+0x2fc>)
 80a1710:	f00f f94e 	bl	80b09b0 <__aeabi_ddiv>
 80a1714:	f00d fa44 	bl	80aeba0 <ceil>
    Log.info("Messages to send: %d offline, %d PIR1, %d PIR2, %d current = %d total.", OfflineReadingsSavedCount, LoRaPIR1loops, LoRaPIR2loops, 1, nMessagesToSend); // magic number 1 is current reading.
 80a1718:	4ba7      	ldr	r3, [pc, #668]	; (80a19b8 <_Z14trySaveOfflinev+0x300>)
 80a171a:	f8b5 69ee 	ldrh.w	r6, [r5, #2542]	; 0x9ee
 80a171e:	681b      	ldr	r3, [r3, #0]
 80a1720:	9302      	str	r3, [sp, #8]
 80a1722:	2301      	movs	r3, #1
 80a1724:	9301      	str	r3, [sp, #4]
    uint16_t LoRaPIR2loops = ceil(LoRaPIR2Count * 1.0 / maxPIRCountPerMessage * 1.0);
 80a1726:	f00f faf1 	bl	80b0d0c <__aeabi_d2uiz>
    Log.info("Messages to send: %d offline, %d PIR1, %d PIR2, %d current = %d total.", OfflineReadingsSavedCount, LoRaPIR1loops, LoRaPIR2loops, 1, nMessagesToSend); // magic number 1 is current reading.
 80a172a:	b280      	uxth	r0, r0
 80a172c:	4643      	mov	r3, r8
 80a172e:	4632      	mov	r2, r6
 80a1730:	9000      	str	r0, [sp, #0]
 80a1732:	49a2      	ldr	r1, [pc, #648]	; (80a19bc <_Z14trySaveOfflinev+0x304>)
 80a1734:	48a2      	ldr	r0, [pc, #648]	; (80a19c0 <_Z14trySaveOfflinev+0x308>)
 80a1736:	f7fe fee7 	bl	80a0508 <_ZNK5spark6Logger4infoEPKcz>
    uint16_t latestReadingIndex = OfflineReadingsSavedCount;
 80a173a:	f8b5 69ee 	ldrh.w	r6, [r5, #2542]	; 0x9ee
    uint16_t PIR1IndexStart = OfflineReadingsSavedCount + 1;                 // magic number 1 is current reading.
 80a173e:	f106 0901 	add.w	r9, r6, #1
 80a1742:	fa1f f989 	uxth.w	r9, r9
    uint16_t PIR2IndexStart = OfflineReadingsSavedCount + 1 + LoRaPIR1loops; // magic number 1 is current reading.
 80a1746:	44c8      	add	r8, r9
 80a1748:	fa1f f388 	uxth.w	r3, r8
 80a174c:	617b      	str	r3, [r7, #20]
    if (OfflineReadingsSavedCount > 0)
 80a174e:	2e00      	cmp	r6, #0
 80a1750:	d069      	beq.n	80a1826 <_Z14trySaveOfflinev+0x16e>
      tempOfflineReadingsCount = 0;
 80a1752:	4b9c      	ldr	r3, [pc, #624]	; (80a19c4 <_Z14trySaveOfflinev+0x30c>)
      currentReadIndex = offlineIndexStart;
 80a1754:	f8b5 89e8 	ldrh.w	r8, [r5, #2536]	; 0x9e8
      tempOfflineReadingsCount = 0;
 80a1758:	801c      	strh	r4, [r3, #0]
      currentReadIndex = offlineIndexStart;
 80a175a:	4b9b      	ldr	r3, [pc, #620]	; (80a19c8 <_Z14trySaveOfflinev+0x310>)
 80a175c:	4642      	mov	r2, r8
 80a175e:	60bb      	str	r3, [r7, #8]
 80a1760:	4b9a      	ldr	r3, [pc, #616]	; (80a19cc <_Z14trySaveOfflinev+0x314>)
 80a1762:	46a3      	mov	fp, r4
 80a1764:	607b      	str	r3, [r7, #4]
      uint16_t offRemaining = 0; //! haveSentArray[OfflineReadingsSavedCount];
 80a1766:	4621      	mov	r1, r4
      uint16_t oldReadIndex = offlineIndexStart;
 80a1768:	4643      	mov	r3, r8
      for (size_t i = 0; i < OfflineReadingsSavedCount; i++)
 80a176a:	46a2      	mov	sl, r4
      currentReadIndex = offlineIndexStart;
 80a176c:	f8a5 89ec 	strh.w	r8, [r5, #2540]	; 0x9ec
        if (!haveSentArray[i])
 80a1770:	f8d7 c008 	ldr.w	ip, [r7, #8]
 80a1774:	f81c 0b01 	ldrb.w	r0, [ip], #1
 80a1778:	f8c7 c008 	str.w	ip, [r7, #8]
          oldReadIndex += tempSentReadingsLength[i];
 80a177c:	f8d7 c004 	ldr.w	ip, [r7, #4]
 80a1780:	f83c eb02 	ldrh.w	lr, [ip], #2
 80a1784:	f8c7 e010 	str.w	lr, [r7, #16]
 80a1788:	f8c7 c004 	str.w	ip, [r7, #4]
        if (!haveSentArray[i])
 80a178c:	2800      	cmp	r0, #0
 80a178e:	f040 8096 	bne.w	80a18be <_Z14trySaveOfflinev+0x206>
          for (size_t j = 0; j < tempSentReadingsLength[i]; j++)
 80a1792:	f8d7 c010 	ldr.w	ip, [r7, #16]
 80a1796:	4584      	cmp	ip, r0
 80a1798:	d92c      	bls.n	80a17f4 <_Z14trySaveOfflinev+0x13c>
            offlineReadings1D[currentReadIndex] = offlineReadings1D[oldReadIndex];
 80a179a:	eb05 0483 	add.w	r4, r5, r3, lsl #2
 80a179e:	f8d4 c220 	ldr.w	ip, [r4, #544]	; 0x220
 80a17a2:	eb05 0482 	add.w	r4, r5, r2, lsl #2
            currentReadIndex++;
 80a17a6:	f102 0e01 	add.w	lr, r2, #1
            offlineReadings1D[currentReadIndex] = offlineReadings1D[oldReadIndex];
 80a17aa:	f8c4 c220 	str.w	ip, [r4, #544]	; 0x220
            JSONCodeReading[currentReadIndex] = JSONCodeReading[oldReadIndex];
 80a17ae:	18ec      	adds	r4, r5, r3
 80a17b0:	f894 c02d 	ldrb.w	ip, [r4, #45]	; 0x2d
            currentReadIndex++;
 80a17b4:	fa1f fe8e 	uxth.w	lr, lr
            JSONCodeReading[currentReadIndex] = JSONCodeReading[oldReadIndex];
 80a17b8:	18ac      	adds	r4, r5, r2
            if (currentReadIndex >= nMaxReadings)
 80a17ba:	f5be 7ff9 	cmp.w	lr, #498	; 0x1f2
            JSONCodeReading[currentReadIndex] = JSONCodeReading[oldReadIndex];
 80a17be:	f884 c02d 	strb.w	ip, [r4, #45]	; 0x2d
              currentReadIndex = currentReadIndex - nMaxReadings;
 80a17c2:	bf28      	it	cs
 80a17c4:	f46f 74f8 	mvncs.w	r4, #496	; 0x1f0
            oldReadIndex++;
 80a17c8:	f103 0c01 	add.w	ip, r3, #1
              currentReadIndex = currentReadIndex - nMaxReadings;
 80a17cc:	bf28      	it	cs
 80a17ce:	1912      	addcs	r2, r2, r4
            oldReadIndex++;
 80a17d0:	fa1f fc8c 	uxth.w	ip, ip
              currentReadIndex = currentReadIndex - nMaxReadings;
 80a17d4:	bf28      	it	cs
 80a17d6:	fa1f fe82 	uxthcs.w	lr, r2
            if (oldReadIndex >= nMaxReadings)
 80a17da:	f5bc 7ff9 	cmp.w	ip, #498	; 0x1f2
              oldReadIndex = oldReadIndex - nMaxReadings;
 80a17de:	bf22      	ittt	cs
 80a17e0:	f46f 72f8 	mvncs.w	r2, #496	; 0x1f0
 80a17e4:	189b      	addcs	r3, r3, r2
 80a17e6:	fa1f fc83 	uxthcs.w	ip, r3
          for (size_t j = 0; j < tempSentReadingsLength[i]; j++)
 80a17ea:	4672      	mov	r2, lr
 80a17ec:	4663      	mov	r3, ip
 80a17ee:	68fc      	ldr	r4, [r7, #12]
 80a17f0:	3001      	adds	r0, #1
 80a17f2:	e7ce      	b.n	80a1792 <_Z14trySaveOfflinev+0xda>
 80a17f4:	6938      	ldr	r0, [r7, #16]
          offRemaining++;
 80a17f6:	3101      	adds	r1, #1
 80a17f8:	4483      	add	fp, r0
 80a17fa:	fa1f fb8b 	uxth.w	fp, fp
 80a17fe:	b289      	uxth	r1, r1
      for (size_t i = 0; i < OfflineReadingsSavedCount; i++)
 80a1800:	f10a 0a01 	add.w	sl, sl, #1
 80a1804:	4556      	cmp	r6, sl
 80a1806:	d8b3      	bhi.n	80a1770 <_Z14trySaveOfflinev+0xb8>
 80a1808:	4b69      	ldr	r3, [pc, #420]	; (80a19b0 <_Z14trySaveOfflinev+0x2f8>)
 80a180a:	b124      	cbz	r4, 80a1816 <_Z14trySaveOfflinev+0x15e>
 80a180c:	f8a3 29ec 	strh.w	r2, [r3, #2540]	; 0x9ec
 80a1810:	4a6c      	ldr	r2, [pc, #432]	; (80a19c4 <_Z14trySaveOfflinev+0x30c>)
 80a1812:	f8a2 b000 	strh.w	fp, [r2]
      offlineIndexEnd = currentReadIndex;
 80a1816:	f8b3 29ec 	ldrh.w	r2, [r3, #2540]	; 0x9ec
      OfflineReadingsSavedCount = offRemaining;
 80a181a:	f8a3 19ee 	strh.w	r1, [r3, #2542]	; 0x9ee
      offlineIndexEnd = currentReadIndex;
 80a181e:	f8a3 29ea 	strh.w	r2, [r3, #2538]	; 0x9ea
      currentReadIndex = offlineIndexStart;
 80a1822:	f8a3 89ec 	strh.w	r8, [r3, #2540]	; 0x9ec
    if (!haveSentArray[latestReadingIndex])
 80a1826:	4b68      	ldr	r3, [pc, #416]	; (80a19c8 <_Z14trySaveOfflinev+0x310>)
 80a1828:	4c61      	ldr	r4, [pc, #388]	; (80a19b0 <_Z14trySaveOfflinev+0x2f8>)
 80a182a:	5d9b      	ldrb	r3, [r3, r6]
 80a182c:	2b00      	cmp	r3, #0
 80a182e:	d150      	bne.n	80a18d2 <_Z14trySaveOfflinev+0x21a>
      addOfflineData(currentReadings, currentReadingsJsonCode, tempSentReadingsLength[latestReadingIndex]);
 80a1830:	4b66      	ldr	r3, [pc, #408]	; (80a19cc <_Z14trySaveOfflinev+0x314>)
 80a1832:	4967      	ldr	r1, [pc, #412]	; (80a19d0 <_Z14trySaveOfflinev+0x318>)
 80a1834:	f833 2016 	ldrh.w	r2, [r3, r6, lsl #1]
 80a1838:	4866      	ldr	r0, [pc, #408]	; (80a19d4 <_Z14trySaveOfflinev+0x31c>)
 80a183a:	f7ff feed 	bl	80a1618 <_Z14addOfflineDataPfPht>
      currentReadIndex = offlineIndexStart;
 80a183e:	f8b4 39e8 	ldrh.w	r3, [r4, #2536]	; 0x9e8
 80a1842:	f8a4 39ec 	strh.w	r3, [r4, #2540]	; 0x9ec
    if (LoRaPIR1Count > 0)
 80a1846:	8aa3      	ldrh	r3, [r4, #20]
 80a1848:	2b00      	cmp	r3, #0
 80a184a:	d066      	beq.n	80a191a <_Z14trySaveOfflinev+0x262>
      Log.info("\tSent PIR readings.");
 80a184c:	4962      	ldr	r1, [pc, #392]	; (80a19d8 <_Z14trySaveOfflinev+0x320>)
 80a184e:	485c      	ldr	r0, [pc, #368]	; (80a19c0 <_Z14trySaveOfflinev+0x308>)
 80a1850:	f7fe fe5a 	bl	80a0508 <_ZNK5spark6Logger4infoEPKcz>
      if (LoRaPIR1Count > PIR1Size)
 80a1854:	8aa3      	ldrh	r3, [r4, #20]
      if (nLoops != PIR2IndexStart - PIR1IndexStart)
 80a1856:	46c8      	mov	r8, r9
      if (LoRaPIR1Count > PIR1Size)
 80a1858:	2b01      	cmp	r3, #1
        LoRaPIR1Count = PIR1Size;
 80a185a:	bf84      	itt	hi
 80a185c:	2301      	movhi	r3, #1
 80a185e:	82a3      	strhhi	r3, [r4, #20]
      uint16_t finalLoopLength = LoRaPIR1Count % nPerLoop;
 80a1860:	2313      	movs	r3, #19
 80a1862:	8aa0      	ldrh	r0, [r4, #20]
 80a1864:	fbb0 f6f3 	udiv	r6, r0, r3
 80a1868:	fb03 0616 	mls	r6, r3, r6, r0
 80a186c:	b2b6      	uxth	r6, r6
        finalLoopLength = nPerLoop;
 80a186e:	2e00      	cmp	r6, #0
 80a1870:	bf08      	it	eq
 80a1872:	461e      	moveq	r6, r3
      nLoops = ceil(LoRaPIR1Count * 1.0 / nPerLoop * 1.0);
 80a1874:	f00e ff08 	bl	80b0688 <__aeabi_i2d>
 80a1878:	4b4e      	ldr	r3, [pc, #312]	; (80a19b4 <_Z14trySaveOfflinev+0x2fc>)
 80a187a:	2200      	movs	r2, #0
 80a187c:	f00f f898 	bl	80b09b0 <__aeabi_ddiv>
 80a1880:	f00d f98e 	bl	80aeba0 <ceil>
 80a1884:	f00f fa42 	bl	80b0d0c <__aeabi_d2uiz>
      if (nLoops != PIR2IndexStart - PIR1IndexStart)
 80a1888:	697b      	ldr	r3, [r7, #20]
 80a188a:	b280      	uxth	r0, r0
 80a188c:	eba3 0309 	sub.w	r3, r3, r9
 80a1890:	4298      	cmp	r0, r3
 80a1892:	d003      	beq.n	80a189c <_Z14trySaveOfflinev+0x1e4>
        Log.info("Error! nloops and sent dont match!");
 80a1894:	4951      	ldr	r1, [pc, #324]	; (80a19dc <_Z14trySaveOfflinev+0x324>)
 80a1896:	484a      	ldr	r0, [pc, #296]	; (80a19c0 <_Z14trySaveOfflinev+0x308>)
 80a1898:	f7fe fe36 	bl	80a0508 <_ZNK5spark6Logger4infoEPKcz>
          if (i == (PIR2IndexStart - 1))
 80a189c:	697b      	ldr	r3, [r7, #20]
      int offRemaining = LoRaPIR1Count; //! haveSentArray[OfflineReadingsSavedCount];
 80a189e:	8aa2      	ldrh	r2, [r4, #20]
          if (i == (PIR2IndexStart - 1))
 80a18a0:	3b01      	subs	r3, #1
      for (int i = PIR1IndexStart; i < PIR2IndexStart; i++)
 80a18a2:	6979      	ldr	r1, [r7, #20]
 80a18a4:	4549      	cmp	r1, r9
 80a18a6:	dd19      	ble.n	80a18dc <_Z14trySaveOfflinev+0x224>
        if (haveSentArray[i])
 80a18a8:	4947      	ldr	r1, [pc, #284]	; (80a19c8 <_Z14trySaveOfflinev+0x310>)
 80a18aa:	f811 1009 	ldrb.w	r1, [r1, r9]
 80a18ae:	b119      	cbz	r1, 80a18b8 <_Z14trySaveOfflinev+0x200>
          if (i == (PIR2IndexStart - 1))
 80a18b0:	4599      	cmp	r9, r3
            offRemaining = offRemaining - finalLoopLength;
 80a18b2:	bf0c      	ite	eq
 80a18b4:	1b92      	subeq	r2, r2, r6
            offRemaining = offRemaining - nPerLoop;
 80a18b6:	3a13      	subne	r2, #19
      for (int i = PIR1IndexStart; i < PIR2IndexStart; i++)
 80a18b8:	f109 0901 	add.w	r9, r9, #1
 80a18bc:	e7f1      	b.n	80a18a2 <_Z14trySaveOfflinev+0x1ea>
          oldReadIndex += tempSentReadingsLength[i];
 80a18be:	6938      	ldr	r0, [r7, #16]
 80a18c0:	4403      	add	r3, r0
 80a18c2:	b29b      	uxth	r3, r3
          if (oldReadIndex >= nMaxReadings)
 80a18c4:	f5b3 7ff9 	cmp.w	r3, #498	; 0x1f2
            oldReadIndex = oldReadIndex - nMaxReadings;
 80a18c8:	bf24      	itt	cs
 80a18ca:	f5a3 73f9 	subcs.w	r3, r3, #498	; 0x1f2
 80a18ce:	b29b      	uxthcs	r3, r3
 80a18d0:	e796      	b.n	80a1800 <_Z14trySaveOfflinev+0x148>
      Log.info("\tSent latest reading.");
 80a18d2:	4943      	ldr	r1, [pc, #268]	; (80a19e0 <_Z14trySaveOfflinev+0x328>)
 80a18d4:	483a      	ldr	r0, [pc, #232]	; (80a19c0 <_Z14trySaveOfflinev+0x308>)
 80a18d6:	f7fe fe17 	bl	80a0508 <_ZNK5spark6Logger4infoEPKcz>
 80a18da:	e7b4      	b.n	80a1846 <_Z14trySaveOfflinev+0x18e>
      if (offRemaining > 0)
 80a18dc:	2a00      	cmp	r2, #0
 80a18de:	dd1b      	ble.n	80a1918 <_Z14trySaveOfflinev+0x260>
        float tempPIR[offRemaining];
 80a18e0:	0093      	lsls	r3, r2, #2
 80a18e2:	3307      	adds	r3, #7
 80a18e4:	f023 0307 	bic.w	r3, r3, #7
        }
 80a18e8:	46e9      	mov	r9, sp
        float tempPIR[offRemaining];
 80a18ea:	ebad 0d03 	sub.w	sp, sp, r3
        int index = (nPIR1 == 0) ? PIR1Size - 1 : nPIR1 - 1;
 80a18ee:	89a3      	ldrh	r3, [r4, #12]
        float tempPIR[offRemaining];
 80a18f0:	f10d 0e10 	add.w	lr, sp, #16
        int index = (nPIR1 == 0) ? PIR1Size - 1 : nPIR1 - 1;
 80a18f4:	b103      	cbz	r3, 80a18f8 <_Z14trySaveOfflinev+0x240>
 80a18f6:	3b01      	subs	r3, #1
 80a18f8:	f04f 0c00 	mov.w	ip, #0
          int amountInLoop = (i == PIR2IndexStart - 1) ? finalLoopLength : nPerLoop;
 80a18fc:	6979      	ldr	r1, [r7, #20]
 80a18fe:	3901      	subs	r1, #1
 80a1900:	6139      	str	r1, [r7, #16]
        for (int i = PIR1IndexStart; i < PIR2IndexStart; i++)
 80a1902:	6979      	ldr	r1, [r7, #20]
 80a1904:	4541      	cmp	r1, r8
 80a1906:	dc71      	bgt.n	80a19ec <_Z14trySaveOfflinev+0x334>
          PIR1[i] = tempPIR[i];
 80a1908:	f8de 3000 	ldr.w	r3, [lr]
 80a190c:	6123      	str	r3, [r4, #16]
          nPIR1 = 0;
 80a190e:	2300      	movs	r3, #0
 80a1910:	81a3      	strh	r3, [r4, #12]
          LoopedPIR1 = true;
 80a1912:	2301      	movs	r3, #1
 80a1914:	75a3      	strb	r3, [r4, #22]
 80a1916:	46cd      	mov	sp, r9
      LoRaPIR1Count = offRemaining;
 80a1918:	82a2      	strh	r2, [r4, #20]
    if (LoRaPIR2Count > 0)
 80a191a:	8c23      	ldrh	r3, [r4, #32]
 80a191c:	2b00      	cmp	r3, #0
 80a191e:	f000 80aa 	beq.w	80a1a76 <_Z14trySaveOfflinev+0x3be>
      Log.info("\tSent PIR2 readings.");
 80a1922:	4930      	ldr	r1, [pc, #192]	; (80a19e4 <_Z14trySaveOfflinev+0x32c>)
 80a1924:	4826      	ldr	r0, [pc, #152]	; (80a19c0 <_Z14trySaveOfflinev+0x308>)
 80a1926:	f7fe fdef 	bl	80a0508 <_ZNK5spark6Logger4infoEPKcz>
      if (LoRaPIR2Count > PIR2Size)
 80a192a:	8c23      	ldrh	r3, [r4, #32]
      if (nLoops != nMessagesToSend - PIR2IndexStart)
 80a192c:	f8df a088 	ldr.w	sl, [pc, #136]	; 80a19b8 <_Z14trySaveOfflinev+0x300>
      if (LoRaPIR2Count > PIR2Size)
 80a1930:	2b01      	cmp	r3, #1
        LoRaPIR2Count = PIR2Size;
 80a1932:	bf84      	itt	hi
 80a1934:	2301      	movhi	r3, #1
 80a1936:	8423      	strhhi	r3, [r4, #32]
      uint16_t finalLoopLength = LoRaPIR2Count % nPerLoop;
 80a1938:	2313      	movs	r3, #19
 80a193a:	8c20      	ldrh	r0, [r4, #32]
 80a193c:	fbb0 f6f3 	udiv	r6, r0, r3
 80a1940:	fb03 0616 	mls	r6, r3, r6, r0
 80a1944:	b2b6      	uxth	r6, r6
        finalLoopLength = nPerLoop;
 80a1946:	2e00      	cmp	r6, #0
 80a1948:	bf08      	it	eq
 80a194a:	461e      	moveq	r6, r3
      nLoops = ceil(LoRaPIR2Count * 1.0 / nPerLoop * 1.0);
 80a194c:	f00e fe9c 	bl	80b0688 <__aeabi_i2d>
 80a1950:	2200      	movs	r2, #0
 80a1952:	4b18      	ldr	r3, [pc, #96]	; (80a19b4 <_Z14trySaveOfflinev+0x2fc>)
 80a1954:	f00f f82c 	bl	80b09b0 <__aeabi_ddiv>
 80a1958:	f00d f922 	bl	80aeba0 <ceil>
      if (nLoops != nMessagesToSend - PIR2IndexStart)
 80a195c:	f8d7 9014 	ldr.w	r9, [r7, #20]
      nLoops = ceil(LoRaPIR2Count * 1.0 / nPerLoop * 1.0);
 80a1960:	f00f f9d4 	bl	80b0d0c <__aeabi_d2uiz>
      if (nLoops != nMessagesToSend - PIR2IndexStart)
 80a1964:	464a      	mov	r2, r9
 80a1966:	f8da 3000 	ldr.w	r3, [sl]
 80a196a:	b280      	uxth	r0, r0
 80a196c:	1a9b      	subs	r3, r3, r2
 80a196e:	4298      	cmp	r0, r3
 80a1970:	d003      	beq.n	80a197a <_Z14trySaveOfflinev+0x2c2>
        Log.info("Error! PIR2 nloops and sent dont match!");
 80a1972:	491d      	ldr	r1, [pc, #116]	; (80a19e8 <_Z14trySaveOfflinev+0x330>)
 80a1974:	4812      	ldr	r0, [pc, #72]	; (80a19c0 <_Z14trySaveOfflinev+0x308>)
 80a1976:	f7fe fdc7 	bl	80a0508 <_ZNK5spark6Logger4infoEPKcz>
      for (int i = PIR2IndexStart; i < nMessagesToSend; i++)
 80a197a:	f8da 1000 	ldr.w	r1, [sl]
      int offRemaining = LoRaPIR2Count; //! haveSentArray[OfflineReadingsSavedCount];
 80a197e:	f8b4 8020 	ldrh.w	r8, [r4, #32]
      for (int i = PIR2IndexStart; i < nMessagesToSend; i++)
 80a1982:	6978      	ldr	r0, [r7, #20]
          if (i == (nMessagesToSend - 1))
 80a1984:	1e4b      	subs	r3, r1, #1
      for (int i = PIR2IndexStart; i < nMessagesToSend; i++)
 80a1986:	4281      	cmp	r1, r0
 80a1988:	dd52      	ble.n	80a1a30 <_Z14trySaveOfflinev+0x378>
        if (haveSentArray[i])
 80a198a:	4a0f      	ldr	r2, [pc, #60]	; (80a19c8 <_Z14trySaveOfflinev+0x310>)
 80a198c:	5c12      	ldrb	r2, [r2, r0]
 80a198e:	b12a      	cbz	r2, 80a199c <_Z14trySaveOfflinev+0x2e4>
          if (i == (nMessagesToSend - 1))
 80a1990:	4298      	cmp	r0, r3
            offRemaining = offRemaining - finalLoopLength;
 80a1992:	bf0c      	ite	eq
 80a1994:	eba8 0806 	subeq.w	r8, r8, r6
            offRemaining = offRemaining - nPerLoop;
 80a1998:	f1a8 0813 	subne.w	r8, r8, #19
      for (int i = PIR2IndexStart; i < nMessagesToSend; i++)
 80a199c:	3001      	adds	r0, #1
 80a199e:	e7f2      	b.n	80a1986 <_Z14trySaveOfflinev+0x2ce>
 80a19a0:	200004ac 	.word	0x200004ac
 80a19a4:	200002a8 	.word	0x200002a8
 80a19a8:	20000604 	.word	0x20000604
 80a19ac:	200002a7 	.word	0x200002a7
 80a19b0:	40024000 	.word	0x40024000
 80a19b4:	40330000 	.word	0x40330000
 80a19b8:	200004d4 	.word	0x200004d4
 80a19bc:	080b340b 	.word	0x080b340b
 80a19c0:	20001c94 	.word	0x20001c94
 80a19c4:	2000185c 	.word	0x2000185c
 80a19c8:	200002a9 	.word	0x200002a9
 80a19cc:	2000185e 	.word	0x2000185e
 80a19d0:	20000270 	.word	0x20000270
 80a19d4:	200001c0 	.word	0x200001c0
 80a19d8:	080b3468 	.word	0x080b3468
 80a19dc:	080b347c 	.word	0x080b347c
 80a19e0:	080b3452 	.word	0x080b3452
 80a19e4:	080b349f 	.word	0x080b349f
 80a19e8:	080b34b4 	.word	0x080b34b4
          int amountInLoop = (i == PIR2IndexStart - 1) ? finalLoopLength : nPerLoop;
 80a19ec:	6939      	ldr	r1, [r7, #16]
 80a19ee:	4588      	cmp	r8, r1
 80a19f0:	bf0c      	ite	eq
 80a19f2:	4630      	moveq	r0, r6
 80a19f4:	2013      	movne	r0, #19
          if (!haveSentArray[i])
 80a19f6:	4951      	ldr	r1, [pc, #324]	; (80a1b3c <_Z14trySaveOfflinev+0x484>)
 80a19f8:	f811 1008 	ldrb.w	r1, [r1, r8]
 80a19fc:	b9a1      	cbnz	r1, 80a1a28 <_Z14trySaveOfflinev+0x370>
 80a19fe:	eb0e 0b8c 	add.w	fp, lr, ip, lsl #2
              tempPIR[count] = PIR1[index];
 80a1a02:	f8df a13c 	ldr.w	sl, [pc, #316]	; 80a1b40 <_Z14trySaveOfflinev+0x488>
            for (int j = 0; j < amountInLoop; j++)
 80a1a06:	3101      	adds	r1, #1
              tempPIR[count] = PIR1[index];
 80a1a08:	eb0a 0a83 	add.w	sl, sl, r3, lsl #2
 80a1a0c:	f8da a010 	ldr.w	sl, [sl, #16]
 80a1a10:	f84b ab04 	str.w	sl, [fp], #4
              if (index < 0)
 80a1a14:	f1b3 0a01 	subs.w	sl, r3, #1
 80a1a18:	bf58      	it	pl
 80a1a1a:	4653      	movpl	r3, sl
            for (int j = 0; j < amountInLoop; j++)
 80a1a1c:	4288      	cmp	r0, r1
 80a1a1e:	dcf0      	bgt.n	80a1a02 <_Z14trySaveOfflinev+0x34a>
              count++;
 80a1a20:	4484      	add	ip, r0
        for (int i = PIR1IndexStart; i < PIR2IndexStart; i++)
 80a1a22:	f108 0801 	add.w	r8, r8, #1
 80a1a26:	e76c      	b.n	80a1902 <_Z14trySaveOfflinev+0x24a>
            if (index < 0)
 80a1a28:	1a1b      	subs	r3, r3, r0
              index = index + PIR1Size;
 80a1a2a:	bf48      	it	mi
 80a1a2c:	3301      	addmi	r3, #1
 80a1a2e:	e7f8      	b.n	80a1a22 <_Z14trySaveOfflinev+0x36a>
      if (offRemaining > 0)
 80a1a30:	f1b8 0f00 	cmp.w	r8, #0
 80a1a34:	dd7c      	ble.n	80a1b30 <_Z14trySaveOfflinev+0x478>
        float tempPIR[offRemaining];
 80a1a36:	ea4f 0388 	mov.w	r3, r8, lsl #2
 80a1a3a:	3307      	adds	r3, #7
 80a1a3c:	f023 0307 	bic.w	r3, r3, #7
        }
 80a1a40:	f8c7 d010 	str.w	sp, [r7, #16]
        float tempPIR[offRemaining];
 80a1a44:	ebad 0d03 	sub.w	sp, sp, r3
        int index = (nPIR2 == 0) ? PIR2Size - 1 : nPIR2 - 1;
 80a1a48:	8b23      	ldrh	r3, [r4, #24]
        float tempPIR[offRemaining];
 80a1a4a:	f10d 0e10 	add.w	lr, sp, #16
        int index = (nPIR2 == 0) ? PIR2Size - 1 : nPIR2 - 1;
 80a1a4e:	b103      	cbz	r3, 80a1a52 <_Z14trySaveOfflinev+0x39a>
 80a1a50:	3b01      	subs	r3, #1
 80a1a52:	f04f 0c00 	mov.w	ip, #0
          int amountInLoop = (i == nMessagesToSend - 1) ? finalLoopLength : nPerLoop;
 80a1a56:	1e4a      	subs	r2, r1, #1
 80a1a58:	60fa      	str	r2, [r7, #12]
        for (int i = PIR2IndexStart; i < nMessagesToSend; i++)
 80a1a5a:	4549      	cmp	r1, r9
 80a1a5c:	dc40      	bgt.n	80a1ae0 <_Z14trySaveOfflinev+0x428>
          PIR2[i] = tempPIR[i];
 80a1a5e:	f8de 3000 	ldr.w	r3, [lr]
 80a1a62:	61e3      	str	r3, [r4, #28]
          nPIR2 = 0;
 80a1a64:	2300      	movs	r3, #0
 80a1a66:	8323      	strh	r3, [r4, #24]
          LoopedPIR2 = true;
 80a1a68:	2301      	movs	r3, #1
 80a1a6a:	f884 3022 	strb.w	r3, [r4, #34]	; 0x22
 80a1a6e:	f8d7 d010 	ldr.w	sp, [r7, #16]
      LoRaPIR2Count = offRemaining;
 80a1a72:	f8a4 8020 	strh.w	r8, [r4, #32]
    printOfflineReadings();
 80a1a76:	f7ff f92b 	bl	80a0cd0 <_Z20printOfflineReadingsv>
    Log.info("Successful! - Stored latest sensor readings offline.");
 80a1a7a:	4932      	ldr	r1, [pc, #200]	; (80a1b44 <_Z14trySaveOfflinev+0x48c>)
 80a1a7c:	4832      	ldr	r0, [pc, #200]	; (80a1b48 <_Z14trySaveOfflinev+0x490>)
 80a1a7e:	f7fe fd43 	bl	80a0508 <_ZNK5spark6Logger4infoEPKcz>
    Log.info("Offline count is now:      %d", OfflineReadingsSavedCount);
 80a1a82:	f8b5 29ee 	ldrh.w	r2, [r5, #2542]	; 0x9ee
 80a1a86:	4931      	ldr	r1, [pc, #196]	; (80a1b4c <_Z14trySaveOfflinev+0x494>)
 80a1a88:	482f      	ldr	r0, [pc, #188]	; (80a1b48 <_Z14trySaveOfflinev+0x490>)
 80a1a8a:	f7fe fd3d 	bl	80a0508 <_ZNK5spark6Logger4infoEPKcz>
    Log.info("LoRa PIR2 count is now:    %d", LoRaPIR1Count);
 80a1a8e:	8aaa      	ldrh	r2, [r5, #20]
 80a1a90:	492f      	ldr	r1, [pc, #188]	; (80a1b50 <_Z14trySaveOfflinev+0x498>)
 80a1a92:	482d      	ldr	r0, [pc, #180]	; (80a1b48 <_Z14trySaveOfflinev+0x490>)
 80a1a94:	f7fe fd38 	bl	80a0508 <_ZNK5spark6Logger4infoEPKcz>
    Log.info("LoRa PIR2 count is now:    %d", LoRaPIR2Count);
 80a1a98:	8c2a      	ldrh	r2, [r5, #32]
 80a1a9a:	492d      	ldr	r1, [pc, #180]	; (80a1b50 <_Z14trySaveOfflinev+0x498>)
 80a1a9c:	482a      	ldr	r0, [pc, #168]	; (80a1b48 <_Z14trySaveOfflinev+0x490>)
 80a1a9e:	f7fe fd33 	bl	80a0508 <_ZNK5spark6Logger4infoEPKcz>
    Log.info("Offline readings count is: %d", tempOfflineReadingsCount);
 80a1aa2:	4b2c      	ldr	r3, [pc, #176]	; (80a1b54 <_Z14trySaveOfflinev+0x49c>)
 80a1aa4:	492c      	ldr	r1, [pc, #176]	; (80a1b58 <_Z14trySaveOfflinev+0x4a0>)
 80a1aa6:	881a      	ldrh	r2, [r3, #0]
 80a1aa8:	4827      	ldr	r0, [pc, #156]	; (80a1b48 <_Z14trySaveOfflinev+0x490>)
 80a1aaa:	f7fe fd2d 	bl	80a0508 <_ZNK5spark6Logger4infoEPKcz>
    Log.info("Current offline index is:  %d", currentReadIndex);
 80a1aae:	f8b5 29ec 	ldrh.w	r2, [r5, #2540]	; 0x9ec
 80a1ab2:	492a      	ldr	r1, [pc, #168]	; (80a1b5c <_Z14trySaveOfflinev+0x4a4>)
 80a1ab4:	4824      	ldr	r0, [pc, #144]	; (80a1b48 <_Z14trySaveOfflinev+0x490>)
 80a1ab6:	f7fe fd27 	bl	80a0508 <_ZNK5spark6Logger4infoEPKcz>
    Log.info("Start offline index is:    %d", offlineIndexStart);
 80a1aba:	f8b5 29e8 	ldrh.w	r2, [r5, #2536]	; 0x9e8
 80a1abe:	4928      	ldr	r1, [pc, #160]	; (80a1b60 <_Z14trySaveOfflinev+0x4a8>)
 80a1ac0:	4821      	ldr	r0, [pc, #132]	; (80a1b48 <_Z14trySaveOfflinev+0x490>)
 80a1ac2:	f7fe fd21 	bl	80a0508 <_ZNK5spark6Logger4infoEPKcz>
    Log.info("Finish offline index is:   %d", offlineIndexEnd);
 80a1ac6:	f8b5 29ea 	ldrh.w	r2, [r5, #2538]	; 0x9ea
 80a1aca:	4926      	ldr	r1, [pc, #152]	; (80a1b64 <_Z14trySaveOfflinev+0x4ac>)
 80a1acc:	481e      	ldr	r0, [pc, #120]	; (80a1b48 <_Z14trySaveOfflinev+0x490>)
 80a1ace:	f7fe fd1b 	bl	80a0508 <_ZNK5spark6Logger4infoEPKcz>
    haveSavedToCloudAndOffline = true;
 80a1ad2:	2201      	movs	r2, #1
 80a1ad4:	4b24      	ldr	r3, [pc, #144]	; (80a1b68 <_Z14trySaveOfflinev+0x4b0>)
 80a1ad6:	701a      	strb	r2, [r3, #0]
}
 80a1ad8:	371c      	adds	r7, #28
 80a1ada:	46bd      	mov	sp, r7
 80a1adc:	e8bd 8ff0 	ldmia.w	sp!, {r4, r5, r6, r7, r8, r9, sl, fp, pc}
          int amountInLoop = (i == nMessagesToSend - 1) ? finalLoopLength : nPerLoop;
 80a1ae0:	68fa      	ldr	r2, [r7, #12]
 80a1ae2:	4591      	cmp	r9, r2
 80a1ae4:	bf0c      	ite	eq
 80a1ae6:	4630      	moveq	r0, r6
 80a1ae8:	2013      	movne	r0, #19
          if (!haveSentArray[i])
 80a1aea:	4a14      	ldr	r2, [pc, #80]	; (80a1b3c <_Z14trySaveOfflinev+0x484>)
 80a1aec:	f812 2009 	ldrb.w	r2, [r2, r9]
 80a1af0:	b9d2      	cbnz	r2, 80a1b28 <_Z14trySaveOfflinev+0x470>
 80a1af2:	eb0e 0a8c 	add.w	sl, lr, ip, lsl #2
 80a1af6:	f8c7 a014 	str.w	sl, [r7, #20]
              tempPIR[count] = PIR2[index];
 80a1afa:	f8df a044 	ldr.w	sl, [pc, #68]	; 80a1b40 <_Z14trySaveOfflinev+0x488>
            for (int j = 0; j < amountInLoop; j++)
 80a1afe:	3201      	adds	r2, #1
              tempPIR[count] = PIR2[index];
 80a1b00:	eb0a 0b83 	add.w	fp, sl, r3, lsl #2
 80a1b04:	f8db b01c 	ldr.w	fp, [fp, #28]
 80a1b08:	f8d7 a014 	ldr.w	sl, [r7, #20]
 80a1b0c:	f84a bb04 	str.w	fp, [sl], #4
 80a1b10:	f1b3 0b01 	subs.w	fp, r3, #1
 80a1b14:	bf58      	it	pl
 80a1b16:	465b      	movpl	r3, fp
            for (int j = 0; j < amountInLoop; j++)
 80a1b18:	4290      	cmp	r0, r2
              tempPIR[count] = PIR2[index];
 80a1b1a:	f8c7 a014 	str.w	sl, [r7, #20]
            for (int j = 0; j < amountInLoop; j++)
 80a1b1e:	dcec      	bgt.n	80a1afa <_Z14trySaveOfflinev+0x442>
              count++;
 80a1b20:	4484      	add	ip, r0
        for (int i = PIR2IndexStart; i < nMessagesToSend; i++)
 80a1b22:	f109 0901 	add.w	r9, r9, #1
 80a1b26:	e798      	b.n	80a1a5a <_Z14trySaveOfflinev+0x3a2>
            if (index < 0)
 80a1b28:	1a1b      	subs	r3, r3, r0
              index = index + PIR2Size;
 80a1b2a:	bf48      	it	mi
 80a1b2c:	3301      	addmi	r3, #1
 80a1b2e:	e7f8      	b.n	80a1b22 <_Z14trySaveOfflinev+0x46a>
        Log.info("No offline remaining! :D ");
 80a1b30:	490e      	ldr	r1, [pc, #56]	; (80a1b6c <_Z14trySaveOfflinev+0x4b4>)
 80a1b32:	4805      	ldr	r0, [pc, #20]	; (80a1b48 <_Z14trySaveOfflinev+0x490>)
 80a1b34:	f7fe fce8 	bl	80a0508 <_ZNK5spark6Logger4infoEPKcz>
 80a1b38:	e79b      	b.n	80a1a72 <_Z14trySaveOfflinev+0x3ba>
 80a1b3a:	bf00      	nop
 80a1b3c:	200002a9 	.word	0x200002a9
 80a1b40:	40024000 	.word	0x40024000
 80a1b44:	080b34f6 	.word	0x080b34f6
 80a1b48:	20001c94 	.word	0x20001c94
 80a1b4c:	080b352b 	.word	0x080b352b
 80a1b50:	080b3549 	.word	0x080b3549
 80a1b54:	2000185c 	.word	0x2000185c
 80a1b58:	080b3567 	.word	0x080b3567
 80a1b5c:	080b3585 	.word	0x080b3585
 80a1b60:	080b35a3 	.word	0x080b35a3
 80a1b64:	080b35c1 	.word	0x080b35c1
 80a1b68:	200002a7 	.word	0x200002a7
 80a1b6c:	080b34dc 	.word	0x080b34dc

080a1b70 <_Z19getBaseValueMessagett>:
  rf95.sleep();
  delay(10);
}

String getBaseValueMessage(uint16_t VoCgasBase, uint16_t Co2gasBase)
{
 80a1b70:	b5f0      	push	{r4, r5, r6, r7, lr}
 80a1b72:	4604      	mov	r4, r0
 80a1b74:	b08d      	sub	sp, #52	; 0x34
 80a1b76:	460e      	mov	r6, r1
  String messageOut = "";
 80a1b78:	496b      	ldr	r1, [pc, #428]	; (80a1d28 <_Z19getBaseValueMessagett+0x1b8>)
{
 80a1b7a:	4617      	mov	r7, r2
  String messageOut = "";
 80a1b7c:	f00b feca 	bl	80ad914 <_ZN6StringC1EPK19__FlashStringHelper>
  messageOut.concat(String("{"));
 80a1b80:	496a      	ldr	r1, [pc, #424]	; (80a1d2c <_Z19getBaseValueMessagett+0x1bc>)
 80a1b82:	a808      	add	r0, sp, #32
 80a1b84:	f00b fec6 	bl	80ad914 <_ZN6StringC1EPK19__FlashStringHelper>
 80a1b88:	a908      	add	r1, sp, #32
 80a1b8a:	4620      	mov	r0, r4
 80a1b8c:	f00b ff97 	bl	80adabe <_ZN6String6concatERKS_>
 80a1b90:	a808      	add	r0, sp, #32
 80a1b92:	f00b fe75 	bl	80ad880 <_ZN6StringD1Ev>
  // messageOut.concat(String("\"Sc\":") + String(Time.second(Time.now())) + ",");
  // messageOut.concat(String("\"Mi\":") + String(Time.minute(Time.now())) + ",");
  // messageOut.concat(String("\"Hr\":") + String(Time.hour(Time.now())) + ",");
  // messageOut.concat(String("\"Da\":") + String(Time.day(Time.now())) + ",");
  // messageOut.concat(String("\"Mo\":") + String(Time.month(Time.now())) + ",");
  messageOut.concat(String("\"Yr\":") + String(Time.year(Time.now())) + ",");
 80a1b96:	4668      	mov	r0, sp
 80a1b98:	4965      	ldr	r1, [pc, #404]	; (80a1d30 <_Z19getBaseValueMessagett+0x1c0>)
 80a1b9a:	f00b febb 	bl	80ad914 <_ZN6StringC1EPK19__FlashStringHelper>
	StringSumHelper(const String &s) : String(s) {}
 80a1b9e:	4669      	mov	r1, sp
 80a1ba0:	a808      	add	r0, sp, #32
 80a1ba2:	f00b ff01 	bl	80ad9a8 <_ZN6StringC1ERKS_>
 80a1ba6:	f00c fada 	bl	80ae15e <_ZN9TimeClass3nowEv>
 80a1baa:	17c1      	asrs	r1, r0, #31
 80a1bac:	f00c f9ac 	bl	80adf08 <_ZN9TimeClass4yearEx>
 80a1bb0:	4d60      	ldr	r5, [pc, #384]	; (80a1d34 <_Z19getBaseValueMessagett+0x1c4>)
 80a1bb2:	220a      	movs	r2, #10
 80a1bb4:	4601      	mov	r1, r0
 80a1bb6:	a804      	add	r0, sp, #16
 80a1bb8:	f00b ff2c 	bl	80ada14 <_ZN6StringC1Eih>
 80a1bbc:	a904      	add	r1, sp, #16
 80a1bbe:	a808      	add	r0, sp, #32
 80a1bc0:	f00b ffac 	bl	80adb1c <_ZplRK15StringSumHelperRK6String>
 80a1bc4:	4629      	mov	r1, r5
 80a1bc6:	f00b ffb5 	bl	80adb34 <_ZplRK15StringSumHelperPKc>
 80a1bca:	4601      	mov	r1, r0
 80a1bcc:	4620      	mov	r0, r4
 80a1bce:	f00b ff76 	bl	80adabe <_ZN6String6concatERKS_>
 80a1bd2:	a804      	add	r0, sp, #16
 80a1bd4:	f00b fe54 	bl	80ad880 <_ZN6StringD1Ev>
class StringSumHelper : public String
 80a1bd8:	a808      	add	r0, sp, #32
 80a1bda:	f00b fe51 	bl	80ad880 <_ZN6StringD1Ev>
 80a1bde:	4668      	mov	r0, sp
 80a1be0:	f00b fe4e 	bl	80ad880 <_ZN6StringD1Ev>
  messageOut.concat(String("\"Zo\":") + String(sensorsZome) + ",");
 80a1be4:	4668      	mov	r0, sp
 80a1be6:	4954      	ldr	r1, [pc, #336]	; (80a1d38 <_Z19getBaseValueMessagett+0x1c8>)
 80a1be8:	f00b fe94 	bl	80ad914 <_ZN6StringC1EPK19__FlashStringHelper>
	StringSumHelper(const String &s) : String(s) {}
 80a1bec:	4669      	mov	r1, sp
 80a1bee:	a808      	add	r0, sp, #32
 80a1bf0:	f00b feda 	bl	80ad9a8 <_ZN6StringC1ERKS_>
 80a1bf4:	220a      	movs	r2, #10
 80a1bf6:	a804      	add	r0, sp, #16
 80a1bf8:	4611      	mov	r1, r2
 80a1bfa:	f00b ff0b 	bl	80ada14 <_ZN6StringC1Eih>
 80a1bfe:	a904      	add	r1, sp, #16
 80a1c00:	a808      	add	r0, sp, #32
 80a1c02:	f00b ff8b 	bl	80adb1c <_ZplRK15StringSumHelperRK6String>
 80a1c06:	4629      	mov	r1, r5
 80a1c08:	f00b ff94 	bl	80adb34 <_ZplRK15StringSumHelperPKc>
 80a1c0c:	4601      	mov	r1, r0
 80a1c0e:	4620      	mov	r0, r4
 80a1c10:	f00b ff55 	bl	80adabe <_ZN6String6concatERKS_>
 80a1c14:	a804      	add	r0, sp, #16
 80a1c16:	f00b fe33 	bl	80ad880 <_ZN6StringD1Ev>
class StringSumHelper : public String
 80a1c1a:	a808      	add	r0, sp, #32
 80a1c1c:	f00b fe30 	bl	80ad880 <_ZN6StringD1Ev>
 80a1c20:	4668      	mov	r0, sp
 80a1c22:	f00b fe2d 	bl	80ad880 <_ZN6StringD1Ev>
	StringSumHelper(const char *p) : String(p) {}
 80a1c26:	4945      	ldr	r1, [pc, #276]	; (80a1d3c <_Z19getBaseValueMessagett+0x1cc>)
 80a1c28:	a804      	add	r0, sp, #16
 80a1c2a:	f00b fe73 	bl	80ad914 <_ZN6StringC1EPK19__FlashStringHelper>
  messageOut.concat(String("\"Dh\":" + String(getDecimalHr(), 4) + ","));
 80a1c2e:	f7fe fda7 	bl	80a0780 <_Z12getDecimalHrv>
 80a1c32:	2204      	movs	r2, #4
 80a1c34:	4601      	mov	r1, r0
 80a1c36:	4668      	mov	r0, sp
 80a1c38:	f00b ff13 	bl	80ada62 <_ZN6StringC1Efi>
 80a1c3c:	4669      	mov	r1, sp
 80a1c3e:	a804      	add	r0, sp, #16
 80a1c40:	f00b ff6c 	bl	80adb1c <_ZplRK15StringSumHelperRK6String>
 80a1c44:	4629      	mov	r1, r5
 80a1c46:	f00b ff75 	bl	80adb34 <_ZplRK15StringSumHelperPKc>
 80a1c4a:	4601      	mov	r1, r0
 80a1c4c:	a808      	add	r0, sp, #32
 80a1c4e:	f00b feab 	bl	80ad9a8 <_ZN6StringC1ERKS_>
 80a1c52:	a908      	add	r1, sp, #32
 80a1c54:	4620      	mov	r0, r4
 80a1c56:	f00b ff32 	bl	80adabe <_ZN6String6concatERKS_>
 80a1c5a:	a808      	add	r0, sp, #32
 80a1c5c:	f00b fe10 	bl	80ad880 <_ZN6StringD1Ev>
 80a1c60:	4668      	mov	r0, sp
 80a1c62:	f00b fe0d 	bl	80ad880 <_ZN6StringD1Ev>
class StringSumHelper : public String
 80a1c66:	a804      	add	r0, sp, #16
 80a1c68:	f00b fe0a 	bl	80ad880 <_ZN6StringD1Ev>
	StringSumHelper(const char *p) : String(p) {}
 80a1c6c:	4934      	ldr	r1, [pc, #208]	; (80a1d40 <_Z19getBaseValueMessagett+0x1d0>)
 80a1c6e:	a804      	add	r0, sp, #16
 80a1c70:	f00b fe50 	bl	80ad914 <_ZN6StringC1EPK19__FlashStringHelper>
  messageOut.concat(String("\"Bc\":" + String(Co2gasBase) + ","));
 80a1c74:	220a      	movs	r2, #10
 80a1c76:	4639      	mov	r1, r7
 80a1c78:	4668      	mov	r0, sp
 80a1c7a:	f00b fecb 	bl	80ada14 <_ZN6StringC1Eih>
 80a1c7e:	4669      	mov	r1, sp
 80a1c80:	a804      	add	r0, sp, #16
 80a1c82:	f00b ff4b 	bl	80adb1c <_ZplRK15StringSumHelperRK6String>
 80a1c86:	4629      	mov	r1, r5
 80a1c88:	f00b ff54 	bl	80adb34 <_ZplRK15StringSumHelperPKc>
 80a1c8c:	4601      	mov	r1, r0
 80a1c8e:	a808      	add	r0, sp, #32
 80a1c90:	f00b fe8a 	bl	80ad9a8 <_ZN6StringC1ERKS_>
 80a1c94:	a908      	add	r1, sp, #32
 80a1c96:	4620      	mov	r0, r4
 80a1c98:	f00b ff11 	bl	80adabe <_ZN6String6concatERKS_>
 80a1c9c:	a808      	add	r0, sp, #32
 80a1c9e:	f00b fdef 	bl	80ad880 <_ZN6StringD1Ev>
 80a1ca2:	4668      	mov	r0, sp
 80a1ca4:	f00b fdec 	bl	80ad880 <_ZN6StringD1Ev>
class StringSumHelper : public String
 80a1ca8:	a804      	add	r0, sp, #16
 80a1caa:	f00b fde9 	bl	80ad880 <_ZN6StringD1Ev>
	StringSumHelper(const char *p) : String(p) {}
 80a1cae:	4925      	ldr	r1, [pc, #148]	; (80a1d44 <_Z19getBaseValueMessagett+0x1d4>)
 80a1cb0:	a804      	add	r0, sp, #16
 80a1cb2:	f00b fe2f 	bl	80ad914 <_ZN6StringC1EPK19__FlashStringHelper>
  messageOut.concat(String("\"Bv\":" + String(VoCgasBase) + ","));
 80a1cb6:	220a      	movs	r2, #10
 80a1cb8:	4631      	mov	r1, r6
 80a1cba:	4668      	mov	r0, sp
 80a1cbc:	f00b feaa 	bl	80ada14 <_ZN6StringC1Eih>
 80a1cc0:	4669      	mov	r1, sp
 80a1cc2:	a804      	add	r0, sp, #16
 80a1cc4:	f00b ff2a 	bl	80adb1c <_ZplRK15StringSumHelperRK6String>
 80a1cc8:	4629      	mov	r1, r5
 80a1cca:	f00b ff33 	bl	80adb34 <_ZplRK15StringSumHelperPKc>
 80a1cce:	4601      	mov	r1, r0
 80a1cd0:	a808      	add	r0, sp, #32
 80a1cd2:	f00b fe69 	bl	80ad9a8 <_ZN6StringC1ERKS_>
 80a1cd6:	a908      	add	r1, sp, #32
 80a1cd8:	4620      	mov	r0, r4
 80a1cda:	f00b fef0 	bl	80adabe <_ZN6String6concatERKS_>
 80a1cde:	a808      	add	r0, sp, #32
 80a1ce0:	f00b fdce 	bl	80ad880 <_ZN6StringD1Ev>
 80a1ce4:	4668      	mov	r0, sp
 80a1ce6:	f00b fdcb 	bl	80ad880 <_ZN6StringD1Ev>
class StringSumHelper : public String
 80a1cea:	a804      	add	r0, sp, #16
 80a1cec:	f00b fdc8 	bl	80ad880 <_ZN6StringD1Ev>
	StringSumHelper(const char *p) : String(p) {}
 80a1cf0:	4915      	ldr	r1, [pc, #84]	; (80a1d48 <_Z19getBaseValueMessagett+0x1d8>)
 80a1cf2:	a808      	add	r0, sp, #32
 80a1cf4:	f00b fe0e 	bl	80ad914 <_ZN6StringC1EPK19__FlashStringHelper>
  messageOut.concat("\"Dv\": \"" + String(deviceNameRet) + "\"}");
 80a1cf8:	4914      	ldr	r1, [pc, #80]	; (80a1d4c <_Z19getBaseValueMessagett+0x1dc>)
 80a1cfa:	a804      	add	r0, sp, #16
 80a1cfc:	f00b fe0a 	bl	80ad914 <_ZN6StringC1EPK19__FlashStringHelper>
 80a1d00:	a904      	add	r1, sp, #16
 80a1d02:	a808      	add	r0, sp, #32
 80a1d04:	f00b ff0a 	bl	80adb1c <_ZplRK15StringSumHelperRK6String>
 80a1d08:	4911      	ldr	r1, [pc, #68]	; (80a1d50 <_Z19getBaseValueMessagett+0x1e0>)
 80a1d0a:	f00b ff13 	bl	80adb34 <_ZplRK15StringSumHelperPKc>
 80a1d0e:	4601      	mov	r1, r0
 80a1d10:	4620      	mov	r0, r4
 80a1d12:	f00b fed4 	bl	80adabe <_ZN6String6concatERKS_>
 80a1d16:	a804      	add	r0, sp, #16
 80a1d18:	f00b fdb2 	bl	80ad880 <_ZN6StringD1Ev>
class StringSumHelper : public String
 80a1d1c:	a808      	add	r0, sp, #32
 80a1d1e:	f00b fdaf 	bl	80ad880 <_ZN6StringD1Ev>
  return messageOut;
}
 80a1d22:	4620      	mov	r0, r4
 80a1d24:	b00d      	add	sp, #52	; 0x34
 80a1d26:	bdf0      	pop	{r4, r5, r6, r7, pc}
 80a1d28:	080b5867 	.word	0x080b5867
 80a1d2c:	080b3382 	.word	0x080b3382
 80a1d30:	080b35df 	.word	0x080b35df
 80a1d34:	080b3384 	.word	0x080b3384
 80a1d38:	080b35e5 	.word	0x080b35e5
 80a1d3c:	080b35eb 	.word	0x080b35eb
 80a1d40:	080b35f1 	.word	0x080b35f1
 80a1d44:	080b35f7 	.word	0x080b35f7
 80a1d48:	080b33f5 	.word	0x080b33f5
 80a1d4c:	2000000e 	.word	0x2000000e
 80a1d50:	080b338d 	.word	0x080b338d

080a1d54 <_Z22getFirstMessageHeadingv>:

String getFirstMessageHeading()
{
 80a1d54:	b530      	push	{r4, r5, lr}
 80a1d56:	4604      	mov	r4, r0
 80a1d58:	b08d      	sub	sp, #52	; 0x34
  String messageOut = "";
 80a1d5a:	49ca      	ldr	r1, [pc, #808]	; (80a2084 <_Z22getFirstMessageHeadingv+0x330>)
 80a1d5c:	f00b fdda 	bl	80ad914 <_ZN6StringC1EPK19__FlashStringHelper>
  messageOut.concat(String("{"));
 80a1d60:	49c9      	ldr	r1, [pc, #804]	; (80a2088 <_Z22getFirstMessageHeadingv+0x334>)
 80a1d62:	a808      	add	r0, sp, #32
 80a1d64:	f00b fdd6 	bl	80ad914 <_ZN6StringC1EPK19__FlashStringHelper>
 80a1d68:	a908      	add	r1, sp, #32
 80a1d6a:	4620      	mov	r0, r4
 80a1d6c:	f00b fea7 	bl	80adabe <_ZN6String6concatERKS_>
 80a1d70:	a808      	add	r0, sp, #32
 80a1d72:	f00b fd85 	bl	80ad880 <_ZN6StringD1Ev>
  messageOut.concat(String("\"Bt\":") + String("\"Save\"") + ",");     // temp
 80a1d76:	4668      	mov	r0, sp
 80a1d78:	49c4      	ldr	r1, [pc, #784]	; (80a208c <_Z22getFirstMessageHeadingv+0x338>)
 80a1d7a:	f00b fdcb 	bl	80ad914 <_ZN6StringC1EPK19__FlashStringHelper>
	StringSumHelper(const String &s) : String(s) {}
 80a1d7e:	4669      	mov	r1, sp
 80a1d80:	a808      	add	r0, sp, #32
 80a1d82:	4dc3      	ldr	r5, [pc, #780]	; (80a2090 <_Z22getFirstMessageHeadingv+0x33c>)
 80a1d84:	f00b fe10 	bl	80ad9a8 <_ZN6StringC1ERKS_>
 80a1d88:	49c2      	ldr	r1, [pc, #776]	; (80a2094 <_Z22getFirstMessageHeadingv+0x340>)
 80a1d8a:	a804      	add	r0, sp, #16
 80a1d8c:	f00b fdc2 	bl	80ad914 <_ZN6StringC1EPK19__FlashStringHelper>
 80a1d90:	a904      	add	r1, sp, #16
 80a1d92:	a808      	add	r0, sp, #32
 80a1d94:	f00b fec2 	bl	80adb1c <_ZplRK15StringSumHelperRK6String>
 80a1d98:	4629      	mov	r1, r5
 80a1d9a:	f00b fecb 	bl	80adb34 <_ZplRK15StringSumHelperPKc>
 80a1d9e:	4601      	mov	r1, r0
 80a1da0:	4620      	mov	r0, r4
 80a1da2:	f00b fe8c 	bl	80adabe <_ZN6String6concatERKS_>
 80a1da6:	a804      	add	r0, sp, #16
 80a1da8:	f00b fd6a 	bl	80ad880 <_ZN6StringD1Ev>
class StringSumHelper : public String
 80a1dac:	a808      	add	r0, sp, #32
 80a1dae:	f00b fd67 	bl	80ad880 <_ZN6StringD1Ev>
 80a1db2:	4668      	mov	r0, sp
 80a1db4:	f00b fd64 	bl	80ad880 <_ZN6StringD1Ev>
  messageOut.concat(String("\"Bh\":") + String("\"Send\"") + ",");     // humidity
 80a1db8:	4668      	mov	r0, sp
 80a1dba:	49b7      	ldr	r1, [pc, #732]	; (80a2098 <_Z22getFirstMessageHeadingv+0x344>)
 80a1dbc:	f00b fdaa 	bl	80ad914 <_ZN6StringC1EPK19__FlashStringHelper>
	StringSumHelper(const String &s) : String(s) {}
 80a1dc0:	4669      	mov	r1, sp
 80a1dc2:	a808      	add	r0, sp, #32
 80a1dc4:	f00b fdf0 	bl	80ad9a8 <_ZN6StringC1ERKS_>
 80a1dc8:	49b4      	ldr	r1, [pc, #720]	; (80a209c <_Z22getFirstMessageHeadingv+0x348>)
 80a1dca:	a804      	add	r0, sp, #16
 80a1dcc:	f00b fda2 	bl	80ad914 <_ZN6StringC1EPK19__FlashStringHelper>
 80a1dd0:	a904      	add	r1, sp, #16
 80a1dd2:	a808      	add	r0, sp, #32
 80a1dd4:	f00b fea2 	bl	80adb1c <_ZplRK15StringSumHelperRK6String>
 80a1dd8:	4629      	mov	r1, r5
 80a1dda:	f00b feab 	bl	80adb34 <_ZplRK15StringSumHelperPKc>
 80a1dde:	4601      	mov	r1, r0
 80a1de0:	4620      	mov	r0, r4
 80a1de2:	f00b fe6c 	bl	80adabe <_ZN6String6concatERKS_>
 80a1de6:	a804      	add	r0, sp, #16
 80a1de8:	f00b fd4a 	bl	80ad880 <_ZN6StringD1Ev>
class StringSumHelper : public String
 80a1dec:	a808      	add	r0, sp, #32
 80a1dee:	f00b fd47 	bl	80ad880 <_ZN6StringD1Ev>
 80a1df2:	4668      	mov	r0, sp
 80a1df4:	f00b fd44 	bl	80ad880 <_ZN6StringD1Ev>
  messageOut.concat(String("\"Bp\":") + String("\"Delay\"") + ",");    // pressure
 80a1df8:	4668      	mov	r0, sp
 80a1dfa:	49a9      	ldr	r1, [pc, #676]	; (80a20a0 <_Z22getFirstMessageHeadingv+0x34c>)
 80a1dfc:	f00b fd8a 	bl	80ad914 <_ZN6StringC1EPK19__FlashStringHelper>
	StringSumHelper(const String &s) : String(s) {}
 80a1e00:	4669      	mov	r1, sp
 80a1e02:	a808      	add	r0, sp, #32
 80a1e04:	f00b fdd0 	bl	80ad9a8 <_ZN6StringC1ERKS_>
 80a1e08:	49a6      	ldr	r1, [pc, #664]	; (80a20a4 <_Z22getFirstMessageHeadingv+0x350>)
 80a1e0a:	a804      	add	r0, sp, #16
 80a1e0c:	f00b fd82 	bl	80ad914 <_ZN6StringC1EPK19__FlashStringHelper>
 80a1e10:	a904      	add	r1, sp, #16
 80a1e12:	a808      	add	r0, sp, #32
 80a1e14:	f00b fe82 	bl	80adb1c <_ZplRK15StringSumHelperRK6String>
 80a1e18:	4629      	mov	r1, r5
 80a1e1a:	f00b fe8b 	bl	80adb34 <_ZplRK15StringSumHelperPKc>
 80a1e1e:	4601      	mov	r1, r0
 80a1e20:	4620      	mov	r0, r4
 80a1e22:	f00b fe4c 	bl	80adabe <_ZN6String6concatERKS_>
 80a1e26:	a804      	add	r0, sp, #16
 80a1e28:	f00b fd2a 	bl	80ad880 <_ZN6StringD1Ev>
class StringSumHelper : public String
 80a1e2c:	a808      	add	r0, sp, #32
 80a1e2e:	f00b fd27 	bl	80ad880 <_ZN6StringD1Ev>
 80a1e32:	4668      	mov	r0, sp
 80a1e34:	f00b fd24 	bl	80ad880 <_ZN6StringD1Ev>
  messageOut.concat(String("\"Ba\":") + String("\"Cali\"") + ",");     // alt
 80a1e38:	4668      	mov	r0, sp
 80a1e3a:	499b      	ldr	r1, [pc, #620]	; (80a20a8 <_Z22getFirstMessageHeadingv+0x354>)
 80a1e3c:	f00b fd6a 	bl	80ad914 <_ZN6StringC1EPK19__FlashStringHelper>
	StringSumHelper(const String &s) : String(s) {}
 80a1e40:	4669      	mov	r1, sp
 80a1e42:	a808      	add	r0, sp, #32
 80a1e44:	f00b fdb0 	bl	80ad9a8 <_ZN6StringC1ERKS_>
 80a1e48:	4998      	ldr	r1, [pc, #608]	; (80a20ac <_Z22getFirstMessageHeadingv+0x358>)
 80a1e4a:	a804      	add	r0, sp, #16
 80a1e4c:	f00b fd62 	bl	80ad914 <_ZN6StringC1EPK19__FlashStringHelper>
 80a1e50:	a904      	add	r1, sp, #16
 80a1e52:	a808      	add	r0, sp, #32
 80a1e54:	f00b fe62 	bl	80adb1c <_ZplRK15StringSumHelperRK6String>
 80a1e58:	4629      	mov	r1, r5
 80a1e5a:	f00b fe6b 	bl	80adb34 <_ZplRK15StringSumHelperPKc>
 80a1e5e:	4601      	mov	r1, r0
 80a1e60:	4620      	mov	r0, r4
 80a1e62:	f00b fe2c 	bl	80adabe <_ZN6String6concatERKS_>
 80a1e66:	a804      	add	r0, sp, #16
 80a1e68:	f00b fd0a 	bl	80ad880 <_ZN6StringD1Ev>
class StringSumHelper : public String
 80a1e6c:	a808      	add	r0, sp, #32
 80a1e6e:	f00b fd07 	bl	80ad880 <_ZN6StringD1Ev>
 80a1e72:	4668      	mov	r0, sp
 80a1e74:	f00b fd04 	bl	80ad880 <_ZN6StringD1Ev>
  messageOut.concat(String("\"Bu\":") + String("\"WiFi\"") + ",");     // abs
 80a1e78:	4668      	mov	r0, sp
 80a1e7a:	498d      	ldr	r1, [pc, #564]	; (80a20b0 <_Z22getFirstMessageHeadingv+0x35c>)
 80a1e7c:	f00b fd4a 	bl	80ad914 <_ZN6StringC1EPK19__FlashStringHelper>
	StringSumHelper(const String &s) : String(s) {}
 80a1e80:	4669      	mov	r1, sp
 80a1e82:	a808      	add	r0, sp, #32
 80a1e84:	f00b fd90 	bl	80ad9a8 <_ZN6StringC1ERKS_>
 80a1e88:	498a      	ldr	r1, [pc, #552]	; (80a20b4 <_Z22getFirstMessageHeadingv+0x360>)
 80a1e8a:	a804      	add	r0, sp, #16
 80a1e8c:	f00b fd42 	bl	80ad914 <_ZN6StringC1EPK19__FlashStringHelper>
 80a1e90:	a904      	add	r1, sp, #16
 80a1e92:	a808      	add	r0, sp, #32
 80a1e94:	f00b fe42 	bl	80adb1c <_ZplRK15StringSumHelperRK6String>
 80a1e98:	4629      	mov	r1, r5
 80a1e9a:	f00b fe4b 	bl	80adb34 <_ZplRK15StringSumHelperPKc>
 80a1e9e:	4601      	mov	r1, r0
 80a1ea0:	4620      	mov	r0, r4
 80a1ea2:	f00b fe0c 	bl	80adabe <_ZN6String6concatERKS_>
 80a1ea6:	a804      	add	r0, sp, #16
 80a1ea8:	f00b fcea 	bl	80ad880 <_ZN6StringD1Ev>
class StringSumHelper : public String
 80a1eac:	a808      	add	r0, sp, #32
 80a1eae:	f00b fce7 	bl	80ad880 <_ZN6StringD1Ev>
 80a1eb2:	4668      	mov	r0, sp
 80a1eb4:	f00b fce4 	bl	80ad880 <_ZN6StringD1Ev>
  messageOut.concat(String("\"Ss\":") + String("\"LoRa\"") + ",");     // co2
 80a1eb8:	4668      	mov	r0, sp
 80a1eba:	497f      	ldr	r1, [pc, #508]	; (80a20b8 <_Z22getFirstMessageHeadingv+0x364>)
 80a1ebc:	f00b fd2a 	bl	80ad914 <_ZN6StringC1EPK19__FlashStringHelper>
	StringSumHelper(const String &s) : String(s) {}
 80a1ec0:	4669      	mov	r1, sp
 80a1ec2:	a808      	add	r0, sp, #32
 80a1ec4:	f00b fd70 	bl	80ad9a8 <_ZN6StringC1ERKS_>
 80a1ec8:	497c      	ldr	r1, [pc, #496]	; (80a20bc <_Z22getFirstMessageHeadingv+0x368>)
 80a1eca:	a804      	add	r0, sp, #16
 80a1ecc:	f00b fd22 	bl	80ad914 <_ZN6StringC1EPK19__FlashStringHelper>
 80a1ed0:	a904      	add	r1, sp, #16
 80a1ed2:	a808      	add	r0, sp, #32
 80a1ed4:	f00b fe22 	bl	80adb1c <_ZplRK15StringSumHelperRK6String>
 80a1ed8:	4629      	mov	r1, r5
 80a1eda:	f00b fe2b 	bl	80adb34 <_ZplRK15StringSumHelperPKc>
 80a1ede:	4601      	mov	r1, r0
 80a1ee0:	4620      	mov	r0, r4
 80a1ee2:	f00b fdec 	bl	80adabe <_ZN6String6concatERKS_>
 80a1ee6:	a804      	add	r0, sp, #16
 80a1ee8:	f00b fcca 	bl	80ad880 <_ZN6StringD1Ev>
class StringSumHelper : public String
 80a1eec:	a808      	add	r0, sp, #32
 80a1eee:	f00b fcc7 	bl	80ad880 <_ZN6StringD1Ev>
 80a1ef2:	4668      	mov	r0, sp
 80a1ef4:	f00b fcc4 	bl	80ad880 <_ZN6StringD1Ev>
  messageOut.concat(String("\"Sv\":") + String("\"BUp Wifi\"") + ","); // voc
 80a1ef8:	4668      	mov	r0, sp
 80a1efa:	4971      	ldr	r1, [pc, #452]	; (80a20c0 <_Z22getFirstMessageHeadingv+0x36c>)
 80a1efc:	f00b fd0a 	bl	80ad914 <_ZN6StringC1EPK19__FlashStringHelper>
	StringSumHelper(const String &s) : String(s) {}
 80a1f00:	4669      	mov	r1, sp
 80a1f02:	a808      	add	r0, sp, #32
 80a1f04:	f00b fd50 	bl	80ad9a8 <_ZN6StringC1ERKS_>
 80a1f08:	496e      	ldr	r1, [pc, #440]	; (80a20c4 <_Z22getFirstMessageHeadingv+0x370>)
 80a1f0a:	a804      	add	r0, sp, #16
 80a1f0c:	f00b fd02 	bl	80ad914 <_ZN6StringC1EPK19__FlashStringHelper>
 80a1f10:	a904      	add	r1, sp, #16
 80a1f12:	a808      	add	r0, sp, #32
 80a1f14:	f00b fe02 	bl	80adb1c <_ZplRK15StringSumHelperRK6String>
 80a1f18:	4629      	mov	r1, r5
 80a1f1a:	f00b fe0b 	bl	80adb34 <_ZplRK15StringSumHelperPKc>
 80a1f1e:	4601      	mov	r1, r0
 80a1f20:	4620      	mov	r0, r4
 80a1f22:	f00b fdcc 	bl	80adabe <_ZN6String6concatERKS_>
 80a1f26:	a804      	add	r0, sp, #16
 80a1f28:	f00b fcaa 	bl	80ad880 <_ZN6StringD1Ev>
class StringSumHelper : public String
 80a1f2c:	a808      	add	r0, sp, #32
 80a1f2e:	f00b fca7 	bl	80ad880 <_ZN6StringD1Ev>
 80a1f32:	4668      	mov	r0, sp
 80a1f34:	f00b fca4 	bl	80ad880 <_ZN6StringD1Ev>
  messageOut.concat(String("\"Tl\":") + String("\"BUp LoRa\"") + ","); // PIR1
 80a1f38:	4668      	mov	r0, sp
 80a1f3a:	4963      	ldr	r1, [pc, #396]	; (80a20c8 <_Z22getFirstMessageHeadingv+0x374>)
 80a1f3c:	f00b fcea 	bl	80ad914 <_ZN6StringC1EPK19__FlashStringHelper>
	StringSumHelper(const String &s) : String(s) {}
 80a1f40:	4669      	mov	r1, sp
 80a1f42:	a808      	add	r0, sp, #32
 80a1f44:	f00b fd30 	bl	80ad9a8 <_ZN6StringC1ERKS_>
 80a1f48:	4960      	ldr	r1, [pc, #384]	; (80a20cc <_Z22getFirstMessageHeadingv+0x378>)
 80a1f4a:	a804      	add	r0, sp, #16
 80a1f4c:	f00b fce2 	bl	80ad914 <_ZN6StringC1EPK19__FlashStringHelper>
 80a1f50:	a904      	add	r1, sp, #16
 80a1f52:	a808      	add	r0, sp, #32
 80a1f54:	f00b fde2 	bl	80adb1c <_ZplRK15StringSumHelperRK6String>
 80a1f58:	4629      	mov	r1, r5
 80a1f5a:	f00b fdeb 	bl	80adb34 <_ZplRK15StringSumHelperPKc>
 80a1f5e:	4601      	mov	r1, r0
 80a1f60:	4620      	mov	r0, r4
 80a1f62:	f00b fdac 	bl	80adabe <_ZN6String6concatERKS_>
 80a1f66:	a804      	add	r0, sp, #16
 80a1f68:	f00b fc8a 	bl	80ad880 <_ZN6StringD1Ev>
class StringSumHelper : public String
 80a1f6c:	a808      	add	r0, sp, #32
 80a1f6e:	f00b fc87 	bl	80ad880 <_ZN6StringD1Ev>
 80a1f72:	4668      	mov	r0, sp
 80a1f74:	f00b fc84 	bl	80ad880 <_ZN6StringD1Ev>
  messageOut.concat(String("\"Tv\":") + String("\"Max Save\"") + ","); // PIR2
 80a1f78:	4668      	mov	r0, sp
 80a1f7a:	4955      	ldr	r1, [pc, #340]	; (80a20d0 <_Z22getFirstMessageHeadingv+0x37c>)
 80a1f7c:	f00b fcca 	bl	80ad914 <_ZN6StringC1EPK19__FlashStringHelper>
	StringSumHelper(const String &s) : String(s) {}
 80a1f80:	4669      	mov	r1, sp
 80a1f82:	a808      	add	r0, sp, #32
 80a1f84:	f00b fd10 	bl	80ad9a8 <_ZN6StringC1ERKS_>
 80a1f88:	4952      	ldr	r1, [pc, #328]	; (80a20d4 <_Z22getFirstMessageHeadingv+0x380>)
 80a1f8a:	a804      	add	r0, sp, #16
 80a1f8c:	f00b fcc2 	bl	80ad914 <_ZN6StringC1EPK19__FlashStringHelper>
 80a1f90:	a904      	add	r1, sp, #16
 80a1f92:	a808      	add	r0, sp, #32
 80a1f94:	f00b fdc2 	bl	80adb1c <_ZplRK15StringSumHelperRK6String>
 80a1f98:	4629      	mov	r1, r5
 80a1f9a:	f00b fdcb 	bl	80adb34 <_ZplRK15StringSumHelperPKc>
 80a1f9e:	4601      	mov	r1, r0
 80a1fa0:	4620      	mov	r0, r4
 80a1fa2:	f00b fd8c 	bl	80adabe <_ZN6String6concatERKS_>
 80a1fa6:	a804      	add	r0, sp, #16
 80a1fa8:	f00b fc6a 	bl	80ad880 <_ZN6StringD1Ev>
class StringSumHelper : public String
 80a1fac:	a808      	add	r0, sp, #32
 80a1fae:	f00b fc67 	bl	80ad880 <_ZN6StringD1Ev>
 80a1fb2:	4668      	mov	r0, sp
 80a1fb4:	f00b fc64 	bl	80ad880 <_ZN6StringD1Ev>
  messageOut.concat(String("\"Ti\":") + String("\"Max PIR1\"") + ",");
 80a1fb8:	4668      	mov	r0, sp
 80a1fba:	4947      	ldr	r1, [pc, #284]	; (80a20d8 <_Z22getFirstMessageHeadingv+0x384>)
 80a1fbc:	f00b fcaa 	bl	80ad914 <_ZN6StringC1EPK19__FlashStringHelper>
	StringSumHelper(const String &s) : String(s) {}
 80a1fc0:	4669      	mov	r1, sp
 80a1fc2:	a808      	add	r0, sp, #32
 80a1fc4:	f00b fcf0 	bl	80ad9a8 <_ZN6StringC1ERKS_>
 80a1fc8:	4944      	ldr	r1, [pc, #272]	; (80a20dc <_Z22getFirstMessageHeadingv+0x388>)
 80a1fca:	a804      	add	r0, sp, #16
 80a1fcc:	f00b fca2 	bl	80ad914 <_ZN6StringC1EPK19__FlashStringHelper>
 80a1fd0:	a904      	add	r1, sp, #16
 80a1fd2:	a808      	add	r0, sp, #32
 80a1fd4:	f00b fda2 	bl	80adb1c <_ZplRK15StringSumHelperRK6String>
 80a1fd8:	4629      	mov	r1, r5
 80a1fda:	f00b fdab 	bl	80adb34 <_ZplRK15StringSumHelperPKc>
 80a1fde:	4601      	mov	r1, r0
 80a1fe0:	4620      	mov	r0, r4
 80a1fe2:	f00b fd6c 	bl	80adabe <_ZN6String6concatERKS_>
 80a1fe6:	a804      	add	r0, sp, #16
 80a1fe8:	f00b fc4a 	bl	80ad880 <_ZN6StringD1Ev>
class StringSumHelper : public String
 80a1fec:	a808      	add	r0, sp, #32
 80a1fee:	f00b fc47 	bl	80ad880 <_ZN6StringD1Ev>
 80a1ff2:	4668      	mov	r0, sp
 80a1ff4:	f00b fc44 	bl	80ad880 <_ZN6StringD1Ev>
  messageOut.concat(String("\"Tf\":") + String("\"Max PIR2\"") + ",");
 80a1ff8:	4668      	mov	r0, sp
 80a1ffa:	4939      	ldr	r1, [pc, #228]	; (80a20e0 <_Z22getFirstMessageHeadingv+0x38c>)
 80a1ffc:	f00b fc8a 	bl	80ad914 <_ZN6StringC1EPK19__FlashStringHelper>
	StringSumHelper(const String &s) : String(s) {}
 80a2000:	4669      	mov	r1, sp
 80a2002:	a808      	add	r0, sp, #32
 80a2004:	f00b fcd0 	bl	80ad9a8 <_ZN6StringC1ERKS_>
 80a2008:	4936      	ldr	r1, [pc, #216]	; (80a20e4 <_Z22getFirstMessageHeadingv+0x390>)
 80a200a:	a804      	add	r0, sp, #16
 80a200c:	f00b fc82 	bl	80ad914 <_ZN6StringC1EPK19__FlashStringHelper>
 80a2010:	a904      	add	r1, sp, #16
 80a2012:	a808      	add	r0, sp, #32
 80a2014:	f00b fd82 	bl	80adb1c <_ZplRK15StringSumHelperRK6String>
 80a2018:	4629      	mov	r1, r5
 80a201a:	f00b fd8b 	bl	80adb34 <_ZplRK15StringSumHelperPKc>
 80a201e:	4601      	mov	r1, r0
 80a2020:	4620      	mov	r0, r4
 80a2022:	f00b fd4c 	bl	80adabe <_ZN6String6concatERKS_>
 80a2026:	a804      	add	r0, sp, #16
 80a2028:	f00b fc2a 	bl	80ad880 <_ZN6StringD1Ev>
class StringSumHelper : public String
 80a202c:	a808      	add	r0, sp, #32
 80a202e:	f00b fc27 	bl	80ad880 <_ZN6StringD1Ev>
 80a2032:	4668      	mov	r0, sp
 80a2034:	f00b fc24 	bl	80ad880 <_ZN6StringD1Ev>
  messageOut.concat(String("\"UV\":") + String("\"VoC\"") + ",");
 80a2038:	4668      	mov	r0, sp
 80a203a:	492b      	ldr	r1, [pc, #172]	; (80a20e8 <_Z22getFirstMessageHeadingv+0x394>)
 80a203c:	f00b fc6a 	bl	80ad914 <_ZN6StringC1EPK19__FlashStringHelper>
	StringSumHelper(const String &s) : String(s) {}
 80a2040:	4669      	mov	r1, sp
 80a2042:	a808      	add	r0, sp, #32
 80a2044:	f00b fcb0 	bl	80ad9a8 <_ZN6StringC1ERKS_>
 80a2048:	4928      	ldr	r1, [pc, #160]	; (80a20ec <_Z22getFirstMessageHeadingv+0x398>)
 80a204a:	a804      	add	r0, sp, #16
 80a204c:	f00b fc62 	bl	80ad914 <_ZN6StringC1EPK19__FlashStringHelper>
 80a2050:	a904      	add	r1, sp, #16
 80a2052:	a808      	add	r0, sp, #32
 80a2054:	f00b fd62 	bl	80adb1c <_ZplRK15StringSumHelperRK6String>
 80a2058:	4629      	mov	r1, r5
 80a205a:	f00b fd6b 	bl	80adb34 <_ZplRK15StringSumHelperPKc>
 80a205e:	4601      	mov	r1, r0
 80a2060:	4620      	mov	r0, r4
 80a2062:	f00b fd2c 	bl	80adabe <_ZN6String6concatERKS_>
 80a2066:	a804      	add	r0, sp, #16
 80a2068:	f00b fc0a 	bl	80ad880 <_ZN6StringD1Ev>
class StringSumHelper : public String
 80a206c:	a808      	add	r0, sp, #32
 80a206e:	f00b fc07 	bl	80ad880 <_ZN6StringD1Ev>
 80a2072:	4668      	mov	r0, sp
 80a2074:	f00b fc04 	bl	80ad880 <_ZN6StringD1Ev>
  messageOut.concat(String("\"S1\":") + String("\"Co2\"") + ",");
 80a2078:	4668      	mov	r0, sp
 80a207a:	491d      	ldr	r1, [pc, #116]	; (80a20f0 <_Z22getFirstMessageHeadingv+0x39c>)
 80a207c:	f00b fc4a 	bl	80ad914 <_ZN6StringC1EPK19__FlashStringHelper>
	StringSumHelper(const String &s) : String(s) {}
 80a2080:	4669      	mov	r1, sp
 80a2082:	e037      	b.n	80a20f4 <_Z22getFirstMessageHeadingv+0x3a0>
 80a2084:	080b5867 	.word	0x080b5867
 80a2088:	080b3382 	.word	0x080b3382
 80a208c:	080b35fd 	.word	0x080b35fd
 80a2090:	080b3384 	.word	0x080b3384
 80a2094:	080b3603 	.word	0x080b3603
 80a2098:	080b360a 	.word	0x080b360a
 80a209c:	080b3610 	.word	0x080b3610
 80a20a0:	080b3617 	.word	0x080b3617
 80a20a4:	080b361d 	.word	0x080b361d
 80a20a8:	080b3625 	.word	0x080b3625
 80a20ac:	080b362b 	.word	0x080b362b
 80a20b0:	080b3632 	.word	0x080b3632
 80a20b4:	080b3638 	.word	0x080b3638
 80a20b8:	080b363f 	.word	0x080b363f
 80a20bc:	080b3645 	.word	0x080b3645
 80a20c0:	080b364c 	.word	0x080b364c
 80a20c4:	080b3652 	.word	0x080b3652
 80a20c8:	080b365d 	.word	0x080b365d
 80a20cc:	080b3663 	.word	0x080b3663
 80a20d0:	080b366e 	.word	0x080b366e
 80a20d4:	080b3674 	.word	0x080b3674
 80a20d8:	080b367f 	.word	0x080b367f
 80a20dc:	080b3685 	.word	0x080b3685
 80a20e0:	080b3690 	.word	0x080b3690
 80a20e4:	080b3696 	.word	0x080b3696
 80a20e8:	080b36a1 	.word	0x080b36a1
 80a20ec:	080b36a7 	.word	0x080b36a7
 80a20f0:	080b36ad 	.word	0x080b36ad
 80a20f4:	a808      	add	r0, sp, #32
 80a20f6:	f00b fc57 	bl	80ad9a8 <_ZN6StringC1ERKS_>
 80a20fa:	492a      	ldr	r1, [pc, #168]	; (80a21a4 <_Z22getFirstMessageHeadingv+0x450>)
 80a20fc:	a804      	add	r0, sp, #16
 80a20fe:	f00b fc09 	bl	80ad914 <_ZN6StringC1EPK19__FlashStringHelper>
 80a2102:	a904      	add	r1, sp, #16
 80a2104:	a808      	add	r0, sp, #32
 80a2106:	f00b fd09 	bl	80adb1c <_ZplRK15StringSumHelperRK6String>
 80a210a:	4629      	mov	r1, r5
 80a210c:	f00b fd12 	bl	80adb34 <_ZplRK15StringSumHelperPKc>
 80a2110:	4601      	mov	r1, r0
 80a2112:	4620      	mov	r0, r4
 80a2114:	f00b fcd3 	bl	80adabe <_ZN6String6concatERKS_>
 80a2118:	a804      	add	r0, sp, #16
 80a211a:	f00b fbb1 	bl	80ad880 <_ZN6StringD1Ev>
class StringSumHelper : public String
 80a211e:	a808      	add	r0, sp, #32
 80a2120:	f00b fbae 	bl	80ad880 <_ZN6StringD1Ev>
 80a2124:	4668      	mov	r0, sp
 80a2126:	f00b fbab 	bl	80ad880 <_ZN6StringD1Ev>
  messageOut.concat(String("\"S2\":") + String("\"Start\"") + ",");
 80a212a:	4668      	mov	r0, sp
 80a212c:	491e      	ldr	r1, [pc, #120]	; (80a21a8 <_Z22getFirstMessageHeadingv+0x454>)
 80a212e:	f00b fbf1 	bl	80ad914 <_ZN6StringC1EPK19__FlashStringHelper>
	StringSumHelper(const String &s) : String(s) {}
 80a2132:	4669      	mov	r1, sp
 80a2134:	a808      	add	r0, sp, #32
