
c:/Users/julia/Documents/Particle/projects/GitProjects/OwlNode/OwlNode/target/OwlNode.elf:     file format elf32-littlearm

Sections:
Idx Name          Size      VMA       LMA       File off  Algn
  0 .module_info  00000018  080a0000  080a0000  00010000  2**2
                  CONTENTS, ALLOC, LOAD, READONLY, DATA
  1 .text         0000dbd8  080a0018  080a0018  00010018  2**3
                  CONTENTS, ALLOC, LOAD, READONLY, CODE
  2 .ARM.exidx    00000008  080adbf0  080adbf0  0001dbf0  2**2
                  CONTENTS, ALLOC, LOAD, READONLY, DATA
  3 .backup       00000b3c  40024000  080adbf8  00024000  2**2
                  CONTENTS, ALLOC, LOAD, DATA
  4 .data         00000110  20000300  080ae734  00030300  2**2
                  CONTENTS, ALLOC, LOAD, DATA
  5 .bss          00000c5c  20000410  20000410  00040410  2**3
                  ALLOC
  6 .module_info_suffix 00000028  080ae844  080ae844  0003e844  2**0
                  CONTENTS, ALLOC, LOAD, READONLY, DATA
  7 .module_info_crc 00000004  080ae86c  080ae86c  0003e86c  2**0
                  CONTENTS, ALLOC, LOAD, READONLY, DATA
  8 .debug_info   0021a5cc  00000000  00000000  0003e870  2**0
                  CONTENTS, READONLY, DEBUGGING
  9 .debug_abbrev 0002dae7  00000000  00000000  00258e3c  2**0
                  CONTENTS, READONLY, DEBUGGING
 10 .debug_loc    0002aebe  00000000  00000000  00286923  2**0
                  CONTENTS, READONLY, DEBUGGING
 11 .debug_aranges 000035c8  00000000  00000000  002b17e1  2**0
                  CONTENTS, READONLY, DEBUGGING
 12 .debug_ranges 00005860  00000000  00000000  002b4da9  2**0
                  CONTENTS, READONLY, DEBUGGING
 13 .debug_macro  00051e98  00000000  00000000  002ba609  2**0
                  CONTENTS, READONLY, DEBUGGING
 14 .debug_line   000754a6  00000000  00000000  0030c4a1  2**0
                  CONTENTS, READONLY, DEBUGGING
 15 .debug_str    000be33a  00000000  00000000  00381947  2**0
                  CONTENTS, READONLY, DEBUGGING
 16 .debug_frame  00010110  00000000  00000000  0043fc84  2**2
                  CONTENTS, READONLY, DEBUGGING

Disassembly of section .text:

080a0018 <user_part_module>:
 80a0018:	10 c5 0a 08                                         ....

080a001c <module_user_pre_init>:
/**
 * Initializes this user module. Returns the start of the heap.
 */
void* module_user_pre_init() {

    if ( (&link_global_data_start!=&link_global_data_initial_values) && (link_global_data_size != 0))
 80a001c:	4809      	ldr	r0, [pc, #36]	; (80a0044 <module_user_pre_init+0x28>)
 80a001e:	490a      	ldr	r1, [pc, #40]	; (80a0048 <module_user_pre_init+0x2c>)
extern constructor_ptr_t link_constructors_end;

/**
 * Initializes this user module. Returns the start of the heap.
 */
void* module_user_pre_init() {
 80a0020:	b508      	push	{r3, lr}

    if ( (&link_global_data_start!=&link_global_data_initial_values) && (link_global_data_size != 0))
 80a0022:	4288      	cmp	r0, r1
 80a0024:	d005      	beq.n	80a0032 <module_user_pre_init+0x16>
 80a0026:	4a09      	ldr	r2, [pc, #36]	; (80a004c <module_user_pre_init+0x30>)
 80a0028:	4282      	cmp	r2, r0
 80a002a:	d002      	beq.n	80a0032 <module_user_pre_init+0x16>
    {
        memcpy(&link_global_data_start, &link_global_data_initial_values, link_global_data_size);
 80a002c:	1a12      	subs	r2, r2, r0
 80a002e:	f00b fd69 	bl	80abb04 <memcpy>
    }

    memset(&link_bss_location, 0, link_bss_size );
 80a0032:	4807      	ldr	r0, [pc, #28]	; (80a0050 <module_user_pre_init+0x34>)
 80a0034:	4a07      	ldr	r2, [pc, #28]	; (80a0054 <module_user_pre_init+0x38>)
 80a0036:	2100      	movs	r1, #0
 80a0038:	1a12      	subs	r2, r2, r0
 80a003a:	f00b fd89 	bl	80abb50 <memset>
    return &link_heap_start;
}
 80a003e:	4806      	ldr	r0, [pc, #24]	; (80a0058 <module_user_pre_init+0x3c>)
 80a0040:	bd08      	pop	{r3, pc}
 80a0042:	bf00      	nop
 80a0044:	20000300 	.word	0x20000300
 80a0048:	080ae734 	.word	0x080ae734
 80a004c:	20000410 	.word	0x20000410
 80a0050:	20000410 	.word	0x20000410
 80a0054:	2000106c 	.word	0x2000106c
 80a0058:	2000106c 	.word	0x2000106c

080a005c <module_user_init>:
extern constructor_ptr_t link_constructors_location[];
extern constructor_ptr_t link_constructors_end;
#define link_constructors_size   ((unsigned long)&link_constructors_end  -  (unsigned long)&link_constructors_location )

void module_user_init()
{
 80a005c:	b570      	push	{r4, r5, r6, lr}
    module_user_init_hook();
 80a005e:	f007 fc53 	bl	80a7908 <module_user_init_hook>
 80a0062:	4b07      	ldr	r3, [pc, #28]	; (80a0080 <module_user_init+0x24>)
 80a0064:	4c07      	ldr	r4, [pc, #28]	; (80a0084 <module_user_init+0x28>)
 80a0066:	461e      	mov	r6, r3
 80a0068:	1ae4      	subs	r4, r4, r3
 80a006a:	08a4      	lsrs	r4, r4, #2

    // invoke constructors
    int ctor_num;
    for (ctor_num=0; ctor_num < link_constructors_size/sizeof(constructor_ptr_t); ctor_num++ )
 80a006c:	2500      	movs	r5, #0
 80a006e:	42a5      	cmp	r5, r4
 80a0070:	d004      	beq.n	80a007c <module_user_init+0x20>
    {
        link_constructors_location[ctor_num]();
 80a0072:	f856 3025 	ldr.w	r3, [r6, r5, lsl #2]
 80a0076:	4798      	blx	r3
{
    module_user_init_hook();

    // invoke constructors
    int ctor_num;
    for (ctor_num=0; ctor_num < link_constructors_size/sizeof(constructor_ptr_t); ctor_num++ )
 80a0078:	3501      	adds	r5, #1
 80a007a:	e7f8      	b.n	80a006e <module_user_init+0x12>
    {
        link_constructors_location[ctor_num]();
    }
}
 80a007c:	bd70      	pop	{r4, r5, r6, pc}
 80a007e:	bf00      	nop
 80a0080:	080adb20 	.word	0x080adb20
 80a0084:	080adbe8 	.word	0x080adbe8

080a0088 <module_user_setup>:

/**
 * Export these functions with a fuller name so they don't clash with the setup/loop wrappers in the system module.
 */
void module_user_setup() {
    setup();
 80a0088:	f002 ba7c 	b.w	80a2584 <setup>

080a008c <module_user_loop>:
}

void module_user_loop() {
 80a008c:	b508      	push	{r3, lr}
    loop();
 80a008e:	f002 f953 	bl	80a2338 <loop>
    _post_loop();
}
 80a0092:	e8bd 4008 	ldmia.w	sp!, {r3, lr}
    setup();
}

void module_user_loop() {
    loop();
    _post_loop();
 80a0096:	f007 bbf9 	b.w	80a788c <_post_loop>

080a009a <_Znwj>:
 80a009a:	f005 bd89 	b.w	80a5bb0 <malloc>

080a009e <_ZdlPv>:
 80a009e:	f005 bd8f 	b.w	80a5bc0 <free>
	...

080a00a4 <__cxa_pure_virtual>:
        ;
    }
}

/* Default implementation for call made to pure virtual function. */
void __cxa_pure_virtual() {
 80a00a4:	b508      	push	{r3, lr}
  PANIC(PureVirtualCall,"Call on pure virtual");
 80a00a6:	4a03      	ldr	r2, [pc, #12]	; (80a00b4 <__cxa_pure_virtual+0x10>)
 80a00a8:	2100      	movs	r1, #0
 80a00aa:	200c      	movs	r0, #12
 80a00ac:	f005 fc7c 	bl	80a59a8 <panic_>
 80a00b0:	e7fe      	b.n	80a00b0 <__cxa_pure_virtual+0xc>
 80a00b2:	bf00      	nop
 80a00b4:	080a5605 	.word	0x080a5605

080a00b8 <__cxa_guard_acquire>:

/* Provide default implemenation for __cxa_guard_acquire() and
 * __cxa_guard_release(). Note: these must be revisited if a multitasking
 * OS is ported to this platform. */
__extension__ typedef int __guard __attribute__((mode (__DI__)));
int __cxa_guard_acquire(__guard *g) {return !*(char *)(g);};
 80a00b8:	7800      	ldrb	r0, [r0, #0]
 80a00ba:	fab0 f080 	clz	r0, r0
 80a00be:	0940      	lsrs	r0, r0, #5
 80a00c0:	4770      	bx	lr

080a00c2 <__cxa_guard_release>:
void __cxa_guard_release (__guard *g) {*(char *)g = 1;};
 80a00c2:	2301      	movs	r3, #1
 80a00c4:	7003      	strb	r3, [r0, #0]
 80a00c6:	4770      	bx	lr

080a00c8 <_ZN16SensorController10setGasBaseEtt>:
}
*/


bool SensorController::setGasBase(uint16_t eCO2_baseline, uint16_t TVOC_baseline)
{
 80a00c8:	b510      	push	{r4, lr}
  if (!gasSensor.setBaseLine(eCO2_baseline, TVOC_baseline))
 80a00ca:	f500 706e 	add.w	r0, r0, #952	; 0x3b8
 80a00ce:	f003 fa51 	bl	80a3574 <_ZN5SGP3011setBaseLineEtt>
 80a00d2:	4604      	mov	r4, r0
 80a00d4:	b920      	cbnz	r0, 80a00e0 <_ZN16SensorController10setGasBaseEtt+0x18>
  {
    Serial.println("Failed to set baseline readings");
 80a00d6:	f007 ff9b 	bl	80a8010 <_Z16_fetch_usbserialv>
 80a00da:	4902      	ldr	r1, [pc, #8]	; (80a00e4 <_ZN16SensorController10setGasBaseEtt+0x1c>)
 80a00dc:	f006 f993 	bl	80a6406 <_ZN5Print7printlnEPKc>
    return false;
  }
  return true;
}
 80a00e0:	4620      	mov	r0, r4
 80a00e2:	bd10      	pop	{r4, pc}
 80a00e4:	080ac544 	.word	0x080ac544

080a00e8 <_ZN16SensorController13UpdateSensorsEv>:
{
  return gasSensor.returnBaseLine();
}

void SensorController::UpdateSensors()
{
 80a00e8:	e92d 4ff0 	stmdb	sp!, {r4, r5, r6, r7, r8, r9, sl, fp, lr}
 80a00ec:	4604      	mov	r4, r0

  if (savedReadings >= maxSavedReadings)
 80a00ee:	f8d0 390c 	ldr.w	r3, [r0, #2316]	; 0x90c
{
  return gasSensor.returnBaseLine();
}

void SensorController::UpdateSensors()
{
 80a00f2:	b08d      	sub	sp, #52	; 0x34

  if (savedReadings >= maxSavedReadings)
 80a00f4:	2b09      	cmp	r3, #9
  {
    savedReadings = 0;
 80a00f6:	bfc1      	itttt	gt
 80a00f8:	2300      	movgt	r3, #0
 80a00fa:	f8c0 390c 	strgt.w	r3, [r0, #2316]	; 0x90c
    readyToSend = true;
 80a00fe:	2301      	movgt	r3, #1
 80a0100:	f880 3910 	strbgt.w	r3, [r0, #2320]	; 0x910
  }

  //  if (savedReadings == 0) {
  JasonName[0] = "Yr";
 80a0104:	4990      	ldr	r1, [pc, #576]	; (80a0348 <_ZN16SensorController13UpdateSensorsEv+0x260>)
 80a0106:	f600 0038 	addw	r0, r0, #2104	; 0x838
 80a010a:	f006 f80c 	bl	80a6126 <_ZN6StringaSEPKc>
  JasonName[1] = "Mo";
 80a010e:	498f      	ldr	r1, [pc, #572]	; (80a034c <_ZN16SensorController13UpdateSensorsEv+0x264>)
 80a0110:	f604 0048 	addw	r0, r4, #2120	; 0x848
 80a0114:	f006 f807 	bl	80a6126 <_ZN6StringaSEPKc>
  JasonName[2] = "Da";
 80a0118:	498d      	ldr	r1, [pc, #564]	; (80a0350 <_ZN16SensorController13UpdateSensorsEv+0x268>)
 80a011a:	f604 0058 	addw	r0, r4, #2136	; 0x858
 80a011e:	f006 f802 	bl	80a6126 <_ZN6StringaSEPKc>
  JasonName[3] = "Hr";
 80a0122:	498c      	ldr	r1, [pc, #560]	; (80a0354 <_ZN16SensorController13UpdateSensorsEv+0x26c>)
 80a0124:	f604 0068 	addw	r0, r4, #2152	; 0x868
 80a0128:	f005 fffd 	bl	80a6126 <_ZN6StringaSEPKc>
  JasonName[4] = "Mi";
 80a012c:	498a      	ldr	r1, [pc, #552]	; (80a0358 <_ZN16SensorController13UpdateSensorsEv+0x270>)
 80a012e:	f604 0078 	addw	r0, r4, #2168	; 0x878
 80a0132:	f005 fff8 	bl	80a6126 <_ZN6StringaSEPKc>
  JasonName[5] = "Sc";
 80a0136:	4989      	ldr	r1, [pc, #548]	; (80a035c <_ZN16SensorController13UpdateSensorsEv+0x274>)
 80a0138:	f604 0088 	addw	r0, r4, #2184	; 0x888
 80a013c:	f005 fff3 	bl	80a6126 <_ZN6StringaSEPKc>
  JasonName[6] = "Zo";
 80a0140:	4987      	ldr	r1, [pc, #540]	; (80a0360 <_ZN16SensorController13UpdateSensorsEv+0x278>)
 80a0142:	f604 0098 	addw	r0, r4, #2200	; 0x898
 80a0146:	f005 ffee 	bl	80a6126 <_ZN6StringaSEPKc>

  int count = 7;
  for (size_t i = 0; i < sensorsConnected.size(); i++)
 80a014a:	f04f 0800 	mov.w	r8, #0
  JasonName[3] = "Hr";
  JasonName[4] = "Mi";
  JasonName[5] = "Sc";
  JasonName[6] = "Zo";

  int count = 7;
 80a014e:	2507      	movs	r5, #7
  for (size_t i = 0; i < sensorsConnected.size(); i++)
 80a0150:	6963      	ldr	r3, [r4, #20]
 80a0152:	6922      	ldr	r2, [r4, #16]
 80a0154:	1a9b      	subs	r3, r3, r2
 80a0156:	ebb8 0fa3 	cmp.w	r8, r3, asr #2
 80a015a:	d21b      	bcs.n	80a0194 <_ZN16SensorController13UpdateSensorsEv+0xac>
 80a015c:	ea4f 0988 	mov.w	r9, r8, lsl #2
 80a0160:	2700      	movs	r7, #0
  {
    //    Serial.println("Updating " + sensorsConnected[i]->getName());
    for (int j = 0; j < sensorsConnected[i]->getNumberSensors(); j++)
 80a0162:	6922      	ldr	r2, [r4, #16]
 80a0164:	19eb      	adds	r3, r5, r7
 80a0166:	f852 0009 	ldr.w	r0, [r2, r9]
 80a016a:	6942      	ldr	r2, [r0, #20]
 80a016c:	4297      	cmp	r7, r2
 80a016e:	da0d      	bge.n	80a018c <_ZN16SensorController13UpdateSensorsEv+0xa4>
 80a0170:	eb04 1303 	add.w	r3, r4, r3, lsl #4
 80a0174:	f603 0638 	addw	r6, r3, #2104	; 0x838
    {
      JasonName[count] = (sensorsConnected[i]->getJSONCodes())[j];
 80a0178:	6803      	ldr	r3, [r0, #0]
 80a017a:	691b      	ldr	r3, [r3, #16]
 80a017c:	4798      	blx	r3
 80a017e:	eb00 1107 	add.w	r1, r0, r7, lsl #4
 80a0182:	4630      	mov	r0, r6
 80a0184:	f005 ffad 	bl	80a60e2 <_ZN6StringaSERKS_>

  int count = 7;
  for (size_t i = 0; i < sensorsConnected.size(); i++)
  {
    //    Serial.println("Updating " + sensorsConnected[i]->getName());
    for (int j = 0; j < sensorsConnected[i]->getNumberSensors(); j++)
 80a0188:	3701      	adds	r7, #1
 80a018a:	e7ea      	b.n	80a0162 <_ZN16SensorController13UpdateSensorsEv+0x7a>
  JasonName[4] = "Mi";
  JasonName[5] = "Sc";
  JasonName[6] = "Zo";

  int count = 7;
  for (size_t i = 0; i < sensorsConnected.size(); i++)
 80a018c:	f108 0801 	add.w	r8, r8, #1
 80a0190:	461d      	mov	r5, r3
 80a0192:	e7dd      	b.n	80a0150 <_ZN16SensorController13UpdateSensorsEv+0x68>
 80a0194:	eb04 1605 	add.w	r6, r4, r5, lsl #4
 80a0198:	f606 0638 	addw	r6, r6, #2104	; 0x838
    {
      JasonName[count] = (sensorsConnected[i]->getJSONCodes())[j];
      count++;
    }
  }
  for (int i = count; i < nStaticReadings; i++)
 80a019c:	2d0c      	cmp	r5, #12
 80a019e:	dc06      	bgt.n	80a01ae <_ZN16SensorController13UpdateSensorsEv+0xc6>
  {
    JasonName[i] = "--";
 80a01a0:	4630      	mov	r0, r6
 80a01a2:	4970      	ldr	r1, [pc, #448]	; (80a0364 <_ZN16SensorController13UpdateSensorsEv+0x27c>)
 80a01a4:	f005 ffbf 	bl	80a6126 <_ZN6StringaSEPKc>
    {
      JasonName[count] = (sensorsConnected[i]->getJSONCodes())[j];
      count++;
    }
  }
  for (int i = count; i < nStaticReadings; i++)
 80a01a8:	3501      	adds	r5, #1
 80a01aa:	3610      	adds	r6, #16
 80a01ac:	e7f6      	b.n	80a019c <_ZN16SensorController13UpdateSensorsEv+0xb4>
  //  latestReadingValues[3] = Time.hour();
  //  latestReadingValues[4] = Time.minute();
  //  latestReadingValues[5] = Time.second();
  //latestReadingValues[6] = 10;

  staticReadings[savedReadings][0] = Time.year();
 80a01ae:	f8d4 690c 	ldr.w	r6, [r4, #2316]	; 0x90c
 80a01b2:	f007 fafd 	bl	80a77b0 <_ZN9TimeClass4yearEv>
 80a01b6:	f00a fadf 	bl	80aa778 <__aeabi_i2d>
 80a01ba:	2568      	movs	r5, #104	; 0x68
 80a01bc:	fb05 4606 	mla	r6, r5, r6, r4
 80a01c0:	f506 6685 	add.w	r6, r6, #1064	; 0x428
 80a01c4:	e9c6 0100 	strd	r0, r1, [r6]
  staticReadings[savedReadings][1] = Time.month();
 80a01c8:	f8d4 690c 	ldr.w	r6, [r4, #2316]	; 0x90c
 80a01cc:	f007 fae8 	bl	80a77a0 <_ZN9TimeClass5monthEv>
 80a01d0:	f00a fad2 	bl	80aa778 <__aeabi_i2d>
 80a01d4:	fb05 4606 	mla	r6, r5, r6, r4
 80a01d8:	f506 6686 	add.w	r6, r6, #1072	; 0x430
 80a01dc:	e9c6 0100 	strd	r0, r1, [r6]
  staticReadings[savedReadings][2] = Time.day();
 80a01e0:	f8d4 690c 	ldr.w	r6, [r4, #2316]	; 0x90c
 80a01e4:	f007 fad2 	bl	80a778c <_ZN9TimeClass3dayEv>
 80a01e8:	f00a fac6 	bl	80aa778 <__aeabi_i2d>
 80a01ec:	fb05 4606 	mla	r6, r5, r6, r4
 80a01f0:	f506 6687 	add.w	r6, r6, #1080	; 0x438
 80a01f4:	e9c6 0100 	strd	r0, r1, [r6]
  staticReadings[savedReadings][3] = Time.hour();
 80a01f8:	f8d4 690c 	ldr.w	r6, [r4, #2316]	; 0x90c
 80a01fc:	f007 faa8 	bl	80a7750 <_ZN9TimeClass4hourEv>
 80a0200:	f00a faba 	bl	80aa778 <__aeabi_i2d>
 80a0204:	fb05 4606 	mla	r6, r5, r6, r4
 80a0208:	f506 6688 	add.w	r6, r6, #1088	; 0x440
 80a020c:	e9c6 0100 	strd	r0, r1, [r6]
  staticReadings[savedReadings][4] = Time.minute();
 80a0210:	f8d4 690c 	ldr.w	r6, [r4, #2316]	; 0x90c
 80a0214:	f007 faa6 	bl	80a7764 <_ZN9TimeClass6minuteEv>
 80a0218:	f00a faae 	bl	80aa778 <__aeabi_i2d>
 80a021c:	fb05 4606 	mla	r6, r5, r6, r4
 80a0220:	f506 6689 	add.w	r6, r6, #1096	; 0x448
 80a0224:	e9c6 0100 	strd	r0, r1, [r6]
  staticReadings[savedReadings][5] = Time.second();
 80a0228:	f8d4 690c 	ldr.w	r6, [r4, #2316]	; 0x90c
 80a022c:	f007 faa4 	bl	80a7778 <_ZN9TimeClass6secondEv>
 80a0230:	f00a faa2 	bl	80aa778 <__aeabi_i2d>
 80a0234:	fb05 4606 	mla	r6, r5, r6, r4
 80a0238:	f506 668a 	add.w	r6, r6, #1104	; 0x450
 80a023c:	e9c6 0100 	strd	r0, r1, [r6]
  staticReadings[savedReadings][6] = 10;
 80a0240:	f8d4 390c 	ldr.w	r3, [r4, #2316]	; 0x90c
 80a0244:	2200      	movs	r2, #0
 80a0246:	fb05 4503 	mla	r5, r5, r3, r4
 80a024a:	4b47      	ldr	r3, [pc, #284]	; (80a0368 <_ZN16SensorController13UpdateSensorsEv+0x280>)
 80a024c:	f505 658b 	add.w	r5, r5, #1112	; 0x458
 80a0250:	e9c5 2300 	strd	r2, r3, [r5]

  count = 7;
  for (size_t i = 0; i < sensorsConnected.size(); i++)
 80a0254:	f04f 0900 	mov.w	r9, #0
  staticReadings[savedReadings][3] = Time.hour();
  staticReadings[savedReadings][4] = Time.minute();
  staticReadings[savedReadings][5] = Time.second();
  staticReadings[savedReadings][6] = 10;

  count = 7;
 80a0258:	2507      	movs	r5, #7
    sensorsConnected[i]->UpdateReading();
    //    Serial.println("Updating " + sensorsConnected[i]->getName());
    for (int j = 0; j < sensorsConnected[i]->getNumberSensors(); j++)
    {
      //  latestReadingValues[count] = (sensorsConnected[i]->getLatestValues())[j];
      staticReadings[savedReadings][count] = (sensorsConnected[i]->getLatestValues())[j];
 80a025a:	270d      	movs	r7, #13

      // [23.2.4.2] capacity
      /**  Returns the number of elements in the %vector.  */
      size_type
      size() const _GLIBCXX_NOEXCEPT
      { return size_type(this->_M_impl._M_finish - this->_M_impl._M_start); }
 80a025c:	6922      	ldr	r2, [r4, #16]
  staticReadings[savedReadings][4] = Time.minute();
  staticReadings[savedReadings][5] = Time.second();
  staticReadings[savedReadings][6] = 10;

  count = 7;
  for (size_t i = 0; i < sensorsConnected.size(); i++)
 80a025e:	6963      	ldr	r3, [r4, #20]
 80a0260:	1a9b      	subs	r3, r3, r2
 80a0262:	ebb9 0fa3 	cmp.w	r9, r3, asr #2
 80a0266:	d227      	bcs.n	80a02b8 <_ZN16SensorController13UpdateSensorsEv+0x1d0>
  {
    sensorsConnected[i]->UpdateReading();
 80a0268:	f852 0029 	ldr.w	r0, [r2, r9, lsl #2]
 80a026c:	ea4f 0889 	mov.w	r8, r9, lsl #2
 80a0270:	6803      	ldr	r3, [r0, #0]
    //    Serial.println("Updating " + sensorsConnected[i]->getName());
    for (int j = 0; j < sensorsConnected[i]->getNumberSensors(); j++)
 80a0272:	f04f 0a00 	mov.w	sl, #0
  staticReadings[savedReadings][6] = 10;

  count = 7;
  for (size_t i = 0; i < sensorsConnected.size(); i++)
  {
    sensorsConnected[i]->UpdateReading();
 80a0276:	685b      	ldr	r3, [r3, #4]
 80a0278:	4798      	blx	r3
    //    Serial.println("Updating " + sensorsConnected[i]->getName());
    for (int j = 0; j < sensorsConnected[i]->getNumberSensors(); j++)
 80a027a:	6923      	ldr	r3, [r4, #16]
 80a027c:	eb05 0b0a 	add.w	fp, r5, sl
 80a0280:	f853 0008 	ldr.w	r0, [r3, r8]
 80a0284:	6943      	ldr	r3, [r0, #20]
 80a0286:	459a      	cmp	sl, r3
 80a0288:	da12      	bge.n	80a02b0 <_ZN16SensorController13UpdateSensorsEv+0x1c8>
    {
      //  latestReadingValues[count] = (sensorsConnected[i]->getLatestValues())[j];
      staticReadings[savedReadings][count] = (sensorsConnected[i]->getLatestValues())[j];
 80a028a:	6803      	ldr	r3, [r0, #0]
 80a028c:	f8d4 690c 	ldr.w	r6, [r4, #2316]	; 0x90c
 80a0290:	68db      	ldr	r3, [r3, #12]
 80a0292:	4798      	blx	r3
 80a0294:	fb07 b606 	mla	r6, r7, r6, fp
 80a0298:	3685      	adds	r6, #133	; 0x85
 80a029a:	eb00 00ca 	add.w	r0, r0, sl, lsl #3
 80a029e:	eb04 06c6 	add.w	r6, r4, r6, lsl #3
 80a02a2:	e9d0 2300 	ldrd	r2, r3, [r0]
  count = 7;
  for (size_t i = 0; i < sensorsConnected.size(); i++)
  {
    sensorsConnected[i]->UpdateReading();
    //    Serial.println("Updating " + sensorsConnected[i]->getName());
    for (int j = 0; j < sensorsConnected[i]->getNumberSensors(); j++)
 80a02a6:	f10a 0a01 	add.w	sl, sl, #1
    {
      //  latestReadingValues[count] = (sensorsConnected[i]->getLatestValues())[j];
      staticReadings[savedReadings][count] = (sensorsConnected[i]->getLatestValues())[j];
 80a02aa:	e9c6 2300 	strd	r2, r3, [r6]
  count = 7;
  for (size_t i = 0; i < sensorsConnected.size(); i++)
  {
    sensorsConnected[i]->UpdateReading();
    //    Serial.println("Updating " + sensorsConnected[i]->getName());
    for (int j = 0; j < sensorsConnected[i]->getNumberSensors(); j++)
 80a02ae:	e7e4      	b.n	80a027a <_ZN16SensorController13UpdateSensorsEv+0x192>
  staticReadings[savedReadings][4] = Time.minute();
  staticReadings[savedReadings][5] = Time.second();
  staticReadings[savedReadings][6] = 10;

  count = 7;
  for (size_t i = 0; i < sensorsConnected.size(); i++)
 80a02b0:	f109 0901 	add.w	r9, r9, #1
 80a02b4:	465d      	mov	r5, fp
 80a02b6:	e7d1      	b.n	80a025c <_ZN16SensorController13UpdateSensorsEv+0x174>
      count++;
    }
  }
  for (size_t i = count; i < nStaticReadings; i++)
  {
    staticReadings[savedReadings][i] = -1;
 80a02b8:	492c      	ldr	r1, [pc, #176]	; (80a036c <_ZN16SensorController13UpdateSensorsEv+0x284>)
      //  latestReadingValues[count] = (sensorsConnected[i]->getLatestValues())[j];
      staticReadings[savedReadings][count] = (sensorsConnected[i]->getLatestValues())[j];
      count++;
    }
  }
  for (size_t i = count; i < nStaticReadings; i++)
 80a02ba:	462b      	mov	r3, r5
  {
    staticReadings[savedReadings][i] = -1;
 80a02bc:	2000      	movs	r0, #0
 80a02be:	250d      	movs	r5, #13
      //  latestReadingValues[count] = (sensorsConnected[i]->getLatestValues())[j];
      staticReadings[savedReadings][count] = (sensorsConnected[i]->getLatestValues())[j];
      count++;
    }
  }
  for (size_t i = count; i < nStaticReadings; i++)
 80a02c0:	2b0c      	cmp	r3, #12
 80a02c2:	d80a      	bhi.n	80a02da <_ZN16SensorController13UpdateSensorsEv+0x1f2>
  {
    staticReadings[savedReadings][i] = -1;
 80a02c4:	f8d4 290c 	ldr.w	r2, [r4, #2316]	; 0x90c
 80a02c8:	fb05 3202 	mla	r2, r5, r2, r3
 80a02cc:	3285      	adds	r2, #133	; 0x85
 80a02ce:	eb04 02c2 	add.w	r2, r4, r2, lsl #3
 80a02d2:	e9c2 0100 	strd	r0, r1, [r2]
      //  latestReadingValues[count] = (sensorsConnected[i]->getLatestValues())[j];
      staticReadings[savedReadings][count] = (sensorsConnected[i]->getLatestValues())[j];
      count++;
    }
  }
  for (size_t i = count; i < nStaticReadings; i++)
 80a02d6:	3301      	adds	r3, #1
 80a02d8:	e7f2      	b.n	80a02c0 <_ZN16SensorController13UpdateSensorsEv+0x1d8>
  {
    staticReadings[savedReadings][i] = -1;
  }
  Serial.println("Saved " + String(savedReadings) + " Readings. \tMemory free: \t" + String(System.freeMemory()));
 80a02da:	f007 fe99 	bl	80a8010 <_Z16_fetch_usbserialv>

class StringSumHelper : public String
{
public:
	StringSumHelper(const String &s) : String(s) {}
	StringSumHelper(const char *p) : String(p) {}
 80a02de:	4924      	ldr	r1, [pc, #144]	; (80a0370 <_ZN16SensorController13UpdateSensorsEv+0x288>)
 80a02e0:	4605      	mov	r5, r0
 80a02e2:	a804      	add	r0, sp, #16
 80a02e4:	f005 fecd 	bl	80a6082 <_ZN6StringC1EPK19__FlashStringHelper>
 80a02e8:	220a      	movs	r2, #10
 80a02ea:	f8d4 190c 	ldr.w	r1, [r4, #2316]	; 0x90c
 80a02ee:	4668      	mov	r0, sp
 80a02f0:	f005 ff3c 	bl	80a616c <_ZN6StringC1Eih>
 80a02f4:	4669      	mov	r1, sp
 80a02f6:	a804      	add	r0, sp, #16
 80a02f8:	f005 ffcb 	bl	80a6292 <_ZplRK15StringSumHelperRK6String>
 80a02fc:	491d      	ldr	r1, [pc, #116]	; (80a0374 <_ZN16SensorController13UpdateSensorsEv+0x28c>)
 80a02fe:	f005 ffd4 	bl	80a62aa <_ZplRK15StringSumHelperPKc>
 80a0302:	4606      	mov	r6, r0
 80a0304:	f005 fd44 	bl	80a5d90 <_ZN11SystemClass10freeMemoryEv>
 80a0308:	220a      	movs	r2, #10
 80a030a:	4601      	mov	r1, r0
 80a030c:	a808      	add	r0, sp, #32
 80a030e:	f005 ff53 	bl	80a61b8 <_ZN6StringC1Emh>
 80a0312:	a908      	add	r1, sp, #32
 80a0314:	4630      	mov	r0, r6
 80a0316:	f005 ffbc 	bl	80a6292 <_ZplRK15StringSumHelperRK6String>
 80a031a:	6801      	ldr	r1, [r0, #0]
 80a031c:	4628      	mov	r0, r5
 80a031e:	f006 f872 	bl	80a6406 <_ZN5Print7printlnEPKc>
 80a0322:	a808      	add	r0, sp, #32
 80a0324:	f005 fe66 	bl	80a5ff4 <_ZN6StringD1Ev>
 80a0328:	4668      	mov	r0, sp
 80a032a:	f005 fe63 	bl	80a5ff4 <_ZN6StringD1Ev>

        friend class StringPrintableHelper;

};

class StringSumHelper : public String
 80a032e:	a804      	add	r0, sp, #16
 80a0330:	f005 fe60 	bl	80a5ff4 <_ZN6StringD1Ev>

  if (savedReadings < maxSavedReadings)
 80a0334:	f8d4 390c 	ldr.w	r3, [r4, #2316]	; 0x90c
 80a0338:	2b09      	cmp	r3, #9
  {
    savedReadings++;
 80a033a:	bfdc      	itt	le
 80a033c:	3301      	addle	r3, #1
 80a033e:	f8c4 390c 	strle.w	r3, [r4, #2316]	; 0x90c
data.concat("\"Zo\": " + String(10) + " }");


-----
*/
}
 80a0342:	b00d      	add	sp, #52	; 0x34
 80a0344:	e8bd 8ff0 	ldmia.w	sp!, {r4, r5, r6, r7, r8, r9, sl, fp, pc}
 80a0348:	080ac564 	.word	0x080ac564
 80a034c:	080ac567 	.word	0x080ac567
 80a0350:	080ac56a 	.word	0x080ac56a
 80a0354:	080ac56d 	.word	0x080ac56d
 80a0358:	080ac570 	.word	0x080ac570
 80a035c:	080ac573 	.word	0x080ac573
 80a0360:	080ac576 	.word	0x080ac576
 80a0364:	080ac579 	.word	0x080ac579
 80a0368:	40240000 	.word	0x40240000
 80a036c:	bff00000 	.word	0xbff00000
 80a0370:	080ac57c 	.word	0x080ac57c
 80a0374:	080ac583 	.word	0x080ac583

080a0378 <_ZNSt6vectorIP10SensorBaseSaIS1_EE19_M_emplace_back_auxIIS1_EEEvDpOT_>:

#if __cplusplus >= 201103L
  template<typename _Tp, typename _Alloc>
    template<typename... _Args>
      void
      vector<_Tp, _Alloc>::
 80a0378:	e92d 43f8 	stmdb	sp!, {r3, r4, r5, r6, r7, r8, r9, lr}
 80a037c:	6843      	ldr	r3, [r0, #4]
 80a037e:	6804      	ldr	r4, [r0, #0]
 80a0380:	4606      	mov	r6, r0
 80a0382:	1b1c      	subs	r4, r3, r4
    {
      // concept requirements
      __glibcxx_function_requires(_LessThanComparableConcept<_Tp>)
      //return  __a < __b ? __b : __a;
      if (__a < __b)
	return __b;
 80a0384:	10a4      	asrs	r4, r4, #2
 80a0386:	bf14      	ite	ne
 80a0388:	4623      	movne	r3, r4
 80a038a:	2301      	moveq	r3, #1
      {
	if (max_size() - size() < __n)
	  __throw_length_error(__N(__s));

	const size_type __len = size() + std::max(size(), __n);
	return (__len < size() || __len > max_size()) ? max_size() : __len;
 80a038c:	18e4      	adds	r4, r4, r3
 80a038e:	4689      	mov	r9, r1
 80a0390:	d202      	bcs.n	80a0398 <_ZNSt6vectorIP10SensorBaseSaIS1_EE19_M_emplace_back_auxIIS1_EEEvDpOT_+0x20>
 80a0392:	f1b4 4f80 	cmp.w	r4, #1073741824	; 0x40000000
 80a0396:	d325      	bcc.n	80a03e4 <_ZNSt6vectorIP10SensorBaseSaIS1_EE19_M_emplace_back_auxIIS1_EEEvDpOT_+0x6c>
 80a0398:	f06f 4440 	mvn.w	r4, #3221225472	; 0xc0000000
      allocate(size_type __n, const void* = 0)
      { 
	if (__n > this->max_size())
	  std::__throw_bad_alloc();

	return static_cast<_Tp*>(::operator new(__n * sizeof(_Tp)));
 80a039c:	00a0      	lsls	r0, r4, #2
 80a039e:	f7ff fe7c 	bl	80a009a <_Znwj>
 80a03a2:	4607      	mov	r7, r0

      // [23.2.4.2] capacity
      /**  Returns the number of elements in the %vector.  */
      size_type
      size() const _GLIBCXX_NOEXCEPT
      { return size_type(this->_M_impl._M_finish - this->_M_impl._M_start); }
 80a03a4:	f8d6 8000 	ldr.w	r8, [r6]
 80a03a8:	6875      	ldr	r5, [r6, #4]

#if __cplusplus >= 201103L
      template<typename _Up, typename... _Args>
        void
        construct(_Up* __p, _Args&&... __args)
	{ ::new((void *)__p) _Up(std::forward<_Args>(__args)...); }
 80a03aa:	f8d9 3000 	ldr.w	r3, [r9]
 80a03ae:	ebc8 0505 	rsb	r5, r8, r5
 80a03b2:	42ef      	cmn	r7, r5
 80a03b4:	bf18      	it	ne
 80a03b6:	517b      	strne	r3, [r7, r5]
	  // trivial types can have deleted assignment
	  static_assert( is_copy_assignable<_Tp>::value,
	                 "type is not assignable" );
#endif
	  const ptrdiff_t _Num = __last - __first;
	  if (_Num)
 80a03b8:	08ab      	lsrs	r3, r5, #2
 80a03ba:	d004      	beq.n	80a03c6 <_ZNSt6vectorIP10SensorBaseSaIS1_EE19_M_emplace_back_auxIIS1_EEEvDpOT_+0x4e>
	    __builtin_memmove(__result, __first, sizeof(_Tp) * _Num);
 80a03bc:	462a      	mov	r2, r5
 80a03be:	4641      	mov	r1, r8
 80a03c0:	4638      	mov	r0, r7
 80a03c2:	f00b fbaa 	bl	80abb1a <memmove>
	    __new_finish
	      = std::__uninitialized_move_if_noexcept_a
	      (this->_M_impl._M_start, this->_M_impl._M_finish,
	       __new_start, _M_get_Tp_allocator());

	    ++__new_finish;
 80a03c6:	3504      	adds	r5, #4
 80a03c8:	443d      	add	r5, r7

      void
      _M_deallocate(pointer __p, size_t __n)
      {
	typedef __gnu_cxx::__alloc_traits<_Tp_alloc_type> _Tr;
	if (__p)
 80a03ca:	f1b8 0f00 	cmp.w	r8, #0
 80a03ce:	d002      	beq.n	80a03d6 <_ZNSt6vectorIP10SensorBaseSaIS1_EE19_M_emplace_back_auxIIS1_EEEvDpOT_+0x5e>
      }

      // __p is not permitted to be a null pointer.
      void
      deallocate(pointer __p, size_type)
      { ::operator delete(__p); }
 80a03d0:	4640      	mov	r0, r8
 80a03d2:	f7ff fe64 	bl	80a009e <_ZdlPv>
	_M_deallocate(this->_M_impl._M_start,
		      this->_M_impl._M_end_of_storage
		      - this->_M_impl._M_start);
	this->_M_impl._M_start = __new_start;
	this->_M_impl._M_finish = __new_finish;
	this->_M_impl._M_end_of_storage = __new_start + __len;
 80a03d6:	eb07 0484 	add.w	r4, r7, r4, lsl #2
	std::_Destroy(this->_M_impl._M_start, this->_M_impl._M_finish,
		      _M_get_Tp_allocator());
	_M_deallocate(this->_M_impl._M_start,
		      this->_M_impl._M_end_of_storage
		      - this->_M_impl._M_start);
	this->_M_impl._M_start = __new_start;
 80a03da:	6037      	str	r7, [r6, #0]
	this->_M_impl._M_finish = __new_finish;
 80a03dc:	6075      	str	r5, [r6, #4]
	this->_M_impl._M_end_of_storage = __new_start + __len;
 80a03de:	60b4      	str	r4, [r6, #8]
      }
 80a03e0:	e8bd 83f8 	ldmia.w	sp!, {r3, r4, r5, r6, r7, r8, r9, pc}

      pointer
      _M_allocate(size_t __n)
      {
	typedef __gnu_cxx::__alloc_traits<_Tp_alloc_type> _Tr;
	return __n != 0 ? _Tr::allocate(_M_impl, __n) : pointer();
 80a03e4:	2c00      	cmp	r4, #0
 80a03e6:	d1d9      	bne.n	80a039c <_ZNSt6vectorIP10SensorBaseSaIS1_EE19_M_emplace_back_auxIIS1_EEEvDpOT_+0x24>
 80a03e8:	4627      	mov	r7, r4
 80a03ea:	e7db      	b.n	80a03a4 <_ZNSt6vectorIP10SensorBaseSaIS1_EE19_M_emplace_back_auxIIS1_EEEvDpOT_+0x2c>

080a03ec <_ZNSt6vectorIP10SensorBaseSaIS1_EE12emplace_backIIS1_EEEvDpOT_>:

#if __cplusplus >= 201103L
  template<typename _Tp, typename _Alloc>
    template<typename... _Args>
      void
      vector<_Tp, _Alloc>::
 80a03ec:	b538      	push	{r3, r4, r5, lr}
      emplace_back(_Args&&... __args)
      {
	if (this->_M_impl._M_finish != this->_M_impl._M_end_of_storage)
 80a03ee:	6842      	ldr	r2, [r0, #4]
 80a03f0:	6885      	ldr	r5, [r0, #8]

#if __cplusplus >= 201103L
  template<typename _Tp, typename _Alloc>
    template<typename... _Args>
      void
      vector<_Tp, _Alloc>::
 80a03f2:	4603      	mov	r3, r0
      emplace_back(_Args&&... __args)
      {
	if (this->_M_impl._M_finish != this->_M_impl._M_end_of_storage)
 80a03f4:	42aa      	cmp	r2, r5
 80a03f6:	d006      	beq.n	80a0406 <_ZNSt6vectorIP10SensorBaseSaIS1_EE12emplace_backIIS1_EEEvDpOT_+0x1a>

#if __cplusplus >= 201103L
      template<typename _Up, typename... _Args>
        void
        construct(_Up* __p, _Args&&... __args)
	{ ::new((void *)__p) _Up(std::forward<_Args>(__args)...); }
 80a03f8:	6809      	ldr	r1, [r1, #0]
 80a03fa:	b102      	cbz	r2, 80a03fe <_ZNSt6vectorIP10SensorBaseSaIS1_EE12emplace_backIIS1_EEEvDpOT_+0x12>
 80a03fc:	6011      	str	r1, [r2, #0]
	  {
	    _Alloc_traits::construct(this->_M_impl, this->_M_impl._M_finish,
				     std::forward<_Args>(__args)...);
	    ++this->_M_impl._M_finish;
 80a03fe:	685a      	ldr	r2, [r3, #4]
 80a0400:	3204      	adds	r2, #4
 80a0402:	605a      	str	r2, [r3, #4]
 80a0404:	bd38      	pop	{r3, r4, r5, pc}
	  }
	else
	  _M_emplace_back_aux(std::forward<_Args>(__args)...);
 80a0406:	f7ff ffb7 	bl	80a0378 <_ZNSt6vectorIP10SensorBaseSaIS1_EE19_M_emplace_back_auxIIS1_EEEvDpOT_>
 80a040a:	bd38      	pop	{r3, r4, r5, pc}

080a040c <_ZN16SensorController12SetupSensorsEv>:
//using namespace std;

// Add new sensors here, will automatically update and publicate them using
// overloaded functions.
void SensorController::SetupSensors()
{
 80a040c:	b5f0      	push	{r4, r5, r6, r7, lr}
 80a040e:	4604      	mov	r4, r0
 80a0410:	b0b1      	sub	sp, #196	; 0xc4
  weatherSensor = BME280();
 80a0412:	f100 0760 	add.w	r7, r0, #96	; 0x60
 80a0416:	4668      	mov	r0, sp
 80a0418:	f002 fc88 	bl	80a2d2c <_ZN6BME280C1Ev>
//using namespace std;


//======================================
// The Class
class SensorBase
 80a041c:	a901      	add	r1, sp, #4
 80a041e:	f104 0064 	add.w	r0, r4, #100	; 0x64
 80a0422:	f005 fe78 	bl	80a6116 <_ZN6StringaSEOS_>
 80a0426:	9b05      	ldr	r3, [sp, #20]
//using namespace std;


//======================================
// The Class
class BME280 : public SensorBase
 80a0428:	f104 057c 	add.w	r5, r4, #124	; 0x7c
 80a042c:	6763      	str	r3, [r4, #116]	; 0x74
 80a042e:	f89d 3018 	ldrb.w	r3, [sp, #24]
 80a0432:	ae07      	add	r6, sp, #28
 80a0434:	f884 3078 	strb.w	r3, [r4, #120]	; 0x78
 80a0438:	ce0f      	ldmia	r6!, {r0, r1, r2, r3}
 80a043a:	c50f      	stmia	r5!, {r0, r1, r2, r3}
 80a043c:	ce0f      	ldmia	r6!, {r0, r1, r2, r3}
 80a043e:	c50f      	stmia	r5!, {r0, r1, r2, r3}
 80a0440:	ce0f      	ldmia	r6!, {r0, r1, r2, r3}
 80a0442:	c50f      	stmia	r5!, {r0, r1, r2, r3}
 80a0444:	e896 000f 	ldmia.w	r6, {r0, r1, r2, r3}
 80a0448:	f104 06e0 	add.w	r6, r4, #224	; 0xe0
 80a044c:	e885 000f 	stmia.w	r5, {r0, r1, r2, r3}
 80a0450:	f104 03c0 	add.w	r3, r4, #192	; 0xc0
 80a0454:	aa16      	add	r2, sp, #88	; 0x58
 80a0456:	e9f2 0102 	ldrd	r0, r1, [r2, #8]!
 80a045a:	e8e3 0102 	strd	r0, r1, [r3], #8
 80a045e:	42b3      	cmp	r3, r6
 80a0460:	d1f9      	bne.n	80a0456 <_ZN16SensorController12SetupSensorsEv+0x4a>
 80a0462:	2500      	movs	r5, #0
 80a0464:	f105 0180 	add.w	r1, r5, #128	; 0x80
 80a0468:	1970      	adds	r0, r6, r5
 80a046a:	4469      	add	r1, sp
 80a046c:	3510      	adds	r5, #16
 80a046e:	f005 fe52 	bl	80a6116 <_ZN6StringaSEOS_>
 80a0472:	2d40      	cmp	r5, #64	; 0x40
 80a0474:	d1f6      	bne.n	80a0464 <_ZN16SensorController12SetupSensorsEv+0x58>
 80a0476:	4b44      	ldr	r3, [pc, #272]	; (80a0588 <_ZN16SensorController12SetupSensorsEv+0x17c>)
 80a0478:	a82c      	add	r0, sp, #176	; 0xb0
 80a047a:	9300      	str	r3, [sp, #0]
 80a047c:	f005 fdba 	bl	80a5ff4 <_ZN6StringD1Ev>
 80a0480:	a828      	add	r0, sp, #160	; 0xa0
 80a0482:	f005 fdb7 	bl	80a5ff4 <_ZN6StringD1Ev>
 80a0486:	a824      	add	r0, sp, #144	; 0x90
 80a0488:	f005 fdb4 	bl	80a5ff4 <_ZN6StringD1Ev>
 80a048c:	4d3f      	ldr	r5, [pc, #252]	; (80a058c <_ZN16SensorController12SetupSensorsEv+0x180>)
 80a048e:	a820      	add	r0, sp, #128	; 0x80
 80a0490:	f005 fdb0 	bl	80a5ff4 <_ZN6StringD1Ev>
 80a0494:	a801      	add	r0, sp, #4
 80a0496:	9500      	str	r5, [sp, #0]
 80a0498:	f005 fdac 	bl	80a5ff4 <_ZN6StringD1Ev>
  if (weatherSensor.Connect())
 80a049c:	4638      	mov	r0, r7
 80a049e:	f002 fb4b 	bl	80a2b38 <_ZN6BME2807ConnectEv>
  {
    sensorsConnected.push_back(&weatherSensor);
 80a04a2:	9700      	str	r7, [sp, #0]
      }

#if __cplusplus >= 201103L
      void
      push_back(value_type&& __x)
      { emplace_back(std::move(__x)); }
 80a04a4:	4669      	mov	r1, sp
// Add new sensors here, will automatically update and publicate them using
// overloaded functions.
void SensorController::SetupSensors()
{
  weatherSensor = BME280();
  if (weatherSensor.Connect())
 80a04a6:	b150      	cbz	r0, 80a04be <_ZN16SensorController12SetupSensorsEv+0xb2>
 80a04a8:	f104 0010 	add.w	r0, r4, #16
 80a04ac:	f7ff ff9e 	bl	80a03ec <_ZNSt6vectorIP10SensorBaseSaIS1_EE12emplace_backIIS1_EEEvDpOT_>
  {
    sensorsConnected.push_back(&weatherSensor);
    totalReadings += weatherSensor.getNumberSensors();
 80a04b0:	f8d4 2908 	ldr.w	r2, [r4, #2312]	; 0x908
 80a04b4:	6f63      	ldr	r3, [r4, #116]	; 0x74
 80a04b6:	4413      	add	r3, r2
 80a04b8:	f8c4 3908 	str.w	r3, [r4, #2312]	; 0x908
 80a04bc:	e003      	b.n	80a04c6 <_ZN16SensorController12SetupSensorsEv+0xba>
 80a04be:	f104 001c 	add.w	r0, r4, #28
 80a04c2:	f7ff ff93 	bl	80a03ec <_ZNSt6vectorIP10SensorBaseSaIS1_EE12emplace_backIIS1_EEEvDpOT_>
  }
  else
  {
    errorSensors.push_back(&weatherSensor);
  }
  delay(100);
 80a04c6:	2064      	movs	r0, #100	; 0x64
 80a04c8:	f007 f986 	bl	80a77d8 <delay>
  gasSensor = SGP30();
 80a04cc:	4668      	mov	r0, sp
 80a04ce:	f003 f819 	bl	80a3504 <_ZN5SGP30C1Ev>
 80a04d2:	a901      	add	r1, sp, #4
 80a04d4:	f504 706f 	add.w	r0, r4, #956	; 0x3bc
 80a04d8:	f005 fe1d 	bl	80a6116 <_ZN6StringaSEOS_>
 80a04dc:	9b05      	ldr	r3, [sp, #20]
 80a04de:	f504 776e 	add.w	r7, r4, #952	; 0x3b8
 80a04e2:	f8c4 33cc 	str.w	r3, [r4, #972]	; 0x3cc
 80a04e6:	f89d 3018 	ldrb.w	r3, [sp, #24]
//using namespace std;


//======================================
// The Class
class SGP30 : public SensorBase
 80a04ea:	ae07      	add	r6, sp, #28
 80a04ec:	f884 33d0 	strb.w	r3, [r4, #976]	; 0x3d0
 80a04f0:	f10d 0e2c 	add.w	lr, sp, #44	; 0x2c
 80a04f4:	f504 7375 	add.w	r3, r4, #980	; 0x3d4
 80a04f8:	4632      	mov	r2, r6
 80a04fa:	ca03      	ldmia	r2!, {r0, r1}
 80a04fc:	4572      	cmp	r2, lr
 80a04fe:	6018      	str	r0, [r3, #0]
 80a0500:	6059      	str	r1, [r3, #4]
 80a0502:	4616      	mov	r6, r2
 80a0504:	f103 0308 	add.w	r3, r3, #8
 80a0508:	d1f6      	bne.n	80a04f8 <_ZN16SensorController12SetupSensorsEv+0xec>
 80a050a:	7812      	ldrb	r2, [r2, #0]
 80a050c:	f504 717a 	add.w	r1, r4, #1000	; 0x3e8
 80a0510:	701a      	strb	r2, [r3, #0]
 80a0512:	e9dd 230c 	ldrd	r2, r3, [sp, #48]	; 0x30
 80a0516:	e9c1 2300 	strd	r2, r3, [r1]
 80a051a:	e9dd 230e 	ldrd	r2, r3, [sp, #56]	; 0x38
 80a051e:	f504 717c 	add.w	r1, r4, #1008	; 0x3f0
 80a0522:	e9c1 2300 	strd	r2, r3, [r1]
 80a0526:	f504 707e 	add.w	r0, r4, #1016	; 0x3f8
 80a052a:	a910      	add	r1, sp, #64	; 0x40
 80a052c:	f005 fdf3 	bl	80a6116 <_ZN6StringaSEOS_>
 80a0530:	a914      	add	r1, sp, #80	; 0x50
 80a0532:	f504 6081 	add.w	r0, r4, #1032	; 0x408
 80a0536:	f005 fdee 	bl	80a6116 <_ZN6StringaSEOS_>
 80a053a:	4b15      	ldr	r3, [pc, #84]	; (80a0590 <_ZN16SensorController12SetupSensorsEv+0x184>)
 80a053c:	a814      	add	r0, sp, #80	; 0x50
 80a053e:	9300      	str	r3, [sp, #0]
 80a0540:	f005 fd58 	bl	80a5ff4 <_ZN6StringD1Ev>
 80a0544:	a810      	add	r0, sp, #64	; 0x40
 80a0546:	f005 fd55 	bl	80a5ff4 <_ZN6StringD1Ev>
 80a054a:	a801      	add	r0, sp, #4
 80a054c:	9500      	str	r5, [sp, #0]
 80a054e:	f005 fd51 	bl	80a5ff4 <_ZN6StringD1Ev>
  if (gasSensor.Connect())
 80a0552:	4638      	mov	r0, r7
 80a0554:	f002 ff64 	bl	80a3420 <_ZN5SGP307ConnectEv>
  {
    sensorsConnected.push_back(&gasSensor);
 80a0558:	9700      	str	r7, [sp, #0]
 80a055a:	4669      	mov	r1, sp
  {
    errorSensors.push_back(&weatherSensor);
  }
  delay(100);
  gasSensor = SGP30();
  if (gasSensor.Connect())
 80a055c:	b158      	cbz	r0, 80a0576 <_ZN16SensorController12SetupSensorsEv+0x16a>
 80a055e:	f104 0010 	add.w	r0, r4, #16
 80a0562:	f7ff ff43 	bl	80a03ec <_ZNSt6vectorIP10SensorBaseSaIS1_EE12emplace_backIIS1_EEEvDpOT_>
  {
    sensorsConnected.push_back(&gasSensor);
    totalReadings += gasSensor.getNumberSensors();
 80a0566:	f8d4 2908 	ldr.w	r2, [r4, #2312]	; 0x908
 80a056a:	f8d4 33cc 	ldr.w	r3, [r4, #972]	; 0x3cc
 80a056e:	4413      	add	r3, r2
 80a0570:	f8c4 3908 	str.w	r3, [r4, #2312]	; 0x908
 80a0574:	e003      	b.n	80a057e <_ZN16SensorController12SetupSensorsEv+0x172>
 80a0576:	f104 001c 	add.w	r0, r4, #28
 80a057a:	f7ff ff37 	bl	80a03ec <_ZNSt6vectorIP10SensorBaseSaIS1_EE12emplace_backIIS1_EEEvDpOT_>
  }
  else
  {
    errorSensors.push_back(&gasSensor);
  }
  delay(100);
 80a057e:	2064      	movs	r0, #100	; 0x64
 80a0580:	f007 f92a 	bl	80a77d8 <delay>
}
 80a0584:	b031      	add	sp, #196	; 0xc4
 80a0586:	bdf0      	pop	{r4, r5, r6, r7, pc}
 80a0588:	080ad064 	.word	0x080ad064
 80a058c:	080ac52c 	.word	0x080ac52c
 80a0590:	080ad364 	.word	0x080ad364

080a0594 <_GLOBAL__sub_I__ZN16SensorController12SetupSensorsEv>:
} // namespace particle

// particle::Flag<TagT, ValueT>
template<typename TagT, typename ValueT>
inline particle::Flag<TagT, ValueT>::Flag(ValueT val) :
        val_(val) {
 80a0594:	4b03      	ldr	r3, [pc, #12]	; (80a05a4 <_GLOBAL__sub_I__ZN16SensorController12SetupSensorsEv+0x10>)
 80a0596:	2200      	movs	r2, #0
 80a0598:	701a      	strb	r2, [r3, #0]
 80a059a:	4b03      	ldr	r3, [pc, #12]	; (80a05a8 <_GLOBAL__sub_I__ZN16SensorController12SetupSensorsEv+0x14>)
 80a059c:	2201      	movs	r2, #1
 80a059e:	701a      	strb	r2, [r3, #0]
inline int32_t pinReadFast(pin_t _pin)
{
	return ((PIN_MAP[_pin].gpio_peripheral->IDR & PIN_MAP[_pin].gpio_pin) == 0 ? LOW : HIGH);
}
#elif defined(STM32F2XX)
static STM32_Pin_Info* PIN_MAP = HAL_Pin_Map();
 80a05a0:	f004 bfb8 	b.w	80a5514 <HAL_Pin_Map>
 80a05a4:	20000414 	.word	0x20000414
 80a05a8:	20000415 	.word	0x20000415

080a05ac <_ZN5spark10LogHandler5writeEPKcj>:
    if (level >= filter_.level(category)) {
        write(data, size);
    }
}

inline void spark::LogHandler::write(const char *data, size_t size) {
 80a05ac:	4770      	bx	lr

080a05ae <_ZN5spark16StreamLogHandler5writeEPKcj>:
inline Print* spark::StreamLogHandler::stream() const {
    return stream_;
}

inline void spark::StreamLogHandler::write(const char *data, size_t size) {
    stream_->write((const uint8_t*)data, size);
 80a05ae:	6a00      	ldr	r0, [r0, #32]
 80a05b0:	6803      	ldr	r3, [r0, #0]
 80a05b2:	68db      	ldr	r3, [r3, #12]
 80a05b4:	4718      	bx	r3

080a05b6 <_ZN15Adafruit_Sensor15enableAutoRangeEb>:
  // Constructor(s)
  Adafruit_Sensor() {}
  virtual ~Adafruit_Sensor() {}

  // These must be defined by the subclass
  virtual void enableAutoRange(bool enabled) {};
 80a05b6:	4770      	bx	lr

080a05b8 <_ZNSt17_Function_handlerIFvvEPS0_E9_M_invokeERKSt9_Any_data>:

     public:
      static void
      _M_invoke(const _Any_data& __functor, _ArgTypes&&... __args)
      {
	(*_Base::_M_get_pointer(__functor))(
 80a05b8:	6803      	ldr	r3, [r0, #0]
 80a05ba:	4718      	bx	r3

080a05bc <_ZNSt14_Function_base13_Base_managerIPFvvEE10_M_managerERSt9_Any_dataRKS4_St18_Manager_operation>:
      public:
	static bool
	_M_manager(_Any_data& __dest, const _Any_data& __source,
		   _Manager_operation __op)
	{
	  switch (__op)
 80a05bc:	2a01      	cmp	r2, #1
 80a05be:	d002      	beq.n	80a05c6 <_ZNSt14_Function_base13_Base_managerIPFvvEE10_M_managerERSt9_Any_dataRKS4_St18_Manager_operation+0xa>
 80a05c0:	2a02      	cmp	r2, #2
 80a05c2:	d002      	beq.n	80a05ca <_ZNSt14_Function_base13_Base_managerIPFvvEE10_M_managerERSt9_Any_dataRKS4_St18_Manager_operation+0xe>
 80a05c4:	e004      	b.n	80a05d0 <_ZNSt14_Function_base13_Base_managerIPFvvEE10_M_managerERSt9_Any_dataRKS4_St18_Manager_operation+0x14>
	    case __get_type_info:
	      __dest._M_access<const type_info*>() = &typeid(_Functor);
	      break;
#endif
	    case __get_functor_ptr:
	      __dest._M_access<_Functor*>() = _M_get_pointer(__source);
 80a05c6:	6001      	str	r1, [r0, #0]
	      break;
 80a05c8:	e002      	b.n	80a05d0 <_ZNSt14_Function_base13_Base_managerIPFvvEE10_M_managerERSt9_Any_dataRKS4_St18_Manager_operation+0x14>
	// Clone a location-invariant function object that fits within
	// an _Any_data structure.
	static void
	_M_clone(_Any_data& __dest, const _Any_data& __source, true_type)
	{
	  new (__dest._M_access()) _Functor(__source._M_access<_Functor>());
 80a05ca:	680b      	ldr	r3, [r1, #0]
 80a05cc:	b100      	cbz	r0, 80a05d0 <_ZNSt14_Function_base13_Base_managerIPFvvEE10_M_managerERSt9_Any_dataRKS4_St18_Manager_operation+0x14>
 80a05ce:	6003      	str	r3, [r0, #0]
	    case __destroy_functor:
	      _M_destroy(__dest, _Local_storage());
	      break;
	    }
	  return false;
	}
 80a05d0:	2000      	movs	r0, #0
 80a05d2:	4770      	bx	lr

080a05d4 <_ZN5Timer7timeoutEv>:
     * Subclasses can either provide a callback function, or override
     * this timeout method.
     */
    virtual void timeout()
    {
        if (callback) {
 80a05d4:	6943      	ldr	r3, [r0, #20]
 80a05d6:	b113      	cbz	r3, 80a05de <_ZN5Timer7timeoutEv+0xa>
    function<_Res(_ArgTypes...)>::
    operator()(_ArgTypes... __args) const
    {
      if (_M_empty())
	__throw_bad_function_call();
      return _M_invoker(_M_functor, std::forward<_ArgTypes>(__args)...);
 80a05d8:	6983      	ldr	r3, [r0, #24]
 80a05da:	300c      	adds	r0, #12
 80a05dc:	4718      	bx	r3
 80a05de:	4770      	bx	lr

080a05e0 <_ZN5Timer12invoke_timerEPv>:
private:
	volatile bool running;
    os_timer_t handle;
    timer_callback_fn callback;

    static void invoke_timer(os_timer_t timer)
 80a05e0:	b513      	push	{r0, r1, r4, lr}
 80a05e2:	4604      	mov	r4, r0
typedef std::function<os_thread_return_t(void)> wiring_thread_fn_t;

class SingleThreadedSection {
public:
    SingleThreadedSection() {
        os_thread_scheduling(false, NULL);
 80a05e4:	2100      	movs	r1, #0
 80a05e6:	4608      	mov	r0, r1
 80a05e8:	f005 f86c 	bl	80a56c4 <os_thread_scheduling>
    {
        Timer* t = nullptr;
        SINGLE_THREADED_BLOCK() {
            void* id = nullptr;
 80a05ec:	a902      	add	r1, sp, #8
 80a05ee:	2300      	movs	r3, #0
            os_timer_get_id(timer, &id);
 80a05f0:	4620      	mov	r0, r4

    static void invoke_timer(os_timer_t timer)
    {
        Timer* t = nullptr;
        SINGLE_THREADED_BLOCK() {
            void* id = nullptr;
 80a05f2:	f841 3d04 	str.w	r3, [r1, #-4]!
            os_timer_get_id(timer, &id);
 80a05f6:	f005 f87d 	bl	80a56f4 <os_timer_get_id>
            t = static_cast<Timer*>(id);
 80a05fa:	9c01      	ldr	r4, [sp, #4]
            if (t) {
 80a05fc:	b10c      	cbz	r4, 80a0602 <_ZN5Timer12invoke_timerEPv+0x22>
                t->running = true;
 80a05fe:	2301      	movs	r3, #1
 80a0600:	7123      	strb	r3, [r4, #4]
    }

    ~SingleThreadedSection() {
        os_thread_scheduling(true, NULL);
 80a0602:	2100      	movs	r1, #0
 80a0604:	2001      	movs	r0, #1
 80a0606:	f005 f85d 	bl	80a56c4 <os_thread_scheduling>
            }
        }
        if (t) {
 80a060a:	b12c      	cbz	r4, 80a0618 <_ZN5Timer12invoke_timerEPv+0x38>
            t->timeout();
 80a060c:	6823      	ldr	r3, [r4, #0]
 80a060e:	4620      	mov	r0, r4
 80a0610:	689b      	ldr	r3, [r3, #8]
 80a0612:	4798      	blx	r3
            t->running = false;
 80a0614:	2300      	movs	r3, #0
 80a0616:	7123      	strb	r3, [r4, #4]
        }
    }
 80a0618:	b002      	add	sp, #8
 80a061a:	bd10      	pop	{r4, pc}

080a061c <_ZN5spark16SerialLogHandlerD1Ev>:
            StreamLogHandler(Serial, level, filters) {
        Serial.begin(baud);
        LogManager::instance()->addHandler(this);
    }

    virtual ~SerialLogHandler() {
 80a061c:	b510      	push	{r4, lr}
 80a061e:	4604      	mov	r4, r0
 80a0620:	4b09      	ldr	r3, [pc, #36]	; (80a0648 <_ZN5spark16SerialLogHandlerD1Ev+0x2c>)
 80a0622:	6003      	str	r3, [r0, #0]
        LogManager::instance()->removeHandler(this);
 80a0624:	f006 fafc 	bl	80a6c20 <_ZN5spark10LogManager8instanceEv>
 80a0628:	4621      	mov	r1, r4
 80a062a:	f006 fd00 	bl	80a702e <_ZN5spark10LogManager13removeHandlerEPNS_10LogHandlerE>
        Serial.end();
 80a062e:	f007 fcef 	bl	80a8010 <_Z16_fetch_usbserialv>
 80a0632:	f007 fcdf 	bl	80a7ff4 <_ZN9USBSerial3endEv>
    */
    LogHandler(LogLevel level, LogCategoryFilters filters);
    /*!
        \brief Destructor.
    */
    virtual ~LogHandler() = default;
 80a0636:	4620      	mov	r0, r4
 80a0638:	4b04      	ldr	r3, [pc, #16]	; (80a064c <_ZN5spark16SerialLogHandlerD1Ev+0x30>)
 80a063a:	f840 3b04 	str.w	r3, [r0], #4
 80a063e:	f006 fbfd 	bl	80a6e3c <_ZN5spark6detail9LogFilterD1Ev>
    }
 80a0642:	4620      	mov	r0, r4
 80a0644:	bd10      	pop	{r4, pc}
 80a0646:	bf00      	nop
 80a0648:	080ac654 	.word	0x080ac654
 80a064c:	080ac63c 	.word	0x080ac63c

080a0650 <_ZN5spark16SerialLogHandlerD0Ev>:
            StreamLogHandler(Serial, level, filters) {
        Serial.begin(baud);
        LogManager::instance()->addHandler(this);
    }

    virtual ~SerialLogHandler() {
 80a0650:	b510      	push	{r4, lr}
 80a0652:	4604      	mov	r4, r0
        LogManager::instance()->removeHandler(this);
        Serial.end();
    }
 80a0654:	f7ff ffe2 	bl	80a061c <_ZN5spark16SerialLogHandlerD1Ev>
 80a0658:	4620      	mov	r0, r4
 80a065a:	2124      	movs	r1, #36	; 0x24
 80a065c:	f008 fa08 	bl	80a8a70 <_ZdlPvj>
 80a0660:	4620      	mov	r0, r4
 80a0662:	bd10      	pop	{r4, pc}

080a0664 <_ZNSt14_Function_baseD1Ev>:
	}
      };

    _Function_base() : _M_manager(nullptr) { }

    ~_Function_base()
 80a0664:	b510      	push	{r4, lr}
    {
      if (_M_manager)
 80a0666:	6883      	ldr	r3, [r0, #8]
	}
      };

    _Function_base() : _M_manager(nullptr) { }

    ~_Function_base()
 80a0668:	4604      	mov	r4, r0
    {
      if (_M_manager)
 80a066a:	b113      	cbz	r3, 80a0672 <_ZNSt14_Function_baseD1Ev+0xe>
	_M_manager(_M_functor, _M_functor, __destroy_functor);
 80a066c:	2203      	movs	r2, #3
 80a066e:	4601      	mov	r1, r0
 80a0670:	4798      	blx	r3
    }
 80a0672:	4620      	mov	r0, r4
 80a0674:	bd10      	pop	{r4, pc}

080a0676 <_ZN5spark9WiFiClass10connectingEv>:
    void disconnect(void) {
        network_disconnect(*this, NETWORK_DISCONNECT_REASON_USER, NULL);
    }

    bool connecting(void) {
        return network_connecting(*this, 0, NULL);
 80a0676:	2200      	movs	r2, #0
 80a0678:	4611      	mov	r1, r2
 80a067a:	6840      	ldr	r0, [r0, #4]
 80a067c:	f005 ba10 	b.w	80a5aa0 <network_connecting>

080a0680 <_ZN5spark9WiFiClass5readyEv>:
    }

    bool ready(void) {
        return network_ready(*this, 0, NULL);
 80a0680:	2200      	movs	r2, #0
 80a0682:	4611      	mov	r1, r2
 80a0684:	6840      	ldr	r0, [r0, #4]
 80a0686:	f005 ba1b 	b.w	80a5ac0 <network_ready>

080a068a <_ZN5spark9WiFiClass14setCredentialsEPKcS2_mm>:

    bool setCredentials(const char *ssid, const char *password) {
        return setCredentials(ssid, password, WPA2);
    }

    bool setCredentials(const char *ssid, const char *password, unsigned long security, unsigned long cipher=WLAN_CIPHER_NOT_SET) {
 80a068a:	e92d 47f0 	stmdb	sp!, {r4, r5, r6, r7, r8, r9, sl, lr}
 80a068e:	4681      	mov	r9, r0
 80a0690:	b094      	sub	sp, #80	; 0x50
 80a0692:	4614      	mov	r4, r2
 80a0694:	469a      	mov	sl, r3
        return setCredentials(ssid, ssid ? strlen(ssid) : 0, password, password ? strlen(password) : 0, security, cipher);
 80a0696:	460d      	mov	r5, r1
 80a0698:	b121      	cbz	r1, 80a06a4 <_ZN5spark9WiFiClass14setCredentialsEPKcS2_mm+0x1a>
 80a069a:	4608      	mov	r0, r1
 80a069c:	f00b facd 	bl	80abc3a <strlen>
 80a06a0:	4607      	mov	r7, r0
 80a06a2:	e000      	b.n	80a06a6 <_ZN5spark9WiFiClass14setCredentialsEPKcS2_mm+0x1c>
 80a06a4:	460f      	mov	r7, r1
 80a06a6:	b124      	cbz	r4, 80a06b2 <_ZN5spark9WiFiClass14setCredentialsEPKcS2_mm+0x28>
 80a06a8:	4620      	mov	r0, r4
 80a06aa:	f00b fac6 	bl	80abc3a <strlen>
 80a06ae:	4606      	mov	r6, r0
 80a06b0:	e000      	b.n	80a06b4 <_ZN5spark9WiFiClass14setCredentialsEPKcS2_mm+0x2a>
 80a06b2:	4626      	mov	r6, r4

    bool setCredentials(const char *ssid, unsigned int ssidLen, const char *password,
            unsigned int passwordLen, unsigned long security=WLAN_SEC_UNSEC, unsigned long cipher=WLAN_CIPHER_NOT_SET) {

        WLanCredentials creds;
        memset(&creds, 0, sizeof(creds));
 80a06b4:	f04f 084c 	mov.w	r8, #76	; 0x4c
 80a06b8:	4642      	mov	r2, r8
 80a06ba:	2100      	movs	r1, #0
 80a06bc:	a801      	add	r0, sp, #4
 80a06be:	f00b fa47 	bl	80abb50 <memset>
        creds.ssid = ssid;
        creds.ssid_len = ssidLen;
        creds.password = password;
        creds.password_len = passwordLen;
        creds.security = WLanSecurityType(security);
        creds.cipher = WLanSecurityCipher(cipher);
 80a06c2:	9b1c      	ldr	r3, [sp, #112]	; 0x70
        return (network_set_credentials(*this, 0, &creds, NULL) == 0);
 80a06c4:	aa01      	add	r2, sp, #4
        creds.ssid = ssid;
        creds.ssid_len = ssidLen;
        creds.password = password;
        creds.password_len = passwordLen;
        creds.security = WLanSecurityType(security);
        creds.cipher = WLanSecurityCipher(cipher);
 80a06c6:	f88d 3019 	strb.w	r3, [sp, #25]
        return (network_set_credentials(*this, 0, &creds, NULL) == 0);
 80a06ca:	2300      	movs	r3, #0
 80a06cc:	4619      	mov	r1, r3
 80a06ce:	f8d9 0004 	ldr.w	r0, [r9, #4]
    bool setCredentials(const char *ssid, unsigned int ssidLen, const char *password,
            unsigned int passwordLen, unsigned long security=WLAN_SEC_UNSEC, unsigned long cipher=WLAN_CIPHER_NOT_SET) {

        WLanCredentials creds;
        memset(&creds, 0, sizeof(creds));
        creds.size = sizeof(creds);
 80a06d2:	f8cd 8004 	str.w	r8, [sp, #4]
        creds.ssid = ssid;
 80a06d6:	9502      	str	r5, [sp, #8]
        creds.ssid_len = ssidLen;
 80a06d8:	9703      	str	r7, [sp, #12]
        creds.password = password;
 80a06da:	9404      	str	r4, [sp, #16]
        creds.password_len = passwordLen;
 80a06dc:	9605      	str	r6, [sp, #20]
        creds.security = WLanSecurityType(security);
 80a06de:	f88d a018 	strb.w	sl, [sp, #24]
        creds.cipher = WLanSecurityCipher(cipher);
        return (network_set_credentials(*this, 0, &creds, NULL) == 0);
 80a06e2:	f005 fa15 	bl	80a5b10 <network_set_credentials>
        return setCredentials(ssid, password, WPA2);
    }

    bool setCredentials(const char *ssid, const char *password, unsigned long security, unsigned long cipher=WLAN_CIPHER_NOT_SET) {
        return setCredentials(ssid, ssid ? strlen(ssid) : 0, password, password ? strlen(password) : 0, security, cipher);
    }
 80a06e6:	fab0 f080 	clz	r0, r0
 80a06ea:	0940      	lsrs	r0, r0, #5
 80a06ec:	b014      	add	sp, #80	; 0x50
 80a06ee:	e8bd 87f0 	ldmia.w	sp!, {r4, r5, r6, r7, r8, r9, sl, pc}
	...

080a06f4 <_ZN11SystemClass11sleepResultEv>:

    inline pin_t wakeUpPin() {
        return sleepResult().pin();
    }

    SleepResult sleepResult() {
 80a06f4:	b573      	push	{r0, r1, r4, r5, r6, lr}
        //         // Woken up from standby mode
        //         sleepResult_ = SleepResult(WAKEUP_REASON_PIN_OR_RTC, SYSTEM_ERROR_NONE, WKP);
        //     }
        // });
        static bool f = false;
        if (!f) {
 80a06f6:	4b0e      	ldr	r3, [pc, #56]	; (80a0730 <_ZN11SystemClass11sleepResultEv+0x3c>)

    inline pin_t wakeUpPin() {
        return sleepResult().pin();
    }

    SleepResult sleepResult() {
 80a06f8:	4606      	mov	r6, r0
        //         // Woken up from standby mode
        //         sleepResult_ = SleepResult(WAKEUP_REASON_PIN_OR_RTC, SYSTEM_ERROR_NONE, WKP);
        //     }
        // });
        static bool f = false;
        if (!f) {
 80a06fa:	781d      	ldrb	r5, [r3, #0]

    inline pin_t wakeUpPin() {
        return sleepResult().pin();
    }

    SleepResult sleepResult() {
 80a06fc:	460c      	mov	r4, r1
        //         // Woken up from standby mode
        //         sleepResult_ = SleepResult(WAKEUP_REASON_PIN_OR_RTC, SYSTEM_ERROR_NONE, WKP);
        //     }
        // });
        static bool f = false;
        if (!f) {
 80a06fe:	b985      	cbnz	r5, 80a0722 <_ZN11SystemClass11sleepResultEv+0x2e>
            f = true;
 80a0700:	2201      	movs	r2, #1
        return get_flag(flag) != 0;
    }

    inline int resetReason() const
    {
        int reason = RESET_REASON_NONE;
 80a0702:	a802      	add	r0, sp, #8
        //         sleepResult_ = SleepResult(WAKEUP_REASON_PIN_OR_RTC, SYSTEM_ERROR_NONE, WKP);
        //     }
        // });
        static bool f = false;
        if (!f) {
            f = true;
 80a0704:	701a      	strb	r2, [r3, #0]
        return get_flag(flag) != 0;
    }

    inline int resetReason() const
    {
        int reason = RESET_REASON_NONE;
 80a0706:	f840 5d04 	str.w	r5, [r0, #-4]!
        HAL_Core_Get_Last_Reset_Info(&reason, nullptr, nullptr);
 80a070a:	462a      	mov	r2, r5
 80a070c:	4629      	mov	r1, r5
 80a070e:	f004 ffc9 	bl	80a56a4 <HAL_Core_Get_Last_Reset_Info>
        return reason;
 80a0712:	9b01      	ldr	r3, [sp, #4]
        //     }
        // });
        static bool f = false;
        if (!f) {
            f = true;
            if (resetReason() == RESET_REASON_POWER_MANAGEMENT) {
 80a0714:	2b1e      	cmp	r3, #30
 80a0716:	d104      	bne.n	80a0722 <_ZN11SystemClass11sleepResultEv+0x2e>
                // Woken up from standby mode
                sleepResult_ = SleepResult(WAKEUP_REASON_PIN_OR_RTC, SYSTEM_ERROR_NONE, WKP);
 80a0718:	2303      	movs	r3, #3
 80a071a:	7023      	strb	r3, [r4, #0]
 80a071c:	2311      	movs	r3, #17
 80a071e:	8065      	strh	r5, [r4, #2]
 80a0720:	80a3      	strh	r3, [r4, #4]
            }
        }
        return sleepResult_;
    }
 80a0722:	4630      	mov	r0, r6
            if (resetReason() == RESET_REASON_POWER_MANAGEMENT) {
                // Woken up from standby mode
                sleepResult_ = SleepResult(WAKEUP_REASON_PIN_OR_RTC, SYSTEM_ERROR_NONE, WKP);
            }
        }
        return sleepResult_;
 80a0724:	6823      	ldr	r3, [r4, #0]
 80a0726:	6033      	str	r3, [r6, #0]
 80a0728:	88a3      	ldrh	r3, [r4, #4]
 80a072a:	80b3      	strh	r3, [r6, #4]
    }
 80a072c:	b002      	add	sp, #8
 80a072e:	bd70      	pop	{r4, r5, r6, pc}
 80a0730:	20000416 	.word	0x20000416

080a0734 <_ZN5Timer5_stopEjb>:
    {
        stop(fromISR);
        return handle ? !os_timer_change(handle, OS_TIMER_CHANGE_START, fromISR, 0, block, nullptr) : false;
    }

    bool _stop(unsigned block, bool fromISR=false)
 80a0734:	b507      	push	{r0, r1, r2, lr}
    {
        return handle ? !os_timer_change(handle, OS_TIMER_CHANGE_STOP, fromISR, 0, block, nullptr) : false;
 80a0736:	6880      	ldr	r0, [r0, #8]
 80a0738:	2300      	movs	r3, #0
 80a073a:	b138      	cbz	r0, 80a074c <_ZN5Timer5_stopEjb+0x18>
 80a073c:	e88d 000a 	stmia.w	sp, {r1, r3}
 80a0740:	2102      	movs	r1, #2
 80a0742:	f004 ffdf 	bl	80a5704 <os_timer_change>
 80a0746:	fab0 f080 	clz	r0, r0
 80a074a:	0940      	lsrs	r0, r0, #5
    }
 80a074c:	b003      	add	sp, #12
 80a074e:	f85d fb04 	ldr.w	pc, [sp], #4
	...

080a0754 <_ZN5TimerD1Ev>:
    template <typename T>
    Timer(unsigned period, void (T::*handler)(), T& instance, bool one_shot=false) : Timer(period, std::bind(handler, &instance), one_shot)
    {
    }

    virtual ~Timer() {
 80a0754:	b538      	push	{r3, r4, r5, lr}
 80a0756:	4b10      	ldr	r3, [pc, #64]	; (80a0798 <_ZN5TimerD1Ev+0x44>)
 80a0758:	4604      	mov	r4, r0
 80a075a:	6003      	str	r3, [r0, #0]
         return handle ? !os_timer_change(handle, OS_TIMER_CHANGE_PERIOD, fromISR, period, block, nullptr) : false;
    }

    void dispose()
    {
        if (handle) {
 80a075c:	6883      	ldr	r3, [r0, #8]
 80a075e:	b1a3      	cbz	r3, 80a078a <_ZN5TimerD1Ev+0x36>
    bool changePeriodFromISR(unsigned period) { return _changePeriod(period, 0, true); }

    static const unsigned default_wait = 0x7FFFFFFF;

    bool start(unsigned block=default_wait) { return _start(block, false); }
    bool stop(unsigned block=default_wait) { return _stop(block, false); }
 80a0760:	f06f 4100 	mvn.w	r1, #2147483648	; 0x80000000
 80a0764:	2200      	movs	r2, #0
 80a0766:	f7ff ffe5 	bl	80a0734 <_ZN5Timer5_stopEjb>
    {
        if (handle) {
            stop();
            // Make sure the callback will not be called after this object is destroyed.
            // TODO: Consider assigning a higher priority to the timer thread
            os_timer_set_id(handle, nullptr);
 80a076a:	2100      	movs	r1, #0
 80a076c:	68a0      	ldr	r0, [r4, #8]
 80a076e:	f005 f801 	bl	80a5774 <os_timer_set_id>
            while (running) {
 80a0772:	7923      	ldrb	r3, [r4, #4]
 80a0774:	f003 05ff 	and.w	r5, r3, #255	; 0xff
 80a0778:	b113      	cbz	r3, 80a0780 <_ZN5TimerD1Ev+0x2c>
                os_thread_yield();
 80a077a:	f004 ff9b 	bl	80a56b4 <os_thread_yield>
 80a077e:	e7f8      	b.n	80a0772 <_ZN5TimerD1Ev+0x1e>
            }
            os_timer_destroy(handle, nullptr);
 80a0780:	4629      	mov	r1, r5
 80a0782:	68a0      	ldr	r0, [r4, #8]
 80a0784:	f004 ffae 	bl	80a56e4 <os_timer_destroy>
            handle = nullptr;
 80a0788:	60a5      	str	r5, [r4, #8]
   *  @ingroup functors
   *
   *  Polymorphic function wrapper.
   */
  template<typename _Res, typename... _ArgTypes>
    class function<_Res(_ArgTypes...)>
 80a078a:	f104 000c 	add.w	r0, r4, #12
 80a078e:	f7ff ff69 	bl	80a0664 <_ZNSt14_Function_baseD1Ev>

    virtual ~Timer() {
    		// when the timer is calling the std::function, we cannot dispose of it until the function completes.
		// the call has exited.
		dispose();
    }
 80a0792:	4620      	mov	r0, r4
 80a0794:	bd38      	pop	{r3, r4, r5, pc}
 80a0796:	bf00      	nop
 80a0798:	080ac628 	.word	0x080ac628

080a079c <_ZN5TimerD0Ev>:
    template <typename T>
    Timer(unsigned period, void (T::*handler)(), T& instance, bool one_shot=false) : Timer(period, std::bind(handler, &instance), one_shot)
    {
    }

    virtual ~Timer() {
 80a079c:	b510      	push	{r4, lr}
 80a079e:	4604      	mov	r4, r0
    		// when the timer is calling the std::function, we cannot dispose of it until the function completes.
		// the call has exited.
		dispose();
    }
 80a07a0:	f7ff ffd8 	bl	80a0754 <_ZN5TimerD1Ev>
 80a07a4:	4620      	mov	r0, r4
 80a07a6:	211c      	movs	r1, #28
 80a07a8:	f008 f962 	bl	80a8a70 <_ZdlPvj>
 80a07ac:	4620      	mov	r0, r4
 80a07ae:	bd10      	pop	{r4, pc}

080a07b0 <_ZNK5spark6Logger4infoEPKcz>:
    va_start(args, fmt);
    log(LOG_LEVEL_TRACE, fmt, args);
    va_end(args);
}

inline void spark::Logger::info(const char *fmt, ...) const {
 80a07b0:	b40e      	push	{r1, r2, r3}
 80a07b2:	b500      	push	{lr}
 80a07b4:	b08c      	sub	sp, #48	; 0x30
 80a07b6:	aa0d      	add	r2, sp, #52	; 0x34
 80a07b8:	f852 1b04 	ldr.w	r1, [r2], #4
    va_end(args);
}

inline void spark::Logger::log(LogLevel level, const char *fmt, va_list args) const {
    LogAttributes attr;
    attr.size = sizeof(LogAttributes);
 80a07bc:	2320      	movs	r3, #32
    attr.flags = 0;
    log_message_v(level, name_, &attr, nullptr, fmt, args);
 80a07be:	e88d 0006 	stmia.w	sp, {r1, r2}
    va_end(args);
}

inline void spark::Logger::info(const char *fmt, ...) const {
    va_list args;
    va_start(args, fmt);
 80a07c2:	9203      	str	r2, [sp, #12]
    va_end(args);
}

inline void spark::Logger::log(LogLevel level, const char *fmt, va_list args) const {
    LogAttributes attr;
    attr.size = sizeof(LogAttributes);
 80a07c4:	9304      	str	r3, [sp, #16]
    attr.flags = 0;
    log_message_v(level, name_, &attr, nullptr, fmt, args);
 80a07c6:	6801      	ldr	r1, [r0, #0]
}

inline void spark::Logger::log(LogLevel level, const char *fmt, va_list args) const {
    LogAttributes attr;
    attr.size = sizeof(LogAttributes);
    attr.flags = 0;
 80a07c8:	2300      	movs	r3, #0
    log_message_v(level, name_, &attr, nullptr, fmt, args);
 80a07ca:	aa04      	add	r2, sp, #16
 80a07cc:	201e      	movs	r0, #30
}

inline void spark::Logger::log(LogLevel level, const char *fmt, va_list args) const {
    LogAttributes attr;
    attr.size = sizeof(LogAttributes);
    attr.flags = 0;
 80a07ce:	9305      	str	r3, [sp, #20]
    log_message_v(level, name_, &attr, nullptr, fmt, args);
 80a07d0:	f005 f8f2 	bl	80a59b8 <log_message_v>
inline void spark::Logger::info(const char *fmt, ...) const {
    va_list args;
    va_start(args, fmt);
    log(LOG_LEVEL_INFO, fmt, args);
    va_end(args);
}
 80a07d4:	b00c      	add	sp, #48	; 0x30
 80a07d6:	f85d eb04 	ldr.w	lr, [sp], #4
 80a07da:	b003      	add	sp, #12
 80a07dc:	4770      	bx	lr
	...

080a07e0 <_ZN10SensorBaseD1Ev>:
 80a07e0:	b510      	push	{r4, lr}
 80a07e2:	4604      	mov	r4, r0
 80a07e4:	4b03      	ldr	r3, [pc, #12]	; (80a07f4 <_ZN10SensorBaseD1Ev+0x14>)
 80a07e6:	f840 3b04 	str.w	r3, [r0], #4
 80a07ea:	f005 fc03 	bl	80a5ff4 <_ZN6StringD1Ev>
 80a07ee:	4620      	mov	r0, r4
 80a07f0:	bd10      	pop	{r4, pc}
 80a07f2:	bf00      	nop
 80a07f4:	080ac52c 	.word	0x080ac52c

080a07f8 <_ZN16SensorControllerD1Ev>:
#define ADS1115_2_addr 0x49  //analogue expander
#define SGP30_addr 0x38      //Vocs Co2

//======================================
// The Class
class SensorController
 80a07f8:	b570      	push	{r4, r5, r6, lr}
 80a07fa:	4604      	mov	r4, r0
 80a07fc:	f600 1014 	addw	r0, r0, #2324	; 0x914
 80a0800:	f604 0638 	addw	r6, r4, #2104	; 0x838
 80a0804:	f005 fbf6 	bl	80a5ff4 <_ZN6StringD1Ev>
 80a0808:	b146      	cbz	r6, 80a081c <_ZN16SensorControllerD1Ev+0x24>
 80a080a:	f604 1508 	addw	r5, r4, #2312	; 0x908
 80a080e:	42b5      	cmp	r5, r6
 80a0810:	d004      	beq.n	80a081c <_ZN16SensorControllerD1Ev+0x24>
 80a0812:	3d10      	subs	r5, #16
 80a0814:	4628      	mov	r0, r5
 80a0816:	f005 fbed 	bl	80a5ff4 <_ZN6StringD1Ev>
 80a081a:	e7f8      	b.n	80a080e <_ZN16SensorControllerD1Ev+0x16>
      }
#endif

      ~_Vector_base() _GLIBCXX_NOEXCEPT
      { _M_deallocate(this->_M_impl._M_start, this->_M_impl._M_end_of_storage
		      - this->_M_impl._M_start); }
 80a081c:	f8d4 0418 	ldr.w	r0, [r4, #1048]	; 0x418

      void
      _M_deallocate(pointer __p, size_t __n)
      {
	typedef __gnu_cxx::__alloc_traits<_Tp_alloc_type> _Tr;
	if (__p)
 80a0820:	b108      	cbz	r0, 80a0826 <_ZN16SensorControllerD1Ev+0x2e>
      }

      // __p is not permitted to be a null pointer.
      void
      deallocate(pointer __p, size_type)
      { ::operator delete(__p); }
 80a0822:	f7ff fc3c 	bl	80a009e <_ZdlPv>
 80a0826:	4b52      	ldr	r3, [pc, #328]	; (80a0970 <_ZN16SensorControllerD1Ev+0x178>)
 80a0828:	f504 767e 	add.w	r6, r4, #1016	; 0x3f8
 80a082c:	f8c4 33b8 	str.w	r3, [r4, #952]	; 0x3b8
 80a0830:	f504 6583 	add.w	r5, r4, #1048	; 0x418
 80a0834:	42ae      	cmp	r6, r5
 80a0836:	d004      	beq.n	80a0842 <_ZN16SensorControllerD1Ev+0x4a>
 80a0838:	3d10      	subs	r5, #16
 80a083a:	4628      	mov	r0, r5
 80a083c:	f005 fbda 	bl	80a5ff4 <_ZN6StringD1Ev>
 80a0840:	e7f8      	b.n	80a0834 <_ZN16SensorControllerD1Ev+0x3c>
 80a0842:	f504 756e 	add.w	r5, r4, #952	; 0x3b8
 80a0846:	4628      	mov	r0, r5
 80a0848:	f7ff ffca 	bl	80a07e0 <_ZN10SensorBaseD1Ev>
//using namespace std;


//======================================
// The Class
class ads1115v : public SensorBase
 80a084c:	4b49      	ldr	r3, [pc, #292]	; (80a0974 <_ZN16SensorControllerD1Ev+0x17c>)
 80a084e:	f504 765e 	add.w	r6, r4, #888	; 0x378
 80a0852:	f8c4 3338 	str.w	r3, [r4, #824]	; 0x338
 80a0856:	42ae      	cmp	r6, r5
 80a0858:	d004      	beq.n	80a0864 <_ZN16SensorControllerD1Ev+0x6c>
 80a085a:	3d10      	subs	r5, #16
 80a085c:	4628      	mov	r0, r5
 80a085e:	f005 fbc9 	bl	80a5ff4 <_ZN6StringD1Ev>
 80a0862:	e7f8      	b.n	80a0856 <_ZN16SensorControllerD1Ev+0x5e>
 80a0864:	f504 754e 	add.w	r5, r4, #824	; 0x338
 80a0868:	4628      	mov	r0, r5
 80a086a:	f7ff ffb9 	bl	80a07e0 <_ZN10SensorBaseD1Ev>
//using namespace std;


//======================================
// The Class
class ads1115g : public SensorBase
 80a086e:	4b42      	ldr	r3, [pc, #264]	; (80a0978 <_ZN16SensorControllerD1Ev+0x180>)
 80a0870:	f504 763e 	add.w	r6, r4, #760	; 0x2f8
 80a0874:	f8c4 32b8 	str.w	r3, [r4, #696]	; 0x2b8
 80a0878:	42ae      	cmp	r6, r5
 80a087a:	d004      	beq.n	80a0886 <_ZN16SensorControllerD1Ev+0x8e>
 80a087c:	3d10      	subs	r5, #16
 80a087e:	4628      	mov	r0, r5
 80a0880:	f005 fbb8 	bl	80a5ff4 <_ZN6StringD1Ev>
 80a0884:	e7f8      	b.n	80a0878 <_ZN16SensorControllerD1Ev+0x80>
 80a0886:	f504 752e 	add.w	r5, r4, #696	; 0x2b8
 80a088a:	4628      	mov	r0, r5
 80a088c:	f7ff ffa8 	bl	80a07e0 <_ZN10SensorBaseD1Ev>
//using namespace std;


//======================================
// The Class
class HTU21 : public SensorBase
 80a0890:	4b3a      	ldr	r3, [pc, #232]	; (80a097c <_ZN16SensorControllerD1Ev+0x184>)
 80a0892:	f504 7626 	add.w	r6, r4, #664	; 0x298
 80a0896:	f8c4 3260 	str.w	r3, [r4, #608]	; 0x260
 80a089a:	42ae      	cmp	r6, r5
 80a089c:	d004      	beq.n	80a08a8 <_ZN16SensorControllerD1Ev+0xb0>
 80a089e:	3d10      	subs	r5, #16
 80a08a0:	4628      	mov	r0, r5
 80a08a2:	f005 fba7 	bl	80a5ff4 <_ZN6StringD1Ev>
 80a08a6:	e7f8      	b.n	80a089a <_ZN16SensorControllerD1Ev+0xa2>
 80a08a8:	f504 7518 	add.w	r5, r4, #608	; 0x260
 80a08ac:	4628      	mov	r0, r5
 80a08ae:	f7ff ff97 	bl	80a07e0 <_ZN10SensorBaseD1Ev>
//using namespace std;


//======================================
// The Class
class MCP9808_j : public SensorBase
 80a08b2:	4b33      	ldr	r3, [pc, #204]	; (80a0980 <_ZN16SensorControllerD1Ev+0x188>)
 80a08b4:	f504 7614 	add.w	r6, r4, #592	; 0x250
 80a08b8:	f8c4 3228 	str.w	r3, [r4, #552]	; 0x228
 80a08bc:	42ae      	cmp	r6, r5
 80a08be:	d004      	beq.n	80a08ca <_ZN16SensorControllerD1Ev+0xd2>
 80a08c0:	3d10      	subs	r5, #16
 80a08c2:	4628      	mov	r0, r5
 80a08c4:	f005 fb96 	bl	80a5ff4 <_ZN6StringD1Ev>
 80a08c8:	e7f8      	b.n	80a08bc <_ZN16SensorControllerD1Ev+0xc4>
 80a08ca:	f504 750a 	add.w	r5, r4, #552	; 0x228
 80a08ce:	4628      	mov	r0, r5
 80a08d0:	f7ff ff86 	bl	80a07e0 <_ZN10SensorBaseD1Ev>
//using namespace std;


//======================================
// The Class
class CCS811 : public SensorBase
 80a08d4:	4b2b      	ldr	r3, [pc, #172]	; (80a0984 <_ZN16SensorControllerD1Ev+0x18c>)
 80a08d6:	f504 76fc 	add.w	r6, r4, #504	; 0x1f8
 80a08da:	f8c4 31b0 	str.w	r3, [r4, #432]	; 0x1b0
 80a08de:	42ae      	cmp	r6, r5
 80a08e0:	d004      	beq.n	80a08ec <_ZN16SensorControllerD1Ev+0xf4>
 80a08e2:	3d10      	subs	r5, #16
 80a08e4:	4628      	mov	r0, r5
 80a08e6:	f005 fb85 	bl	80a5ff4 <_ZN6StringD1Ev>
 80a08ea:	e7f8      	b.n	80a08de <_ZN16SensorControllerD1Ev+0xe6>
 80a08ec:	f504 75d8 	add.w	r5, r4, #432	; 0x1b0
 80a08f0:	4628      	mov	r0, r5
 80a08f2:	f7ff ff75 	bl	80a07e0 <_ZN10SensorBaseD1Ev>
//using namespace std;


//======================================
// The Class
class TSL2561 : public SensorBase
 80a08f6:	4b24      	ldr	r3, [pc, #144]	; (80a0988 <_ZN16SensorControllerD1Ev+0x190>)
 80a08f8:	f504 76b8 	add.w	r6, r4, #368	; 0x170
 80a08fc:	f8c4 3120 	str.w	r3, [r4, #288]	; 0x120
 80a0900:	42ae      	cmp	r6, r5
 80a0902:	d004      	beq.n	80a090e <_ZN16SensorControllerD1Ev+0x116>
 80a0904:	3d10      	subs	r5, #16
 80a0906:	4628      	mov	r0, r5
 80a0908:	f005 fb74 	bl	80a5ff4 <_ZN6StringD1Ev>
 80a090c:	e7f8      	b.n	80a0900 <_ZN16SensorControllerD1Ev+0x108>
 80a090e:	f504 7590 	add.w	r5, r4, #288	; 0x120
 80a0912:	4628      	mov	r0, r5
 80a0914:	f7ff ff64 	bl	80a07e0 <_ZN10SensorBaseD1Ev>
 80a0918:	4b1c      	ldr	r3, [pc, #112]	; (80a098c <_ZN16SensorControllerD1Ev+0x194>)
 80a091a:	f104 06e0 	add.w	r6, r4, #224	; 0xe0
 80a091e:	6623      	str	r3, [r4, #96]	; 0x60
 80a0920:	42ae      	cmp	r6, r5
 80a0922:	d004      	beq.n	80a092e <_ZN16SensorControllerD1Ev+0x136>
 80a0924:	3d10      	subs	r5, #16
 80a0926:	4628      	mov	r0, r5
 80a0928:	f005 fb64 	bl	80a5ff4 <_ZN6StringD1Ev>
 80a092c:	e7f8      	b.n	80a0920 <_ZN16SensorControllerD1Ev+0x128>
 80a092e:	f104 0560 	add.w	r5, r4, #96	; 0x60
 80a0932:	4628      	mov	r0, r5
 80a0934:	f7ff ff54 	bl	80a07e0 <_ZN10SensorBaseD1Ev>

//using namespace std;

//======================================
// The Class
class VEML6070 : public SensorBase
 80a0938:	4b15      	ldr	r3, [pc, #84]	; (80a0990 <_ZN16SensorControllerD1Ev+0x198>)
 80a093a:	f104 0650 	add.w	r6, r4, #80	; 0x50
 80a093e:	62a3      	str	r3, [r4, #40]	; 0x28
 80a0940:	42ae      	cmp	r6, r5
 80a0942:	d004      	beq.n	80a094e <_ZN16SensorControllerD1Ev+0x156>
 80a0944:	3d10      	subs	r5, #16
 80a0946:	4628      	mov	r0, r5
 80a0948:	f005 fb54 	bl	80a5ff4 <_ZN6StringD1Ev>
 80a094c:	e7f8      	b.n	80a0940 <_ZN16SensorControllerD1Ev+0x148>
 80a094e:	f104 0028 	add.w	r0, r4, #40	; 0x28
 80a0952:	f7ff ff45 	bl	80a07e0 <_ZN10SensorBaseD1Ev>
      }
#endif

      ~_Vector_base() _GLIBCXX_NOEXCEPT
      { _M_deallocate(this->_M_impl._M_start, this->_M_impl._M_end_of_storage
		      - this->_M_impl._M_start); }
 80a0956:	69e0      	ldr	r0, [r4, #28]

      void
      _M_deallocate(pointer __p, size_t __n)
      {
	typedef __gnu_cxx::__alloc_traits<_Tp_alloc_type> _Tr;
	if (__p)
 80a0958:	b108      	cbz	r0, 80a095e <_ZN16SensorControllerD1Ev+0x166>
 80a095a:	f7ff fba0 	bl	80a009e <_ZdlPv>
      }
#endif

      ~_Vector_base() _GLIBCXX_NOEXCEPT
      { _M_deallocate(this->_M_impl._M_start, this->_M_impl._M_end_of_storage
		      - this->_M_impl._M_start); }
 80a095e:	6920      	ldr	r0, [r4, #16]

      void
      _M_deallocate(pointer __p, size_t __n)
      {
	typedef __gnu_cxx::__alloc_traits<_Tp_alloc_type> _Tr;
	if (__p)
 80a0960:	b108      	cbz	r0, 80a0966 <_ZN16SensorControllerD1Ev+0x16e>
 80a0962:	f7ff fb9c 	bl	80a009e <_ZdlPv>
 80a0966:	4620      	mov	r0, r4
 80a0968:	f005 fb44 	bl	80a5ff4 <_ZN6StringD1Ev>
 80a096c:	4620      	mov	r0, r4
 80a096e:	bd70      	pop	{r4, r5, r6, pc}
 80a0970:	080ad364 	.word	0x080ad364
 80a0974:	080ad4c4 	.word	0x080ad4c4
 80a0978:	080ad0a8 	.word	0x080ad0a8
 80a097c:	080ad3f8 	.word	0x080ad3f8
 80a0980:	080aceec 	.word	0x080aceec
 80a0984:	080ad220 	.word	0x080ad220
 80a0988:	080ad508 	.word	0x080ad508
 80a098c:	080ad064 	.word	0x080ad064
 80a0990:	080ad3c4 	.word	0x080ad3c4

080a0994 <_ZN10EEPROMinfoC1E6String>:
  uint8_t flag;
  char name[24];
  uint16_t TVOC_base, eCO2_base;
  bool setGas;

  EEPROMinfo(String newname) : flag(0), name(""), TVOC_base(0), eCO2_base(0), setGas(false)
 80a0994:	b5f8      	push	{r3, r4, r5, r6, r7, lr}
 80a0996:	4605      	mov	r5, r0
 80a0998:	460e      	mov	r6, r1
 80a099a:	4b13      	ldr	r3, [pc, #76]	; (80a09e8 <_ZN10EEPROMinfoC1E6String+0x54>)
 80a099c:	2400      	movs	r4, #0
 80a099e:	781b      	ldrb	r3, [r3, #0]
 80a09a0:	7004      	strb	r4, [r0, #0]
 80a09a2:	7043      	strb	r3, [r0, #1]
 80a09a4:	2217      	movs	r2, #23
 80a09a6:	4621      	mov	r1, r4
 80a09a8:	3002      	adds	r0, #2
 80a09aa:	f00b f8d1 	bl	80abb50 <memset>
 80a09ae:	836c      	strh	r4, [r5, #26]
 80a09b0:	83ac      	strh	r4, [r5, #28]
 80a09b2:	77ac      	strb	r4, [r5, #30]
  {
    if (newname.length() < 24)
 80a09b4:	68b3      	ldr	r3, [r6, #8]
 80a09b6:	2b17      	cmp	r3, #23
 80a09b8:	d80a      	bhi.n	80a09d0 <_ZN10EEPROMinfoC1E6String+0x3c>
 80a09ba:	462c      	mov	r4, r5
    {
      for (size_t i = 0; i < newname.length(); i++)
 80a09bc:	68b3      	ldr	r3, [r6, #8]
 80a09be:	1b61      	subs	r1, r4, r5
 80a09c0:	428b      	cmp	r3, r1
 80a09c2:	d90f      	bls.n	80a09e4 <_ZN10EEPROMinfoC1E6String+0x50>
      {
        name[i] = newname.charAt(i);
 80a09c4:	4630      	mov	r0, r6
 80a09c6:	f005 fcca 	bl	80a635e <_ZNK6String6charAtEj>
 80a09ca:	f804 0f01 	strb.w	r0, [r4, #1]!
 80a09ce:	e7f5      	b.n	80a09bc <_ZN10EEPROMinfoC1E6String+0x28>
 80a09d0:	462f      	mov	r7, r5
    }
    else
    {
      for (size_t i = 0; i < 24; i++)
      {
        name[i] = newname.charAt(i);
 80a09d2:	4621      	mov	r1, r4
 80a09d4:	4630      	mov	r0, r6
 80a09d6:	f005 fcc2 	bl	80a635e <_ZNK6String6charAtEj>
        name[i] = newname.charAt(i);
      }
    }
    else
    {
      for (size_t i = 0; i < 24; i++)
 80a09da:	3401      	adds	r4, #1
 80a09dc:	2c18      	cmp	r4, #24
      {
        name[i] = newname.charAt(i);
 80a09de:	f807 0f01 	strb.w	r0, [r7, #1]!
        name[i] = newname.charAt(i);
      }
    }
    else
    {
      for (size_t i = 0; i < 24; i++)
 80a09e2:	d1f6      	bne.n	80a09d2 <_ZN10EEPROMinfoC1E6String+0x3e>
      {
        name[i] = newname.charAt(i);
      }
    }
  }
 80a09e4:	4628      	mov	r0, r5
 80a09e6:	bdf8      	pop	{r3, r4, r5, r6, r7, pc}
 80a09e8:	080ac664 	.word	0x080ac664

080a09ec <_Z13setup_Optionsv>:
};

Timer cloudConnectionTimer(25000, cancelWiFiCallback, true);

void setup_Options()
{
 80a09ec:	b508      	push	{r3, lr}
    bool clearCredentials(void) {
        return network_clear_credentials(*this, 0, NULL, NULL);
    }

    int selectAntenna(WLanSelectAntenna_TypeDef antenna) {
        return wlan_select_antenna(antenna);
 80a09ee:	2001      	movs	r0, #1
 80a09f0:	f004 ffc2 	bl	80a5978 <wlan_select_antenna>
        return HAL_Feature_Get(feature);
    }

    inline int enableFeature(HAL_Feature feature)
    {
        return HAL_Feature_Set(feature, true);
 80a09f4:	2101      	movs	r1, #1
 80a09f6:	4608      	mov	r0, r1
 80a09f8:	f004 fe4c 	bl	80a5694 <HAL_Feature_Set>
 80a09fc:	2101      	movs	r1, #1
 80a09fe:	2004      	movs	r0, #4
 80a0a00:	f004 fe48 	bl	80a5694 <HAL_Feature_Set>
  WiFi.selectAntenna(ANT_EXTERNAL);
  System.enableFeature(FEATURE_RETAINED_MEMORY);
  System.enableFeature(FEATURE_RESET_INFO);
  System.disableUpdates();
  // System.enableFeature(FEATURE_WIFI_POWERSAVE_CLOCK);
}
 80a0a04:	e8bd 4008 	ldmia.w	sp!, {r3, lr}
        return value;
    }

    static inline void set_flag(system_flag_t flag, uint8_t value)
    {
        system_set_flag(flag, value, nullptr);
 80a0a08:	2200      	movs	r2, #0
 80a0a0a:	4611      	mov	r1, r2
 80a0a0c:	2001      	movs	r0, #1
 80a0a0e:	f005 b80b 	b.w	80a5a28 <system_set_flag>
 80a0a12:	0000      	movs	r0, r0
 80a0a14:	0000      	movs	r0, r0
	...

080a0a18 <_Z13getDecimalDayv>:
    StartPIRLoop();
  }
}

float getDecimalDay()
{
 80a0a18:	b530      	push	{r4, r5, lr}
 80a0a1a:	b089      	sub	sp, #36	; 0x24
  int year = Time.year();
 80a0a1c:	f006 fec8 	bl	80a77b0 <_ZN9TimeClass4yearEv>
 80a0a20:	4604      	mov	r4, r0
  long secFromEpoc = Time.local();
 80a0a22:	f006 fe43 	bl	80a76ac <_ZN9TimeClass5localEv>
  int additionalSeconds = 0;
  if (year > 2020)
 80a0a26:	f240 73e4 	movw	r3, #2020	; 0x7e4
 80a0a2a:	429c      	cmp	r4, r3
}

float getDecimalDay()
{
  int year = Time.year();
  long secFromEpoc = Time.local();
 80a0a2c:	4605      	mov	r5, r0
  int additionalSeconds = 0;
  if (year > 2020)
 80a0a2e:	dd0f      	ble.n	80a0a50 <_Z13getDecimalDayv+0x38>
  {
    additionalSeconds = floor((year - 2021) / 4 + 1) * 86400;
 80a0a30:	f2a4 70e5 	subw	r0, r4, #2021	; 0x7e5
 80a0a34:	1080      	asrs	r0, r0, #2
 80a0a36:	3001      	adds	r0, #1
 80a0a38:	f009 fe9e 	bl	80aa778 <__aeabi_i2d>
 80a0a3c:	f008 f974 	bl	80a8d28 <floor>
 80a0a40:	a319      	add	r3, pc, #100	; (adr r3, 80a0aa8 <_Z13getDecimalDayv+0x90>)
 80a0a42:	e9d3 2300 	ldrd	r2, r3, [r3]
 80a0a46:	f009 fefd 	bl	80aa844 <__aeabi_dmul>
 80a0a4a:	f00a f9ab 	bl	80aada4 <__aeabi_d2iz>
 80a0a4e:	e000      	b.n	80a0a52 <_Z13getDecimalDayv+0x3a>

float getDecimalDay()
{
  int year = Time.year();
  long secFromEpoc = Time.local();
  int additionalSeconds = 0;
 80a0a50:	2000      	movs	r0, #0
  if (year > 2020)
  {
    additionalSeconds = floor((year - 2021) / 4 + 1) * 86400;
  }
  long secStartOfYear = 1546300800 + (year - 2019) * 31536000 + additionalSeconds;
 80a0a52:	4b19      	ldr	r3, [pc, #100]	; (80a0ab8 <_Z13getDecimalDayv+0xa0>)
 80a0a54:	f2a4 74e3 	subw	r4, r4, #2019	; 0x7e3
 80a0a58:	fb03 0004 	mla	r0, r3, r4, r0
 80a0a5c:	4c17      	ldr	r4, [pc, #92]	; (80a0abc <_Z13getDecimalDayv+0xa4>)
{
public:
	StringSumHelper(const String &s) : String(s) {}
	StringSumHelper(const char *p) : String(p) {}
 80a0a5e:	4918      	ldr	r1, [pc, #96]	; (80a0ac0 <_Z13getDecimalDayv+0xa8>)
 80a0a60:	4404      	add	r4, r0
 80a0a62:	a804      	add	r0, sp, #16
 80a0a64:	f005 fb0d 	bl	80a6082 <_ZN6StringC1EPK19__FlashStringHelper>
  Log.info("Seconds for the start of year: " + String(secStartOfYear));
 80a0a68:	220a      	movs	r2, #10
 80a0a6a:	4621      	mov	r1, r4
 80a0a6c:	4668      	mov	r0, sp
 80a0a6e:	f005 fb90 	bl	80a6192 <_ZN6StringC1Elh>
 80a0a72:	4669      	mov	r1, sp
 80a0a74:	a804      	add	r0, sp, #16
 80a0a76:	f005 fc0c 	bl	80a6292 <_ZplRK15StringSumHelperRK6String>
 80a0a7a:	6801      	ldr	r1, [r0, #0]
 80a0a7c:	4811      	ldr	r0, [pc, #68]	; (80a0ac4 <_Z13getDecimalDayv+0xac>)
 80a0a7e:	f7ff fe97 	bl	80a07b0 <_ZNK5spark6Logger4infoEPKcz>
 80a0a82:	4668      	mov	r0, sp
 80a0a84:	f005 fab6 	bl	80a5ff4 <_ZN6StringD1Ev>

        friend class StringPrintableHelper;

};

class StringSumHelper : public String
 80a0a88:	a804      	add	r0, sp, #16
 80a0a8a:	f005 fab3 	bl	80a5ff4 <_ZN6StringD1Ev>
  long diffFromSoY = secFromEpoc - secStartOfYear;
  float hrs = diffFromSoY * 1.0 / 3600.0;
  return hrs;
 80a0a8e:	1b28      	subs	r0, r5, r4
 80a0a90:	f009 fe72 	bl	80aa778 <__aeabi_i2d>
 80a0a94:	a306      	add	r3, pc, #24	; (adr r3, 80a0ab0 <_Z13getDecimalDayv+0x98>)
 80a0a96:	e9d3 2300 	ldrd	r2, r3, [r3]
 80a0a9a:	f009 fffd 	bl	80aaa98 <__aeabi_ddiv>
 80a0a9e:	f00a f9c9 	bl	80aae34 <__aeabi_d2f>
}
 80a0aa2:	b009      	add	sp, #36	; 0x24
 80a0aa4:	bd30      	pop	{r4, r5, pc}
 80a0aa6:	bf00      	nop
 80a0aa8:	00000000 	.word	0x00000000
 80a0aac:	40f51800 	.word	0x40f51800
 80a0ab0:	00000000 	.word	0x00000000
 80a0ab4:	40ac2000 	.word	0x40ac2000
 80a0ab8:	01e13380 	.word	0x01e13380
 80a0abc:	5c2aad80 	.word	0x5c2aad80
 80a0ac0:	080ac68b 	.word	0x080ac68b
 80a0ac4:	20000e94 	.word	0x20000e94

080a0ac8 <_Z12StartPIRLoopv>:

void StartPIRLoop()
{
 80a0ac8:	b5f0      	push	{r4, r5, r6, r7, lr}
  isCloudLoop = false;
 80a0aca:	4b4b      	ldr	r3, [pc, #300]	; (80a0bf8 <_Z12StartPIRLoopv+0x130>)
  float hrs = diffFromSoY * 1.0 / 3600.0;
  return hrs;
}

void StartPIRLoop()
{
 80a0acc:	b08d      	sub	sp, #52	; 0x34
  isCloudLoop = false;
 80a0ace:	2200      	movs	r2, #0
  Log.info("PIR loop:");
 80a0ad0:	494a      	ldr	r1, [pc, #296]	; (80a0bfc <_Z12StartPIRLoopv+0x134>)
 80a0ad2:	484b      	ldr	r0, [pc, #300]	; (80a0c00 <_Z12StartPIRLoopv+0x138>)
  return hrs;
}

void StartPIRLoop()
{
  isCloudLoop = false;
 80a0ad4:	701a      	strb	r2, [r3, #0]
  Log.info("PIR loop:");
 80a0ad6:	f7ff fe6b 	bl	80a07b0 <_ZNK5spark6Logger4infoEPKcz>
  //float currentTime = (Time.local()-1546300800)*3600*24 Time.hour() + Time.minute() * 1.0 / 60 + Time.second() * 1.0 / 3600;
  float currentTime = getDecimalDay();
 80a0ada:	f7ff ff9d 	bl	80a0a18 <_Z13getDecimalDayv>
  int PIR1_Value = digitalRead(PIR1Pin);
 80a0ade:	4b49      	ldr	r3, [pc, #292]	; (80a0c04 <_Z12StartPIRLoopv+0x13c>)
void StartPIRLoop()
{
  isCloudLoop = false;
  Log.info("PIR loop:");
  //float currentTime = (Time.local()-1546300800)*3600*24 Time.hour() + Time.minute() * 1.0 / 60 + Time.second() * 1.0 / 3600;
  float currentTime = getDecimalDay();
 80a0ae0:	4605      	mov	r5, r0
  int PIR1_Value = digitalRead(PIR1Pin);
 80a0ae2:	8818      	ldrh	r0, [r3, #0]
 80a0ae4:	f007 ff34 	bl	80a8950 <digitalRead>
 80a0ae8:	4604      	mov	r4, r0
  delay(10);
 80a0aea:	200a      	movs	r0, #10
 80a0aec:	f006 fe74 	bl	80a77d8 <delay>
  int PIR2_Value = digitalRead(PIR2Pin);
 80a0af0:	4b45      	ldr	r3, [pc, #276]	; (80a0c08 <_Z12StartPIRLoopv+0x140>)
 80a0af2:	8818      	ldrh	r0, [r3, #0]
 80a0af4:	f007 ff2c 	bl	80a8950 <digitalRead>
 80a0af8:	4606      	mov	r6, r0
  delay(10);
 80a0afa:	200a      	movs	r0, #10
 80a0afc:	f006 fe6c 	bl	80a77d8 <delay>
{
public:
	StringSumHelper(const String &s) : String(s) {}
	StringSumHelper(const char *p) : String(p) {}
 80a0b00:	4942      	ldr	r1, [pc, #264]	; (80a0c0c <_Z12StartPIRLoopv+0x144>)
 80a0b02:	a804      	add	r0, sp, #16
 80a0b04:	f005 fabd 	bl	80a6082 <_ZN6StringC1EPK19__FlashStringHelper>
  Log.info("PIR 1: " + String(PIR1_Value) + "\tPIR 2: " + String(PIR2_Value));
 80a0b08:	220a      	movs	r2, #10
 80a0b0a:	4621      	mov	r1, r4
 80a0b0c:	4668      	mov	r0, sp
 80a0b0e:	f005 fb2d 	bl	80a616c <_ZN6StringC1Eih>
 80a0b12:	4669      	mov	r1, sp
 80a0b14:	a804      	add	r0, sp, #16
 80a0b16:	f005 fbbc 	bl	80a6292 <_ZplRK15StringSumHelperRK6String>
 80a0b1a:	493d      	ldr	r1, [pc, #244]	; (80a0c10 <_Z12StartPIRLoopv+0x148>)
 80a0b1c:	f005 fbc5 	bl	80a62aa <_ZplRK15StringSumHelperPKc>
 80a0b20:	4607      	mov	r7, r0
 80a0b22:	220a      	movs	r2, #10
 80a0b24:	4631      	mov	r1, r6
 80a0b26:	a808      	add	r0, sp, #32
 80a0b28:	f005 fb20 	bl	80a616c <_ZN6StringC1Eih>
 80a0b2c:	a908      	add	r1, sp, #32
 80a0b2e:	4638      	mov	r0, r7
 80a0b30:	f005 fbaf 	bl	80a6292 <_ZplRK15StringSumHelperRK6String>
 80a0b34:	6801      	ldr	r1, [r0, #0]
 80a0b36:	4832      	ldr	r0, [pc, #200]	; (80a0c00 <_Z12StartPIRLoopv+0x138>)
 80a0b38:	f7ff fe3a 	bl	80a07b0 <_ZNK5spark6Logger4infoEPKcz>
 80a0b3c:	a808      	add	r0, sp, #32
 80a0b3e:	f005 fa59 	bl	80a5ff4 <_ZN6StringD1Ev>
 80a0b42:	4668      	mov	r0, sp
 80a0b44:	f005 fa56 	bl	80a5ff4 <_ZN6StringD1Ev>

        friend class StringPrintableHelper;

};

class StringSumHelper : public String
 80a0b48:	a804      	add	r0, sp, #16
 80a0b4a:	f005 fa53 	bl	80a5ff4 <_ZN6StringD1Ev>
  if (PIR1_Value == HIGH && (nPIR1 == 0 || (nPIR1 > 0 && currentTime - PIR1[nPIR1 - 1] >= PIRdelay)))
 80a0b4e:	2c01      	cmp	r4, #1
 80a0b50:	d123      	bne.n	80a0b9a <_Z12StartPIRLoopv+0xd2>
 80a0b52:	4c30      	ldr	r4, [pc, #192]	; (80a0c14 <_Z12StartPIRLoopv+0x14c>)
 80a0b54:	7863      	ldrb	r3, [r4, #1]
 80a0b56:	b14b      	cbz	r3, 80a0b6c <_Z12StartPIRLoopv+0xa4>
 80a0b58:	f854 1023 	ldr.w	r1, [r4, r3, lsl #2]
 80a0b5c:	4628      	mov	r0, r5
 80a0b5e:	f00a f9bd 	bl	80aaedc <__aeabi_fsub>
 80a0b62:	4b2d      	ldr	r3, [pc, #180]	; (80a0c18 <_Z12StartPIRLoopv+0x150>)
 80a0b64:	6819      	ldr	r1, [r3, #0]
 80a0b66:	f00a fc75 	bl	80ab454 <__aeabi_fcmpge>
 80a0b6a:	b1b0      	cbz	r0, 80a0b9a <_Z12StartPIRLoopv+0xd2>
  {
    Log.info("PIR 1 detected");
 80a0b6c:	492b      	ldr	r1, [pc, #172]	; (80a0c1c <_Z12StartPIRLoopv+0x154>)
 80a0b6e:	4824      	ldr	r0, [pc, #144]	; (80a0c00 <_Z12StartPIRLoopv+0x138>)
 80a0b70:	f7ff fe1e 	bl	80a07b0 <_ZNK5spark6Logger4infoEPKcz>
    delay(100);
 80a0b74:	2064      	movs	r0, #100	; 0x64
 80a0b76:	f006 fe2f 	bl	80a77d8 <delay>
    PIR1[nPIR1] = currentTime;
 80a0b7a:	7863      	ldrb	r3, [r4, #1]
 80a0b7c:	4a25      	ldr	r2, [pc, #148]	; (80a0c14 <_Z12StartPIRLoopv+0x14c>)
 80a0b7e:	eb04 0183 	add.w	r1, r4, r3, lsl #2
    nPIR1++;
 80a0b82:	3301      	adds	r3, #1
 80a0b84:	b2db      	uxtb	r3, r3
    if (nPIR1 >= PIRlistSize)
 80a0b86:	2bc7      	cmp	r3, #199	; 0xc7
  if (PIR1_Value == HIGH && (nPIR1 == 0 || (nPIR1 > 0 && currentTime - PIR1[nPIR1 - 1] >= PIRdelay)))
  {
    Log.info("PIR 1 detected");
    delay(100);
    PIR1[nPIR1] = currentTime;
    nPIR1++;
 80a0b88:	7063      	strb	r3, [r4, #1]
    if (nPIR1 >= PIRlistSize)
    {
      LoopedPIR1 = true;
 80a0b8a:	bf82      	ittt	hi
 80a0b8c:	2301      	movhi	r3, #1
 80a0b8e:	f882 3324 	strbhi.w	r3, [r2, #804]	; 0x324
      nPIR1 = 0;
 80a0b92:	2300      	movhi	r3, #0
  Log.info("PIR 1: " + String(PIR1_Value) + "\tPIR 2: " + String(PIR2_Value));
  if (PIR1_Value == HIGH && (nPIR1 == 0 || (nPIR1 > 0 && currentTime - PIR1[nPIR1 - 1] >= PIRdelay)))
  {
    Log.info("PIR 1 detected");
    delay(100);
    PIR1[nPIR1] = currentTime;
 80a0b94:	604d      	str	r5, [r1, #4]
    nPIR1++;
    if (nPIR1 >= PIRlistSize)
    {
      LoopedPIR1 = true;
      nPIR1 = 0;
 80a0b96:	bf88      	it	hi
 80a0b98:	7053      	strbhi	r3, [r2, #1]
    }
  }

  if (PIR2_Value == HIGH && (nPIR2 == 0 || (nPIR2 > 0 && currentTime - PIR2[nPIR2 - 1] >= PIRdelay)))
 80a0b9a:	2e01      	cmp	r6, #1
 80a0b9c:	d12a      	bne.n	80a0bf4 <_Z12StartPIRLoopv+0x12c>
 80a0b9e:	4c1d      	ldr	r4, [pc, #116]	; (80a0c14 <_Z12StartPIRLoopv+0x14c>)
 80a0ba0:	f894 3325 	ldrb.w	r3, [r4, #805]	; 0x325
 80a0ba4:	b15b      	cbz	r3, 80a0bbe <_Z12StartPIRLoopv+0xf6>
 80a0ba6:	eb04 0383 	add.w	r3, r4, r3, lsl #2
 80a0baa:	f8d3 1324 	ldr.w	r1, [r3, #804]	; 0x324
 80a0bae:	4628      	mov	r0, r5
 80a0bb0:	f00a f994 	bl	80aaedc <__aeabi_fsub>
 80a0bb4:	4b18      	ldr	r3, [pc, #96]	; (80a0c18 <_Z12StartPIRLoopv+0x150>)
 80a0bb6:	6819      	ldr	r1, [r3, #0]
 80a0bb8:	f00a fc4c 	bl	80ab454 <__aeabi_fcmpge>
 80a0bbc:	b1d0      	cbz	r0, 80a0bf4 <_Z12StartPIRLoopv+0x12c>
  {
    Log.info("PIR 2 detected");
 80a0bbe:	4918      	ldr	r1, [pc, #96]	; (80a0c20 <_Z12StartPIRLoopv+0x158>)
 80a0bc0:	480f      	ldr	r0, [pc, #60]	; (80a0c00 <_Z12StartPIRLoopv+0x138>)
 80a0bc2:	f7ff fdf5 	bl	80a07b0 <_ZNK5spark6Logger4infoEPKcz>
    delay(100);
 80a0bc6:	2064      	movs	r0, #100	; 0x64
 80a0bc8:	f006 fe06 	bl	80a77d8 <delay>
    PIR2[nPIR2] = currentTime;
 80a0bcc:	f894 3325 	ldrb.w	r3, [r4, #805]	; 0x325
 80a0bd0:	4a10      	ldr	r2, [pc, #64]	; (80a0c14 <_Z12StartPIRLoopv+0x14c>)
 80a0bd2:	eb04 0183 	add.w	r1, r4, r3, lsl #2
    nPIR2++;
 80a0bd6:	3301      	adds	r3, #1
 80a0bd8:	b2db      	uxtb	r3, r3
    if (nPIR2 >= PIRlistSize)
 80a0bda:	2bc7      	cmp	r3, #199	; 0xc7
  if (PIR2_Value == HIGH && (nPIR2 == 0 || (nPIR2 > 0 && currentTime - PIR2[nPIR2 - 1] >= PIRdelay)))
  {
    Log.info("PIR 2 detected");
    delay(100);
    PIR2[nPIR2] = currentTime;
    nPIR2++;
 80a0bdc:	f884 3325 	strb.w	r3, [r4, #805]	; 0x325
    if (nPIR2 >= PIRlistSize)
    {
      LoopedPIR2 = true;
 80a0be0:	bf82      	ittt	hi
 80a0be2:	2301      	movhi	r3, #1
 80a0be4:	f882 3648 	strbhi.w	r3, [r2, #1608]	; 0x648
      nPIR2 = 0;
 80a0be8:	2300      	movhi	r3, #0

  if (PIR2_Value == HIGH && (nPIR2 == 0 || (nPIR2 > 0 && currentTime - PIR2[nPIR2 - 1] >= PIRdelay)))
  {
    Log.info("PIR 2 detected");
    delay(100);
    PIR2[nPIR2] = currentTime;
 80a0bea:	f8c1 5328 	str.w	r5, [r1, #808]	; 0x328
    nPIR2++;
    if (nPIR2 >= PIRlistSize)
    {
      LoopedPIR2 = true;
      nPIR2 = 0;
 80a0bee:	bf88      	it	hi
 80a0bf0:	f882 3325 	strbhi.w	r3, [r2, #805]	; 0x325
    }
  }
}
 80a0bf4:	b00d      	add	sp, #52	; 0x34
 80a0bf6:	bdf0      	pop	{r4, r5, r6, r7, pc}
 80a0bf8:	20000324 	.word	0x20000324
 80a0bfc:	080ac6ab 	.word	0x080ac6ab
 80a0c00:	20000e94 	.word	0x20000e94
 80a0c04:	20000328 	.word	0x20000328
 80a0c08:	20000338 	.word	0x20000338
 80a0c0c:	080ac6b5 	.word	0x080ac6b5
 80a0c10:	080ac6bd 	.word	0x080ac6bd
 80a0c14:	40024000 	.word	0x40024000
 80a0c18:	2000033c 	.word	0x2000033c
 80a0c1c:	080ac6c6 	.word	0x080ac6c6
 80a0c20:	080ac6d5 	.word	0x080ac6d5

080a0c24 <_Z14saveSensorInfov>:
}

// This fuction will save info to Readings variable.
// Assumed that nReadingsSaved is updated
void saveSensorInfo()
{
 80a0c24:	e92d 47f0 	stmdb	sp!, {r4, r5, r6, r7, r8, r9, sl, lr}
 80a0c28:	b088      	sub	sp, #32
  String tempCode = "--";
 80a0c2a:	4976      	ldr	r1, [pc, #472]	; (80a0e04 <_Z14saveSensorInfov+0x1e0>)
 80a0c2c:	4668      	mov	r0, sp
 80a0c2e:	f005 fa28 	bl	80a6082 <_ZN6StringC1EPK19__FlashStringHelper>
  if (cloudReady)
 80a0c32:	4b75      	ldr	r3, [pc, #468]	; (80a0e08 <_Z14saveSensorInfov+0x1e4>)
 80a0c34:	781b      	ldrb	r3, [r3, #0]
 80a0c36:	2b00      	cmp	r3, #0
 80a0c38:	d05b      	beq.n	80a0cf2 <_Z14saveSensorInfov+0xce>
 80a0c3a:	2400      	movs	r4, #0
  {
    for (size_t i = 0; i < nStaticReadings; i++)
    {
      tempCode = String(sensors.getJsonCodes(i));
      JSONcode[i][0] = tempCode.charAt(0);
 80a0c3c:	46a2      	mov	sl, r4
 80a0c3e:	4d73      	ldr	r5, [pc, #460]	; (80a0e0c <_Z14saveSensorInfov+0x1e8>)
  void UpdateSensors();
  void CommunicateSensors();
  void UploadSensors();
  int getNumberOfReadings() { return sensorReadings.size(); };
  double *getLatestData() { return staticReadings[savedReadings - 1]; };
  String getJsonCodes(int index) { return String(JasonName[index]); };
 80a0c40:	f8df 81f0 	ldr.w	r8, [pc, #496]	; 80a0e34 <_Z14saveSensorInfov+0x210>
 80a0c44:	eb08 1104 	add.w	r1, r8, r4, lsl #4
 80a0c48:	f601 0138 	addw	r1, r1, #2104	; 0x838
 80a0c4c:	a804      	add	r0, sp, #16
 80a0c4e:	f005 fa57 	bl	80a6100 <_ZN6StringC1ERKS_>
  String tempCode = "--";
  if (cloudReady)
  {
    for (size_t i = 0; i < nStaticReadings; i++)
    {
      tempCode = String(sensors.getJsonCodes(i));
 80a0c52:	a904      	add	r1, sp, #16
 80a0c54:	4668      	mov	r0, sp
 80a0c56:	f005 fa5e 	bl	80a6116 <_ZN6StringaSEOS_>
 80a0c5a:	a804      	add	r0, sp, #16
 80a0c5c:	f005 f9ca 	bl	80a5ff4 <_ZN6StringD1Ev>
      JSONcode[i][0] = tempCode.charAt(0);
 80a0c60:	2100      	movs	r1, #0
 80a0c62:	4668      	mov	r0, sp
 80a0c64:	f005 fb7b 	bl	80a635e <_ZNK6String6charAtEj>
      JSONcode[i][1] = tempCode.charAt(1);
 80a0c68:	2101      	movs	r1, #1
  if (cloudReady)
  {
    for (size_t i = 0; i < nStaticReadings; i++)
    {
      tempCode = String(sensors.getJsonCodes(i));
      JSONcode[i][0] = tempCode.charAt(0);
 80a0c6a:	f805 0c01 	strb.w	r0, [r5, #-1]
      JSONcode[i][1] = tempCode.charAt(1);
 80a0c6e:	4668      	mov	r0, sp
 80a0c70:	f005 fb75 	bl	80a635e <_ZNK6String6charAtEj>
      JSONcode[i][2] = '\0';
 80a0c74:	f885 a001 	strb.w	sl, [r5, #1]
  {
    for (size_t i = 0; i < nStaticReadings; i++)
    {
      tempCode = String(sensors.getJsonCodes(i));
      JSONcode[i][0] = tempCode.charAt(0);
      JSONcode[i][1] = tempCode.charAt(1);
 80a0c78:	7028      	strb	r0, [r5, #0]
	operator StringIfHelperType() const { return buffer ? &String::StringIfHelper : 0; }
	int compareTo(const String &s) const;
	unsigned char equals(const String &s) const;
	unsigned char equals(const char *cstr) const;
	unsigned char operator == (const String &rhs) const {return equals(rhs);}
	unsigned char operator == (const char *cstr) const {return equals(cstr);}
 80a0c7a:	4965      	ldr	r1, [pc, #404]	; (80a0e10 <_Z14saveSensorInfov+0x1ec>)
 80a0c7c:	4668      	mov	r0, sp
 80a0c7e:	f005 fb53 	bl	80a6328 <_ZNK6String6equalsEPKc>
 80a0c82:	4f64      	ldr	r7, [pc, #400]	; (80a0e14 <_Z14saveSensorInfov+0x1f0>)
 80a0c84:	4e64      	ldr	r6, [pc, #400]	; (80a0e18 <_Z14saveSensorInfov+0x1f4>)
      JSONcode[i][2] = '\0';

      if (tempCode == "Sc")
 80a0c86:	b150      	cbz	r0, 80a0c9e <_Z14saveSensorInfov+0x7a>
      {
        Readings[nReadingsSaved][i] = Time.second() * 1000;
 80a0c88:	f8d7 9000 	ldr.w	r9, [r7]
 80a0c8c:	f006 fd74 	bl	80a7778 <_ZN9TimeClass6secondEv>
 80a0c90:	230e      	movs	r3, #14
 80a0c92:	fb03 4909 	mla	r9, r3, r9, r4
 80a0c96:	f44f 737a 	mov.w	r3, #1000	; 0x3e8
 80a0c9a:	4358      	muls	r0, r3
 80a0c9c:	e016      	b.n	80a0ccc <_Z14saveSensorInfov+0xa8>
  uint16_t *getGasBase();
  void UpdateSensors();
  void CommunicateSensors();
  void UploadSensors();
  int getNumberOfReadings() { return sensorReadings.size(); };
  double *getLatestData() { return staticReadings[savedReadings - 1]; };
 80a0c9e:	f8d8 190c 	ldr.w	r1, [r8, #2316]	; 0x90c
 80a0ca2:	2268      	movs	r2, #104	; 0x68
 80a0ca4:	3901      	subs	r1, #1
 80a0ca6:	4351      	muls	r1, r2
      }
      else
      {
        Readings[nReadingsSaved][i] = (sensors.getLatestData())[i] * 1000;
 80a0ca8:	683b      	ldr	r3, [r7, #0]
 80a0caa:	f04f 090e 	mov.w	r9, #14
 80a0cae:	fb09 4903 	mla	r9, r9, r3, r4
 80a0cb2:	f501 6385 	add.w	r3, r1, #1064	; 0x428
 80a0cb6:	eb08 01c4 	add.w	r1, r8, r4, lsl #3
 80a0cba:	4419      	add	r1, r3
 80a0cbc:	2200      	movs	r2, #0
 80a0cbe:	4b57      	ldr	r3, [pc, #348]	; (80a0e1c <_Z14saveSensorInfov+0x1f8>)
 80a0cc0:	e9d1 0100 	ldrd	r0, r1, [r1]
 80a0cc4:	f009 fdbe 	bl	80aa844 <__aeabi_dmul>
 80a0cc8:	f00a f86c 	bl	80aada4 <__aeabi_d2iz>
void saveSensorInfo()
{
  String tempCode = "--";
  if (cloudReady)
  {
    for (size_t i = 0; i < nStaticReadings; i++)
 80a0ccc:	3401      	adds	r4, #1
 80a0cce:	2c0d      	cmp	r4, #13
      {
        Readings[nReadingsSaved][i] = Time.second() * 1000;
      }
      else
      {
        Readings[nReadingsSaved][i] = (sensors.getLatestData())[i] * 1000;
 80a0cd0:	f846 0029 	str.w	r0, [r6, r9, lsl #2]
 80a0cd4:	f105 0503 	add.w	r5, r5, #3
void saveSensorInfo()
{
  String tempCode = "--";
  if (cloudReady)
  {
    for (size_t i = 0; i < nStaticReadings; i++)
 80a0cd8:	d1b4      	bne.n	80a0c44 <_Z14saveSensorInfov+0x20>
      else
      {
        Readings[nReadingsSaved][i] = (sensors.getLatestData())[i] * 1000;
      }
    }
    Readings[nReadingsSaved][nStaticReadings] = getDecimalDay() * 1000;
 80a0cda:	683c      	ldr	r4, [r7, #0]
 80a0cdc:	f7ff fe9c 	bl	80a0a18 <_Z13getDecimalDayv>
 80a0ce0:	2338      	movs	r3, #56	; 0x38
 80a0ce2:	494f      	ldr	r1, [pc, #316]	; (80a0e20 <_Z14saveSensorInfov+0x1fc>)
 80a0ce4:	fb03 6604 	mla	r6, r3, r4, r6
 80a0ce8:	f00a fa02 	bl	80ab0f0 <__aeabi_fmul>
 80a0cec:	f00a fbc6 	bl	80ab47c <__aeabi_f2iz>
 80a0cf0:	6370      	str	r0, [r6, #52]	; 0x34
  }
  if (saveOffline)
 80a0cf2:	4b4c      	ldr	r3, [pc, #304]	; (80a0e24 <_Z14saveSensorInfov+0x200>)
 80a0cf4:	781b      	ldrb	r3, [r3, #0]
 80a0cf6:	2b00      	cmp	r3, #0
 80a0cf8:	d074      	beq.n	80a0de4 <_Z14saveSensorInfov+0x1c0>
 80a0cfa:	2400      	movs	r4, #0
  {
    for (size_t i = 0; i < nStaticReadings; i++)
    {
      tempCode = String(sensors.getJsonCodes(i));
      JSONcode[i][0] = tempCode.charAt(0);
 80a0cfc:	46a1      	mov	r9, r4
 80a0cfe:	4e43      	ldr	r6, [pc, #268]	; (80a0e0c <_Z14saveSensorInfov+0x1e8>)
  String getJsonCodes(int index) { return String(JasonName[index]); };
 80a0d00:	f8df 8130 	ldr.w	r8, [pc, #304]	; 80a0e34 <_Z14saveSensorInfov+0x210>
 80a0d04:	eb08 1104 	add.w	r1, r8, r4, lsl #4
 80a0d08:	f601 0138 	addw	r1, r1, #2104	; 0x838
 80a0d0c:	a804      	add	r0, sp, #16
 80a0d0e:	f005 f9f7 	bl	80a6100 <_ZN6StringC1ERKS_>
  }
  if (saveOffline)
  {
    for (size_t i = 0; i < nStaticReadings; i++)
    {
      tempCode = String(sensors.getJsonCodes(i));
 80a0d12:	a904      	add	r1, sp, #16
 80a0d14:	4668      	mov	r0, sp
 80a0d16:	f005 f9fe 	bl	80a6116 <_ZN6StringaSEOS_>
 80a0d1a:	a804      	add	r0, sp, #16
 80a0d1c:	f005 f96a 	bl	80a5ff4 <_ZN6StringD1Ev>
      JSONcode[i][0] = tempCode.charAt(0);
 80a0d20:	2100      	movs	r1, #0
 80a0d22:	4668      	mov	r0, sp
 80a0d24:	f005 fb1b 	bl	80a635e <_ZNK6String6charAtEj>
      JSONcode[i][1] = tempCode.charAt(1);
 80a0d28:	2101      	movs	r1, #1
  if (saveOffline)
  {
    for (size_t i = 0; i < nStaticReadings; i++)
    {
      tempCode = String(sensors.getJsonCodes(i));
      JSONcode[i][0] = tempCode.charAt(0);
 80a0d2a:	f806 0c01 	strb.w	r0, [r6, #-1]
      JSONcode[i][1] = tempCode.charAt(1);
 80a0d2e:	4668      	mov	r0, sp
 80a0d30:	f005 fb15 	bl	80a635e <_ZNK6String6charAtEj>
      JSONcode[i][2] = '\0';
 80a0d34:	f886 9001 	strb.w	r9, [r6, #1]
  {
    for (size_t i = 0; i < nStaticReadings; i++)
    {
      tempCode = String(sensors.getJsonCodes(i));
      JSONcode[i][0] = tempCode.charAt(0);
      JSONcode[i][1] = tempCode.charAt(1);
 80a0d38:	7030      	strb	r0, [r6, #0]
 80a0d3a:	4935      	ldr	r1, [pc, #212]	; (80a0e10 <_Z14saveSensorInfov+0x1ec>)
 80a0d3c:	4668      	mov	r0, sp
 80a0d3e:	f005 faf3 	bl	80a6328 <_ZNK6String6equalsEPKc>
 80a0d42:	4d39      	ldr	r5, [pc, #228]	; (80a0e28 <_Z14saveSensorInfov+0x204>)
      JSONcode[i][2] = '\0';

      if (tempCode == "Sc")
 80a0d44:	b160      	cbz	r0, 80a0d60 <_Z14saveSensorInfov+0x13c>
      {
        savedReadings[nOfflineReadingsSaved][i] = Time.second() * 1000;
 80a0d46:	f895 7649 	ldrb.w	r7, [r5, #1609]	; 0x649
 80a0d4a:	f006 fd15 	bl	80a7778 <_ZN9TimeClass6secondEv>
 80a0d4e:	230d      	movs	r3, #13
 80a0d50:	fb03 4707 	mla	r7, r3, r7, r4
 80a0d54:	f44f 737a 	mov.w	r3, #1000	; 0x3e8
 80a0d58:	eb05 0787 	add.w	r7, r5, r7, lsl #2
 80a0d5c:	4358      	muls	r0, r3
 80a0d5e:	e018      	b.n	80a0d92 <_Z14saveSensorInfov+0x16e>
  uint16_t *getGasBase();
  void UpdateSensors();
  void CommunicateSensors();
  void UploadSensors();
  int getNumberOfReadings() { return sensorReadings.size(); };
  double *getLatestData() { return staticReadings[savedReadings - 1]; };
 80a0d60:	f8d8 190c 	ldr.w	r1, [r8, #2316]	; 0x90c
 80a0d64:	2268      	movs	r2, #104	; 0x68
 80a0d66:	3901      	subs	r1, #1
 80a0d68:	4351      	muls	r1, r2
      }
      else
      {
        savedReadings[nOfflineReadingsSaved][i] = (sensors.getLatestData())[i] * 1000;
 80a0d6a:	f895 3649 	ldrb.w	r3, [r5, #1609]	; 0x649
 80a0d6e:	270d      	movs	r7, #13
 80a0d70:	fb07 4703 	mla	r7, r7, r3, r4
 80a0d74:	f501 6385 	add.w	r3, r1, #1064	; 0x428
 80a0d78:	eb08 01c4 	add.w	r1, r8, r4, lsl #3
 80a0d7c:	4419      	add	r1, r3
 80a0d7e:	2200      	movs	r2, #0
 80a0d80:	4b26      	ldr	r3, [pc, #152]	; (80a0e1c <_Z14saveSensorInfov+0x1f8>)
 80a0d82:	e9d1 0100 	ldrd	r0, r1, [r1]
 80a0d86:	eb05 0787 	add.w	r7, r5, r7, lsl #2
 80a0d8a:	f009 fd5b 	bl	80aa844 <__aeabi_dmul>
 80a0d8e:	f00a f809 	bl	80aada4 <__aeabi_d2iz>
    }
    Readings[nReadingsSaved][nStaticReadings] = getDecimalDay() * 1000;
  }
  if (saveOffline)
  {
    for (size_t i = 0; i < nStaticReadings; i++)
 80a0d92:	3401      	adds	r4, #1
 80a0d94:	2c0d      	cmp	r4, #13
      {
        savedReadings[nOfflineReadingsSaved][i] = Time.second() * 1000;
      }
      else
      {
        savedReadings[nOfflineReadingsSaved][i] = (sensors.getLatestData())[i] * 1000;
 80a0d96:	f8c7 064c 	str.w	r0, [r7, #1612]	; 0x64c
 80a0d9a:	f106 0603 	add.w	r6, r6, #3
    }
    Readings[nReadingsSaved][nStaticReadings] = getDecimalDay() * 1000;
  }
  if (saveOffline)
  {
    for (size_t i = 0; i < nStaticReadings; i++)
 80a0d9e:	d1b1      	bne.n	80a0d04 <_Z14saveSensorInfov+0xe0>
      else
      {
        savedReadings[nOfflineReadingsSaved][i] = (sensors.getLatestData())[i] * 1000;
      }
    }
    savedReadings[nOfflineReadingsSaved][nStaticReadings] = getDecimalDay() * 1000;
 80a0da0:	f895 4649 	ldrb.w	r4, [r5, #1609]	; 0x649
 80a0da4:	f7ff fe38 	bl	80a0a18 <_Z13getDecimalDayv>
 80a0da8:	2334      	movs	r3, #52	; 0x34
 80a0daa:	fb04 3303 	mla	r3, r4, r3, r3
 80a0dae:	491c      	ldr	r1, [pc, #112]	; (80a0e20 <_Z14saveSensorInfov+0x1fc>)
 80a0db0:	18ec      	adds	r4, r5, r3
 80a0db2:	f00a f99d 	bl	80ab0f0 <__aeabi_fmul>
 80a0db6:	f00a fb61 	bl	80ab47c <__aeabi_f2iz>
    nOfflineReadingsSaved++;
 80a0dba:	f895 3649 	ldrb.w	r3, [r5, #1609]	; 0x649
      else
      {
        savedReadings[nOfflineReadingsSaved][i] = (sensors.getLatestData())[i] * 1000;
      }
    }
    savedReadings[nOfflineReadingsSaved][nStaticReadings] = getDecimalDay() * 1000;
 80a0dbe:	4e1a      	ldr	r6, [pc, #104]	; (80a0e28 <_Z14saveSensorInfov+0x204>)
    nOfflineReadingsSaved++;
 80a0dc0:	3301      	adds	r3, #1
 80a0dc2:	b2db      	uxtb	r3, r3
    if (nOfflineReadingsSaved >= maxOfflineSaves)
 80a0dc4:	2b17      	cmp	r3, #23
    {
      nOfflineReadingsSaved = 0;
 80a0dc6:	bf83      	ittte	hi
 80a0dc8:	2300      	movhi	r3, #0
 80a0dca:	f886 3649 	strbhi.w	r3, [r6, #1609]	; 0x649
      loopedOfflineSaves = true;
 80a0dce:	2301      	movhi	r3, #1
      {
        savedReadings[nOfflineReadingsSaved][i] = (sensors.getLatestData())[i] * 1000;
      }
    }
    savedReadings[nOfflineReadingsSaved][nStaticReadings] = getDecimalDay() * 1000;
    nOfflineReadingsSaved++;
 80a0dd0:	f886 3649 	strbls.w	r3, [r6, #1609]	; 0x649
    if (nOfflineReadingsSaved >= maxOfflineSaves)
    {
      nOfflineReadingsSaved = 0;
      loopedOfflineSaves = true;
 80a0dd4:	bf88      	it	hi
 80a0dd6:	f886 3b2c 	strbhi.w	r3, [r6, #2860]	; 0xb2c
    }

    haveSavedToCloud = true;
 80a0dda:	4b14      	ldr	r3, [pc, #80]	; (80a0e2c <_Z14saveSensorInfov+0x208>)
 80a0ddc:	2201      	movs	r2, #1
      else
      {
        savedReadings[nOfflineReadingsSaved][i] = (sensors.getLatestData())[i] * 1000;
      }
    }
    savedReadings[nOfflineReadingsSaved][nStaticReadings] = getDecimalDay() * 1000;
 80a0dde:	f8c4 064c 	str.w	r0, [r4, #1612]	; 0x64c
    {
      nOfflineReadingsSaved = 0;
      loopedOfflineSaves = true;
    }

    haveSavedToCloud = true;
 80a0de2:	701a      	strb	r2, [r3, #0]
  }

  JSONcode[nStaticReadings][0] = 'D';
 80a0de4:	4b12      	ldr	r3, [pc, #72]	; (80a0e30 <_Z14saveSensorInfov+0x20c>)
 80a0de6:	2244      	movs	r2, #68	; 0x44
 80a0de8:	f883 2027 	strb.w	r2, [r3, #39]	; 0x27
  JSONcode[nStaticReadings][1] = 'h';
 80a0dec:	2268      	movs	r2, #104	; 0x68
 80a0dee:	f883 2028 	strb.w	r2, [r3, #40]	; 0x28

// This fuction will save info to Readings variable.
// Assumed that nReadingsSaved is updated
void saveSensorInfo()
{
  String tempCode = "--";
 80a0df2:	4668      	mov	r0, sp
    haveSavedToCloud = true;
  }

  JSONcode[nStaticReadings][0] = 'D';
  JSONcode[nStaticReadings][1] = 'h';
  JSONcode[nStaticReadings][2] = '\0';
 80a0df4:	2200      	movs	r2, #0
 80a0df6:	f883 2029 	strb.w	r2, [r3, #41]	; 0x29

// This fuction will save info to Readings variable.
// Assumed that nReadingsSaved is updated
void saveSensorInfo()
{
  String tempCode = "--";
 80a0dfa:	f005 f8fb 	bl	80a5ff4 <_ZN6StringD1Ev>
  }

  JSONcode[nStaticReadings][0] = 'D';
  JSONcode[nStaticReadings][1] = 'h';
  JSONcode[nStaticReadings][2] = '\0';
}
 80a0dfe:	b008      	add	sp, #32
 80a0e00:	e8bd 87f0 	ldmia.w	sp!, {r4, r5, r6, r7, r8, r9, sl, pc}
 80a0e04:	080ac579 	.word	0x080ac579
 80a0e08:	200004aa 	.word	0x200004aa
 80a0e0c:	20000418 	.word	0x20000418
 80a0e10:	080ac573 	.word	0x080ac573
 80a0e14:	2000052c 	.word	0x2000052c
 80a0e18:	200004ac 	.word	0x200004ac
 80a0e1c:	408f4000 	.word	0x408f4000
 80a0e20:	447a0000 	.word	0x447a0000
 80a0e24:	20000468 	.word	0x20000468
 80a0e28:	40024000 	.word	0x40024000
 80a0e2c:	2000049a 	.word	0x2000049a
 80a0e30:	20000417 	.word	0x20000417
 80a0e34:	20000530 	.word	0x20000530

080a0e38 <_Z8setupDIOv>:

//////////////////////////////////////////////////////////////
//            SYSTEM FUNCTIONS
//////////////////////////////////////////////////////////////
void setupDIO()
{
 80a0e38:	b508      	push	{r3, lr}
  pinMode(PIR1Pin, INPUT);
 80a0e3a:	4b0a      	ldr	r3, [pc, #40]	; (80a0e64 <_Z8setupDIOv+0x2c>)
 80a0e3c:	2100      	movs	r1, #0
 80a0e3e:	8818      	ldrh	r0, [r3, #0]
 80a0e40:	f007 fd5c 	bl	80a88fc <pinMode>
  pinMode(PIR2Pin, INPUT);
 80a0e44:	4b08      	ldr	r3, [pc, #32]	; (80a0e68 <_Z8setupDIOv+0x30>)
 80a0e46:	2100      	movs	r1, #0
 80a0e48:	8818      	ldrh	r0, [r3, #0]
 80a0e4a:	f007 fd57 	bl	80a88fc <pinMode>
  pinMode(sensorPin, OUTPUT);
 80a0e4e:	4b07      	ldr	r3, [pc, #28]	; (80a0e6c <_Z8setupDIOv+0x34>)
 80a0e50:	2101      	movs	r1, #1
 80a0e52:	8818      	ldrh	r0, [r3, #0]
 80a0e54:	f007 fd52 	bl	80a88fc <pinMode>
  //pinMode(WifiPin, OUTPUT);
  delay(10);
}
 80a0e58:	e8bd 4008 	ldmia.w	sp!, {r3, lr}
{
  pinMode(PIR1Pin, INPUT);
  pinMode(PIR2Pin, INPUT);
  pinMode(sensorPin, OUTPUT);
  //pinMode(WifiPin, OUTPUT);
  delay(10);
 80a0e5c:	200a      	movs	r0, #10
 80a0e5e:	f006 bcbb 	b.w	80a77d8 <delay>
 80a0e62:	bf00      	nop
 80a0e64:	20000328 	.word	0x20000328
 80a0e68:	20000338 	.word	0x20000338
 80a0e6c:	20000348 	.word	0x20000348

080a0e70 <_Z13turnOnSensorsv>:
}
void turnOnSensors()
{
 80a0e70:	b508      	push	{r3, lr}
  digitalWrite(sensorPin, HIGH);
 80a0e72:	4b05      	ldr	r3, [pc, #20]	; (80a0e88 <_Z13turnOnSensorsv+0x18>)
 80a0e74:	2101      	movs	r1, #1
 80a0e76:	8818      	ldrh	r0, [r3, #0]
 80a0e78:	f007 fd51 	bl	80a891e <digitalWrite>
  delay(100);
}
 80a0e7c:	e8bd 4008 	ldmia.w	sp!, {r3, lr}
  delay(10);
}
void turnOnSensors()
{
  digitalWrite(sensorPin, HIGH);
  delay(100);
 80a0e80:	2064      	movs	r0, #100	; 0x64
 80a0e82:	f006 bca9 	b.w	80a77d8 <delay>
 80a0e86:	bf00      	nop
 80a0e88:	20000348 	.word	0x20000348
 80a0e8c:	00000000 	.word	0x00000000

080a0e90 <_Z9goToSleepv>:
    sensors.setGasBase(ActiveEEPROMData.eCO2_base, ActiveEEPROMData.TVOC_base);
  }
}

void goToSleep()
{
 80a0e90:	b5f0      	push	{r4, r5, r6, r7, lr}
 80a0e92:	b089      	sub	sp, #36	; 0x24

class StringSumHelper : public String
{
public:
	StringSumHelper(const String &s) : String(s) {}
	StringSumHelper(const char *p) : String(p) {}
 80a0e94:	4948      	ldr	r1, [pc, #288]	; (80a0fb8 <_Z9goToSleepv+0x128>)
 80a0e96:	a804      	add	r0, sp, #16
 80a0e98:	f005 f8f3 	bl	80a6082 <_ZN6StringC1EPK19__FlashStringHelper>
#endif

#include "timer_hal.h"
#include "delay_hal.h"

inline system_tick_t millis(void) { return HAL_Timer_Get_Milli_Seconds(); }
 80a0e9c:	f004 fbba 	bl	80a5614 <HAL_Timer_Get_Milli_Seconds>
  Log.info("Been awake for: " + String(millis() / 1000) + "seconds");
 80a0ea0:	f44f 717a 	mov.w	r1, #1000	; 0x3e8
 80a0ea4:	220a      	movs	r2, #10
 80a0ea6:	fbb0 f1f1 	udiv	r1, r0, r1
 80a0eaa:	4668      	mov	r0, sp
 80a0eac:	f005 f984 	bl	80a61b8 <_ZN6StringC1Emh>
 80a0eb0:	4669      	mov	r1, sp
 80a0eb2:	a804      	add	r0, sp, #16
 80a0eb4:	f005 f9ed 	bl	80a6292 <_ZplRK15StringSumHelperRK6String>
 80a0eb8:	4940      	ldr	r1, [pc, #256]	; (80a0fbc <_Z9goToSleepv+0x12c>)
 80a0eba:	f005 f9f6 	bl	80a62aa <_ZplRK15StringSumHelperPKc>
 80a0ebe:	4d40      	ldr	r5, [pc, #256]	; (80a0fc0 <_Z9goToSleepv+0x130>)
 80a0ec0:	6801      	ldr	r1, [r0, #0]
 80a0ec2:	4628      	mov	r0, r5
 80a0ec4:	f7ff fc74 	bl	80a07b0 <_ZNK5spark6Logger4infoEPKcz>
 80a0ec8:	4668      	mov	r0, sp
 80a0eca:	f005 f893 	bl	80a5ff4 <_ZN6StringD1Ev>

        friend class StringPrintableHelper;

};

class StringSumHelper : public String
 80a0ece:	a804      	add	r0, sp, #16
 80a0ed0:	f005 f890 	bl	80a5ff4 <_ZN6StringD1Ev>
  delay(100);
 80a0ed4:	2064      	movs	r0, #100	; 0x64
 80a0ed6:	f006 fc7f 	bl	80a77d8 <delay>
  int min = Time.minute();
 80a0eda:	f006 fc43 	bl	80a7764 <_ZN9TimeClass6minuteEv>
 80a0ede:	4606      	mov	r6, r0
  int seconds = Time.second();
 80a0ee0:	f006 fc4a 	bl	80a7778 <_ZN9TimeClass6secondEv>
  sleepRemaining = (interval - (min % interval) - 1) * 60 + 60 - seconds;
 80a0ee4:	4b37      	ldr	r3, [pc, #220]	; (80a0fc4 <_Z9goToSleepv+0x134>)
 80a0ee6:	4c38      	ldr	r4, [pc, #224]	; (80a0fc8 <_Z9goToSleepv+0x138>)
 80a0ee8:	681a      	ldr	r2, [r3, #0]
{
public:
	StringSumHelper(const String &s) : String(s) {}
	StringSumHelper(const char *p) : String(p) {}
 80a0eea:	4938      	ldr	r1, [pc, #224]	; (80a0fcc <_Z9goToSleepv+0x13c>)
 80a0eec:	fb96 f3f2 	sdiv	r3, r6, r2
 80a0ef0:	fb02 6313 	mls	r3, r2, r3, r6
 80a0ef4:	1ad2      	subs	r2, r2, r3
 80a0ef6:	233c      	movs	r3, #60	; 0x3c
 80a0ef8:	4353      	muls	r3, r2
 80a0efa:	1a18      	subs	r0, r3, r0
 80a0efc:	f8c4 0b30 	str.w	r0, [r4, #2864]	; 0xb30
 80a0f00:	a804      	add	r0, sp, #16
 80a0f02:	f005 f8be 	bl	80a6082 <_ZN6StringC1EPK19__FlashStringHelper>

  Log.info("Sleeping for " + String(sleepRemaining) + " seconds.");
 80a0f06:	220a      	movs	r2, #10
 80a0f08:	f8d4 1b30 	ldr.w	r1, [r4, #2864]	; 0xb30
 80a0f0c:	4668      	mov	r0, sp
 80a0f0e:	f005 f92d 	bl	80a616c <_ZN6StringC1Eih>
 80a0f12:	4669      	mov	r1, sp
 80a0f14:	a804      	add	r0, sp, #16
 80a0f16:	f005 f9bc 	bl	80a6292 <_ZplRK15StringSumHelperRK6String>
 80a0f1a:	492d      	ldr	r1, [pc, #180]	; (80a0fd0 <_Z9goToSleepv+0x140>)
 80a0f1c:	f005 f9c5 	bl	80a62aa <_ZplRK15StringSumHelperPKc>
 80a0f20:	6801      	ldr	r1, [r0, #0]
 80a0f22:	4628      	mov	r0, r5
 80a0f24:	f7ff fc44 	bl	80a07b0 <_ZNK5spark6Logger4infoEPKcz>
 80a0f28:	4668      	mov	r0, sp
 80a0f2a:	f005 f863 	bl	80a5ff4 <_ZN6StringD1Ev>

        friend class StringPrintableHelper;

};

class StringSumHelper : public String
 80a0f2e:	a804      	add	r0, sp, #16
 80a0f30:	f005 f860 	bl	80a5ff4 <_ZN6StringD1Ev>
  //Serial.end();

  delay(100);
 80a0f34:	2064      	movs	r0, #100	; 0x64
 80a0f36:	f006 fc4f 	bl	80a77d8 <delay>
  digitalWrite(sensorPin, LOW);
 80a0f3a:	4b26      	ldr	r3, [pc, #152]	; (80a0fd4 <_Z9goToSleepv+0x144>)
 80a0f3c:	2100      	movs	r1, #0
 80a0f3e:	8818      	ldrh	r0, [r3, #0]
 80a0f40:	f007 fced 	bl	80a891e <digitalWrite>
  // digitalWrite(WifiPin, LOW);
  lastAwake = Time.hour() * 1.0 + Time.minute() * 1.0 / 60 + Time.second() * 1.0 / 3600;
 80a0f44:	f006 fc04 	bl	80a7750 <_ZN9TimeClass4hourEv>
 80a0f48:	4605      	mov	r5, r0
 80a0f4a:	f006 fc0b 	bl	80a7764 <_ZN9TimeClass6minuteEv>
 80a0f4e:	f009 fc13 	bl	80aa778 <__aeabi_i2d>
 80a0f52:	2200      	movs	r2, #0
 80a0f54:	4b20      	ldr	r3, [pc, #128]	; (80a0fd8 <_Z9goToSleepv+0x148>)
 80a0f56:	f009 fd9f 	bl	80aaa98 <__aeabi_ddiv>
 80a0f5a:	4606      	mov	r6, r0
 80a0f5c:	4628      	mov	r0, r5
 80a0f5e:	460f      	mov	r7, r1
 80a0f60:	f009 fc0a 	bl	80aa778 <__aeabi_i2d>
 80a0f64:	4602      	mov	r2, r0
 80a0f66:	460b      	mov	r3, r1
 80a0f68:	4630      	mov	r0, r6
 80a0f6a:	4639      	mov	r1, r7
 80a0f6c:	f009 fab8 	bl	80aa4e0 <__adddf3>
 80a0f70:	460f      	mov	r7, r1
 80a0f72:	4606      	mov	r6, r0
 80a0f74:	f006 fc00 	bl	80a7778 <_ZN9TimeClass6secondEv>
 80a0f78:	f009 fbfe 	bl	80aa778 <__aeabi_i2d>
 80a0f7c:	a30c      	add	r3, pc, #48	; (adr r3, 80a0fb0 <_Z9goToSleepv+0x120>)
 80a0f7e:	e9d3 2300 	ldrd	r2, r3, [r3]
 80a0f82:	f009 fd89 	bl	80aaa98 <__aeabi_ddiv>
 80a0f86:	4632      	mov	r2, r6
 80a0f88:	463b      	mov	r3, r7
 80a0f8a:	f009 faa9 	bl	80aa4e0 <__adddf3>
 80a0f8e:	f009 ff51 	bl	80aae34 <__aeabi_d2f>
#if (PLATFORM_ID == PLATFORM_PHOTON_PRODUCTION)
  System.sleep(SLEEP_MODE_DEEP, sleepRemaining);
 80a0f92:	4b12      	ldr	r3, [pc, #72]	; (80a0fdc <_Z9goToSleepv+0x14c>)
  //Serial.end();

  delay(100);
  digitalWrite(sensorPin, LOW);
  // digitalWrite(WifiPin, LOW);
  lastAwake = Time.hour() * 1.0 + Time.minute() * 1.0 / 60 + Time.second() * 1.0 / 3600;
 80a0f94:	f8c4 0b34 	str.w	r0, [r4, #2868]	; 0xb34
#if (PLATFORM_ID == PLATFORM_PHOTON_PRODUCTION)
  System.sleep(SLEEP_MODE_DEEP, sleepRemaining);
 80a0f98:	681b      	ldr	r3, [r3, #0]
 80a0f9a:	f8d4 2b30 	ldr.w	r2, [r4, #2864]	; 0xb30
 80a0f9e:	2101      	movs	r1, #1
 80a0fa0:	a804      	add	r0, sp, #16
 80a0fa2:	f004 fedd 	bl	80a5d60 <_ZN11SystemClass5sleepE19Spark_Sleep_TypeDeflN8particle5FlagsI19SleepOptionFlagTypemEE>
#endif
}
 80a0fa6:	b009      	add	sp, #36	; 0x24
 80a0fa8:	bdf0      	pop	{r4, r5, r6, r7, pc}
 80a0faa:	bf00      	nop
 80a0fac:	f3af 8000 	nop.w
 80a0fb0:	00000000 	.word	0x00000000
 80a0fb4:	40ac2000 	.word	0x40ac2000
 80a0fb8:	080ac6e4 	.word	0x080ac6e4
 80a0fbc:	080ac6f5 	.word	0x080ac6f5
 80a0fc0:	20000e94 	.word	0x20000e94
 80a0fc4:	2000031c 	.word	0x2000031c
 80a0fc8:	40024000 	.word	0x40024000
 80a0fcc:	080ac6fd 	.word	0x080ac6fd
 80a0fd0:	080ac70b 	.word	0x080ac70b
 80a0fd4:	20000348 	.word	0x20000348
 80a0fd8:	404e0000 	.word	0x404e0000
 80a0fdc:	20000494 	.word	0x20000494

080a0fe0 <_Z12tryPowerDownv>:
//            SENSOR READING FUNCTIONS
//////////////////////////////////////////////////////////////

void tryPowerDown()
{
  if (((isCloudLoop || saveOffline) && haveSavedToCloud) || !isCloudLoop)
 80a0fe0:	4b06      	ldr	r3, [pc, #24]	; (80a0ffc <_Z12tryPowerDownv+0x1c>)
 80a0fe2:	781b      	ldrb	r3, [r3, #0]
 80a0fe4:	b913      	cbnz	r3, 80a0fec <_Z12tryPowerDownv+0xc>
 80a0fe6:	4a06      	ldr	r2, [pc, #24]	; (80a1000 <_Z12tryPowerDownv+0x20>)
 80a0fe8:	7812      	ldrb	r2, [r2, #0]
 80a0fea:	b11a      	cbz	r2, 80a0ff4 <_Z12tryPowerDownv+0x14>
 80a0fec:	4a05      	ldr	r2, [pc, #20]	; (80a1004 <_Z12tryPowerDownv+0x24>)
 80a0fee:	7812      	ldrb	r2, [r2, #0]
 80a0ff0:	b902      	cbnz	r2, 80a0ff4 <_Z12tryPowerDownv+0x14>
 80a0ff2:	b90b      	cbnz	r3, 80a0ff8 <_Z12tryPowerDownv+0x18>
  {
    //resetBools();
    goToSleep();
 80a0ff4:	f7ff bf4c 	b.w	80a0e90 <_Z9goToSleepv>
 80a0ff8:	4770      	bx	lr
 80a0ffa:	bf00      	nop
 80a0ffc:	20000324 	.word	0x20000324
 80a1000:	20000468 	.word	0x20000468
 80a1004:	2000049a 	.word	0x2000049a

080a1008 <_Z13getEEPROMdatav>:

//////////////////////////////////////////////////////////////
//            EEPROM AND DEVICE NAME FUNCTIONS
//////////////////////////////////////////////////////////////
bool getEEPROMdata()
{
 80a1008:	b570      	push	{r4, r5, r6, lr}
  if (!haveReadEEPROM)
 80a100a:	4b43      	ldr	r3, [pc, #268]	; (80a1118 <_Z13getEEPROMdatav+0x110>)

//////////////////////////////////////////////////////////////
//            EEPROM AND DEVICE NAME FUNCTIONS
//////////////////////////////////////////////////////////////
bool getEEPROMdata()
{
 80a100c:	b090      	sub	sp, #64	; 0x40
  if (!haveReadEEPROM)
 80a100e:	781c      	ldrb	r4, [r3, #0]
 80a1010:	461d      	mov	r5, r3
 80a1012:	2c00      	cmp	r4, #0
 80a1014:	d14c      	bne.n	80a10b0 <_Z13getEEPROMdatav+0xa8>
        name[i] = newname.charAt(i);
      }
    }
  }

  EEPROMinfo() : flag(0), TVOC_base(0), eCO2_base(0), setGas(false)
 80a1016:	f88d 4020 	strb.w	r4, [sp, #32]
 80a101a:	f8ad 403a 	strh.w	r4, [sp, #58]	; 0x3a
 80a101e:	f8ad 403c 	strh.w	r4, [sp, #60]	; 0x3c
 80a1022:	f88d 403e 	strb.w	r4, [sp, #62]	; 0x3e
  {
    name[0] = '\0';
 80a1026:	f88d 4021 	strb.w	r4, [sp, #33]	; 0x21
bool getEEPROMdata()
{
  if (!haveReadEEPROM)
  {
    EEPROMinfo EEPROMdata;
    EEPROM.get(deviceNumberEEPROMAddress, EEPROMdata);
 80a102a:	f007 fcc7 	bl	80a89bc <_Z21__fetch_global_EEPROMv>
    uint16_t length()                    { return HAL_EEPROM_Length(); }

    //Functionality to 'get' and 'put' objects to and from EEPROM.
    template <typename T> T &get( int idx, T &t )
    {
        HAL_EEPROM_Get(idx, &t, sizeof(T));
 80a102e:	4b3b      	ldr	r3, [pc, #236]	; (80a111c <_Z13getEEPROMdatav+0x114>)
 80a1030:	2220      	movs	r2, #32
 80a1032:	6818      	ldr	r0, [r3, #0]
 80a1034:	eb0d 0102 	add.w	r1, sp, r2
 80a1038:	f004 fb04 	bl	80a5644 <HAL_EEPROM_Get>
    if (EEPROMdata.flag != 0)
 80a103c:	f89d 3020 	ldrb.w	r3, [sp, #32]
 80a1040:	b123      	cbz	r3, 80a104c <_Z13getEEPROMdatav+0x44>
    {
      //// EEPROM was empty
      Log.info("EEPROM was empty");
 80a1042:	4937      	ldr	r1, [pc, #220]	; (80a1120 <_Z13getEEPROMdatav+0x118>)
 80a1044:	4837      	ldr	r0, [pc, #220]	; (80a1124 <_Z13getEEPROMdatav+0x11c>)
 80a1046:	f7ff fbb3 	bl	80a07b0 <_ZNK5spark6Logger4infoEPKcz>
      return false;
 80a104a:	e061      	b.n	80a1110 <_Z13getEEPROMdatav+0x108>
    }
    ActiveEEPROMData = EEPROMdata;
 80a104c:	4b36      	ldr	r3, [pc, #216]	; (80a1128 <_Z13getEEPROMdatav+0x120>)
 80a104e:	aa08      	add	r2, sp, #32
 80a1050:	ae0e      	add	r6, sp, #56	; 0x38
 80a1052:	4614      	mov	r4, r2
 80a1054:	cc03      	ldmia	r4!, {r0, r1}
 80a1056:	42b4      	cmp	r4, r6
 80a1058:	6018      	str	r0, [r3, #0]
 80a105a:	6059      	str	r1, [r3, #4]
 80a105c:	4622      	mov	r2, r4
 80a105e:	f103 0308 	add.w	r3, r3, #8
 80a1062:	d1f6      	bne.n	80a1052 <_Z13getEEPROMdatav+0x4a>
 80a1064:	6820      	ldr	r0, [r4, #0]
 80a1066:	6018      	str	r0, [r3, #0]
 80a1068:	88a1      	ldrh	r1, [r4, #4]
 80a106a:	79a2      	ldrb	r2, [r4, #6]
{
public:
	StringSumHelper(const String &s) : String(s) {}
	StringSumHelper(const char *p) : String(p) {}
 80a106c:	a804      	add	r0, sp, #16
 80a106e:	8099      	strh	r1, [r3, #4]
 80a1070:	719a      	strb	r2, [r3, #6]
 80a1072:	492e      	ldr	r1, [pc, #184]	; (80a112c <_Z13getEEPROMdatav+0x124>)
    haveReadEEPROM = true;
 80a1074:	2401      	movs	r4, #1
 80a1076:	702c      	strb	r4, [r5, #0]
 80a1078:	f005 f803 	bl	80a6082 <_ZN6StringC1EPK19__FlashStringHelper>
    Log.info("Found EEPROM data, " + String(EEPROMdata.flag) + ": " + EEPROMdata.name);
 80a107c:	220a      	movs	r2, #10
 80a107e:	f89d 1020 	ldrb.w	r1, [sp, #32]
 80a1082:	4668      	mov	r0, sp
 80a1084:	f005 f860 	bl	80a6148 <_ZN6StringC1Ehh>
 80a1088:	4669      	mov	r1, sp
 80a108a:	a804      	add	r0, sp, #16
 80a108c:	f005 f901 	bl	80a6292 <_ZplRK15StringSumHelperRK6String>
 80a1090:	4927      	ldr	r1, [pc, #156]	; (80a1130 <_Z13getEEPROMdatav+0x128>)
 80a1092:	f005 f90a 	bl	80a62aa <_ZplRK15StringSumHelperPKc>
 80a1096:	f10d 0121 	add.w	r1, sp, #33	; 0x21
 80a109a:	f005 f906 	bl	80a62aa <_ZplRK15StringSumHelperPKc>
 80a109e:	6801      	ldr	r1, [r0, #0]
 80a10a0:	4820      	ldr	r0, [pc, #128]	; (80a1124 <_Z13getEEPROMdatav+0x11c>)
 80a10a2:	f7ff fb85 	bl	80a07b0 <_ZNK5spark6Logger4infoEPKcz>
 80a10a6:	4668      	mov	r0, sp
 80a10a8:	f004 ffa4 	bl	80a5ff4 <_ZN6StringD1Ev>

        friend class StringPrintableHelper;

};

class StringSumHelper : public String
 80a10ac:	a804      	add	r0, sp, #16
 80a10ae:	e02d      	b.n	80a110c <_Z13getEEPROMdatav+0x104>
    return true;
  }
  Log.info("Already loaded EEPROM data. " + String(ActiveEEPROMData.flag) + "\nName: \t" + ActiveEEPROMData.name + "\nSet Gas: \t" + ActiveEEPROMData.setGas + "\nVoC: \t" + ActiveEEPROMData.TVOC_base + "\neCo2: \t" + ActiveEEPROMData.eCO2_base);
 80a10b0:	4d1d      	ldr	r5, [pc, #116]	; (80a1128 <_Z13getEEPROMdatav+0x120>)
{
public:
	StringSumHelper(const String &s) : String(s) {}
	StringSumHelper(const char *p) : String(p) {}
 80a10b2:	4920      	ldr	r1, [pc, #128]	; (80a1134 <_Z13getEEPROMdatav+0x12c>)
 80a10b4:	a808      	add	r0, sp, #32
 80a10b6:	f004 ffe4 	bl	80a6082 <_ZN6StringC1EPK19__FlashStringHelper>
 80a10ba:	220a      	movs	r2, #10
 80a10bc:	7829      	ldrb	r1, [r5, #0]
 80a10be:	a804      	add	r0, sp, #16
 80a10c0:	f005 f842 	bl	80a6148 <_ZN6StringC1Ehh>
 80a10c4:	a904      	add	r1, sp, #16
 80a10c6:	a808      	add	r0, sp, #32
 80a10c8:	f005 f8e3 	bl	80a6292 <_ZplRK15StringSumHelperRK6String>
 80a10cc:	491a      	ldr	r1, [pc, #104]	; (80a1138 <_Z13getEEPROMdatav+0x130>)
 80a10ce:	f005 f8ec 	bl	80a62aa <_ZplRK15StringSumHelperPKc>
 80a10d2:	1c69      	adds	r1, r5, #1
 80a10d4:	f005 f8e9 	bl	80a62aa <_ZplRK15StringSumHelperPKc>
 80a10d8:	4918      	ldr	r1, [pc, #96]	; (80a113c <_Z13getEEPROMdatav+0x134>)
 80a10da:	f005 f8e6 	bl	80a62aa <_ZplRK15StringSumHelperPKc>
 80a10de:	7fa9      	ldrb	r1, [r5, #30]
 80a10e0:	f005 f8f5 	bl	80a62ce <_ZplRK15StringSumHelperi>
 80a10e4:	4916      	ldr	r1, [pc, #88]	; (80a1140 <_Z13getEEPROMdatav+0x138>)
 80a10e6:	f005 f8e0 	bl	80a62aa <_ZplRK15StringSumHelperPKc>
 80a10ea:	8b69      	ldrh	r1, [r5, #26]
 80a10ec:	f005 f8ef 	bl	80a62ce <_ZplRK15StringSumHelperi>
 80a10f0:	4914      	ldr	r1, [pc, #80]	; (80a1144 <_Z13getEEPROMdatav+0x13c>)
 80a10f2:	f005 f8da 	bl	80a62aa <_ZplRK15StringSumHelperPKc>
 80a10f6:	8ba9      	ldrh	r1, [r5, #28]
 80a10f8:	f005 f8e9 	bl	80a62ce <_ZplRK15StringSumHelperi>
 80a10fc:	6801      	ldr	r1, [r0, #0]
 80a10fe:	4809      	ldr	r0, [pc, #36]	; (80a1124 <_Z13getEEPROMdatav+0x11c>)
 80a1100:	f7ff fb56 	bl	80a07b0 <_ZNK5spark6Logger4infoEPKcz>
 80a1104:	a804      	add	r0, sp, #16
 80a1106:	f004 ff75 	bl	80a5ff4 <_ZN6StringD1Ev>

        friend class StringPrintableHelper;

};

class StringSumHelper : public String
 80a110a:	a808      	add	r0, sp, #32
 80a110c:	f004 ff72 	bl	80a5ff4 <_ZN6StringD1Ev>
  return true;
}
 80a1110:	4620      	mov	r0, r4
 80a1112:	b010      	add	sp, #64	; 0x40
 80a1114:	bd70      	pop	{r4, r5, r6, pc}
 80a1116:	bf00      	nop
 80a1118:	2000049b 	.word	0x2000049b
 80a111c:	20000454 	.word	0x20000454
 80a1120:	080ac715 	.word	0x080ac715
 80a1124:	20000e94 	.word	0x20000e94
 80a1128:	200004e4 	.word	0x200004e4
 80a112c:	080ac726 	.word	0x080ac726
 80a1130:	080ac82f 	.word	0x080ac82f
 80a1134:	080ac73a 	.word	0x080ac73a
 80a1138:	080ac757 	.word	0x080ac757
 80a113c:	080ac760 	.word	0x080ac760
 80a1140:	080ac76c 	.word	0x080ac76c
 80a1144:	080ac774 	.word	0x080ac774

080a1148 <_Z12setupSensorsv>:
  digitalWrite(sensorPin, HIGH);
  delay(100);
}

void setupSensors()
{
 80a1148:	b508      	push	{r3, lr}
  sensors.SetupSensors();
 80a114a:	480c      	ldr	r0, [pc, #48]	; (80a117c <_Z12setupSensorsv+0x34>)
 80a114c:	f7ff f95e 	bl	80a040c <_ZN16SensorController12SetupSensorsEv>
  delay(100);
 80a1150:	2064      	movs	r0, #100	; 0x64
 80a1152:	f006 fb41 	bl	80a77d8 <delay>
  if ((haveReadEEPROM || getEEPROMdata()) && ActiveEEPROMData.setGas)
 80a1156:	4b0a      	ldr	r3, [pc, #40]	; (80a1180 <_Z12setupSensorsv+0x38>)
 80a1158:	781b      	ldrb	r3, [r3, #0]
 80a115a:	b11b      	cbz	r3, 80a1164 <_Z12setupSensorsv+0x1c>
 80a115c:	4b09      	ldr	r3, [pc, #36]	; (80a1184 <_Z12setupSensorsv+0x3c>)
 80a115e:	7f9a      	ldrb	r2, [r3, #30]
 80a1160:	b92a      	cbnz	r2, 80a116e <_Z12setupSensorsv+0x26>
 80a1162:	bd08      	pop	{r3, pc}
 80a1164:	f7ff ff50 	bl	80a1008 <_Z13getEEPROMdatav>
 80a1168:	2800      	cmp	r0, #0
 80a116a:	d1f7      	bne.n	80a115c <_Z12setupSensorsv+0x14>
 80a116c:	bd08      	pop	{r3, pc}
  {
    sensors.setGasBase(ActiveEEPROMData.eCO2_base, ActiveEEPROMData.TVOC_base);
 80a116e:	8b5a      	ldrh	r2, [r3, #26]
 80a1170:	8b99      	ldrh	r1, [r3, #28]
 80a1172:	4802      	ldr	r0, [pc, #8]	; (80a117c <_Z12setupSensorsv+0x34>)
  }
}
 80a1174:	e8bd 4008 	ldmia.w	sp!, {r3, lr}
{
  sensors.SetupSensors();
  delay(100);
  if ((haveReadEEPROM || getEEPROMdata()) && ActiveEEPROMData.setGas)
  {
    sensors.setGasBase(ActiveEEPROMData.eCO2_base, ActiveEEPROMData.TVOC_base);
 80a1178:	f7fe bfa6 	b.w	80a00c8 <_ZN16SensorController10setGasBaseEtt>
 80a117c:	20000530 	.word	0x20000530
 80a1180:	2000049b 	.word	0x2000049b
 80a1184:	200004e4 	.word	0x200004e4

080a1188 <_Z12updateEEPROM10EEPROMinfo>:
  Log.info("Already loaded EEPROM data. " + String(ActiveEEPROMData.flag) + "\nName: \t" + ActiveEEPROMData.name + "\nSet Gas: \t" + ActiveEEPROMData.setGas + "\nVoC: \t" + ActiveEEPROMData.TVOC_base + "\neCo2: \t" + ActiveEEPROMData.eCO2_base);
  return true;
}

void updateEEPROM(EEPROMinfo newData)
{
 80a1188:	b084      	sub	sp, #16
 80a118a:	b530      	push	{r4, r5, lr}
 80a118c:	b091      	sub	sp, #68	; 0x44
 80a118e:	ac14      	add	r4, sp, #80	; 0x50
 80a1190:	e884 000f 	stmia.w	r4, {r0, r1, r2, r3}
        name[i] = newname.charAt(i);
      }
    }
  }

  EEPROMinfo() : flag(0), TVOC_base(0), eCO2_base(0), setGas(false)
 80a1194:	2300      	movs	r3, #0
}

void updateEEPROM(EEPROMinfo newData)
{
  EEPROMinfo EEPROMdata;
  EEPROM.get(deviceNumberEEPROMAddress, EEPROMdata);
 80a1196:	4c53      	ldr	r4, [pc, #332]	; (80a12e4 <_Z12updateEEPROM10EEPROMinfo+0x15c>)
        name[i] = newname.charAt(i);
      }
    }
  }

  EEPROMinfo() : flag(0), TVOC_base(0), eCO2_base(0), setGas(false)
 80a1198:	f88d 3020 	strb.w	r3, [sp, #32]
 80a119c:	f8ad 303a 	strh.w	r3, [sp, #58]	; 0x3a
 80a11a0:	f8ad 303c 	strh.w	r3, [sp, #60]	; 0x3c
 80a11a4:	f88d 303e 	strb.w	r3, [sp, #62]	; 0x3e
  {
    name[0] = '\0';
 80a11a8:	f88d 3021 	strb.w	r3, [sp, #33]	; 0x21
}

void updateEEPROM(EEPROMinfo newData)
{
  EEPROMinfo EEPROMdata;
  EEPROM.get(deviceNumberEEPROMAddress, EEPROMdata);
 80a11ac:	f007 fc06 	bl	80a89bc <_Z21__fetch_global_EEPROMv>
 80a11b0:	2220      	movs	r2, #32
 80a11b2:	eb0d 0102 	add.w	r1, sp, r2
 80a11b6:	6820      	ldr	r0, [r4, #0]
 80a11b8:	f004 fa44 	bl	80a5644 <HAL_EEPROM_Get>

  Log.info("Got info from EEPROM. Now checking.");
 80a11bc:	494a      	ldr	r1, [pc, #296]	; (80a12e8 <_Z12updateEEPROM10EEPROMinfo+0x160>)
 80a11be:	484b      	ldr	r0, [pc, #300]	; (80a12ec <_Z12updateEEPROM10EEPROMinfo+0x164>)
 80a11c0:	f7ff faf6 	bl	80a07b0 <_ZNK5spark6Logger4infoEPKcz>
  if (EEPROMdata.flag != 0)
 80a11c4:	f89d 3020 	ldrb.w	r3, [sp, #32]
 80a11c8:	b123      	cbz	r3, 80a11d4 <_Z12updateEEPROM10EEPROMinfo+0x4c>
  {
    // EEPROM was empty -> initialize myObj

    Log.info("Data in EEPROM is not initialized. Putting new data.");
 80a11ca:	4949      	ldr	r1, [pc, #292]	; (80a12f0 <_Z12updateEEPROM10EEPROMinfo+0x168>)
 80a11cc:	4847      	ldr	r0, [pc, #284]	; (80a12ec <_Z12updateEEPROM10EEPROMinfo+0x164>)
 80a11ce:	f7ff faef 	bl	80a07b0 <_ZNK5spark6Logger4infoEPKcz>
 80a11d2:	e048      	b.n	80a1266 <_Z12updateEEPROM10EEPROMinfo+0xde>
    EEPROM.put(deviceNumberEEPROMAddress, newData);
    Log.info("Data Put...");
  }
  else
  {
    if (String(newData.name) != String(EEPROMdata.name))
 80a11d4:	f10d 0151 	add.w	r1, sp, #81	; 0x51
 80a11d8:	4668      	mov	r0, sp
 80a11da:	f004 ff52 	bl	80a6082 <_ZN6StringC1EPK19__FlashStringHelper>
 80a11de:	f10d 0121 	add.w	r1, sp, #33	; 0x21
 80a11e2:	a804      	add	r0, sp, #16
 80a11e4:	f004 ff4d 	bl	80a6082 <_ZN6StringC1EPK19__FlashStringHelper>
	int compareTo(const String &s) const;
	unsigned char equals(const String &s) const;
	unsigned char equals(const char *cstr) const;
	unsigned char operator == (const String &rhs) const {return equals(rhs);}
	unsigned char operator == (const char *cstr) const {return equals(cstr);}
	unsigned char operator != (const String &rhs) const {return !equals(rhs);}
 80a11e8:	a904      	add	r1, sp, #16
 80a11ea:	4668      	mov	r0, sp
 80a11ec:	f005 f88f 	bl	80a630e <_ZNK6String6equalsERKS_>
 80a11f0:	4605      	mov	r5, r0
 80a11f2:	a804      	add	r0, sp, #16
 80a11f4:	f004 fefe 	bl	80a5ff4 <_ZN6StringD1Ev>
 80a11f8:	4668      	mov	r0, sp
 80a11fa:	f004 fefb 	bl	80a5ff4 <_ZN6StringD1Ev>
 80a11fe:	2d00      	cmp	r5, #0
 80a1200:	d13c      	bne.n	80a127c <_Z12updateEEPROM10EEPROMinfo+0xf4>
    {
      Log.info("Data exists but not the same as current name.");
 80a1202:	493c      	ldr	r1, [pc, #240]	; (80a12f4 <_Z12updateEEPROM10EEPROMinfo+0x16c>)
 80a1204:	4839      	ldr	r0, [pc, #228]	; (80a12ec <_Z12updateEEPROM10EEPROMinfo+0x164>)
 80a1206:	f7ff fad3 	bl	80a07b0 <_ZNK5spark6Logger4infoEPKcz>

class StringSumHelper : public String
{
public:
	StringSumHelper(const String &s) : String(s) {}
	StringSumHelper(const char *p) : String(p) {}
 80a120a:	493b      	ldr	r1, [pc, #236]	; (80a12f8 <_Z12updateEEPROM10EEPROMinfo+0x170>)
 80a120c:	a804      	add	r0, sp, #16
 80a120e:	f004 ff38 	bl	80a6082 <_ZN6StringC1EPK19__FlashStringHelper>
      Log.info("NAme in EEPROM: " + String(EEPROMdata.name));
 80a1212:	f10d 0121 	add.w	r1, sp, #33	; 0x21
 80a1216:	4668      	mov	r0, sp
 80a1218:	f004 ff33 	bl	80a6082 <_ZN6StringC1EPK19__FlashStringHelper>
 80a121c:	4669      	mov	r1, sp
 80a121e:	a804      	add	r0, sp, #16
 80a1220:	f005 f837 	bl	80a6292 <_ZplRK15StringSumHelperRK6String>
 80a1224:	6801      	ldr	r1, [r0, #0]
 80a1226:	4831      	ldr	r0, [pc, #196]	; (80a12ec <_Z12updateEEPROM10EEPROMinfo+0x164>)
 80a1228:	f7ff fac2 	bl	80a07b0 <_ZNK5spark6Logger4infoEPKcz>
 80a122c:	4668      	mov	r0, sp
 80a122e:	f004 fee1 	bl	80a5ff4 <_ZN6StringD1Ev>

        friend class StringPrintableHelper;

};

class StringSumHelper : public String
 80a1232:	a804      	add	r0, sp, #16
 80a1234:	f004 fede 	bl	80a5ff4 <_ZN6StringD1Ev>
{
public:
	StringSumHelper(const String &s) : String(s) {}
	StringSumHelper(const char *p) : String(p) {}
 80a1238:	4930      	ldr	r1, [pc, #192]	; (80a12fc <_Z12updateEEPROM10EEPROMinfo+0x174>)
 80a123a:	a804      	add	r0, sp, #16
 80a123c:	f004 ff21 	bl	80a6082 <_ZN6StringC1EPK19__FlashStringHelper>
      Log.info("new name      : " + String(newData.name));
 80a1240:	f10d 0151 	add.w	r1, sp, #81	; 0x51
 80a1244:	4668      	mov	r0, sp
 80a1246:	f004 ff1c 	bl	80a6082 <_ZN6StringC1EPK19__FlashStringHelper>
 80a124a:	4669      	mov	r1, sp
 80a124c:	a804      	add	r0, sp, #16
 80a124e:	f005 f820 	bl	80a6292 <_ZplRK15StringSumHelperRK6String>
 80a1252:	6801      	ldr	r1, [r0, #0]
 80a1254:	4825      	ldr	r0, [pc, #148]	; (80a12ec <_Z12updateEEPROM10EEPROMinfo+0x164>)
 80a1256:	f7ff faab 	bl	80a07b0 <_ZNK5spark6Logger4infoEPKcz>
 80a125a:	4668      	mov	r0, sp
 80a125c:	f004 feca 	bl	80a5ff4 <_ZN6StringD1Ev>

        friend class StringPrintableHelper;

};

class StringSumHelper : public String
 80a1260:	a804      	add	r0, sp, #16
 80a1262:	f004 fec7 	bl	80a5ff4 <_ZN6StringD1Ev>

      EEPROM.put(deviceNumberEEPROMAddress, newData);
 80a1266:	f007 fba9 	bl	80a89bc <_Z21__fetch_global_EEPROMv>
        return t;
    }

    template <typename T> const T &put( int idx, const T &t )
    {
        HAL_EEPROM_Put(idx, &t, sizeof(T));
 80a126a:	a914      	add	r1, sp, #80	; 0x50
 80a126c:	6820      	ldr	r0, [r4, #0]
 80a126e:	2220      	movs	r2, #32
 80a1270:	f004 f9f0 	bl	80a5654 <HAL_EEPROM_Put>
      Log.info("Data Put...");
 80a1274:	4922      	ldr	r1, [pc, #136]	; (80a1300 <_Z12updateEEPROM10EEPROMinfo+0x178>)
 80a1276:	481d      	ldr	r0, [pc, #116]	; (80a12ec <_Z12updateEEPROM10EEPROMinfo+0x164>)
 80a1278:	f7ff fa9a 	bl	80a07b0 <_ZNK5spark6Logger4infoEPKcz>
{
public:
	StringSumHelper(const String &s) : String(s) {}
	StringSumHelper(const char *p) : String(p) {}
 80a127c:	4921      	ldr	r1, [pc, #132]	; (80a1304 <_Z12updateEEPROM10EEPROMinfo+0x17c>)
 80a127e:	a804      	add	r0, sp, #16
 80a1280:	f004 feff 	bl	80a6082 <_ZN6StringC1EPK19__FlashStringHelper>
    }
  }
  Log.info("Set new EEPROM data, " + String(EEPROMdata.flag) + ": " + EEPROMdata.name);
 80a1284:	220a      	movs	r2, #10
 80a1286:	f89d 1020 	ldrb.w	r1, [sp, #32]
 80a128a:	4668      	mov	r0, sp
 80a128c:	f004 ff5c 	bl	80a6148 <_ZN6StringC1Ehh>
 80a1290:	4669      	mov	r1, sp
 80a1292:	a804      	add	r0, sp, #16
 80a1294:	f004 fffd 	bl	80a6292 <_ZplRK15StringSumHelperRK6String>
 80a1298:	491b      	ldr	r1, [pc, #108]	; (80a1308 <_Z12updateEEPROM10EEPROMinfo+0x180>)
 80a129a:	f005 f806 	bl	80a62aa <_ZplRK15StringSumHelperPKc>
 80a129e:	f10d 0121 	add.w	r1, sp, #33	; 0x21
 80a12a2:	f005 f802 	bl	80a62aa <_ZplRK15StringSumHelperPKc>
 80a12a6:	6801      	ldr	r1, [r0, #0]
 80a12a8:	4810      	ldr	r0, [pc, #64]	; (80a12ec <_Z12updateEEPROM10EEPROMinfo+0x164>)
 80a12aa:	f7ff fa81 	bl	80a07b0 <_ZNK5spark6Logger4infoEPKcz>
 80a12ae:	4668      	mov	r0, sp
 80a12b0:	f004 fea0 	bl	80a5ff4 <_ZN6StringD1Ev>

        friend class StringPrintableHelper;

};

class StringSumHelper : public String
 80a12b4:	a804      	add	r0, sp, #16
 80a12b6:	f004 fe9d 	bl	80a5ff4 <_ZN6StringD1Ev>
  ActiveEEPROMData = newData;
 80a12ba:	4a14      	ldr	r2, [pc, #80]	; (80a130c <_Z12updateEEPROM10EEPROMinfo+0x184>)
 80a12bc:	ab14      	add	r3, sp, #80	; 0x50
 80a12be:	a91b      	add	r1, sp, #108	; 0x6c
 80a12c0:	f853 0b04 	ldr.w	r0, [r3], #4
 80a12c4:	428b      	cmp	r3, r1
 80a12c6:	f842 0b04 	str.w	r0, [r2], #4
 80a12ca:	d1f9      	bne.n	80a12c0 <_Z12updateEEPROM10EEPROMinfo+0x138>
 80a12cc:	8819      	ldrh	r1, [r3, #0]
 80a12ce:	8011      	strh	r1, [r2, #0]
 80a12d0:	789b      	ldrb	r3, [r3, #2]
 80a12d2:	7093      	strb	r3, [r2, #2]
  haveReadEEPROM = true;
 80a12d4:	4b0e      	ldr	r3, [pc, #56]	; (80a1310 <_Z12updateEEPROM10EEPROMinfo+0x188>)
 80a12d6:	2201      	movs	r2, #1
 80a12d8:	701a      	strb	r2, [r3, #0]
}
 80a12da:	b011      	add	sp, #68	; 0x44
 80a12dc:	e8bd 4030 	ldmia.w	sp!, {r4, r5, lr}
 80a12e0:	b004      	add	sp, #16
 80a12e2:	4770      	bx	lr
 80a12e4:	20000454 	.word	0x20000454
 80a12e8:	080ac77d 	.word	0x080ac77d
 80a12ec:	20000e94 	.word	0x20000e94
 80a12f0:	080ac7a1 	.word	0x080ac7a1
 80a12f4:	080ac7e2 	.word	0x080ac7e2
 80a12f8:	080ac810 	.word	0x080ac810
 80a12fc:	080ac821 	.word	0x080ac821
 80a1300:	080ac7d6 	.word	0x080ac7d6
 80a1304:	080ac832 	.word	0x080ac832
 80a1308:	080ac82f 	.word	0x080ac82f
 80a130c:	200004e4 	.word	0x200004e4
 80a1310:	2000049b 	.word	0x2000049b

080a1314 <_Z15setNameOfEEPROM10EEPROMinfo>:

void setNameOfEEPROM(EEPROMinfo newName)
{
 80a1314:	b084      	sub	sp, #16
 80a1316:	b530      	push	{r4, r5, lr}
 80a1318:	b095      	sub	sp, #84	; 0x54
 80a131a:	ac18      	add	r4, sp, #96	; 0x60
 80a131c:	e884 000f 	stmia.w	r4, {r0, r1, r2, r3}
{
public:
	StringSumHelper(const String &s) : String(s) {}
	StringSumHelper(const char *p) : String(p) {}
 80a1320:	ac0c      	add	r4, sp, #48	; 0x30
 80a1322:	4937      	ldr	r1, [pc, #220]	; (80a1400 <_Z15setNameOfEEPROM10EEPROMinfo+0xec>)
 80a1324:	4620      	mov	r0, r4
 80a1326:	f004 feac 	bl	80a6082 <_ZN6StringC1EPK19__FlashStringHelper>
  Log.info("NAme to save to EEPROM: " + String(newName.name));
 80a132a:	f10d 0161 	add.w	r1, sp, #97	; 0x61
 80a132e:	a808      	add	r0, sp, #32
 80a1330:	f004 fea7 	bl	80a6082 <_ZN6StringC1EPK19__FlashStringHelper>
 80a1334:	a908      	add	r1, sp, #32
 80a1336:	4620      	mov	r0, r4
 80a1338:	f004 ffab 	bl	80a6292 <_ZplRK15StringSumHelperRK6String>
 80a133c:	6801      	ldr	r1, [r0, #0]
 80a133e:	4831      	ldr	r0, [pc, #196]	; (80a1404 <_Z15setNameOfEEPROM10EEPROMinfo+0xf0>)
 80a1340:	f7ff fa36 	bl	80a07b0 <_ZNK5spark6Logger4infoEPKcz>
 80a1344:	a808      	add	r0, sp, #32
 80a1346:	f004 fe55 	bl	80a5ff4 <_ZN6StringD1Ev>

        friend class StringPrintableHelper;

};

class StringSumHelper : public String
 80a134a:	4620      	mov	r0, r4
 80a134c:	f004 fe52 	bl	80a5ff4 <_ZN6StringD1Ev>
  String Shotname;
 80a1350:	492d      	ldr	r1, [pc, #180]	; (80a1408 <_Z15setNameOfEEPROM10EEPROMinfo+0xf4>)
 80a1352:	a804      	add	r0, sp, #16
 80a1354:	f004 fe95 	bl	80a6082 <_ZN6StringC1EPK19__FlashStringHelper>
  if (String(newName.name).length() > 23)
 80a1358:	f10d 0161 	add.w	r1, sp, #97	; 0x61
 80a135c:	4620      	mov	r0, r4
 80a135e:	f004 fe90 	bl	80a6082 <_ZN6StringC1EPK19__FlashStringHelper>
 80a1362:	9d0e      	ldr	r5, [sp, #56]	; 0x38
 80a1364:	4620      	mov	r0, r4
 80a1366:	f004 fe45 	bl	80a5ff4 <_ZN6StringD1Ev>
 80a136a:	2d17      	cmp	r5, #23
  {
    Shotname = String(newName.name).substring(0, 22);
 80a136c:	f10d 0161 	add.w	r1, sp, #97	; 0x61

void setNameOfEEPROM(EEPROMinfo newName)
{
  Log.info("NAme to save to EEPROM: " + String(newName.name));
  String Shotname;
  if (String(newName.name).length() > 23)
 80a1370:	d911      	bls.n	80a1396 <_Z15setNameOfEEPROM10EEPROMinfo+0x82>
  {
    Shotname = String(newName.name).substring(0, 22);
 80a1372:	a808      	add	r0, sp, #32
 80a1374:	f004 fe85 	bl	80a6082 <_ZN6StringC1EPK19__FlashStringHelper>
 80a1378:	2316      	movs	r3, #22
 80a137a:	2200      	movs	r2, #0
 80a137c:	a908      	add	r1, sp, #32
 80a137e:	4620      	mov	r0, r4
 80a1380:	f004 fff0 	bl	80a6364 <_ZNK6String9substringEjj>
 80a1384:	4621      	mov	r1, r4
 80a1386:	a804      	add	r0, sp, #16
 80a1388:	f004 fec5 	bl	80a6116 <_ZN6StringaSEOS_>
 80a138c:	4620      	mov	r0, r4
 80a138e:	f004 fe31 	bl	80a5ff4 <_ZN6StringD1Ev>
 80a1392:	a808      	add	r0, sp, #32
 80a1394:	e007      	b.n	80a13a6 <_Z15setNameOfEEPROM10EEPROMinfo+0x92>
  }
  else
  {
    Shotname = String(newName.name);
 80a1396:	4620      	mov	r0, r4
 80a1398:	f004 fe73 	bl	80a6082 <_ZN6StringC1EPK19__FlashStringHelper>
 80a139c:	4621      	mov	r1, r4
 80a139e:	a804      	add	r0, sp, #16
 80a13a0:	f004 feb9 	bl	80a6116 <_ZN6StringaSEOS_>
 80a13a4:	4620      	mov	r0, r4
 80a13a6:	f004 fe25 	bl	80a5ff4 <_ZN6StringD1Ev>
{
public:
	StringSumHelper(const String &s) : String(s) {}
	StringSumHelper(const char *p) : String(p) {}
 80a13aa:	4918      	ldr	r1, [pc, #96]	; (80a140c <_Z15setNameOfEEPROM10EEPROMinfo+0xf8>)
 80a13ac:	4620      	mov	r0, r4
 80a13ae:	f004 fe68 	bl	80a6082 <_ZN6StringC1EPK19__FlashStringHelper>
  }

  Log.info("Name shortened to: " + Shotname);
 80a13b2:	a904      	add	r1, sp, #16
 80a13b4:	4620      	mov	r0, r4
 80a13b6:	f004 ff6c 	bl	80a6292 <_ZplRK15StringSumHelperRK6String>
 80a13ba:	6801      	ldr	r1, [r0, #0]
 80a13bc:	4811      	ldr	r0, [pc, #68]	; (80a1404 <_Z15setNameOfEEPROM10EEPROMinfo+0xf0>)
 80a13be:	f7ff f9f7 	bl	80a07b0 <_ZNK5spark6Logger4infoEPKcz>

        friend class StringPrintableHelper;

};

class StringSumHelper : public String
 80a13c2:	4620      	mov	r0, r4
 80a13c4:	f004 fe16 	bl	80a5ff4 <_ZN6StringD1Ev>
  EEPROMinfo newData = EEPROMinfo(Shotname);
 80a13c8:	a904      	add	r1, sp, #16
 80a13ca:	a808      	add	r0, sp, #32
 80a13cc:	f004 fe98 	bl	80a6100 <_ZN6StringC1ERKS_>
 80a13d0:	a908      	add	r1, sp, #32
 80a13d2:	4620      	mov	r0, r4
 80a13d4:	f7ff fade 	bl	80a0994 <_ZN10EEPROMinfoC1E6String>
 80a13d8:	a808      	add	r0, sp, #32
 80a13da:	f004 fe0b 	bl	80a5ff4 <_ZN6StringD1Ev>
  updateEEPROM(newData);
 80a13de:	ab14      	add	r3, sp, #80	; 0x50
 80a13e0:	e913 000f 	ldmdb	r3, {r0, r1, r2, r3}
 80a13e4:	e88d 000f 	stmia.w	sp, {r0, r1, r2, r3}
 80a13e8:	e894 000f 	ldmia.w	r4, {r0, r1, r2, r3}
 80a13ec:	f7ff fecc 	bl	80a1188 <_Z12updateEEPROM10EEPROMinfo>
}

void setNameOfEEPROM(EEPROMinfo newName)
{
  Log.info("NAme to save to EEPROM: " + String(newName.name));
  String Shotname;
 80a13f0:	a804      	add	r0, sp, #16
 80a13f2:	f004 fdff 	bl	80a5ff4 <_ZN6StringD1Ev>
  }

  Log.info("Name shortened to: " + Shotname);
  EEPROMinfo newData = EEPROMinfo(Shotname);
  updateEEPROM(newData);
}
 80a13f6:	b015      	add	sp, #84	; 0x54
 80a13f8:	e8bd 4030 	ldmia.w	sp!, {r4, r5, lr}
 80a13fc:	b004      	add	sp, #16
 80a13fe:	4770      	bx	lr
 80a1400:	080ac848 	.word	0x080ac848
 80a1404:	20000e94 	.word	0x20000e94
 80a1408:	080ac77c 	.word	0x080ac77c
 80a140c:	080ac861 	.word	0x080ac861

080a1410 <_Z10setNewName6String>:
    }
  }
}

void setNewName(String newName)
{
 80a1410:	b57f      	push	{r0, r1, r2, r3, r4, r5, r6, lr}
 80a1412:	4604      	mov	r4, r0
  DeviceName = String(newName);
 80a1414:	4601      	mov	r1, r0
 80a1416:	4668      	mov	r0, sp
 80a1418:	f004 fe72 	bl	80a6100 <_ZN6StringC1ERKS_>
 80a141c:	4669      	mov	r1, sp
 80a141e:	481c      	ldr	r0, [pc, #112]	; (80a1490 <_Z10setNewName6String+0x80>)
 80a1420:	f004 fe79 	bl	80a6116 <_ZN6StringaSEOS_>
 80a1424:	4668      	mov	r0, sp
 80a1426:	f004 fde5 	bl	80a5ff4 <_ZN6StringD1Ev>
  sensors.ComName = String(newName);
 80a142a:	4621      	mov	r1, r4
 80a142c:	4668      	mov	r0, sp
 80a142e:	f004 fe67 	bl	80a6100 <_ZN6StringC1ERKS_>
 80a1432:	4669      	mov	r1, sp
 80a1434:	4817      	ldr	r0, [pc, #92]	; (80a1494 <_Z10setNewName6String+0x84>)
 80a1436:	f004 fe6e 	bl	80a6116 <_ZN6StringaSEOS_>
 80a143a:	4668      	mov	r0, sp
 80a143c:	f004 fdda 	bl	80a5ff4 <_ZN6StringD1Ev>
  if (newName.length() < 24)
 80a1440:	68a3      	ldr	r3, [r4, #8]
 80a1442:	2500      	movs	r5, #0
 80a1444:	2b17      	cmp	r3, #23
  {
    for (size_t i = 0; i < newName.length(); i++)
    {
      deviceNameRet[i] = newName.charAt(i);
 80a1446:	4e14      	ldr	r6, [pc, #80]	; (80a1498 <_Z10setNewName6String+0x88>)

void setNewName(String newName)
{
  DeviceName = String(newName);
  sensors.ComName = String(newName);
  if (newName.length() < 24)
 80a1448:	d819      	bhi.n	80a147e <_Z10setNewName6String+0x6e>
  {
    for (size_t i = 0; i < newName.length(); i++)
 80a144a:	68a3      	ldr	r3, [r4, #8]
 80a144c:	429d      	cmp	r5, r3
 80a144e:	d206      	bcs.n	80a145e <_Z10setNewName6String+0x4e>
    {
      deviceNameRet[i] = newName.charAt(i);
 80a1450:	4629      	mov	r1, r5
 80a1452:	4620      	mov	r0, r4
 80a1454:	f004 ff83 	bl	80a635e <_ZNK6String6charAtEj>
 80a1458:	5570      	strb	r0, [r6, r5]
{
  DeviceName = String(newName);
  sensors.ComName = String(newName);
  if (newName.length() < 24)
  {
    for (size_t i = 0; i < newName.length(); i++)
 80a145a:	3501      	adds	r5, #1
 80a145c:	e7f5      	b.n	80a144a <_Z10setNewName6String+0x3a>
 80a145e:	4b0c      	ldr	r3, [pc, #48]	; (80a1490 <_Z10setNewName6String+0x80>)
 80a1460:	689b      	ldr	r3, [r3, #8]
    {
      deviceNameRet[i] = newName.charAt(i);
    }
    if (DeviceName.length() < 7)
 80a1462:	2b06      	cmp	r3, #6
 80a1464:	d904      	bls.n	80a1470 <_Z10setNewName6String+0x60>
    for (size_t i = 0; i < 24; i++)
    {
      deviceNameRet[i] = newName.charAt(i);
    }
  }
  haveGotName = true;
 80a1466:	4b0d      	ldr	r3, [pc, #52]	; (80a149c <_Z10setNewName6String+0x8c>)
 80a1468:	2201      	movs	r2, #1
 80a146a:	701a      	strb	r2, [r3, #0]
}
 80a146c:	b004      	add	sp, #16
 80a146e:	bd70      	pop	{r4, r5, r6, pc}
    }
    if (DeviceName.length() < 7)
    {
      for (size_t i = DeviceName.length(); i < 7; i++)
      {
        deviceNameRet[i] = '\0';
 80a1470:	4a09      	ldr	r2, [pc, #36]	; (80a1498 <_Z10setNewName6String+0x88>)
 80a1472:	2100      	movs	r1, #0
 80a1474:	5499      	strb	r1, [r3, r2]
    {
      deviceNameRet[i] = newName.charAt(i);
    }
    if (DeviceName.length() < 7)
    {
      for (size_t i = DeviceName.length(); i < 7; i++)
 80a1476:	3301      	adds	r3, #1
 80a1478:	2b07      	cmp	r3, #7
 80a147a:	d1fb      	bne.n	80a1474 <_Z10setNewName6String+0x64>
 80a147c:	e7f3      	b.n	80a1466 <_Z10setNewName6String+0x56>
  }
  else
  {
    for (size_t i = 0; i < 24; i++)
    {
      deviceNameRet[i] = newName.charAt(i);
 80a147e:	4629      	mov	r1, r5
 80a1480:	4620      	mov	r0, r4
 80a1482:	f004 ff6c 	bl	80a635e <_ZNK6String6charAtEj>
 80a1486:	5570      	strb	r0, [r6, r5]
      }
    }
  }
  else
  {
    for (size_t i = 0; i < 24; i++)
 80a1488:	3501      	adds	r5, #1
 80a148a:	2d18      	cmp	r5, #24
 80a148c:	d1f7      	bne.n	80a147e <_Z10setNewName6String+0x6e>
 80a148e:	e7ea      	b.n	80a1466 <_Z10setNewName6String+0x56>
 80a1490:	20000444 	.word	0x20000444
 80a1494:	20000530 	.word	0x20000530
 80a1498:	20000300 	.word	0x20000300
 80a149c:	2000049c 	.word	0x2000049c

080a14a0 <_Z7handlerPKcS0_>:
  haveGotName = true;
}

// This is the call back to get device name.
void handler(const char *topic, const char *data)
{
 80a14a0:	b530      	push	{r4, r5, lr}
 80a14a2:	4605      	mov	r5, r0
 80a14a4:	b099      	sub	sp, #100	; 0x64
 80a14a6:	460c      	mov	r4, r1
  Log.info("Call back for device name!");
 80a14a8:	4852      	ldr	r0, [pc, #328]	; (80a15f4 <_Z7handlerPKcS0_+0x154>)
 80a14aa:	4953      	ldr	r1, [pc, #332]	; (80a15f8 <_Z7handlerPKcS0_+0x158>)
 80a14ac:	f7ff f980 	bl	80a07b0 <_ZNK5spark6Logger4infoEPKcz>
  if (!haveGotName)
 80a14b0:	4b52      	ldr	r3, [pc, #328]	; (80a15fc <_Z7handlerPKcS0_+0x15c>)
 80a14b2:	781b      	ldrb	r3, [r3, #0]
 80a14b4:	2b00      	cmp	r3, #0
 80a14b6:	f040 809b 	bne.w	80a15f0 <_Z7handlerPKcS0_+0x150>
  {
    String loadedNAme = String(data);
 80a14ba:	4621      	mov	r1, r4
 80a14bc:	a804      	add	r0, sp, #16
    Log.info("received " + String(topic) + ": " + loadedNAme);
 80a14be:	ac10      	add	r4, sp, #64	; 0x40
void handler(const char *topic, const char *data)
{
  Log.info("Call back for device name!");
  if (!haveGotName)
  {
    String loadedNAme = String(data);
 80a14c0:	f004 fddf 	bl	80a6082 <_ZN6StringC1EPK19__FlashStringHelper>
{
public:
	StringSumHelper(const String &s) : String(s) {}
	StringSumHelper(const char *p) : String(p) {}
 80a14c4:	494e      	ldr	r1, [pc, #312]	; (80a1600 <_Z7handlerPKcS0_+0x160>)
 80a14c6:	a80c      	add	r0, sp, #48	; 0x30
 80a14c8:	f004 fddb 	bl	80a6082 <_ZN6StringC1EPK19__FlashStringHelper>
    Log.info("received " + String(topic) + ": " + loadedNAme);
 80a14cc:	4629      	mov	r1, r5
 80a14ce:	4620      	mov	r0, r4
 80a14d0:	f004 fdd7 	bl	80a6082 <_ZN6StringC1EPK19__FlashStringHelper>
 80a14d4:	4621      	mov	r1, r4
 80a14d6:	a80c      	add	r0, sp, #48	; 0x30
 80a14d8:	f004 fedb 	bl	80a6292 <_ZplRK15StringSumHelperRK6String>
 80a14dc:	4949      	ldr	r1, [pc, #292]	; (80a1604 <_Z7handlerPKcS0_+0x164>)
 80a14de:	f004 fee4 	bl	80a62aa <_ZplRK15StringSumHelperPKc>
 80a14e2:	a904      	add	r1, sp, #16
 80a14e4:	f004 fed5 	bl	80a6292 <_ZplRK15StringSumHelperRK6String>
 80a14e8:	6801      	ldr	r1, [r0, #0]
 80a14ea:	4842      	ldr	r0, [pc, #264]	; (80a15f4 <_Z7handlerPKcS0_+0x154>)
 80a14ec:	f7ff f960 	bl	80a07b0 <_ZNK5spark6Logger4infoEPKcz>
 80a14f0:	4620      	mov	r0, r4
 80a14f2:	f004 fd7f 	bl	80a5ff4 <_ZN6StringD1Ev>

        friend class StringPrintableHelper;

};

class StringSumHelper : public String
 80a14f6:	a80c      	add	r0, sp, #48	; 0x30
 80a14f8:	f004 fd7c 	bl	80a5ff4 <_ZN6StringD1Ev>
    Log.info("Saving name...");
 80a14fc:	4942      	ldr	r1, [pc, #264]	; (80a1608 <_Z7handlerPKcS0_+0x168>)
 80a14fe:	483d      	ldr	r0, [pc, #244]	; (80a15f4 <_Z7handlerPKcS0_+0x154>)
 80a1500:	f7ff f956 	bl	80a07b0 <_ZNK5spark6Logger4infoEPKcz>
{
public:
	StringSumHelper(const String &s) : String(s) {}
	StringSumHelper(const char *p) : String(p) {}
 80a1504:	4941      	ldr	r1, [pc, #260]	; (80a160c <_Z7handlerPKcS0_+0x16c>)
 80a1506:	4620      	mov	r0, r4
 80a1508:	f004 fdbb 	bl	80a6082 <_ZN6StringC1EPK19__FlashStringHelper>

    Log.info("Setting new name...: " + loadedNAme);
 80a150c:	a904      	add	r1, sp, #16
 80a150e:	4620      	mov	r0, r4
 80a1510:	f004 febf 	bl	80a6292 <_ZplRK15StringSumHelperRK6String>
 80a1514:	6801      	ldr	r1, [r0, #0]
 80a1516:	4837      	ldr	r0, [pc, #220]	; (80a15f4 <_Z7handlerPKcS0_+0x154>)
 80a1518:	f7ff f94a 	bl	80a07b0 <_ZNK5spark6Logger4infoEPKcz>

        friend class StringPrintableHelper;

};

class StringSumHelper : public String
 80a151c:	4620      	mov	r0, r4
 80a151e:	f004 fd69 	bl	80a5ff4 <_ZN6StringD1Ev>
    setNewName(loadedNAme);
 80a1522:	a904      	add	r1, sp, #16
 80a1524:	4620      	mov	r0, r4
 80a1526:	f004 fdeb 	bl	80a6100 <_ZN6StringC1ERKS_>
 80a152a:	4620      	mov	r0, r4
 80a152c:	f7ff ff70 	bl	80a1410 <_Z10setNewName6String>
 80a1530:	4620      	mov	r0, r4
 80a1532:	f004 fd5f 	bl	80a5ff4 <_ZN6StringD1Ev>
    Log.info("Set name, now saving to EEPROM...");
 80a1536:	4936      	ldr	r1, [pc, #216]	; (80a1610 <_Z7handlerPKcS0_+0x170>)
 80a1538:	482e      	ldr	r0, [pc, #184]	; (80a15f4 <_Z7handlerPKcS0_+0x154>)
 80a153a:	f7ff f939 	bl	80a07b0 <_ZNK5spark6Logger4infoEPKcz>
    EEPROMinfo Name = EEPROMinfo(loadedNAme);
 80a153e:	a904      	add	r1, sp, #16
 80a1540:	a80c      	add	r0, sp, #48	; 0x30
 80a1542:	f004 fddd 	bl	80a6100 <_ZN6StringC1ERKS_>
 80a1546:	a90c      	add	r1, sp, #48	; 0x30
 80a1548:	4620      	mov	r0, r4
 80a154a:	f7ff fa23 	bl	80a0994 <_ZN10EEPROMinfoC1E6String>
 80a154e:	a80c      	add	r0, sp, #48	; 0x30
 80a1550:	f004 fd50 	bl	80a5ff4 <_ZN6StringD1Ev>
    setNameOfEEPROM(Name);
 80a1554:	ab18      	add	r3, sp, #96	; 0x60
 80a1556:	e913 000f 	ldmdb	r3, {r0, r1, r2, r3}
 80a155a:	e88d 000f 	stmia.w	sp, {r0, r1, r2, r3}
 80a155e:	e894 000f 	ldmia.w	r4, {r0, r1, r2, r3}
 80a1562:	f7ff fed7 	bl	80a1314 <_Z15setNameOfEEPROM10EEPROMinfo>
{
public:
	StringSumHelper(const String &s) : String(s) {}
	StringSumHelper(const char *p) : String(p) {}
 80a1566:	492b      	ldr	r1, [pc, #172]	; (80a1614 <_Z7handlerPKcS0_+0x174>)
 80a1568:	a808      	add	r0, sp, #32
 80a156a:	f004 fd8a 	bl	80a6082 <_ZN6StringC1EPK19__FlashStringHelper>
    Log.info("We have a name in ram    : " + String(deviceNameRet));
 80a156e:	492a      	ldr	r1, [pc, #168]	; (80a1618 <_Z7handlerPKcS0_+0x178>)
 80a1570:	a80c      	add	r0, sp, #48	; 0x30
 80a1572:	f004 fd86 	bl	80a6082 <_ZN6StringC1EPK19__FlashStringHelper>
 80a1576:	a90c      	add	r1, sp, #48	; 0x30
 80a1578:	a808      	add	r0, sp, #32
 80a157a:	f004 fe8a 	bl	80a6292 <_ZplRK15StringSumHelperRK6String>
 80a157e:	6801      	ldr	r1, [r0, #0]
 80a1580:	481c      	ldr	r0, [pc, #112]	; (80a15f4 <_Z7handlerPKcS0_+0x154>)
 80a1582:	f7ff f915 	bl	80a07b0 <_ZNK5spark6Logger4infoEPKcz>
 80a1586:	a80c      	add	r0, sp, #48	; 0x30
 80a1588:	f004 fd34 	bl	80a5ff4 <_ZN6StringD1Ev>

        friend class StringPrintableHelper;

};

class StringSumHelper : public String
 80a158c:	a808      	add	r0, sp, #32
 80a158e:	f004 fd31 	bl	80a5ff4 <_ZN6StringD1Ev>
{
public:
	StringSumHelper(const String &s) : String(s) {}
	StringSumHelper(const char *p) : String(p) {}
 80a1592:	4922      	ldr	r1, [pc, #136]	; (80a161c <_Z7handlerPKcS0_+0x17c>)
 80a1594:	a808      	add	r0, sp, #32
 80a1596:	f004 fd74 	bl	80a6082 <_ZN6StringC1EPK19__FlashStringHelper>
    Log.info("We have a name in on file: " + String(DeviceName));
 80a159a:	4921      	ldr	r1, [pc, #132]	; (80a1620 <_Z7handlerPKcS0_+0x180>)
 80a159c:	a80c      	add	r0, sp, #48	; 0x30
 80a159e:	f004 fdaf 	bl	80a6100 <_ZN6StringC1ERKS_>
 80a15a2:	a90c      	add	r1, sp, #48	; 0x30
 80a15a4:	a808      	add	r0, sp, #32
 80a15a6:	f004 fe74 	bl	80a6292 <_ZplRK15StringSumHelperRK6String>
 80a15aa:	6801      	ldr	r1, [r0, #0]
 80a15ac:	4811      	ldr	r0, [pc, #68]	; (80a15f4 <_Z7handlerPKcS0_+0x154>)
 80a15ae:	f7ff f8ff 	bl	80a07b0 <_ZNK5spark6Logger4infoEPKcz>
 80a15b2:	a80c      	add	r0, sp, #48	; 0x30
 80a15b4:	f004 fd1e 	bl	80a5ff4 <_ZN6StringD1Ev>

        friend class StringPrintableHelper;

};

class StringSumHelper : public String
 80a15b8:	a808      	add	r0, sp, #32
 80a15ba:	f004 fd1b 	bl	80a5ff4 <_ZN6StringD1Ev>
{
public:
	StringSumHelper(const String &s) : String(s) {}
	StringSumHelper(const char *p) : String(p) {}
 80a15be:	4919      	ldr	r1, [pc, #100]	; (80a1624 <_Z7handlerPKcS0_+0x184>)
 80a15c0:	a808      	add	r0, sp, #32
 80a15c2:	f004 fd5e 	bl	80a6082 <_ZN6StringC1EPK19__FlashStringHelper>
    Log.info("We have a name in EEPROM : " + String(ActiveEEPROMData.name));
 80a15c6:	4918      	ldr	r1, [pc, #96]	; (80a1628 <_Z7handlerPKcS0_+0x188>)
 80a15c8:	a80c      	add	r0, sp, #48	; 0x30
 80a15ca:	f004 fd5a 	bl	80a6082 <_ZN6StringC1EPK19__FlashStringHelper>
 80a15ce:	a90c      	add	r1, sp, #48	; 0x30
 80a15d0:	a808      	add	r0, sp, #32
 80a15d2:	f004 fe5e 	bl	80a6292 <_ZplRK15StringSumHelperRK6String>
 80a15d6:	6801      	ldr	r1, [r0, #0]
 80a15d8:	4806      	ldr	r0, [pc, #24]	; (80a15f4 <_Z7handlerPKcS0_+0x154>)
 80a15da:	f7ff f8e9 	bl	80a07b0 <_ZNK5spark6Logger4infoEPKcz>
 80a15de:	a80c      	add	r0, sp, #48	; 0x30
 80a15e0:	f004 fd08 	bl	80a5ff4 <_ZN6StringD1Ev>

        friend class StringPrintableHelper;

};

class StringSumHelper : public String
 80a15e4:	a808      	add	r0, sp, #32
 80a15e6:	f004 fd05 	bl	80a5ff4 <_ZN6StringD1Ev>
void handler(const char *topic, const char *data)
{
  Log.info("Call back for device name!");
  if (!haveGotName)
  {
    String loadedNAme = String(data);
 80a15ea:	a804      	add	r0, sp, #16
 80a15ec:	f004 fd02 	bl	80a5ff4 <_ZN6StringD1Ev>
    setNameOfEEPROM(Name);
    Log.info("We have a name in ram    : " + String(deviceNameRet));
    Log.info("We have a name in on file: " + String(DeviceName));
    Log.info("We have a name in EEPROM : " + String(ActiveEEPROMData.name));
  }
}
 80a15f0:	b019      	add	sp, #100	; 0x64
 80a15f2:	bd30      	pop	{r4, r5, pc}
 80a15f4:	20000e94 	.word	0x20000e94
 80a15f8:	080ac875 	.word	0x080ac875
 80a15fc:	2000049c 	.word	0x2000049c
 80a1600:	080ac890 	.word	0x080ac890
 80a1604:	080ac82f 	.word	0x080ac82f
 80a1608:	080ac89a 	.word	0x080ac89a
 80a160c:	080ac8a9 	.word	0x080ac8a9
 80a1610:	080ac8bf 	.word	0x080ac8bf
 80a1614:	080ac8e1 	.word	0x080ac8e1
 80a1618:	20000300 	.word	0x20000300
 80a161c:	080ac8fd 	.word	0x080ac8fd
 80a1620:	20000444 	.word	0x20000444
 80a1624:	080ac919 	.word	0x080ac919
 80a1628:	200004e5 	.word	0x200004e5

080a162c <_Z10cancelWiFiv>:
    cancelWiFi();
  }
}

void cancelWiFi()
{
 80a162c:	b510      	push	{r4, lr}
 80a162e:	4c0b      	ldr	r4, [pc, #44]	; (80a165c <_Z10cancelWiFiv+0x30>)
    void connect(unsigned flags=0) {
        network_connect(*this, flags, 0, NULL);
    }

    void disconnect(void) {
        network_disconnect(*this, NETWORK_DISCONNECT_REASON_USER, NULL);
 80a1630:	2200      	movs	r2, #0
 80a1632:	2102      	movs	r1, #2
 80a1634:	6860      	ldr	r0, [r4, #4]
 80a1636:	f004 fa3b 	bl	80a5ab0 <network_disconnect>
    void on(void) {
        network_on(*this, 0, 0, NULL);
    }

    void off(void) {
        network_off(*this, 0, 0, NULL);
 80a163a:	2300      	movs	r3, #0
 80a163c:	461a      	mov	r2, r3
 80a163e:	4619      	mov	r1, r3
 80a1640:	6860      	ldr	r0, [r4, #4]
 80a1642:	f004 fa4d 	bl	80a5ae0 <network_off>
  WiFi.disconnect();
  WiFi.off();
#endif

  //isCloudLoop = false;
  wifiReady = false;
 80a1646:	4a06      	ldr	r2, [pc, #24]	; (80a1660 <_Z10cancelWiFiv+0x34>)
 80a1648:	2300      	movs	r3, #0
 80a164a:	7013      	strb	r3, [r2, #0]
  cloudReady = false;
 80a164c:	4a05      	ldr	r2, [pc, #20]	; (80a1664 <_Z10cancelWiFiv+0x38>)
 80a164e:	7013      	strb	r3, [r2, #0]
  connectingToCloud = false;
 80a1650:	4a05      	ldr	r2, [pc, #20]	; (80a1668 <_Z10cancelWiFiv+0x3c>)
 80a1652:	7013      	strb	r3, [r2, #0]

  saveOffline = true;
 80a1654:	4b05      	ldr	r3, [pc, #20]	; (80a166c <_Z10cancelWiFiv+0x40>)
 80a1656:	2201      	movs	r2, #1
 80a1658:	701a      	strb	r2, [r3, #0]
 80a165a:	bd10      	pop	{r4, pc}
 80a165c:	20000f34 	.word	0x20000f34
 80a1660:	20000499 	.word	0x20000499
 80a1664:	200004aa 	.word	0x200004aa
 80a1668:	20000498 	.word	0x20000498
 80a166c:	20000468 	.word	0x20000468

080a1670 <_Z18cancelWiFiCallbackv>:

//////////////////////////////////////////////////////////////
//            WIFI AND CONNECTION FUNCTIONS
//////////////////////////////////////////////////////////////
void cancelWiFiCallback()
{
 80a1670:	b508      	push	{r3, lr}
  Log.info("Cancel wifi callback called...");
 80a1672:	4909      	ldr	r1, [pc, #36]	; (80a1698 <_Z18cancelWiFiCallbackv+0x28>)
 80a1674:	4809      	ldr	r0, [pc, #36]	; (80a169c <_Z18cancelWiFiCallbackv+0x2c>)
 80a1676:	f7ff f89b 	bl	80a07b0 <_ZNK5spark6Logger4infoEPKcz>
  if (connectingToCloud && !cloudReady)
 80a167a:	4b09      	ldr	r3, [pc, #36]	; (80a16a0 <_Z18cancelWiFiCallbackv+0x30>)
 80a167c:	781b      	ldrb	r3, [r3, #0]
 80a167e:	b153      	cbz	r3, 80a1696 <_Z18cancelWiFiCallbackv+0x26>
 80a1680:	4b08      	ldr	r3, [pc, #32]	; (80a16a4 <_Z18cancelWiFiCallbackv+0x34>)
 80a1682:	781b      	ldrb	r3, [r3, #0]
 80a1684:	b93b      	cbnz	r3, 80a1696 <_Z18cancelWiFiCallbackv+0x26>
  {
    Log.info("Took too long... will cancel Wifi and the cloud... ");
 80a1686:	4908      	ldr	r1, [pc, #32]	; (80a16a8 <_Z18cancelWiFiCallbackv+0x38>)
 80a1688:	4804      	ldr	r0, [pc, #16]	; (80a169c <_Z18cancelWiFiCallbackv+0x2c>)
 80a168a:	f7ff f891 	bl	80a07b0 <_ZNK5spark6Logger4infoEPKcz>
    cancelWiFi();
  }
}
 80a168e:	e8bd 4008 	ldmia.w	sp!, {r3, lr}
{
  Log.info("Cancel wifi callback called...");
  if (connectingToCloud && !cloudReady)
  {
    Log.info("Took too long... will cancel Wifi and the cloud... ");
    cancelWiFi();
 80a1692:	f7ff bfcb 	b.w	80a162c <_Z10cancelWiFiv>
 80a1696:	bd08      	pop	{r3, pc}
 80a1698:	080ac935 	.word	0x080ac935
 80a169c:	20000e94 	.word	0x20000e94
 80a16a0:	20000498 	.word	0x20000498
 80a16a4:	200004aa 	.word	0x200004aa
 80a16a8:	080ac954 	.word	0x080ac954

080a16ac <_Z12mycustomScanv>:
    Serial.println(ap.ssid);
  }
}

void mycustomScan()
{
 80a16ac:	e92d 41f0 	stmdb	sp!, {r4, r5, r6, r7, r8, lr}
 80a16b0:	f5ad 6db0 	sub.w	sp, sp, #1408	; 0x580
 80a16b4:	2400      	movs	r4, #0

#ifdef __cplusplus

   WiFiAccessPoint()
   {
       memset(this, 0, sizeof(*this));
 80a16b6:	ae48      	add	r6, sp, #288	; 0x120
 80a16b8:	2538      	movs	r5, #56	; 0x38
 80a16ba:	1930      	adds	r0, r6, r4
 80a16bc:	2238      	movs	r2, #56	; 0x38
 80a16be:	2100      	movs	r1, #0
 80a16c0:	f00a fa46 	bl	80abb50 <memset>
       size = sizeof(*this);
 80a16c4:	51a5      	str	r5, [r4, r6]
 80a16c6:	3438      	adds	r4, #56	; 0x38
  WiFiAccessPoint aps[20];
 80a16c8:	f5b4 6f8c 	cmp.w	r4, #1120	; 0x460
 80a16cc:	d1f5      	bne.n	80a16ba <_Z12mycustomScanv+0xe>
 80a16ce:	2400      	movs	r4, #0

#ifdef __cplusplus

   WiFiAccessPoint()
   {
       memset(this, 0, sizeof(*this));
 80a16d0:	ad02      	add	r5, sp, #8
 80a16d2:	2738      	movs	r7, #56	; 0x38
 80a16d4:	1928      	adds	r0, r5, r4
 80a16d6:	2238      	movs	r2, #56	; 0x38
 80a16d8:	2100      	movs	r1, #0
 80a16da:	f00a fa39 	bl	80abb50 <memset>
       size = sizeof(*this);
 80a16de:	5167      	str	r7, [r4, r5]
 80a16e0:	3438      	adds	r4, #56	; 0x38
  WiFiAccessPoint Myap[5];
 80a16e2:	f5b4 7f8c 	cmp.w	r4, #280	; 0x118
 80a16e6:	d1f5      	bne.n	80a16d4 <_Z12mycustomScanv+0x28>
  int foundMy = WiFi.getCredentials(Myap, 5); //-1;//
 80a16e8:	4629      	mov	r1, r5
 80a16ea:	2205      	movs	r2, #5
 80a16ec:	481f      	ldr	r0, [pc, #124]	; (80a176c <_Z12mycustomScanv+0xc0>)
 80a16ee:	f006 fe73 	bl	80a83d8 <_ZN5spark9WiFiClass14getCredentialsEP15WiFiAccessPointj>
  int found = WiFi.scan(aps, 20);             //0;//
 80a16f2:	2214      	movs	r2, #20
 80a16f4:	4631      	mov	r1, r6
 80a16f6:	481d      	ldr	r0, [pc, #116]	; (80a176c <_Z12mycustomScanv+0xc0>)
 80a16f8:	f006 fe5c 	bl	80a83b4 <_ZN5spark9WiFiClass4scanEP15WiFiAccessPointj>
 80a16fc:	4607      	mov	r7, r0
      }
      if (!haveGot)
      {
        Serial.print("SSID: ");
        Serial.println(ap.ssid);
        WiFi.setCredentials(ap.ssid, PASS); //
 80a16fe:	f8df 807c 	ldr.w	r8, [pc, #124]	; 80a177c <_Z12mycustomScanv+0xd0>
 80a1702:	ac49      	add	r4, sp, #292	; 0x124
{
  WiFiAccessPoint aps[20];
  WiFiAccessPoint Myap[5];
  int foundMy = WiFi.getCredentials(Myap, 5); //-1;//
  int found = WiFi.scan(aps, 20);             //0;//
  for (int i = 0; i < found; i++)
 80a1704:	2500      	movs	r5, #0
 80a1706:	42bd      	cmp	r5, r7
 80a1708:	da2b      	bge.n	80a1762 <_Z12mycustomScanv+0xb6>
  {
    WiFiAccessPoint &ap = aps[i];
    if (ap.ssid[0] == '3' && ap.ssid[1] == 'G')
 80a170a:	2338      	movs	r3, #56	; 0x38
 80a170c:	fb03 6305 	mla	r3, r3, r5, r6
 80a1710:	889a      	ldrh	r2, [r3, #4]
 80a1712:	f244 7333 	movw	r3, #18227	; 0x4733
 80a1716:	429a      	cmp	r2, r3
 80a1718:	d116      	bne.n	80a1748 <_Z12mycustomScanv+0x9c>
          break;
        }
      }
      if (!haveGot)
      {
        Serial.print("SSID: ");
 80a171a:	f006 fc79 	bl	80a8010 <_Z16_fetch_usbserialv>
 80a171e:	4914      	ldr	r1, [pc, #80]	; (80a1770 <_Z12mycustomScanv+0xc4>)
 80a1720:	f004 fe5e 	bl	80a63e0 <_ZN5Print5printEPKc>
        Serial.println(ap.ssid);
 80a1724:	f006 fc74 	bl	80a8010 <_Z16_fetch_usbserialv>
 80a1728:	4621      	mov	r1, r4
 80a172a:	f004 fe6c 	bl	80a6406 <_ZN5Print7printlnEPKc>
    bool setCredentials(const char *ssid) {
        return setCredentials(ssid, NULL, UNSEC);
    }

    bool setCredentials(const char *ssid, const char *password) {
        return setCredentials(ssid, password, WPA2);
 80a172e:	2300      	movs	r3, #0
 80a1730:	9300      	str	r3, [sp, #0]
 80a1732:	f8d8 2000 	ldr.w	r2, [r8]
 80a1736:	2303      	movs	r3, #3
 80a1738:	4621      	mov	r1, r4
 80a173a:	480c      	ldr	r0, [pc, #48]	; (80a176c <_Z12mycustomScanv+0xc0>)
 80a173c:	f7fe ffa5 	bl	80a068a <_ZN5spark9WiFiClass14setCredentialsEPKcS2_mm>
        WiFi.setCredentials(ap.ssid, PASS); //
        hasAddedNewSSID = true;
 80a1740:	4b0c      	ldr	r3, [pc, #48]	; (80a1774 <_Z12mycustomScanv+0xc8>)
 80a1742:	2201      	movs	r2, #1
 80a1744:	701a      	strb	r2, [r3, #0]
 80a1746:	e009      	b.n	80a175c <_Z12mycustomScanv+0xb0>
      }
    }
    else
    {

      Serial.print("Unknown SSID: ");
 80a1748:	f006 fc62 	bl	80a8010 <_Z16_fetch_usbserialv>
 80a174c:	490a      	ldr	r1, [pc, #40]	; (80a1778 <_Z12mycustomScanv+0xcc>)
 80a174e:	f004 fe47 	bl	80a63e0 <_ZN5Print5printEPKc>
      Serial.println(ap.ssid);
 80a1752:	f006 fc5d 	bl	80a8010 <_Z16_fetch_usbserialv>
 80a1756:	4621      	mov	r1, r4
 80a1758:	f004 fe55 	bl	80a6406 <_ZN5Print7printlnEPKc>
{
  WiFiAccessPoint aps[20];
  WiFiAccessPoint Myap[5];
  int foundMy = WiFi.getCredentials(Myap, 5); //-1;//
  int found = WiFi.scan(aps, 20);             //0;//
  for (int i = 0; i < found; i++)
 80a175c:	3501      	adds	r5, #1
 80a175e:	3438      	adds	r4, #56	; 0x38
 80a1760:	e7d1      	b.n	80a1706 <_Z12mycustomScanv+0x5a>

      Serial.print("Unknown SSID: ");
      Serial.println(ap.ssid);
    }
  }
}
 80a1762:	f50d 6db0 	add.w	sp, sp, #1408	; 0x580
 80a1766:	e8bd 81f0 	ldmia.w	sp!, {r4, r5, r6, r7, r8, pc}
 80a176a:	bf00      	nop
 80a176c:	20000f34 	.word	0x20000f34
 80a1770:	080ac684 	.word	0x080ac684
 80a1774:	40024000 	.word	0x40024000
 80a1778:	080ac67c 	.word	0x080ac67c
 80a177c:	20000330 	.word	0x20000330

080a1780 <_Z14tryConnectWifiv>:

  saveOffline = true;
}

void tryConnectWifi()
{
 80a1780:	b510      	push	{r4, lr}
#if (PLATFORM_ID == PLATFORM_ARGON || PLATFORM_ID == PLATFORM_PHOTON_PRODUCTION)
  if (wiFiConnectionAttempts < wiFiConnectionAttemptMAX)
 80a1782:	4b14      	ldr	r3, [pc, #80]	; (80a17d4 <_Z14tryConnectWifiv+0x54>)
 80a1784:	681a      	ldr	r2, [r3, #0]
 80a1786:	4b14      	ldr	r3, [pc, #80]	; (80a17d8 <_Z14tryConnectWifiv+0x58>)
 80a1788:	681b      	ldr	r3, [r3, #0]
 80a178a:	429a      	cmp	r2, r3
 80a178c:	da1d      	bge.n	80a17ca <_Z14tryConnectWifiv+0x4a>
 80a178e:	4c13      	ldr	r4, [pc, #76]	; (80a17dc <_Z14tryConnectWifiv+0x5c>)
    bool ready(void) {
        return network_ready(*this, 0, NULL);
    }

    void on(void) {
        network_on(*this, 0, 0, NULL);
 80a1790:	2300      	movs	r3, #0
 80a1792:	461a      	mov	r2, r3
 80a1794:	4619      	mov	r1, r3
 80a1796:	6860      	ldr	r0, [r4, #4]
 80a1798:	f004 f99a 	bl	80a5ad0 <network_on>
    uint32_t ping(IPAddress remoteIP, uint8_t nTries) {
        return inet_ping(&remoteIP.raw(), *this, nTries, NULL);
    }

    void connect(unsigned flags=0) {
        network_connect(*this, flags, 0, NULL);
 80a179c:	2300      	movs	r3, #0
 80a179e:	4619      	mov	r1, r3
 80a17a0:	461a      	mov	r2, r3
 80a17a2:	6860      	ldr	r0, [r4, #4]
 80a17a4:	f004 f974 	bl	80a5a90 <network_connect>
  {
    WiFi.on();
    WiFi.connect();
    Log.info("Connecting WiFi...");
 80a17a8:	490d      	ldr	r1, [pc, #52]	; (80a17e0 <_Z14tryConnectWifiv+0x60>)
 80a17aa:	480e      	ldr	r0, [pc, #56]	; (80a17e4 <_Z14tryConnectWifiv+0x64>)
 80a17ac:	f7ff f800 	bl	80a07b0 <_ZNK5spark6Logger4infoEPKcz>
    if (!hasAddedNewSSID)
 80a17b0:	4b0d      	ldr	r3, [pc, #52]	; (80a17e8 <_Z14tryConnectWifiv+0x68>)
 80a17b2:	781b      	ldrb	r3, [r3, #0]
 80a17b4:	b90b      	cbnz	r3, 80a17ba <_Z14tryConnectWifiv+0x3a>
    {
      mycustomScan();
 80a17b6:	f7ff ff79 	bl	80a16ac <_Z12mycustomScanv>
    }
    Log.info("Connecting to Cloud..."); ///////////////////// UPDATE
 80a17ba:	490c      	ldr	r1, [pc, #48]	; (80a17ec <_Z14tryConnectWifiv+0x6c>)
 80a17bc:	4809      	ldr	r0, [pc, #36]	; (80a17e4 <_Z14tryConnectWifiv+0x64>)
 80a17be:	f7fe fff7 	bl	80a07b0 <_ZNK5spark6Logger4infoEPKcz>
  else
  {
    cancelWiFi();
  }
#endif
}
 80a17c2:	e8bd 4010 	ldmia.w	sp!, {r4, lr}
    if (!hasAddedNewSSID)
    {
      mycustomScan();
    }
    Log.info("Connecting to Cloud..."); ///////////////////// UPDATE
    tryConnectCloud();
 80a17c6:	f000 b813 	b.w	80a17f0 <_Z15tryConnectCloudv>
  else
  {
    cancelWiFi();
  }
#endif
}
 80a17ca:	e8bd 4010 	ldmia.w	sp!, {r4, lr}
    Log.info("Connecting to Cloud..."); ///////////////////// UPDATE
    tryConnectCloud();
  }
  else
  {
    cancelWiFi();
 80a17ce:	f7ff bf2d 	b.w	80a162c <_Z10cancelWiFiv>
 80a17d2:	bf00      	nop
 80a17d4:	200004a0 	.word	0x200004a0
 80a17d8:	2000032c 	.word	0x2000032c
 80a17dc:	20000f34 	.word	0x20000f34
 80a17e0:	080ac988 	.word	0x080ac988
 80a17e4:	20000e94 	.word	0x20000e94
 80a17e8:	40024000 	.word	0x40024000
 80a17ec:	080ac99b 	.word	0x080ac99b

080a17f0 <_Z15tryConnectCloudv>:
  }
#endif
}

void tryConnectCloud()
{
 80a17f0:	e92d 43f7 	stmdb	sp!, {r0, r1, r2, r4, r5, r6, r7, r8, r9, lr}
#if (PLATFORM_ID == PLATFORM_ARGON || PLATFORM_ID == PLATFORM_PHOTON_PRODUCTION)

  if (isCloudLoop && !cloudReady)
 80a17f4:	4b5d      	ldr	r3, [pc, #372]	; (80a196c <_Z15tryConnectCloudv+0x17c>)
 80a17f6:	781b      	ldrb	r3, [r3, #0]
 80a17f8:	2b00      	cmp	r3, #0
 80a17fa:	d076      	beq.n	80a18ea <_Z15tryConnectCloudv+0xfa>
 80a17fc:	4c5c      	ldr	r4, [pc, #368]	; (80a1970 <_Z15tryConnectCloudv+0x180>)
 80a17fe:	7823      	ldrb	r3, [r4, #0]
 80a1800:	2b00      	cmp	r3, #0
 80a1802:	d172      	bne.n	80a18ea <_Z15tryConnectCloudv+0xfa>
  {
    if ((WiFi.ready() || WiFi.connecting())) //Mesh.ready() || Mesh.connecting())
 80a1804:	485b      	ldr	r0, [pc, #364]	; (80a1974 <_Z15tryConnectCloudv+0x184>)
 80a1806:	f7fe ff3b 	bl	80a0680 <_ZN5spark9WiFiClass5readyEv>
 80a180a:	b920      	cbnz	r0, 80a1816 <_Z15tryConnectCloudv+0x26>
 80a180c:	4859      	ldr	r0, [pc, #356]	; (80a1974 <_Z15tryConnectCloudv+0x184>)
 80a180e:	f7fe ff32 	bl	80a0676 <_ZN5spark9WiFiClass10connectingEv>
 80a1812:	2800      	cmp	r0, #0
 80a1814:	d07c      	beq.n	80a1910 <_Z15tryConnectCloudv+0x120>
    {
      if (WiFi.ready())
 80a1816:	4857      	ldr	r0, [pc, #348]	; (80a1974 <_Z15tryConnectCloudv+0x184>)
 80a1818:	f7fe ff32 	bl	80a0680 <_ZN5spark9WiFiClass5readyEv>
 80a181c:	b118      	cbz	r0, 80a1826 <_Z15tryConnectCloudv+0x36>
        Log.info("Wifi is ready.");
 80a181e:	4956      	ldr	r1, [pc, #344]	; (80a1978 <_Z15tryConnectCloudv+0x188>)
 80a1820:	4856      	ldr	r0, [pc, #344]	; (80a197c <_Z15tryConnectCloudv+0x18c>)
 80a1822:	f7fe ffc5 	bl	80a07b0 <_ZNK5spark6Logger4infoEPKcz>

      if (WiFi.connecting())
 80a1826:	4853      	ldr	r0, [pc, #332]	; (80a1974 <_Z15tryConnectCloudv+0x184>)
 80a1828:	f7fe ff25 	bl	80a0676 <_ZN5spark9WiFiClass10connectingEv>
 80a182c:	b118      	cbz	r0, 80a1836 <_Z15tryConnectCloudv+0x46>
        Log.info("Wifi is connecting.");
 80a182e:	4954      	ldr	r1, [pc, #336]	; (80a1980 <_Z15tryConnectCloudv+0x190>)
 80a1830:	4852      	ldr	r0, [pc, #328]	; (80a197c <_Z15tryConnectCloudv+0x18c>)
 80a1832:	f7fe ffbd 	bl	80a07b0 <_ZNK5spark6Logger4infoEPKcz>

      if (waitFor(WiFi.ready, wifiConnectionDuration)) //waitFor(Mesh.ready,wifiConnectionDuration))//
 80a1836:	4b53      	ldr	r3, [pc, #332]	; (80a1984 <_Z15tryConnectCloudv+0x194>)
        HAL_Core_Button_Mirror_Pin_Disable((uint8_t)bootloader, 0, NULL);
    }

    // This function is similar to the global millis() but returns a 64-bit value
    static uint64_t millis() {
        return hal_timer_millis(nullptr);
 80a1838:	2000      	movs	r0, #0
 80a183a:	681e      	ldr	r6, [r3, #0]
 80a183c:	f003 ff1a 	bl	80a5674 <hal_timer_millis>


    static uint32_t freeMemory();

    template<typename Condition, typename While> static bool waitConditionWhile(Condition _condition, While _while) {
        while (_while() && !_condition()) {
 80a1840:	4680      	mov	r8, r0
 80a1842:	f04f 0900 	mov.w	r9, #0
 80a1846:	2700      	movs	r7, #0
        HAL_Core_Button_Mirror_Pin_Disable((uint8_t)bootloader, 0, NULL);
    }

    // This function is similar to the global millis() but returns a 64-bit value
    static uint64_t millis() {
        return hal_timer_millis(nullptr);
 80a1848:	2000      	movs	r0, #0
 80a184a:	f003 ff13 	bl	80a5674 <hal_timer_millis>


    static uint32_t freeMemory();

    template<typename Condition, typename While> static bool waitConditionWhile(Condition _condition, While _while) {
        while (_while() && !_condition()) {
 80a184e:	ebb0 0008 	subs.w	r0, r0, r8
 80a1852:	eb61 0109 	sbc.w	r1, r1, r9
 80a1856:	42b9      	cmp	r1, r7
 80a1858:	bf08      	it	eq
 80a185a:	42b0      	cmpeq	r0, r6
 80a185c:	d368      	bcc.n	80a1930 <_Z15tryConnectCloudv+0x140>
 80a185e:	4845      	ldr	r0, [pc, #276]	; (80a1974 <_Z15tryConnectCloudv+0x184>)
 80a1860:	f7fe ff0e 	bl	80a0680 <_ZN5spark9WiFiClass5readyEv>
 80a1864:	2800      	cmp	r0, #0
 80a1866:	d072      	beq.n	80a194e <_Z15tryConnectCloudv+0x15e>
      {
        Log.info("Wifi is ready. now to connect to the cloud. ");
 80a1868:	4947      	ldr	r1, [pc, #284]	; (80a1988 <_Z15tryConnectCloudv+0x198>)
 80a186a:	4844      	ldr	r0, [pc, #272]	; (80a197c <_Z15tryConnectCloudv+0x18c>)
 80a186c:	f7fe ffa0 	bl	80a07b0 <_ZNK5spark6Logger4infoEPKcz>
        wifiReady = true;
 80a1870:	4a46      	ldr	r2, [pc, #280]	; (80a198c <_Z15tryConnectCloudv+0x19c>)
 80a1872:	2301      	movs	r3, #1
    bool changePeriodFromISR(unsigned period) { return _changePeriod(period, 0, true); }

    static const unsigned default_wait = 0x7FFFFFFF;

    bool start(unsigned block=default_wait) { return _start(block, false); }
    bool stop(unsigned block=default_wait) { return _stop(block, false); }
 80a1874:	4e46      	ldr	r6, [pc, #280]	; (80a1990 <_Z15tryConnectCloudv+0x1a0>)
 80a1876:	7013      	strb	r3, [r2, #0]
        connectingToCloud = true;
 80a1878:	4d46      	ldr	r5, [pc, #280]	; (80a1994 <_Z15tryConnectCloudv+0x1a4>)
 80a187a:	2200      	movs	r2, #0
 80a187c:	4611      	mov	r1, r2
 80a187e:	4630      	mov	r0, r6
 80a1880:	702b      	strb	r3, [r5, #0]
 80a1882:	f7fe ff57 	bl	80a0734 <_ZN5Timer5_stopEjb>
    bool isActive() const { return isValid() && os_timer_is_active(handle, nullptr); }

    bool _start(unsigned block, bool fromISR=false)
    {
        stop(fromISR);
        return handle ? !os_timer_change(handle, OS_TIMER_CHANGE_START, fromISR, 0, block, nullptr) : false;
 80a1886:	68b0      	ldr	r0, [r6, #8]
 80a1888:	b140      	cbz	r0, 80a189c <_Z15tryConnectCloudv+0xac>
 80a188a:	2300      	movs	r3, #0
 80a188c:	f06f 4200 	mvn.w	r2, #2147483648	; 0x80000000
 80a1890:	e88d 000c 	stmia.w	sp, {r2, r3}
 80a1894:	4619      	mov	r1, r3
 80a1896:	461a      	mov	r2, r3
 80a1898:	f003 ff34 	bl	80a5704 <os_timer_change>
    { SystemClass::sleep(wakeUpPin, edgeTriggerMode, seconds); }

    static bool connected(void) { return spark_cloud_flag_connected(); }
    static bool disconnected(void) { return !connected(); }
    static void connect(void) {
        spark_cloud_flag_connect();
 80a189c:	f004 f958 	bl	80a5b50 <spark_cloud_flag_connect>
    static void sleep(Spark_Sleep_TypeDef sleepMode, long seconds=0) __attribute__ ((deprecated("Please use System.sleep() instead.")))
    { SystemClass::sleep(sleepMode, seconds); }
    static void sleep(uint16_t wakeUpPin, InterruptMode edgeTriggerMode, long seconds=0) __attribute__ ((deprecated("Please use System.sleep() instead.")))
    { SystemClass::sleep(wakeUpPin, edgeTriggerMode, seconds); }

    static bool connected(void) { return spark_cloud_flag_connected(); }
 80a18a0:	f004 f95e 	bl	80a5b60 <spark_cloud_flag_connected>
        cloudConnectionTimer.start();
        Particle.connect();

        if (Particle.connected())
 80a18a4:	2800      	cmp	r0, #0
 80a18a6:	d04b      	beq.n	80a1940 <_Z15tryConnectCloudv+0x150>
        {
          Log.info("Connected to the cloud... ");
 80a18a8:	493b      	ldr	r1, [pc, #236]	; (80a1998 <_Z15tryConnectCloudv+0x1a8>)
 80a18aa:	4834      	ldr	r0, [pc, #208]	; (80a197c <_Z15tryConnectCloudv+0x18c>)
 80a18ac:	f7fe ff80 	bl	80a07b0 <_ZNK5spark6Logger4infoEPKcz>
 80a18b0:	f004 f956 	bl	80a5b60 <spark_cloud_flag_connected>
        return value;
    }

    static inline void set_flag(system_flag_t flag, uint8_t value)
    {
        system_set_flag(flag, value, nullptr);
 80a18b4:	2101      	movs	r1, #1
          cloudReady = Particle.connected();
          connectingToCloud = false;
          wiFiConnectionAttempts = 0;
 80a18b6:	4b39      	ldr	r3, [pc, #228]	; (80a199c <_Z15tryConnectCloudv+0x1ac>)

        if (Particle.connected())
        {
          Log.info("Connected to the cloud... ");
          cloudReady = Particle.connected();
          connectingToCloud = false;
 80a18b8:	2200      	movs	r2, #0
        Particle.connect();

        if (Particle.connected())
        {
          Log.info("Connected to the cloud... ");
          cloudReady = Particle.connected();
 80a18ba:	7020      	strb	r0, [r4, #0]
 80a18bc:	4608      	mov	r0, r1
          connectingToCloud = false;
 80a18be:	702a      	strb	r2, [r5, #0]
          wiFiConnectionAttempts = 0;
 80a18c0:	601a      	str	r2, [r3, #0]
 80a18c2:	f004 f8b1 	bl	80a5a28 <system_set_flag>
          System.enableUpdates();
          Log.info("All setup, connected and ready to dance. Hazar");
 80a18c6:	4936      	ldr	r1, [pc, #216]	; (80a19a0 <_Z15tryConnectCloudv+0x1b0>)
 80a18c8:	482c      	ldr	r0, [pc, #176]	; (80a197c <_Z15tryConnectCloudv+0x18c>)
 80a18ca:	f7fe ff71 	bl	80a07b0 <_ZNK5spark6Logger4infoEPKcz>
      {
        Log.info("WiFi connection timed out, will try and connect...");
        wiFiConnectionAttempts++;
        tryConnectWifi();
      }
      if (WiFi.connecting())
 80a18ce:	4829      	ldr	r0, [pc, #164]	; (80a1974 <_Z15tryConnectCloudv+0x184>)
 80a18d0:	f7fe fed1 	bl	80a0676 <_ZN5spark9WiFiClass10connectingEv>
 80a18d4:	b148      	cbz	r0, 80a18ea <_Z15tryConnectCloudv+0xfa>
      {
        Log.info("We are still connecting to the cloud. Will try connect again.");
 80a18d6:	4933      	ldr	r1, [pc, #204]	; (80a19a4 <_Z15tryConnectCloudv+0x1b4>)
 80a18d8:	4828      	ldr	r0, [pc, #160]	; (80a197c <_Z15tryConnectCloudv+0x18c>)
 80a18da:	f7fe ff69 	bl	80a07b0 <_ZNK5spark6Logger4infoEPKcz>
        wiFiConnectionAttempts++;
 80a18de:	4a2f      	ldr	r2, [pc, #188]	; (80a199c <_Z15tryConnectCloudv+0x1ac>)
 80a18e0:	6813      	ldr	r3, [r2, #0]
 80a18e2:	3301      	adds	r3, #1
 80a18e4:	6013      	str	r3, [r2, #0]

      if (wiFiConnectionAttempts > 1)
        Log.info("Not connected to the cloud. will try again...");

      wiFiConnectionAttempts++;
      tryConnectWifi();
 80a18e6:	f7ff ff4b 	bl	80a1780 <_Z14tryConnectWifiv>
 80a18ea:	f004 f939 	bl	80a5b60 <spark_cloud_flag_connected>
    }
  }
  if (Particle.connected() == false)
 80a18ee:	2800      	cmp	r0, #0
 80a18f0:	d138      	bne.n	80a1964 <_Z15tryConnectCloudv+0x174>
 80a18f2:	f004 f935 	bl	80a5b60 <spark_cloud_flag_connected>
  {
    cloudReady = Particle.connected();
 80a18f6:	4b1e      	ldr	r3, [pc, #120]	; (80a1970 <_Z15tryConnectCloudv+0x180>)
    Log.info("Connecting to the cloud... ");
 80a18f8:	492b      	ldr	r1, [pc, #172]	; (80a19a8 <_Z15tryConnectCloudv+0x1b8>)
      tryConnectWifi();
    }
  }
  if (Particle.connected() == false)
  {
    cloudReady = Particle.connected();
 80a18fa:	7018      	strb	r0, [r3, #0]
    Log.info("Connecting to the cloud... ");
 80a18fc:	481f      	ldr	r0, [pc, #124]	; (80a197c <_Z15tryConnectCloudv+0x18c>)
 80a18fe:	f7fe ff57 	bl	80a07b0 <_ZNK5spark6Logger4infoEPKcz>
    static bool disconnected(void) { return !connected(); }
    static void connect(void) {
        spark_cloud_flag_connect();
 80a1902:	f004 f925 	bl	80a5b50 <spark_cloud_flag_connect>
    Particle.connect();
    Log.info("should be connected to cloud... ");
 80a1906:	4929      	ldr	r1, [pc, #164]	; (80a19ac <_Z15tryConnectCloudv+0x1bc>)
 80a1908:	481c      	ldr	r0, [pc, #112]	; (80a197c <_Z15tryConnectCloudv+0x18c>)
 80a190a:	f7fe ff51 	bl	80a07b0 <_ZNK5spark6Logger4infoEPKcz>
  }
#endif
}
 80a190e:	e029      	b.n	80a1964 <_Z15tryConnectCloudv+0x174>
    }
    else
    {
      Log.info("Is a cloud loop but Wifi is not enabled, will now connect.");

      if (wiFiConnectionAttempts > 1)
 80a1910:	4c22      	ldr	r4, [pc, #136]	; (80a199c <_Z15tryConnectCloudv+0x1ac>)
        tryConnectWifi();
      }
    }
    else
    {
      Log.info("Is a cloud loop but Wifi is not enabled, will now connect.");
 80a1912:	4927      	ldr	r1, [pc, #156]	; (80a19b0 <_Z15tryConnectCloudv+0x1c0>)
 80a1914:	4819      	ldr	r0, [pc, #100]	; (80a197c <_Z15tryConnectCloudv+0x18c>)
 80a1916:	f7fe ff4b 	bl	80a07b0 <_ZNK5spark6Logger4infoEPKcz>

      if (wiFiConnectionAttempts > 1)
 80a191a:	6823      	ldr	r3, [r4, #0]
 80a191c:	2b01      	cmp	r3, #1
 80a191e:	dd03      	ble.n	80a1928 <_Z15tryConnectCloudv+0x138>
        Log.info("Not connected to the cloud. will try again...");
 80a1920:	4924      	ldr	r1, [pc, #144]	; (80a19b4 <_Z15tryConnectCloudv+0x1c4>)
 80a1922:	4816      	ldr	r0, [pc, #88]	; (80a197c <_Z15tryConnectCloudv+0x18c>)
 80a1924:	f7fe ff44 	bl	80a07b0 <_ZNK5spark6Logger4infoEPKcz>

      wiFiConnectionAttempts++;
 80a1928:	6823      	ldr	r3, [r4, #0]
 80a192a:	3301      	adds	r3, #1
 80a192c:	6023      	str	r3, [r4, #0]
 80a192e:	e7da      	b.n	80a18e6 <_Z15tryConnectCloudv+0xf6>
        Log.info("Wifi is ready.");

      if (WiFi.connecting())
        Log.info("Wifi is connecting.");

      if (waitFor(WiFi.ready, wifiConnectionDuration)) //waitFor(Mesh.ready,wifiConnectionDuration))//
 80a1930:	4810      	ldr	r0, [pc, #64]	; (80a1974 <_Z15tryConnectCloudv+0x184>)
 80a1932:	f7fe fea5 	bl	80a0680 <_ZN5spark9WiFiClass5readyEv>


    static uint32_t freeMemory();

    template<typename Condition, typename While> static bool waitConditionWhile(Condition _condition, While _while) {
        while (_while() && !_condition()) {
 80a1936:	2800      	cmp	r0, #0
 80a1938:	d191      	bne.n	80a185e <_Z15tryConnectCloudv+0x6e>
            spark_process();
 80a193a:	f004 f901 	bl	80a5b40 <spark_process>
 80a193e:	e783      	b.n	80a1848 <_Z15tryConnectCloudv+0x58>
          System.enableUpdates();
          Log.info("All setup, connected and ready to dance. Hazar");
        }
        else
        {
          Log.info("should be connected to cloud... ");
 80a1940:	491a      	ldr	r1, [pc, #104]	; (80a19ac <_Z15tryConnectCloudv+0x1bc>)
 80a1942:	480e      	ldr	r0, [pc, #56]	; (80a197c <_Z15tryConnectCloudv+0x18c>)
 80a1944:	f7fe ff34 	bl	80a07b0 <_ZNK5spark6Logger4infoEPKcz>
 80a1948:	f004 f902 	bl	80a5b50 <spark_cloud_flag_connect>
 80a194c:	e7bf      	b.n	80a18ce <_Z15tryConnectCloudv+0xde>
          Particle.connect();
        }
      }
      else
      {
        Log.info("WiFi connection timed out, will try and connect...");
 80a194e:	491a      	ldr	r1, [pc, #104]	; (80a19b8 <_Z15tryConnectCloudv+0x1c8>)
 80a1950:	480a      	ldr	r0, [pc, #40]	; (80a197c <_Z15tryConnectCloudv+0x18c>)
 80a1952:	f7fe ff2d 	bl	80a07b0 <_ZNK5spark6Logger4infoEPKcz>
        wiFiConnectionAttempts++;
 80a1956:	4a11      	ldr	r2, [pc, #68]	; (80a199c <_Z15tryConnectCloudv+0x1ac>)
 80a1958:	6813      	ldr	r3, [r2, #0]
 80a195a:	3301      	adds	r3, #1
 80a195c:	6013      	str	r3, [r2, #0]
        tryConnectWifi();
 80a195e:	f7ff ff0f 	bl	80a1780 <_Z14tryConnectWifiv>
 80a1962:	e7b4      	b.n	80a18ce <_Z15tryConnectCloudv+0xde>
    Log.info("Connecting to the cloud... ");
    Particle.connect();
    Log.info("should be connected to cloud... ");
  }
#endif
}
 80a1964:	b003      	add	sp, #12
 80a1966:	e8bd 83f0 	ldmia.w	sp!, {r4, r5, r6, r7, r8, r9, pc}
 80a196a:	bf00      	nop
 80a196c:	20000324 	.word	0x20000324
 80a1970:	200004aa 	.word	0x200004aa
 80a1974:	20000f34 	.word	0x20000f34
 80a1978:	080ac9b2 	.word	0x080ac9b2
 80a197c:	20000e94 	.word	0x20000e94
 80a1980:	080ac9c1 	.word	0x080ac9c1
 80a1984:	20000320 	.word	0x20000320
 80a1988:	080ac9d5 	.word	0x080ac9d5
 80a198c:	20000499 	.word	0x20000499
 80a1990:	20000478 	.word	0x20000478
 80a1994:	20000498 	.word	0x20000498
 80a1998:	080aca02 	.word	0x080aca02
 80a199c:	200004a0 	.word	0x200004a0
 80a19a0:	080aca1d 	.word	0x080aca1d
 80a19a4:	080acaa0 	.word	0x080acaa0
 80a19a8:	080acb0c 	.word	0x080acb0c
 80a19ac:	080aca4c 	.word	0x080aca4c
 80a19b0:	080acb28 	.word	0x080acb28
 80a19b4:	080acade 	.word	0x080acade
 80a19b8:	080aca6d 	.word	0x080aca6d

080a19bc <_ZNSt14__shared_countILN9__gnu_cxx12_Lock_policyE0EED1Ev>:
      explicit __shared_count(const __weak_count<_Lp>& __r);

      // Does not throw if __r._M_get_use_count() == 0, caller must check.
      explicit __shared_count(const __weak_count<_Lp>& __r, std::nothrow_t);

      ~__shared_count() noexcept
 80a19bc:	b538      	push	{r3, r4, r5, lr}
      {
	if (_M_pi != nullptr)
 80a19be:	6804      	ldr	r4, [r0, #0]
      explicit __shared_count(const __weak_count<_Lp>& __r);

      // Does not throw if __r._M_get_use_count() == 0, caller must check.
      explicit __shared_count(const __weak_count<_Lp>& __r, std::nothrow_t);

      ~__shared_count() noexcept
 80a19c0:	4605      	mov	r5, r0
      {
	if (_M_pi != nullptr)
 80a19c2:	b17c      	cbz	r4, 80a19e4 <_ZNSt14__shared_countILN9__gnu_cxx12_Lock_policyE0EED1Ev+0x28>

  template<>
    inline void
    _Sp_counted_base<_S_single>::_M_release() noexcept
    {
      if (--_M_use_count == 0)
 80a19c4:	6863      	ldr	r3, [r4, #4]
 80a19c6:	3b01      	subs	r3, #1
 80a19c8:	6063      	str	r3, [r4, #4]
 80a19ca:	b95b      	cbnz	r3, 80a19e4 <_ZNSt14__shared_countILN9__gnu_cxx12_Lock_policyE0EED1Ev+0x28>
        {
          _M_dispose();
 80a19cc:	6823      	ldr	r3, [r4, #0]
 80a19ce:	4620      	mov	r0, r4
 80a19d0:	689b      	ldr	r3, [r3, #8]
 80a19d2:	4798      	blx	r3
          if (--_M_weak_count == 0)
 80a19d4:	68a3      	ldr	r3, [r4, #8]
 80a19d6:	3b01      	subs	r3, #1
 80a19d8:	60a3      	str	r3, [r4, #8]
 80a19da:	b91b      	cbnz	r3, 80a19e4 <_ZNSt14__shared_countILN9__gnu_cxx12_Lock_policyE0EED1Ev+0x28>
            _M_destroy();
 80a19dc:	6823      	ldr	r3, [r4, #0]
 80a19de:	4620      	mov	r0, r4
 80a19e0:	68db      	ldr	r3, [r3, #12]
 80a19e2:	4798      	blx	r3

      ~__shared_count() noexcept
      {
	if (_M_pi != nullptr)
	  _M_pi->_M_release();
      }
 80a19e4:	4628      	mov	r0, r5
 80a19e6:	bd38      	pop	{r3, r4, r5, pc}

080a19e8 <_Z15PublishPIR1Textv>:
//////////////////////////////////////////////////////////////
//            SENSOR FUNCTIONS
//////////////////////////////////////////////////////////////

void PublishPIR1Text()
{
 80a19e8:	e92d 43f0 	stmdb	sp!, {r4, r5, r6, r7, r8, r9, lr}
  size_t starti = 0;
  uint8_t nPerLoop = 59;
  uint8_t nLoops;
  if (LoopedPIR1)
 80a19ec:	4e84      	ldr	r6, [pc, #528]	; (80a1c00 <_Z15PublishPIR1Textv+0x218>)
//////////////////////////////////////////////////////////////
//            SENSOR FUNCTIONS
//////////////////////////////////////////////////////////////

void PublishPIR1Text()
{
 80a19ee:	b08f      	sub	sp, #60	; 0x3c
  size_t starti = 0;
  uint8_t nPerLoop = 59;
  uint8_t nLoops;
  if (LoopedPIR1)
 80a19f0:	f896 3324 	ldrb.w	r3, [r6, #804]	; 0x324
 80a19f4:	b933      	cbnz	r3, 80a1a04 <_Z15PublishPIR1Textv+0x1c>
  {
    nLoops = 4;
  }
  else
  {
    nLoops = (nPIR1 + 1) / nPerLoop;
 80a19f6:	7874      	ldrb	r4, [r6, #1]
 80a19f8:	233b      	movs	r3, #59	; 0x3b
 80a19fa:	3401      	adds	r4, #1
 80a19fc:	fb94 f4f3 	sdiv	r4, r4, r3
 80a1a00:	b2e4      	uxtb	r4, r4
 80a1a02:	e000      	b.n	80a1a06 <_Z15PublishPIR1Textv+0x1e>
  size_t starti = 0;
  uint8_t nPerLoop = 59;
  uint8_t nLoops;
  if (LoopedPIR1)
  {
    nLoops = 4;
 80a1a04:	2404      	movs	r4, #4
  {
    String message = "";
    message.concat(String("{ \"P1\": \""));
    for (size_t i = starti; i < starti + nPerLoop; i++)
    {
      message.concat(String(PIR1[i], 4) + "_");
 80a1a06:	f8df 9220 	ldr.w	r9, [pc, #544]	; 80a1c28 <_Z15PublishPIR1Textv+0x240>
  }
  else
  {
    nLoops = (nPIR1 + 1) / nPerLoop;
  }
  for (size_t j = 0; j < nLoops; j++)
 80a1a0a:	f04f 0800 	mov.w	r8, #0
 80a1a0e:	273b      	movs	r7, #59	; 0x3b
 80a1a10:	45a0      	cmp	r8, r4
 80a1a12:	fb07 f508 	mul.w	r5, r7, r8
 80a1a16:	d26e      	bcs.n	80a1af6 <_Z15PublishPIR1Textv+0x10e>
  {
    String message = "";
 80a1a18:	497a      	ldr	r1, [pc, #488]	; (80a1c04 <_Z15PublishPIR1Textv+0x21c>)
 80a1a1a:	a802      	add	r0, sp, #8
 80a1a1c:	f004 fb31 	bl	80a6082 <_ZN6StringC1EPK19__FlashStringHelper>
    message.concat(String("{ \"P1\": \""));
 80a1a20:	4979      	ldr	r1, [pc, #484]	; (80a1c08 <_Z15PublishPIR1Textv+0x220>)
 80a1a22:	a80a      	add	r0, sp, #40	; 0x28
 80a1a24:	f004 fb2d 	bl	80a6082 <_ZN6StringC1EPK19__FlashStringHelper>
 80a1a28:	a90a      	add	r1, sp, #40	; 0x28
 80a1a2a:	a802      	add	r0, sp, #8
 80a1a2c:	f004 fc1c 	bl	80a6268 <_ZN6String6concatERKS_>
 80a1a30:	a80a      	add	r0, sp, #40	; 0x28
 80a1a32:	f004 fadf 	bl	80a5ff4 <_ZN6StringD1Ev>
 80a1a36:	f108 0801 	add.w	r8, r8, #1
 80a1a3a:	19ef      	adds	r7, r5, r7
    for (size_t i = starti; i < starti + nPerLoop; i++)
 80a1a3c:	42bd      	cmp	r5, r7
 80a1a3e:	d219      	bcs.n	80a1a74 <_Z15PublishPIR1Textv+0x8c>
    {
      message.concat(String(PIR1[i], 4) + "_");
 80a1a40:	2204      	movs	r2, #4
 80a1a42:	f859 1025 	ldr.w	r1, [r9, r5, lsl #2]
 80a1a46:	a806      	add	r0, sp, #24
 80a1a48:	f004 fbca 	bl	80a61e0 <_ZN6StringC1Efi>
{
public:
	StringSumHelper(const String &s) : String(s) {}
 80a1a4c:	a906      	add	r1, sp, #24
 80a1a4e:	a80a      	add	r0, sp, #40	; 0x28
 80a1a50:	f004 fb56 	bl	80a6100 <_ZN6StringC1ERKS_>
 80a1a54:	496d      	ldr	r1, [pc, #436]	; (80a1c0c <_Z15PublishPIR1Textv+0x224>)
 80a1a56:	a80a      	add	r0, sp, #40	; 0x28
 80a1a58:	f004 fc27 	bl	80a62aa <_ZplRK15StringSumHelperPKc>
 80a1a5c:	4601      	mov	r1, r0
 80a1a5e:	a802      	add	r0, sp, #8
 80a1a60:	f004 fc02 	bl	80a6268 <_ZN6String6concatERKS_>

        friend class StringPrintableHelper;

};

class StringSumHelper : public String
 80a1a64:	a80a      	add	r0, sp, #40	; 0x28
 80a1a66:	f004 fac5 	bl	80a5ff4 <_ZN6StringD1Ev>
 80a1a6a:	a806      	add	r0, sp, #24
 80a1a6c:	f004 fac2 	bl	80a5ff4 <_ZN6StringD1Ev>
  }
  for (size_t j = 0; j < nLoops; j++)
  {
    String message = "";
    message.concat(String("{ \"P1\": \""));
    for (size_t i = starti; i < starti + nPerLoop; i++)
 80a1a70:	3501      	adds	r5, #1
 80a1a72:	e7e3      	b.n	80a1a3c <_Z15PublishPIR1Textv+0x54>
{
public:
	StringSumHelper(const String &s) : String(s) {}
	StringSumHelper(const char *p) : String(p) {}
 80a1a74:	4966      	ldr	r1, [pc, #408]	; (80a1c10 <_Z15PublishPIR1Textv+0x228>)
 80a1a76:	a80a      	add	r0, sp, #40	; 0x28
 80a1a78:	f004 fb03 	bl	80a6082 <_ZN6StringC1EPK19__FlashStringHelper>
    {
      message.concat(String(PIR1[i], 4) + "_");
    }
    message.concat("\", \"Dv\": \"" + String(deviceNameRet) + "\" }");
 80a1a7c:	4965      	ldr	r1, [pc, #404]	; (80a1c14 <_Z15PublishPIR1Textv+0x22c>)
 80a1a7e:	a806      	add	r0, sp, #24
 80a1a80:	f004 faff 	bl	80a6082 <_ZN6StringC1EPK19__FlashStringHelper>
 80a1a84:	a906      	add	r1, sp, #24
 80a1a86:	a80a      	add	r0, sp, #40	; 0x28
 80a1a88:	f004 fc03 	bl	80a6292 <_ZplRK15StringSumHelperRK6String>
 80a1a8c:	4962      	ldr	r1, [pc, #392]	; (80a1c18 <_Z15PublishPIR1Textv+0x230>)
 80a1a8e:	f004 fc0c 	bl	80a62aa <_ZplRK15StringSumHelperPKc>
 80a1a92:	4601      	mov	r1, r0
 80a1a94:	a802      	add	r0, sp, #8
 80a1a96:	f004 fbe7 	bl	80a6268 <_ZN6String6concatERKS_>
 80a1a9a:	a806      	add	r0, sp, #24
 80a1a9c:	f004 faaa 	bl	80a5ff4 <_ZN6StringD1Ev>

        friend class StringPrintableHelper;

};

class StringSumHelper : public String
 80a1aa0:	a80a      	add	r0, sp, #40	; 0x28
 80a1aa2:	f004 faa7 	bl	80a5ff4 <_ZN6StringD1Ev>
 80a1aa6:	4b5d      	ldr	r3, [pc, #372]	; (80a1c1c <_Z15PublishPIR1Textv+0x234>)
    Particle.publish(WebHookName, String(message), 60, PUBLIC); // WebHook to Google Sheets
 80a1aa8:	a902      	add	r1, sp, #8
 80a1aaa:	a80a      	add	r0, sp, #40	; 0x28
 80a1aac:	681d      	ldr	r5, [r3, #0]
 80a1aae:	f004 fb27 	bl	80a6100 <_ZN6StringC1ERKS_>
 80a1ab2:	4b5b      	ldr	r3, [pc, #364]	; (80a1c20 <_Z15PublishPIR1Textv+0x238>)
        return publish(eventName, eventData, 60, flags1, flags2);
    }

    inline particle::Future<bool> publish(const char *eventName, const char *eventData, int ttl, PublishFlags flags1, PublishFlags flags2 = PublishFlags())
    {
        return publish_event(eventName, eventData, ttl, flags1 | flags2);
 80a1ab4:	9a0a      	ldr	r2, [sp, #40]	; 0x28
 80a1ab6:	781b      	ldrb	r3, [r3, #0]
 80a1ab8:	4629      	mov	r1, r5
 80a1aba:	f88d 3000 	strb.w	r3, [sp]
 80a1abe:	a806      	add	r0, sp, #24
 80a1ac0:	233c      	movs	r3, #60	; 0x3c
 80a1ac2:	f006 f873 	bl	80a7bac <_ZN10CloudClass13publish_eventEPKcS1_iN8particle5FlagsI15PublishFlagTypehEE>
	: _M_ptr(__p), _M_refcount(__r._M_refcount) // never throws
	{ }

      __shared_ptr(const __shared_ptr&) noexcept = default;
      __shared_ptr& operator=(const __shared_ptr&) noexcept = default;
      ~__shared_ptr() = default;
 80a1ac6:	a807      	add	r0, sp, #28
 80a1ac8:	f7ff ff78 	bl	80a19bc <_ZNSt14__shared_countILN9__gnu_cxx12_Lock_policyE0EED1Ev>
 80a1acc:	a80a      	add	r0, sp, #40	; 0x28
 80a1ace:	f004 fa91 	bl	80a5ff4 <_ZN6StringD1Ev>

    Serial.println("Sent to the cloud... ");
 80a1ad2:	f006 fa9d 	bl	80a8010 <_Z16_fetch_usbserialv>
 80a1ad6:	4953      	ldr	r1, [pc, #332]	; (80a1c24 <_Z15PublishPIR1Textv+0x23c>)
 80a1ad8:	f004 fc95 	bl	80a6406 <_ZN5Print7printlnEPKc>
    Serial.println(message);
 80a1adc:	f006 fa98 	bl	80a8010 <_Z16_fetch_usbserialv>
 80a1ae0:	9902      	ldr	r1, [sp, #8]
 80a1ae2:	f004 fc90 	bl	80a6406 <_ZN5Print7printlnEPKc>
    delay(1000);
 80a1ae6:	f44f 707a 	mov.w	r0, #1000	; 0x3e8
 80a1aea:	f005 fe75 	bl	80a77d8 <delay>
  {
    nLoops = (nPIR1 + 1) / nPerLoop;
  }
  for (size_t j = 0; j < nLoops; j++)
  {
    String message = "";
 80a1aee:	a802      	add	r0, sp, #8
 80a1af0:	f004 fa80 	bl	80a5ff4 <_ZN6StringD1Ev>
  }
  else
  {
    nLoops = (nPIR1 + 1) / nPerLoop;
  }
  for (size_t j = 0; j < nLoops; j++)
 80a1af4:	e78b      	b.n	80a1a0e <_Z15PublishPIR1Textv+0x26>
    Serial.println("Sent to the cloud... ");
    Serial.println(message);
    delay(1000);
    starti += nPerLoop;
  }
  if ((nPIR1 + 1) % nPerLoop > 0)
 80a1af6:	7873      	ldrb	r3, [r6, #1]
 80a1af8:	437c      	muls	r4, r7
 80a1afa:	3301      	adds	r3, #1
 80a1afc:	fb93 f2f7 	sdiv	r2, r3, r7
 80a1b00:	fb07 3312 	mls	r3, r7, r2, r3
 80a1b04:	2b00      	cmp	r3, #0
 80a1b06:	d074      	beq.n	80a1bf2 <_Z15PublishPIR1Textv+0x20a>
  {
    String message = "";
 80a1b08:	493e      	ldr	r1, [pc, #248]	; (80a1c04 <_Z15PublishPIR1Textv+0x21c>)
 80a1b0a:	a802      	add	r0, sp, #8
 80a1b0c:	f004 fab9 	bl	80a6082 <_ZN6StringC1EPK19__FlashStringHelper>
    message.concat(String("{ \"P1\": \""));
 80a1b10:	493d      	ldr	r1, [pc, #244]	; (80a1c08 <_Z15PublishPIR1Textv+0x220>)
 80a1b12:	a80a      	add	r0, sp, #40	; 0x28
 80a1b14:	f004 fab5 	bl	80a6082 <_ZN6StringC1EPK19__FlashStringHelper>
 80a1b18:	a90a      	add	r1, sp, #40	; 0x28
 80a1b1a:	a802      	add	r0, sp, #8
 80a1b1c:	f004 fba4 	bl	80a6268 <_ZN6String6concatERKS_>
 80a1b20:	a80a      	add	r0, sp, #40	; 0x28
 80a1b22:	f004 fa67 	bl	80a5ff4 <_ZN6StringD1Ev>
 80a1b26:	4625      	mov	r5, r4
    for (size_t i = starti; i < starti + (nPIR1 + 1) % nPerLoop; i++)
    {
      message.concat(String(PIR1[i], 4) + "_");
 80a1b28:	f8df 80fc 	ldr.w	r8, [pc, #252]	; 80a1c28 <_Z15PublishPIR1Textv+0x240>
  }
  if ((nPIR1 + 1) % nPerLoop > 0)
  {
    String message = "";
    message.concat(String("{ \"P1\": \""));
    for (size_t i = starti; i < starti + (nPIR1 + 1) % nPerLoop; i++)
 80a1b2c:	7873      	ldrb	r3, [r6, #1]
 80a1b2e:	3301      	adds	r3, #1
 80a1b30:	fb93 f2f7 	sdiv	r2, r3, r7
 80a1b34:	fb07 3312 	mls	r3, r7, r2, r3
 80a1b38:	4423      	add	r3, r4
 80a1b3a:	429d      	cmp	r5, r3
 80a1b3c:	d219      	bcs.n	80a1b72 <_Z15PublishPIR1Textv+0x18a>
    {
      message.concat(String(PIR1[i], 4) + "_");
 80a1b3e:	2204      	movs	r2, #4
 80a1b40:	f858 1025 	ldr.w	r1, [r8, r5, lsl #2]
 80a1b44:	a806      	add	r0, sp, #24
 80a1b46:	f004 fb4b 	bl	80a61e0 <_ZN6StringC1Efi>
{
public:
	StringSumHelper(const String &s) : String(s) {}
 80a1b4a:	a906      	add	r1, sp, #24
 80a1b4c:	a80a      	add	r0, sp, #40	; 0x28
 80a1b4e:	f004 fad7 	bl	80a6100 <_ZN6StringC1ERKS_>
 80a1b52:	492e      	ldr	r1, [pc, #184]	; (80a1c0c <_Z15PublishPIR1Textv+0x224>)
 80a1b54:	a80a      	add	r0, sp, #40	; 0x28
 80a1b56:	f004 fba8 	bl	80a62aa <_ZplRK15StringSumHelperPKc>
 80a1b5a:	4601      	mov	r1, r0
 80a1b5c:	a802      	add	r0, sp, #8
 80a1b5e:	f004 fb83 	bl	80a6268 <_ZN6String6concatERKS_>

        friend class StringPrintableHelper;

};

class StringSumHelper : public String
 80a1b62:	a80a      	add	r0, sp, #40	; 0x28
 80a1b64:	f004 fa46 	bl	80a5ff4 <_ZN6StringD1Ev>
 80a1b68:	a806      	add	r0, sp, #24
 80a1b6a:	f004 fa43 	bl	80a5ff4 <_ZN6StringD1Ev>
  }
  if ((nPIR1 + 1) % nPerLoop > 0)
  {
    String message = "";
    message.concat(String("{ \"P1\": \""));
    for (size_t i = starti; i < starti + (nPIR1 + 1) % nPerLoop; i++)
 80a1b6e:	3501      	adds	r5, #1
 80a1b70:	e7dc      	b.n	80a1b2c <_Z15PublishPIR1Textv+0x144>
{
public:
	StringSumHelper(const String &s) : String(s) {}
	StringSumHelper(const char *p) : String(p) {}
 80a1b72:	4927      	ldr	r1, [pc, #156]	; (80a1c10 <_Z15PublishPIR1Textv+0x228>)
 80a1b74:	a80a      	add	r0, sp, #40	; 0x28
 80a1b76:	f004 fa84 	bl	80a6082 <_ZN6StringC1EPK19__FlashStringHelper>
    {
      message.concat(String(PIR1[i], 4) + "_");
    }
    message.concat("\", \"Dv\": \"" + String(deviceNameRet) + "\" }");
 80a1b7a:	4926      	ldr	r1, [pc, #152]	; (80a1c14 <_Z15PublishPIR1Textv+0x22c>)
 80a1b7c:	a806      	add	r0, sp, #24
 80a1b7e:	f004 fa80 	bl	80a6082 <_ZN6StringC1EPK19__FlashStringHelper>
 80a1b82:	a906      	add	r1, sp, #24
 80a1b84:	a80a      	add	r0, sp, #40	; 0x28
 80a1b86:	f004 fb84 	bl	80a6292 <_ZplRK15StringSumHelperRK6String>
 80a1b8a:	4923      	ldr	r1, [pc, #140]	; (80a1c18 <_Z15PublishPIR1Textv+0x230>)
 80a1b8c:	f004 fb8d 	bl	80a62aa <_ZplRK15StringSumHelperPKc>
 80a1b90:	4601      	mov	r1, r0
 80a1b92:	a802      	add	r0, sp, #8
 80a1b94:	f004 fb68 	bl	80a6268 <_ZN6String6concatERKS_>
 80a1b98:	a806      	add	r0, sp, #24
 80a1b9a:	f004 fa2b 	bl	80a5ff4 <_ZN6StringD1Ev>

        friend class StringPrintableHelper;

};

class StringSumHelper : public String
 80a1b9e:	a80a      	add	r0, sp, #40	; 0x28
 80a1ba0:	f004 fa28 	bl	80a5ff4 <_ZN6StringD1Ev>
 80a1ba4:	4b1d      	ldr	r3, [pc, #116]	; (80a1c1c <_Z15PublishPIR1Textv+0x234>)
    Particle.publish(WebHookName, String(message), 60, PUBLIC); // WebHook to Google Sheets
 80a1ba6:	a902      	add	r1, sp, #8
 80a1ba8:	a80a      	add	r0, sp, #40	; 0x28
 80a1baa:	681c      	ldr	r4, [r3, #0]
 80a1bac:	f004 faa8 	bl	80a6100 <_ZN6StringC1ERKS_>
 80a1bb0:	4b1b      	ldr	r3, [pc, #108]	; (80a1c20 <_Z15PublishPIR1Textv+0x238>)
 80a1bb2:	9a0a      	ldr	r2, [sp, #40]	; 0x28
 80a1bb4:	781b      	ldrb	r3, [r3, #0]
 80a1bb6:	4621      	mov	r1, r4
 80a1bb8:	f88d 3000 	strb.w	r3, [sp]
 80a1bbc:	a806      	add	r0, sp, #24
 80a1bbe:	233c      	movs	r3, #60	; 0x3c
 80a1bc0:	f005 fff4 	bl	80a7bac <_ZN10CloudClass13publish_eventEPKcS1_iN8particle5FlagsI15PublishFlagTypehEE>
 80a1bc4:	a807      	add	r0, sp, #28
 80a1bc6:	f7ff fef9 	bl	80a19bc <_ZNSt14__shared_countILN9__gnu_cxx12_Lock_policyE0EED1Ev>
 80a1bca:	a80a      	add	r0, sp, #40	; 0x28
 80a1bcc:	f004 fa12 	bl	80a5ff4 <_ZN6StringD1Ev>
    Serial.println("Sent to the cloud... ");
 80a1bd0:	f006 fa1e 	bl	80a8010 <_Z16_fetch_usbserialv>
 80a1bd4:	4913      	ldr	r1, [pc, #76]	; (80a1c24 <_Z15PublishPIR1Textv+0x23c>)
 80a1bd6:	f004 fc16 	bl	80a6406 <_ZN5Print7printlnEPKc>
    Serial.println(message);
 80a1bda:	f006 fa19 	bl	80a8010 <_Z16_fetch_usbserialv>
 80a1bde:	9902      	ldr	r1, [sp, #8]
 80a1be0:	f004 fc11 	bl	80a6406 <_ZN5Print7printlnEPKc>
    delay(1000);
 80a1be4:	f44f 707a 	mov.w	r0, #1000	; 0x3e8
 80a1be8:	f005 fdf6 	bl	80a77d8 <delay>
    delay(1000);
    starti += nPerLoop;
  }
  if ((nPIR1 + 1) % nPerLoop > 0)
  {
    String message = "";
 80a1bec:	a802      	add	r0, sp, #8
 80a1bee:	f004 fa01 	bl	80a5ff4 <_ZN6StringD1Ev>
    Particle.publish(WebHookName, String(message), 60, PUBLIC); // WebHook to Google Sheets
    Serial.println("Sent to the cloud... ");
    Serial.println(message);
    delay(1000);
  }
  nPIR1 = 0;
 80a1bf2:	2300      	movs	r3, #0
 80a1bf4:	7073      	strb	r3, [r6, #1]
  LoopedPIR1 = false;
 80a1bf6:	f886 3324 	strb.w	r3, [r6, #804]	; 0x324
}
 80a1bfa:	b00f      	add	sp, #60	; 0x3c
 80a1bfc:	e8bd 83f0 	ldmia.w	sp!, {r4, r5, r6, r7, r8, r9, pc}
 80a1c00:	40024000 	.word	0x40024000
 80a1c04:	080ac77c 	.word	0x080ac77c
 80a1c08:	080acb63 	.word	0x080acb63
 80a1c0c:	080acb6d 	.word	0x080acb6d
 80a1c10:	080acb6f 	.word	0x080acb6f
 80a1c14:	20000300 	.word	0x20000300
 80a1c18:	080acb7a 	.word	0x080acb7a
 80a1c1c:	20000458 	.word	0x20000458
 80a1c20:	2000049d 	.word	0x2000049d
 80a1c24:	080acb7e 	.word	0x080acb7e
 80a1c28:	40024004 	.word	0x40024004

080a1c2c <_Z15PublishPIR2Textv>:

void PublishPIR2Text()
{
 80a1c2c:	e92d 43f0 	stmdb	sp!, {r4, r5, r6, r7, r8, r9, lr}
  size_t starti = 0;
  uint8_t nPerLoop = 59;
  uint8_t nLoops;
  if (LoopedPIR2)
 80a1c30:	4e86      	ldr	r6, [pc, #536]	; (80a1e4c <_Z15PublishPIR2Textv+0x220>)
  nPIR1 = 0;
  LoopedPIR1 = false;
}

void PublishPIR2Text()
{
 80a1c32:	b08f      	sub	sp, #60	; 0x3c
  size_t starti = 0;
  uint8_t nPerLoop = 59;
  uint8_t nLoops;
  if (LoopedPIR2)
 80a1c34:	f896 3648 	ldrb.w	r3, [r6, #1608]	; 0x648
 80a1c38:	b93b      	cbnz	r3, 80a1c4a <_Z15PublishPIR2Textv+0x1e>
  {
    nLoops = 4;
  }
  else
  {
    nLoops = (nPIR2 + 1) / nPerLoop;
 80a1c3a:	f896 4325 	ldrb.w	r4, [r6, #805]	; 0x325
 80a1c3e:	233b      	movs	r3, #59	; 0x3b
 80a1c40:	3401      	adds	r4, #1
 80a1c42:	fb94 f4f3 	sdiv	r4, r4, r3
 80a1c46:	b2e4      	uxtb	r4, r4
 80a1c48:	e000      	b.n	80a1c4c <_Z15PublishPIR2Textv+0x20>
  size_t starti = 0;
  uint8_t nPerLoop = 59;
  uint8_t nLoops;
  if (LoopedPIR2)
  {
    nLoops = 4;
 80a1c4a:	2404      	movs	r4, #4
  {
    String message = "";
    message.concat(String("{ \"P2\": \""));
    for (size_t i = starti; i < starti + nPerLoop; i++)
    {
      message.concat(String(PIR2[i], 4) + "_");
 80a1c4c:	f8df 9224 	ldr.w	r9, [pc, #548]	; 80a1e74 <_Z15PublishPIR2Textv+0x248>
  }
  else
  {
    nLoops = (nPIR2 + 1) / nPerLoop;
  }
  for (size_t j = 0; j < nLoops; j++)
 80a1c50:	f04f 0800 	mov.w	r8, #0
 80a1c54:	273b      	movs	r7, #59	; 0x3b
 80a1c56:	45a0      	cmp	r8, r4
 80a1c58:	fb07 f508 	mul.w	r5, r7, r8
 80a1c5c:	d26e      	bcs.n	80a1d3c <_Z15PublishPIR2Textv+0x110>
  {
    String message = "";
 80a1c5e:	497c      	ldr	r1, [pc, #496]	; (80a1e50 <_Z15PublishPIR2Textv+0x224>)
 80a1c60:	a802      	add	r0, sp, #8
 80a1c62:	f004 fa0e 	bl	80a6082 <_ZN6StringC1EPK19__FlashStringHelper>
    message.concat(String("{ \"P2\": \""));
 80a1c66:	497b      	ldr	r1, [pc, #492]	; (80a1e54 <_Z15PublishPIR2Textv+0x228>)
 80a1c68:	a80a      	add	r0, sp, #40	; 0x28
 80a1c6a:	f004 fa0a 	bl	80a6082 <_ZN6StringC1EPK19__FlashStringHelper>
 80a1c6e:	a90a      	add	r1, sp, #40	; 0x28
 80a1c70:	a802      	add	r0, sp, #8
 80a1c72:	f004 faf9 	bl	80a6268 <_ZN6String6concatERKS_>
 80a1c76:	a80a      	add	r0, sp, #40	; 0x28
 80a1c78:	f004 f9bc 	bl	80a5ff4 <_ZN6StringD1Ev>
 80a1c7c:	f108 0801 	add.w	r8, r8, #1
 80a1c80:	19ef      	adds	r7, r5, r7
    for (size_t i = starti; i < starti + nPerLoop; i++)
 80a1c82:	42bd      	cmp	r5, r7
 80a1c84:	d219      	bcs.n	80a1cba <_Z15PublishPIR2Textv+0x8e>
    {
      message.concat(String(PIR2[i], 4) + "_");
 80a1c86:	2204      	movs	r2, #4
 80a1c88:	f859 1025 	ldr.w	r1, [r9, r5, lsl #2]
 80a1c8c:	a806      	add	r0, sp, #24
 80a1c8e:	f004 faa7 	bl	80a61e0 <_ZN6StringC1Efi>
{
public:
	StringSumHelper(const String &s) : String(s) {}
 80a1c92:	a906      	add	r1, sp, #24
 80a1c94:	a80a      	add	r0, sp, #40	; 0x28
 80a1c96:	f004 fa33 	bl	80a6100 <_ZN6StringC1ERKS_>
 80a1c9a:	496f      	ldr	r1, [pc, #444]	; (80a1e58 <_Z15PublishPIR2Textv+0x22c>)
 80a1c9c:	a80a      	add	r0, sp, #40	; 0x28
 80a1c9e:	f004 fb04 	bl	80a62aa <_ZplRK15StringSumHelperPKc>
 80a1ca2:	4601      	mov	r1, r0
 80a1ca4:	a802      	add	r0, sp, #8
 80a1ca6:	f004 fadf 	bl	80a6268 <_ZN6String6concatERKS_>

        friend class StringPrintableHelper;

};

class StringSumHelper : public String
 80a1caa:	a80a      	add	r0, sp, #40	; 0x28
 80a1cac:	f004 f9a2 	bl	80a5ff4 <_ZN6StringD1Ev>
 80a1cb0:	a806      	add	r0, sp, #24
 80a1cb2:	f004 f99f 	bl	80a5ff4 <_ZN6StringD1Ev>
  }
  for (size_t j = 0; j < nLoops; j++)
  {
    String message = "";
    message.concat(String("{ \"P2\": \""));
    for (size_t i = starti; i < starti + nPerLoop; i++)
 80a1cb6:	3501      	adds	r5, #1
 80a1cb8:	e7e3      	b.n	80a1c82 <_Z15PublishPIR2Textv+0x56>
{
public:
	StringSumHelper(const String &s) : String(s) {}
	StringSumHelper(const char *p) : String(p) {}
 80a1cba:	4968      	ldr	r1, [pc, #416]	; (80a1e5c <_Z15PublishPIR2Textv+0x230>)
 80a1cbc:	a80a      	add	r0, sp, #40	; 0x28
 80a1cbe:	f004 f9e0 	bl	80a6082 <_ZN6StringC1EPK19__FlashStringHelper>
    {
      message.concat(String(PIR2[i], 4) + "_");
    }
    message.concat("\", \"Dv\": \"" + String(deviceNameRet) + "\" }");
 80a1cc2:	4967      	ldr	r1, [pc, #412]	; (80a1e60 <_Z15PublishPIR2Textv+0x234>)
 80a1cc4:	a806      	add	r0, sp, #24
 80a1cc6:	f004 f9dc 	bl	80a6082 <_ZN6StringC1EPK19__FlashStringHelper>
 80a1cca:	a906      	add	r1, sp, #24
 80a1ccc:	a80a      	add	r0, sp, #40	; 0x28
 80a1cce:	f004 fae0 	bl	80a6292 <_ZplRK15StringSumHelperRK6String>
 80a1cd2:	4964      	ldr	r1, [pc, #400]	; (80a1e64 <_Z15PublishPIR2Textv+0x238>)
 80a1cd4:	f004 fae9 	bl	80a62aa <_ZplRK15StringSumHelperPKc>
 80a1cd8:	4601      	mov	r1, r0
