:02000004080AE8
:1000000000000A0870FA0A08000006000600050150
:080010000402D8070000000003
:04001800E4D30A081B
:1000200009480A4908B5884205D0094A824202D0E7
:10003000121A0CF0B3FC0748074A0021121A0CF000
:10004000D5FC064808BD00BF0000002014F90A08CE
:100050003401002038010020B50D0020B50D00202E
:1000600070B508F093FC0025054E064CA41BA408AF
:10007000A54200D170BD56F8043B98470135F7E71B
:10008000E0EC0A0804ED0A0802F0B0BD08B502F081
:100090009FFBBDE8084008F03BBC06F033BD06F00E
:1000A00031BD06F037BD000000210C2008B5024A22
:1000B00006F014FCFEE700BF05650A080078B0FAF8
:1000C00080F04009704701230370704710B500F5B8
:1000D0006E7003F04FFF044620B908F0EBFF0249B1
:1000E00007F0B5F9204610BDF8D30A082DE9F04F06
:1000F000D0F8CC390446092BC2BF0023C0F8CC3954
:10010000012300F6F809C8BF80F8D0398FB08C49B8
:10011000484607F032F88B4904F6081007F02DF82E
:10012000894904F6181007F028F8884904F62810C1
:1001300007F023F8864904F6381007F01EF88549C1
:1001400004F6481007F019F8834904F6581007F030
:1001500014F800270725D4E904239B1AB7EBA30F53
:1001600009D37E4E0C2D24DC09EB0510314607F037
:1001700004F80135F6E7AA460026BB0004EB051893
:10018000226906EB0A05D0580193426908F1100B69
:1001900096420CDA02681269904700EB061108F6E5
:1001A000F80006F0C8FFD846019B0136E8E70137A2
:1001B000D1E7682608F01EFBD4F8CC394FF00008D0
:1001C00006FB034303F59D650BF006FAC5E9000144
:1001D00008F008FBD4F8CC3906FB034303F59E6511
:1001E0000BF0FAF9C5E9000108F0F0FAD4F8CC39BF
:1001F00006FB034303F59F650BF0EEF9C5E900012B
:1002000008F0C0FAD4F8CC3906FB034303F5A06527
:100210000BF0E2F9C5E9000108F0C0FAD4F8CC39D6
:1002200006FB034303F5A1650BF0D6F9C5E9000110
:1002300008F0C0FA0BF0D0F90022D4F8CC59484BA2
:1002400006FB054505F5A26605F5A365C6E90001AF
:10025000C5E900230D260725D4E904239B1AB8EB32
:10026000A30F25D252F828004FF0000903684FEA87
:1002700088075B689847236905EB090AD8594369E1
:10028000994511DA0368DB689847D4F8CC3900EB5C
:10029000C90006FB03A303C89D3304EBC303C3E9F2
:1002A000000109F10109E6E7554608F10108D3E725
:1002B0002B4600200D252B490C2B0AD8D4F8CC292D
:1002C00005FB02329D3204EBC202C2E90001013398
:1002D000F2E708F0EFFE2449054606A806F0F0FE16
:1002E0000A22D4F8CC1902A806F06AFF02A906A8CF
:1002F00006F0F9FF1D4907F002F8064606F064FD16
:100300000A2201460AA806F081FF0AA9304606F033
:10031000EAFF0168284607F09AF80AA806F086FE68
:1003200002A806F083FE06A806F080FED4F8CC39B9
:10033000092BDCBF0133C4F8CC390FB0BDE8F08F16
:1003400018D40A081BD40A081ED40A0821D40A08A3
:1003500024D40A0827D40A082AD40A082DD40A0863
:10036000000024400000F0BF30D40A0837D40A0847
:100370002DE9F84F6FF06043D0E900989346A8EB61
:100380000902B3EBA20F07468A464FEAA20402D144
:100390001E4809F036FC012C224638BF0122A41861
:1003A000A1EB09052FD23CB19C4228BF1C46A000FE
:1003B000FFF773FE064600E02646EE421CBFDBF860
:1003C00000307351002D04DD2A46494630460CF0BA
:1003D000F3FAA8EB0A080435B8F1000F354404DD40
:1003E0004246514628460CF0D9FA4544B9F1000F6F
:1003F00002D04846FFF755FE06EB8404C7E90065C6
:10040000BC60BDE8F88F1C46D1E700BF52D40A0893
:100410000A4610B5D0E90114A142034606D009B13D
:1004200012680A605A6804325A6010BDFFF7A0FFD4
:10043000FBE700002DE9F0410446B0B000F1600791
:10044000684603F065F901A904F1640006F08DFE29
:10045000059B04F17C0563679DF8183007AE84F8AE
:1004600078300FCE0FC50FCE0FC50FCE0FC596E853
:100470000F0085E80F0004F1C00518AB04F1E0029D
:10048000F3E80201E5E802019542F9D120AE04F556
:10049000907831462846103506F067FEA84506F1EB
:1004A0001006F6D10025414B00932CAB5819103D96
:1004B00006F0BCFD15F1400FF7D13D4D01A80095A8
:1004C00006F0B4FD384603F01FF86946009700288F
:1004D00062D004F11000FFF79BFFD4F8C839626FB7
:1004E0001344C4F8C839642008F0B4F9684603F02E
:1004F00009FD01A904F56F7006F037FE059B04F5B0
:100500006E77C4F8CC339DF8183007AE84F8D0333A
:100510000DF12C0C04F57573324603CA6245186060
:100520005960164603F10803F6D1127810A91A7023
:10053000DDE90C2304F57E70C4E9FA23DDE90E231E
:10054000C4E9FC2306F011FE14A904F5816006F04D
:100550000CFE184B14A8009306F068FD10A806F0D6
:1005600065FD01A8009506F061FD384603F05AFCD0
:1005700069460097A8B104F11000FFF749FFD4F8CD
:10058000C839D4F8CC231344C4F8C839642008F01F
:1005900061F930B0BDE8F08104F11C00FFF738FFCD
:1005A000A1E704F11C00FFF733FFEFE770E20A0850
:1005B00074D40A0870E50A080022034B1A7001225D
:1005C000024B1A70704700BF3C0100203D01002023
:1005D0007047006A0368DB68184703681847012AF8
:1005E00003D0022A03D0002070470160FBE70B68AC
:1005F0000360F8E7012310B503748368044643B130
:10060000C0689847012300206374BDE8104006F0DD
:1006100001B800680028F5D083680BB909F0F4FA36
:10062000C368EEE707B5002201A81146019205F064
:10063000B9FF019803B05DF804FB000010B5044653
:10064000094B036007F078F9214607F091FB08F0A9
:1006500031FD08F021FD2046044B40F8043B07F033
:1006600075FA204610BD00BFA8DF0A0890DF0A080F
:1006700010B50446FFF7E2FF2046242109F0BBFA3B
:10068000204610BD10B50446006808B106F042FAD5
:10069000204610BD10B534220446002104300CF071
:1006A000A5F938232046236010BD0022406811467A
:1006B00006F090B900224068114606F09BB92DE97A
:1006C000F041804614460D4694B019B308460CF02C
:1006D000FEF9074604B320460CF0F9F90646382225
:1006E000002106A80CF082F94C23CDE90135032343
:1006F000ADF818300023D8F80400194601AACDE956
:100700000374059606F0A6F9B0FA80F0400914B01B
:10071000BDE8F0810F46DDE72646E0E710B58368C7
:10072000044613B1032201469847204610BD00003D
:1007300070B51B4B05461E780C4686B901221A700F
:10074000FFF770FF1E280AD10323A3714FF488130B
:100750002068A680A36010B106F0DCF92660B4F929
:10076000043022683BB93AB954F8063F28462B605A
:10077000A388AB8070BD22B19188012903D00429E0
:1007800006D0042205E09289A17123816281EBE702
:10079000022223814FF6FF73A2716381E4E700BF59
:1007A0003E01002008B505F0B5FE014B186008BDFC
:1007B000480D002070B51D46002386B00446049302
:1007C00022B1264B02920593254B04930023E3604C
:1007D000049B21603BB1022202A9201D9847059B82
:1007E0002361049BE36014201E4909F006FA30B12E
:1007F0000022C0E90022C0E9022202744274606152
:1008000090B1194B0922C0E902341849CDE900051D
:10081000174B043005F0CEFE30B963691B7CA3B9D9
:10082000012005F067FEF8E700236569636165B1A3
:100830002E6836B13046FFF771FF1021304609F0BF
:10084000DAF91421284609F0D6F9FFF7ABFF02A820
:10085000FFF764FF204606B070BD00BFDB050A0845
:10086000DF050A0821EB0A08019B0A089BD40A0845
:10087000F5050A080EB410B50023016820208DB0DC
:100880000FAA52F8044BCDE90403CDE900420392CC
:100890001E2004AA06F02AF80DB0BDE8104003B0EF
:1008A0007047000010B50446034B40F8043B06F0C7
:1008B000BDFB204610BD00BF74D40A08F8B504463D
:1008C00000F6D41006F0B2FB04F6C81504F6F806DC
:1008D000B54204D0103D284606F0A8FBF8E7D4F84E
:1008E000D80408B1FFF7DDFB5D4B04F59960C4F84F
:1008F000783406F09BFB04F58F6504F5976006F0ED
:1009000095FB2846FFF7CEFF564B04F58D60C4F8E3
:10091000183406F08BFB04F5836504F58B6006F054
:1009200085FB2846FFF7BEFF4F4B04F58160C4F8F6
:10093000B83306F07BFB04F56E7604F57E7006F0A6
:1009400075FB3046FFF7AEFF484B04F54E75C4F813
:10095000383304F55E77BE4204D0103E304606F0D0
:1009600065FBF8E72846FFF79DFF414B04F52E761F
:10097000C4F8B83204F53E77AF4204D0103D2846A3
:1009800006F054FBF8E73046FFF78CFF394B04F5CF
:100990002A70C4F8603206F049FB04F5187504F5B6
:1009A000267006F043FB2846FFF77CFF324B04F528
:1009B0000A75C4F8283204F5147006F037FB28468F
:1009C000FFF770FF2D4B04F50670C4F8B03106F048
:1009D0002DFB04F5027006F029FB04F5D87604F52A
:1009E000FC7006F023FB3046FFF75CFF244B04F558
:1009F0009075C4F8203104F5B877BE4204D0103E9B
:100A0000304606F013FBF8E72846FFF74BFF1D4B77
:100A100004F16006236604F1E007AF4204D0103D04
:100A2000284606F003FBF8E725463046FFF73AFF75
:100A3000154B04F1500045F8283F06F0F7FA284618
:100A4000FFF730FFE06908B1FFF72BFB206908B121
:100A5000FFF727FB204606F0E9FA2046F8BD00BF65
:100A600068E60A08D8E00A0870E50A0868E70A0894
:100A700050E30A0818E70A0874E10A0828E40A089B
:100A800068E80A0870E20A08C8E50A08F8B5002410
:100A90000F460546134B04701B78172243702146FE
:100AA00002300BF0A3FFBB686C83172BAC83AC77D1
:100AB00005F101060AD8BB68A34210D92146384681
:100AC00006F078FC013406F8010BF4E721463846BD
:100AD00006F070FC0134182C06F8010BF6D12846FC
:100AE000F8BD00BF13E00A0808B5012005F0DEFEDE
:100AF0000121084605F04EFD0121042005F04AFDC4
:100B0000BDE8084000220120114605F027BF000083
:100B100070B588B007F06EFE0446474904A806F099
:100B2000CFFA0A222146684606F04AFB694604A825
:100B300006F0D9FB01684148FFF79CFE684606F0C5
:100B400075FA04A806F072FA07F060FE06463C4902
:100B500004A806F0B5FA0A223146684606F043FBBF
:100B6000694604A806F0BFFB01683448FFF782FE1F
:100B7000684606F05BFA04A806F058FA40F2E473FF
:100B80009C424FDDA4F2E570801001300AF024FD94
:100B900025A3D3E900230AF089FD0BF037F8294B90
:100BA000A4F2E37403FB0404274D2849254404A858
:100BB00006F086FA0A222946684606F014FB6946C2
:100BC00004A806F090FB01681C48FFF753FE684636
:100BD00006F02CFA04A806F029FA701B0AF0FCFCB7
:100BE00013A3D3E900230AF08BFE0BF057F8044659
:100BF000174904A806F064FA06222146684606F062
:100C000019FB694604A806F06EFB01680B48FFF764
:100C100031FE684606F00AFA04A806F007FA2046F4
:100C200008B070BD0020BAE7000000000018F540D1
:100C3000000000000020AC40A2D40A08640C002090
:100C4000B4D40A088033E10180AD2A5CCBD40A0811
:100C5000EBD40A0838B500250F4B104910481D7019
:100C6000FFF708FEFFF754FF04460A2007F0F2FDE5
:100C70000C490B48FFF7FEFD0B4A537802EB83014A
:100C80000133DBB2C72B537088BF01234C6084BF94
:100C900082F82433557038BD04020020FDD40A08C0
:100CA000640C002007D50A08004002402DE9F04FEF
:100CB0007F4989B07F48FFF7DDFD68467E4906F031
:100CC000FFF97E4B7E4E1D78002D70D035460024F6
:100CD000DFF80C92DFF80CB2494604A806F03AFAA5
:100CE00004A9684606F041FA04A806F09FF900211D
:100CF000684606F05FFB01212870684606F05AFB43
:100D00004FF00003687059466846AB7006F037FB39
:100D1000DFF8D4816B4F78B307F04CFD0E223B68AF
:100D200002FB03434FF47A72424348F82320013414
:100D30000D2C09F1100905F10305CDD1FFF7E8FEEF
:100D400038233C68604903FB04880BF005F90BF07D
:100D5000C9FA0134C8F834003C60442386F82730CF
:100D6000682386F828300023684686F8293006F084
:100D70005DF909B0BDE8F08F4FF00E0A68203B68BE
:100D80000AFB034A514BD3F8CC194A1EE10000FB81
:100D900002110B4403F59D610022D1E900014C4B87
:100DA0000AF084FC0AF032FF48F82A00BFE7494BFA
:100DB0001B78002BD1D03746AA46DFF82491DFF804
:100DC00024B1494604A806F0C5F904A9684606F00E
:100DD000CCF904A806F02AF90021684606F0EAFAE0
:100DE00001213870684606F0E5FA5946787087F8B0
:100DF00002A0684606F0C3FA374C00283BD007F043
:100E0000D9FC0E2294F8E83B02FB03534FF47A72AC
:100E1000424304EB8303C3F8282301350D2D09F168
:100E2000100907F10307CCD10A2007F013FDFFF7E3
:100E30006FFE382394F8E85B234903FB05450BF06C
:100E40008BF80BF04FFAC5F85C030A2007F002FD9F
:100E500094F8E83B01220133DBB2272B83BF002348
:100E600084F8E83B012384F8E83B88BF84F8E93B39
:100E70001A4B1A7071E70E23682094F8E88B03FB75
:100E80000858124B04EB8808D3F8CC194A1EE90025
:100E900000FB02110B4403F59D610022D1E9000122
:100EA0000B4B0AF003FC0AF0B1FEC8F82803B4E7C4
:100EB0002CD50A08640C00202DD40A08F901002062
:100EC000700100202C02002000007A44380200202B
:100ED00000408F403002002000400240020200200B
:100EE000300B002027D40A089C01002010B5834B4A
:100EF0009CB093F8EA2B2AB993F8EB3B13B9012085
:100F00001CB010BD07F076FC40F2CF739842F6D1CA
:100F10007B49684606F0D4F807F058FC0A220146DF
:100F200004A806F04DF904A9684606F0DCF97549F5
:100F300006F0E5F9044607F055FC0A22014608A828
:100F400006F03EF9204608A906F0CDF96D4906F0F5
:100F5000D6F9044607F04EFC0A2201460CA806F01A
:100F60002FF920460CA906F0BEF9674906F0C7F92B
:100F7000044607F007FC0A22014610A806F020F9F3
:100F8000204610A906F0AFF9604906F0B8F904460A
:100F900007F004FC0A22014614A806F011F92046C5
:100FA00014A906F0A0F9594906F0A9F9044607F07A
:100FB00001FC0A22014618A806F002F918A92046E9
:100FC00006F091F901685248FFF754FC18A806F0A2
:100FD0002DF814A806F02AF810A806F027F80CA897
:100FE00006F024F808A806F021F804A806F01EF878
:100FF000684606F01BF847494548FFF73BFC05F0FB
:1010000051FD10B1002005F065FD3D49684606F030
:1010100057F807F0DBFB0A22014604A806F0D0F8D7
:1010200004A9684606F05FF9364906F068F90446F7
:1010300007F0D8FB0A22014608A806F0C1F82046AE
:1010400008A906F050F92F4906F059F9044607F0AF
:10105000D1FB0A2201460CA806F0B2F820460CA9E2
:1010600006F041F9284906F04AF9044607F08AFBE0
:101070000A22014610A806F0A3F8204610A906F09F
:1010800032F9224906F03BF9044607F087FB0A22B1
:10109000014614A806F094F8204614A906F023F996
:1010A0001A4906F02CF9044607F084FB0A2201468F
:1010B00018A806F085F818A9204606F014F901686A
:1010C0001348FFF7D7FB18A805F0B0FF14A805F0E8
:1010D000ADFF10A805F0AAFF0CA805F0A7FF08A80F
:1010E00005F0A4FF04A805F0A1FF684605F09EFFE7
:1010F000642007F0AFFB002002E700BF0040024081
:1011000040D50A082ED40A0821D60A0887DA0A0828
:10111000640C002047D50A0870B51B4B00211888C5
:101120001A4E08F073FC0A2007F094FB184D0121B9
:10113000308808F06BFC0A2007F08CFB154C01216D
:10114000288808F063FC0A2007F084FB012120882E
:1011500008F05CFC322007F07DFB0021308808F0AD
:1011600066FC322007F076FB0121288808F05FFC3E
:10117000322007F06FFB2088002108F058FCBDE802
:101180007040322007F066BB0400002048000020B9
:10119000400000201000002008B5054B01211888F0
:1011A00008F045FCBDE808404FF47A7007F052BBE8
:1011B0004800002010B501240D4B0E490E4883F85D
:1011C000EA4BFFF757FB0D4B2146188808F02FFC20
:1011D0000A2007F03FFB00224FF47A70084B1A7088
:1011E000084BBDE810401B68584307F033BB00BFF5
:1011F0000040024054D50A08640C00201000002072
:10120000300200203000002070B588B007F0BAFA34
:10121000044607F0C3FA064607F0CCFA2A4B2B4DDA
:1012200019683C2303FB046292FBF1F401FB1422D6
:10123000891A4B4326491B1A04A8C5F8EC3B05F054
:101240003FFF0A22D5F8EC1B684605F0B9FF694656
:1012500004A806F048F81F4906F051F801681E4836
:10126000FFF708FB684605F0E1FE04A805F0DEFE86
:10127000322007F0EFFA194B0021188808F0D7FB4D
:10128000322007F0E7FA164B0021188808F0CFFB50
:10129000322007F0DFFA134B0021188808F0C7FB53
:1012A000322007F0D7FA00230A2085F8EA3B07F03E
:1012B000D1FA0D4B01211B68D5F8EC2B04A805F0E1
:1012C0005DFD08B070BD00BF380000200040024046
:1012D00064D50A0872D50A08640C00204800002072
:1012E0001000002040000020F001002008B5044953
:1012F0000448FFF7BFFABDE80840FFF785BF00BF0D
:101300007CD50A08640C0020F0B59DB0A84904A85B
:1013100005F0D6FE07F05AFA0A220146684605F0A3
:101320004FFF694604A805F0DEFFA24905F0E7FF7C
:10133000044607F057FA0A22014608A805F040FFC4
:10134000204608A905F0CFFF9A4905F0D8FF0446CA
:1013500007F050FA0A2201460CA805F031FF20469A
:101360000CA905F0C0FF944905F0C9FF044607F039
:1013700009FA0A22014610A805F022FF204610A90A
:1013800005F0B1FF8D4905F0BAFF044607F006FAF3
:101390000A22014614A805F013FF204614A905F0FF
:1013A000A2FF864905F0ABFF044607F003FA0A22C4
:1013B000014618A805F004FF204618A905F093FF80
:1013C00001687F48FFF756FA18A805F02FFE14A809
:1013D00005F02CFE10A805F029FE0CA805F026FE4D
:1013E00008A805F023FE684605F020FE04A805F0D5
:1013F0001DFE744918A805F063FE05F08BF84FF444
:101400007A710A22B0FBF1F114A805F0FFFE14A9CD
:1014100018A805F068FF6C4905F071FF016868487D
:10142000FFF728FA14A805F001FE18A805F0FEFD44
:10143000642007F00FFA07F0A5F9054607F0AEF9AA
:10144000064607F0B7F9614B614C19683C2303FB72
:10145000056292FBF1F501FB1522891A4B435D49A8
:101460001B1A18A8C4F8EC3B05F02AFE0A22D4F88F
:10147000EC1B14A805F0A4FE14A918A805F033FF6E
:10148000554905F03CFF01684D48FFF7F3F914A8F2
:1014900005F0CCFD18A805F0C9FD322007F0DAF9F7
:1014A0004E4B0021188808F0C2FA322007F0D2F91A
:1014B0004B4B0021188808F0BAFA322007F0CAF91D
:1014C000484B0021188808F0B2FA322007F0C2F920
:1014D00007F058F9054607F061F90AF07DF8002297
:1014E000414B0AF00DFA064628460F460AF074F8FA
:1014F00002460B463046394609F022FF0F460646A3
:1015000007F058F90AF068F827A3D3E900230AF096
:10151000F7F93B46324609F013FF0AF0BFFB3349A7
:10152000C4F8F00B18A805F0CBFD0622D4F8F01B88
:1015300014A805F07FFE14A918A805F0D4FE2C49C4
:1015400005F0DDFE01681E48FFF794F914A805F0C8
:101550006DFD18A805F06AFD264B1B7803B32649DC
:1015600000251748FFF786F90A2084F8EA5B07F0A0
:1015700071F994F8EB3B4BB1204B214A01211B68D8
:10158000126818A884F8EB5B05F0F8FB1D4B0121ED
:101590001B68D4F8EC2B18A805F0F0FB1DB0F0BDCB
:1015A0001949DDE7AFF30080000000000020AC40E7
:1015B00040D50A082ED40A0821D60A0887DA0A0874
:1015C000640C0020A1D50A08B2D50A083800002012
:1015D0000040024064D50A0872D50A08480000207D
:1015E000100000204000002000004E40BAD50A083C
:1015F000C7D50A0804020020CFD50A08F40100204C
:1016000034000020F0010020E8D50A0808B5FFF7F3
:101610006DFC68B1074B1B7813B9074A12781AB1F1
:10162000064A127802B91BB9BDE80840FFF76CBE44
:1016300008BD00BF0402002030020020020200208A
:1016400070B5414D90B02C78002C4ED1ADF83A4099
:10165000ADF83C408DF83E40ADF8204008F058FA17
:1016600020223A4B0DEB0201186804F063FF9DF84D
:10167000203033B136493748FFF7FCF8204610B028
:1016800070BD354B08AA0EAE144603CCB4421860A8
:101690005960224603F10803F6D120681860A1883A
:1016A000A279012499809A712C4904A82C7005F024
:1016B00007FD0A229DF82010684605F06FFD694677
:1016C00004A805F010FE264905F019FE0DF12101D0
:1016D00005F015FE01681F48FFF7CCF8684605F0D5
:1016E000A5FC04A805F0A2FCC8E71B4D1D4908A8ED
:1016F00005F0E6FC0A22297804A805F04FFD04A9AC
:1017000008A805F0F0FD184905F0F9FD691C05F081
:10171000F6FD164905F0F3FDA97F05F004FE144916
:1017200005F0EDFD698B05F0FEFD124905F0E7FDC2
:10173000A98B05F0F8FD01680648FFF79BF804A89F
:1017400005F074FC08A8CDE701020020FC01002090
:10175000FED50A08640C0020400100200FD60A08BC
:1017600018D70A0823D60A0840D60A0849D60A0814
:1017700055D60A085DD60A0808B50C48FEF75AFE89
:101780004FF4FA7007F066F8094B1B784BB1094B20
:101790009A7F52B15A8B998B0448BDE80840FEF7F6
:1017A00095BCFFF74DFF0028F1D108BD380200209D
:1017B000010200204001002084B030B591B014AC8B
:1017C00084E80F000023ADF83A30ADF83C308DF8D6
:1017D0003E30ADF8203008F09BF920224D4C0DEB47
:1017E0000201206804F0A6FE4B494C48FFF742F87E
:1017F0009DF82030002B42D049494848FFF73AF87D
:1018000008F086F9206814A9202204F09BFE4549BF
:101810004248FFF72FF8444904A805F051FC0A227A
:101820009DF82010684605F0B9FC694604A805F04B
:101830005AFD3E4905F063FD0DF1210105F05FFD04
:1018400001683648FFF716F8684605F0EFFB04A874
:1018500005F0ECFB364A14AB1BA953F8040B8B4282
:1018600042F8040BF9D1198811809B7893700122FA
:10187000304B1A7011B0BDE8304004B070470DF124
:101880005101684605F01CFC0DF1210104A805F08A
:1018900017FC04A9684605F065FD054604A805F097
:1018A000C5FB684605F0C2FB002DB4D122491B4898
:1018B000FEF7E0FF214904A805F002FC0DF121012B
:1018C000684605F0FDFB694604A805F00CFD0168BB
:1018D0001248FEF7CFFF684605F0A8FB04A805F004
:1018E000A5FB174904A805F0EBFB0DF15101684673
:1018F00005F0E6FB694604A805F0F5FC0168074819
:10190000FEF7B8FF684605F091FB04A805F08EFBD2
:1019100076E700BFFC01002066D60A08640C0020B0
:101920008AD60A08BFD60A081BD70A0818D70A0899
:101930004001002001020020CBD60A08F9D60A088F
:101940000AD70A0884B030B595B018AC84E80F0007
:101950000CAC3749204605F0B3FB0DF1610108A836
:1019600005F0AEFB08A9204605F0BDFC0168314832
:10197000FEF780FF08A805F059FB204605F056FB4E
:101980002D4904A805F09CFB0DF16101204605F0EE
:1019900097FB0E9D204605F049FB172D0DF16101C7
:1019A0003DD908A805F08CFB16230022204608A983
:1019B00005F002FD214604A805F0D7FB204605F0FE
:1019C00035FB08A805F032FB20461C4905F078FBE2
:1019D00004A9204605F087FC01681648FEF74AFF77
:1019E000204605F023FB04A908A805F0B3FB08A9CD
:1019F0002046FFF74BF808A805F018FB14AB13E9D5
:101A00000F008DE80F0094E80F00FFF7D5FE04A843
:101A100005F00CFB15B0BDE8304004B0704720461F
:101A200005F04EFB214604A805F09FFB2046C9E7C0
:101A300031D70A08640C002065D60A084AD70A087C
:101A4000F0B5044685B00146684605F083FB69465B
:101A50001D4805F08AFB684605F0E8FA214668460D
:101A600005F078FB6946194805F07FFB684605F0EC
:101A7000DDFAA368164D172B1AD82F460026A36847
:101A80009E4207D23146204605F094FC013607F805
:101A9000010BF4E70C4B9B68062B04D800225A5527
:101AA0000133072BFBD101220A4B1A7005B0F0BDA0
:101AB00000263146204605F07DFC0136182E05F83B
:101AC000010BF6D1EFE700BF6001002038020020D3
:101AD000140000200002002030B505460C46534893
:101AE000534999B0FEF7C6FE524B1B78002B40F0CD
:101AF0009B80214604A810AC05F0E2FA4E490CA8E0
:101B000005F0DEFA2946204605F0DAFA21460CA84F
:101B100005F0E9FB494905F0F2FB04A905F0E3FBF8
:101B200001684248FEF7A6FE204605F07FFA0CA8A1
:101B300005F07CFA42493D48FEF79CFE41492046AB
:101B400005F0BEFA04A9204605F0CDFB0168374830
:101B5000FEF790FE204605F069FA04A9204605F03C
:101B6000F9FA2046FFF76CFF204605F05FFA364988
:101B70002E48FEF77FFE04A90CA805F0EBFA0CA98D
:101B80002046FEF783FF0CA805F050FA18AB13E9C6
:101B90000F008DE80F0094E80F00FFF7D3FE2B49EC
:101BA00008A805F08DFA2A490CA805F089FA0CA9B5
:101BB00008A805F098FB01681C48FEF75BFE0CA81E
:101BC00005F034FA08A805F031FA224908A805F012
:101BD00077FA21490CA805F0BDFA0CA908A805F070
:101BE00082FB01681148FEF745FE0CA805F01EFABD
:101BF00008A805F01BFA194908A805F061FA184968
:101C00000CA805F05DFA0CA908A805F06CFB0168AA
:101C10000648FEF72FFE0CA805F008FA08A805F004
:101C200005FA04A805F002FA19B030BD640C0020D2
:101C30005ED70A080002002079D70A0818D70A08D8
:101C400083D70A0892D70A08A8D70A08CAD70A0869
:101C500014000020E6D70A086001002002D80A0814
:101C60004101002070B500240122104B104D1C7062
:101C7000104B114E1C70114B28461C70104B114913
:101C800083F8EA4B104B1A70FEF7F4FD2246706899
:101C9000022104F0A7FE214670682346224604F084
:101CA000B9FE28460949FEF7E5FD70BD340C002059
:101CB000640C0020F9010020380D0020FA010020FA
:101CC000004002401ED80A083002002051D80A08FD
:101CD0002DE9F04F0025ADF27C5D46AC601938353A
:101CE000FEF7D8FCB5F58C6FA046F6D100250DEBBC
:101CF00005003835FEF7CEFCB5F58C7FF7D105220F
:101D00006946204807F0D2FB142221461D4807F0FF
:101D1000BBFB00250646DFF87490DFF874A0DFF8FF
:101D200074B0B5422ADA382303FB05839A8844F25B
:101D300033739A4204F1040715D107F0BBF95146F9
:101D400005F072FB07F0B6F9394605F080FBDBF8C9
:101D5000002039460B48FEF7B2FC01220A4B1A70EC
:101D600001353834DDE707F0A5F9494605F05CFB9D
:101D700007F0A0F9394605F06AFBF1E70DF27C5D4A
:101D8000BDE8F08F380D0020004002408CD40A08D6
:101D900094D40A080000002010B5144B1A68144BA4
:101DA0001B689A421DDC0023124C1A4619466068D3
:101DB00004F028FE0023606819461A4604F002FE6B
:101DC0000D490E48FEF756FD0D4B1B780BB9FFF77A
:101DD0007FFF0C490948FEF74DFDBDE8104000F0BB
:101DE00013B8BDE81040FFF73DBF00BF300C002026
:101DF00050000020380D002077D80A08640C00201D
:101E0000004002408AD80A082DE9F74F654B93F845
:101E1000EA2B0193002A00F0AC80634C2378C3B115
:101E200004F040FE002840F0A480FEF7BBFC04F064
:101E300039FE5E4920705E48FEF71CFDFEF7B2FCDD
:101E400004F028FE5B495A48FEF714FDFEF7AAFC91
:101E50008FE05948FEF72EFC80B35748FEF72AFC66
:101E600018B156495248FEF705FDFEF79BFC524853
:101E7000FEF71BFC18B152494D48FEF7FBFCFEF77C
:101E800091FC504B00201E6804F06CFB4FF0000AE0
:101E900005460027DFF820B1002004F063FBB0EB1B
:101EA000050861EB0A09B94508BFB04521D258467B
:101EB000FEF700FCE8B904F0E5FDEDE73E48FEF76B
:101EC000F4FB0028C9D1404D40493948FEF7D2FC07
:101ED000FEF768FC2B68012B03DD3D493448FEF713
:101EE000C9FCFEF75FFC2B6801332B60FEF75AFC40
:101EF00037E03148FEF7DEFB002846D001253549A2
:101F00002B48FEF7B7FC344EFEF74CFC334B3570D4
:101F10001D7004F0BFFD04F0C5FD68B330492448CE
:101F2000FEF7A8FCFEF73EFC04F0BCFD0022264BA9
:101F300029462070284632701A6004F00FFD2949A6
:101F40001B48FEF797FC1C48FEF7AFFB58B126492B
:101F50001748FEF78FFCFEF725FC1B4A1368013378
:101F60001360FFF719FF019B93F8EA3B002B7FF406
:101F700057AF03B0BDE8F08F0E490D48FEF77AFC6D
:101F8000FEF710FC04F086FDDDE718490848FEF76F
:101F900071FCFEF707FC0C4A136801331360FFF76E
:101FA000FBFED0E700400240F901002036DA0A08C3
:101FB000640C002076D90A08380D0020DCD80A0805
:101FC000EBD80A0854000020300C0020A1D80A08E1
:101FD00008DA0A08FFD80A08FA010020340C0020A9
:101FE0002CD90A0847D90A08CAD90A0897D90A0871
:101FF00038B5046805467CB16368013B63605BB932
:10200000236820469B689847A368013BA3601BB9DF
:1020100023682046DB689847284638BD2DE9F04FF5
:102020008D4D8FB06C78002C00F0138195F824331F
:10203000002B46D13B230134B4FBF3F4E4B2002778
:10204000DFF83482DFF834923B26BC4206FB07FB04
:102050007BD9414602A805F033F8EC2649460AA888
:1020600005F02EF80AA902A805F028F90AA804F03C
:10207000DDFF1BF13C0F8CBF4FF0010A4FF03C0A13
:10208000764BDFF8FCB106FB0736BAF1010A1AD02D
:10209000042256F8041B06A805F0CCF806A90AA8E5
:1020A00005F058F859460AA805F029F9014602A892
:1020B00005F004F90AA804F0B9FF06A804F0B6FF79
:1020C000E3E70424BBE766490AA804F0F9FF654981
:1020D00006A804F0F5FF06A90AA805F004F962496C
:1020E00005F00DF9014602A805F0E8F806A804F08D
:1020F0009DFF0AA804F09AFF5C4B02A90AA81E687B
:1021000005F028F85A4B0A9A1B7831468DF80030B2
:1021100006A83C2306F092FD07A8FFF769FF0AA86E
:1021200004F084FF06F0C6FF524905F090F906F06E
:10213000C1FF029905F08BF94FF47A7006F08AFB23
:1021400002A804F073FF01377EE76B787443013314
:1021500093FBF6F206FB1233002B76D0464902A819
:1021600004F0AEFF45490AA804F0AAFF0AA902A894
:1021700005F0A4F80AA804F059FF2746DFF8DC9020
:10218000DFF8FC806B785A1CB2FBF6F306FB1323D6
:102190002344BB4219D9042259F8271006A805F098
:1021A00049F806A90AA804F0D5FF41460AA805F097
:1021B000A6F8014602A805F081F80AA804F036FF47
:1021C00006A804F033FF0137DCE725490AA804F02C
:1021D00077FF244906A804F073FF06A90AA805F0B2
:1021E00082F8214905F08BF8014602A805F066F84F
:1021F00006A804F01BFF0AA804F018FF1B4B02A955
:102200000AA81C6804F0A6FF194B0A9A1B782146FD
:102210008DF8003006A83C2306F010FD07A8FFF754
:10222000E7FE0AA804F002FF06F044FF114905F09A
:102230000EF906F03FFF029905F009F94FF47A70A4
:1022400006F008FB02A804F0F1FE00236B7085F88D
:1022500024330FB0BDE8F08F00400240044002403C
:102260005EDA0A081400002069DA0A08E00100209A
:10227000F80100206DDA0A0865D60A0852DA0A0861
:102280005CDA0A082DE9F04FA44C002594F8E93BEC
:1022900094F8E87B002B18BF2827DFF8C0B297B06E
:1022A000BD4200F0998038264FF000089C4902A8F2
:1022B00004F006FF9B4912A804F002FF12A902A82D
:1022C00004F0FCFF12A804F0B1FE974BDFF88092F7
:1022D00006FB0536954B19460AA804F0F1FE49465F
:1022E00006A804F0EDFE06A90AA804F0FCFF904938
:1022F00005F005F8824656F8040B09F0D9FD594659
:1023000009F0DEFE032201460EA804F093FF0EA999
:10231000504604F0E8FF874904F0F1FF014612A897
:1023200004F018FF12A902A804F0C8FF12A804F0D4
:102330007DFE0EA804F07AFE06A804F077FE08F1F0
:1023400001080AA804F072FEB8F10E0F774B09F1EC
:102350000309C0D1784912A804F0B2FE77490EA84B
:1023600004F0AEFE0EA912A804F0BDFF744904F0FB
:10237000C6FF014602A804F0A1FF0EA804F056FE15
:1023800012A804F053FE6F4B02A912A81E6804F0B5
:10239000E1FE6D4B129A1B7831468DF800300EA885
:1023A0003C2306F04BFC0FA8FFF722FE12A804F016
:1023B0003DFE4FF47A7006F04DFA06F07BFE63495D
:1023C00005F045F806F076FE029905F040F802A8FF
:1023D00004F02CFE013563E70025514902A884F87A
:1023E000E85B84F8E95B04F06BFE4E4912A804F048
:1023F00067FE12A902A804F061FF12A804F016FEFD
:102400002C46534E534FDFF824A1DFF82491DFF818
:102410004C8151460AA804F053FE314606A804F048
:102420004FFE06A90AA804F05EFF494604F067FFC4
:10243000054657F8040B09F03BFD414609F040FE04
:10244000032201460EA804F0F5FE0EA9284604F06A
:102450004AFF384904F053FF014612A804F07AFEFF
:1024600012A902A804F02AFF12A804F0DFFD0EA8AA
:1024700004F0DCFD06A804F0D9FD01340AA804F03C
:10248000D5FD0E2C06F10306C3D12B4912A804F08A
:1024900017FE2A490EA804F013FE0EA912A804F094
:1024A00022FF274904F02BFF014602A804F006FF93
:1024B0000EA804F0BBFD12A804F0B8FD214B02A940
:1024C00012A81C6804F046FE1F4B129A1B78214686
:1024D0008DF800300EA83C2306F0B0FB0FA8FFF7E4
:1024E00087FD12A804F0A2FD4FF47A7006F0B2F94D
:1024F00006F0E0FD154904F0AAFF06F0DBFD0299A5
:1025000004F0A5FF02A804F091FDFFF787FD00226B
:10251000114B1A6017B0BDE8F08F00BF00400240B9
:1025200065D60A0883DA0A08284302405ADA0A08FC
:1025300086DA0A0820D60A0861DA0A0814000020A0
:1025400069DA0A08E0010020F80100206DDA0A08C3
:10255000700100209C0100202C02002000007A4421
:1025600070B52D4B1B78002B55D02C4C2378002BAD
:1025700051D12B48FDF7BAFD322006F06BF92848FF
:10258000FDF7B4FD322006F065F92548FDF7AEFDF4
:10259000322006F05FF903F0BDFF224AD2E9003194
:1025A000C01A61EB410109F091FC1F4B0546186808
:1025B00009F07AFC1D4909F0CFFC1D4909F0C2FB66
:1025C0000146284609F084FE30B11A491A48FEF740
:1025D00051F90122194B1A700023194D10482B6034
:1025E000FDF784FD322006F035F9FEF75FFB32205F
:1025F00006F030F9134B1B786BB1134B1B7853B1BA
:10260000267846B9FFF73EFE2B68002B4FF00103FA
:10261000C8BF2E60237070BD04020020020200209B
:1026200038020020200C00204C0000206666663F27
:1026300000401C4689DA0A08640C002030020020A1
:102640002C02002000020020F901002030B54D4C82
:102650008FB02278002A49D14B494C48FEF70AF93D
:10266000FEF7EEFFB8B14A494848FEF703F9494979
:102670000AA804F025FD0C9D0AA804F0D7FC062D3D
:1026800009D144490AA804F01BFD0AA8FFF7D8F9AC
:102690000AA804F0CBFC404A23781278002A2ED0F6
:1026A00023BB3E4B3E4D1B782C780BB314BB3D49EE
:1026B0003648FEF7DFF8012322463B49CDE90044C6
:1026C0003A4804F0FFF93A4B22461B7837498DF817
:1026D00000300AA83C2306F0B1FA0BA8FFF788FCEB
:1026E00034492A48FEF7C6F801232B700FB030BDDD
:1026F000002CFBD030492548FEF7BCF8F6E7002B4C
:10270000F4D12E492148FEF7B5F8FEF799FF70B1D4
:102710001F491E48FEF7AEF81E490AA804F0D0FC77
:102720000AA8FFF78DF90AA804F080FCDEE7244927
:102730001648FEF79FF8234902A804F0C1FC02A93D
:102740000AA804F007FD0AA8FFF77AF90AA804F01E
:102750006DFC1D4906A804F0B3FC1C490AA804F04E
:10276000AFFC0AA906A804F0BEFD01680748FEF701
:1027700081F80AA804F05AFC06A804F057FC02A845
:10278000D2E700BF00020020BCDA0A08640C002077
:10279000DDDA0A084101002004020020F9010020CE
:1027A000280C0020F3DA0A08D91A0A0831DB0A08D3
:1027B000F801002046DB0A0864DB0A0880DB0A080F
:1027C000ACDB0A08E6DB0A08EDDB0A08140000208F
:1027D00038B5FDF7E7FF03F09DFE114AD2E900325C
:1027E000C41A104B62EB42051A680023AB4208BFC3
:1027F000A24205D20C490D48FEF73CF8FEF784FDD5
:10280000FFF702FBFEF772FBFFF720FFFFF7A8FEC2
:10281000FEF7FCFEBDE838404FF4FA7006F01AB837
:10282000200C00204C000020FEDB0A08640C002075
:10283000012010B51D4C1E49D4F8F42B88B001328C
:102840008242C4F8F42B087004DD0023C4F8F43B82
:10285000FEF7B0FC94F8EA3B13B90122154B1A704D
:10286000FEF79AFCFEF788FF06F024FC124904F0FC
:10287000EEFDFFF7EBFE06F01DFC1049044604A830
:1028800004F01EFC68460E4904F01AFC694604A8D0
:1028900004F029FD0168204604F0D9FD684604F0E3
:1028A000C5FB04A804F0C2FB08B010BD0040024004
:1028B00004020020300200200CDC0A081FDC0A0899
:1028C00014000020000000002DE97043B24B9CB0C2
:1028D000188807F0C5F8B149064618A8FDF728FF83
:1028E00018A804F084FAAD49054618A8FDF720FFA2
:1028F00018A804F083FAAA49044618A804F0E0FBDB
:102900000A22294614A804F05BFC14A918A804F0B4
:10291000EAFC0168A348FDF7ADFF14A804F086FBAC
:1029200018A804F083FBA04918A804F0C9FB0A22E8
:10293000214614A804F044FC14A918A804F0D3FC00
:1029400001689848FDF796FF14A804F06FFB18A8DB
:1029500004F06CFB954904A804F0B2FB05F036FFC7
:102960000A220146684604F02BFC694604A804F0DC
:10297000BAFC8F4904F0C3FC044605F033FF0A2279
:10298000014608A804F01CFC204608A904F0ABFC92
:10299000874904F0B4FC044605F02CFF0A220146E6
:1029A0000CA804F00DFC20460CA904F09CFC814905
:1029B00004F0A5FC044605F0E5FE0A22014610A835
:1029C00004F0FEFB204610A904F08DFC7A4904F0C7
:1029D00096FC044605F0E2FE0A22014614A804F023
:1029E000EFFB204614A904F07EFC734904F087FC39
:1029F000044605F0DFFE0A22014618A804F0E0FBB9
:102A0000204618A904F06FFC01686648FDF732FF04
:102A100018A804F00BFB14A804F008FB10A804F09D
:102A200005FB0CA804F002FB08A804F0FFFA6846B6
:102A300004F0FCFA614D04A804F0F8FA604918A803
:102A400004F03EFB0622D5F8F01B14A804F0F2FBBC
:102A500014A918A804F047FC5A4904F050FC016876
:102A60005048FDF707FF14A804F0E0FA18A804F096
:102A7000DDFA05F087FE044605F090FE08F0ACFD97
:102A80000022514B08F03CFF80462046894608F062
:102A9000A3FD02460B464046494608F051FC8946D4
:102AA000804605F087FE08F097FD39A3D3E900239F
:102AB00008F026FF4B46424608F042FC09F0EEF8CB
:102AC0000446424918A804F0FBFA0622214614A83D
:102AD00004F0B0FB14A918A804F005FC394904F06F
:102AE0000EFC01682F48FDF7C5FE14A804F09EFAFD
:102AF00018A804F09BFAD5F8F01B204609F022F93B
:102B0000334909F029FA09F0EDFB0446314918A8C8
:102B100004F0D6FA0A22214614A804F051FB14A9A5
:102B200018A804F0E0FB01681E48FDF7A3FE14A8F6
:102B300004F07CFA18A804F079FA012E05D1264990
:102B40001848FDF797FEFEF785F8244B1A68D5F86C
:102B5000EC3BE31A002BB8BF5B42934207DB204BF0
:102B60001868241A002CB8BF6442A24208DD1D492F
:102B70000C48FDF77FFEFFF75BFE1CB0BDE87083DD
:102B800019490848FDF776FEF7E700BFAFF300806C
:102B9000000000000020AC4004000020480C002091
:102BA0002DDC0A08640C00203ADC0A0840D50A082B
:102BB0002ED40A0821D60A0887DA0A080040024003
:102BC000BAD50A08C7D50A0800004E4047DC0A08F3
:102BD0000000614556DC0A0871DC0A084400002048
:102BE000340000209DDC0A08CFDC0A0830B5834899
:102BF00089B005F07BFDFEF78FFA642005F02AFE10
:102C000006F058FA4FF4165106F042FA642005F027
:102C100021FE7B4B1B784BB106F04CFA06F03FFAD5
:102C200020B9FDF7BFFD03F02DFFF5E7754C7649A0
:102C300004A804F045FA0A22D4F8F41B684604F00C
:102C4000BFFA694604A804F04EFB01686F48FDF71F
:102C500011FE684604F0EAF904A804F0E7F90A2234
:102C600094F8E81B684604F099FA694604A804F051
:102C700071FA674904A804F042FB01686348FDF754
:102C8000F9FD04A804F0D2F9684604F0CFF9FDF785
:102C9000C9FC0A282BD100235E4A84F8EA3B137052
:102CA0005D4A13705D4A137001225D4B1A70FEF786
:102CB000C7FC00225B4D1146686803F0C3FE48B9AB
:102CC000594B1B7833B1594B28461A68584B196831
:102CD000FDF7F5FC04A85749FDF72AFD04A804F008
:102CE00084F8032811D8DFE800F0073D444BFDF7D6
:102CF00099FC8228DBD1CEE74F494448FDF7BAFD65
:102D0000012384F8EB3BFEF755FAFDF78BFCC0B2CC
:102D1000462866D043DC1E285DD038DC0A2856D011
:102D2000142856D000284DD003F0F4FB0022434B6A
:102D30004349186035485A60FDF79CFD41493348C6
:102D4000FDF798FD1820FDF7A8F9044630B13E497B
:102D50004FF4C0633D4A0968FDF72CFD3C4B1C60F5
:102D600009B030BD3B492948FDF784FDFDF772FFEE
:102D7000CBE739492548FDF77DFDFFF759FDC4E74D
:102D800036492248FDF776FDFFF79EFDBDE7322864
:102D900023D03C2823D02828C6D1314913E06E28FF
:102DA00025D007DC5A281ED064281ED05028BBD15D
:102DB0002C4908E082281CD08C281CD07828B3D15C
:102DC000294900E029491148FDF754FDACE728499D
:102DD000F9E72849F7E72849F5E72849F3E72849BB
:102DE000F1E72849EFE72849EDE72849EBE72849CB
:102DF000E9E72849E7E72849E5E700BF0000204167
:102E00000302002000400240E7DC0A08640C0020B6
:102E100000DD0A08340C0020F9010020FA0100202E
:102E200030020020380D00203C0000200800002067
:102E30000C000020480C002019DD0A08200C00209E
:102E400049DF0A0862DF0A084C000020ED120A0878
:102E50002C0C00204ADD0A0867DD0A08ACDD0A08F0
:102E600051DE0A089BDE0A08EBDE0A0801DE0A08CA
:102E70000BDE0A081EDE0A0836DE0A0862DE0A08D1
:102E800071DE0A0880DE0A08B0DE0A08BFDE0A0822
:102E9000D7DE0A08FEDE0A0834DF0A0870B51426F9
:102EA000D0E90053044606FB0356AE4204D0284640
:102EB00004F0BCF81435F8E7206803F02BFE204638
:102EC00070BD8842F8B504460D46164616D99042A4
:102ED00015D2A2F11406751AA1F114072C44B742B9
:102EE0001CD02CB13146204604F01AF9337C2374EF
:102EF000304604F09BF8143E143CF0E70ED0B54287
:102F00000CD02CB12946204604F00AF92B7C2374FE
:102F1000284604F08BF814351434F0E7F8BD00238C
:102F20002DE9F041C0E9003383604F6804469F42B9
:102F30000E4624DD4FF0140808FB07F003F0E2FD15
:102F40000546E0B1D4E9001208FB0212FFF7B9FF11
:102F5000206803F0DFFD2560A760D6E9007308FB59
:102F60000378B84509D03946284604F0F3F83B7C8D
:102F7000143505F8043C1437F3E7736863602046A2
:102F8000BDE8F081F0B5002502205F4B5F4C1D606D
:102F90005F4B8DB018605F4B25601D705E4BA58048
:102FA000A360A57103F0C2FC5C4A5D49204606F0AF
:102FB0001DFEFDF799FD5B495B4804F081F8574A17
:102FC0005A49594806F012FECDE90055029506F01F
:102FD00071F80646694603A8FFF7A1FF03A906A8F2
:102FE000534CFFF79CFF534B06A9236009A8FFF73A
:102FF00096FF09AA1E21201D05F00CF809A8FFF76D
:103000004DFF06A8FFF74AFF4B4B2662236003A83B
:10301000FFF744FF494B4A4F236006F04BF84FF44B
:10302000165106F035F804F087FC214604F085FFC0
:103030006846FFF733FF2046424C384A424906F0C3
:10304000D5FD3F49204604F03BF8C4E90455C4E9E6
:103050000655C4E9085504F1280001F09FF804F171
:10306000600000F055FB04F5907001F01DFD04F5C3
:10307000D87000F0E3FD04F50A7000F011FA04F5D1
:10308000187001F081FA04F52E7000F091FC04F53F
:103090004E7001F0B7FB04F56E7000F033FF04F5DD
:1030A000836000F029F904F58F6001F071F904F6EE
:1030B000F806C4F8D854C4F8DC54C4F8E0547019C5
:1030C0003946103503F0FCFFD02DF8D100251C49FE
:1030D000C4F8CC5984F8D0591C4803F0F1FF0F4ACA
:1030E0001B49184806F082FD15491A4803F0E8FF0D
:1030F0000A4A0E49174806F079FD174B5D839D83F8
:103100009D771D800DB0F0BDF0010020D40100209E
:10311000F4010020F80100200000FFFF380100202A
:1031200085060A0877DF0A08E00100202D700A08EA
:103130000802002090DF0A0884E90A08A8DF0A08CC
:1031400065D60A08380200203D060A080C0C00204B
:10315000BD080A086001002040010020303070479F
:103160004030704770B500F11C06044601234FF053
:10317000FF323621304603F051F930B905F09AFF9D
:10318000104904F064F9207E70BD05F093FF0E49EC
:1031900004F04AF905F08EFF0546304603F04EF87C
:1031A00010220146284604F05CF9284604F043F951
:1031B00001230A20237605F04DFB236820465B6837
:1031C0009847E0E72BE00A084AE00A0838B500F122
:1031D0001C050446284603F077F808F00FFAC4E906
:1031E0000C010021284603F055F808F0E5F9C4E980
:1031F0000E01012038BD000037B50446022505F058
:1032000059FF616804F023F905F054FF104904F0F8
:103210000BF905F04FFFD4E90C23009504F0FEF9FB
:1032200005F048FF0B4904F0FFF805F043FFD4E92F
:103230001023009504F0F2F905F03CFF064904F074
:1032400006F905F037FF03B0BDE8304004F0F3B8ED
:103250006BE00A087CE00A0895E00A082DE9F04FC7
:103260000C468FB004F140061F490546B04603F0F6
:1032700027FFDFF878B0DFF878A0DFF878903034F7
:10328000594602A803F01CFF314602A804F02BF8AF
:10329000514604F034F8042307460093F4E802236F
:1032A00006A803F0DEFF06A9384604F01CF84946DC
:1032B00004F025F801460AA803F04CFF0AA92846A5
:1032C00003F0FCFF0AA803F0B1FE06A803F0AEFE6F
:1032D00002A803F0ABFE444506F11006D0D1284603
:1032E0000FB0BDE8F08F00BF65D60A085ADA0A08A9
:1032F00086DA0A0820D60A0870B505460446134B3C
:10330000134945F8043B284603F0DAFE0223002166
:10331000204663610F4B217640F81C3B02F02CFFE6
:103320000D4B04F130060FCB86E80F000B4904F17A
:10333000400003F0C5FE0A4904F1500003F0C0FE4E
:103340002846084903F019FF204670BD74D40A08C6
:1033500065D60A08D8E00A08C0E00A089FE00A0813
:10336000A2E00A08A5E00A0820307047283070471C
:1033700070B5037E044663B900F11906304602F0C9
:1033800077F9054638B905F095FE0C4904F05FF869
:103390002576207E70BD05F08DFE094904F057F8B2
:1033A000012303212376304602F014F90A2005F0A8
:1033B00051FA236820465B689847EAE7F0E00A087C
:1033C00025E10A0810B50446193002F0ABF808F000
:1033D00015F9C4E90801012010BD000013B5044629
:1033E00005F068FE616804F032F805F063FE0B49F1
:1033F00004F01AF805F05EFE02230093D4E90823D6
:1034000004F00CF905F056FE054904F020F805F02B
:1034100051FE02B0BDE8104004F00DB838E10A08D2
:1034200047E10A0870B50D468EB01949044603F00D
:1034300047FE184902A803F043FE05F1280102A83F
:1034400003F051FF144903F05AFF0423064600938A
:1034500006A8D5E9082303F004FF06A9304603F0C7
:1034600042FF0E4903F04BFF01460AA803F072FE2B
:103470000AA9204603F022FF0AA803F0D7FD06A8F8
:1034800003F0D4FD02A803F0D1FD20460EB070BDBC
:1034900065D60A085ADA0A0886DA0A0820D60A081F
:1034A00038B50546104B044645F8043B28460F49FD
:1034B00003F006FE002323760123204663610C4BB4
:1034C000182140F8193B02F029F80022094B0A495B
:1034D000C4E9082304F1280003F0F2FD2846074957
:1034E00003F04BFE204638BD74D40A0865D60A089E
:1034F00074E10A080000F03F4BE10A084EE10A08B7
:10350000603070478030704738B5037E04465BB941
:1035100076211C3001F029FF054638B905F0CAFDB7
:103520000A4903F094FF2576207E38BD05F0C2FDE0
:10353000074903F08CFF01230A20237605F08AF95E
:10354000236820465B689847EEE700BF8CE10A08D5
:10355000C0E10A0838B500F11C050446284601F010
:10356000AFFB08F04BF8C4E91801284601F0D4FB82
:1035700008F044F800220B4B08F0C2F9C4E91A0124
:103580002846094901F09CFC08F038F8C4E91C0100
:10359000284601F047FD08F031F8C4E91E0101207A
:1035A00038BD00BF0000594000507D4437B5044687
:1035B000022505F07FFD616803F049FF05F07AFD03
:1035C000244903F031FF05F075FDD4E91823009577
:1035D00004F024F805F06EFD1F4903F038FF05F0F4
:1035E00069FD1E4903F020FF05F064FDD4E91A23AC
:1035F000009504F013F805F05DFD194903F027FF6D
:1036000005F058FD174903F00FFF05F053FDD4E90D
:103610001C23009504F002F805F04CFD124903F05C
:1036200016FF05F047FD114903F0FEFE05F042FDCF
:10363000D4E91E23009503F0F1FF05F03BFD0C4992
:1036400003F005FF05F036FD03B0BDE8304003F0A0
:10365000F2BE00BF38E10A0847E10A08D2E10A08D1
:10366000DEE10A08E3E10A08F7E10A08FAE10A08DC
:1036700006E20A082DE9F04F0C468FB004F18006EF
:103680001F490546B04603F01BFDDFF878B0DFF8B0
:1036900078A0DFF878906034594602A803F010FD56
:1036A000314602A803F01FFE514603F028FE042312
:1036B00007460093F4E8022306A803F0D2FD06A90A
:1036C000384603F010FE494603F019FE01460AA8E9
:1036D00003F040FD0AA9284603F0F0FD0AA803F014
:1036E000A5FC06A803F0A2FC02A803F09FFC444539
:1036F00006F11006D0D128460FB0BDE8F08F00BF0C
:1037000065D60A085ADA0A0886DA0A0820D60A08AC
:10371000F8B507461A4B044647F8043B19493846A2
:1037200003F0CEFC00232376042320466361164B6E
:10373000164E40F81C3B04F1600501F009FA0FCE6B
:103740000FC596E80F0085E80F00114904F18000CD
:1037500003F0B6FC0F4904F1900003F0B1FC0E49F0
:1037600004F1A00003F0ACFC0C4904F1B00003F03C
:10377000A7FC38460A4903F000FD2046F8BD00BF0B
:1037800074D40A0865D60A0870E20A0848E20A08F2
:103790000FE20A0812E20A0815E20A0818E20A080B
:1037A0001BE20A08203070474030704738B5017E70
:1037B0000446A9B900F11A05284601F080FE284602
:1037C00001F076FE05F076FC064903F040FE012389
:1037D0000A20237605F03EF8236820465B68984768
:1037E000207E38BD88E20A0838B500F11A05044683
:1037F0000021284601F065FE07F0EEFE0022154B81
:1038000007F054FFC4E908010121284601F059FEE0
:1038100007F0E2FE00220F4B07F048FFC4E90A015F
:103820000221284601F04DFE07F0D6FE0022094B8A
:1038300007F03CFFC4E90C010321284601F041FEDA
:1038400007F0CAFE0022034B07F030FFC4E90E0167
:10385000012038BD0000C83F73B50446022605F0BC
:1038600029FC6168264D03F0F2FD05F023FC254993
:1038700003F0DAFD05F01EFCD4E90823009603F0FE
:10388000CDFE05F017FC294603F0E1FD05F012FC22
:103890001D4903F0C9FD05F00DFCD4E90A2300968B
:1038A00003F0BCFE05F006FC294603F0D0FD05F050
:1038B00001FC164903F0B8FD05F0FCFBD4E90C232C
:1038C000009603F0ABFE05F0F5FB294603F0BFFDC3
:1038D00005F0F0FB0E4903F0A7FD05F0EBFBD4E982
:1038E0000E23009603F09AFE05F0E4FB294603F050
:1038F000AEFD05F0DFFB02B0BDE8704003F09BBDFC
:10390000A9E20A089BE20A08ACE20A08BAE20A083D
:10391000C8E20A082DE9F04F0C468FB004F14006CA
:103920001F490546B04603F0CBFBDFF878B0DFF85F
:1039300078A0DFF878902034594602A803F0C0FB45
:10394000314602A803F0CFFC514603F0D8FC042313
:1039500007460093F4E8022306A803F082FC06A9B8
:10396000384603F0C0FC494603F0C9FC01460AA8EA
:1039700003F0F0FB0AA9284603F0A0FC0AA803F014
:1039800055FB06A803F052FB02A803F04FFB444589
:1039900006F11006D0D128460FB0BDE8F08F00BF69
:1039A00065D60A085ADA0A0886DA0A0820D60A080A
:1039B000F8B507461A4B044647F8043B3846194900
:1039C00003F07EFB00232376042320466361164B1D
:1039D000164E482140F81A3B04F1200501F061FD24
:1039E0000FCE0FC596E80F0085E80F00104904F1CF
:1039F000400003F065FB0F4904F1500003F060FB49
:103A00000D4904F1600003F05BFB0C4904F1700008
:103A100003F056FB38460A4903F0AFFB2046F8BDD9
:103A200074D40A0865D60A0850E30A0828E30A088D
:103A3000D6E20A08D9E20A08DCE20A08DFE20A084C
:103A4000E2E20A08303070474830704770B5037EB4
:103A500004466BB900F11C065B21304602F073FA94
:103A6000054638B905F026FB114903F0F0FC257630
:103A7000207E70BD05F01EFB0E4903F0E8FC01231B
:103A80002376304602F0BBF90028FAD0304602F027
:103A900057F908F003F9084908F054F920620A20A0
:103AA00004F0D8FE236820465B689847E0E700BF33
:103AB00068E30A089CE30A080000C841F8B500F171
:103AC0001C050446284602F09AF9284602F038F907
:103AD000064628460F4602F0CAF988B9E08C07F07E
:103AE0006BFDC4E90C01A08C07F066FDC4E90E0172
:103AF0003946304608F0D2F807F080FDC4E91001DD
:103B00000120F8BD37B50446022505F0D3FA6168F7
:103B100003F09DFC05F0CEFA1B4903F085FC05F08F
:103B2000C9FAD4E90C23009503F078FD05F0C2FA38
:103B3000164903F08CFC05F0BDFA154903F074FC3E
:103B400005F0B8FAD4E90E23009503F067FD05F0FF
:103B5000B1FA104903F07BFC05F0ACFA0E4903F012
:103B600063FC05F0A7FAD4E91023009503F056FD95
:103B700005F0A0FA094903F06AFC05F09BFA03B0CE
:103B8000BDE8304003F057BCAEE30A08C0E30A08C2
:103B9000C5E30A08D3E30A0838E10A08D8E30A08AB
:103BA0002DE9F04F0C468FB004F148061F49054639
:103BB000B04603F085FADFF878B0DFF878A0DFF8D8
:103BC00078903034594602A803F07AFA314602A8B8
:103BD00003F089FB514603F092FB04230746009350
:103BE000F4E8022306A803F03CFB06A9384603F0DC
:103BF0007AFB494603F083FB01460AA803F0AAFAC0
:103C00000AA9284603F05AFB0AA803F00FFA06A8EF
:103C100003F00CFA02A803F009FA444506F1100675
:103C2000D0D128460FB0BDE8F08F00BF65D60A0896
:103C30005ADA0A0886DA0A0820D60A08F8B50746CA
:103C4000154B044647F8043B3846144903F038FA4C
:103C500000232376032325466361114B114E45F85B
:103C6000303B0FCE0FC596E8030085E803000E49F0
:103C700004F1480003F024FA0C4904F1580003F061
:103C80001FFA0B4904F1680003F01AFA3846094993
:103C900003F073FA2046F8BD74D40A0865D60A0802
:103CA00028E40A0808E40A08E2E30A08E5E30A0847
:103CB000E8E30A08EBE30A08303070474030704709
:103CC00037B50446022505F0F5F9616803F0BFFB3E
:103CD00005F0F0F9134903F0A7FB05F0EBF9D4E97F
:103CE0000C23009503F09AFC05F0E4F90E4903F06B
:103CF000AEFB05F0DFF90D4903F096FB05F0DAF9AC
:103D0000D4E90E23009503F089FC05F0D3F90849A6
:103D100003F09DFB05F0CEF903B0BDE8304003F0A1
:103D20008ABB00BFAEE30A08C0E30A08C5E30A087D
:103D3000D3E30A082DE9F04F0C468FB004F140069A
:103D40001F490546B04603F0BBF9DFF878B0DFF84D
:103D500078A0DFF878903034594602A803F0B0F923
:103D6000314602A803F0BFFA514603F0C8FA042313
:103D700007460093F4E8022306A803F072FA06A9A6
:103D8000384603F0B0FA494603F0B9FA01460AA8EA
:103D900003F0E0F90AA9284603F090FA0AA803F014
:103DA00045F906A803F042F902A803F03FF944459B
:103DB00006F11006D0D128460FB0BDE8F08F00BF45
:103DC00065D60A085ADA0A0886DA0A0820D60A08E6
:103DD00038B504461C3001F06EFD054648B1E08B55
:103DE00007F0EAFBC4E90C01A08B07F0E5FBC4E98E
:103DF0000E01284638BD0EB410B5002301682020FE
:103E00008DB00FAA52F8044BCDE90403CDE900426E
:103E10000392322004AA02F069FD0DB0BDE8104003
:103E200003B0704770B5017E04468EB061B900F1F1
:103E30001C06304601F007FD054640B905F03AF989
:103E4000284903F004FB2576207E0EB070BD304675
:103E500001F0E9FC054620B923492448FFF7CBFFD0
:103E6000F1E723492148FCF705FD304601AA0DF191
:103E7000060101F037FD58B91E491C48FFF7BBFF8A
:103E800005F018F91C4903F0E2FA01232376DBE779
:103E90001A4906A803F014F90A22BDF8061002A870
:103EA00003F08EF902A906A803F01DFA144903F0E5
:103EB00026FA05460A22BDF804100AA803F080F984
:103EC0000AA9284603F00FFA01680848FCF7D2FC5B
:103ED0000AA803F0ABF802A803F0A8F806A803F0BC
:103EE000A5F8CDE740E40A0873E40A08640C002052
:103EF00090E40A08BCE40A0806E50A08DCE40A08BB
:103F0000FDE40A0870B50546134B044645F8043B2A
:103F10001249284603F0D4F80023237602232046D2
:103F200063610F4B04F1300640F81C3B01F00DFCBF
:103F30000C4B0FCB86E80F000B4904F1400003F057
:103F4000BFF80A4904F1500003F0BAF828460849BE
:103F500003F013F9204670BD74D40A0865D60A0828
:103F600070E50A0858E50A0817E50A081AE50A087C
:103F70001DE50A082DE9F04100F11C0805468EB048
:103F800040460E46174601F0C6FC044640B905F00F
:103F900091F8334903F05BFA20460EB0BDE8F0819A
:103FA000304906A803F08CF80A22314602A803F033
:103FB00007F902A906A803F096F92B4903F09FF927
:103FC00006460A2239460AA803F0FAF80AA930463A
:103FD00003F089F901682548FCF74CFC0AA803F0B6
:103FE00025F802A803F022F806A803F01FF84046BF
:103FF00001AA0DF1060101F075FC30B91C491B48FE
:10400000FFF7F9FE01232B76C6E71A4906A803F04D
:1040100057F80A22BDF8061002A803F0D1F802A949
:1040200006A803F060F9104903F069F906460A2270
:10403000BDF804100AA803F0C3F80AA9304603F03B
:1040400052F901680948FCF715FC0AA802F0EEFFD6
:1040500002A802F0EBFF06A802F0E8FFD2E700BFDB
:10406000F8D30A0838E50A08FDE40A08640C0020C1
:10407000BCE40A08DCE40A082030704728307047A6
:1040800038B5037E0446B3B900F11905032128466B
:1040900001F018FB05F00EF8084903F0D8F90123E8
:1040A0000A20237604F0D6FB284601F02AFB07F00D
:1040B00083FAC4E90801207E38BD00BF88E50A08FC
:1040C00010B50446193001F01CFB07F075FAC4E97D
:1040D0000801012010BD000013B5044604F0EAFFFA
:1040E000616803F0B4F904F0E5FF0B4903F09CF9B3
:1040F00004F0E0FF02230093D4E9082303F08EFAD2
:1041000004F0D8FF054903F0A2F904F0D3FF02B090
:10411000BDE8104003F08FB99CE50A0895E00A0855
:1041200070B50D468EB01949044602F0C9FF184912
:1041300002A802F0C5FF05F1280102A803F0D3F898
:10414000144903F0DCF804230646009306A8D5E9D9
:10415000082303F086F806A9304603F0C4F80E4998
:1041600003F0CDF801460AA802F0F4FF0AA92046A0
:1041700003F0A4F80AA802F059FF06A802F056FFBF
:1041800002A802F053FF20460EB070BD65D60A08A3
:104190005ADA0A0886DA0A0820D60A0838B5054627
:1041A0000E4B044645F8043B28460D4902F088FFB3
:1041B000002323760123002263610A4B0A4923600E
:1041C0000A4B04F12800C4E9082302F079FF2846CD
:1041D000074902F0D2FF204638BD00BF74D40A0858
:1041E00065D60A08C8E50A08A8E50A080000F03FF5
:1041F000ABE50A08303070474030704770B500F1C9
:104200001C06044601234FF0FF323721304602F0EE
:1042100005F930B904F04EFF104903F018F9207E7B
:1042200070BD04F047FF0E4903F0FEF804F042FFB2
:104230000546304602F002F810220146284603F0F7
:1042400010F9284603F0F7F801230A20237604F03A
:1042500001FB236820465B689847E0E7E0E50A0831
:10426000FFE50A0838B500F11C050446284602F0AF
:104270002BF807F0C3F9C4E90C010021284602F02D
:1042800009F807F099F9C4E90E01012038BD0000D2
:1042900037B50446022504F00DFF616803F0D7F836
:1042A00004F008FF104903F0BFF804F003FFD4E95D
:1042B0000C23009503F0B2F904F0FCFE0B4903F067
:1042C000B3F804F0F7FED4E91023009503F0A6F943
:1042D00004F0F0FE064903F0BAF804F0EBFE03B078
:1042E000BDE8304003F0A7B820E60A087CE00A08E1
:1042F00095E00A082DE9F04F0C468FB004F1400616
:104300001F490546B04602F0DBFEDFF878B0DFF863
:1043100078A0DFF878903034594602A802F0D0FE39
:10432000314602A802F0DFFF514602F0E8FF042305
:1043300007460093F4E8022306A802F092FF06A9BC
:10434000384602F0D0FF494602F0D9FF01460AA8DC
:1043500002F000FF0AA9284602F0B0FF0AA802F006
:1043600065FE06A802F062FE02A802F05FFE444568
:1043700006F11006D0D128460FB0BDE8F08F00BF7F
:1043800065D60A085ADA0A0886DA0A0820D60A0820
:1043900070B505460446134B134945F8043B2846BF
:1043A00002F08EFE02230021204663610F4B21762E
:1043B00040F81C3B01F0E0FE0D4B04F130060FCB42
:1043C00086E80F000B4904F1400002F079FE0A492B
:1043D00004F1500002F074FE2846084902F0CDFEB8
:1043E000204670BD74D40A0865D60A0868E60A0833
:1043F00050E60A0831E60A0834E60A0837E60A08F1
:10440000283070473830704738B5037E044653B9BA
:104410001C3001F0EAFD054638B904F04BFE0A49AC
:1044200003F015F82576207E38BD04F043FE0749D9
:1044300003F00DF801230A20237604F00BFA236819
:1044400020465B689847EEE780E60A08B6E60A0869
:1044500038B500F11C050446284601F0EDFD07F0D3
:10446000CDF8C4E90A01284601F03AFE07F0C6F883
:10447000C4E90C01012038BD37B50446022504F01B
:1044800019FE616802F0E3FF04F014FE134902F024
:10449000CBFF04F00FFED4E90A23009503F0BEF829
:1044A00004F008FE0E4902F0D2FF04F003FE0D49AD
:1044B00002F0BAFF04F0FEFDD4E90C23009503F0EE
:1044C000ADF804F0F7FD084902F0C1FF04F0F2FD79
:1044D00003B0BDE8304002F0AEBF00BF38E10A08CB
:1044E00047E10A08FAE10A08CAE60A082DE9F04F8E
:1044F0000C468FB004F138061F490546B04602F05D
:10450000DFFDDFF878B0DFF878A0DFF878902834A6
:10451000594602A802F0D4FD314602A802F0E3FE9B
:10452000514602F0ECFE042307460093F4E8022310
:1045300006A802F096FE06A9384602F0D4FE4946C7
:1045400002F0DDFE01460AA802F004FE0AA9284690
:1045500002F0B4FE0AA802F069FD06A802F066FDAA
:1045600002A802F063FD444506F11006D0D12846AA
:104570000FB0BDE8F08F00BF65D60A085ADA0A0806
:1045800086DA0A0820D60A0870B50546134B044699
:1045900045F8043B1249284602F092FD0023237699
:1045A0000223204663610F4B04F1280640F81C3BB0
:1045B00001F006FD0C4B0FCB86E80F000B4904F110
:1045C000380002F07DFD0A4904F1480002F078FD50
:1045D0002846084902F0D1FD204670BD74D40A086F
:1045E00065D60A0818E70A0800E70A08CDE60A08AF
:1045F000D0E60A08D3E60A082030704740307047FA
:1046000038B5017E0446A9B900F11A05284600F024
:1046100056FF284600F04CFF04F04CFD064902F01E
:1046200016FF01230A20237604F014F9236820469C
:104630005B689847207E38BD88E20A0838B500F1EB
:104640001A0504460021284600F03BFF06F0C4FF8F
:104650000022154B07F02AF8C4E908010121284679
:1046600000F02FFF06F0B8FF00220F4B07F01EF8F6
:10467000C4E90A010221284600F023FF06F0ACFF3E
:104680000022094B07F012F8C4E90C010321284667
:1046900000F017FF06F0A0FF0022034B07F006F81A
:1046A000C4E90E01012038BD0000C83F73B50446BF
:1046B000022604F0FFFC6168264D02F0C8FE04F0FB
:1046C000F9FC254902F0B0FE04F0F4FCD4E908231B
:1046D000009602F0A3FF04F0EDFC294602F0B7FEBD
:1046E00004F0E8FC1D4902F09FFE04F0E3FCD4E96D
:1046F0000A23009602F092FF04F0DCFC294602F047
:10470000A6FE04F0D7FC164902F08EFE04F0D2FC9F
:10471000D4E90C23009602F081FF04F0CBFC29467B
:1047200002F095FE04F0C6FC0E4902F07DFE04F096
:10473000C1FCD4E90E23009602F070FF04F0BAFC2D
:10474000294602F084FE04F0B5FC02B0BDE87040DA
:1047500002F071BEA9E20A089BE20A08ACE20A086C
:10476000BAE20A08C8E20A082DE9F04F0C468FB0F9
:1047700004F140061F490546B04602F0A1FCDFF8EF
:1047800078B0DFF878A0DFF878902034594602A896
:1047900002F096FC314602A802F0A5FD514602F057
:1047A000AEFD042307460093F4E8022306A802F0B6
:1047B00058FD06A9384602F096FD494602F09FFDD5
:1047C00001460AA802F0C6FC0AA9284602F076FDB6
:1047D0000AA802F02BFC06A802F028FC02A802F0AE
:1047E00025FC444506F11006D0D128460FB0BDE89F
:1047F000F08F00BF65D60A085ADA0A0886DA0A0876
:1048000020D60A08F8B507461A4B044647F8043B79
:104810003846194902F054FC00232376042320462D
:104820006361164B164E492140F81A3B04F12005EE
:1048300000F037FE0FCE0FC596E80F0085E80F0099
:10484000104904F1400002F03BFC0F4904F1500014
:1048500002F036FC0D4904F1600002F031FC0C4915
:1048600004F1700002F02CFC38460A4902F085FC85
:104870002046F8BD74D40A0865D60A0868E70A0815
:1048800040E70A0830E70A0833E70A0836E70A086B
:1048900039E70A08E2E20A083030704750307047C2
:1048A000F8B5077E044667B900F11C06304601F0F2
:1048B00064F9054638B904F0FDFB0E4902F0C7FD66
:1048C0002576207EF8BD04F0F5FB0B4902F0BFFD14
:1048D000012339462376304601F08CF939463046BB
:1048E00001F032F90A2003F0B5FF236820465B6827
:1048F0009847E6E780E70A08B5E70A082DE9F84394
:1049000000F11C060546304601F08DF987B24FEAEA
:104910001049384606F050FEC5E91201A7EB090020
:1049200006F05AFEC5E90E01484606F045FE4A4625
:10493000C5E910013946304601F050F806F05EFE38
:10494000C5E90C010120BDE8F883000073B50446F9
:10495000022504F0AFFB616802F079FD04F0AAFBC8
:10496000244902F061FD04F0A5FBD4E90C23009575
:1049700002F054FE04F09EFB1F4902F068FD1F4E3A
:1049800004F098FB1E4902F04FFD04F093FBD4E9BC
:104990000E23009502F042FE04F08CFB314602F03B
:1049A00056FD04F087FB174902F03EFD04F082FB40
:1049B000D4E91023009502F031FE04F07BFB314670
:1049C00002F045FD04F076FB0F4902F02DFD04F0E6
:1049D00071FBD4E91223009502F020FE04F06AFB7B
:1049E000314602F034FD04F065FB02B0BDE87040D2
:1049F00002F021BDC8E70A08DFE70A08D8E30A0881
:104A0000E4E70A08F5E70A0801E80A082DE9F04F8B
:104A10000C468FB004F150061F490546B04602F01F
:104A20004FFBDFF878B0DFF878A0DFF8789030340B
:104A3000594602A802F044FB314602A802F053FC9A
:104A4000514602F05CFC042307460093F4E802237D
:104A500006A802F006FC06A9384602F044FC4946C6
:104A600002F04DFC01460AA802F074FB0AA9284690
:104A700002F024FC0AA802F0D9FA06A802F0D6FA3D
:104A800002A802F0D3FA444506F11006D0D1284618
:104A90000FB0BDE8F08F00BF65D60A085ADA0A08E1
:104AA00086DA0A0820D60A08F8B507461B4B0446E2
:104AB00047F8043B38461A4902F002FB00232376EC
:104AC000042320466361174B174E40F61F2140F820
:104AD0001C3B04F1300500F075FF0FCE0FC596E8C2
:104AE0000F0085E80F00114904F1500002F0E8FAC8
:104AF0000F4904F1600002F0E3FA0E4904F170007E
:104B000002F0DEFA0C4904F1800002F0D9FA3846CE
:104B10000A4902F032FB2046F8BD00BF74D40A08EF
:104B200065D60A0868E80A0840E80A080FE80A0893
:104B300012E80A0815E80A0818E80A081BE80A0833
:104B400010B50446806808B101F04CFD204610BD48
:104B50004FF0FF33C360704738B50C4D2978BFF371
:104B60005B8F11F001040FD12846FBF7A7FA58B16B
:104B70002146074802F011F82846FBF7A4FA054A37
:104B80000549034805F032F8014838BD380C0020CB
:104B90003C0C002038010020414B0A0808B5FFF703
:104BA000DBFFBDE8084002F007B82DE9F04190F9BD
:104BB0000F30054601330F4606D1FFF7CDFF3946CA
:104BC000BDE8F04102F094B8002407264FF0010838
:104BD00095F90F00002180B204F029FF95F90D002E
:104BE00008FA06F1394080B204F021FF95F90F0070
:104BF000012180B204F01BFF95F90E00640080B221
:104C0000E4B204F02DFF08B144F00104013EDFD20C
:104C10002046BDE8F08138B5044690F90C000D46F9
:104C2000431C2DD104F0BAFF217804F0BDFB04F041
:104C3000B5FF036829469B68984704F0AFFF04F06E
:104C4000BEFB04F0ABFF0322217804F0AAFB04F0C2
:104C5000A5FF03685B699847050204F09FFF03689E
:104C60005B699847054304F099FF03682D025B696F
:104C70009847054304F092FF04F0A1FB284638BD95
:104C8000002180B204F0D3FE45F080012046FFF7FA
:104C90008CFF00212046FFF788FF002105022046F7
:104CA000FFF783FF002105432046FFF77EFF2D021B
:104CB000054394F90C00012180B204F0B8FEDDE751
:104CC00010B5FA210446FFF7A6FFB0F5000F1CD07F
:104CD000218AB4F91230C1EB202252434900C1EBC2
:104CE000E0115943B4F91430121353439B1303EBEF
:104CF000E123A36003EB830303F18000001207F0BC
:104D0000D7F8034907F0DCF910BD0248FCE700BF03
:104D10000000C8420000C07F2DE9F8430446FFF7B9
:104D2000CFFFF7212046FFF776FFB0F5000F0546CD
:104D300000F0BD80A068B4F91860B0F5FA334FEA0E
:104D4000E07141F1FF32A3FB038903FB02F109EBA0
:104D5000410906FB02F1F71703FB0711A6FB0367E6
:104D60000F44390341EA16513003B4F91A6006FBC7
:104D700009FCF71708FB07CCA6FB086767444FEA56
:104D8000162C4CEA076CE68A4FEA272E1CEB000033
:104D90004EEB010E0030A0FB06014EF5004E06FB67
:104DA0000E114E10CF1756EA070100F08280B4F9B9
:104DB00020002D1100FB09FCC11708FB01CCA0FB52
:104DC0000801B4F91E80614408FB02F24FEAE87959
:104DD00003FB0922A8FB0389002391444FEA494CB5
:104DE0004FEA48421218C5F580154CEAD83CB4F990
:104DF0001C804CEB010CE9179B184FEAC17E4FEA6F
:104E0000C5704FEAC80141EB0C0CC01A40F635439F
:104E1000A0FB03014EEA550E6EEB0C0E324603FB6F
:104E20000E113B4607F084FAB4F926204D1302FB1D
:104E300005F7460B46EAC146D31706FB0377A2FBEC
:104E4000062355433B4406FB0355A2FB06232B4494
:104E5000550E45EAC315B4F924202D184FEA6366B0
:104E600041EB06065143D31700FB0311A2FB0023BD
:104E70000B44D10CB4F9224041EA43316D184FEA9A
:104E8000E34046EB00032A0AE51742EA03621912DF
:104E900020012B0143EA1473801843EB010107F052
:104EA0001DF84FF06E5107F057F8BDE8F88302483F
:104EB000FBE70020F9E700BF0000C07F0000000012
:104EC00010B50C46FFF728FF114907F0F9F8214605
:104ED00007F0F6F806F092FB09A3D3E9002304F0EB
:104EE0001DFF02460B4600200A4906F027FA06A3DA
:104EF000D3E9002306F0DAFB06F0D0FE10BD00BFB8
:104F0000EBE2361AC05BC83F0000000040A5E54058
:104F10000000C8420000F03F08B5FFF71DFEBDE8E5
:104F2000084001F057BE08B5FFF716FEBDE808407F
:104F3000282101F0B9BE08B5FFF70EFEBDE8084014
:104F4000012101F053BE08B5FFF706FEBDE8084099
:104F5000002101F059BE38B590F90C3004460133F8
:104F60000D4628D104F01AFE217804F01DFA04F051
:104F700015FE036829469B68984704F00FFE04F06D
:104F80001EFA04F00BFE0222217804F00AFA04F063
:104F900005FE03685B699847054604F0FFFD03685A
:104FA0005B69984740EA052085B204F0F7FD04F0FC
:104FB00006FA284638BD90F90F30013307D1FFF7C4
:104FC000EDFDFFF7B0FFFFF7B6FFFFF7BCFF94F969
:104FD0000C00002180B204F02AFD45F0800120463B
:104FE000FFF7E3FD00212046FFF7DFFD0021054626
:104FF0002046FFF7DAFD40EA052085B294F90C005F
:10500000012180B204F013FD94F90F300133D0D1A7
:10501000FFF782FFCDE708B5FFF79DFF40BA80B2EA
:1050200008BD000010B50446FFF74AFEFD212046EA
:10503000FFF791FFB0F5004F3AD0B4F92E30A268D7
:105040001B05C3EB8030B4F93030A2F5963202FB79
:10505000130303F58043D81394F82C305343DB1229
:1050600003F5004194F9323053439B124B439B129A
:1050700003F50012B4F92A30534303F500539B1390
:105080004343D813404394F82820C0115043A3EB66
:10509000201020EAE070B0F1C85FA8BF4FF0C85000
:1050A000001306F005FF4FF06A5106F055FF10BDE2
:1050B0000048FCE70000C07F38B590F90C3004468A
:1050C00001330D4620D104F069FD217804F06CF91C
:1050D00004F064FD036829469B68984704F05EFD70
:1050E00004F06DF904F05AFD0122217804F059F919
:1050F00004F054FD03685B699847C5B204F04EFDA7
:1051000004F05DF9284638BD90F90F30013307D11E
:10511000FFF744FDFFF707FFFFF70DFFFFF713FF52
:1051200094F90C00002180B204F081FC45F080016C
:105130002046FFF73AFD00212046FFF736FD0546E1
:1051400094F90C00012180B204F071FC94F90F3045
:105150000133D7D1FFF7E0FED4E7F32108B5FFF71D
:10516000ABFF00F0010008BD38B588210446FFF709
:1051700052FF8A2120822046FFF74DFF8C2160825A
:105180002046FFF748FF8E21A0822046FFF743FF0D
:105190009021E0822046FFF73EFF922120832046A7
:1051A000FFF739FF942160832046FFF734FF9621F3
:1051B000A0832046FFF72FFF9821E0832046FFF7CA
:1051C0002AFF9A2120842046FFF725FF9C21608436
:1051D0002046FFF720FF9E21A0842046FFF71BFFFB
:1051E000A121E0842046FFF767FFE12184F8280031
:1051F0002046FFF710FFE32160852046FFF75CFFA4
:10520000E42184F82C002046FFF756FFE5210546EF
:105210002046FFF751FF00F00F0343EA0510E62197
:10522000E0852046FFF748FFE52105462046FFF7C9
:1052300043FF031143EA05102086E7212046FFF7CC
:105240003BFF84F8320038BD70B590F90C3004464D
:1052500001330E46154616D104F0A0FC217804F067
:10526000A3F804F09BFC036831469B68984704F060
:1052700095FC036829469B68984704F08FFCBDE8BD
:10528000704004F09CB890F90F30013307D1FFF75C
:1052900085FCFFF748FEFFF74EFEFFF754FE94F93A
:1052A0000C00002180B204F0C2FB06F07F01204612
:1052B000FFF77BFC29462046FFF777FC94F90C00AA
:1052C000012180B204F0B3FB94F90F30013303D114
:1052D000BDE87040FFF720BE70BDF8B50446DB00A6
:1052E00002F0070203F03803134343EA81139DF8E9
:1052F000186080F8383090F83C309DF81C509DF8CC
:10530000207066F3471380F83C30ED0090F834309D
:1053100007F0070705F0380523F03F033D431D4321
:1053200080F8345006F00702F221FFF78DFF94F861
:105330003420204602F0070102F0380343EA41130B
:1053400043EAD212F521FFF77FFF94F83820204678
:1053500002F0070102F0380343EA411343EA9212D4
:10536000F421BDE8F840FFF76FBF30B50446017087
:1053700090F90C0085B0421C19D104F00FFC03F029
:10538000E1FFD0212046FFF797FE602840D120465C
:10539000B622E021FFF758FF4FF4967003F05AFA57
:1053A0002046FFF7DAFE054618B36420F6E7012130
:1053B00080B204F03CFB94F90C00012180B204F0AF
:1053C00025FB94F90F00431C02D1FFF7E7FBD8E758
:1053D000012180B204F01AFB94F90D00012180B282
:1053E00004F014FB94F90E00002180B204F00EFBCF
:1053F000C7E72046FFF7B8FE052320461A460321DB
:10540000CDE901550093FFF768FF012005B030BDDD
:105410000020FBE710B5044604F0C0FB03682146FA
:10542000BDE810409B68184708B504F0B7FB036857
:105430005B699847C0B208BD70B506460D46144674
:1054400004F0ACFB314603F0AFFF2846FFF7E2FF64
:10545000200AFFF7DFFFE0B2FFF7DCFF04F09EFB5E
:10546000BDE8704003F0ABBF10B5044604F096FBF6
:10547000214603F099FF0020FFF7CCFF04F08EFBDC
:1054800003F09DFF04F08AFB2146022203F089FF0E
:10549000FFF7CAFF0446FFF7C7FF40EA042080B2C7
:1054A00010BD002201700821828041708270704717
:1054B00008B504F073FBBDE8084003F043BF8180EA
:1054C0007047032910B5044622D80229828819D0D2
:1054D00003291AD0012914BF42F4834242F4A342A3
:1054E00042F00302012142F400422078FFF7A4FFBA
:1054F000607803F0AFF92078FFF7B6FFA378184182
:1055000080B210BD42F4C342EAE742F4E342E7E767
:105510000020F6E70368C9B29B6818471823037098
:10552000704700002DE9F041054604F037FB0222E8
:10553000297803F036FF642404F030FB03681B690C
:105540009847012806DC012003F084F9013CF3D1DF
:105550001E4B37E004F022FB03685B699847044662
:10556000C6B204F01BFB036804F010075B699847A0
:10557000F3096B70C4F38013AB7006F00F06C4F32D
:105580004013C4F30014EB702C718046300106F018
:1055900023F804465FFA88F00D4606F01DF8002255
:1055A0000B4B06F083F80B4602462946204605F0D1
:1055B000C7FE06F073FB034627B14FF0874106F0A4
:1055C000C1FB03461846BDE8F08100BFE1FAC7C23F
:1055D0000000B03F38B504460D4604F0DFFA2178EC
:1055E00003F0E2FE04F0DAFA0821FFF793FF04F07B
:1055F000D5FA036829469B68984704F0CFFA03F070
:10560000DEFE04F0CBFA217803F0CEFE04F0C6FAF9
:105610000521FFF77FFF04F0C1FABDE8384003F031
:10562000CEBE38B504460D4604F0B8FA217803F032
:10563000BBFE04F0B3FA036829469B68984704F060
:10564000ADFA03F0BCFE04F0A9FA2178022203F0BF
:10565000A8FE04F0A3FA03685B69984784B204F0DB
:105660009DFA03685B69984740EA042080B238BD20
:1056700010B5044604F092FA03F0A4FE18B904F041
:105680008DFA03F05FFE06212046FFF7CAFF54287B
:1056900001D0002010BD07212046FFF7C2FFB0F562
:1056A000806FF6D104F07AFA217803F07DFE04F0E1
:1056B00075FA0521FFF72EFF04F070FA03F07FFE64
:1056C0000120E7E710B50C4604F068FA03F03AFE53
:1056D00004F064FA382103F06BFE04F05FFAA100D5
:1056E000036841F002019B6801F0FE01984704F055
:1056F00055FA03F064FEBDE810404FF4FA7003F071
:10570000A9B838B504F04AFA0122392103F049FE5C
:105710000128044602D04FF6FF7038BD04F03EFA6F
:1057200003685B699847054604F038FA2246382139
:1057300003F037FE0128EED104F030FA03685B690C
:10574000984740EA052080B2E7E77047FF200A4407
:105750008A4211D011F8013B5840082310F0800F05
:1057600003F1FF334FEA400018BF80F0310013F01F
:10577000FF03C0B2F2D1EBE770472DE9F8430E46C4
:105780009046017C00AF0546C068994697F82440D2
:1057900003F00AFEB0444645E86805D0036816F8F1
:1057A000011B9B689847F6E703F009FE484603F0A3
:1057B00051F8B4B34FEA440804EB4404E4B222467F
:1057C000297CE86803F0EDFD844203D00020BD464B
:1057D000BDE8F883E31D03F4FC73ADEB030D6E46E7
:1057E000E9466C44A14515D13C6AA044444518D013
:1057F000314602222846FFF7A9FFB37803368342D9
:10580000E4D116F8032C16F8023C43EA022324F8EC
:10581000023BEBE7E86803685B69984709F8010B0E
:10582000E0E70120D3E71FB54FF44873ADF80C3023
:1058300000230222CDE9003303A90A23FFF79DFFCD
:1058400005B05DF804FB1FB5582304460374B9B9CD
:1058500004F0A4F9E060E06803F074FD48F2362338
:10586000ADF80C3003230193231D009302220A2379
:10587000204603A9FFF781FF20B9002004B010BD26
:10588000C160E8E742F62073ADF80C3001230193C4
:105890000DF10E03009302220A23204603A9FFF70D
:1058A0006CFF0028E9D0BDF80E30202BE5D1204652
:1058B000FFF7B9FFE2E71FB54FF402630222ADF82C
:1058C000083003AB009301920C2302A90446FFF7B2
:1058D00054FF28B1BDF80E302380BDF80C30638032
:1058E00004B010BD4FF4A95330B51446022285B060
:1058F000ADF8083003AB0D46009301920A2302A9CC
:10590000FFF73BFF28B1BDF80C302B80BDF80E30FF
:10591000238005B030BD4FF4F15330B552BA85B095
:105920000D46ADF80A200DF10A0102220446ADF839
:105930000830FFF70BFF2B128DF80C000DF10D0155
:10594000022220468DF80D308DF80E50FFF7FEFE36
:10595000082200238DF80F00CDE9003320460A23EA
:105960000DEB0201FFF709FF05B030BD704770472E
:105970000B4610B5282204460021184607F036F8D9
:105980000B22094907F0BDF800220121C272C16053
:10599000A1684262054A0161826100220521C2615B
:1059A000034A4161026210BD80E80A0800E0AB478B
:1059B0006F12833A10B50446102104F01CF92046FA
:1059C00010BD0000044A816002600022027342712F
:1059D00010228271704700BFA4E80A084FF6FF73D7
:1059E00099422DE9F0410446164608463FD09A42B6
:1059F0003DD06379013BDBB2042B96BF1D4A1E4F9D
:105A000052F82370A379202B2AD0302B2AD0102BC8
:105A10002AD11A4C06F048FA0546304606F044FAF8
:105A20002946804606F04CFB01464FF07E5006F0BA
:105A300089F941460646284606F084F90146304673
:105A400006F08AFA21460546384606F085FA0C49E2
:105A500006F036FB0146284606F032FBBDE8F08131
:105A6000084CD7E7084CD5E74FF07E54D2E700202A
:105A7000F4E700BF88E80A080000C8420000C841F7
:105A80000000CC430000D64300501A4610B50C4627
:105A900004F084F8292103F08BFC04F07FF80368FC
:105AA00021469B68984704F079F803F088FC04F0DD
:105AB00075F80122292103F074FC04F06FF80368E3
:105AC0005B699847C0B210BD10B50C4604F066F88B
:105AD000292103F06DFC04F061F8036821469B68FE
:105AE000984704F05BF803F06AFC04F057F80222D0
:105AF000292103F056FC04F051F803685B699847CC
:105B0000044604F04BF803685B69984744EA0020B8
:105B100080B210BD38B514460D4604F03FF8292177
:105B200003F046FC04F03AF8036829469B6898475E
:105B300004F034F8036821469B68984704F02EF877
:105B4000BDE8384003F03BBC38B5037B04460D4646
:105B500073B1204600F02EF8A279204665712A43E1
:105B6000A121FFF7D7FF2046BDE8384000F032B84A
:105B700000F003F80028ECD138BD38B5044604F035
:105B80000DF803F0DFFBB2212046FFF77FFF50281E
:105B90000ED10125204661792573FFF7D5FF2046F8
:105BA000A17900F027F8204600F014F8284638BD07
:105BB0000020FCE710B5037B044633B12046BDE866
:105BC00010409322A021FFF7A5BFFFF7D6FF0028C2
:105BD000F4D110BD10B5037B044633B12046BDE8B7
:105BE00010400022A021FFF795BFFFF7C6FF002855
:105BF000F4D110BD38B5037B04460D4673B1204681
:105C0000FFF7D8FF62792046A5712A43A121FFF74B
:105C100081FF2046BDE83840FFF7DCBFFFF7ADFF4E
:105C20000028ECD138BD38B5037B0546D3B12846F2
:105C3000FFF7C0FF0024782002F00CFE01346A79DF
:105C4000E3B29A42F7D2B4212846FFF73DFFB621CE
:105C500084B22846FFF738FF44EA00442846FFF79D
:105C6000B9FF04E0FFF789FF04460028DFD1204692
:105C700038BD70B505460C46FFF7D5FF2846FFF73F
:105C8000D2FF202206460021201D06F0AFFE24236D
:105C90002360AB6863600523A36000F03BFC320C1B
:105CA0002061B1B22846FFF799FE6061012070BD06
:105CB0000078800000F07C00704708B503F06EFFAC
:105CC000BDE8084003F03EBB2DE9F84F0646894683
:105CD00092461F460025BD422FD27C1BE4B2202CE9
:105CE00028BF202403F05AFF317803F05DFB03F056
:105CF00055FF036805EB09019B68C9B2984703F09B
:105D00004DFF03F05CFB03F049FF2246317803F0BE
:105D100048FB4FF0000803F041FF036805EB080B58
:105D20005B69984708F101085FFA8BFB44450AF864
:105D30000B00F0DC2544EDB2CDE7BDE8F88F0000A4
:105D40000423D3B506210DEB03020446FFF7BCFF85
:105D5000BDF8063022485BBA9BB25843BDF8043008
:105D60005BBA9BB2B0FBF3F005F026FC14A3D3E9B9
:105D7000002305F0C5FD03F04BFF13A3D3E9002377
:105D800005F0BEFD12A3D3E9002305F0D9FA0246BF
:105D90000B460020134905F0B3FD0FA3D3E9002300
:105DA00005F0CCFA064660680F4605F027FC02466F
:105DB0000B463046394605F0C1FA02B0D0BD00BFEF
:105DC00000000000006AF840000000000068AA40DF
:105DD00083DBB5DCE1796B3F66666666661271400F
:105DE000A08601000000F03F07B501230DF1070276
:105DF000FFF76AFF9DF8070003B05DF804FB10B5DC
:105E000000210446FFF7F0FFC0F3C00200F00103D9
:105E100043EA4203C0F3001243EA8203C00943EAA3
:105E2000C003207B03F00F0320F00F001843207302
:105E3000C0F3400010BD10B500210446FFF7D4FFA9
:105E4000C0F3C00200F0010343EA4203C0F30012B2
:105E500043EA8203C00943EAC003207B03F00F0337
:105E600020F00F001843207300F0010010BD13B59F
:105E70000446FFF7C4FF70B1082320466A4602219A
:105E8000FFF722FF207B009B10F001001BBA18BF18
:105E90009DF80500A36002B010BDF8B50746144692
:105EA0001D460E4603F07AFE397803F07DFA03F0C2
:105EB00075FE036831469B68984703F06FFE0368E0
:105EC0002A462146DB68984703F068FEBDE8F840A3
:105ED00003F075BA07B5054BFF21019304230DEBC1
:105EE0000302FFF7DAFF03B05DF804FB11E5728AE5
:105EF00007B501238DF807200DF10702FFF7CDFF4D
:105F000003B05DF804FB10B5437B044661F38403E2
:105F100000F80D3FFFF7CCFE012102462046BDE808
:105F20001040FFF7E5BF10B5437B04466FF3410314
:105F300000F80D3FFFF7BCFE012102462046BDE8F8
:105F40001040FFF7D5BF10B504460170FFF7B5FE4E
:105F50002046FFF7BFFF642002F07CFC2021204692
:105F6000FFF742FF812801D0002010BD0023F4215B
:105F70001A462046FFF791FF642002F06BFC204692
:105F8000FFF759FF0028EFD1237B1B07ECD52046F4
:105F9000FFF7C9FF20460121FFF7B5FF0120E4E725
:105FA00070B505460C46084649B106F090FD2B68D1
:105FB000024621462846BDE87040DB68184770BDA0
:105FC000704708B503F0EAFD402103F0F1F903F052
:105FD000E5FDFE21FFF79EFA03F0E0FD03F0EFF987
:105FE000BDE808400F2002F035BC10B5044603F0B0
:105FF000D5FD03F0A7F92046FFF7E3FF03F0CEFD40
:10600000402103F0D5F903F0C9FDE721FFF782FA3B
:1060100003F0C4FD03F0D3F903F0C0FD01224021D9
:1060200003F0BFF903F0BAFD03685B699847831E6C
:106030005842584110BD000010B503F0AFFD40219B
:1060400003F0B6F903F0AAFDE321FFF763FA03F0CA
:10605000A5FD03F0B4F9322002F0FCFB03F09EFD35
:106060000322402103F09DF903F098FD03681B69AA
:1060700098470028F8D003F091FD03685B699847C2
:1060800084B203F08BFD03685B69984740EA0424FF
:1060900003F084FD036824B25B699847A0B205F061
:1060A00003FF05F0ABFA0AA3D3E9002305F0FEFADB
:1060B00005F0F4FD4FF05E5105F04EFF05F09EFA3D
:1060C00005A3D3E9002305F039F905F0E7FD10BD7C
:1060D000D7A3703D0AF76540CDCCCCCCCC6C474003
:1060E00010B503F05BFD402103F062F903F056FDAB
:1060F000E521FFF70FFA03F051FD03F060F93220BC
:1061000002F0A8FB03F04AFD0322402103F049F905
:1061100003F044FD03681B6998470028F8D003F09A
:106120003DFD03685B69984784B203F037FD03685F
:106130005B69984740EA042403F030FD036824B209
:106140005B699847A0B205F0AFFE054905F004FF72
:106150004FF05E5105F000FF024905F0F3FD10BD60
:106160000000FA420000C040704710B504461421F8
:1061700003F041FD204610BD002310B54360054BE0
:106180000446036021B903F009FDE060204610BD1C
:10619000C160FBE7C0E80A08C06803F0D3B82DE986
:1061A000F84F0446884691461F4600259DF828A0D2
:1061B000BDF82CB055453FD2AAEB0506202E217A1A
:1061C000E068A8BF202603F0EFF8E06841460368C6
:1061D0009B689847E068494603689B68984794F92C
:1061E0001030013306D094F9100080B203F038FC6F
:1061F0000028F8D0E06803F0E2F8584600F082F991
:1062000094F91030013306D094F9100080B203F0F5
:1062100027FC0028F8D0F2B2217AE06803F0C1F838
:106220002E44F6B2B542C5D0E06803685B69984772
:1062300078550135EDB2F5E7BDE8F88F1FB50423B9
:106240007D220021CDE90032022203ABFFF7A7FF38
:10625000039800BA05B05DF804FB1FB58B1E032B35
:1062600016D802234FF4FA720531CDE9003203ABA0
:10627000CAB20921FFF793FF9DF80C309DF80D403D
:10628000012044EA032402F0E5FA204604B010BDE0
:106290000024FAE71FB5022301F110024FF4FA714E
:1062A000D2B2CDE900310F2103ABFFF778FF9DF8A3
:1062B0000C309DF80D40012044EA032402F0CAFA94
:1062C000204604B010BD00001FB504224FF47A73BD
:1062D0000021CDE9002303ABFFF761FF039800BA6B
:1062E00005F07AF90022044B05F0E0F905F0D6FC40
:1062F00005B05DF804FB00BF0000F03E1FB5019340
:10630000012300930DF10F03FFF749FF9DF80F00E4
:1063100005B05DF804FB2DE9F04104460F46164632
:106320001D46017AC0689DF8188003F03DF8E068CA
:10633000394603689B689847E068314603689B6864
:106340009847E068424603682946DB68984794F915
:106350001030013306D094F9100080B203F080FBB6
:106360000028F8D0E068BDE8F04103F028B87FB518
:106370000439CCB2032C064615460FD8102B0FD18A
:1063800013128DF80D3003238DF80E200821012201
:1063900000938DF80C4003ABFFF7BDFF04B070BD58
:1063A0004FF6FF7300930023FF221946284602F0A0
:1063B00045FA03128DF80D3003238DF80E0000937B
:1063C0000122082130468DF80C4003ABE4E71FB5ED
:1063D0000439C9B203290DD813128DF80D300323E7
:1063E0008DF80C108DF80E2000930222082103ABCB
:1063F000FFF791FF05B05DF804FB1FB58DF80F3076
:10640000012300930DF10F03FFF785FF05B05DF841
:1064100004FBFF237F220021FFF7EFBF38B5017295
:10642000511C04461D46027403D0002190B203F0B3
:10643000EDFA2046FFF7B0FE35B12046FFF7E9FF41
:106440004FF4FA7002F006FA7D2301220021204663
:10645000FFF754FFA0F155035842584138BD08B525
:1064600005220B460221FFF7C8FF012002F0F2F9D6
:10647000012008BD002310B501398AB0DCB2013318
:10648000CA5C2AB10DF1280C644404F8202CF5E70D
:1064900005220221009402ABFFF73DFF20460AB01F
:1064A00010BD000008B5024B1B689B68019308BD36
:1064B000B001060808B5024B1B68DB68019308BDF4
:1064C000B001060808B5024B1B681B69019308BDA3
:1064D000B001060808B5024B1B685B69019308BD53
:1064E000B001060808B5024B1B685B68019308BD44
:1064F0009C01060808B5024B1B689B68019308BD08
:106500009C01060808B5024B1B68DB68019308BDB7
:106510009C01060808B5024B1B685B69019308BD26
:106520009C01060808B5024B1B689B6A019308BDD5
:106530009C01060808B5024B1B685B6C019308BD03
:106540009C01060808B5024B1B689B6C019308BDB3
:106550009C01060808B5024B1B689B6D019308BDA2
:106560009C01060808B5024B1B68DB6D019308BD52
:106570009C01060808B5024B1B685B6E019308BDC1
:106580009C01060808B5024B1B685B6D019308BDB2
:10659000B801060808B5024B1B685B6E019308BD85
:1065A000B801060808B5024B1B68DB6E019308BDF5
:1065B000B801060808B5024B1B685B68019308BD6B
:1065C000D001060808B5024B1B685B69019308BD42
:1065D000D001060808B5024B1B685B6C019308BD2F
:1065E000D001060808B5024B1B689B6C019308BDDF
:1065F000D001060808B5024B1B68DB6C019308BD8F
:10660000D001060808B5024B1B685B6D019308BDFD
:10661000D001060808B5024B1B68DB6E019308BD6C
:10662000D001060808B5024B1B689B69019308BDA1
:10663000C401060808B5024B1B681B6A019308BD1C
:10664000C401060808B5024B1B685B6A019308BDCC
:10665000C401060808B5024B1B689B6A019308BD7C
:10666000C401060808B5024B1B68DB6A019308BD2C
:10667000C401060808B5024B1B681B6B019308BDDB
:10668000C401060808B5024B1B685B6B019308BD8B
:10669000C401060808B5024B1B689B6B019308BD3B
:1066A000C401060808B5024B1B681B6C019308BDAA
:1066B000C401060808B5024B1B68DB6C019308BDDA
:1066C000C401060808B5024B1B68DB6C019308BDCA
:1066D000AC01060808B5024B1B689B6D019308BD11
:1066E000AC01060808B5024B1B68DB6D019308BDC1
:1066F000AC01060808B5024B1B681B6E019308BD70
:10670000AC01060808B5024B1B685B6E019308BD1F
:10671000AC01060808B5024B1B689B6E019308BDCF
:10672000AC01060808B5024B1B68DB6E019308BD7F
:10673000AC01060808B5024B1B681B6F019308BD2E
:10674000AC01060808B5024B1B685B6F019308BDDE
:10675000AC01060808B5034B1B68D3F880300193E1
:1067600008BD0000AC01060808B5034B1B68D3F850
:106770009030019308BD0000AC01060808B5024B3B
:106780001B681B68019308BDB401060808B5024BDD
:106790001B685B68019308BDB401060808B5024B8D
:1067A0001B689B68019308BDB401060808B5024B3D
:1067B0001B68DB68019308BDB401060808B5024BED
:1067C0001B681B69019308BDB401060808B5024B9C
:1067D0001B685B69019308BDB401060808B5024B4C
:1067E0001B68DB69019308BDB401060808B5024BBC
:1067F0001B681B6A019308BDB401060808B5024B6B
:106800001B685B6A019308BDB401060808B5024B1A
:106810001B681B68019308BDD801060808B5024B28
:106820001B685B68019308BDD801060808B5024BD8
:106830001B689B68019308BDD801060808B5024B88
:106840001B681B69019308BDD801060808B5024BF7
:106850001B685B69019308BDD801060808B5024BA7
:106860001B689B69019308BDD801060808B5024B57
:106870001B68DB69019308BDD801060808B5024B07
:106880001B681B6A019308BDD801060808B5024BB6
:106890001B689B6A019308BDD801060808B5024B26
:1068A0001B689B6C019308BDC001060808B5024B2C
:1068B0001B681B6D019308BDC001060808B5024B9B
:1068C0001B68DB6D019308BDC001060808B5024BCB
:1068D0001B681B6E019308BDC001060808B5024B7A
:1068E0001B685B6B019308BDA801020808B5024B49
:1068F0001B685B6D019308BDA801020808B5024B37
:106900001B68DB6E019308BDA801020808B5024BA5
:106910001B681B6F019308BDA801020808B5024B54
:106920001B681B68019308BDA401060808B5024B4B
:106930001B685B68019308BDA401060808B5024BFB
:106940001B685B69019308BDA401060808B5024BEA
:106950001B689B69019308BDA401060808B5024B9A
:106960001B689B6B019308BDA401060808B5024B88
:106970001B68DB6C019308BDA401060808B5024B37
:106980001B685B6D019308BDA401060808B5024BA6
:106990001B689B6D019308BDA401060808B5034B55
:1069A0001B68D3F89030019308BD0000A4010608CD
:1069B00008B5034B1B68D3F89C30019308BD000059
:1069C000A401060808B5024B1B685B68019308BD6B
:1069D000C801060808B5024B1B689B68019308BDF7
:1069E000C801060808B5024B1B68DB68019308BDA7
:1069F000C801060808B5024B1B681B69019308BD56
:106A0000C801060808B5024B1B685B69019308BD05
:106A1000C801060808B5024B1B689B69019308BDB5
:106A2000C801060808B5024B1B68DB69019308BD65
:106A3000C801060808B5024B1B681B6A019308BD14
:106A4000C801060808B5024B1B685B6A019308BDC4
:106A5000C801060808B5024B1B689B6A019308BD74
:106A6000C801060808B5024B1B681B6B019308BDE3
:106A7000C801060808B5024B1B685B6B019308BD93
:106A8000C801060808B5024B1B689B68019308BD46
:106A9000CC01060808B5024B1B68DB68019308BDF2
:106AA000CC01060808B5024B1B685B69019308BD61
:106AB000CC01060808B5024B1B681B6A019308BD90
:106AC000CC01060808B5024B1B685B6A019308BD40
:106AD000CC01060808B5024B1B68DB6A019308BDB0
:106AE000CC01060808B5024B1B681B6B019308BD5F
:106AF000CC01060808B5024B1B68DB6B019308BD8F
:106B0000CC01060808B5024B1B681B68019308BD41
:106B1000A001060808B5024B1B685B68019308BD1D
:106B2000A001060808B5024B1B689B68019308BDCD
:106B3000A001060808B5024B1B689B69019308BDBC
:106B4000A001060808B5024B1B685B6A019308BDEB
:106B5000A001060808B5024B1B68DB6A019308BD5B
:106B6000A001060808B5024B1B681B6B019308BD0A
:106B7000A001060808B5024B1B68DB6B019308BD3A
:106B8000A001060808B5024B1B685B6C019308BDA9
:106B9000A00106088068FFF735BD70B500260446E1
:106BA0000D4640F8086FFFF715FD28462570FFF7E2
:106BB00015FE2046666070BD10B504468068FFF77C
:106BC00019FD20784FF6FF71FFF7D8FD2046FFF73B
:106BD000E1FF10BD10B504468068FFF70BFD20787B
:106BE000FFF7D4FD2046FFF7D5FF10BD38B50446AA
:106BF0000D468068FFF7FEFC20782946FFF7CEFDA2
:106C00002046FFF7C7FF38BD38B504460D468068FB
:106C1000FFF7F0FC20782946FFF7C8FD2046FFF774
:106C2000B9FF38BD30B50024400818601868E5B2D7
:106C3000884206D90134082C02D040081860F5E7D4
:106C40000725024B5B5D137030BD00BFE0E80A080A
:106C5000F0B50025044689B0806802FB01F6029574
:106C6000FFF7C8FC2946142203A8277805F0BEFECA
:106C70000B232A46384603A9ADF80C30FFF7BEFDBA
:106C800002AB0DF10702314604988DF80750FFF76B
:106C9000C9FF9DF807102078FFF790FD2046FFF709
:106CA00079FF029809B0F0BD38B5044680680D46FA
:106CB000FFF7A0FC616899B100230C4A12F8010BA0
:106CC000854202D00133082BF8D10133DBB2012217
:106CD0002046D940FFF7BCFF2046FFF75BFF38BDD9
:106CE00029462078FFF76AFDF6E700BFE0E80A08CA
:106CF00008B50078FFF76AFDC0B208BD10B50446BC
:106D0000006818B1FFF706FF0023236010BD38B5F7
:106D1000B1F904300D4683800B4653F8062F044624
:106D2000C0F806209B884381FFF7E8FF2B6813B16A
:106D3000236000232B60204638BDB1F9043010B524
:106D40000A6833B932B951F8063F03608B888380F3
:106D500010BD22B19488012C03D0042C06D004224B
:106D600005E092898C710B814A81ECE702220B814C
:106D70004FF6FF738A714B81E5E7000030B504469A
:106D800085B0084611461A460023FFF7DFFD0023B1
:106D90000193ADF808308DF80A304FF6FF73094DB6
:106DA00001A9ADF80C002846ADF80E30FFF7AFFF93
:106DB00001A8FFF7A3FF20462946FFF7BEFF2046A4
:106DC00005B030BD480C002010B5202488B0224604
:106DD0000021684605F00AFE00216846ADF8004033
:106DE000FFF7D0FB019808B010BD0078704700781D
:106DF000023801288CBF002001207047007800F085
:106E0000FD00431E584258417047000002220020F6
:106E100010B5084B084C1A60084B2060A080A07188
:106E2000A360FFF783FD2046BDE81040044A0549F2
:106E300002F0DCBE540C0020480C00200000FFFFD4
:106E40003801002085060A0810B5044605F03FFE0B
:106E5000431E20462344834206D90278197800F85D
:106E6000011B03F80129F6E710BD931E222B4FF0FA
:106E700000032DE9F0418CB00D4614468DF82C30FE
:106E800026D9002829DA2E462D230A2406F8013BAC
:106E900040424FF001080DF12B072246014601A8A0
:106EA00005F068FD029B0198092BCCBF37223022E8
:106EB000134407F8013908F101080028EDD14246D2
:106EC0003046791C05F06AFD28460CB0BDE8F0811B
:106ED0000A2AD6D018B12E46DBE70A24FAE7302377
:106EE0002E464FF002088DF82B300DF12A07E6E709
:106EF00070B50C46911E222922D8254668B1B0FBF8
:106F0000F2F602FB1600C1B2092894BF30315731A6
:106F1000C9B2304605F8011BF0E72A463021234468
:106F2000934202D902F8011BFAE75A1BAB4238BF61
:106F3000002200232046AB54FFF786FF204670BD99
:106F40000020FCE738B5031E0C4615460DDA2D224D
:106F5000B3F1004F0CBF1846584201230A702A466D
:106F60001944FFF7C5FF204638BD0123F9E708B5EE
:106F70000123FFF7BDFF08BD2DE9F04707460D4689
:106F800016461C46002200233846294604F000FE1F
:106F900020B12D2305F1004504F8013B00234FF0FB
:106FA000010A0A22D9B28E4203D902FB0AFA01333E
:106FB000F8E7504604F010FB3A462B4604F076FB07
:106FC0008046894605F050FA05460F4604F038FB26
:106FD00002460B464046494604F0B0F90022124BE7
:106FE00004F0EAFD10B1013547F10007524628468A
:106FF0003946D31705F0ECF90123154621460A223C
:10700000FFF776FF6EB1204605F061FD2E232118B3
:1070100023540A2233462846BDE8F0470131FFF7E2
:1070200067BFBDE8F08700BF0000E03F10B5044631
:107030000068FFF76FFD204610BD10B504460068DC
:1070400008B1FFF767FD0023C4E90133236010BDD9
:1070500038B504460D4600680131FFF763FD10B1F5
:10706000C4E90005012038BD10B50368044623B10A
:1070700043688B4201D3012010BD2046FFF7E8FF93
:107080000028F9D0A368002BF5D122681370F2E72D
:1070900070B50E46114604461546FFF7E5FF20B9C8
:1070A0002046FFF7CAFF204670BD2A4631462068B9
:1070B000A56005F073FC00212268A368D154F2E7B3
:1070C00038B5002304460D46C0E9003383600373DE
:1070D00039B1084605F0FBFC294602462046FFF779
:1070E000D7FF204638BD38B5054600680C4668B164
:1070F0006A688B689A4207D3096805F0C4FCA368E4
:10710000AB600023A36038BDFFF704FD23682B604C
:1071100063686B60A368AB600023C4E90033F1E7E8
:10712000002310B50446C0E9003383600373FFF702
:10713000DAFF204610BD884210B50B46044604D045
:10714000096821B19A68FFF7A3FF204610BDFFF739
:1071500074FFFAE7002310B50446C0E900338360EA
:107160000373FFF7E8FF204610BD884210B50446C0
:1071700001D0FFF7B8FF204610BD38B505460C46D4
:1071800049B1084605F0A3FC214602462846FFF710
:107190007FFF284638BDFFF750FFFAE71FB50446CA
:1071A00000230846C4E90033A360237301A9FFF755
:1071B000DEFE204601A9FFF7E0FF204604B010BD27
:1071C00010B5002304468AB0C4E90033A3602373DA
:1071D000084601A9FFF7B6FE204601A9FFF7CDFF3B
:1071E00020460AB010BD10B5002304468AB0C4E999
:1071F0000033A3602373084601A9FFF736FE20463B
:1072000001A9FFF7BAFF20460AB010BD10B5002350
:1072100004468AB0C4E90033A360237308460123FF
:1072200001A9FFF765FE204601A9FFF7A6FF20464A
:107230000AB010BD002330B504468BB0C0E900335E
:1072400083600373D5B2084604F0D8F92A4601AB2F
:10725000FFF792FE204601A9FFF78FFF20460BB0F3
:1072600030BD10B51946044600238AB01046C4E963
:1072700000339DF83020A360237301ABFFF77CFE41
:10728000204601A9FFF779FF20460AB010BD70B56E
:1072900005460E4609B9002070BD6AB184681444E1
:1072A0002146FFF7E1FE0028F5D02868AB6831469B
:1072B000184405F0E8FBAC600120EDE78A68096836
:1072C000FFF7E5BF13B50A22044608466946FFF7F3
:1072D00039FE684605F0FBFB694602462046FFF78B
:1072E000D6FF02B010BD10B58A6809680446FFF7E2
:1072F000CEFF10B92046FFF7A0FE204610BD38B5DE
:1073000004460D4621B92046FFF797FE204638BDBA
:10731000084605F0DCFB294602462046FFF7B7FF8A
:107320000028F0D0F2E710B50446FFF7CBFF10B904
:107330002046FFF782FE204610BD024600680B463D
:10734000096858B141B9916851B10078704798689F
:1073500038B109784842704705F08BBB0029F6D157
:107360000846704708B582688B689A4205D1FFF7D6
:10737000E4FFB0FA80F0400908BD0020FCE708B542
:1073800082683AB921B10878B0FA80F0400900E08B
:10739000012008BD006809B90078F5E705F069FB30
:1073A000F2E783688B4203D9006810B1405C7047F4
:1073B00000207047FFF7F5BFF8B51D469A4288BF19
:1073C00013460F46144688BF2C460B4988BF1D46FE
:1073D0000646FFF775FEBA68A2420AD33968AA4288
:1073E00094BFC4EB0202C4EB050230462144FFF710
:1073F0004FFE3046F8BD00BF65D60A08F8B5064610
:107400000D4600248F18BD420CD0336830469B686F
:1074100015F8011B9847031E01DB1C44F3E7002C01
:1074200008BF1C462046F8BD08B5FEF7B9FD08BDEB
:1074300003689B68184738B50D210546FFF7F8FF2C
:107440000A2104462846FFF7F3FF204438BD38B52B
:107450000546FEF7A5FD04462846FFF7ECFF20444D
:1074600038BD0023012A98BF0A2230B58BB00C46E4
:107470008DF8243009A92546B4FBF2F404FB12531D
:10748000DBB2092B94BF30333733DBB2AA4201F8A9
:10749000013DF0D9FEF784FD0BB030BD2DE9F74F6B
:1074A00005461946104692461F469DF8306004F086
:1074B00097FB40B150492846FEF772FD044620462E
:1074C00003B0BDE8F08F27F000444FF0FF32504684
:1074D00021464A4B04F084FB48B94FF0FF32504636
:1074E0002146464B04F05EFB08B94549E3E74FF0FF
:1074F000604250463946434B04F068FB08B14249AC
:10750000D9E74FF0604250463946404B04F040FB0B
:107510000028F4D1002200235046394604F038FBFD
:10752000044630B12D212846FFF782FF044607F1BB
:1075300000474FF0000B00204FF000083449DFF8FF
:10754000D8905FFA8BF39E4206D942464B4604F030
:10755000D7F90BF1010BF4E73B46524603F0F0FE7E
:107560008946804604F07AFB074604F025F8024677
:107570000B464046494603F0E1FE0A228046894612
:1075800028463946FFF76DFF044426B128462149B5
:10759000FEF706FD04444FF0000ADFF87CB0013E20
:1075A000F6B2FF2E8BD052465B464046494604F069
:1075B0007DF88046894604F029FB071E19DA2D2143
:1075C0002846FFF735FF034679420A2228460193F1
:1075D000FFF747FF019B034438461C4403F0FCFFC0
:1075E00002460B464046494603F0A8FE80468946BF
:1075F000D5E739460023E8E7E8E80A08FFFFEF7F10
:10760000ECE80A08FFFFEF41F0E80A08FFFFEFC1CE
:107610000000E03FC8D70A08000024409DF8001091
:107620000091FFF73BBF2DE9F04186B000AF054662
:107630000E46381D142114463B60FFF783FA1328C9
:107640000ED82846391DFEF7ABFC04461EB128466D
:10765000FFF7F1FE044420461837BD46BDE8F0812F
:1076600000F1080323F00703E846ADEB030D2246C3
:10767000411C3B686846FFF765FA69462846FEF7F5
:107680008FFC0446C546E1E7002340681A461946C8
:10769000FFF7B8B980680368DB6818477047084689
:1076A00011B10B685B6818477047704770477047A7
:1076B00038B504460D4600682E2105F0D0F9236840
:1076C0000246C01A286020B1137803B10132206845
:1076D000226038BD10B504460C2102F08CFA204619
:1076E00010BD10B50446042102F085FA204610BDF5
:1076F00010B50446042102F07EFA204610BD08B5FC
:1077000005F0B7F9B0FA80F0400908BD10B50C4695
:1077100001F0D0FC844205D101F0CCFCBDE8104062
:1077200001F0BABC01F0F6FC844202D101F0F2FC97
:10773000F4E701F073FD844205D101F06FFDBDE86F
:10774000104001F068BD2CB123682046BDE8104010
:107750005B68184710BD38B5054608460C4605F06D
:10776000B6F9214602462846BDE8384002F0F9B88D
:1077700070B5044608460D4605F0A9F9236802468F
:1077800029462046BDE87040DB68184707B5036806
:107790008DF807100122DB680DF10701984703B04F
:1077A0005DF804FB0EB403B503AB53F8042B0021C2
:1077B000006A0193FFF737FF02B05DF804EB03B0F6
:1077C000704700002DE9F74F4FF01408D0E90095FD
:1077D00017464C4608FB05F50093AB10174D5D436B
:1077E000002D23DD6E1008FB06F004EB000ABAF84A
:1077F00004B03A465F4528BF5A462058019105F02B
:107800006EF90123019978B95F4503D1009A13708D
:107810003546E5E78CBF012000200028F8D0AE1BDC
:107820000AF11404013EF3E7C00FF6E7A4EB0904E4
:107830000248A410604303B0BDE8F08FCDCCCCCC9F
:107840007FB50369067E019103B3F9B1002500F10C
:107850000C04039503A901A8FFF72AFF0146A8B16C
:107860000DF10B032046039A8DF80B50FFF7AAFF8A
:107870009DF80B3053B11423246803FB0044B4F982
:1078800006300834002BA8BFDEB2E3E7304604B070
:1078900070BD000010B50A4C2378BFF35B8FDB0787
:1078A0000BD42046F8F70AFC38B12046F8F70BFC59
:1078B000044A0549054802F099F9044810BD00BF83
:1078C0005C0C002038010020AD760A08580000202A
:1078D00010B50A4C2378BFF35B8FDB070BD420462F
:1078E000F8F7ECFB38B12046F8F7EDFB044A054900
:1078F000054802F07BF9044810BD00BF600C002071
:1079000038010020AB760A085C00002038B500255D
:107910000446C0E90055C0E904558560856140F81A
:10792000245FFEF757FEFFF7B5FFE061FFF7D0FFDA
:1079300025732062204638BD10B50B4C2378BFF369
:107940005B8FDB070ED42046F8F7B8FB50B1074831
:10795000FFF7DCFF2046F8F7B6FB054A0549034868
:1079600002F044F9014810BD580C0020680C0020BA
:1079700038010020FB7D0A080023024A024903481F
:10798000FEF7C4BFD97C0A08657C0A08E57B0A08B3
:1079900000231A4619461846FEF7B8BF0B68036065
:1079A00013B15A6801325A60704737B504460D6901
:1079B00051F8043B01A80093FFF7F0FF6A462946FF
:1079C000204601F079FE01A8FAF712FB204603B029
:1079D00030BD37B504468D6851F8043B01A80093CB
:1079E000FFF7DCFF6A462946204601F0E1FE01A8C8
:1079F000FAF7FEFA204603B030BD37B50446CD682D
:107A000051F8043B01A80093FFF7C8FF6A462946D6
:107A1000204601F0A9FE01A8FAF7EAFA204603B0D1
:107A200030BD000070B58AB00D46014604A8FFF7CE
:107A3000D0FF144E04A801F0D3FEE8B1684604A9B3
:107A4000FFF7DBFF31460298FFF759FE044610B1FD
:107A50002C1E18BF012401A8FAF7CAFA002CE9D09D
:107A6000684604A9FFF7A1FF684601F05CFE2860A4
:107A700001A8FAF7BDFADDE705A8FAF7B9FA0AB0E6
:107A800070BD00BFF4E80A0837B50C461949204616
:107A9000154604F0EEFF48B901F00CFB4FF4165107
:107AA00001F0F6FA01F006FB03B030BD20461249A2
:107AB00004F0DFFF40B901F02DFB4FF4165101F047
:107AC000E7FA01F027FBEFE720460C4904F0D1FF6D
:107AD00070B94FF4165301A928460193FFF7A2FF8E
:107AE00001F09CFB019901F093FB01F097FBDBE7B0
:107AF0000020D9E7F9E80A0800E90A0803E90A08BA
:107B000070B51426D0E90053044606FB0356AE4276
:107B100005D005F10800FFF7F3FF1435F7E72068FB
:107B2000FEF7F8FF204670BD70B50446D0E900535B
:107B300005EB0316AE4204D02846FFF777FA10355E
:107B4000F8E72068FEF7E6FF204670BD10B5044652
:107B50000C30FFF7D5FF2046FFF7E6FF204610BDAB
:107B600010B50446034B40F8043BFFF7EFFF2046F7
:107B700010BD00BF90DF0A0810B50446FFF7F0FF04
:107B80002046242102F037F8204610BD10B50446E7
:107B9000024B0360FFF7E4FF204610BD9CE90A0892
:107BA00010B50446FFF7F2FF2046242102F023F827
:107BB000204610BD0022C0E90022826010B50C688A
:107BC0000A6004604C684A6044608C688A60846023
:107BD00010BD10B5044603681868FEF713FD204673
:107BE00010BD00002DE9F04F87B003931C4B804679
:107BF0005B688946C3F3080316466BB9FFF79CFE22
:107C0000044600F12403406A0593FEF7F3FC237B4E
:107C10002BB105A8FFF7DDFF07B0BDE8F08F01230A
:107C20005FFA89F92373D4E9005305EB830AAA4567
:107C300012D055F8047B3146381DFFF701FE81450F
:107C4000F5D3039A3B680092D3F808B04A4633460E
:107C500041463846D847EAE700232373D9E700BFF7
:107C600000ED00E02DE9F74F9B461A4B80465B681C
:107C70008946C3F3080316466BB9FFF75DFE044659
:107C800000F12403406A0193FEF7B4FC237B2BB17F
:107C900001A8FFF79EFF03B0BDE8F08F0123F6B205
:107CA0002373D4E9005305EB830A55450ED055F8EC
:107CB000047B5946381DFFF7C3FD8642F5D33B6868
:107CC0004A4641463846DB689847EEE7002323736F
:107CD000DEE700BF00ED00E02DE9F341164B05465D
:107CE0005B680F46C3F308031BBBFFF725FE044682
:107CF00000F12403406A0193FEF77CFCD4E90063A1
:107D0000462406EB8308B04509D101A8FFF761FFBF
:107D1000A542B4BF0020012002B0BDE8F08156F8B2
:107D2000040B39460430FFF78BFD8442A8BF04469C
:107D3000E9E70020F0E700BF00ED00E00B4670B57A
:107D4000044605C800EB8202824207D001461D6846
:107D500051F8046BAE4203D00846F5E7002070BD31
:107D6000521A04F029FE63680120013B6360F6E7C4
:107D70001FB5044600F12403406A01910393FEF706
:107D800039FC204601A9FFF7D9FF18B163680BB988
:107D9000FFF7FEFD03A8FFF71CFF04B010BD18237A
:107DA00070B50446D0E9045603FB0656AE4215D022
:107DB000204605F11001FFF7C1FF63680BB9FFF71B
:107DC000E7FDE06929690368DB689847696919B1CB
:107DD000206A0368DB6898471835E7E71826D4E976
:107DE000045306FB0356AE4204D02846FFF71EF9A3
:107DF0001835F8E70023636170BD73B50446FFF7DB
:107E0000C7FD04F12403606A0193FEF7F3FB2046EB
:107E1000FFF7C5FF01A8FFF7DCFE606A08B1FEF7B7
:107E2000E1FBD4E90453182606FB0356AE4204D006
:107E30002846FFF7FBF81835F8E72069FEF76AFED9
:107E40002068FEF767FE204602B070BD8842F8B594
:107E500006460C46154627D9904226D20026A2F1A6
:107E600014056C1AA1F114070444AF423DD0A4B12B
:107E70002B682360AB88A380B5F90630C4E902669D
:107E80002661E380AB68A360AE60E368EA68E26005
:107E9000EB6023692A6922612B6105F10800FFF775
:107EA0002FFE143D143CE0E71FD00027AC421CD04D
:107EB000A6B123683360A388B380B4F90630C6E95D
:107EC00002773761F380A368B360A760F368E26864
:107ED000F260E360336922693261236104F10800D2
:107EE000FFF70EFE14341436E0E7F8BDF8B5D0E91C
:107EF00001539D4204460E4617460DDB0135002D09
:107F0000006804DDA900FEF70DFE18B9F8BDFEF704
:107F100001FE00202060A5602568626805EB8601EF
:107F20009200A2EB8602081D04F046FD45F826707B
:107F30006368012001336360E8E737B5044600F168
:107F40002403406A0D460193FEF754FBD4E9003147
:107F500003EB810083421A460AD012680433AA4216
:107F6000F8D101A8FFF735FE0025284603B030BD43
:107F70002A462046FFF7BAFF05460028F1D063687D
:107F8000012B01D1FFF7F8FC01A8FFF722FEECE777
:107F90008842F8B504460D46164614D9904213D2CD
:107FA000A2F11006751AA1F110072C44B74218D09F
:107FB0001CB131462046FFF7B3F83046FFF736F8DC
:107FC000103E103CF2E70CD0B5420AD01CB1294655
:107FD0002046FFF7A5F82846FFF728F8103510349B
:107FE000F2E7F8BD70B50E1E054611DD3001FEF753
:107FF00089FD044658B1D5E9001201EB0212FFF7E2
:10800000C7FF2868FEF786FD01202C60AE6070BDBA
:108010000024F6E72DE9F04F91460023462297B061
:108020000391D9F8041004469942C0E90033C0E92D
:108030000233C0E90433CDE90A3302760C9323DC22
:10804000D9E90057142303FB0757AF423BD0294619
:108050000DA8FFF765F80DA911A80B9EFFF760F8B2
:10806000DDE90B1399421BDA0A9B0B9A03EB061608
:10807000314603EB021206F11000FFF789FFEEB95B
:108080000B9B01330B9311E00AA8FFF7ABFF00280D
:10809000D6D10AA8FFF748FD204617B0BDE8F08FFB
:1080A00001310AA8FFF79EFF0028DDD111A8FEF7D5
:1080B000BDFF0DA8FEF7BAFF1435C6E7304611A97B
:1080C000FFF72EF8DCE700264FF0140A3746CDE91B
:1080D0000D660F96DDE90A239E4280F297803301F8
:1080E000D35808930BB90136F4E70AFB06F3099756
:1080F00002930DAD09A908A8FFF7DAFA8346002814
:10810000F1D00146099A28460DF11F038DF81F7022
:10811000FFF758FB9DF81F800190B8F1000F66D162
:10812000BDF82430CDE91388ADF848304FF6FF7321
:10813000CDF844B0ADF84A30CDF85480D5E90132DD
:1081400093421ADB03F1010BBBF1000F4ADD0AFB7E
:108150000BF0FEF7D7FC0490002845D0D5E90012BB
:108160000AFB0212FFF772FE049B28680493FEF7D5
:10817000D1FC049BC5F808B02B60019BD5F800B07A
:108180000AFB03F36A680BEB030101F114000AFB1D
:1081900002B204910593FFF759FE0499A9B1119A0F
:1081A000059B4BF80320BDF848308B80BDF94A3061
:1081B000C1E902770F61CB80139B8B60149B1397EF
:1081C000CB60159B14970B6115976B6801336B603F
:1081D00013A8FFF795FCB8F1000F08D00DA8FFF722
:1081E0008FFC56E74346C0E74FF00108F0E7019BDC
:1081F0002D680AFB0355089B1B782BB9D9F8003072
:10820000029A13441B7CEB80083573E721682260D7
:1082100062686360A3680B920C9A0C93E368A26097
:108220000D9A0D932369E2600E9A0E9363692261A1
:108230000F9A0F93039B0A9162612376CEE70000A9
:108240007FB505460E460446084B114645F8043BEB
:1082500001A8FAF764FE314601AA2846FFF7DAFEC4
:1082600001A8FAF71BFE204604B070BD90DF0A0893
:10827000F0B50F4687B03846254916461D460C9C7A
:1082800004F0F7FB00BBE4B129466846FFF792FC17
:108290002420204901F0B1FC054670B1694603A8CD
:1082A000FAF73DFE314603AA2846FFF7C9FF03A8A7
:1082B000FAF7F4FD184B2C622B606846FAF7EEFDD6
:1082C0002C46204607B0F0BD3846144904F0D1FBD7
:1082D000E0B9002CF5D029466846FFF76BFC242056
:1082E0000C4901F08AFC05460028E6D0694603A83F
:1082F000FAF715FE314603AA2846FFF7A1FF03A8A7
:10830000FAF7CCFD064B2C622B60D6E70024D8E7A9
:108310000BE90A0821EB0A089CE90A080FE90A0898
:1083200084E90A08014B024A1A607047640C002075
:1083300020E90A082DE9F047089DD0F8209004466E
:108340000E461746984600F0B5FE81454DD02B7974
:10835000190704D520466A695449FFF723FAB8F192
:10836000000F0DD05B212046FFF710FA4146204652
:10837000FFF7FEF9236802222046DB684C49984744
:108380002B79DA0724D5D5F808802F21404604F050
:10839000CBFB08B100F1010841462046FFF7E8F9A0
:1083A0002B799B0708D53A212046FFF7EFF92046A5
:1083B000EA684049FFF7F6F92A79236812F0040FBA
:1083C00020464FF00202DB6814BF3B493B49984707
:1083D0002B7958071DD529690B461A4613F8010B4E
:1083E00060B1202808D11946F7E7354801F0A9F80F
:1083F0000028ACD0BDE8F0872828EED12368521AB7
:108400002046DB689847236804222046DB682D4914
:10841000984700213846FEF771FA01462046FFF7DB
:10842000A7F9236802222046DB68244998471EB139
:1084300031462046FFF79CF92B7913F0300F2CD0F2
:1084400023682149DB680222204698472B79D90608
:108450000AD52368072220461C49DB689847204636
:10846000AA691B49FFF79EF92B799A0611D5DB06FD
:1084700005D5236802222046DB680F499847236808
:10848000204614490A22DB6898472046E969FFF72D
:108490006FF95D212046FFF779F923682046BDE892
:1084A000F0470222DB680C49184700BF24E90A089C
:1084B0002BE90A082EE90A0820D60A0818D70A0864
:1084C000400D002031E90A0836E90A0839E90A08AE
:1084D00041E90A0844E90A084FE90A082DE9F0438E
:1084E00085B0D0F8209005460F4690461E460C9C5D
:1084F00000F0E0FD814505D1494801F022F800284F
:1085000040F08A804FF000092B6A464A01A8019288
:1085100003938DF8089001F08CF949464046FEF728
:10852000EDF980464049012201A801F00BFA4146CD
:10853000FFF711F93FB13D49012201A801F002FA0C
:108540003946FFF708F93EB13949012201A801F087
:10855000F9F93146FFF7FFF82379DF070ED5A66852
:108560002F21304604F0E0FA00B1461C31490122C7
:1085700001A801F0E7F93146FFF7EDF823799E07EE
:1085800007D52D49022201A801F0DCF9E16801F0CC
:108590005DF92379580714D5266933461F4613F829
:1085A000012B2AB1202A01D11E46F7E7282AF5D14E
:1085B0000222224901A801F0C5F93146BA1B01F097
:1085C000D0F92379190707D51D49012201A801F027
:1085D000B9F9616901F04CF92379DA0608D504226A
:1085E00018490DEB020001F0ADF9A16901F02EF977
:1085F00023799B0607D51449062201A801F0A2F9A8
:10860000E169FFF7A8F801A801F0FDF8286A022245
:1086100003680E49DB68984705B0BDE8F08300BFEA
:10862000400D00206CE90A0810E80A08F8E10A0881
:10863000E3E30A0819E80A0852E90A0855E90A08B2
:1086400010E20A0858E90A085DE90A084FE90A0831
:108650002DE9F041154ADFF86080D2E90032C018F8
:1086600042EB0101124A8CB0D2E90032C61841EB4C
:108670000207D8E90023BB4208BFB24213D003A9C6
:108680006846CDE9006704F07FF8089B094D03F2C6
:108690006C7303AC08930FCC0FC50FCC0FC5C8E9A2
:1086A000006723682B600CB0BDE8F081C00C00208F
:1086B000B80C0020940C0020C80C002008B5002045
:1086C000FEF710FA28B1FEF7EDF980F00100C0B214
:1086D00008BD0120FCE7000008B5FFF7B9FF024B19
:1086E0001869013008BD00BF940C002010B50A497C
:1086F000044603F0CFFD68B92046084903F0E8FDC1
:1087000040B90749204603F027FC03F079FE054BEA
:10871000C3E9000110BD00BF000040C1000060417E
:1087200000006145C00C002010B50020FDF712FFCD
:108730000446A0B9FEF7F2F8012810D12046FEF752
:1087400025F960B9FFF7BAFF10B9FEF79BF9F9E711
:10875000FFF7B4FFBDE810400020FDF7FBBE204648
:1087600010BD1FB5FFF7E0FF10220021684604F09E
:108770003DF900216846FDF7FDFE009805B05DF863
:1087800004FB000008B5FFF7ECFFC117FFF760FF1F
:10879000014B986808BD00BF940C002008B5FFF796
:1087A000E0FFC117FFF754FF014B586808BD00BF39
:1087B000940C002008B5FFF7D4FFC117FFF748FF5E
:1087C000014B186808BD00BF940C002008B5FFF7E6
:1087D000C8FFC117FFF73CFF014BD86808BD00BFB9
:1087E000940C002008B5FFF7BCFFBDE80840C11796
:1087F000FFF772BF08B5FFF7B4FFC117FFF728FFF7
:10880000014B586908BD00BF940C002008B5FFF764
:10881000A8FF034B034A1B6812681344184408BDA1
:10882000C00C0020B80C0020024B1A68024B1A60E2
:10883000704700BF60000020900C00208A4210B5F5
:1088400007D0029C401AE41A6043521A90FBF2F0DF
:10885000184410BD0021FEF771B810B50446F7F7B3
:108860005DFF204610BD13B56C460B46024603C89B
:1088700084E8030093E8030082E8030094E803001F
:1088800083E8030002B010BD00230348034A0449F3
:10889000836001F0ABB900BFD00C0020380100208C
:1088A0005B880A08014B1860704700BF6800002011
:1088B00008B5134B43B100F0FDFB03681B699847F3
:1088C000002801DDAFF300800E4B43B100F0A6FCA1
:1088D00003681B699847002801DDAFF300800A4B4D
:1088E0000BB1AFF30080094B43B100F013FC0368F8
:1088F0001B699847002801DDAFF3008008BD00BF69
:108900000000000000000000000000000000000067
:1089100008B5FFF7CDFFFDF7FDFD014B186008BD61
:10892000480D00200248034A0349121A04F036B8E1
:1089300000400240FC4B024018ED0A08002307B536
:108940001A466FF077010093FEF732F803B05DF836
:1089500004FB000007B543880A2B08D0502B0BD12D
:10896000094B1B684BB103B05DF804EB1847FFF7E8
:10897000E5FF03B05DF804FB00231A466FF07701B2
:108980000093FEF715F8F4E7E40C002038B5124C1C
:1089900000211248FEF7F6F8114D2368AB420CBFD8
:1089A000012200220F4B1A7002D0FFF7BBFF256097
:1089B000FDF798FD044604F021F80B4B13B1204657
:1089C000AFF3008000210848FEF794F8BDE8384076
:1089D00000210648FDF7E2BFF84B0240A5880A08CF
:1089E0001E1C279AE00C00200000000055890A0890
:1089F00070470020704710B50446102101F0FBF8C5
:108A0000204610BD08B5FFF7F6FF08BD002230B5BF
:108A10004FF69C74026084808D888C800C68858001
:108A200004600A6030BD10B504460068FEF772F8B5
:108A3000204610BD38B5C468F4B12378022B03D1A9
:108A400004F10C00FFF7EFFF656835B12846F7F732
:108A500065FE1021284601F0CEF8A56835B12846FC
:108A6000F7F75CFE1021284601F0C5F82046BDE866
:108A70003840142101F0BFB838BD73B50E46044626
:108A800056F8043B0D4601A831460093FEF786FFD9
:108A9000009B019A23600023626001A80193009368
:108AA000F9F7A6FA3046F9F7A3FA2846082101F0AB
:108AB000A2F8204602B070BD826810B50AB901F074
:108AC000A3F8C368BDE81040184708B5006800F176
:108AD0001001FFF7F1FF08BD826810B50AB901F077
:108AE00093F8C368BDE81040184708B5006800F166
:108AF0001001FFF7F1FF08BD38B5002304460360FD
:108B000010200D46F7F7C9FA28B10123C0E9013357
:108B1000024BC56003602060204638BD00EA0A08A9
:108B200038B5002383608B6804460D462BB10222C2
:108B30009847EB68E360AB68A360204638BD00004F
:108B4000F0B589B004686846FFF760FF4FF0020394
:108B5000D4E84F2F002A03D1C4E8413F0029F7D1C0
:108B600025D104F10C0569462846FFF74FFF012384
:108B7000BFF35B8F63700020BFF35B8F04F10803CA
:108B800053E8006F43E80002002AF9D1BFF35B8F7E
:108B90006EB1FDF7EBFE78B129463046FFF78CFF4A
:108BA0003046F7F7BBFD1021304601F024F8684647
:108BB000FFF739FF09B0F0BD314602A8FFF7B0FF5B
:108BC000E068B4F9105008B103F066FF0690102079
:108BD000ADF81C50F7F761FA0546E8B10027876049
:108BE0001820F7F75AFA044688B10146876002A8B0
:108BF000FFF739FE049BA268A360059B0492E2681C
:108C000006A9E36004F110000592FFF7FFFE084B90
:108C10002C60EB60074BAB6006A8FFF704FF02A8CF
:108C2000F7F77CFD002229460348FDF7A7FEB7E7CA
:108C3000CB8A0A08618D0A08A1920A082DE9F0473B
:108C40008AB005460C46174698469DF84890FDF7B1
:108C500029FF07AE824638BB4FF62E73059005A953
:108C60003046ADF81830FFF7D1FE1420F7F715FAAB
:108C7000044648B1022303700123C0E901AA4370EE
:108C800031460C30FFF7C2FE2846214640F8044B1F
:108C9000FFF732FF3046FFF7C6FE05A8FFF7C3FE19
:108CA00028460AB0BDE8F0870C234FF0000A1420D4
:108CB000CDE908AA0793F7F7F0F9014628B1C0E912
:108CC00001AA80F800A080F801A004A80391FFF792
:108CD00013FF224B08200893F7F7DFF9824628B1EB
:108CE000039B04A940F8043BFEF758FE4246394670
:108CF000204600965FFA89F3CDF824A0FDF7DAFE4E
:108D0000B8B9039B5B7803F0FF0293B94FF69C73ED
:108D100005A903A80592ADF81830FFF711FF05A8C3
:108D2000FFF781FE05A80999FFF7A7FE06A8F9F746
:108D30005FF9039B04A906A80593FEF72FFE059B88
:108D4000069A2B6000236A6006A806930593F9F73C
:108D50004FF904A8F9F74CF9A2E700BF258E0A08DD
:108D6000022AF8B5054607D0032A18D0012A01D1F6
:108D70000B6803600020F8BD18200E68F7F78DF926
:108D8000044650B13146FFF7CBFE3069B6F9147096
:108D900008B103F081FE2061A7822C60EAE7046835
:108DA000002CE7D004F11000FFF73DFE2046F7F756
:108DB000B5FC1821204600F01EFFDBE738B5002384
:108DC00083608B6804460D462BB102229847EB68FE
:108DD000E360AB68A360204638BD022A70B5044644
:108DE00007D0032A12D0012A01D10B6803600020AA
:108DF00070BD14200E68F7F750F9054620B13146D2
:108E0000FFF7DCFF337C2B742560F0E70468002C4F
:108E1000EDD02046F7F782FC1421204600F0EBFE4F
:108E2000E5E70000F0B5044689B00D4601A81146FB
:108E3000FFF723FEA4B124B21DB1284603F02CFE97
:108E4000054601A803A90395ADF81040FFF778FE89
:108E500003A8FFF7E8FD02A8F9F7CAF809B0F0BDCA
:108E60000123019DD5E84F2F002A03D1C5E8413FDA
:108E70000029F7D1EFD12B73BFF35B8F6B70BFF37A
:108E80005B8F2B1D53E8006F43E80042002AF9D1A5
:108E9000BFF35B8F002EDED02046FDF767FD07464F
:108EA00060B1304605F10C01FFF716FE3046F7F7CA
:108EB00035FC1021304600F09EFECCE7314603A879
:108EC000FFF77CFF2B7B10208DF81C30F7F7E5F8BF
:108ED0000546D0B187601420F7F7DFF8044678B173
:108EE0000146876003A8FFF7BEFC059BA268A3604C
:108EF000069B0592E268E3609DF81C30069223749D
:108F0000064B2C60EB60064BAB6003A8F7F706FC42
:108F1000002229460348FDF731FDC7E7EB8A0A081E
:108F2000DB8D0A08A1920A08704710B50446182183
:108F300000F061FE204610BDF8B50E46002400F199
:108F40000807051D17F8011D0A223046FEF789FAA9
:108F5000AF42044401D12046F8BD002CF2D02E21AE
:108F60003046FEF765FA0444ECE7000010B504460D
:108F7000044B1122002140F8043B03F037FD20464A
:108F800010BD00BF1CEA0A080346074A10B543F8A3
:108F9000042B01F1100251F8044B914243F8044BA9
:108FA000F9D10A781A7010BD1CEA0A08024AC0E911
:108FB00000210422027570471CEA0A0810B59DF8CA
:108FC000084044EA0324042344EA024444EA0164D6
:108FD0004460037510BD000037B5044D05609DF871
:108FE00018500095FFF7EAFF03B030BD1CEA0A08ED
:108FF00041747047704708B50021007CFDF72EFCD6
:1090000040EAE07008BD08B50121007CFDF726FCB0
:1090100040EAE07008BD08B5007CFDF717FC20EAC7
:10902000E07008BD08B5007CFDF708FC20EAE070A0
:1090300008BD38B50446007C0D46FDF707FC002846
:1090400001DC607C28B12946207CFDF70FFC20EA7A
:10905000E07038BD007CFDF711BC10B5044614214A
:1090600000F0C9FD204610BD10B54FF47A730446D8
:1090700008460021C4E90113044B20742360012336
:1090800011466374FDF7C2FB204610BD30EA0A08A2
:109090000022007CFDF7C2BB007CFDF7C7BB007C53
:1090A000FDF7F4BB10B504461422002103F09EFC2A
:1090B000204610BD30B50F4D87B001A8FFF7F2FF75
:1090C0002978BFF35B8F11F0010410D12846F6F721
:1090D000F5FF60B1214601AA0748FFF7C5FF284602
:1090E000F6F7F1FF054A0649034800F07FFD024804
:1090F00007B030BDE80C0020F00C00203801002043
:10910000F58F0A0810B504461422002103F06EFC06
:10911000204610BD10B50F4C86B001A8FFF7F2FF36
:109120002378BFF35B8FDB0710D42046F6F7C6FF2A
:1091300060B1012101AA0848FFF796FF2046F6F723
:10914000C2FF064A0649044800F050FD024806B036
:1091500010BD00BFEC0C0020040D002038010020E1
:10916000F58F0A0870474174704708B5007CFDF719
:1091700099FA20EAE07008BD08B5007CFDF76AFAAC
:1091800020EAE07008BD08B5007CFDF773FA40EAFC
:10919000E07008BD08B5007CFDF764FA40EAE070B5
:1091A00008BD007CFDF76EBA70B5467C04460D46DE
:1091B0002EB12946207CBDE87040FDF743BA007C03
:1091C000FDF770FA0028F4DC304670BD10B5044697
:1091D000142100F010FD204610BD00004FF0000CDF
:1091E00010B50446084611464FF47A72C4E901C22C
:1091F000044A20742260012262741A46FDF712FAB2
:10920000204610BD60EA0A080023007CFDF752BA30
:109210000022FFF7F9BF007CFDF70CBAF8B51A4C35
:1092200026684EB98420F6F738FF054618B1842227
:10923000314603F0DBFB2560144D2F684FB98420C5
:10924000F6F72BFF064618B18422394603F0CEFB11
:109250002E600F4F3978BFF35B8F11F0010611D1EB
:109260003846F6F72BFF68B1314622682B6809486B
:10927000FFF7B4FF3846F6F726FF074A07490548C7
:1092800000F0B4FC0348F8BD1C0D0020200D0020A8
:10929000180D0020240D00203801002065910A08D7
:1092A00010B5836804460BB900F0AEFCC36898475C
:1092B000A3681BB103222146204698472046BDE8FB
:1092C0001040102100F097BC7047F8B506461546CF
:1092D0000C468F18BC4206D0336830469B6814F8A1
:1092E000011B9847F6E72846F8BD0022007CFDF7F1
:1092F00001BA0021007CFDF705BA0021007CFDF7D2
:1093000009BA0021007CFDF70DBA0021007CFDF7B1
:1093100011BA10B50446142100F06DFC204610BDB2
:1093200010B54FF47A73044608460021C4E90113CE
:10933000034B114623602074FDF70CFA204610BD44
:1093400090EA0A080023007C1A461946FDF7BAB9CC
:109350007FB500221423CDE90122ADF804300B784B
:10936000007C8DF808304B680393CB6804930B7A2C
:1093700001A90593FDF7F8F907B05DF804FB1FB5E7
:10938000003B8DF800104FF0640118BF01230391DA
:10939000694601928DF80830FFF7DAFF05B05DF8F5
:1093A00004FB0123FFF7EBBF0022007CFDF792B91D
:1093B000C9B2FFF7F9BF0022007CFDF793B9012184
:1093C000FFF7F9BF0021007CFDF7BCB930B5D1E94A
:1093D00001439C4205460FDA621C4A6038220B6842
:1093E00002FB04340FCD0FC40FCD0FC40FCD0FC43B
:1093F00095E8030084E8030030BDF0B5154689B058
:1094000011220E460446002103A803F0EFFA284675
:1094100003F05DFB002781B273682846009703AA1A
:10942000FDF73CFA30B139462046FFF7BFFD204634
:1094300009B0F0BD204603A9FFF7A6FDF7E700221B
:1094400040681146FDF7F6BA002240681146FDF764
:1094500011BB00224068FDF705BB0022406881F087
:109460000101FDF7DFBA002340681A461946FDF7EF
:10947000D1BA002202214068FDF7B4BA0023406847
:109480001A46FDF79FBA00001FB500230191064858
:1094900001A902930392FDF711FA039B9842A8BF1A
:1094A000184605B05DF804FBCD930A081FB50023EC
:1094B0000191064801A902930392FDF707FA039B65
:1094C0009842A8BF184605B05DF804FBCD930A0882
:1094D0000422024B5A60024A1A607047380D00207D
:1094E000B8EA0A08002340681A46FDF76BBA002262
:1094F00002214068FDF776BA002240681146FDF768
:1095000069BA002240681146FDF774BA002340682A
:109510001A461946FDF776BA002340681A461946DE
:10952000FDF778BA0022406881F00101FDF77ABAB0
:1095300000224068FDF796BA002240681146FDF708
:1095400099BA002240681146FDF774BA70B5154605
:109550008EB0044608A8FFF709FD1122002103A8D8
:1095600003F044FA0026284603F0B1FA0A4B0096AD
:1095700081B25B68284603AAFDF790F930B1314605
:109580002046FFF713FD20460EB070BD204603A90C
:10959000FFF7FAFCF7E700BF380D0020024B034A43
:1095A0001A6000225A607047400D0020ECEA0A0859
:1095B000012200F1100313F8101C1846012908D1EC
:1095C00053F8041C02EB4102013A03F11003F2D1FB
:1095D0007047022904BF53F8041C5218F4E70EB474
:1095E0002DE9F04187B000AF07F1340555F8048B41
:1095F00004462B464246102107F108007D60FDF726
:10960000A1FA0F281BD900F1080323F007036E46C7
:10961000ADEB030D4246411C2B4668467D60FDF7CD
:1096200091FA021E04DD2368694620469B6898472C
:10963000B5461C37BD46BDE8F04103B07047002871
:10964000F7D0236802469B68204607F10801984737
:10965000EFE710B5044603689B689847A368013B91
:10966000A3602BB923682046BDE81040DB6818478B
:1096700010BD07B503688DF8071001229B680DF136
:109680000701984703B05DF804FB38B50B68044642
:1096900003604D6843689D420CD015B16B6801337F
:1096A0006B60606828B14368013B43600BB9FFF70A
:1096B000D0FF6560204638BD0B461146002210B52C
:1096C0000446C0E9002283600BB9204610BDFFF7B5
:1096D000DCFFFAE70346806820B30278032A1AD831
:1096E000DFE802F00417021B052070471B685A6868
:1096F0004368D05C2D2812D0A0F13003092B0ED97D
:1097000074280ED066280CD0A0F16E035842584140
:1097100070470620704700207047042070470320E0
:1097200070470220704710B50446FFF7D3FF0228A8
:109730000ED0C31EDBB2012B14D82268A368506878
:109740005B680A22BDE810400021184403F07ABA91
:109750002268A36852685B68D05CA0F17403584229
:10976000584110BD0020FCE70B461146002210B501
:109770000446C0E900220D48C4E90202A3B11A78E8
:10978000032A06D082B90A6850685A68825C6E2A39
:1097900007D00A68586852689B6802441B1AA26086
:1097A000E3602046FFF771FF204610BD65D60A082A
:1097B00038B500250B4604461146C0E90055C0E9FE
:1097C0000255C0E904554BB11A78012A06D103F1BC
:1097D0001002DB6882604361FFF757FF204638BD07
:1097E00010B54369044663B18068013BE060103006
:1097F000A0602061636113B1FFF7DAFEA060012071
:1098000000E0184610BD10B57D210446FFF731FF7A
:1098100001232046237110BD08B50379012B02D026
:10982000022B04D008BD2C21FFF723FFFAE73A21D1
:10983000FAE710B50446FFF7EFFF20467B21FFF75C
:1098400018FF00232046237110BD000038B50446E0
:109850000D46FFF7E1FF236820462A46DB680349EF
:10986000984701232046237138BD00BF2EE90A081E
:1098700038B504460D46FFF7CFFF236820462A4639
:10988000DB680349984701232046237138BD00BF98
:1098900018EB0A082DE9F0410D461746222104462F
:1098A000FFF7E7FE2946DFF898802F44BD422A469D
:1098B00038D015F8016B222E03D05C2E01D01F2E5C
:1098C000F4D82368521A20469B6898475C212046AA
:1098D000FFF7CFFE0D2E0AD8072E1CD9A6F10803DC
:1098E000052B18D8DFE803F00D0F11171315222EE2
:1098F00001D05C2E0FD131462046FFF7BAFE294633
:10990000D4E76221F8E77421F6E76E21F4E76621D7
:10991000F2E77221F0E72368324641462046DB68D1
:109920009847ECE78D4204D0236820469B686A1A6A
:10993000984722212046FFF79CFEBDE8F08100BF3A
:109940001BEB0A0870B504460D461646FFF764FF88
:10995000204632462946FFF79DFF02232046237109
:1099600070BD70B504460D461646FFF755FF2046FC
:1099700032462946FFF78EFF01232046237170BD32
:10998000172870B5044601D9002070BDA0F10D0361
:10999000022B0BD9012826D800F000F90021007C09
:1099A000FCF7D0FE80F00100C0B2EEE7134E317834
:1099B000BFF35B8F11F001050FD13046F6F77EFB48
:1099C00058B129460E48FDF7E8F83046F6F77BFB1C
:1099D0000C4A0D490A4800F009F9094B1878FCF7C0
:1099E00005FF0028D0D1123C012C05D8FFF716FC4A
:1099F000007CFCF74FFED5E70120C6E7380C0020BD
:109A00003C0C002038010020414B0A08172838B5CB
:109A100004460D460AD8FF2908D0FFF7B1FF28B148
:109A200029462046BDE83840FCF73CBD38BD38B576
:109A300004460D46FCF73EFDFF2810D0062804D84A
:109A40004D2323FA00F0C30709D42046FFF798FFFF
:109A500028B129462046BDE83840FCF733BD38BD63
:109A600010B50446FCF726FD031FDBB2012B08D915
:109A70002046FFF785FF20B12046BDE81040FCF7E7
:109A800029BD002010BD000030B504461B4D89B033
:109A90002068FCF72FFDFCF73DFD2A682368801A3B
:109AA0009842F5D3236833B3E36823B3251D2846D2
:109AB000236998470023684604A902930693FEF79A
:109AC000D2FE029B069A06930292039B079A2946AE
:109AD00004A803920793FEF7C6FE069BE268E360C4
:109AE000079B0692226904A823610792F6F716FEE7
:109AF0006846F6F713FE09B030BD00BF480D0020E0
:109B000008B5FFF7C1FFBDE808400020FCF75ABDCB
:109B100010B5084C2378BFF35B8FDB0708D42046D1
:109B2000F6F7CCFA20B1FCF7FDFC2046F6F7CBFAAD
:109B3000014810BD4C0D0020500D0020002313B52E
:109B4000074C1A46194620460093FFF745FA20466F
:109B5000044A054902B0BDE8104000F047B800BF14
:109B6000540D002038010020298F0A08002370B509
:109B7000202543801423084E044603803146856027
:109B80000561284600F03BF831466060284600F049
:109B900036F8E060204670BD21EB0A0830B50F4D65
:109BA00087B02978BFF35B8F11F0010413D12846E9
:109BB000F6F784FA78B101A8FFF7D8FF214601AA89
:109BC0000748FFF7ADFB2846F6F77DFA054A064938
:109BD000034800F00BF8024807B030BD6C0D0020C0
:109BE000700D002038010020C9920A080B4601467A
:109BF000184602F0BBBDF6F754BAF6F74EBAF6F7C0
:109C00004EBA08B5FCF7A6FF08B5FCF7A3FF0000A5
:109C10002DE9F0418AB004460D4600F01DFA3A4B9A
:109C2000064693F900800F46B8F1FF3F34D0224634
:109C30002B462046294601F0D3FF00282CD10022D4
:109C400000232046294601F0C1FF28BB2F4BCDE958
:109C50000245CDE9044508900193B8F1000F20D0EA
:109C600000222B4B2046CDE9062329460022002363
:109C700001F084FF00283DD002239845009333D1A2
:109C8000FCF778FF22230360089B23B3FCF772FFE5
:109C9000DDE90667089B0360304639460AB0BDE837
:109CA000F0814FF060461B4F2046294600220023DA
:109CB000CDE9066701F062FFA0B901230093684671
:109CC00001F024FAD8B1144801F022FACDE90601D6
:109CD000089B002BDAD1DDE90667304639460AB029
:109CE000BDE8F08102230093684601F00FFA0028D6
:109CF000EED1C5E70123B8F1020F0093DFD1FCF7E5
:109D000039FF21230360DEE76400002024EB0A080A
:109D10000000F0FFFFFFEFC728EB0A082DE9F04F26
:109D20008FB01D4606460F46144600F089FBA44B33
:109D3000CDE9000193F90090B9F1FF3F38D02246F8
:109D40002B462046294601F04BFF834680BB324616
:109D50003B463046394601F043FF8046002840F03C
:109D6000D9804FF0000A4FF0000B3046394652467A
:109D70005B4601F003FF00B352465B46204629468E
:109D800001F0FCFE0390002848D001228D4BCDE964
:109D90000667CDE90845CDE90AABCDE90423CDF846
:109DA0003080B9F1000F68D00023874CCDE9003432
:109DB000DDE900010FB0BDE8F08FDDE9000101F041
:109DC0009FF98046002869D0DDE900014FF00008C6
:109DD0004FF0000942464B4601F0D0FE0028E7D084
:109DE0003046394601F08CF90028E1D0204629465A
:109DF00001F086F90028DBD004200021704B714A65
:109E000093F90030CDE90667022BCDE90845CDE98D
:109E10000A8904900C91059272D176E02046294679
:109E200001F06EF90028C3D052465B462046294611
:109E300001F0AEFE0028BBD00121039A604B0C92CA
:109E400093F900305F4ACDE90667CDE90845CDE9D1
:109E50000412002B7BD1CDE90AAB04A801F056F91E
:109E600000287BD00C9B1BB1FCF784FE0C9B03608D
:109E7000DDE90A34CDE900349AE704A801F046F997
:109E8000002870D00C9B002BF2D0FCF773FEDDE9AC
:109E90000A34CDE900340C9B036089E7304639462B
:109EA00001F02EF900288FD02046294601F028F92C
:109EB000002889D0DDE900231046194601F090FE04
:109EC000002840F0A480032204923D4A3D4B92F9C1
:109ED0000080CDE90667CDE908450C900593B8F1FF
:109EE000000F45D14FF06048DFF8F09052465B46D6
:109EF00030463946CDE90A8901F04AFE002846D1AC
:109F000004A801F003F90028ACD1FCF733FE2223AA
:109F10000360A7E7002200232046294601F02EFE19
:109F200000283FF445AF012200202749254BB9F115
:109F3000020FCDE90667CDE90845CDE90A01CDF864
:109F400030B00492059398D1CDE9000130E70020AC
:109F50001E49022BCDE90A017FF47FAFFCF70AFE10
:109F6000212303607EE7FCF705FE2123036089E7D8
:109F7000304600263946164F52465B46CDE90A6701
:109F800001F006FE60BBB8F1020FBED0B8E70022B8
:109F9000104B2046294601F089FB04460D4601F08E
:109FA000BDF822462B4601F0E9FD60BB4FF0604250
:109FB000094B0349CDE90A2391F90080E3E700BF8B
:109FC000640000202CEB0A080000F03F0000F0FFC6
:109FD0000000F07F0000E03FFFFFEFC7FFFFEF470B
:109FE0000022194B2046294601F060FB04460D462D
:109FF00001F094F822462B4601F0C0FD18B900226A
:10A00000124BCDE90A23124B93F90080BBE70122E2
:10A010000F4BCDE9066793F900900E4BCDE908454B
:10A02000CDE90423CDF83080B9F1000F3FF413AF30
:10A0300052465B465046594601F062FCB9F1020FA8
:10A04000CDE90A018AD008E70000E03F0000F0FFF8
:10A05000640000202CEB0A082DE9F04FB1F5801FB9
:10A0600002460B460C4685B05ADA054621F00046FA
:10A07000354300F0F8800029C0F232810022D84B2D
:10A0800001F014FB0C460B46D64902468C426FF099
:10A09000350049DCC4F3130505F5152606F664768C
:10A0A00006F4801686F07F5181F44011241541EAB0
:10A0B0000503A4F2FF3419460444CB4B104600229A
:10A0C00001F03CF9AB1CC3F31303022B82468B4611
:10A0D0004FF0000204EB16542DDC002301F04EFD7E
:10A0E000002800F0C980002C00F04E81204601F0CD
:10A0F00073FAA7A3D3E9002306460F4601F0D6FA68
:10A10000A5A3D3E9002304460D463046394601F0A5
:10A11000CDFA02460B462046294601F011F907E028
:10A12000B04900208C42B5DD1046194601F008F90F
:10A1300005B0BDE8F08F4FF0804301F001F90B4608
:10A1400002465946504601F0DBFB02462046904647
:10A15000894601F041FA06460F4642464B464046C4
:10A160004946CDE90089CDE9026701F09FFA024630
:10A170000B468046894601F099FA89A3D3E900236A
:10A1800006460F4601F092FA87A3D3E9002301F0B7
:10A19000D7F832463B4601F089FA85A3D3E900237C
:10A1A00001F0CEF832463B4601F080FA82A3D3E9B3
:10A1B000002301F0C5F842464B4601F077FA80A330
:10A1C000D3E90023804689463046394601F06EFACD
:10A1D0007DA3D3E9002301F0B3F832463B4601F0FA
:10A1E00065FA7BA3D3E9002301F0AAF832463B4687
:10A1F00001F05CFA0B4602464946404601F0A0F8E1
:10A20000A5F5C223C5F5D725A3F27A4351351D43E1
:10A21000002D06460F4655DD0022744B5046594628
:10A2200001F044FA52465B4601F040FA8046894606
:10A23000002C5CD142464B463046394601F080F84E
:10A24000DDE9002301F032FA02460B46404649465A
:10A2500001F074F802460B465046594601F06EF87C
:10A2600005B0BDE8F08F002200230020604901F016
:10A2700047FB05B0BDE8F08F57A3D3E90023504654
:10A28000594601F013FA02460B460020574901F0E7
:10A2900055F8524606460F465B465046594601F071
:10A2A00005FA02460B463046394601F0FFF90646EC
:10A2B0000F46002C50D102460B465046594601F03D
:10A2C0003DF835E7002C40F0958002460B4650469D
:10A2D000594601F033F8DDE9002301F0E7F9B9E769
:10A2E00001F02CF80022002301F00AFB20E728A34C
:10A2F000D3E90023DDE9020101F0D8F942464B46DB
:10A3000004460D463046394601F01AF8DDE90023CF
:10A3100001F0CCF920A3D3E9002306460F46DDE97E
:10A32000020101F0C3F902460B463046394601F0FE
:10A3300007F802460B464046494600F0FFFF5246EA
:10A340005B4600F0FBFF02460B462046294600F024
:10A35000F5FF05B0BDE8F08F204601F03DF90CA3F4
:10A36000D3E900238046894601F0A0F90AA3D3E986
:10A37000002304460D464046494601F097F902463F
:10A380000B4630463946D8E700200021D0E600BF12
:10A390000000E0FE422EE63F763C7935EF39EA3D9B
:10A3A00044523EDF12F1C23FDE03CB966446C73F04
:10A3B000599322942449D23F935555555555E53F1D
:10A3C0009FC678D0099AC33FAF788E1DC571CC3F28
:10A3D00004FA97999999D93F555555555555D53FF3
:10A3E00000005043FFFFEF7F0000F03F0000E03F20
:10A3F000000050C30EA3D3E90023DDE902894046E3
:10A40000494601F053F932463B4604460D46504654
:10A41000594600F093FFDDE9002301F047F906A358
:10A42000D3E9002306460F46A5E700BFAFF300803F
:10A430000000E0FE422EE63F763C7935EF39EA3DFA
:10A440002DE9F04F23F000451F46984655EA0203D8
:10A4500095B037D08B4689466F492BF000448C422B
:10A460008246034628DC164635D08D4224DC6A49F4
:10A470008D421FD0B9F1000F36DB00210291002A76
:10A480004DD1654A954200F09D80644A954200F0A6
:10A49000AB80B8F1804F00F0D484614A90453ED142
:10A4A000B9F1000F3BDB5046594615B0BDE8F04FFF
:10A4B00000F05EBD002ADDD004F1404404F58014B4
:10A4C00023430BD10023554CCDE90034DDE90001D5
:10A4D00015B0BDE8F08F08B9A542C8DD514815B0E8
:10A4E000BDE8F04F00F014BE4F498D4200F3858067
:10A4F000A1F154718D420EDD2915A1F2FF3114290D
:10A5000040F3A984C1F1340122FA01F000FA01F10B
:10A51000914200F0F68400210291002AB5D0504605
:10A5200059460C9300F0E8FD0C9BCDE9000143BBBC
:10A5300024B13A4B29F040429A4222D1B8F1000F9F
:10A5400007DADDE900230020344901F0D9F9CDE92B
:10A550000001B9F1000FB9DA029B04F1404404F59F
:10A560008014234340F09C84DDE900231046194603
:10A5700000F0E4FE02460B4601F0C2F9CDE900010D
:10A58000A4E7029A4FEAD973013B0C93134337D0E7
:10A59000264B9D424EDD03F104739D42244B40F354
:10A5A000DF839C4240F35E83B8F1000F40F35E838B
:10A5B00017A3D3E900231046194601F077F8CDE937
:10A5C000000183E704F1404202F5801213433FF497
:10A5D00079AF174B9C4240F37383B8F1000FC0F280
:10A5E0004583CDE9006771E7B8F1000FC0F21F8421
:10A5F00050465946CDE9000168E7022102913EE745
:10A60000524650465B465946B2E700BFAFF3008062
:10A610009C7500883CE4377E0000F07F0000F03F2E
:10A620000000E03F28EB0A08FFFF3F430000E04145
:10A63000FFFFEF3FD04B09EA0303002B40F05683A6
:10A64000DDE900010022CD4B01F030F86FF0340C51
:10A650000C46CDE900012315C94AC4F31304A3F243
:10A66000FF3344F07F5503EB0C0194420D9145F408
:10A67000401540F32E83C34B9C4240F31E840023BD
:10A680000024CDE90A34CDE9123400234FF0000A4A
:10A69000BD4C0131CDE906340D91A5F58015DDE9FC
:10A6A00000012946DDE90623CDE9080100F046FE58
:10A6B000DDE9062380468946DDE9080100F040FE19
:10A6C00002460B460020B04901F01AF903460C4639
:10A6D0001A46CDE90E3440462346494600F0E6FFCF
:10A6E0000C46034601462246CDE9043400240020EE
:10A6F0006B1043F0005303F50023CDE9001203EB88
:10A700000A010094DDE900AB04460D4602460B4603
:10A710005046594600F0CAFF02460B46404649469D
:10A7200000F00CFEDDE906238046894620462946D6
:10A7300000F004FE02460B46DDE9080100F0FEFDD4
:10A7400052465B4600F0B2FF02460B464046494681
:10A7500000F0F4FDDDE90E2300F0A8FFDDE9048937
:10A7600004460D4642464B4640464946CDE906451D
:10A7700000F09CFF6EA3D3E9002304460D4600F0D1
:10A7800095FF6DA3D3E9002300F0DAFD22462B46A6
:10A7900000F08CFF6AA3D3E9002300F0D1FD22462C
:10A7A0002B4600F083FF68A3D3E9002300F0C8FD27
:10A7B00022462B4600F07AFF65A3D3E9002300F080
:10A7C000BFFD22462B4600F071FF63A3D3E90023AF
:10A7D00000F0B6FD22462B4604460D4610461946AB
:10A7E00000F064FF02460B462046294600F05EFF5B
:10A7F00004460D4652465B4640464946CDE904892B
:10A8000000F09EFDDDE9062300F050FF22462B46B6
:10A8100000F096FD524604460D465B4650465946AA
:10A8200000F044FFA046A94604460D460022574BBF
:10A83000CDE9104500F084FD42464B46CDE90E8936
:10A8400000F07EFD0D46009C2B46224650465946A0
:10A8500000F02CFF804689460022204629464B4BBB
:10A86000CDE9088900F06AFDDDE9102300F066FDFE
:10A8700002460B46DDE90E0100F060FDDDE9042330
:10A8800000F014FF224680468946DDE906012B468A
:10A8900000F00CFF02460B464046494600F050FDD2
:10A8A00082468B46DDE9080152465B4600F048FDD2
:10A8B0002BA3D3E90023009C0D46204600F0F6FEB2
:10A8C000DDE908238046894620462946CDE90489EA
:10A8D00000F034FD02460B465046594600F02EFD6E
:10A8E00021A3D3E9002300F0E1FE21A3D3E9002353
:10A8F000804689462046294600F0D8FE02460B468F
:10A900004046494600F01CFDDDE9122300F018FD29
:10A9100082460D988B4600F05FFE80468946DDE951
:10A92000040152465B4600F00BFD31E0AFF30080BE
:10A93000EF4E454A287ECA3F65DBC9934A86CD3F24
:10A9400001411DA96074D13F4D268F515555D53F0A
:10A95000FFAB6FDBB66DDB3F033333333333E33FA2
:10A96000000000E009C7EE3FFD033ADC09C7EE3FF7
:10A97000F5015B14E02F3EBE0000F07F0000404375
:10A980008E98030079B60B000000F03F00000840ED
:10A99000DDE90A2300F0D4FC42464B4600F0D0FC2F
:10A9A000009C42464B4620460D4600F0C7FCDDE9C0
:10A9B0000A2300F0C3FCDDE9042300F0BFFC0246DB
:10A9C0000B465046594600F0B9FC82468B46029B26
:10A9D0000C9A013B13434FF000020CBFDA4BDB4BE8
:10A9E000CDE90067CDE9022300230093DDE900896A
:10A9F0003046424639464B4600F0A0FC22462B46E4
:10AA000000F054FE32463B4606460F465046594635
:10AA100000F04CFE02460B463046394600F090FCF2
:10AA2000424682468B464B462046294600F03EFE73
:10AA300006460F4650463B465946324600F080FCDB
:10AA4000C34B044699420D46884640F3148101F1F8
:10AA50003F4303F5E003034340F01282A6A3D3E98A
:10AA600000235046594600F06BFC3246CDE9000108
:10AA70003B462046294600F061FC02460B46DDE9D4
:10AA8000000101F0A3F8002840F0FA81C8F30A534E
:10AA90004FF480120020A3F2FE3342FA03F3434442
:10AAA000AC4CC3F30A52A2F2FF3244FA02FCC3F3E5
:10AAB000130523EA0C01C2F1140445F48015B8F122
:10AAC000000F0B4645FA04F10C91B8BF494202460B
:10AAD000B8BF0C913046394600F030FC06460F46B0
:10AAE00050463B465946324600F02AFC0D460C9B28
:10AAF0001B050093002482A3D3E9002320462946A6
:10AB000000F0D4FD3246804689463B462046294621
:10AB100000F014FC02460B465046594600F00EFC6D
:10AB200079A3D3E9002300F0C1FD79A3D3E9002381
:10AB300006460F462046294600F0B8FD02460B4661
:10AB40003046394600F0FCFB06460F4632463B468F
:10AB50004046494600F0F4FB42464B460D4604464B
:10AB600000F0ECFB02460B463046394600F0E6FBAF
:10AB70002B4682468B4622462946204600F096FD0B
:10AB800065A3D3E9002306460F4600F08FFD64A3BA
:10AB9000D3E9002300F0D2FB32463B4600F086FDAD
:10ABA00061A3D3E9002300F0CBFB32463B4600F023
:10ABB0007DFD5FA3D3E9002300F0C0FB32463B4696
:10ABC00000F074FD5CA3D3E9002300F0B9FB32462A
:10ABD0003B4600F06BFD02460B462046294600F03E
:10ABE000ADFB06460F4632463B462946204600F05E
:10ABF0005DFD0022804689464FF08043304639464D
:10AC000000F09CFB02460B464046494600F078FEA9
:10AC1000524606460F465B462946204600F046FD52
:10AC200052465B4600F08CFB02460B4630463946E6
:10AC300000F084FB2B46224600F080FB02460B46C8
:10AC40000020424900F07AFB009D0D44B5F5801FBD
:10AC5000C0F253812946DDE9022300F027FDCDE94A
:10AC6000000133E4B8F1000FFFF6A2AC002300248A
:10AC7000CDE900342AE4DFF8E4C021F00043634565
:10AC800040F3F680344B0B4403430AD132463B4633
:10AC900000F054FB52465B4600F08EFF00283FF464
:10ACA000F5AE27A3D3E90023DDE9020100F0FEFCA5
:10ACB00023A3D3E9002300F0F9FCCDE9000105E46A
:10ACC000B8F1000FD2DA07F1004300960193FFF7C5
:10ACD000FDBB00230024CDE90A34CDE91234002362
:10ACE0001A4C4FF0000ACDE90634D8E44FF0000CBE
:10ACF000B1E400BFAFF30080FE822B654715973C9F
:10AD000000000000432EE63FEF39FAFE422EE63FF8
:10AD1000396CA80C615C20BED0A4BE726937663E57
:10AD2000F16BD2C541BDBB3E2CDE25AF6A56113F4B
:10AD300093BDBE166CC1663F3E5555555555C53F32
:10AD400059F3F8C21F6EA5010000F0BF0000F03FEC
:10AD5000FFFF8F40FFFF0F0000346F3FFFCB90409D
:10AD60009C42FFF67FAF7E4B9C423FF71DACDDE976
:10AD7000000100227A4B00F0E1FA6BA3D3E9002333
:10AD800004460D4600F092FC69A3D3E900238246F5
:10AD90008B462046294600F089FC002280468946E1
:10ADA000204629466F4B00F081FC02460B4662A10B
:10ADB000D1E9000100F0C2FA22462B4600F076FCF1
:10ADC00002460B460020684900F0B8FA22462B469E
:10ADD00004460D461046194600F068FC02460B4634
:10ADE0002046294600F062FC55A3D3E9002300F079
:10ADF0005DFC02460B464046494600F09FFA8046FD
:10AE000089465046594642464B46002400F098FA7F
:10AE100052465B4620460D4600F090FA02460B462D
:10AE20004046494600F08AFA82468B46CFE55246B4
:10AE30005B4600204A4900F063FDCDE90001FFF7C1
:10AE400045BB524650465B46594600F02FFCCDE9C3
:10AE50000001FFF73BBB002A41D1C1F1140145FAC3
:10AE600001F000FA01F1A94255D00292FFF70DBBA3
:10AE70003D4A934256DCDDE9001200910C9139E61F
:10AE800031A3D3E90023DDE9020100F00FFC2EA37A
:10AE9000D3E9002300F00AFCCDE90001FFF716BB5F
:10AEA000029B012B7FF412ABDDE90045224605F140
:10AEB0000043CDE90023FFF709BB25A4D4E9003402
:10AEC000CDE90A3424A4D4E90034CDE912340023B6
:10AED000264C4FF4802ACDE90634FFF7E0BB5046FC
:10AEE0005946029300F008F9029BCDE90001002BBE
:10AEF0007FF486AB0293FFF71BBB0C9A00F0A0F91E
:10AF0000A9E600F00100C0F102010291002A3FF41D
:10AF1000BCAAFFF704BB00F00100C0F102020292DC
:10AF2000FFF7B3BA1B15B3E5000000604715F73F04
:10AF300044DF5DF80BAE543E555555555555D53F3C
:10AF4000FE822B654715F73F9C7500883CE4377EF1
:10AF50000000004003B8E23F06D0CF43EBFD4C3E7B
:10AF60000000F03F0000D03F0000E03F0000F83F4D
:10AF7000604A2DE9F0418A430E46054600F097806D
:10AF800000290B4604464EDD09155AD0C3F31303BE
:10AF9000CA0743F48013A1F2FF3E03D45B0003EB26
:10AFA000D47364004FF0000C162566464FF400126F
:10AFB000E10F4FEA6E0E01EB43036400B1189942B2
:10AFC00002DC5B1A8E1894445B00013D03EBD473E2
:10AFD0004FEA52024FEA4404F0D12F4620204FF0AE
:10AFE000004209E03DD0E10F01384FEA520201EB87
:10AFF00043034FEA44043DD0B34202EB0501F1DDC7
:10B00000002901EB020509DBB0469B1BA14288BF6A
:10B0100003F1FF334646641A1744E4E7002DF3DBDF
:10B0200006F10108F1E721F00042024357D0002960
:10B030004BD1E20A134615396405002AF9D0D7022C
:10B0400052D400205B00DE02054600F10100F9D574
:10B050001A4623468440C0F12000C3401343491BD5
:10B0600094E7A142BFD8002901EB0205D6DB984640
:10B070000023CFE7234313D178084FEA6C0303F191
:10B080007F5303F500131CF0010F18BF40F0004080
:10B0900003EB0E5502462B4610461946BDE8F081DB
:10B0A0007B1C16BF781C0CF1010C4008E5E702463A
:10B0B0000B4600F0FBFA2A46334600F041F90246FF
:10B0C0000B4610461946BDE8F081024600F036F9FD
:10B0D00002460B4600F014FC02460B46DCE7024633
:10B0E00019461046BDE8F081234620204FF0FF3579
:10B0F000B3E700BF0000F07F21F00041704700BFC0
:10B1000041F0004000F58010C00F704700207047EC
:10B1100000200149704700BF0000F87FF0B5C1F37F
:10B120000A5CACF2FF36132E02460B460D4607466C
:10B1300083B04FEAD1742FDC002E4CDB3D49314106
:10B1400003EA010010432CD003EA510352EA03073B
:10B150004FEA51010BD04FF48023132E0CBF4FF058
:10B160000047002725EA010143FA06F50D4332495D
:10B170002B4601EBC404D4E900453A462046294653
:10B1800000F0DEF8CDE90001DDE9000122462B46A2
:10B1900000F0D4F803B0F0BD332E06DDB6F5806FB5
:10B1A00045D01046194603B0F0BD4FF0FF31ACF268
:10B1B000134C21FA0CF10842F3D010EA51024FEA85
:10B1C0005103D4D04FF0804220EA030742FA0CFC2E
:10B1D00047EA0C07CBE721F0004101431946E2D0D2
:10B1E000C3F313031F437B423B436D0C1B0B6D04E6
:10B1F00003F4002343EA05010B460F4901EBC401A8
:10B20000D1E900673046394600F09AF8CDE90001EF
:10B21000DDE9000132463B4600F090F8024621F09D
:10B22000004141EAC4731046194603B0F0BD00F076
:10B2300087F8B8E7FFFF0F0030EB0A0800000000B6
:10B24000F8B5C1F30A5304460D460E46174673BBC4
:10B25000034621F00046334328D0314B002200F052
:10B2600025FA304B04469F420D461ADB0E46C1F3C9
:10B270000A53363B40F2FE723B44934220DC002BE3
:10B280003CDC13F1350F2CDA4CF250339F4217DCC3
:10B2900005F0004343F0D27141F4B731224841F048
:10B2A0001F011BA3D3E9002300F000FAF8BD40F210
:10B2B000FF729342DED102460B4600F041F8F8BD22
:10B2C00005F0004444F0FC4141F45F1141F4105199
:10B2D00011A3D3E90023154841F03C0100F0E6F941
:10B2E000F8BD26F0FF4626F4E006363346EA035161
:10B2F000204600220E4B00F0D9F9F8BD26F0FF469B
:10B3000026F4E006204646EA0351F8BDAFF300807C
:10B3100059F3F8C21F6EA5019C7500883CE4377E86
:10B3200000005043B03CFFFF59F3F8C29C75008801
:10B330000000903C81F0004102E000BF83F0004338
:10B3400030B54FEA41044FEA430594EA050F08BFC0
:10B3500090EA020F1FBF54EA000C55EA020C7FEA84
:10B36000645C7FEA655C00F0E2804FEA5454D4EB01
:10B370005555B8BF6D420CDD2C4480EA020281EACB
:10B38000030382EA000083EA010180EA020281EA03
:10B390000303362D88BF30BD11F0004F4FEA013155
:10B3A0004FF4801C4CEA113102D0404261EB410164
:10B3B00013F0004F4FEA03334CEA133302D05242EA
:10B3C00063EB430394EA050F00F0A780A4F10104A6
:10B3D000D5F1200E0DDB02FA0EFC22FA05F28018E0
:10B3E00041F1000103FA0EF2801843FA05F35941C6
:10B3F0000EE0A5F120050EF1200E012A03FA0EFC45
:10B4000028BF4CF0020C43FA05F3C01851EBE3716E
:10B4100001F0004507D54FF0000EDCF1000C7EEB8B
:10B4200000006EEB0101B1F5801F1BD3B1F5001FC9
:10B430000CD349085FEA30004FEA3C0C04F10104E8
:10B440004FEA445212F5800F80F09A80BCF1004F11
:10B4500008BF5FEA500C50F1000041EB045141EA93
:10B46000050130BD5FEA4C0C404141EB0101013C5C
:10B4700028BFB1F5801FE9D291F0000F04BF01464B
:10B480000020B1FA81F308BF2033A3F10B03B3F11D
:10B4900020020CDA0C3208DD02F1140CC2F10C02AD
:10B4A00001FA0CF021FA02F10CE002F11402D8BF0B
:10B4B000C2F1200C01FA02F120FA0CFCDCBF41EAD7
:10B4C0000C019040E41AA2BF01EB0451294330BDA6
:10B4D0006FEA04041F3C1CDA0C340EDC04F1140483
:10B4E000C4F1200220FA04F001FA02F340EA03005A
:10B4F00021FA04F345EA030130BDC4F10C04C4F1A0
:10B50000200220FA02F001FA04F340EA030029467F
:10B5100030BD21FA04F0294630BD94F0000F83F4C9
:10B52000801306BF81F480110134013D4EE77FEAAC
:10B53000645C18BF7FEA655C29D094EA050F08BFF8
:10B5400090EA020F05D054EA000C04BF19461046D9
:10B5500030BD91EA030F1EBF0021002030BD5FEA1D
:10B56000545C05D14000494128BF41F0004130BD45
:10B5700014F580043CBF01F5801130BD01F0004599
:10B5800045F0FE4141F470014FF0000030BD7FEA0C
:10B59000645C1ABF194610467FEA655C1CBF0B4607
:10B5A000024650EA013406BF52EA033591EA030F1E
:10B5B00041F4002130BD00BF90F0000F04BF002116
:10B5C000704730B54FF4806404F132044FF0000549
:10B5D0004FF0000150E700BF90F0000F04BF0021C2
:10B5E000704730B54FF4806404F1320410F0004528
:10B5F00048BF40424FF000013EE700BF42004FEA23
:10B60000E2014FEA31014FEA02701FBF12F07F439F
:10B6100093F07F4F81F06051704732F07F4208BF56
:10B62000704793F07F4F04BF41F40021704730B55D
:10B630004FF4607401F0004521F000411CE700BFA9
:10B6400050EA010208BF704730B54FF000050AE02C
:10B6500050EA010208BF704730B511F0004502D52D
:10B66000404261EB41014FF4806404F132045FEA2F
:10B67000915C3FF4D8AE4FF003025FEADC0C18BFD8
:10B6800003325FEADC0C18BF033202EBDC02C2F1CA
:10B69000200300FA03FC20FA02F001FA03FE40EA5C
:10B6A0000E0021FA02F11444BDE600BF70B54FF060
:10B6B000FF0C4CF4E06C1CEA11541DBF1CEA13553E
:10B6C00094EA0C0F95EA0C0F00F0DEF82C4481EAA6
:10B6D000030621EA4C5123EA4C5350EA013518BFC6
:10B6E00052EA033541F4801143F4801338D0A0FBB3
:10B6F00002CE4FF00005E1FB02E506F00042E0FB60
:10B7000003E54FF00006E1FB03569CF0000F18BF65
:10B710004EF0010EA4F1FF04B6F5007F64F540740D
:10B7200004D25FEA4E0E6D4146EB060642EAC621A0
:10B7300041EA55514FEAC52040EA5E504FEACE2E0D
:10B74000B4F1FD0C88BFBCF5E06F1ED8BEF1004F10
:10B7500008BF5FEA500E50F1000041EB045170BD8C
:10B7600006F0004646EA010140EA020081EA0301D0
:10B77000B4EB5C04C2BFD4EB0C0541EA045170BDCC
:10B7800041F480114FF0000E013C00F3AB8014F146
:10B79000360FDEBF002001F0004170BDC4F100048F
:10B7A000203C35DA0C341BDC04F11404C4F1200510
:10B7B00000FA05F320FA04F001FA05F240EA02006B
:10B7C00001F0004221F0004110EBD37021FA04F6A1
:10B7D00042EB06015EEA430E08BF20EAD37070BD5B
:10B7E000C4F10C04C4F1200500FA04F320FA05F0BA
:10B7F00001FA04F240EA020001F0004110EBD370BC
:10B8000041F100015EEA430E08BF20EAD37070BD2B
:10B81000C4F1200500FA05F24EEA020E20FA04F304
:10B8200001FA05F243EA020321FA04F001F00041B3
:10B8300021FA04F220EA020000EBD3705EEA430E24
:10B8400008BF20EAD37070BD94F0000F0FD101F053
:10B850000046400041EB010111F4801F08BF013C8C
:10B86000F7D041EA060195F0000F18BF704703F0CA
:10B870000046520043EB030313F4801F08BF013D51
:10B88000F7D043EA0603704794EA0C0F0CEA13550D
:10B8900018BF95EA0C0F0CD050EA410618BF52EAC7
:10B8A0004306D1D181EA030101F000414FF00000CD
:10B8B00070BD50EA410606BF1046194652EA4306DB
:10B8C00019D094EA0C0F02D150EA013613D195EA4F
:10B8D0000C0F05D152EA03361CBF104619460AD197
:10B8E00081EA030101F0004141F0FE4141F47001A1
:10B8F0004FF0000070BD41F0FE4141F4780170BD91
:10B9000070B54FF0FF0C4CF4E06C1CEA11541DBFF5
:10B910001CEA135594EA0C0F95EA0C0F00F0A7F8F7
:10B92000A4EB050481EA030E52EA03354FEA013124
:10B9300000F088804FEA03334FF0805545EA131337
:10B9400043EA12634FEA022245EA111545EA1065FF
:10B950004FEA00260EF000419D4208BF964244F196
:10B96000FD0404F5407402D25B084FEA3202B61AB5
:10B9700065EB03055B084FEA32024FF480104FF489
:10B98000002CB6EB020E75EB030E22BFB61A7546FD
:10B9900040EA0C005B084FEA3202B6EB020E75EB90
:10B9A000030E22BFB61A754640EA5C005B084FEAF8
:10B9B0003202B6EB020E75EB030E22BFB61A7546C5
:10B9C00040EA9C005B084FEA3202B6EB020E75EBD0
:10B9D000030E22BFB61A754640EADC0055EA060E91
:10B9E00018D04FEA051545EA16754FEA06164FEAD4
:10B9F000C30343EA52734FEAC2025FEA1C1CC0D180
:10BA000011F4801F0BD141EA00014FF000004FF00C
:10BA1000004CB6E711F4801F04BF01430020B4F1CD
:10BA2000FD0C88BFBCF5E06F3FF6AFAEB5EB030C85
:10BA300004BFB6EB020C5FEA500C50F1000041EB82
:10BA4000045170BD0EF0004E4EEA113114EB5C044F
:10BA5000C2BFD4EB0C0541EA045170BD41F4801122
:10BA60004FF0000E013C90E645EA060E8DE60CEA2A
:10BA7000135594EA0C0F08BF95EA0C0F3FF43BAF47
:10BA800094EA0C0F0AD150EA01347FF434AF95EAFE
:10BA90000C0F7FF425AF104619462CE795EA0C0FE2
:10BAA00006D152EA03353FF4FDAE1046194622E7AF
:10BAB00050EA410618BF52EA43067FF4C5AE50EA89
:10BAC00041047FF40DAF52EA43057FF4EBAE12E779
:10BAD0004FF0FF3C06E000BF4FF0010C02E000BF5A
:10BAE0004FF0010C4DF804CD4FEA410C7FEA6C5C3D
:10BAF0004FEA430C18BF7FEA6C5C1BD001B050EAE0
:10BB0000410C0CBF52EA430C91EA030F02BF90EACA
:10BB1000020F0020704710F1000F91EA030F58BF89
:10BB2000994208BF90422CBFD8176FEAE37040F0EB
:10BB3000010070474FEA410C7FEA6C5C02D150EA89
:10BB4000013C07D14FEA430C7FEA6C5CD6D152EA44
:10BB5000033CD3D05DF8040B704700BF8446104609
:10BB600062468C461946634600E000BF01B5FFF708
:10BB7000B7FF002848BF10F1000F01BD4DF808EDD8
:10BB8000FFF7F4FF0CBF012000205DF808FB00BFA9
:10BB90004DF808EDFFF7EAFF34BF012000205DF803
:10BBA00008FB00BF4DF808EDFFF7E0FF94BF012050
:10BBB00000205DF808FB00BF4DF808EDFFF7CEFF51
:10BBC00094BF012000205DF808FB00BF4DF808ED90
:10BBD000FFF7C4FF34BF012000205DF808FB00BF61
:10BBE0004FEA410C7FEA6C5C02D150EA013C0AD179
:10BBF0004FEA430C7FEA6C5C02D152EA033C02D16B
:10BC00004FF0000070474FF0010070474FEA4102CB
:10BC100012F5001215D211D56FF47873B3EB62529E
:10BC200012D94FEAC12343F0004343EA505311F0C5
:10BC3000004F23FA02F018BF404270474FF0000057
:10BC4000704750EA013005D111F0004008BF6FF095
:10BC5000004070474FF00000704700BF4A0011D20B
:10BC600012F5001211D20DD56FF47873B3EB625256
:10BC70000ED44FEAC12343F0004343EA505323FA62
:10BC800002F070474FF00000704750EA013002D1D7
:10BC90004FF0FF3070474FF0000070474FEA41020D
:10BCA000B2F1E04324BFB3F5001CDCF1FE5C0DD91A
:10BCB00001F0004C4FEAC0024CEA5070B2F1004F64
:10BCC00040EB830008BF20F00100704711F0804F67
:10BCD00021D113F13872BCBF01F00040704741F42C
:10BCE00080114FEA5252C2F11802C2F1200C10FA30
:10BCF0000CF320FA02F018BF40F001004FEAC12314
:10BD00004FEAD32303FA0CFC40EA0C0023FA02F3B7
:10BD10004FEA4303CCE77FEA625307D150EA01338D
:10BD20001EBF4FF0FE4040F44000704701F000405D
:10BD300040F0FE4040F40000704700BF80F000403B
:10BD400002E000BF81F0004142001FBF5FEA4103F3
:10BD500092EA030F7FEA226C7FEA236C6AD04FEAF3
:10BD60001262D2EB1363C1BFD21841404840414038
:10BD7000B8BF5B42192B88BF704710F0004F40F4EA
:10BD8000000020F07F4018BF404211F0004F41F406
:10BD9000000121F07F4118BF494292EA030F3FD0D2
:10BDA000A2F1010241FA03FC10EB0C00C3F12003E5
:10BDB00001FA03F100F0004302D5494260EB400074
:10BDC000B0F5000F13D3B0F1807F06D340084FEADF
:10BDD000310102F10102FE2A51D2B1F1004F40EBD4
:10BDE000C25008BF20F0010040EA0300704749003C
:10BDF00040EB0000013A28BFB0F5000FEDD2B0FAD9
:10BE000080FCACF1080CB2EB0C0200FA0CF0AABFFB
:10BE100000EBC25052421843BCBFD0401843704799
:10BE200092F0000F81F4000106BF80F4000001329F
:10BE3000013BB5E74FEA41037FEA226C18BF7FEA76
:10BE4000236C21D092EA030F04D092F0000F08BFB8
:10BE50000846704790EA010F1CBF0020704712F09F
:10BE60007F4F04D1400028BF40F00040704712F1DE
:10BE700000723CBF00F50000704700F0004343F043
:10BE8000FE4040F4000070477FEA226216BF084679
:10BE90007FEA23630146420206BF5FEA412390EA3C
:10BEA000010F40F4800070474FF0000304E000BF32
:10BEB00010F0004348BF40425FEA000C08BF7047E3
:10BEC00043F0964301464FF000001CE050EA0102A7
:10BED00008BF70474FF000030AE000BF50EA0102BC
:10BEE00008BF704711F0004302D5404261EB4101A9
:10BEF0005FEA010C02BF84460146002043F0B643CE
:10BF000008BFA3F18053A3F50003BCFA8CF2083AF2
:10BF1000A3EBC25310DB01FA02FC634400FA02FCFB
:10BF2000C2F12002BCF1004F20FA02F243EB020002
:10BF300008BF20F00100704702F1200201FA02FC64
:10BF4000C2F1200250EA4C0021FA02F243EB020057
:10BF500008BF20EADC7070474FF0FF0C1CEAD0529B
:10BF60001EBF1CEAD15392EA0C0F93EA0C0F6FD05C
:10BF70001A4480EA010C400218BF5FEA41211ED03A
:10BF80004FF0006343EA501043EA5111A0FB013126
:10BF90000CF00040B1F5000F3EBF490041EAD371FB
:10BFA0005B0040EA010062F17F02FD2A1DD8B3F177
:10BFB000004F40EBC25008BF20F00100704790F0E6
:10BFC000000F0CF0004C08BF49024CEA502040EA38
:10BFD00051207F3AC2BFD2F1FF0340EAC2507047FE
:10BFE00040F400004FF00003013A5DDC12F1190F3C
:10BFF000DCBF00F000407047C2F10002410021FAAE
:10C0000002F1C2F1200200FA02FC5FEA310040F1C5
:10C01000000053EA4C0308BF20EADC70704792F03E
:10C02000000F00F0004C02BF400010F4000F013A76
:10C03000F9D040EA0C0093F0000F01F0004C02BF71
:10C04000490011F4000F013BF9D041EA0C018FE7E0
:10C050000CEAD15392EA0C0F18BF93EA0C0F0AD0E6
:10C0600030F0004C18BF31F0004CD8D180EA01000C
:10C0700000F00040704790F0000F17BF90F0004FA5
:10C08000084691F0000F91F0004F14D092EA0C0F87
:10C0900001D142020FD193EA0C0F03D14B0218BF1A
:10C0A000084608D180EA010000F0004040F0FE4060
:10C0B00040F40000704740F0FE4040F440007047FC
:10C0C0004FF0FF0C1CEAD0521EBF1CEAD15392EA7B
:10C0D0000C0F93EA0C0F69D0A2EB030280EA010C6B
:10C0E00049024FEA402037D04FF0805343EA111104
:10C0F00043EA10130CF000408B4238BF5B0042F162
:10C100007D024FF4000C8B4224BF5B1A40EA0C0006
:10C11000B3EB510F24BFA3EB510340EA5C00B3EB38
:10C12000910F24BFA3EB910340EA9C00B3EBD10F26
:10C1300024BFA3EBD10340EADC001B0118BF5FEA78
:10C140001C1CE0D1FD2A3FF650AF8B4240EBC250A1
:10C1500008BF20F0010070470CF0004C4CEA502062
:10C160007F32C2BFD2F1FF0340EAC250704740F4B1
:10C1700000004FF00003013A37E792F0000F00F0A3
:10C18000004C02BF400010F4000F013AF9D040EA21
:10C190000C0093F0000F01F0004C02BF490011F4B5
:10C1A000000F013BF9D041EA0C0195E70CEAD153AD
:10C1B00092EA0C0F08D142027FF47DAF93EA0C0F94
:10C1C0007FF470AF084676E793EA0C0F04D14B0278
:10C1D0003FF44CAF08466EE730F0004C18BF31F02A
:10C1E000004CCAD130F000427FF45CAF31F0004324
:10C1F0007FF43CAF5FE700BF4FF0FF3C06E000BFBD
:10C200004FF0010C02E000BF4FF0010C4DF804CDDF
:10C210004FEA40024FEA41037FEA226C18BF7FEAEF
:10C22000236C11D001B052EA530C18BF90EA010FF1
:10C2300058BFB2EB030088BFC81738BF6FEAE17080
:10C2400018BF40F0010070477FEA226C02D15FEA1C
:10C25000402C05D17FEA236CE4D15FEA412CE1D088
:10C260005DF8040B704700BF844608466146FFE74F
:10C270000FB5FFF7C9FF002848BF10F1000F0FBD31
:10C280004DF808EDFFF7F4FF0CBF012000205DF82A
:10C2900008FB00BF4DF808EDFFF7EAFF34BF0120AF
:10C2A00000205DF808FB00BF4DF808EDFFF7E0FF48
:10C2B00094BF012000205DF808FB00BF4DF808ED99
:10C2C000FFF7D2FF94BF012000205DF808FB00BFFC
:10C2D0004DF808EDFFF7C8FF34BF012000205DF8DE
:10C2E00008FB00BF4FEA4002B2F1FE4F0FD34FF000
:10C2F0009E03B3EB12620DD94FEA002343F00043D3
:10C3000010F0004F23FA02F018BF404270474FF080
:10C310000000704712F1610F01D1420205D110F007
:10C32000004008BF6FF0004070474FF000007047BA
:10C330007BB972B90029BEBF00204FF0004106E072
:10C3400008BF00281CBF6FF000414FF0FF3000F025
:10C350000BBAADF1080C6DE904CE002909DB002B06
:10C360001ADB00F09FF8DDF804E0DDE9022304B0F9
:10C370007047404261EB4101002B1BDB00F092F85B
:10C38000DDF804E0DDE9022304B0404261EB410145
:10C39000524263EB43037047524263EB430300F0A6
:10C3A00081F8DDF804E0DDE9022304B0404261EBEE
:10C3B00041017047524263EB430300F073F8DDF82C
:10C3C00004E0DDE9022304B0524263EB430370470B
:10C3D00053B94AB9002908BF00281CBF4FF0FF31EC
:10C3E0004FF0FF3000F0C0B9ADF1080C6DE904CE9C
:10C3F00000F058F8DDF804E0DDE9022304B07047EE
:10C4000010B500210446FFF745FF20B92046BDE8DE
:10C41000104000F009B804F1004000F005F8404277
:10C4200061EB410110BD00BFD0B5FFF7E7F8002276
:10C430000B4B06460F46FFF739F9FFF70FFC044692
:10C44000FFF7BAF80022074BFFF730F902460B4618
:10C4500030463946FEF772FFFFF700FC2146D0BD9B
:10C460000000F03D0000F041D0B500220B4B064625
:10C470000F46FFF71BF9FFF7F1FB0446FFF79CF8A7
:10C480000022074BFFF712F902460B4630463946A9
:10C49000FEF754FFFFF7E2FB2146D0BD0000F03D60
:10C4A0000000F0412DE9F047089E0D4604468E46F7
:10C4B000002B40F083808A42174647D9B2FA82F3B4
:10C4C0004BB1C3F1200105FA03FE20FA01F19F40B0
:10C4D00041EA0E0E9C404FEA1748BEFBF8FC1FFADB
:10C4E00087F908FB1CE20CFB09F0210C41EA02422F
:10C4F00090420AD9BA180CF1FF3180F018819042AD
:10C5000040F21581ACF1020C3A44121AB2FBF8F079
:10C5100008FB102200FB09F1A4B244EA0244A14244
:10C5200009D93C1900F1FF3280F00381A14240F2A9
:10C53000008102383C44641A002140EA0C401EB1DC
:10C540000022DC40C6E90042BDE8F08702B9FFDE08
:10C55000B2FA82F3002B4FD18D1A01214FEA124E0D
:10C560001FFA82F8B5FBFEFC0EFB1C5508FB0CF015
:10C57000220C42EA0545A84207D97D190CF1FF3289
:10C5800002D2A84200F2E98094462D1AB5FBFEF0D3
:10C590000EFB105508FB00F8A4B244EA0544A04580
:10C5A00007D93C1900F1FF3202D2A04500F2D98030
:10C5B0001046A4EB080440EA0C40C0E78B4208D9BF
:10C5C000002E00F0B1800021C6E900050846BDE854
:10C5D000F087B3FA83F100294BD1AB4202D38242F8
:10C5E00000F2B980841A65EB030301209E46002EF9
:10C5F000AAD0C6E9004EA7E79F40C3F12002D14070
:10C600004FEA174EB1FBFEF01FFA87F80EFB101130
:10C6100024FA02F29D4000FB08FC2A43150C45EA6F
:10C620000145AC4504FA03F409D97D1900F1FF3145
:10C6300080F08F80AC4540F28C8002383D44A5EB01
:10C640000C05B5FBFEF10EFB115C01FB08F995B280
:10C6500045EA0C45A94507D97D1901F1FF3274D28D
:10C66000A94572D902393D44A5EB090541EA0041CB
:10C6700078E7C1F120078B4022FA07FC4CEA030C53
:10C6800025FA07F44FEA1C4EB4FBFEF91FFA8CF8AA
:10C690000EFB194420FA07F309FB08FA8D401D43ED
:10C6A0002B0C43EA0444A24502FA01F200FA01F31A
:10C6B00009D91CEB040409F1FF3048D2A24546D940
:10C6C000A9F102096444A4EB0A04B4FBFEF00EFBDA
:10C6D000104400FB08FAADB245EA0444A24508D96B
:10C6E0001CEB040400F1FF352DD2A2452BD90238F2
:10C6F000644440EA0940A0FB0289A4EB0A044C45CB
:10C70000C6464D4619D316D05EB1B3EB0E0264EBAC
:10C71000050404FA07F722FA01F31F43CC40C6E9E7
:10C7200000740021BDE8F087314630460CE78C46A6
:10C73000EBE61046FFE64345E6D2B8EB020E69EBA6
:10C740000C050138E0E72846D3E711468CE781461F
:10C75000B9E7084673E7084649E7ACF1020C3D44E7
:10C7600013E702383C4424E7704700BF10B5044685
:10C770000448134620B10A4602202146AFF3008048
:10C7800010BD00BF000000002DE9F0410C46074637
:10C7900000F064FD21468046384600F063FD4369A1
:10C7A00004469A0703F26C7605D1642296FBF2F3F5
:10C7B00002FB13637BBB4FF4C87396FBF3F503FBDB
:10C7C0001565B5FA85F56D093022684B02FB053514
:10C7D00000F070FB00F07AFB654B1B6853B3D8F890
:10C7E0000430B34219D1D7E90067D8E90823D8F853
:10C7F0000010D1B9964277EB030323DAD8E912236C
:10C80000964277EB0303B4BF0123002323621BDBB3
:10C81000D8F828101AE00125D6E7304600F0A2FA31
:10C820000028E0D14FF0FF3304E0964277EB03039A
:10C8300002DA00232362EBE7D8E91223964277EB72
:10C840000303F6DA01232362D8F850104FF4616332
:10C8500091FBF3F63C2003FB161393FBF0F200FB75
:10C86000123061682368891AA2681B1A921B3B2B3D
:10C8700023606160A26034DD013161603C3B236074
:10C8800063683B2B33DD0132A2603C3B6360A368ED
:10C89000172B32DDE269183B0132E261A269A36025
:10C8A0000132062AC8BF0022A261E2682369013270
:10C8B000E26055F823108A420EDD0B2BA2EB010239
:10C8C000E26003F1010205BF0022636922610133C6
:10C8D00002BF22616361E26100F0F2FA2046BDE826
:10C8E000F081002BCCDA013961603C33C7E7002BC3
:10C8F000CDDA013AA2603C33C8E7002BECDAE269FA
:10C900001833013AE261A269A360013A48BF0622E6
:10C91000A261E268013AE260002ADDD12369013BAD
:10C9200005D42361236955F82330E360D4E70B2352
:10C93000236163695A1E626103F26B72930705D12A
:10C94000642192FBF1F301FB132363B94FF4C87127
:10C9500092FBF1F301FB1323B3FA83F35B0903F5B5
:10C96000B673E361DEE70123F9E700BF40EB0A0895
:10C97000A00D002010B591FBF2F4002902FB141366
:10C9800006DB002B01DA01349B1AC0E9004310BD1D
:10C99000002BC4BF04F1FF349B18F6E70A44914210
:10C9A00000F1FF3300D1704710B511F8014B9142EF
:10C9B00003F8014FF9D110BD884210B501EB020414
:10C9C00002D98442234607D8431EA14208D011F859
:10C9D000012B03F8012FF8E7014602448A4200D1F7
:10C9E00010BD13F8014D02F8014DF7E7034602446C
:10C9F000934200D1704703F8011BF9E738B50D4B9E
:10CA000004461D68AB6B7BB91820FAF77BF80A4A1D
:10CA10000A4BA863C0E90023094B012283600B2362
:10CA200083810023C0E904230022AB6B1C615A619F
:10CA300038BD00BF680000200E33CDAB34126DE668
:10CA4000ECDE05000346C9B2184613F8012B12B1FB
:10CA50008A42F9D17047002918BF0020704710B5ED
:10CA60000446FFF7EFFF18B9204600F030F82044E5
:10CA700010BD10F8012B11F8013B012A28BF9A4282
:10CA8000F7D0D01A7047034611F8012B03F8012B99
:10CA9000002AF9D170470000024B0146186800F0E7
:10CAA00003B800BF6800002070B5044608460D4674
:10CAB00000F00DF8461C31462046FAF753F80446BC
:10CAC00018B132462946FFF769FF204670BD03467C
:10CAD00013F8012B002AFBD1181A0138704710B542
:10CAE0006AB10139841810F8013B11F8012F934203
:10CAF00003D1A04201D0002BF5D1981A10BD1046E9
:10CB0000FCE7034610B5013932B111F8014F013A83
:10CB100003F8014B002CF7D100211A44934200D1B5
:10CB200010BD03F8011BF9E738B503460C4669B997
:10CB3000BDE83840FFF786BF0546431C214618462E
:10CB4000FFF780FF0028F7D1284638BD0025F5E71C
:10CB50002DE9F0478C468646394E60461CF8014B5D
:10CB6000A55D15F00805F8D12D2C33D14FF0010843
:10CB70009CF8004000F1020C002B5CD0102B0CD173
:10CB8000302C0AD19CF8000000F0DF0058284DD16D
:10CB900010239CF801400CF1020C002608F100471C
:10CBA000013FB7FBF3F9304603FB197AA4F13005D6
:10CBB000092D18D82C46A34224DD751C07D08145C9
:10CBC0001DD301D1A2451ADB012600FB03401CF84E
:10CBD000014BEBE72B2C08BF9CF80040A84608BF90
:10CBE00000F1020CC8E7A4F14105192D01D8373C2A
:10CBF000E1E7A4F16105192D04D8573CDBE74FF0BC
:10CC0000FF36E4E7731C06D122233846CEF8003005
:10CC100042B9BDE8F087B8F1000F00D04042002AC9
:10CC2000F7D00EB10CF1FF311160F2E73024002B88
:10CC3000B3D10823B1E7302CA4D00A23ADE700BF5D
:10CC4000DDEB0A0813460A46014602480068FFF772
:10CC50007FBF00BF680000202DE9F0438C46864668
:10CC60003A4E60461CF8014BA55D15F00805F8D159
:10CC70002D2C34D14FF001089CF8004000F1020C3B
:10CC8000002B5ED0102B0CD1302C0AD19CF8000068
:10CC900000F0DF0058284FD110239CF801400CF120
:10CCA000020C4FF0FF37B7FBF3F7002503FB07F942
:10CCB00028466FEA0909A4F13006092E18D834462F
:10CCC000A34224DD002D1FDB87421DD301D1A145E6
:10CCD0001ADB012500FB03401CF8014BEBE72B2C72
:10CCE00008BF9CF80040A84608BF00F1020CC7E747
:10CCF000A4F14106192E01D8373CE1E7A4F1610601
:10CD0000192E04D8573CDBE74FF0FF35E4E7002D40
:10CD100007DA22234FF0FF30CEF8003042B9BDE8E9
:10CD2000F083B8F1000F00D04042002AF7D00DB1D7
:10CD30000CF1FF311160F2E73024002BB1D1082350
:10CD4000AFE7302CA2D00A23ABE700BFDDEB0A0827
:10CD500013460A46014602480068FFF77DBF00BF40
:10CD6000680000202DE9F74F804600F077FA40F286
:10CD7000B173984540F397806FF4F66340F26D12FB
:10CD800043449B10A8F2B27502FB05356FF06302B5
:10CD9000A8F26D7393FBF2F36FF4C8621D444FF475
:10CDA000C8734244B2FBF3F298FBF3F715446422D4
:10CDB00003FB178798FBF2F6B7FA87FC04464FF09F
:10CDC000070E02FB168608F00303C0F804804FEA42
:10CDD0005C1C00F1500B0093227A63694A2A28D127
:10CDE0000099EA1801B906B90FBB3B2BD4BF002349
:10CDF000012313445A1EA3692C49283401FB023233
:10CE0000236813441A46DB1744E90223A345E3D100
:10CE1000D0E90845D0E91223944275EB0303B4BF6F
:10CE2000012300230360012003B0BDE8F08F00233D
:10CE3000DFE7442A01D1EA18DDE7009A6ABB002E39
:10CE40000CBFE0464FF001084FF0300AE2684FF0A7
:10CE5000000901922A4616490AFB0818A8F104089D
:10CE6000019909F10109494558F829A017DC02F197
:10CE7000040898FBFEF9C9EBC909A8EB0909B3EB53
:10CE80000909236948BF09F10709013BC3EBC30343
:10CE90004B44534505DA1A44ADE7E046D4E7524423
:10CEA000DEE7073BF5E70020BEE700BF8051010049
:10CEB00040EB0A08014800F085BA00BFB30D00201E
:10CEC000014800F081BA00BFB30D0020014B186883
:10CED00000F002B8680000202DE9F04F8DB0074641
:10CEE00000F0BCF9B0490546384600F0AFF9AF4E46
:10CEF000044670B9AE4BAF4A1860AF4B1860AF4BE9
:10CF00003068C3E90022F9F705FE34600DB0BDE8D2
:10CF1000F08F316800295FD13068F9F7FBFD2046BA
:10CF2000FFF7D5FD411C3846F9F71CFE306000289C
:10CF300057D123780AAE3A2B08BF01343346204636
:10CF40009F4AA049F9F7F6FD0028DFDD0A9BE718A4
:10CF5000E35C2D2B49D14FF0FF3401374FF000082F
:10CF60000DF1200A0DF11E0B33463846CDE9016A5A
:10CF700095490396CDF800B007AAADF81E80ADF82C
:10CF80002080F9F7D7FD4045C0DD3C21BDF81E30BB
:10CF9000BDF82020DFF83C9201FB03224FF46161D1
:10CFA000BDF81C3001FB03235C43854BAC62834C12
:10CFB0004A4623600A9B83491F4438463346F9F7A3
:10CFC000B9FD404517DC2368AA6A6360784B1A6094
:10CFD000794BC3F8008099E7FFF74BFD00289BD100
:10CFE00094E72146FFF74FFDA3E72B2B4FF00104F9
:10CFF00008BF0137B2E70A9BC4F80490FC18FB5C39
:10D000002D2B40F08C804FF0FF3701340023204659
:10D01000ADF81C30ADF81E30ADF820300A93CDE9E4
:10D0200002A63346CDE900B6674907AAF9F782FDA3
:10D0300000287ADCAF6AA7F561672F654FF0000919
:10D040002F460A9B1C4423782C2B08BF013494F8EC
:10D050000080B8F14D0F7AD10DF12603CDE90163BF
:10D0600009AB009320463346584903960DF122023E
:10D07000F9F760FD03287FF449AFBDF822104B1E7D
:10D080000B2B3FF643AFBDF82420531E042B3FF675
:10D090003DAFBDF82630062B3FF638AFC7E9031287
:10D0A00087F808807B610A9B04EB03080223ADF834
:10D0B0001C300023ADF81E30ADF820300A9398F8EC
:10D0C00000302F2B09D133464046CDE902A6CDE9E9
:10D0D00000B63F4907AAF9F72DFD3C21BDF81E30E7
:10D0E000BDF82020283701FB03224FF46161BDF811
:10D0F0001C3001FB032347F8103C0A9C4444B9F15F
:10D10000000F21D06868FFF72DFEAA6A284B1A602D
:10D110002B6D9B1A18BF0123274A1360F6E62B2BB1
:10D120004FF0010708BF013470E73C21BDF81E3005
:10D13000BDF8202001FB03224FF46161BDF81C30D3
:10D1400001FB03235F4378E74FF001097BE7B8F168
:10D150004A0F0ABF4346442301340A2220460BA942
:10D160000593FFF7F5FDDDF82C80059BA045ADF894
:10D17000260014D14D23B9F1000F07D103212B72E2
:10D180000223C5F81490C5E903138FE70B2285F835
:10D1900030300123C5E90D230023EB6386E780B21D
:10D1A0003B72786182E700BFA0EB0A089C0D00206B
:10D1B000A40D0020A3EB0A08A00D0020CC00002045
:10D1C0008F0D0020A7EB0A08CAEB0A08B6EB0A0885
:10D1D000C9EB0A08840D00202DE9F84F074689465F
:10D1E000164600F0F3F8184B1C689A4634B14B46CB
:10D1F000984613F8011B39B13D29F9D1384600F0A2
:10D20000EBF80020BDE8F88FA8EB0908A34654F816
:10D21000040B0028F2D042464946FFF760FC002884
:10D22000F4D154F8043C03EB080513F808303D2B07
:10D23000ECD1DAF800303846ABEB03039B103360D7
:10D2400000F0CAF8681CDDE73001002007B501AA2C
:10D25000FFF7C2FF03B05DF804FB00000048704711
:10D26000D80000202DE9F041D0E900670C460023EA
:10D27000304639464F4AFFF75BF8394605460023EA
:10D2800030464C4AFFF754F84FF46161002ABCBFA6
:10D2900002F5A83202F5C072B2FBF1F301FB1322D2
:10D2A0004FF03C01A360B2FBF1F301FB13222260BB
:10D2B0004FF0070205F52F20ACBF00F66C2000F6FA
:10D2C0006B206360C31C93FBF2F2C2EBC2029B1A99
:10D2D00048BF073300283849A361BDBFA0F50E330E
:10D2E000A3F52C7393FBF1F190FBF1F148F6AC62DE
:10D2F00040F2B45C314B40F26D1703FB0100B0FB10
:10D30000F2F2B0FBFCF30244D21A2D4B6426B0FBC0
:10D31000F3F3D31AB3FBF7F5B3FBFCF3B5FBF6F26B
:10D32000D31A0344992007FB153303EB830C0CF14C
:10D33000020CBCFBF0F74FF0050878430230B0FB5D
:10D34000F8F003F1010EAEEB000040F2F95EF44597
:10D3500094BF4FF0020C6FF0090C67444FF4C87C87
:10D360000CFB0151012F98BF0131B3F5997F0CD30C
:10D37000A3F59973E3610023A1F26C71E060C4E945
:10D38000047120462362BDE8F08115F0030F02D13D
:10D3900006FB12525AB94FF4C876B5FBF6F206FBFB
:10D3A0001252B2FA82F252093B331344E2E70122ED
:10D3B000FAE700BF80510100B13A02004FC5FDFFFE
:10D3C000B03A020070477047704770470148FFF756
:10D3D000FABF00BFB20D00200148FFF7F6BF00BF43
:10D3E000B20D002021000A0861000A0889000A081D
:10D3F0008D000A08000000004661696C65642074B5
:10D400006F2073657420626173656C696E6520724C
:10D41000656164696E6773005972004D6F00446105
:10D42000004872004D69005363005A6F002D2D00B3
:10D43000536176656420002052656164696E67738C
:10D440002E20094D656D6F727920667265653A20F0
:10D450000900766563746F723A3A5F4D5F72656179
:10D460006C6C6F635F696E7365727400000000001E
:10D4700000000000A9000A08A9000A08A9000A087B
:10D48000A9000A08A9000A08A9000A08556E6B6ECF
:10D490006F776E20535349443A200061707077646F
:10D4A000740043757272656E7420796561722069CB
:10D4B000733A200043757272656E74207365636FF2
:10D4C0006E6473206172653A3A20005365636F6E33
:10D4D000647320666F72207468652073746172745F
:10D4E000206F6620796561723A2000446563696D3A
:10D4F000616C20687273206172653A200050495255
:10D50000206C6F6F703A005049522031206465746E
:10D5100065637465642C20736176696E6720646549
:10D5200063696D616C20686F757273005361766911
:10D530006E672053656E736F7220496E666F2E00A2
:10D5400054696D653A200053796E63696E672054A3
:10D55000696D65005475726E696E672057696669FA
:10D56000204F6E00536C656570696E6720666F7240
:10D570002000207365636F6E64732E0044657669C6
:10D5800063652069732066726F7A656E2E20466F20
:10D59000726365642073687574646F776E2E2E2EC7
:10D5A000004265656E206177616B6520666F723A37
:10D5B00020007365636F6E6473004C617374206147
:10D5C00077616B653A200020686F7572732E005783
:10D5D0006F6B6520666F722073656E736F72207259
:10D5E000656164696E677300576F6B6520666F7263
:10D5F00020504952206D6F76656D656E740045450B
:10D6000050524F4D2077617320656D7074790046DC
:10D610006F756E6420454550524F4D2064617461B2
:10D620002C2000416C7265616479206C6F616465C7
:10D630006420454550524F4D20646174612E200096
:10D640000A4E616D653A2009000A536574204761EE
:10D65000733A2009000A566F433A2009000A6543CD
:10D660006F323A200900476F7420696E666F20663A
:10D67000726F6D20454550524F4D2E204E6F7720D2
:10D68000636865636B696E672E004461746120692D
:10D690006E20454550524F4D206973206E6F7420A7
:10D6A000696E697469616C697A65642E205075745D
:10D6B00074696E67206E657720646174612E004422
:10D6C000617461205075742E2E2E004461746120A7
:10D6D00065786973747320627574206E6F7420743A
:10D6E00068652073616D6520617320637572726572
:10D6F0006E74206E616D652E004E416D6520696E01
:10D7000020454550524F4D3A20006E6577206E619E
:10D710006D652020202020203A2000536574206E63
:10D72000657720454550524F4D20646174612C202F
:10D73000004E416D6520746F207361766520746FB3
:10D7400020454550524F4D3A20004E616D65207383
:10D75000686F7274656E656420746F3A200043616F
:10D760006C6C206261636B20666F72206465766901
:10D770006365206E616D652100726563656976651C
:10D78000642000536176696E67206E616D652E2E90
:10D790002E0053657474696E67206E6577206E6124
:10D7A0006D652E2E2E3A2000536574206E616D65D6
:10D7B0002C206E6F7720736176696E6720746F20FE
:10D7C000454550524F4D2E2E2E00576520686176EC
:10D7D000652061206E616D6520696E2072616D202B
:10D7E0002020203A2000576520686176652061205E
:10D7F0006E616D6520696E206F6E2066696C653A9A
:10D800002000576520686176652061206E616D6536
:10D8100020696E20454550524F4D203A2000546FEC
:10D820006F6B20746F6F206C6F6E6720746F206356
:10D830006F6E6E6563742E2E2E2E204E6F772074C1
:10D8400075726E696E67206F666620776966692EED
:10D85000005475726E6564206F666620776966692C
:10D860002E2E206E6F7720746F2072657365742082
:10D87000626F6F6C732E00436F6E6E656374696EBA
:10D880006720576946692E2E2E00436F6E6E6563C2
:10D8900074696E6720746F20436C6F75642E2E2E32
:10D8A000004973206120636C6F7564206C6F6F702A
:10D8B000206275742057696669206973206E6F74E1
:10D8C00020656E61626C65642C2077696C6C206EDB
:10D8D0006F7720636F6E6E6563742E00576966699B
:10D8E0002069732072656164792E0057696669202A
:10D8F000697320636F6E6E656374696E672E00577F
:10D900006966692069732072656164792E206E6F83
:10D910007720746F20636F6E6E65637420746F2060
:10D9200074686520636C6F75642E2000436F6E6EA3
:10D93000656374656420746F2074686520636C6F20
:10D9400075642E2E2E2000416C6C207365747570EA
:10D950002C20636F6E6E656374656420616E642055
:10D96000726561647920746F2064616E63652E2036
:10D9700048617A61720073686F756C64206265201B
:10D98000636F6E6E656374656420746F20636C6F83
:10D9900075642E2E2E20005769466920636F6E6EC7
:10D9A000656374696F6E2074696D6564206F75744A
:10D9B0002C2077696C6C2074727920616E6420630E
:10D9C0006F6E6E6563742E2E2E0057652061726532
:10D9D000207374696C6C20636F6E6E656374696E1E
:10D9E0006720746F2074686520636C6F75642E20E7
:10D9F00057696C6C2074727920636F6E6E65637406
:10DA000020616761696E2E004E6F7420636F6E6EC9
:10DA1000656374656420746F2074686520636C6F3F
:10DA200075642E2077696C6C20747279206167614F
:10DA3000696E2E2E2E00436F6E6E656374696E677D
:10DA400020746F2074686520636C6F75642E2E2EB1
:10DA500020007B20225031223A2022005F00222C1D
:10DA600020224476223A20220022207D0053656E37
:10DA70007420746F2074686520636C6F75642E2E3B
:10DA80002E20007B2000223A004E6F7420636C6FC2
:10DA9000756420726561647920696E2074696D65B2
:10DAA0002E20536176696E6720746F206F66666CF6
:10DAB000696E65206D656D6F72792E004E6F206EF8
:10DAC000616D652C2057696C6C2074727920616ED1
:10DAD0006420676574206F6E652E2E2E00476F746C
:10DAE000206E616D652066726F6D20454550524F06
:10DAF0004D2100576520646F6E7420686176652043
:10DB00006120646576696365206E616D652E2049CC
:10DB10002077696C6C207265676973746572207711
:10DB20006974682074686520636C6F75642E2E2E8E
:10DB3000007061727469636C652F646576696365F2
:10DB40002F6E616D650057616974696E6720746F2F
:10DB50002067657420646576696365206E616D6514
:10DB60002E2E2E005374696C6C2077616974696E77
:10DB70006720666F722061206E616D652E2E2E000B
:10DB80004E6F74206120636C6F7564206C6F6F70D2
:10DB90002E20436865636B696E67206465766963F0
:10DBA0006520666F72206E616D652E004E6F742069
:10DBB0006120636C6F7564206C6F6F7020616E64A0
:10DBC000206E6F207361766564206E616D652C2018
:10DBD000492063616C6C2074686565204E6F4E61EE
:10DBE0006D652E2E2E004E6F4E616D6500576520BF
:10DBF000686176652061206E616D653A200049207C
:10DC0000616D20736C656565707921007472796946
:10DC10006E6720746F20676574206E616D650044C7
:10DC20006576696365206E616D653A2000525443E4
:10DC300020726573756C743A200050696E207265AD
:10DC400073756C743A2000437572726E657420743B
:10DC5000696D653A20005365636F6E647320736964
:10DC60006E6365206C617374206177616B653A2027
:10DC7000005049522073656E736F7220686967683F
:10DC80002C207265636F7264696E672064656369D6
:10DC90006D616C20686F7572732E2E2E00436C6F51
:10DCA000736520746F2077616B6575702074696D82
:10DCB000652C207374617274696E672073656E736E
:10DCC0006F722F77696669206C6F6F703A20004E13
:10DCD0006F74206E6561722057616B65757020747A
:10DCE000696D652E2E2E0052756E6E696E6720531B
:10DCF0006574757020666F72206C6F6F702C2000D9
:10DD0000206F66666C696E652072656164696E6716
:10DD1000732073617665642E004669727374207790
:10DD2000616B6575702E2050686F746F6E2064692A
:10DD300064206E6F742077616B6520757020667249
:10DD40006F6D20736C6565702E0050686F746F6E18
:10DD50002077617320776F6B656E20757020627914
:10DD600020612070696E0050686F746F6E2077615B
:10DD70007320776F6B656E207570206279207468F0
:10DD800065205254432028616674657220612073B7
:10DD90007065636966696564206E756D6265722081
:10DDA0006F66207365636F6E6473290050686F74CB
:10DDB0006F6E2077617320776F6B656E20757020B2
:10DDC00062792065697468657220612070696E20CF
:10DDD0006F72207468652052544320286166746510
:10DDE00072206120737065636966696564206E7571
:10DDF0006D626572206F66207365636F6E64732950
:10DE0000004E6F20526561736F6E00556E737065C2
:10DE100063696669656420726561736F6E0052653F
:10DE20007365742066726F6D20746865204E52535E
:10DE3000542070696E004C6F772D706F776572207B
:10DE40006D616E6167656D656E7420726573657472
:10DE500000506F7765722D646F776E207265736501
:10DE6000740042726F776E6F75742072657365749B
:10DE7000005761746368646F67207265736574002E
:10DE80005375636365737366756C206669726D772D
:10DE9000617265207570646174650047656E6572B6
:10DEA000696320757064617465206572726F7200B9
:10DEB0005570646174652074696D656F7574004692
:10DEC0006163746F72792072657365742072657115
:10DED0007565737465640053616665206D6F646574
:10DEE0002072657175657374656400444655206DD4
:10DEF0006F6465207265717565737465640053792C
:10DF00007374656D2070616E696320286164646953
:10DF100074696F6E616C2064617461206D61792039
:10DF2000636F6E7461696E2070616E696320636FE8
:10DF300064652900557365722D726571756573741A
:10DF40006564207265736574002A2A2A2A2A2A2A9F
:10DF50002A2A2A2A2A2A2A2A2A2A2A2A2A2A2A2A21
:10DF60002A0046696E69736865642053657475702C
:10DF7000206C6F6F702E004F776C4E6F64655F532F
:10DF8000797374656D3031000000000000000000FE
:10DF90000000000000000000A9000A08D1050A08DE
:10DFA00000000000000000003D060A0871060A0893
:10DFB00035830A08D3050A08345169756432392D4E
:10DFC0006461003347207546695F39453000334747
:10DFD000207546695F363142003347207546695FD8
:10DFE000433833003347207546695F394533003382
:10DFF00047207546695F433642003931393239313D
:10E000003932007472656520686F75736520736CB2
:10E010006F7700000000000000000000000000001A
:10E0200000000000000000000000004552524F5266
:10E030002120536F696C2073656E736F72203120DD
:10E040006E6F7420666F756E6400536F696C207319
:10E05000656E736F72203120737461727465642110
:10E060002076657273696F6E3A2000536F696C2079
:10E0700073656E736F722031203D200020646567E8
:10E08000726565732E203A20436170616369746123
:10E090006E63653A0020756E69746C657373005326
:10E0A0003100533200416461467275697420536FC8
:10E0B000696C2053656E736F7220310000000000A0
:10E0C000000000000000F03F000000000000F03FF2
:10E0D000000000000000000065310A08CD310A0888
:10E0E000F9310A085D310A0861310A085D320A080F
:10E0F000436F756C64206E6F742066696E64206176
:10E100002076616C6964204D435039383038207373
:10E11000656E736F722C20636865636B207769721C
:10E12000696E6721004D43503938303820436F6E97
:10E130006E6563746564210054656D706572617409
:10E14000757265203D2000202A43004D74004D4328
:10E1500050393830382054656D706572617475724D
:10E16000652053656E736F720000000000000000B0
:10E170000000000071330A08C5330A08DD330A08BD
:10E1800069330A086D330A0825340A08436F756C31
:10E1900064206E6F742066696E6420612076616C05
:10E1A000696420424D453238302073656E736F725A
:10E1B0002C20636865636B20776972696E67210044
:10E1C000424D4532383020436F6E6E65637465642E
:10E1D00021005072657373757265203D20002068C0
:10E1E000506100417070726F782E20416C746974B8
:10E1F000756465203D2000206D0048756D69646977
:10E200007479203D20002070657263656E74004251
:10E210007400427000426100426800424D4532384D
:10E22000302074656D70657261747572652F7072DF
:10E230006573737572652F68756D696479205365B0
:10E240006E736F7200000000000000000000F03FDD
:10E25000000000000000F03F000000000000F03F60
:10E26000000000000000F03F00000000000000007F
:10E2700009350A0855350A08AD350A0801350A0876
:10E2800005350A0875360A084144533131313520C5
:10E29000436F6E6E65637465642100416E616C6FDF
:10E2A0006775652031203D2000207600416E616C4D
:10E2B0006F6775652032203D2000416E616C6F678D
:10E2C00075652033203D2000416E616C6F67756578
:10E2D0002034203D200041310041320041330041D3
:10E2E00034006164733131313520416E616C6F6788
:10E2F000756520746F206469676974616C20636F51
:10E300007665727465722C2077617465722C20506A
:10E3100049522C20647573742053656E736F727349
:10E320002065746300000000000000000000F03F62
:10E33000000000000000F03F000000000000F03F7F
:10E34000000000000000F03F00000000000000009E
:10E35000AD370A08E9370A0859380A08A5370A0804
:10E36000A9370A0815390A08436F756C64206E6F67
:10E37000742066696E6420612076616C6964204354
:10E3800043533831312073656E736F722C2063688C
:10E3900065636B20776972696E6721004343533868
:10E3A000313120436F6E6E65637465642100457181
:10E3B000756976616C656E7420434F32203D200094
:10E3C0002070706D00546F74616C20564F43732041
:10E3D0003D2000207070620020556E69746C65737A
:10E3E0007300436300437600437400434353383162
:10E3F0003120564F43732F65434F3220676173209E
:10E4000053656E736F720000000000000000F03F63
:10E41000000000000000F03F000000000000F03F9E
:10E4200000000000000000004D3A0A08BD3A0A084A
:10E43000053B0A08453A0A08493A0A08A13B0A0876
:10E44000436F756C64206E6F742066696E64206122
:10E450002076616C69642053475033302073656EB9
:10E46000736F722C20636865636B20776972696EC5
:10E470006721006661696C656420746F20696E694C
:10E480007469616C697A652073656E736F722E00B2
:10E4900053656E736F7220697320696E6974696168
:10E4A0006C697A65642E2047657474696E672042D2
:10E4B0006173652056616C7565732E004661696CE9
:10E4C000656420746F2067657420626173656C6990
:10E4D0006E652072656164696E67730053656E7363
:10E4E0006F72204368697020626173652076616C89
:10E4F0007565733A200965434F323A20002009546C
:10E50000766F633A2000534750333020436F6E6E6E
:10E51000656374656421005373005376005347505C
:10E52000333020564F43732F65434F32206761735A
:10E530002053656E736F72004E657720626173655C
:10E540002076616C7565733A200965434F323A2035
:10E550000000000000000000000000000000F03F8C
:10E56000000000000000F03F00000000000000007C
:10E57000253E0A08D13D0A08C13C0A08B93C0A08F0
:10E58000BD3C0A08353D0A0856454D4C36303730FB
:10E5900020636F6E6E656374656421005556204C70
:10E5A00069676874203D200055560056454D4C362D
:10E5B0003037302055562053656E736F720000005F
:10E5C000000000000000000081400A08C1400A0865
:10E5D000D9400A0879400A087D400A0821410A0802
:10E5E0004552524F522120536F696C2073656E73F0
:10E5F0006F722032206E6F7420666F756E640053E8
:10E600006F696C2073656E736F7220322073746152
:10E6100072746564212076657273696F6E3A2000AA
:10E62000536F696C2073656E736F722032203D20CA
:10E63000005333005334004164614672756974209D
:10E64000536F696C2053656E736F72203200000047
:10E65000000000000000F03F000000000000F03F5C
:10E660000000000000000000FD410A0865420A08A1
:10E6700091420A08F5410A08F9410A08F5420A08D8
:10E68000436F756C64206E6F742066696E642061E0
:10E690002076616C6964204854553231442D4620FF
:10E6A00073656E736F722C20636865636B20776986
:10E6B00072696E6721004854553231442D4620431B
:10E6C0006F6E6E65637465642100202500487400D8
:10E6D0004868004854553231442D462048756D69CC
:10E6E0006469747920616E642054656D706572612F
:10E6F000747572652053656E736F720000000000C0
:10E70000000000000000F03F000000000000F03FAB
:10E71000000000000000000009440A0851440A08F3
:10E7200079440A0801440A0805440A08ED440A0825
:10E7300041350041360041370041380000000000FB
:10E74000000000000000F03F000000000000F03F6B
:10E75000000000000000F03F000000000000F03F5B
:10E76000000000000000000001460A083D460A08BB
:10E77000AD460A08F9450A08FD450A0869470A082E
:10E78000436F756C64206E6F742066696E642061DF
:10E790002076616C69642054534C323536312073D5
:10E7A000656E736F722C20636865636B2077697286
:10E7B000696E67210054534C3235363120436F6EF9
:10E7C0006E6563746564210046756C6C204C6967E6
:10E7D000687420537065637472756D203D2000204D
:10E7E0004C75780056697369626C65204C6967687E
:10E7F00074203D20004952204C69676874203D20F8
:10E80000004C7578204C6576656C73203D20005473
:10E810006C0054760054690054660054534C3235F1
:10E820003631204C75782F76697369626C652F4993
:10E8300052204C696768742053656E736F720000D4
:10E84000000000000000F03F000000000000F03F6A
:10E85000000000000000F03F000000000000F03F5A
:10E860000000000000000000A1480A08FD480A0856
:10E870004D490A0899480A089D480A080D4A0A089D
:10E8800054534C3235393100000048430000964360
:10E890000000C8430000FA430000164400000000D6
:10E8A000000000006F590A08B5590A086D590A0896
:10E8B000735C0A0871590A0800000000000000009B
:10E8C00069610A086B610A085F640A08FD730A0837
:10E8D0006F630A085B620A08CF630A0875640A0856
:10E8E00000081018202830386E616E00696E6600CE
:10E8F0006F766600626175640053657269616C00D1
:10E9000055534253657269616C31004A534F4E53FF
:10E91000747265616D4C6F6748616E646C657200FE
:10E9200061707000253031307520005D2000256455
:10E930000028293A2000205B00636F6465203D2099
:10E940000025690064657461696C73203D20000DC9
:10E950000A006C6E00666E00636F64650064657427
:10E9600061696C000000000000000000AF760A083A
:10E97000D5760A0895760A08DF950A080000000097
:10E9800000000000617B0A08797B0A0835830A08C9
:10E99000D3050A0800000000000000008D7B0A0873
:10E9A000A17B0A08DD840A089D760A0800000000A1
:10E9B00000000000AD760A08E3760A0871820A08B2
:10E9C0009F760A080000000000000000AB760A08ED
:10E9D000F1760A08897A0A080D770A0825592D2543
:10E9E0006D2D25645425483A254D3A2553257A0046
:10E9F00061736374696D6500000000000000000031
:10EA0000F1890A08F7890A08358A0A08058A0A0876
:10EA1000F3890A080000000000000000398F0A088E
:10EA2000298F0A082B8F0A08000000000000000050
:10EA3000F58F0A085B900A0833900A08FD730A08EC
:10EA400025900A08F78F0A0807900A0855900A08C7
:10EA500017900A08F18F0A0800000000000000006B
:10EA600065910A08CD910A08A9910A08FD730A0860
:10EA700079910A0895910A0887910A08A3910A08D2
:10EA800067910A086B910A0800000000000000006E
:10EA9000C9920A0813930A08EB920A08CB920A0853
:10EAA000F3920A08FB920A0803930A080B930A08D8
:10EAB00000000000000000007D940A0873940A081A
:10EAC000AB060A08B5060A0889760A0867940A0898
:10EAD0005B940A0853940A0849940A083F940A0868
:10EAE000FB930A080000000000000000E5940A08FB
:10EAF000EF940A08F9940A0803950A080D950A0884
:10EB000019950A0825950A0831950A0839950A08C1
:10EB100043950A084D950A08257500752530347807
:10EB2000000000006C6F670000000000706F77004D
:10EB3000000000000000304300000000000030C36F
:10EB40001F0000001C0000001F0000001E0000004D
:10EB50001F0000001E0000001F0000001F0000003A
:10EB60001E0000001F0000001E0000001F0000002B
:10EB70001F0000001D0000001F0000001E0000001C
:10EB80001F0000001E0000001F0000001F0000000A
:10EB90001E0000001F0000001E0000001F000000FB
:10EBA000545A00474D54002531305B5E302D392CCE
:10EBB0002B2D5D256E004D256875256E2E256875FB
:10EBC000256E2E256875256E002F256875256E3AF1
:10EBD000256875256E3A256875256E000020202071
:10EBE00020202020202028282828282020202020FD
:10EBF00020202020202020202020202020881010CD
:10EC00001010101010101010101010101004040428
:10EC100004040404040404101010101010104141E6
:10EC200041414141010101010101010101010101D4
:10EC300001010101010101011010101010104242E8
:10EC400042424242020202020202020202020202A4
:10EC50000202020202020202101010102000000044
:10EC600000000000000000000000000000000000A4
:10EC70000000000000000000000000000000000094
:10EC80000000000000000000000000000000000084
:10EC90000000000000000000000000000000000074
:10ECA0000000000000000000000000000000000064
:10ECB0000000000000000000000000000000000054
:10ECC0000000000000000000000000000000000044
:10ECD0000000000000000000000000000000000034
:10ECE000B9050A08852F0A080D6E0A0825830A0847
:10ECF00029880A0889880A08D1940A089D950A0873
:10ED00003D9B0A0800000000000000000000000019
:08ED100094D7FF7F0100000011
:10ED180000000000000000000000000000000000EB
:10ED280000000000000000000000000000000000DB
:10ED380000000000000000000000000000000000CB
:10ED480000000000000000000000000000000000BB
:10F91400B8DF0A0803000000FADF0A0803E00A0857
:10F9240004000000556E6B6E6F776E0000000000DF
:10F9340000000000000000000000000000000000C3
:10F944001A0000000F000000030000000100000086
:10F95400060000000500000005000000C0D40100FE
:10F964000500000088130000B4E90A08CCE90A087D
:10F97400F0E90A08010000006C000020000000000B
:10F984000000000000000000000000000000000073
:10F994000000000000000000000000000000000063
:10F9A4000000000000000000000000000000000053
:10F9B4000000000000000000000000000000000043
:10F9C4000000000000000000000000000000000033
:10F9D400000000000000000000000000A3EB0A0883
:10F9E400A3EB0A0800000000010000000000000072
:10F9F4004A000000000000000000000000000000B9
:10FA040000000000000000000000000000000000F2
:10FA140000000000000000004A0000000000000098
:10FA240000000000000000000000000000000000D2
:10FA340000000000000000000000000000000000C2
:04FA4400A80D0020E9
:10FA4800FFFFFFFF00000102030405060708090A7B
:10FA58000B0C0D0E0F101112131415161718191A76
:08FA68001B1C1D1E1F202800BD
:04FA7000785634127E
:04000005080A0020C5
:00000001FF
