
c:/Users/Gladys/Documents/Repos/OwlNode/OwlNode/target/2.0.0/photon/OwlNode.elf:     file format elf32-littlearm

Sections:
Idx Name          Size      VMA       LMA       File off  Algn
  0 .module_info  00000018  080a0000  080a0000  00010000  2**0
                  CONTENTS, ALLOC, LOAD, READONLY, DATA
  1 .dynalib      00000004  080a0018  080a0018  00010018  2**2
                  CONTENTS, ALLOC, LOAD, READONLY, DATA
  2 .text         0000ecf0  080a0020  080a0020  00010020  2**3
                  CONTENTS, ALLOC, LOAD, READONLY, CODE
  3 .ARM.exidx    00000008  080aed10  080aed10  0001ed10  2**2
                  CONTENTS, ALLOC, LOAD, READONLY, DATA
  4 .backup       00000bfc  40024000  080aed18  00024000  2**2
                  CONTENTS, ALLOC, LOAD, DATA
  5 .data         00000134  20000000  080af914  00030000  2**3
                  CONTENTS, ALLOC, LOAD, DATA
  6 .bss          00000c80  20000138  20000138  00040138  2**3
                  ALLOC
  7 .module_info_suffix 00000028  080afa48  080afa48  0003fa48  2**0
                  CONTENTS, ALLOC, LOAD, READONLY, DATA
  8 .module_info_crc 00000004  080afa70  080afa70  0003fa70  2**0
                  CONTENTS, ALLOC, LOAD, READONLY, DATA
  9 .debug_info   0031091e  00000000  00000000  0003fa74  2**0
                  CONTENTS, READONLY, DEBUGGING
 10 .debug_abbrev 0002e363  00000000  00000000  00350392  2**0
                  CONTENTS, READONLY, DEBUGGING
 11 .debug_loc    0002ee62  00000000  00000000  0037e6f5  2**0
                  CONTENTS, READONLY, DEBUGGING
 12 .debug_aranges 00003158  00000000  00000000  003ad557  2**0
                  CONTENTS, READONLY, DEBUGGING
 13 .debug_ranges 00007b00  00000000  00000000  003b06af  2**0
                  CONTENTS, READONLY, DEBUGGING
 14 .debug_macro  000461c3  00000000  00000000  003b81af  2**0
                  CONTENTS, READONLY, DEBUGGING
 15 .debug_line   0006b9b7  00000000  00000000  003fe372  2**0
                  CONTENTS, READONLY, DEBUGGING
 16 .debug_str    000ca466  00000000  00000000  00469d29  2**0
                  CONTENTS, READONLY, DEBUGGING
 17 .debug_frame  00009028  00000000  00000000  00534190  2**2
                  CONTENTS, READONLY, DEBUGGING

Disassembly of section .text:

080a0020 <module_user_pre_init>:
/**
 * Initializes this user module. Returns the start of the heap.
 */
void* module_user_pre_init() {

    if ( (&link_global_data_start!=&link_global_data_initial_values) && (link_global_data_size != 0))
 80a0020:	4809      	ldr	r0, [pc, #36]	; (80a0048 <module_user_pre_init+0x28>)
 80a0022:	490a      	ldr	r1, [pc, #40]	; (80a004c <module_user_pre_init+0x2c>)
void* module_user_pre_init() {
 80a0024:	b508      	push	{r3, lr}
    if ( (&link_global_data_start!=&link_global_data_initial_values) && (link_global_data_size != 0))
 80a0026:	4288      	cmp	r0, r1
 80a0028:	d005      	beq.n	80a0036 <module_user_pre_init+0x16>
 80a002a:	4a09      	ldr	r2, [pc, #36]	; (80a0050 <module_user_pre_init+0x30>)
 80a002c:	4282      	cmp	r2, r0
 80a002e:	d002      	beq.n	80a0036 <module_user_pre_init+0x16>
    {
        memcpy(&link_global_data_start, &link_global_data_initial_values, link_global_data_size);
 80a0030:	1a12      	subs	r2, r2, r0
 80a0032:	f00c fcb3 	bl	80ac99c <memcpy>
    }

    memset(&link_bss_location, 0, link_bss_size );
 80a0036:	4807      	ldr	r0, [pc, #28]	; (80a0054 <module_user_pre_init+0x34>)
 80a0038:	4a07      	ldr	r2, [pc, #28]	; (80a0058 <module_user_pre_init+0x38>)
 80a003a:	2100      	movs	r1, #0
 80a003c:	1a12      	subs	r2, r2, r0
 80a003e:	f00c fcd5 	bl	80ac9ec <memset>
    return &link_heap_start;
}
 80a0042:	4806      	ldr	r0, [pc, #24]	; (80a005c <module_user_pre_init+0x3c>)
 80a0044:	bd08      	pop	{r3, pc}
 80a0046:	bf00      	nop
 80a0048:	20000000 	.word	0x20000000
 80a004c:	080af914 	.word	0x080af914
 80a0050:	20000134 	.word	0x20000134
 80a0054:	20000138 	.word	0x20000138
 80a0058:	20000db5 	.word	0x20000db5
 80a005c:	20000db5 	.word	0x20000db5

080a0060 <module_user_init>:
extern constructor_ptr_t link_constructors_location[];
extern constructor_ptr_t link_constructors_end;
#define link_constructors_size   ((unsigned long)&link_constructors_end  -  (unsigned long)&link_constructors_location )

void module_user_init()
{
 80a0060:	b570      	push	{r4, r5, r6, lr}
    module_user_init_hook();
 80a0062:	f008 fc93 	bl	80a898c <module_user_init_hook>

    // invoke constructors
    int ctor_num;
    for (ctor_num=0; ctor_num < link_constructors_size/sizeof(constructor_ptr_t); ctor_num++ )
 80a0066:	2500      	movs	r5, #0
 80a0068:	4e05      	ldr	r6, [pc, #20]	; (80a0080 <module_user_init+0x20>)
 80a006a:	4c06      	ldr	r4, [pc, #24]	; (80a0084 <module_user_init+0x24>)
 80a006c:	1ba4      	subs	r4, r4, r6
 80a006e:	08a4      	lsrs	r4, r4, #2
 80a0070:	42a5      	cmp	r5, r4
 80a0072:	d100      	bne.n	80a0076 <module_user_init+0x16>
    {
        link_constructors_location[ctor_num]();
    }
}
 80a0074:	bd70      	pop	{r4, r5, r6, pc}
        link_constructors_location[ctor_num]();
 80a0076:	f856 3b04 	ldr.w	r3, [r6], #4
 80a007a:	4798      	blx	r3
    for (ctor_num=0; ctor_num < link_constructors_size/sizeof(constructor_ptr_t); ctor_num++ )
 80a007c:	3501      	adds	r5, #1
 80a007e:	e7f7      	b.n	80a0070 <module_user_init+0x10>
 80a0080:	080aece0 	.word	0x080aece0
 80a0084:	080aed04 	.word	0x080aed04

080a0088 <module_user_setup>:

/**
 * Export these functions with a fuller name so they don't clash with the setup/loop wrappers in the system module.
 */
void module_user_setup() {
    setup();
 80a0088:	f002 bdb0 	b.w	80a2bec <setup>

080a008c <module_user_loop>:
}

void module_user_loop() {
 80a008c:	b508      	push	{r3, lr}
    loop();
 80a008e:	f002 fb9f 	bl	80a27d0 <loop>
    _post_loop();
}
 80a0092:	e8bd 4008 	ldmia.w	sp!, {r3, lr}
    _post_loop();
 80a0096:	f008 bc3b 	b.w	80a8910 <_post_loop>

080a009a <_Znwj>:
 * Implement C++ new/delete operators using the heap
 */

void *operator new(size_t size)
{
	return malloc(size);
 80a009a:	f006 bd33 	b.w	80a6b04 <malloc>

080a009e <_Znaj>:
 80a009e:	f006 bd31 	b.w	80a6b04 <malloc>

080a00a2 <_ZdlPv>:
	return malloc(size);
}

void operator delete(void *p)
{
	free(p);
 80a00a2:	f006 bd37 	b.w	80a6b14 <free>
	...

080a00a8 <__cxa_pure_virtual>:
    return (char*)"";
}

/* Default implementation for call made to pure virtual function. */
void __cxa_pure_virtual() {
  PANIC(PureVirtualCall,"Call on pure virtual");
 80a00a8:	2100      	movs	r1, #0
 80a00aa:	200c      	movs	r0, #12
void __cxa_pure_virtual() {
 80a00ac:	b508      	push	{r3, lr}
  PANIC(PureVirtualCall,"Call on pure virtual");
 80a00ae:	4a02      	ldr	r2, [pc, #8]	; (80a00b8 <__cxa_pure_virtual+0x10>)
 80a00b0:	f006 fc14 	bl	80a68dc <panic_>
  while (1);
 80a00b4:	e7fe      	b.n	80a00b4 <__cxa_pure_virtual+0xc>
 80a00b6:	bf00      	nop
 80a00b8:	080a6505 	.word	0x080a6505

080a00bc <__cxa_guard_acquire>:

/* Provide default implemenation for __cxa_guard_acquire() and
 * __cxa_guard_release(). Note: these must be revisited if a multitasking
 * OS is ported to this platform. */
__extension__ typedef int __guard __attribute__((mode (__DI__)));
int __cxa_guard_acquire(__guard *g) {return !*(char *)(g);};
 80a00bc:	7800      	ldrb	r0, [r0, #0]
 80a00be:	fab0 f080 	clz	r0, r0
 80a00c2:	0940      	lsrs	r0, r0, #5
 80a00c4:	4770      	bx	lr

080a00c6 <__cxa_guard_release>:
void __cxa_guard_release (__guard *g) {*(char *)g = 1;};
 80a00c6:	2301      	movs	r3, #1
 80a00c8:	7003      	strb	r3, [r0, #0]
 80a00ca:	4770      	bx	lr

080a00cc <_ZN16SensorController10setGasBaseEtt>:
}
*/


bool SensorController::setGasBase(uint16_t eCO2_baseline, uint16_t TVOC_baseline)
{
 80a00cc:	b510      	push	{r4, lr}
  if (!gasSensor.setBaseLine(eCO2_baseline, TVOC_baseline))
 80a00ce:	f500 706e 	add.w	r0, r0, #952	; 0x3b8
 80a00d2:	f003 ff4f 	bl	80a3f74 <_ZN5SGP3011setBaseLineEtt>
 80a00d6:	4604      	mov	r4, r0
 80a00d8:	b920      	cbnz	r0, 80a00e4 <_ZN16SensorController10setGasBaseEtt+0x18>
  {
    Serial.println("Failed to set baseline readings");
 80a00da:	f008 ffeb 	bl	80a90b4 <_Z16_fetch_usbserialv>
 80a00de:	4902      	ldr	r1, [pc, #8]	; (80a00e8 <_ZN16SensorController10setGasBaseEtt+0x1c>)
 80a00e0:	f007 f9b5 	bl	80a744e <_ZN5Print7printlnEPKc>
    return false;
  }
  return true;
}
 80a00e4:	4620      	mov	r0, r4
 80a00e6:	bd10      	pop	{r4, pc}
 80a00e8:	080ad3f8 	.word	0x080ad3f8

080a00ec <_ZN16SensorController13UpdateSensorsEv>:
{
  return gasSensor.returnBaseLine();
}

void SensorController::UpdateSensors()
{
 80a00ec:	e92d 4ff0 	stmdb	sp!, {r4, r5, r6, r7, r8, r9, sl, fp, lr}

  if (savedReadings >= maxSavedReadings)
 80a00f0:	f8d0 39cc 	ldr.w	r3, [r0, #2508]	; 0x9cc
{
 80a00f4:	4604      	mov	r4, r0
  if (savedReadings >= maxSavedReadings)
 80a00f6:	2b09      	cmp	r3, #9
  {
    savedReadings = 0;
 80a00f8:	bfc2      	ittt	gt
 80a00fa:	2300      	movgt	r3, #0
 80a00fc:	f8c0 39cc 	strgt.w	r3, [r0, #2508]	; 0x9cc
    readyToSend = true;
 80a0100:	2301      	movgt	r3, #1
  }

  //  if (savedReadings == 0) {
  JasonName[0] = "Yr";
 80a0102:	f600 09f8 	addw	r9, r0, #2296	; 0x8f8
    readyToSend = true;
 80a0106:	bfc8      	it	gt
 80a0108:	f880 39d0 	strbgt.w	r3, [r0, #2512]	; 0x9d0
{
 80a010c:	b08f      	sub	sp, #60	; 0x3c
  JasonName[0] = "Yr";
 80a010e:	498c      	ldr	r1, [pc, #560]	; (80a0340 <_ZN16SensorController13UpdateSensorsEv+0x254>)
 80a0110:	4648      	mov	r0, r9
 80a0112:	f007 f832 	bl	80a717a <_ZN6StringaSEPKc>
  JasonName[1] = "Mo";
 80a0116:	498b      	ldr	r1, [pc, #556]	; (80a0344 <_ZN16SensorController13UpdateSensorsEv+0x258>)
 80a0118:	f604 1008 	addw	r0, r4, #2312	; 0x908
 80a011c:	f007 f82d 	bl	80a717a <_ZN6StringaSEPKc>
  JasonName[2] = "Da";
 80a0120:	4989      	ldr	r1, [pc, #548]	; (80a0348 <_ZN16SensorController13UpdateSensorsEv+0x25c>)
 80a0122:	f604 1018 	addw	r0, r4, #2328	; 0x918
 80a0126:	f007 f828 	bl	80a717a <_ZN6StringaSEPKc>
  JasonName[3] = "Hr";
 80a012a:	4988      	ldr	r1, [pc, #544]	; (80a034c <_ZN16SensorController13UpdateSensorsEv+0x260>)
 80a012c:	f604 1028 	addw	r0, r4, #2344	; 0x928
 80a0130:	f007 f823 	bl	80a717a <_ZN6StringaSEPKc>
  JasonName[4] = "Mi";
 80a0134:	4986      	ldr	r1, [pc, #536]	; (80a0350 <_ZN16SensorController13UpdateSensorsEv+0x264>)
 80a0136:	f604 1038 	addw	r0, r4, #2360	; 0x938
 80a013a:	f007 f81e 	bl	80a717a <_ZN6StringaSEPKc>
  JasonName[5] = "Sc";
 80a013e:	4985      	ldr	r1, [pc, #532]	; (80a0354 <_ZN16SensorController13UpdateSensorsEv+0x268>)
 80a0140:	f604 1048 	addw	r0, r4, #2376	; 0x948
 80a0144:	f007 f819 	bl	80a717a <_ZN6StringaSEPKc>
  JasonName[6] = "Zo";
 80a0148:	4983      	ldr	r1, [pc, #524]	; (80a0358 <_ZN16SensorController13UpdateSensorsEv+0x26c>)
 80a014a:	f604 1058 	addw	r0, r4, #2392	; 0x958
 80a014e:	f007 f814 	bl	80a717a <_ZN6StringaSEPKc>

  int count = 7;
  for (size_t i = 0; i < sensorsConnected.size(); i++)
 80a0152:	2700      	movs	r7, #0
  int count = 7;
 80a0154:	2507      	movs	r5, #7

      // [23.2.4.2] capacity
      /**  Returns the number of elements in the %vector.  */
      size_type
      size() const _GLIBCXX_NOEXCEPT
      { return size_type(this->_M_impl._M_finish - this->_M_impl._M_start); }
 80a0156:	e9d4 2304 	ldrd	r2, r3, [r4, #16]
 80a015a:	1a9b      	subs	r3, r3, r2
  for (size_t i = 0; i < sensorsConnected.size(); i++)
 80a015c:	ebb7 0fa3 	cmp.w	r7, r3, asr #2
 80a0160:	d309      	bcc.n	80a0176 <_ZN16SensorController13UpdateSensorsEv+0x8a>
      count++;
    }
  }
  for (int i = count; i < nStaticReadings; i++)
  {
    JasonName[i] = "--";
 80a0162:	4e7e      	ldr	r6, [pc, #504]	; (80a035c <_ZN16SensorController13UpdateSensorsEv+0x270>)
  for (int i = count; i < nStaticReadings; i++)
 80a0164:	2d0c      	cmp	r5, #12
 80a0166:	dc24      	bgt.n	80a01b2 <_ZN16SensorController13UpdateSensorsEv+0xc6>
    JasonName[i] = "--";
 80a0168:	eb09 1005 	add.w	r0, r9, r5, lsl #4
 80a016c:	4631      	mov	r1, r6
 80a016e:	f007 f804 	bl	80a717a <_ZN6StringaSEPKc>
  for (int i = count; i < nStaticReadings; i++)
 80a0172:	3501      	adds	r5, #1
 80a0174:	e7f6      	b.n	80a0164 <_ZN16SensorController13UpdateSensorsEv+0x78>
 80a0176:	46aa      	mov	sl, r5
    for (int j = 0; j < sensorsConnected[i]->getNumberSensors(); j++)
 80a0178:	2600      	movs	r6, #0
 80a017a:	00bb      	lsls	r3, r7, #2
 80a017c:	eb04 1805 	add.w	r8, r4, r5, lsl #4
 80a0180:	6922      	ldr	r2, [r4, #16]
 80a0182:	eb06 050a 	add.w	r5, r6, sl
 80a0186:	58d0      	ldr	r0, [r2, r3]
 80a0188:	9301      	str	r3, [sp, #4]
 80a018a:	6942      	ldr	r2, [r0, #20]
 80a018c:	f108 0b10 	add.w	fp, r8, #16
 80a0190:	4296      	cmp	r6, r2
 80a0192:	da0c      	bge.n	80a01ae <_ZN16SensorController13UpdateSensorsEv+0xc2>
      JasonName[count] = (sensorsConnected[i]->getJSONCodes())[j];
 80a0194:	6802      	ldr	r2, [r0, #0]
 80a0196:	6912      	ldr	r2, [r2, #16]
 80a0198:	4790      	blx	r2
 80a019a:	eb00 1106 	add.w	r1, r0, r6, lsl #4
 80a019e:	f608 00f8 	addw	r0, r8, #2296	; 0x8f8
 80a01a2:	f006 ffc8 	bl	80a7136 <_ZN6StringaSERKS_>
    for (int j = 0; j < sensorsConnected[i]->getNumberSensors(); j++)
 80a01a6:	46d8      	mov	r8, fp
 80a01a8:	9b01      	ldr	r3, [sp, #4]
 80a01aa:	3601      	adds	r6, #1
 80a01ac:	e7e8      	b.n	80a0180 <_ZN16SensorController13UpdateSensorsEv+0x94>
  for (size_t i = 0; i < sensorsConnected.size(); i++)
 80a01ae:	3701      	adds	r7, #1
 80a01b0:	e7d1      	b.n	80a0156 <_ZN16SensorController13UpdateSensorsEv+0x6a>
  //  latestReadingValues[3] = Time.hour();
  //  latestReadingValues[4] = Time.minute();
  //  latestReadingValues[5] = Time.second();
  //latestReadingValues[6] = 10;

  staticReadings[savedReadings][0] = Time.year();
 80a01b2:	2668      	movs	r6, #104	; 0x68
 80a01b4:	f008 fb1e 	bl	80a87f4 <_ZN9TimeClass4yearEv>
 80a01b8:	f8d4 39cc 	ldr.w	r3, [r4, #2508]	; 0x9cc
  staticReadings[savedReadings][4] = Time.minute();
  staticReadings[savedReadings][5] = Time.second();
  staticReadings[savedReadings][6] = 10;

  count = 7;
  for (size_t i = 0; i < sensorsConnected.size(); i++)
 80a01bc:	f04f 0800 	mov.w	r8, #0
  staticReadings[savedReadings][0] = Time.year();
 80a01c0:	fb06 4303 	mla	r3, r6, r3, r4
 80a01c4:	f503 659d 	add.w	r5, r3, #1256	; 0x4e8
 80a01c8:	f00b fa06 	bl	80ab5d8 <__aeabi_i2d>
 80a01cc:	e9c5 0100 	strd	r0, r1, [r5]
  staticReadings[savedReadings][1] = Time.month();
 80a01d0:	f008 fb08 	bl	80a87e4 <_ZN9TimeClass5monthEv>
 80a01d4:	f8d4 39cc 	ldr.w	r3, [r4, #2508]	; 0x9cc
 80a01d8:	fb06 4303 	mla	r3, r6, r3, r4
 80a01dc:	f503 659e 	add.w	r5, r3, #1264	; 0x4f0
 80a01e0:	f00b f9fa 	bl	80ab5d8 <__aeabi_i2d>
 80a01e4:	e9c5 0100 	strd	r0, r1, [r5]
  staticReadings[savedReadings][2] = Time.day();
 80a01e8:	f008 faf0 	bl	80a87cc <_ZN9TimeClass3dayEv>
 80a01ec:	f8d4 39cc 	ldr.w	r3, [r4, #2508]	; 0x9cc
 80a01f0:	fb06 4303 	mla	r3, r6, r3, r4
 80a01f4:	f503 659f 	add.w	r5, r3, #1272	; 0x4f8
 80a01f8:	f00b f9ee 	bl	80ab5d8 <__aeabi_i2d>
 80a01fc:	e9c5 0100 	strd	r0, r1, [r5]
  staticReadings[savedReadings][3] = Time.hour();
 80a0200:	f008 fac0 	bl	80a8784 <_ZN9TimeClass4hourEv>
 80a0204:	f8d4 39cc 	ldr.w	r3, [r4, #2508]	; 0x9cc
 80a0208:	fb06 4303 	mla	r3, r6, r3, r4
 80a020c:	f503 65a0 	add.w	r5, r3, #1280	; 0x500
 80a0210:	f00b f9e2 	bl	80ab5d8 <__aeabi_i2d>
 80a0214:	e9c5 0100 	strd	r0, r1, [r5]
  staticReadings[savedReadings][4] = Time.minute();
 80a0218:	f008 fac0 	bl	80a879c <_ZN9TimeClass6minuteEv>
 80a021c:	f8d4 39cc 	ldr.w	r3, [r4, #2508]	; 0x9cc
 80a0220:	fb06 4303 	mla	r3, r6, r3, r4
 80a0224:	f503 65a1 	add.w	r5, r3, #1288	; 0x508
 80a0228:	f00b f9d6 	bl	80ab5d8 <__aeabi_i2d>
 80a022c:	e9c5 0100 	strd	r0, r1, [r5]
  staticReadings[savedReadings][5] = Time.second();
 80a0230:	f008 fac0 	bl	80a87b4 <_ZN9TimeClass6secondEv>
 80a0234:	f00b f9d0 	bl	80ab5d8 <__aeabi_i2d>
  staticReadings[savedReadings][6] = 10;
 80a0238:	2200      	movs	r2, #0
  staticReadings[savedReadings][5] = Time.second();
 80a023a:	f8d4 59cc 	ldr.w	r5, [r4, #2508]	; 0x9cc
  staticReadings[savedReadings][6] = 10;
 80a023e:	4b48      	ldr	r3, [pc, #288]	; (80a0360 <_ZN16SensorController13UpdateSensorsEv+0x274>)
  staticReadings[savedReadings][5] = Time.second();
 80a0240:	fb06 4505 	mla	r5, r6, r5, r4
 80a0244:	f505 66a2 	add.w	r6, r5, #1296	; 0x510
  staticReadings[savedReadings][6] = 10;
 80a0248:	f505 65a3 	add.w	r5, r5, #1304	; 0x518
  staticReadings[savedReadings][5] = Time.second();
 80a024c:	e9c6 0100 	strd	r0, r1, [r6]
  staticReadings[savedReadings][6] = 10;
 80a0250:	e9c5 2300 	strd	r2, r3, [r5]
    sensorsConnected[i]->UpdateReading();
    //    Serial.println("Updating " + sensorsConnected[i]->getName());
    for (int j = 0; j < sensorsConnected[i]->getNumberSensors(); j++)
    {
      //  latestReadingValues[count] = (sensorsConnected[i]->getLatestValues())[j];
      staticReadings[savedReadings][count] = (sensorsConnected[i]->getLatestValues())[j];
 80a0254:	260d      	movs	r6, #13
  count = 7;
 80a0256:	2507      	movs	r5, #7
 80a0258:	e9d4 2304 	ldrd	r2, r3, [r4, #16]
 80a025c:	1a9b      	subs	r3, r3, r2
  for (size_t i = 0; i < sensorsConnected.size(); i++)
 80a025e:	ebb8 0fa3 	cmp.w	r8, r3, asr #2
 80a0262:	d225      	bcs.n	80a02b0 <_ZN16SensorController13UpdateSensorsEv+0x1c4>
    sensorsConnected[i]->UpdateReading();
 80a0264:	f852 0028 	ldr.w	r0, [r2, r8, lsl #2]
    for (int j = 0; j < sensorsConnected[i]->getNumberSensors(); j++)
 80a0268:	f04f 0900 	mov.w	r9, #0
    sensorsConnected[i]->UpdateReading();
 80a026c:	6803      	ldr	r3, [r0, #0]
 80a026e:	ea4f 0788 	mov.w	r7, r8, lsl #2
 80a0272:	685b      	ldr	r3, [r3, #4]
 80a0274:	4798      	blx	r3
    for (int j = 0; j < sensorsConnected[i]->getNumberSensors(); j++)
 80a0276:	6923      	ldr	r3, [r4, #16]
 80a0278:	eb05 0a09 	add.w	sl, r5, r9
 80a027c:	59d8      	ldr	r0, [r3, r7]
 80a027e:	6943      	ldr	r3, [r0, #20]
 80a0280:	4599      	cmp	r9, r3
 80a0282:	da11      	bge.n	80a02a8 <_ZN16SensorController13UpdateSensorsEv+0x1bc>
      staticReadings[savedReadings][count] = (sensorsConnected[i]->getLatestValues())[j];
 80a0284:	6803      	ldr	r3, [r0, #0]
 80a0286:	68db      	ldr	r3, [r3, #12]
 80a0288:	4798      	blx	r3
 80a028a:	f8d4 39cc 	ldr.w	r3, [r4, #2508]	; 0x9cc
 80a028e:	eb00 00c9 	add.w	r0, r0, r9, lsl #3
 80a0292:	fb06 a303 	mla	r3, r6, r3, sl
 80a0296:	c803      	ldmia	r0, {r0, r1}
 80a0298:	339d      	adds	r3, #157	; 0x9d
 80a029a:	eb04 03c3 	add.w	r3, r4, r3, lsl #3
 80a029e:	e9c3 0100 	strd	r0, r1, [r3]
    for (int j = 0; j < sensorsConnected[i]->getNumberSensors(); j++)
 80a02a2:	f109 0901 	add.w	r9, r9, #1
 80a02a6:	e7e6      	b.n	80a0276 <_ZN16SensorController13UpdateSensorsEv+0x18a>
  for (size_t i = 0; i < sensorsConnected.size(); i++)
 80a02a8:	4655      	mov	r5, sl
 80a02aa:	f108 0801 	add.w	r8, r8, #1
 80a02ae:	e7d3      	b.n	80a0258 <_ZN16SensorController13UpdateSensorsEv+0x16c>
      count++;
    }
  }
  for (size_t i = count; i < nStaticReadings; i++)
 80a02b0:	462b      	mov	r3, r5
  {
    staticReadings[savedReadings][i] = -1;
 80a02b2:	2000      	movs	r0, #0
 80a02b4:	250d      	movs	r5, #13
 80a02b6:	492b      	ldr	r1, [pc, #172]	; (80a0364 <_ZN16SensorController13UpdateSensorsEv+0x278>)
  for (size_t i = count; i < nStaticReadings; i++)
 80a02b8:	2b0c      	cmp	r3, #12
 80a02ba:	d80a      	bhi.n	80a02d2 <_ZN16SensorController13UpdateSensorsEv+0x1e6>
    staticReadings[savedReadings][i] = -1;
 80a02bc:	f8d4 29cc 	ldr.w	r2, [r4, #2508]	; 0x9cc
 80a02c0:	fb05 3202 	mla	r2, r5, r2, r3
 80a02c4:	329d      	adds	r2, #157	; 0x9d
 80a02c6:	eb04 02c2 	add.w	r2, r4, r2, lsl #3
 80a02ca:	e9c2 0100 	strd	r0, r1, [r2]
  for (size_t i = count; i < nStaticReadings; i++)
 80a02ce:	3301      	adds	r3, #1
 80a02d0:	e7f2      	b.n	80a02b8 <_ZN16SensorController13UpdateSensorsEv+0x1cc>
  }
  Serial.println("Saved " + String(savedReadings) + " Readings. \tMemory free: \t" + String(System.freeMemory()));
 80a02d2:	f008 feef 	bl	80a90b4 <_Z16_fetch_usbserialv>

class StringSumHelper : public String
{
public:
	StringSumHelper(const String &s) : String(s) {}
	StringSumHelper(const char *p) : String(p) {}
 80a02d6:	4924      	ldr	r1, [pc, #144]	; (80a0368 <_ZN16SensorController13UpdateSensorsEv+0x27c>)
 80a02d8:	4605      	mov	r5, r0
 80a02da:	a806      	add	r0, sp, #24
 80a02dc:	f006 fef0 	bl	80a70c0 <_ZN6StringC1EPKc>
 80a02e0:	220a      	movs	r2, #10
 80a02e2:	f8d4 19cc 	ldr.w	r1, [r4, #2508]	; 0x9cc
 80a02e6:	a802      	add	r0, sp, #8
 80a02e8:	f006 ff6a 	bl	80a71c0 <_ZN6StringC1Eih>
 80a02ec:	a902      	add	r1, sp, #8
 80a02ee:	a806      	add	r0, sp, #24
 80a02f0:	f006 fff9 	bl	80a72e6 <_ZplRK15StringSumHelperRK6String>
 80a02f4:	491d      	ldr	r1, [pc, #116]	; (80a036c <_ZN16SensorController13UpdateSensorsEv+0x280>)
 80a02f6:	f007 f802 	bl	80a72fe <_ZplRK15StringSumHelperPKc>
 80a02fa:	4606      	mov	r6, r0
 80a02fc:	f006 fd64 	bl	80a6dc8 <_ZN11SystemClass10freeMemoryEv>
 80a0300:	220a      	movs	r2, #10
 80a0302:	4601      	mov	r1, r0
 80a0304:	a80a      	add	r0, sp, #40	; 0x28
 80a0306:	f006 ff81 	bl	80a720c <_ZN6StringC1Emh>
 80a030a:	a90a      	add	r1, sp, #40	; 0x28
 80a030c:	4630      	mov	r0, r6
 80a030e:	f006 ffea 	bl	80a72e6 <_ZplRK15StringSumHelperRK6String>
 80a0312:	6801      	ldr	r1, [r0, #0]
 80a0314:	4628      	mov	r0, r5
 80a0316:	f007 f89a 	bl	80a744e <_ZN5Print7printlnEPKc>
 80a031a:	a80a      	add	r0, sp, #40	; 0x28
 80a031c:	f006 fe86 	bl	80a702c <_ZN6StringD1Ev>
 80a0320:	a802      	add	r0, sp, #8
 80a0322:	f006 fe83 	bl	80a702c <_ZN6StringD1Ev>
class StringSumHelper : public String
 80a0326:	a806      	add	r0, sp, #24
 80a0328:	f006 fe80 	bl	80a702c <_ZN6StringD1Ev>

  if (savedReadings < maxSavedReadings)
 80a032c:	f8d4 39cc 	ldr.w	r3, [r4, #2508]	; 0x9cc
 80a0330:	2b09      	cmp	r3, #9
  {
    savedReadings++;
 80a0332:	bfdc      	itt	le
 80a0334:	3301      	addle	r3, #1
 80a0336:	f8c4 39cc 	strle.w	r3, [r4, #2508]	; 0x9cc
data.concat("\"Zo\": " + String(10) + " }");


-----
*/
}
 80a033a:	b00f      	add	sp, #60	; 0x3c
 80a033c:	e8bd 8ff0 	ldmia.w	sp!, {r4, r5, r6, r7, r8, r9, sl, fp, pc}
 80a0340:	080ad418 	.word	0x080ad418
 80a0344:	080ad41b 	.word	0x080ad41b
 80a0348:	080ad41e 	.word	0x080ad41e
 80a034c:	080ad421 	.word	0x080ad421
 80a0350:	080ad424 	.word	0x080ad424
 80a0354:	080ad427 	.word	0x080ad427
 80a0358:	080ad42a 	.word	0x080ad42a
 80a035c:	080ad42d 	.word	0x080ad42d
 80a0360:	40240000 	.word	0x40240000
 80a0364:	bff00000 	.word	0xbff00000
 80a0368:	080ad430 	.word	0x080ad430
 80a036c:	080ad437 	.word	0x080ad437

080a0370 <_ZNSt6vectorIP10SensorBaseSaIS1_EE17_M_realloc_insertIJS1_EEEvN9__gnu_cxx17__normal_iteratorIPS1_S3_EEDpOT_>:

#if __cplusplus >= 201103L
  template<typename _Tp, typename _Alloc>
    template<typename... _Args>
      void
      vector<_Tp, _Alloc>::
 80a0370:	e92d 4ff8 	stmdb	sp!, {r3, r4, r5, r6, r7, r8, r9, sl, fp, lr}

      // Called by _M_fill_insert, _M_insert_aux etc.
      size_type
      _M_check_len(size_type __n, const char* __s) const
      {
	if (max_size() - size() < __n)
 80a0374:	f06f 4360 	mvn.w	r3, #3758096384	; 0xe0000000
      { return size_type(this->_M_impl._M_finish - this->_M_impl._M_start); }
 80a0378:	e9d0 9800 	ldrd	r9, r8, [r0]
 80a037c:	4693      	mov	fp, r2
 80a037e:	eba8 0209 	sub.w	r2, r8, r9
	if (max_size() - size() < __n)
 80a0382:	ebb3 0fa2 	cmp.w	r3, r2, asr #2
 80a0386:	4607      	mov	r7, r0
 80a0388:	468a      	mov	sl, r1
      { return size_type(this->_M_impl._M_finish - this->_M_impl._M_start); }
 80a038a:	ea4f 04a2 	mov.w	r4, r2, asr #2
	if (max_size() - size() < __n)
 80a038e:	d102      	bne.n	80a0396 <_ZNSt6vectorIP10SensorBaseSaIS1_EE17_M_realloc_insertIJS1_EEEvN9__gnu_cxx17__normal_iteratorIPS1_S3_EEDpOT_+0x26>
	  __throw_length_error(__N(__s));
 80a0390:	481e      	ldr	r0, [pc, #120]	; (80a040c <_ZNSt6vectorIP10SensorBaseSaIS1_EE17_M_realloc_insertIJS1_EEEvN9__gnu_cxx17__normal_iteratorIPS1_S3_EEDpOT_+0x9c>)
 80a0392:	f009 fc36 	bl	80a9c02 <_ZSt20__throw_length_errorPKc>
 80a0396:	2c01      	cmp	r4, #1
 80a0398:	4622      	mov	r2, r4
 80a039a:	bf38      	it	cc
 80a039c:	2201      	movcc	r2, #1
 80a039e:	18a4      	adds	r4, r4, r2
 80a03a0:	eba1 0509 	sub.w	r5, r1, r9

	const size_type __len = size() + (std::max)(size(), __n);
	return (__len < size() || __len > max_size()) ? max_size() : __len;
 80a03a4:	d22f      	bcs.n	80a0406 <_ZNSt6vectorIP10SensorBaseSaIS1_EE17_M_realloc_insertIJS1_EEEvN9__gnu_cxx17__normal_iteratorIPS1_S3_EEDpOT_+0x96>
	return __n != 0 ? _Tr::allocate(_M_impl, __n) : pointer();
 80a03a6:	b13c      	cbz	r4, 80a03b8 <_ZNSt6vectorIP10SensorBaseSaIS1_EE17_M_realloc_insertIJS1_EEEvN9__gnu_cxx17__normal_iteratorIPS1_S3_EEDpOT_+0x48>
 80a03a8:	429c      	cmp	r4, r3
 80a03aa:	bf28      	it	cs
 80a03ac:	461c      	movcs	r4, r3
	  {
	    std::align_val_t __al = std::align_val_t(alignof(_Tp));
	    return static_cast<_Tp*>(::operator new(__n * sizeof(_Tp), __al));
	  }
#endif
	return static_cast<_Tp*>(::operator new(__n * sizeof(_Tp)));
 80a03ae:	00a0      	lsls	r0, r4, #2
 80a03b0:	f7ff fe73 	bl	80a009a <_Znwj>
 80a03b4:	4606      	mov	r6, r0
 80a03b6:	e000      	b.n	80a03ba <_ZNSt6vectorIP10SensorBaseSaIS1_EE17_M_realloc_insertIJS1_EEEvN9__gnu_cxx17__normal_iteratorIPS1_S3_EEDpOT_+0x4a>
 80a03b8:	4626      	mov	r6, r4
      template<typename _Up, typename... _Args>
	void
	construct(_Up* __p, _Args&&... __args)
	noexcept(noexcept(::new((void *)__p)
			    _Up(std::forward<_Args>(__args)...)))
	{ ::new((void *)__p) _Up(std::forward<_Args>(__args)...); }
 80a03ba:	42ee      	cmn	r6, r5
 80a03bc:	bf1c      	itt	ne
 80a03be:	f8db 3000 	ldrne.w	r3, [fp]
 80a03c2:	5173      	strne	r3, [r6, r5]
    inline __enable_if_t<std::__is_bitwise_relocatable<_Tp>::value, _Tp*>
    __relocate_a_1(_Tp* __first, _Tp* __last,
		   _Tp* __result, allocator<_Up>&) noexcept
    {
      ptrdiff_t __count = __last - __first;
      if (__count > 0)
 80a03c4:	2d00      	cmp	r5, #0
 80a03c6:	dd04      	ble.n	80a03d2 <_ZNSt6vectorIP10SensorBaseSaIS1_EE17_M_realloc_insertIJS1_EEEvN9__gnu_cxx17__normal_iteratorIPS1_S3_EEDpOT_+0x62>
	__builtin_memmove(__result, __first, __count * sizeof(_Tp));
 80a03c8:	462a      	mov	r2, r5
 80a03ca:	4649      	mov	r1, r9
 80a03cc:	4630      	mov	r0, r6
 80a03ce:	f00c faf3 	bl	80ac9b8 <memmove>
      ptrdiff_t __count = __last - __first;
 80a03d2:	eba8 080a 	sub.w	r8, r8, sl
	  if _GLIBCXX17_CONSTEXPR (_S_use_relocate())
	    {
	      __new_finish = _S_relocate(__old_start, __position.base(),
					 __new_start, _M_get_Tp_allocator());

	      ++__new_finish;
 80a03d6:	3504      	adds	r5, #4
      if (__count > 0)
 80a03d8:	f1b8 0f00 	cmp.w	r8, #0
 80a03dc:	4435      	add	r5, r6
 80a03de:	dd04      	ble.n	80a03ea <_ZNSt6vectorIP10SensorBaseSaIS1_EE17_M_realloc_insertIJS1_EEEvN9__gnu_cxx17__normal_iteratorIPS1_S3_EEDpOT_+0x7a>
	__builtin_memmove(__result, __first, __count * sizeof(_Tp));
 80a03e0:	4642      	mov	r2, r8
 80a03e2:	4651      	mov	r1, sl
 80a03e4:	4628      	mov	r0, r5
 80a03e6:	f00c fad9 	bl	80ac99c <memcpy>
      return __result + __count;
 80a03ea:	4445      	add	r5, r8
	if (__p)
 80a03ec:	f1b9 0f00 	cmp.w	r9, #0
 80a03f0:	d002      	beq.n	80a03f8 <_ZNSt6vectorIP10SensorBaseSaIS1_EE17_M_realloc_insertIJS1_EEEvN9__gnu_cxx17__normal_iteratorIPS1_S3_EEDpOT_+0x88>
	::operator delete(__p);
 80a03f2:	4648      	mov	r0, r9
 80a03f4:	f7ff fe55 	bl	80a00a2 <_ZdlPv>
      _GLIBCXX_ASAN_ANNOTATE_REINIT;
      _M_deallocate(__old_start,
		    this->_M_impl._M_end_of_storage - __old_start);
      this->_M_impl._M_start = __new_start;
      this->_M_impl._M_finish = __new_finish;
      this->_M_impl._M_end_of_storage = __new_start + __len;
 80a03f8:	eb06 0484 	add.w	r4, r6, r4, lsl #2
      this->_M_impl._M_finish = __new_finish;
 80a03fc:	e9c7 6500 	strd	r6, r5, [r7]
      this->_M_impl._M_end_of_storage = __new_start + __len;
 80a0400:	60bc      	str	r4, [r7, #8]
    }
 80a0402:	e8bd 8ff8 	ldmia.w	sp!, {r3, r4, r5, r6, r7, r8, r9, sl, fp, pc}
	return (__len < size() || __len > max_size()) ? max_size() : __len;
 80a0406:	461c      	mov	r4, r3
 80a0408:	e7d1      	b.n	80a03ae <_ZNSt6vectorIP10SensorBaseSaIS1_EE17_M_realloc_insertIJS1_EEEvN9__gnu_cxx17__normal_iteratorIPS1_S3_EEDpOT_+0x3e>
 80a040a:	bf00      	nop
 80a040c:	080ad452 	.word	0x080ad452

080a0410 <_ZNSt6vectorIP10SensorBaseSaIS1_EE12emplace_backIJS1_EEEvDpOT_>:
      vector<_Tp, _Alloc>::
 80a0410:	460a      	mov	r2, r1
 80a0412:	b510      	push	{r4, lr}
	if (this->_M_impl._M_finish != this->_M_impl._M_end_of_storage)
 80a0414:	e9d0 1401 	ldrd	r1, r4, [r0, #4]
 80a0418:	42a1      	cmp	r1, r4
      vector<_Tp, _Alloc>::
 80a041a:	4603      	mov	r3, r0
	if (this->_M_impl._M_finish != this->_M_impl._M_end_of_storage)
 80a041c:	d006      	beq.n	80a042c <_ZNSt6vectorIP10SensorBaseSaIS1_EE12emplace_backIJS1_EEEvDpOT_+0x1c>
	{ ::new((void *)__p) _Up(std::forward<_Args>(__args)...); }
 80a041e:	b109      	cbz	r1, 80a0424 <_ZNSt6vectorIP10SensorBaseSaIS1_EE12emplace_backIJS1_EEEvDpOT_+0x14>
	    _Alloc_traits::construct(this->_M_impl, this->_M_impl._M_finish,
 80a0420:	6812      	ldr	r2, [r2, #0]
 80a0422:	600a      	str	r2, [r1, #0]
	    ++this->_M_impl._M_finish;
 80a0424:	685a      	ldr	r2, [r3, #4]
 80a0426:	3204      	adds	r2, #4
 80a0428:	605a      	str	r2, [r3, #4]
      }
 80a042a:	bd10      	pop	{r4, pc}
	  _M_realloc_insert(end(), std::forward<_Args>(__args)...);
 80a042c:	f7ff ffa0 	bl	80a0370 <_ZNSt6vectorIP10SensorBaseSaIS1_EE17_M_realloc_insertIJS1_EEEvN9__gnu_cxx17__normal_iteratorIPS1_S3_EEDpOT_>
      }
 80a0430:	e7fb      	b.n	80a042a <_ZNSt6vectorIP10SensorBaseSaIS1_EE12emplace_backIJS1_EEEvDpOT_+0x1a>
	...

080a0434 <_ZN16SensorController12SetupSensorsEv>:
{
 80a0434:	e92d 41f0 	stmdb	sp!, {r4, r5, r6, r7, r8, lr}
 80a0438:	4604      	mov	r4, r0
 80a043a:	b0b0      	sub	sp, #192	; 0xc0
  weatherSensor = BME280();
 80a043c:	f100 0760 	add.w	r7, r0, #96	; 0x60
 80a0440:	4668      	mov	r0, sp
 80a0442:	f003 f965 	bl	80a3710 <_ZN6BME280C1Ev>
//using namespace std;


//======================================
// The Class
class SensorBase
 80a0446:	a901      	add	r1, sp, #4
 80a0448:	f104 0064 	add.w	r0, r4, #100	; 0x64
 80a044c:	f006 fe8d 	bl	80a716a <_ZN6StringaSEOS_>
 80a0450:	9b05      	ldr	r3, [sp, #20]
//using namespace std;


//======================================
// The Class
class BME280 : public SensorBase
 80a0452:	f104 057c 	add.w	r5, r4, #124	; 0x7c
 80a0456:	6763      	str	r3, [r4, #116]	; 0x74
 80a0458:	f89d 3018 	ldrb.w	r3, [sp, #24]
 80a045c:	ae07      	add	r6, sp, #28
 80a045e:	f884 3078 	strb.w	r3, [r4, #120]	; 0x78
 80a0462:	ce0f      	ldmia	r6!, {r0, r1, r2, r3}
 80a0464:	c50f      	stmia	r5!, {r0, r1, r2, r3}
 80a0466:	ce0f      	ldmia	r6!, {r0, r1, r2, r3}
 80a0468:	c50f      	stmia	r5!, {r0, r1, r2, r3}
 80a046a:	ce0f      	ldmia	r6!, {r0, r1, r2, r3}
 80a046c:	c50f      	stmia	r5!, {r0, r1, r2, r3}
 80a046e:	e896 000f 	ldmia.w	r6, {r0, r1, r2, r3}
 80a0472:	e885 000f 	stmia.w	r5, {r0, r1, r2, r3}
 80a0476:	f104 05c0 	add.w	r5, r4, #192	; 0xc0
 80a047a:	ab18      	add	r3, sp, #96	; 0x60
 80a047c:	f104 02e0 	add.w	r2, r4, #224	; 0xe0
 80a0480:	e8f3 0102 	ldrd	r0, r1, [r3], #8
 80a0484:	e8e5 0102 	strd	r0, r1, [r5], #8
 80a0488:	4295      	cmp	r5, r2
 80a048a:	d1f9      	bne.n	80a0480 <_ZN16SensorController12SetupSensorsEv+0x4c>
 80a048c:	ae20      	add	r6, sp, #128	; 0x80
 80a048e:	f504 7890 	add.w	r8, r4, #288	; 0x120
 80a0492:	4631      	mov	r1, r6
 80a0494:	4628      	mov	r0, r5
 80a0496:	3510      	adds	r5, #16
 80a0498:	f006 fe67 	bl	80a716a <_ZN6StringaSEOS_>
 80a049c:	45a8      	cmp	r8, r5
 80a049e:	f106 0610 	add.w	r6, r6, #16
 80a04a2:	d1f6      	bne.n	80a0492 <_ZN16SensorController12SetupSensorsEv+0x5e>
 80a04a4:	2500      	movs	r5, #0
 80a04a6:	4b41      	ldr	r3, [pc, #260]	; (80a05ac <_ZN16SensorController12SetupSensorsEv+0x178>)
 80a04a8:	9300      	str	r3, [sp, #0]
 80a04aa:	ab2c      	add	r3, sp, #176	; 0xb0
 80a04ac:	1958      	adds	r0, r3, r5
 80a04ae:	3d10      	subs	r5, #16
 80a04b0:	f006 fdbc 	bl	80a702c <_ZN6StringD1Ev>
 80a04b4:	f115 0f40 	cmn.w	r5, #64	; 0x40
 80a04b8:	d1f7      	bne.n	80a04aa <_ZN16SensorController12SetupSensorsEv+0x76>
 80a04ba:	4d3d      	ldr	r5, [pc, #244]	; (80a05b0 <_ZN16SensorController12SetupSensorsEv+0x17c>)
 80a04bc:	a801      	add	r0, sp, #4
 80a04be:	9500      	str	r5, [sp, #0]
 80a04c0:	f006 fdb4 	bl	80a702c <_ZN6StringD1Ev>
  if (weatherSensor.Connect())
 80a04c4:	4638      	mov	r0, r7
 80a04c6:	f003 f81f 	bl	80a3508 <_ZN6BME2807ConnectEv>
      { emplace_back(std::move(__x)); }
 80a04ca:	4669      	mov	r1, sp
    sensorsConnected.push_back(&weatherSensor);
 80a04cc:	9700      	str	r7, [sp, #0]
  if (weatherSensor.Connect())
 80a04ce:	2800      	cmp	r0, #0
 80a04d0:	d062      	beq.n	80a0598 <_ZN16SensorController12SetupSensorsEv+0x164>
 80a04d2:	f104 0010 	add.w	r0, r4, #16
 80a04d6:	f7ff ff9b 	bl	80a0410 <_ZNSt6vectorIP10SensorBaseSaIS1_EE12emplace_backIJS1_EEEvDpOT_>
    totalReadings += weatherSensor.getNumberSensors();
 80a04da:	f8d4 39c8 	ldr.w	r3, [r4, #2504]	; 0x9c8
 80a04de:	6f62      	ldr	r2, [r4, #116]	; 0x74
 80a04e0:	4413      	add	r3, r2
 80a04e2:	f8c4 39c8 	str.w	r3, [r4, #2504]	; 0x9c8
  delay(100);
 80a04e6:	2064      	movs	r0, #100	; 0x64
 80a04e8:	f008 f9b4 	bl	80a8854 <delay>
  gasSensor = SGP30();
 80a04ec:	4668      	mov	r0, sp
 80a04ee:	f003 fd09 	bl	80a3f04 <_ZN5SGP30C1Ev>
 80a04f2:	a901      	add	r1, sp, #4
 80a04f4:	f504 706f 	add.w	r0, r4, #956	; 0x3bc
 80a04f8:	f006 fe37 	bl	80a716a <_ZN6StringaSEOS_>
 80a04fc:	9b05      	ldr	r3, [sp, #20]
 80a04fe:	f504 776e 	add.w	r7, r4, #952	; 0x3b8
 80a0502:	f8c4 33cc 	str.w	r3, [r4, #972]	; 0x3cc
 80a0506:	f89d 3018 	ldrb.w	r3, [sp, #24]
//using namespace std;


//======================================
// The Class
class SGP30 : public SensorBase
 80a050a:	ae07      	add	r6, sp, #28
 80a050c:	f884 33d0 	strb.w	r3, [r4, #976]	; 0x3d0
 80a0510:	f10d 0c2c 	add.w	ip, sp, #44	; 0x2c
 80a0514:	f504 7375 	add.w	r3, r4, #980	; 0x3d4
 80a0518:	4632      	mov	r2, r6
 80a051a:	ca03      	ldmia	r2!, {r0, r1}
 80a051c:	4562      	cmp	r2, ip
 80a051e:	6018      	str	r0, [r3, #0]
 80a0520:	6059      	str	r1, [r3, #4]
 80a0522:	4616      	mov	r6, r2
 80a0524:	f103 0308 	add.w	r3, r3, #8
 80a0528:	d1f6      	bne.n	80a0518 <_ZN16SensorController12SetupSensorsEv+0xe4>
 80a052a:	7812      	ldrb	r2, [r2, #0]
 80a052c:	a910      	add	r1, sp, #64	; 0x40
 80a052e:	701a      	strb	r2, [r3, #0]
 80a0530:	e9dd 230c 	ldrd	r2, r3, [sp, #48]	; 0x30
 80a0534:	f504 707e 	add.w	r0, r4, #1016	; 0x3f8
 80a0538:	e9c4 23fa 	strd	r2, r3, [r4, #1000]	; 0x3e8
 80a053c:	e9dd 230e 	ldrd	r2, r3, [sp, #56]	; 0x38
 80a0540:	e9c4 23fc 	strd	r2, r3, [r4, #1008]	; 0x3f0
 80a0544:	f006 fe11 	bl	80a716a <_ZN6StringaSEOS_>
 80a0548:	a914      	add	r1, sp, #80	; 0x50
 80a054a:	f504 6081 	add.w	r0, r4, #1032	; 0x408
 80a054e:	f006 fe0c 	bl	80a716a <_ZN6StringaSEOS_>
 80a0552:	4b18      	ldr	r3, [pc, #96]	; (80a05b4 <_ZN16SensorController12SetupSensorsEv+0x180>)
 80a0554:	a814      	add	r0, sp, #80	; 0x50
 80a0556:	9300      	str	r3, [sp, #0]
 80a0558:	f006 fd68 	bl	80a702c <_ZN6StringD1Ev>
 80a055c:	a810      	add	r0, sp, #64	; 0x40
 80a055e:	f006 fd65 	bl	80a702c <_ZN6StringD1Ev>
 80a0562:	a801      	add	r0, sp, #4
 80a0564:	9500      	str	r5, [sp, #0]
 80a0566:	f006 fd61 	bl	80a702c <_ZN6StringD1Ev>
  if (gasSensor.Connect())
 80a056a:	4638      	mov	r0, r7
 80a056c:	f003 fc5a 	bl	80a3e24 <_ZN5SGP307ConnectEv>
 80a0570:	4669      	mov	r1, sp
    sensorsConnected.push_back(&gasSensor);
 80a0572:	9700      	str	r7, [sp, #0]
  if (gasSensor.Connect())
 80a0574:	b1a8      	cbz	r0, 80a05a2 <_ZN16SensorController12SetupSensorsEv+0x16e>
 80a0576:	f104 0010 	add.w	r0, r4, #16
 80a057a:	f7ff ff49 	bl	80a0410 <_ZNSt6vectorIP10SensorBaseSaIS1_EE12emplace_backIJS1_EEEvDpOT_>
    totalReadings += gasSensor.getNumberSensors();
 80a057e:	f8d4 39c8 	ldr.w	r3, [r4, #2504]	; 0x9c8
 80a0582:	f8d4 23cc 	ldr.w	r2, [r4, #972]	; 0x3cc
 80a0586:	4413      	add	r3, r2
 80a0588:	f8c4 39c8 	str.w	r3, [r4, #2504]	; 0x9c8
  delay(100);
 80a058c:	2064      	movs	r0, #100	; 0x64
 80a058e:	f008 f961 	bl	80a8854 <delay>
}
 80a0592:	b030      	add	sp, #192	; 0xc0
 80a0594:	e8bd 81f0 	ldmia.w	sp!, {r4, r5, r6, r7, r8, pc}
 80a0598:	f104 001c 	add.w	r0, r4, #28
 80a059c:	f7ff ff38 	bl	80a0410 <_ZNSt6vectorIP10SensorBaseSaIS1_EE12emplace_backIJS1_EEEvDpOT_>
 80a05a0:	e7a1      	b.n	80a04e6 <_ZN16SensorController12SetupSensorsEv+0xb2>
 80a05a2:	f104 001c 	add.w	r0, r4, #28
 80a05a6:	f7ff ff33 	bl	80a0410 <_ZNSt6vectorIP10SensorBaseSaIS1_EE12emplace_backIJS1_EEEvDpOT_>
 80a05aa:	e7ef      	b.n	80a058c <_ZN16SensorController12SetupSensorsEv+0x158>
 80a05ac:	080ae270 	.word	0x080ae270
 80a05b0:	080ad474 	.word	0x080ad474
 80a05b4:	080ae570 	.word	0x080ae570

080a05b8 <_GLOBAL__sub_I__ZN16SensorController12SetupSensorsEv>:
} // namespace particle

// particle::Flag<TagT, ValueT>
template<typename TagT, typename ValueT>
inline particle::Flag<TagT, ValueT>::Flag(ValueT val) :
        val_(val) {
 80a05b8:	2200      	movs	r2, #0
 80a05ba:	4b03      	ldr	r3, [pc, #12]	; (80a05c8 <_GLOBAL__sub_I__ZN16SensorController12SetupSensorsEv+0x10>)
 80a05bc:	701a      	strb	r2, [r3, #0]
 80a05be:	2201      	movs	r2, #1
 80a05c0:	4b02      	ldr	r3, [pc, #8]	; (80a05cc <_GLOBAL__sub_I__ZN16SensorController12SetupSensorsEv+0x14>)
 80a05c2:	701a      	strb	r2, [r3, #0]
  savedReadings = 0;
  readyToSend = false;
  //  Serial.println("Memory used: " + String(System.freeMemory()) + "before upload.");
  data = String();
  sensorReadings.clear();
}
 80a05c4:	4770      	bx	lr
 80a05c6:	bf00      	nop
 80a05c8:	2000013c 	.word	0x2000013c
 80a05cc:	2000013d 	.word	0x2000013d

080a05d0 <_ZN5spark10LogHandler5writeEPKcj>:
    }
}

inline void spark::LogHandler::write(const char *data, size_t size) {
    // Default implementation does nothing
}
 80a05d0:	4770      	bx	lr

080a05d2 <_ZN5spark16StreamLogHandler5writeEPKcj>:
inline Print* spark::StreamLogHandler::stream() const {
    return stream_;
}

inline void spark::StreamLogHandler::write(const char *data, size_t size) {
    stream_->write((const uint8_t*)data, size);
 80a05d2:	6a00      	ldr	r0, [r0, #32]
 80a05d4:	6803      	ldr	r3, [r0, #0]
 80a05d6:	68db      	ldr	r3, [r3, #12]
 80a05d8:	4718      	bx	r3

080a05da <_ZNSt17_Function_handlerIFvvEPS0_E9_M_invokeERKSt9_Any_data>:

     public:
      static void
      _M_invoke(const _Any_data& __functor, _ArgTypes&&... __args)
      {
	(*_Base::_M_get_pointer(__functor))(
 80a05da:	6803      	ldr	r3, [r0, #0]
 80a05dc:	4718      	bx	r3

080a05de <_ZNSt14_Function_base13_Base_managerIPFvvEE10_M_managerERSt9_Any_dataRKS4_St18_Manager_operation>:
	  switch (__op)
 80a05de:	2a01      	cmp	r2, #1
 80a05e0:	d003      	beq.n	80a05ea <_ZNSt14_Function_base13_Base_managerIPFvvEE10_M_managerERSt9_Any_dataRKS4_St18_Manager_operation+0xc>
 80a05e2:	2a02      	cmp	r2, #2
 80a05e4:	d003      	beq.n	80a05ee <_ZNSt14_Function_base13_Base_managerIPFvvEE10_M_managerERSt9_Any_dataRKS4_St18_Manager_operation+0x10>
	}
 80a05e6:	2000      	movs	r0, #0
 80a05e8:	4770      	bx	lr
	      __dest._M_access<_Functor*>() = _M_get_pointer(__source);
 80a05ea:	6001      	str	r1, [r0, #0]
	      break;
 80a05ec:	e7fb      	b.n	80a05e6 <_ZNSt14_Function_base13_Base_managerIPFvvEE10_M_managerERSt9_Any_dataRKS4_St18_Manager_operation+0x8>
	  ::new (__dest._M_access()) _Functor(__source._M_access<_Functor>());
 80a05ee:	680b      	ldr	r3, [r1, #0]
 80a05f0:	6003      	str	r3, [r0, #0]
	}
 80a05f2:	e7f8      	b.n	80a05e6 <_ZNSt14_Function_base13_Base_managerIPFvvEE10_M_managerERSt9_Any_dataRKS4_St18_Manager_operation+0x8>

080a05f4 <_ZN6Thread3runEPv>:

private:

    static os_thread_return_t run(void* param) {
        Data* th = (Data*)param;
        th->started = true;
 80a05f4:	2301      	movs	r3, #1
    static os_thread_return_t run(void* param) {
 80a05f6:	b510      	push	{r4, lr}
        th->started = true;
 80a05f8:	7403      	strb	r3, [r0, #16]
        if (th->func) {
 80a05fa:	6883      	ldr	r3, [r0, #8]
    static os_thread_return_t run(void* param) {
 80a05fc:	4604      	mov	r4, r0
        if (th->func) {
 80a05fe:	b143      	cbz	r3, 80a0612 <_ZN6Thread3runEPv+0x1e>
            (*(th->func))(th->func_param);
 80a0600:	68c0      	ldr	r0, [r0, #12]
    function<_Res(_ArgTypes...)>::
    operator()(_ArgTypes... __args) const
    {
      if (_M_empty())
	__throw_bad_function_call();
      return _M_invoker(_M_functor, std::forward<_ArgTypes>(__args)...);
 80a0602:	4798      	blx	r3
        } else if (th->wrapper) {
            (*(th->wrapper))();
        }
        th->exited = true;
 80a0604:	2301      	movs	r3, #1
        os_thread_exit(nullptr);
 80a0606:	2000      	movs	r0, #0
        th->exited = true;
 80a0608:	7463      	strb	r3, [r4, #17]
    }
 80a060a:	e8bd 4010 	ldmia.w	sp!, {r4, lr}
        os_thread_exit(nullptr);
 80a060e:	f006 b801 	b.w	80a6614 <os_thread_exit>
      template<typename _Del>
      __uniq_ptr_impl(pointer __p, _Del&& __d)
	: _M_t(__p, std::forward<_Del>(__d)) { }

      pointer&   _M_ptr() { return std::get<0>(_M_t); }
      pointer    _M_ptr() const { return std::get<0>(_M_t); }
 80a0612:	6800      	ldr	r0, [r0, #0]
        } else if (th->wrapper) {
 80a0614:	2800      	cmp	r0, #0
 80a0616:	d0f5      	beq.n	80a0604 <_ZN6Thread3runEPv+0x10>
      if (_M_empty())
 80a0618:	6883      	ldr	r3, [r0, #8]
 80a061a:	b90b      	cbnz	r3, 80a0620 <_ZN6Thread3runEPv+0x2c>
	__throw_bad_function_call();
 80a061c:	f009 faf4 	bl	80a9c08 <_ZSt25__throw_bad_function_callv>
      return _M_invoker(_M_functor, std::forward<_ArgTypes>(__args)...);
 80a0620:	68c3      	ldr	r3, [r0, #12]
 80a0622:	e7ee      	b.n	80a0602 <_ZN6Thread3runEPv+0xe>

080a0624 <_ZNK11SystemClass11resetReasonEv.isra.0>:

    inline bool enabled(system_flag_t flag) const {
        return get_flag(flag) != 0;
    }

    inline int resetReason() const
 80a0624:	b507      	push	{r0, r1, r2, lr}
    {
        int reason = RESET_REASON_NONE;
 80a0626:	2200      	movs	r2, #0
        HAL_Core_Get_Last_Reset_Info(&reason, nullptr, nullptr);
 80a0628:	a801      	add	r0, sp, #4
 80a062a:	4611      	mov	r1, r2
        int reason = RESET_REASON_NONE;
 80a062c:	9201      	str	r2, [sp, #4]
        HAL_Core_Get_Last_Reset_Info(&reason, nullptr, nullptr);
 80a062e:	f005 ffb9 	bl	80a65a4 <HAL_Core_Get_Last_Reset_Info>
        return reason;
    }
 80a0632:	9801      	ldr	r0, [sp, #4]
 80a0634:	b003      	add	sp, #12
 80a0636:	f85d fb04 	ldr.w	pc, [sp], #4
	...

080a063c <_ZN5spark16SerialLogHandlerD1Ev>:
            StreamLogHandler(Serial, level, filters) {
        Serial.begin(baud);
        LogManager::instance()->addHandler(this);
    }

    virtual ~SerialLogHandler() {
 80a063c:	b510      	push	{r4, lr}
 80a063e:	4604      	mov	r4, r0
 80a0640:	4b09      	ldr	r3, [pc, #36]	; (80a0668 <_ZN5spark16SerialLogHandlerD1Ev+0x2c>)
 80a0642:	6003      	str	r3, [r0, #0]
        LogManager::instance()->removeHandler(this);
 80a0644:	f007 f978 	bl	80a7938 <_ZN5spark10LogManager8instanceEv>
 80a0648:	4621      	mov	r1, r4
 80a064a:	f007 fb91 	bl	80a7d70 <_ZN5spark10LogManager13removeHandlerEPNS_10LogHandlerE>
        Serial.end();
 80a064e:	f008 fd31 	bl	80a90b4 <_Z16_fetch_usbserialv>
 80a0652:	f008 fd21 	bl	80a9098 <_ZN9USBSerial3endEv>
    virtual ~LogHandler() = default;
 80a0656:	4620      	mov	r0, r4
 80a0658:	4b04      	ldr	r3, [pc, #16]	; (80a066c <_ZN5spark16SerialLogHandlerD1Ev+0x30>)
 80a065a:	f840 3b04 	str.w	r3, [r0], #4
 80a065e:	f007 fa75 	bl	80a7b4c <_ZN5spark6detail9LogFilterD1Ev>
    }
 80a0662:	4620      	mov	r0, r4
 80a0664:	bd10      	pop	{r4, pc}
 80a0666:	bf00      	nop
 80a0668:	080adfa8 	.word	0x080adfa8
 80a066c:	080adf90 	.word	0x080adf90

080a0670 <_ZN5spark16SerialLogHandlerD0Ev>:
    virtual ~SerialLogHandler() {
 80a0670:	b510      	push	{r4, lr}
 80a0672:	4604      	mov	r4, r0
    }
 80a0674:	f7ff ffe2 	bl	80a063c <_ZN5spark16SerialLogHandlerD1Ev>
 80a0678:	4620      	mov	r0, r4
 80a067a:	2124      	movs	r1, #36	; 0x24
 80a067c:	f009 fabb 	bl	80a9bf6 <_ZdlPvj>
 80a0680:	4620      	mov	r0, r4
 80a0682:	bd10      	pop	{r4, pc}

080a0684 <_ZN11SystemClassD1Ev>:
class SystemClass {
 80a0684:	b510      	push	{r4, lr}
 80a0686:	4604      	mov	r4, r0
        if (wakeupSource_) {
 80a0688:	6800      	ldr	r0, [r0, #0]
 80a068a:	b108      	cbz	r0, 80a0690 <_ZN11SystemClassD1Ev+0xc>
            free(wakeupSource_);
 80a068c:	f006 fa42 	bl	80a6b14 <free>
class SystemClass {
 80a0690:	4620      	mov	r0, r4
 80a0692:	bd10      	pop	{r4, pc}

080a0694 <_ZN15WiFiAccessPointC1Ev>:
   int maxDataRate;   // the mdr in bits/s
   int rssi;        // when scanning

#ifdef __cplusplus

   WiFiAccessPoint()
 80a0694:	b510      	push	{r4, lr}
   {
       memset(this, 0, sizeof(*this));
 80a0696:	2234      	movs	r2, #52	; 0x34
   WiFiAccessPoint()
 80a0698:	4604      	mov	r4, r0
       memset(this, 0, sizeof(*this));
 80a069a:	2100      	movs	r1, #0
 80a069c:	3004      	adds	r0, #4
 80a069e:	f00c f9a5 	bl	80ac9ec <memset>
       size = sizeof(*this);
 80a06a2:	2338      	movs	r3, #56	; 0x38
   }
 80a06a4:	4620      	mov	r0, r4
       size = sizeof(*this);
 80a06a6:	6023      	str	r3, [r4, #0]
   }
 80a06a8:	bd10      	pop	{r4, pc}

080a06aa <_ZN5spark9WiFiClass10connectingEv>:
    void disconnect(void) {
        network_disconnect(*this, NETWORK_DISCONNECT_REASON_USER, NULL);
    }

    bool connecting(void) {
        return network_connecting(*this, 0, NULL);
 80a06aa:	2200      	movs	r2, #0
 80a06ac:	6840      	ldr	r0, [r0, #4]
 80a06ae:	4611      	mov	r1, r2
 80a06b0:	f006 b990 	b.w	80a69d4 <network_connecting>

080a06b4 <_ZN5spark9WiFiClass5readyEv>:
    }

    bool ready(void) {
        return network_ready(*this, 0, NULL);
 80a06b4:	2200      	movs	r2, #0
 80a06b6:	6840      	ldr	r0, [r0, #4]
 80a06b8:	4611      	mov	r1, r2
 80a06ba:	f006 b99b 	b.w	80a69f4 <network_ready>

080a06be <_ZN5spark9WiFiClass14setCredentialsEPKcS2_>:

    bool setCredentials(const char *ssid) {
        return setCredentials(ssid, NULL, UNSEC);
    }

    bool setCredentials(const char *ssid, const char *password) {
 80a06be:	e92d 41f0 	stmdb	sp!, {r4, r5, r6, r7, r8, lr}
 80a06c2:	4680      	mov	r8, r0
 80a06c4:	4614      	mov	r4, r2
        return setCredentials(ssid, password, WPA2);
    }

    bool setCredentials(const char *ssid, const char *password, unsigned long security, unsigned long cipher=WLAN_CIPHER_NOT_SET) {
        return setCredentials(ssid, ssid ? strlen(ssid) : 0, password, password ? strlen(password) : 0, security, cipher);
 80a06c6:	460d      	mov	r5, r1
    bool setCredentials(const char *ssid, const char *password) {
 80a06c8:	b094      	sub	sp, #80	; 0x50
        return setCredentials(ssid, ssid ? strlen(ssid) : 0, password, password ? strlen(password) : 0, security, cipher);
 80a06ca:	b319      	cbz	r1, 80a0714 <_ZN5spark9WiFiClass14setCredentialsEPKcS2_+0x56>
 80a06cc:	4608      	mov	r0, r1
 80a06ce:	f00c f9fe 	bl	80acace <strlen>
 80a06d2:	4607      	mov	r7, r0
 80a06d4:	b304      	cbz	r4, 80a0718 <_ZN5spark9WiFiClass14setCredentialsEPKcS2_+0x5a>
 80a06d6:	4620      	mov	r0, r4
 80a06d8:	f00c f9f9 	bl	80acace <strlen>
 80a06dc:	4606      	mov	r6, r0

    bool setCredentials(const char *ssid, unsigned int ssidLen, const char *password,
            unsigned int passwordLen, unsigned long security=WLAN_SEC_UNSEC, unsigned long cipher=WLAN_CIPHER_NOT_SET) {

        WLanCredentials creds;
        memset(&creds, 0, sizeof(creds));
 80a06de:	2238      	movs	r2, #56	; 0x38
 80a06e0:	2100      	movs	r1, #0
 80a06e2:	a806      	add	r0, sp, #24
 80a06e4:	f00c f982 	bl	80ac9ec <memset>
        creds.size = sizeof(creds);
 80a06e8:	234c      	movs	r3, #76	; 0x4c
        creds.ssid = ssid;
 80a06ea:	e9cd 3501 	strd	r3, r5, [sp, #4]
        creds.ssid_len = ssidLen;
        creds.password = password;
        creds.password_len = passwordLen;
        creds.security = WLanSecurityType(security);
 80a06ee:	2303      	movs	r3, #3
 80a06f0:	f8ad 3018 	strh.w	r3, [sp, #24]
        creds.cipher = WLanSecurityCipher(cipher);
        return (network_set_credentials(*this, 0, &creds, NULL) == 0);
 80a06f4:	2300      	movs	r3, #0
 80a06f6:	f8d8 0004 	ldr.w	r0, [r8, #4]
 80a06fa:	4619      	mov	r1, r3
 80a06fc:	aa01      	add	r2, sp, #4
        creds.password = password;
 80a06fe:	e9cd 7403 	strd	r7, r4, [sp, #12]
        creds.password_len = passwordLen;
 80a0702:	9605      	str	r6, [sp, #20]
        return (network_set_credentials(*this, 0, &creds, NULL) == 0);
 80a0704:	f006 f9a6 	bl	80a6a54 <network_set_credentials>
    }
 80a0708:	fab0 f080 	clz	r0, r0
 80a070c:	0940      	lsrs	r0, r0, #5
 80a070e:	b014      	add	sp, #80	; 0x50
 80a0710:	e8bd 81f0 	ldmia.w	sp!, {r4, r5, r6, r7, r8, pc}
        return setCredentials(ssid, ssid ? strlen(ssid) : 0, password, password ? strlen(password) : 0, security, cipher);
 80a0714:	460f      	mov	r7, r1
 80a0716:	e7dd      	b.n	80a06d4 <_ZN5spark9WiFiClass14setCredentialsEPKcS2_+0x16>
 80a0718:	4626      	mov	r6, r4
 80a071a:	e7e0      	b.n	80a06de <_ZN5spark9WiFiClass14setCredentialsEPKcS2_+0x20>

080a071c <_ZNSt14_Function_baseD1Ev>:
    ~_Function_base()
 80a071c:	b510      	push	{r4, lr}
      if (_M_manager)
 80a071e:	6883      	ldr	r3, [r0, #8]
    ~_Function_base()
 80a0720:	4604      	mov	r4, r0
      if (_M_manager)
 80a0722:	b113      	cbz	r3, 80a072a <_ZNSt14_Function_baseD1Ev+0xe>
	_M_manager(_M_functor, _M_functor, __destroy_functor);
 80a0724:	2203      	movs	r2, #3
 80a0726:	4601      	mov	r1, r0
 80a0728:	4798      	blx	r3
    }
 80a072a:	4620      	mov	r0, r4
 80a072c:	bd10      	pop	{r4, pc}
	...

080a0730 <_ZN11SystemClass11sleepResultEv>:
    inline pin_t wakeUpPin() {
        return sleepResult().pin();
    }

    // FIXME: SystemSleepResult
    SleepResult sleepResult() {
 80a0730:	b570      	push	{r4, r5, r6, lr}
        //         // Woken up from standby mode
        //         sleepResult_ = SleepResult(WAKEUP_REASON_PIN_OR_RTC, SYSTEM_ERROR_NONE, WKP);
        //     }
        // });
        static bool f = false;
        if (!f) {
 80a0732:	4b1b      	ldr	r3, [pc, #108]	; (80a07a0 <_ZN11SystemClass11sleepResultEv+0x70>)
    SleepResult sleepResult() {
 80a0734:	4605      	mov	r5, r0
        if (!f) {
 80a0736:	781e      	ldrb	r6, [r3, #0]
    SleepResult sleepResult() {
 80a0738:	460c      	mov	r4, r1
        if (!f) {
 80a073a:	b986      	cbnz	r6, 80a075e <_ZN11SystemClass11sleepResultEv+0x2e>
            f = true;
 80a073c:	2201      	movs	r2, #1
 80a073e:	701a      	strb	r2, [r3, #0]
            if (resetReason() == RESET_REASON_POWER_MANAGEMENT) {
 80a0740:	f7ff ff70 	bl	80a0624 <_ZNK11SystemClass11resetReasonEv.isra.0>
 80a0744:	281e      	cmp	r0, #30
 80a0746:	d10a      	bne.n	80a075e <_ZN11SystemClass11sleepResultEv+0x2e>
        compatResult_ = result.compatResult_;
 80a0748:	2303      	movs	r3, #3
 80a074a:	71a3      	strb	r3, [r4, #6]
 80a074c:	f44f 1388 	mov.w	r3, #1114112	; 0x110000
        if (wakeupSource_) {
 80a0750:	6820      	ldr	r0, [r4, #0]
        error_ = result.error_;
 80a0752:	80a6      	strh	r6, [r4, #4]
        compatResult_ = result.compatResult_;
 80a0754:	60a3      	str	r3, [r4, #8]
        if (wakeupSource_) {
 80a0756:	b110      	cbz	r0, 80a075e <_ZN11SystemClass11sleepResultEv+0x2e>
            free(wakeupSource_);
 80a0758:	f006 f9dc 	bl	80a6b14 <free>
            wakeupSource_ = nullptr;
 80a075c:	6026      	str	r6, [r4, #0]
        if (error_ || wakeupSource_) {
 80a075e:	f9b4 3004 	ldrsh.w	r3, [r4, #4]
 80a0762:	6822      	ldr	r2, [r4, #0]
 80a0764:	b93b      	cbnz	r3, 80a0776 <_ZN11SystemClass11sleepResultEv+0x46>
 80a0766:	b93a      	cbnz	r2, 80a0778 <_ZN11SystemClass11sleepResultEv+0x48>
        return compatResult_;
 80a0768:	f854 3f06 	ldr.w	r3, [r4, #6]!
                // Woken up from standby mode
                systemSleepResult_ = SystemSleepResult(SleepResult(WAKEUP_REASON_PIN_OR_RTC, SYSTEM_ERROR_NONE, WKP));
            }
        }
        return systemSleepResult_;
    }
 80a076c:	4628      	mov	r0, r5
        return compatResult_;
 80a076e:	602b      	str	r3, [r5, #0]
 80a0770:	88a3      	ldrh	r3, [r4, #4]
 80a0772:	80ab      	strh	r3, [r5, #4]
    }
 80a0774:	bd70      	pop	{r4, r5, r6, pc}
        if (wakeupSource_) {
 80a0776:	b122      	cbz	r2, 80a0782 <_ZN11SystemClass11sleepResultEv+0x52>
            return static_cast<SystemSleepWakeupReason>(wakeupSource_->type);
 80a0778:	8891      	ldrh	r1, [r2, #4]
            switch (wakeupReason()) {
 80a077a:	2901      	cmp	r1, #1
 80a077c:	d003      	beq.n	80a0786 <_ZN11SystemClass11sleepResultEv+0x56>
 80a077e:	2904      	cmp	r1, #4
 80a0780:	d006      	beq.n	80a0790 <_ZN11SystemClass11sleepResultEv+0x60>
                    compatResult_ = SleepResult(WAKEUP_REASON_UNKNOWN, error());
 80a0782:	2204      	movs	r2, #4
 80a0784:	e005      	b.n	80a0792 <_ZN11SystemClass11sleepResultEv+0x62>
            return reinterpret_cast<hal_wakeup_source_gpio_t*>(wakeupSource_)->pin;
 80a0786:	8992      	ldrh	r2, [r2, #12]
                    compatResult_ = SleepResult(WAKEUP_REASON_PIN, error(), wakeupPin());
 80a0788:	71a1      	strb	r1, [r4, #6]
 80a078a:	8123      	strh	r3, [r4, #8]
 80a078c:	8162      	strh	r2, [r4, #10]
                    break;
 80a078e:	e7eb      	b.n	80a0768 <_ZN11SystemClass11sleepResultEv+0x38>
                    compatResult_ = SleepResult(WAKEUP_REASON_RTC, error());
 80a0790:	2202      	movs	r2, #2
                    compatResult_ = SleepResult(WAKEUP_REASON_UNKNOWN, error());
 80a0792:	8123      	strh	r3, [r4, #8]
 80a0794:	f64f 73ff 	movw	r3, #65535	; 0xffff
 80a0798:	71a2      	strb	r2, [r4, #6]
 80a079a:	8163      	strh	r3, [r4, #10]
                    break;
 80a079c:	e7e4      	b.n	80a0768 <_ZN11SystemClass11sleepResultEv+0x38>
 80a079e:	bf00      	nop
 80a07a0:	2000013e 	.word	0x2000013e

080a07a4 <_ZN19ApplicationWatchdog7checkinEv>:
	}

	/**
	 * Lifesign that the application is still working normally.
	 */
	static void checkin()
 80a07a4:	b508      	push	{r3, lr}
		return HAL_Timer_Get_Milli_Seconds();
 80a07a6:	f005 feb5 	bl	80a6514 <HAL_Timer_Get_Milli_Seconds>
	{
		last_checkin = current_time();
 80a07aa:	4b01      	ldr	r3, [pc, #4]	; (80a07b0 <_ZN19ApplicationWatchdog7checkinEv+0xc>)
 80a07ac:	6018      	str	r0, [r3, #0]
	}
 80a07ae:	bd08      	pop	{r3, pc}
 80a07b0:	20000d48 	.word	0x20000d48

080a07b4 <_ZN19ApplicationWatchdogC1EjPFvvEj>:
    ApplicationWatchdog(unsigned timeout_ms, void (*fn)(), unsigned stack_size=DEFAULT_STACK_SIZE) :
 80a07b4:	b570      	push	{r4, r5, r6, lr}
 80a07b6:	461d      	mov	r5, r3
    _Function_base() : _M_manager(nullptr) { }
 80a07b8:	2300      	movs	r3, #0
 80a07ba:	b086      	sub	sp, #24
 80a07bc:	4604      	mov	r4, r0
 80a07be:	9304      	str	r3, [sp, #16]
	if (_My_handler::_M_not_empty_function(__f))
 80a07c0:	b122      	cbz	r2, 80a07cc <_ZN19ApplicationWatchdogC1EjPFvvEj+0x18>
	    _M_invoker = &_My_handler::_M_invoke;
 80a07c2:	4b26      	ldr	r3, [pc, #152]	; (80a085c <_ZN19ApplicationWatchdogC1EjPFvvEj+0xa8>)
	{ ::new (__functor._M_access()) _Functor(std::move(__f)); }
 80a07c4:	9202      	str	r2, [sp, #8]
	    _M_invoker = &_My_handler::_M_invoke;
 80a07c6:	9305      	str	r3, [sp, #20]
	    _M_manager = &_My_handler::_M_manager;
 80a07c8:	4b25      	ldr	r3, [pc, #148]	; (80a0860 <_ZN19ApplicationWatchdogC1EjPFvvEj+0xac>)
 80a07ca:	9304      	str	r3, [sp, #16]
    _Function_base() : _M_manager(nullptr) { }
 80a07cc:	2300      	movs	r3, #0
 80a07ce:	60e3      	str	r3, [r4, #12]
      { return !_M_empty(); }
 80a07d0:	9b04      	ldr	r3, [sp, #16]
		thread("appwdt", start, this, OS_THREAD_PRIORITY_CRITICAL, stack_size)
 80a07d2:	6021      	str	r1, [r4, #0]
      if (static_cast<bool>(__x))
 80a07d4:	b13b      	cbz	r3, 80a07e6 <_ZN19ApplicationWatchdogC1EjPFvvEj+0x32>
	  __x._M_manager(_M_functor, __x._M_functor, __clone_functor);
 80a07d6:	2202      	movs	r2, #2
 80a07d8:	a902      	add	r1, sp, #8
 80a07da:	1d20      	adds	r0, r4, #4
 80a07dc:	4798      	blx	r3
	  _M_invoker = __x._M_invoker;
 80a07de:	9b05      	ldr	r3, [sp, #20]
 80a07e0:	6123      	str	r3, [r4, #16]
	  _M_manager = __x._M_manager;
 80a07e2:	9b04      	ldr	r3, [sp, #16]
 80a07e4:	60e3      	str	r3, [r4, #12]
        : d_(new(std::nothrow) Data)
 80a07e6:	2014      	movs	r0, #20
 80a07e8:	491e      	ldr	r1, [pc, #120]	; (80a0864 <_ZN19ApplicationWatchdogC1EjPFvvEj+0xb0>)
 80a07ea:	f009 fa06 	bl	80a9bfa <_ZnwjRKSt9nothrow_t>
 80a07ee:	b130      	cbz	r0, 80a07fe <_ZN19ApplicationWatchdogC1EjPFvvEj+0x4a>

  template<std::size_t _Idx, typename _Head>
    struct _Head_base<_Idx, _Head, false>
    {
      constexpr _Head_base()
      : _M_head_impl() { }
 80a07f0:	2200      	movs	r2, #0
            exited(false) {
 80a07f2:	e9c0 2200 	strd	r2, r2, [r0]
 80a07f6:	e9c0 2202 	strd	r2, r2, [r0, #8]
 80a07fa:	7402      	strb	r2, [r0, #16]
 80a07fc:	7442      	strb	r2, [r0, #17]
      __uniq_ptr_impl(pointer __p) : _M_t() { _M_ptr() = __p; }
 80a07fe:	6160      	str	r0, [r4, #20]
        if (!d_) {
 80a0800:	b190      	cbz	r0, 80a0828 <_ZN19ApplicationWatchdogC1EjPFvvEj+0x74>
        d_->func = function;
 80a0802:	4b19      	ldr	r3, [pc, #100]	; (80a0868 <_ZN19ApplicationWatchdogC1EjPFvvEj+0xb4>)
        if (os_thread_create(&d_->handle, name, priority, &Thread::run, d_.get(), stack_size) != 0) {
 80a0804:	2209      	movs	r2, #9
        d_->func_param = function_param;
 80a0806:	e9c0 3402 	strd	r3, r4, [r0, #8]
        if (os_thread_create(&d_->handle, name, priority, &Thread::run, d_.get(), stack_size) != 0) {
 80a080a:	4918      	ldr	r1, [pc, #96]	; (80a086c <_ZN19ApplicationWatchdogC1EjPFvvEj+0xb8>)
 80a080c:	e9cd 0500 	strd	r0, r5, [sp]
 80a0810:	4b17      	ldr	r3, [pc, #92]	; (80a0870 <_ZN19ApplicationWatchdogC1EjPFvvEj+0xbc>)
 80a0812:	3004      	adds	r0, #4
 80a0814:	f005 fece 	bl	80a65b4 <os_thread_create>
 80a0818:	b930      	cbnz	r0, 80a0828 <_ZN19ApplicationWatchdogC1EjPFvvEj+0x74>
      pointer    _M_ptr() const { return std::get<0>(_M_t); }
 80a081a:	6963      	ldr	r3, [r4, #20]
        while (!d_->started) {
 80a081c:	7c1b      	ldrb	r3, [r3, #16]
 80a081e:	b9a3      	cbnz	r3, 80a084a <_ZN19ApplicationWatchdogC1EjPFvvEj+0x96>
            HAL_Delay_Milliseconds(1);
 80a0820:	2001      	movs	r0, #1
 80a0822:	f005 fe67 	bl	80a64f4 <HAL_Delay_Milliseconds>
        while (!d_->started) {
 80a0826:	e7f8      	b.n	80a081a <_ZN19ApplicationWatchdogC1EjPFvvEj+0x66>
    {
      // concept requirements
      __glibcxx_function_requires(_SGIAssignableConcept<_Tp>)

      _Tp __tmp = _GLIBCXX_MOVE(__a);
      __a = _GLIBCXX_MOVE(__b);
 80a0828:	2300      	movs	r3, #0
      _Tp __tmp = _GLIBCXX_MOVE(__a);
 80a082a:	6965      	ldr	r5, [r4, #20]
      __a = _GLIBCXX_MOVE(__b);
 80a082c:	6163      	str	r3, [r4, #20]
      {
	static_assert(__is_invocable<deleter_type&, pointer>::value,
		      "unique_ptr's deleter must be invocable with a pointer");
	using std::swap;
	swap(_M_t._M_ptr(), __p);
	if (__p != pointer())
 80a082e:	b165      	cbz	r5, 80a084a <_ZN19ApplicationWatchdogC1EjPFvvEj+0x96>
	if (__ptr != nullptr)
 80a0830:	682e      	ldr	r6, [r5, #0]
 80a0832:	b136      	cbz	r6, 80a0842 <_ZN19ApplicationWatchdogC1EjPFvvEj+0x8e>
    class function<_Res(_ArgTypes...)>
 80a0834:	4630      	mov	r0, r6
 80a0836:	f7ff ff71 	bl	80a071c <_ZNSt14_Function_baseD1Ev>
	delete __ptr;
 80a083a:	2110      	movs	r1, #16
 80a083c:	4630      	mov	r0, r6
 80a083e:	f009 f9da 	bl	80a9bf6 <_ZdlPvj>
 80a0842:	2114      	movs	r1, #20
 80a0844:	4628      	mov	r0, r5
 80a0846:	f009 f9d6 	bl	80a9bf6 <_ZdlPvj>
		checkin();
 80a084a:	f7ff ffab 	bl	80a07a4 <_ZN19ApplicationWatchdog7checkinEv>
 80a084e:	a802      	add	r0, sp, #8
 80a0850:	f7ff ff64 	bl	80a071c <_ZNSt14_Function_baseD1Ev>
    }
 80a0854:	4620      	mov	r0, r4
 80a0856:	b006      	add	sp, #24
 80a0858:	bd70      	pop	{r4, r5, r6, pc}
 80a085a:	bf00      	nop
 80a085c:	080a05db 	.word	0x080a05db
 80a0860:	080a05df 	.word	0x080a05df
 80a0864:	080aeb21 	.word	0x080aeb21
 80a0868:	080a9b01 	.word	0x080a9b01
 80a086c:	080ad49b 	.word	0x080ad49b
 80a0870:	080a05f5 	.word	0x080a05f5

080a0874 <_ZNK5spark6Logger4infoEPKcz>:
    va_start(args, fmt);
    log(LOG_LEVEL_TRACE, fmt, args);
    va_end(args);
}

inline void spark::Logger::info(const char *fmt, ...) const {
 80a0874:	b40e      	push	{r1, r2, r3}
 80a0876:	b510      	push	{r4, lr}
}

inline void spark::Logger::log(LogLevel level, const char *fmt, va_list args) const {
    LogAttributes attr;
    attr.size = sizeof(LogAttributes);
    attr.flags = 0;
 80a0878:	2300      	movs	r3, #0
    log(LOG_LEVEL_INFO, fmt, args);
 80a087a:	6801      	ldr	r1, [r0, #0]
    attr.flags = 0;
 80a087c:	2020      	movs	r0, #32
inline void spark::Logger::info(const char *fmt, ...) const {
 80a087e:	b08d      	sub	sp, #52	; 0x34
 80a0880:	aa0f      	add	r2, sp, #60	; 0x3c
 80a0882:	f852 4b04 	ldr.w	r4, [r2], #4
    attr.flags = 0;
 80a0886:	e9cd 0304 	strd	r0, r3, [sp, #16]
    log_message_v(level, name_, &attr, nullptr, fmt, args);
 80a088a:	e9cd 4200 	strd	r4, r2, [sp]
    va_start(args, fmt);
 80a088e:	9203      	str	r2, [sp, #12]
    log_message_v(level, name_, &attr, nullptr, fmt, args);
 80a0890:	201e      	movs	r0, #30
 80a0892:	aa04      	add	r2, sp, #16
 80a0894:	f006 f82a 	bl	80a68ec <log_message_v>
}
 80a0898:	b00d      	add	sp, #52	; 0x34
 80a089a:	e8bd 4010 	ldmia.w	sp!, {r4, lr}
 80a089e:	b003      	add	sp, #12
 80a08a0:	4770      	bx	lr
	...

080a08a4 <_ZN10SensorBaseD1Ev>:
 80a08a4:	b510      	push	{r4, lr}
 80a08a6:	4604      	mov	r4, r0
 80a08a8:	4b03      	ldr	r3, [pc, #12]	; (80a08b8 <_ZN10SensorBaseD1Ev+0x14>)
 80a08aa:	f840 3b04 	str.w	r3, [r0], #4
 80a08ae:	f006 fbbd 	bl	80a702c <_ZN6StringD1Ev>
 80a08b2:	4620      	mov	r0, r4
 80a08b4:	bd10      	pop	{r4, pc}
 80a08b6:	bf00      	nop
 80a08b8:	080ad474 	.word	0x080ad474

080a08bc <_ZN16SensorControllerD1Ev>:
#define SOIL_ADDR_0 0x36    // 0x38   // SeeSaw capacitive sensor 1
#define SOIL_ADDR_1 0x37    // 0x39   // SeeSaw capacitive sensor 1

//======================================
// The Class
class SensorController
 80a08bc:	b5f8      	push	{r3, r4, r5, r6, r7, lr}
 80a08be:	4604      	mov	r4, r0
 80a08c0:	f600 10d4 	addw	r0, r0, #2516	; 0x9d4
 80a08c4:	f006 fbb2 	bl	80a702c <_ZN6StringD1Ev>
 80a08c8:	f604 15c8 	addw	r5, r4, #2504	; 0x9c8
 80a08cc:	f604 06f8 	addw	r6, r4, #2296	; 0x8f8
 80a08d0:	42b5      	cmp	r5, r6
 80a08d2:	d004      	beq.n	80a08de <_ZN16SensorControllerD1Ev+0x22>
 80a08d4:	3d10      	subs	r5, #16
 80a08d6:	4628      	mov	r0, r5
 80a08d8:	f006 fba8 	bl	80a702c <_ZN6StringD1Ev>
 80a08dc:	e7f8      	b.n	80a08d0 <_ZN16SensorControllerD1Ev+0x14>
	_M_deallocate(_M_impl._M_start,
 80a08de:	f8d4 04d8 	ldr.w	r0, [r4, #1240]	; 0x4d8
	if (__p)
 80a08e2:	b108      	cbz	r0, 80a08e8 <_ZN16SensorControllerD1Ev+0x2c>
	::operator delete(__p);
 80a08e4:	f7ff fbdd 	bl	80a00a2 <_ZdlPv>

//using namespace std;

//======================================
// The Class
class SOIL2 : public SensorBase
 80a08e8:	4b5d      	ldr	r3, [pc, #372]	; (80a0a60 <_ZN16SensorControllerD1Ev+0x1a4>)
 80a08ea:	f504 6099 	add.w	r0, r4, #1224	; 0x4c8
 80a08ee:	f8c4 3478 	str.w	r3, [r4, #1144]	; 0x478
 80a08f2:	f006 fb9b 	bl	80a702c <_ZN6StringD1Ev>
 80a08f6:	f504 658f 	add.w	r5, r4, #1144	; 0x478
 80a08fa:	f504 6097 	add.w	r0, r4, #1208	; 0x4b8
 80a08fe:	f006 fb95 	bl	80a702c <_ZN6StringD1Ev>
 80a0902:	4628      	mov	r0, r5
 80a0904:	f7ff ffce 	bl	80a08a4 <_ZN10SensorBaseD1Ev>

//using namespace std;

//======================================
// The Class
class SOIL1 : public SensorBase
 80a0908:	4b56      	ldr	r3, [pc, #344]	; (80a0a64 <_ZN16SensorControllerD1Ev+0x1a8>)
 80a090a:	f504 608d 	add.w	r0, r4, #1128	; 0x468
 80a090e:	f8c4 3418 	str.w	r3, [r4, #1048]	; 0x418
 80a0912:	f006 fb8b 	bl	80a702c <_ZN6StringD1Ev>
 80a0916:	f504 6583 	add.w	r5, r4, #1048	; 0x418
 80a091a:	f504 608b 	add.w	r0, r4, #1112	; 0x458
 80a091e:	f006 fb85 	bl	80a702c <_ZN6StringD1Ev>
 80a0922:	4628      	mov	r0, r5
 80a0924:	f7ff ffbe 	bl	80a08a4 <_ZN10SensorBaseD1Ev>
 80a0928:	4b4f      	ldr	r3, [pc, #316]	; (80a0a68 <_ZN16SensorControllerD1Ev+0x1ac>)
 80a092a:	f504 6081 	add.w	r0, r4, #1032	; 0x408
 80a092e:	f8c4 33b8 	str.w	r3, [r4, #952]	; 0x3b8
 80a0932:	f006 fb7b 	bl	80a702c <_ZN6StringD1Ev>
 80a0936:	f504 766e 	add.w	r6, r4, #952	; 0x3b8
 80a093a:	f504 707e 	add.w	r0, r4, #1016	; 0x3f8
 80a093e:	f006 fb75 	bl	80a702c <_ZN6StringD1Ev>
 80a0942:	4630      	mov	r0, r6
 80a0944:	f7ff ffae 	bl	80a08a4 <_ZN10SensorBaseD1Ev>
//using namespace std;


//======================================
// The Class
class ads1115v : public SensorBase
 80a0948:	4b48      	ldr	r3, [pc, #288]	; (80a0a6c <_ZN16SensorControllerD1Ev+0x1b0>)
 80a094a:	f504 754e 	add.w	r5, r4, #824	; 0x338
 80a094e:	f8c4 3338 	str.w	r3, [r4, #824]	; 0x338
 80a0952:	f504 775e 	add.w	r7, r4, #888	; 0x378
 80a0956:	42be      	cmp	r6, r7
 80a0958:	d004      	beq.n	80a0964 <_ZN16SensorControllerD1Ev+0xa8>
 80a095a:	3e10      	subs	r6, #16
 80a095c:	4630      	mov	r0, r6
 80a095e:	f006 fb65 	bl	80a702c <_ZN6StringD1Ev>
 80a0962:	e7f8      	b.n	80a0956 <_ZN16SensorControllerD1Ev+0x9a>
 80a0964:	4628      	mov	r0, r5
 80a0966:	f7ff ff9d 	bl	80a08a4 <_ZN10SensorBaseD1Ev>
//using namespace std;


//======================================
// The Class
class ads1115g : public SensorBase
 80a096a:	4b41      	ldr	r3, [pc, #260]	; (80a0a70 <_ZN16SensorControllerD1Ev+0x1b4>)
 80a096c:	f504 762e 	add.w	r6, r4, #696	; 0x2b8
 80a0970:	f8c4 32b8 	str.w	r3, [r4, #696]	; 0x2b8
 80a0974:	f504 773e 	add.w	r7, r4, #760	; 0x2f8
 80a0978:	42af      	cmp	r7, r5
 80a097a:	d004      	beq.n	80a0986 <_ZN16SensorControllerD1Ev+0xca>
 80a097c:	3d10      	subs	r5, #16
 80a097e:	4628      	mov	r0, r5
 80a0980:	f006 fb54 	bl	80a702c <_ZN6StringD1Ev>
 80a0984:	e7f8      	b.n	80a0978 <_ZN16SensorControllerD1Ev+0xbc>
 80a0986:	4630      	mov	r0, r6
 80a0988:	f7ff ff8c 	bl	80a08a4 <_ZN10SensorBaseD1Ev>
//using namespace std;


//======================================
// The Class
class HTU21 : public SensorBase
 80a098c:	4b39      	ldr	r3, [pc, #228]	; (80a0a74 <_ZN16SensorControllerD1Ev+0x1b8>)
 80a098e:	f504 702a 	add.w	r0, r4, #680	; 0x2a8
 80a0992:	f8c4 3260 	str.w	r3, [r4, #608]	; 0x260
 80a0996:	f006 fb49 	bl	80a702c <_ZN6StringD1Ev>
 80a099a:	f504 7518 	add.w	r5, r4, #608	; 0x260
 80a099e:	f504 7026 	add.w	r0, r4, #664	; 0x298
 80a09a2:	f006 fb43 	bl	80a702c <_ZN6StringD1Ev>
 80a09a6:	4628      	mov	r0, r5
 80a09a8:	f7ff ff7c 	bl	80a08a4 <_ZN10SensorBaseD1Ev>
//using namespace std;


//======================================
// The Class
class MCP9808_j : public SensorBase
 80a09ac:	4b32      	ldr	r3, [pc, #200]	; (80a0a78 <_ZN16SensorControllerD1Ev+0x1bc>)
 80a09ae:	f504 750a 	add.w	r5, r4, #552	; 0x228
 80a09b2:	f8c4 3228 	str.w	r3, [r4, #552]	; 0x228
 80a09b6:	f504 7014 	add.w	r0, r4, #592	; 0x250
 80a09ba:	f006 fb37 	bl	80a702c <_ZN6StringD1Ev>
 80a09be:	4628      	mov	r0, r5
 80a09c0:	f7ff ff70 	bl	80a08a4 <_ZN10SensorBaseD1Ev>
//using namespace std;


//======================================
// The Class
class CCS811 : public SensorBase
 80a09c4:	4b2d      	ldr	r3, [pc, #180]	; (80a0a7c <_ZN16SensorControllerD1Ev+0x1c0>)
 80a09c6:	f504 7006 	add.w	r0, r4, #536	; 0x218
 80a09ca:	f8c4 31b0 	str.w	r3, [r4, #432]	; 0x1b0
 80a09ce:	f006 fb2d 	bl	80a702c <_ZN6StringD1Ev>
 80a09d2:	f504 7002 	add.w	r0, r4, #520	; 0x208
 80a09d6:	f006 fb29 	bl	80a702c <_ZN6StringD1Ev>
 80a09da:	f504 76d8 	add.w	r6, r4, #432	; 0x1b0
 80a09de:	f504 70fc 	add.w	r0, r4, #504	; 0x1f8
 80a09e2:	f006 fb23 	bl	80a702c <_ZN6StringD1Ev>
 80a09e6:	4630      	mov	r0, r6
 80a09e8:	f7ff ff5c 	bl	80a08a4 <_ZN10SensorBaseD1Ev>
//using namespace std;


//======================================
// The Class
class TSL2561 : public SensorBase
 80a09ec:	4b24      	ldr	r3, [pc, #144]	; (80a0a80 <_ZN16SensorControllerD1Ev+0x1c4>)
 80a09ee:	f504 7590 	add.w	r5, r4, #288	; 0x120
 80a09f2:	f8c4 3120 	str.w	r3, [r4, #288]	; 0x120
 80a09f6:	f504 77b8 	add.w	r7, r4, #368	; 0x170
 80a09fa:	42be      	cmp	r6, r7
 80a09fc:	d004      	beq.n	80a0a08 <_ZN16SensorControllerD1Ev+0x14c>
 80a09fe:	3e10      	subs	r6, #16
 80a0a00:	4630      	mov	r0, r6
 80a0a02:	f006 fb13 	bl	80a702c <_ZN6StringD1Ev>
 80a0a06:	e7f8      	b.n	80a09fa <_ZN16SensorControllerD1Ev+0x13e>
 80a0a08:	4628      	mov	r0, r5
 80a0a0a:	f7ff ff4b 	bl	80a08a4 <_ZN10SensorBaseD1Ev>
 80a0a0e:	4b1d      	ldr	r3, [pc, #116]	; (80a0a84 <_ZN16SensorControllerD1Ev+0x1c8>)
 80a0a10:	f104 0660 	add.w	r6, r4, #96	; 0x60
 80a0a14:	6623      	str	r3, [r4, #96]	; 0x60
 80a0a16:	f104 07e0 	add.w	r7, r4, #224	; 0xe0
 80a0a1a:	42af      	cmp	r7, r5
 80a0a1c:	d004      	beq.n	80a0a28 <_ZN16SensorControllerD1Ev+0x16c>
 80a0a1e:	3d10      	subs	r5, #16
 80a0a20:	4628      	mov	r0, r5
 80a0a22:	f006 fb03 	bl	80a702c <_ZN6StringD1Ev>
 80a0a26:	e7f8      	b.n	80a0a1a <_ZN16SensorControllerD1Ev+0x15e>

//using namespace std;

//======================================
// The Class
class VEML6070 : public SensorBase
 80a0a28:	4625      	mov	r5, r4
 80a0a2a:	4630      	mov	r0, r6
 80a0a2c:	f7ff ff3a 	bl	80a08a4 <_ZN10SensorBaseD1Ev>
 80a0a30:	4b15      	ldr	r3, [pc, #84]	; (80a0a88 <_ZN16SensorControllerD1Ev+0x1cc>)
 80a0a32:	f104 0050 	add.w	r0, r4, #80	; 0x50
 80a0a36:	f845 3f28 	str.w	r3, [r5, #40]!
 80a0a3a:	f006 faf7 	bl	80a702c <_ZN6StringD1Ev>
 80a0a3e:	4628      	mov	r0, r5
 80a0a40:	f7ff ff30 	bl	80a08a4 <_ZN10SensorBaseD1Ev>
	_M_deallocate(_M_impl._M_start,
 80a0a44:	69e0      	ldr	r0, [r4, #28]
	if (__p)
 80a0a46:	b108      	cbz	r0, 80a0a4c <_ZN16SensorControllerD1Ev+0x190>
 80a0a48:	f7ff fb2b 	bl	80a00a2 <_ZdlPv>
	_M_deallocate(_M_impl._M_start,
 80a0a4c:	6920      	ldr	r0, [r4, #16]
	if (__p)
 80a0a4e:	b108      	cbz	r0, 80a0a54 <_ZN16SensorControllerD1Ev+0x198>
 80a0a50:	f7ff fb27 	bl	80a00a2 <_ZdlPv>
 80a0a54:	4620      	mov	r0, r4
 80a0a56:	f006 fae9 	bl	80a702c <_ZN6StringD1Ev>
 80a0a5a:	4620      	mov	r0, r4
 80a0a5c:	bdf8      	pop	{r3, r4, r5, r6, r7, pc}
 80a0a5e:	bf00      	nop
 80a0a60:	080ae668 	.word	0x080ae668
 80a0a64:	080ae0d8 	.word	0x080ae0d8
 80a0a68:	080ae570 	.word	0x080ae570
 80a0a6c:	080ae768 	.word	0x080ae768
 80a0a70:	080ae350 	.word	0x080ae350
 80a0a74:	080ae718 	.word	0x080ae718
 80a0a78:	080ae174 	.word	0x080ae174
 80a0a7c:	080ae428 	.word	0x080ae428
 80a0a80:	080ae868 	.word	0x080ae868
 80a0a84:	080ae270 	.word	0x080ae270
 80a0a88:	080ae5c8 	.word	0x080ae5c8

080a0a8c <_ZN10EEPROMinfoC1E6String>:
  uint8_t flag;
  char name[24];
  uint16_t TVOC_base, eCO2_base;
  bool setGas;

  EEPROMinfo(String newname) : flag(0), name(""), TVOC_base(0), eCO2_base(0), setGas(false)
 80a0a8c:	b5f8      	push	{r3, r4, r5, r6, r7, lr}
 80a0a8e:	2400      	movs	r4, #0
 80a0a90:	460f      	mov	r7, r1
 80a0a92:	4605      	mov	r5, r0
 80a0a94:	4b13      	ldr	r3, [pc, #76]	; (80a0ae4 <_ZN10EEPROMinfoC1E6String+0x58>)
 80a0a96:	7004      	strb	r4, [r0, #0]
 80a0a98:	781b      	ldrb	r3, [r3, #0]
 80a0a9a:	2217      	movs	r2, #23
 80a0a9c:	7043      	strb	r3, [r0, #1]
 80a0a9e:	4621      	mov	r1, r4
 80a0aa0:	3002      	adds	r0, #2
 80a0aa2:	f00b ffa3 	bl	80ac9ec <memset>
  {
    if (newname.length() < 24)
 80a0aa6:	68bb      	ldr	r3, [r7, #8]
  EEPROMinfo(String newname) : flag(0), name(""), TVOC_base(0), eCO2_base(0), setGas(false)
 80a0aa8:	836c      	strh	r4, [r5, #26]
    if (newname.length() < 24)
 80a0aaa:	2b17      	cmp	r3, #23
  EEPROMinfo(String newname) : flag(0), name(""), TVOC_base(0), eCO2_base(0), setGas(false)
 80a0aac:	83ac      	strh	r4, [r5, #28]
 80a0aae:	77ac      	strb	r4, [r5, #30]
	inline unsigned int length(void) const {return len;}
 80a0ab0:	f105 0601 	add.w	r6, r5, #1
    if (newname.length() < 24)
 80a0ab4:	d80a      	bhi.n	80a0acc <_ZN10EEPROMinfoC1E6String+0x40>
    {
      for (size_t i = 0; i < newname.length(); i++)
 80a0ab6:	68bb      	ldr	r3, [r7, #8]
 80a0ab8:	42a3      	cmp	r3, r4
 80a0aba:	d910      	bls.n	80a0ade <_ZN10EEPROMinfoC1E6String+0x52>
      {
        name[i] = newname.charAt(i);
 80a0abc:	4621      	mov	r1, r4
 80a0abe:	4638      	mov	r0, r7
 80a0ac0:	f006 fc78 	bl	80a73b4 <_ZNK6String6charAtEj>
      for (size_t i = 0; i < newname.length(); i++)
 80a0ac4:	3401      	adds	r4, #1
        name[i] = newname.charAt(i);
 80a0ac6:	f806 0b01 	strb.w	r0, [r6], #1
      for (size_t i = 0; i < newname.length(); i++)
 80a0aca:	e7f4      	b.n	80a0ab6 <_ZN10EEPROMinfoC1E6String+0x2a>
    }
    else
    {
      for (size_t i = 0; i < 24; i++)
      {
        name[i] = newname.charAt(i);
 80a0acc:	4621      	mov	r1, r4
 80a0ace:	4638      	mov	r0, r7
 80a0ad0:	f006 fc70 	bl	80a73b4 <_ZNK6String6charAtEj>
      for (size_t i = 0; i < 24; i++)
 80a0ad4:	3401      	adds	r4, #1
 80a0ad6:	2c18      	cmp	r4, #24
        name[i] = newname.charAt(i);
 80a0ad8:	f806 0b01 	strb.w	r0, [r6], #1
      for (size_t i = 0; i < 24; i++)
 80a0adc:	d1f6      	bne.n	80a0acc <_ZN10EEPROMinfoC1E6String+0x40>
      }
    }
  }
 80a0ade:	4628      	mov	r0, r5
 80a0ae0:	bdf8      	pop	{r3, r4, r5, r6, r7, pc}
 80a0ae2:	bf00      	nop
 80a0ae4:	080ae013 	.word	0x080ae013

080a0ae8 <_Z13setup_Optionsv>:
//Timer cloudConnectionTimer(35000, cancelWiFiCallback, true);
//Timer frozenTimer(15000, frozenShutdownCallback, true);
ApplicationWatchdog *wd;

void setup_Options()
{
 80a0ae8:	b508      	push	{r3, lr}
    bool clearCredentials(void) {
        return network_clear_credentials(*this, 0, NULL, NULL);
    }

    int selectAntenna(WLanSelectAntenna_TypeDef antenna) {
        return wlan_select_antenna(antenna);
 80a0aea:	2001      	movs	r0, #1
 80a0aec:	f005 fede 	bl	80a68ac <wlan_select_antenna>
        return HAL_Feature_Set(feature, true);
 80a0af0:	2101      	movs	r1, #1
 80a0af2:	4608      	mov	r0, r1
 80a0af4:	f005 fd4e 	bl	80a6594 <HAL_Feature_Set>
 80a0af8:	2101      	movs	r1, #1
 80a0afa:	2004      	movs	r0, #4
 80a0afc:	f005 fd4a 	bl	80a6594 <HAL_Feature_Set>
  WiFi.selectAntenna(ANT_EXTERNAL);
  System.enableFeature(FEATURE_RETAINED_MEMORY);
  System.enableFeature(FEATURE_RESET_INFO);
  System.disableUpdates();
  // System.enableFeature(FEATURE_WIFI_POWERSAVE_CLOCK);
}
 80a0b00:	e8bd 4008 	ldmia.w	sp!, {r3, lr}
        return value;
    }

    static inline void set_flag(system_flag_t flag, uint8_t value)
    {
        system_set_flag(flag, value, nullptr);
 80a0b04:	2200      	movs	r2, #0
 80a0b06:	2001      	movs	r0, #1
 80a0b08:	4611      	mov	r1, r2
 80a0b0a:	f005 bf27 	b.w	80a695c <system_set_flag>
	...

080a0b10 <_Z13getDecimalDayv>:
  else
    Log.info("Not near Wakeup time...");
}

float getDecimalDay()
{
 80a0b10:	b570      	push	{r4, r5, r6, lr}
 80a0b12:	b088      	sub	sp, #32
  int year = Time.year();
 80a0b14:	f007 fe6e 	bl	80a87f4 <_ZN9TimeClass4yearEv>
 80a0b18:	4604      	mov	r4, r0
	StringSumHelper(const char *p) : String(p) {}
 80a0b1a:	4947      	ldr	r1, [pc, #284]	; (80a0c38 <_Z13getDecimalDayv+0x128>)
 80a0b1c:	a804      	add	r0, sp, #16
 80a0b1e:	f006 facf 	bl	80a70c0 <_ZN6StringC1EPKc>
  Log.info("Current year is: " + String(year));
 80a0b22:	220a      	movs	r2, #10
 80a0b24:	4621      	mov	r1, r4
 80a0b26:	4668      	mov	r0, sp
 80a0b28:	f006 fb4a 	bl	80a71c0 <_ZN6StringC1Eih>
 80a0b2c:	4669      	mov	r1, sp
 80a0b2e:	a804      	add	r0, sp, #16
 80a0b30:	f006 fbd9 	bl	80a72e6 <_ZplRK15StringSumHelperRK6String>
 80a0b34:	6801      	ldr	r1, [r0, #0]
 80a0b36:	4841      	ldr	r0, [pc, #260]	; (80a0c3c <_Z13getDecimalDayv+0x12c>)
 80a0b38:	f7ff fe9c 	bl	80a0874 <_ZNK5spark6Logger4infoEPKcz>
 80a0b3c:	4668      	mov	r0, sp
 80a0b3e:	f006 fa75 	bl	80a702c <_ZN6StringD1Ev>
class StringSumHelper : public String
 80a0b42:	a804      	add	r0, sp, #16
 80a0b44:	f006 fa72 	bl	80a702c <_ZN6StringD1Ev>
  long secFromEpoc = Time.local();
 80a0b48:	f007 fe60 	bl	80a880c <_ZN9TimeClass5localEv>
 80a0b4c:	4606      	mov	r6, r0
	StringSumHelper(const char *p) : String(p) {}
 80a0b4e:	493c      	ldr	r1, [pc, #240]	; (80a0c40 <_Z13getDecimalDayv+0x130>)
 80a0b50:	a804      	add	r0, sp, #16
 80a0b52:	f006 fab5 	bl	80a70c0 <_ZN6StringC1EPKc>
  Log.info("Current seconds are:: " + String(secFromEpoc));
 80a0b56:	220a      	movs	r2, #10
 80a0b58:	4631      	mov	r1, r6
 80a0b5a:	4668      	mov	r0, sp
 80a0b5c:	f006 fb43 	bl	80a71e6 <_ZN6StringC1Elh>
 80a0b60:	4669      	mov	r1, sp
 80a0b62:	a804      	add	r0, sp, #16
 80a0b64:	f006 fbbf 	bl	80a72e6 <_ZplRK15StringSumHelperRK6String>
 80a0b68:	6801      	ldr	r1, [r0, #0]
 80a0b6a:	4834      	ldr	r0, [pc, #208]	; (80a0c3c <_Z13getDecimalDayv+0x12c>)
 80a0b6c:	f7ff fe82 	bl	80a0874 <_ZNK5spark6Logger4infoEPKcz>
 80a0b70:	4668      	mov	r0, sp
 80a0b72:	f006 fa5b 	bl	80a702c <_ZN6StringD1Ev>
class StringSumHelper : public String
 80a0b76:	a804      	add	r0, sp, #16
 80a0b78:	f006 fa58 	bl	80a702c <_ZN6StringD1Ev>
  int additionalSeconds = 0;
  if (year > 2020)
 80a0b7c:	f240 73e4 	movw	r3, #2020	; 0x7e4
 80a0b80:	429c      	cmp	r4, r3
 80a0b82:	dd4f      	ble.n	80a0c24 <_Z13getDecimalDayv+0x114>
  {
    additionalSeconds = floor((year - 2021) / 4 + 1) * 86400;
 80a0b84:	f2a4 70e5 	subw	r0, r4, #2021	; 0x7e5
 80a0b88:	1080      	asrs	r0, r0, #2
  template<typename _Tp>
    inline _GLIBCXX_CONSTEXPR
    typename __gnu_cxx::__enable_if<__is_integer<_Tp>::__value,
                                    double>::__type
    floor(_Tp __x)
    { return __builtin_floor(__x); }
 80a0b8a:	3001      	adds	r0, #1
 80a0b8c:	f00a fd24 	bl	80ab5d8 <__aeabi_i2d>
 80a0b90:	a325      	add	r3, pc, #148	; (adr r3, 80a0c28 <_Z13getDecimalDayv+0x118>)
 80a0b92:	e9d3 2300 	ldrd	r2, r3, [r3]
 80a0b96:	f00a fd89 	bl	80ab6ac <__aeabi_dmul>
 80a0b9a:	f00b f837 	bl	80abc0c <__aeabi_d2iz>
  }
  long secStartOfYear = 1546300800 + (year - 2019) * 31536000 + additionalSeconds;
 80a0b9e:	4b29      	ldr	r3, [pc, #164]	; (80a0c44 <_Z13getDecimalDayv+0x134>)
 80a0ba0:	f2a4 74e3 	subw	r4, r4, #2019	; 0x7e3
 80a0ba4:	fb03 0404 	mla	r4, r3, r4, r0
 80a0ba8:	4d27      	ldr	r5, [pc, #156]	; (80a0c48 <_Z13getDecimalDayv+0x138>)
	StringSumHelper(const char *p) : String(p) {}
 80a0baa:	4928      	ldr	r1, [pc, #160]	; (80a0c4c <_Z13getDecimalDayv+0x13c>)
 80a0bac:	4425      	add	r5, r4
 80a0bae:	a804      	add	r0, sp, #16
 80a0bb0:	f006 fa86 	bl	80a70c0 <_ZN6StringC1EPKc>
  Log.info("Seconds for the start of year: " + String(secStartOfYear));
 80a0bb4:	220a      	movs	r2, #10
 80a0bb6:	4629      	mov	r1, r5
 80a0bb8:	4668      	mov	r0, sp
 80a0bba:	f006 fb14 	bl	80a71e6 <_ZN6StringC1Elh>
 80a0bbe:	4669      	mov	r1, sp
 80a0bc0:	a804      	add	r0, sp, #16
 80a0bc2:	f006 fb90 	bl	80a72e6 <_ZplRK15StringSumHelperRK6String>
 80a0bc6:	6801      	ldr	r1, [r0, #0]
 80a0bc8:	481c      	ldr	r0, [pc, #112]	; (80a0c3c <_Z13getDecimalDayv+0x12c>)
 80a0bca:	f7ff fe53 	bl	80a0874 <_ZNK5spark6Logger4infoEPKcz>
 80a0bce:	4668      	mov	r0, sp
 80a0bd0:	f006 fa2c 	bl	80a702c <_ZN6StringD1Ev>
class StringSumHelper : public String
 80a0bd4:	a804      	add	r0, sp, #16
 80a0bd6:	f006 fa29 	bl	80a702c <_ZN6StringD1Ev>
  long diffFromSoY = secFromEpoc - secStartOfYear;
  float hrs = diffFromSoY * 1.0 / 3600.0;
 80a0bda:	1b70      	subs	r0, r6, r5
 80a0bdc:	f00a fcfc 	bl	80ab5d8 <__aeabi_i2d>
 80a0be0:	a313      	add	r3, pc, #76	; (adr r3, 80a0c30 <_Z13getDecimalDayv+0x120>)
 80a0be2:	e9d3 2300 	ldrd	r2, r3, [r3]
 80a0be6:	f00a fe8b 	bl	80ab900 <__aeabi_ddiv>
 80a0bea:	f00b f857 	bl	80abc9c <__aeabi_d2f>
 80a0bee:	4604      	mov	r4, r0
	StringSumHelper(const char *p) : String(p) {}
 80a0bf0:	4917      	ldr	r1, [pc, #92]	; (80a0c50 <_Z13getDecimalDayv+0x140>)
 80a0bf2:	a804      	add	r0, sp, #16
 80a0bf4:	f006 fa64 	bl	80a70c0 <_ZN6StringC1EPKc>
  Log.info("Decimal hrs are: " + String(hrs));
 80a0bf8:	2206      	movs	r2, #6
 80a0bfa:	4621      	mov	r1, r4
 80a0bfc:	4668      	mov	r0, sp
 80a0bfe:	f006 fb19 	bl	80a7234 <_ZN6StringC1Efi>
 80a0c02:	4669      	mov	r1, sp
 80a0c04:	a804      	add	r0, sp, #16
 80a0c06:	f006 fb6e 	bl	80a72e6 <_ZplRK15StringSumHelperRK6String>
 80a0c0a:	6801      	ldr	r1, [r0, #0]
 80a0c0c:	480b      	ldr	r0, [pc, #44]	; (80a0c3c <_Z13getDecimalDayv+0x12c>)
 80a0c0e:	f7ff fe31 	bl	80a0874 <_ZNK5spark6Logger4infoEPKcz>
 80a0c12:	4668      	mov	r0, sp
 80a0c14:	f006 fa0a 	bl	80a702c <_ZN6StringD1Ev>
class StringSumHelper : public String
 80a0c18:	a804      	add	r0, sp, #16
 80a0c1a:	f006 fa07 	bl	80a702c <_ZN6StringD1Ev>
  return hrs;
}
 80a0c1e:	4620      	mov	r0, r4
 80a0c20:	b008      	add	sp, #32
 80a0c22:	bd70      	pop	{r4, r5, r6, pc}
  int additionalSeconds = 0;
 80a0c24:	2000      	movs	r0, #0
 80a0c26:	e7ba      	b.n	80a0b9e <_Z13getDecimalDayv+0x8e>
 80a0c28:	00000000 	.word	0x00000000
 80a0c2c:	40f51800 	.word	0x40f51800
 80a0c30:	00000000 	.word	0x00000000
 80a0c34:	40ac2000 	.word	0x40ac2000
 80a0c38:	080ad4a2 	.word	0x080ad4a2
 80a0c3c:	20000c64 	.word	0x20000c64
 80a0c40:	080ad4b4 	.word	0x080ad4b4
 80a0c44:	01e13380 	.word	0x01e13380
 80a0c48:	5c2aad80 	.word	0x5c2aad80
 80a0c4c:	080ad4cb 	.word	0x080ad4cb
 80a0c50:	080ad4eb 	.word	0x080ad4eb

080a0c54 <_Z12StartPIRLoopv>:

void StartPIRLoop()
{
 80a0c54:	b538      	push	{r3, r4, r5, lr}
  isSensorLoop = false;
 80a0c56:	2500      	movs	r5, #0
 80a0c58:	4b0f      	ldr	r3, [pc, #60]	; (80a0c98 <_Z12StartPIRLoopv+0x44>)
  Log.info("PIR loop:");
 80a0c5a:	4910      	ldr	r1, [pc, #64]	; (80a0c9c <_Z12StartPIRLoopv+0x48>)
 80a0c5c:	4810      	ldr	r0, [pc, #64]	; (80a0ca0 <_Z12StartPIRLoopv+0x4c>)
  isSensorLoop = false;
 80a0c5e:	701d      	strb	r5, [r3, #0]
  Log.info("PIR loop:");
 80a0c60:	f7ff fe08 	bl	80a0874 <_ZNK5spark6Logger4infoEPKcz>
  //float currentTime = (Time.local()-1546300800)*3600*24 Time.hour() + Time.minute() * 1.0 / 60 + Time.second() * 1.0 / 3600;
  float currentTime = getDecimalDay();
 80a0c64:	f7ff ff54 	bl	80a0b10 <_Z13getDecimalDayv>
 80a0c68:	4604      	mov	r4, r0
  //int PIR1_Value = digitalRead(PIR1Pin);
  delay(10);
 80a0c6a:	200a      	movs	r0, #10
 80a0c6c:	f007 fdf2 	bl	80a8854 <delay>
  // int PIR2_Value = digitalRead(PIR2Pin);
  // delay(10);
  //Log.info("PIR 1: " + String(PIR1_Pin_State)); // + "\tPIR 2: " + String(PIR2_Value));
//  if (PIR1_Pin_State == HIGH)                   //&& (nPIR1 == 0 || (nPIR1 > 0 && currentTime - PIR1[nPIR1 - 1] >= PIRdelay)))
 // {
    Log.info("PIR 1 detected, saving decimal hours");
 80a0c70:	490c      	ldr	r1, [pc, #48]	; (80a0ca4 <_Z12StartPIRLoopv+0x50>)
 80a0c72:	480b      	ldr	r0, [pc, #44]	; (80a0ca0 <_Z12StartPIRLoopv+0x4c>)
 80a0c74:	f7ff fdfe 	bl	80a0874 <_ZNK5spark6Logger4infoEPKcz>
    //delay(10);
    PIR1[nPIR1] = currentTime;
 80a0c78:	4a0b      	ldr	r2, [pc, #44]	; (80a0ca8 <_Z12StartPIRLoopv+0x54>)
 80a0c7a:	7853      	ldrb	r3, [r2, #1]
 80a0c7c:	eb02 0183 	add.w	r1, r2, r3, lsl #2
    nPIR1++;
 80a0c80:	3301      	adds	r3, #1
 80a0c82:	b2db      	uxtb	r3, r3
    if (nPIR1 >= PIRlistSize)
 80a0c84:	2bc7      	cmp	r3, #199	; 0xc7
    nPIR1++;
 80a0c86:	7053      	strb	r3, [r2, #1]
    {
      LoopedPIR1 = true;
 80a0c88:	bf88      	it	hi
 80a0c8a:	2301      	movhi	r3, #1
    PIR1[nPIR1] = currentTime;
 80a0c8c:	604c      	str	r4, [r1, #4]
      LoopedPIR1 = true;
 80a0c8e:	bf84      	itt	hi
 80a0c90:	f882 3324 	strbhi.w	r3, [r2, #804]	; 0x324
      nPIR1 = 0;
 80a0c94:	7055      	strbhi	r5, [r2, #1]
      LoopedPIR2 = true;
      nPIR2 = 0;
    }
  }
  */
}
 80a0c96:	bd38      	pop	{r3, r4, r5, pc}
 80a0c98:	20000204 	.word	0x20000204
 80a0c9c:	080ad4fd 	.word	0x080ad4fd
 80a0ca0:	20000c64 	.word	0x20000c64
 80a0ca4:	080ad507 	.word	0x080ad507
 80a0ca8:	40024000 	.word	0x40024000

080a0cac <_Z14saveSensorInfov>:
}

// This fuction will save info to Readings variable.
// Assumed that nReadingsSaved is updated
void saveSensorInfo()
{
 80a0cac:	e92d 4ff0 	stmdb	sp!, {r4, r5, r6, r7, r8, r9, sl, fp, lr}
  Log.info("Saving Sensor Info.");
 80a0cb0:	497f      	ldr	r1, [pc, #508]	; (80a0eb0 <_Z14saveSensorInfov+0x204>)
{
 80a0cb2:	b089      	sub	sp, #36	; 0x24
  Log.info("Saving Sensor Info.");
 80a0cb4:	487f      	ldr	r0, [pc, #508]	; (80a0eb4 <_Z14saveSensorInfov+0x208>)
 80a0cb6:	f7ff fddd 	bl	80a0874 <_ZNK5spark6Logger4infoEPKcz>
  String tempCode = "--";
 80a0cba:	4668      	mov	r0, sp
 80a0cbc:	497e      	ldr	r1, [pc, #504]	; (80a0eb8 <_Z14saveSensorInfov+0x20c>)
 80a0cbe:	f006 f9ff 	bl	80a70c0 <_ZN6StringC1EPKc>
  if (cloudReady)
 80a0cc2:	4b7e      	ldr	r3, [pc, #504]	; (80a0ebc <_Z14saveSensorInfov+0x210>)
 80a0cc4:	4e7e      	ldr	r6, [pc, #504]	; (80a0ec0 <_Z14saveSensorInfov+0x214>)
 80a0cc6:	781d      	ldrb	r5, [r3, #0]
 80a0cc8:	2d00      	cmp	r5, #0
 80a0cca:	d070      	beq.n	80a0dae <_Z14saveSensorInfov+0x102>
 80a0ccc:	4635      	mov	r5, r6
  {
    for (size_t i = 0; i < nStaticReadings; i++)
 80a0cce:	2400      	movs	r4, #0
 80a0cd0:	f8df 920c 	ldr.w	r9, [pc, #524]	; 80a0ee0 <_Z14saveSensorInfov+0x234>
	unsigned char operator == (const char *cstr) const {return equals(cstr);}
 80a0cd4:	f8df b20c 	ldr.w	fp, [pc, #524]	; 80a0ee4 <_Z14saveSensorInfov+0x238>
  void UpdateSensors();
  void CommunicateSensors();
  void UploadSensors();
  int getNumberOfReadings() { return sensorReadings.size(); };
  double *getLatestData() { return staticReadings[savedReadings - 1]; };
  String getJsonCodes(int index) { return String(JasonName[index]); };
 80a0cd8:	4649      	mov	r1, r9
 80a0cda:	a804      	add	r0, sp, #16
 80a0cdc:	f006 fa3a 	bl	80a7154 <_ZN6StringC1ERKS_>
    {
      tempCode = String(sensors.getJsonCodes(i));
 80a0ce0:	a904      	add	r1, sp, #16
 80a0ce2:	4668      	mov	r0, sp
 80a0ce4:	f006 fa41 	bl	80a716a <_ZN6StringaSEOS_>
 80a0ce8:	a804      	add	r0, sp, #16
 80a0cea:	f006 f99f 	bl	80a702c <_ZN6StringD1Ev>
      JSONcode[i][0] = tempCode.charAt(0);
 80a0cee:	2100      	movs	r1, #0
 80a0cf0:	4668      	mov	r0, sp
 80a0cf2:	f006 fb5f 	bl	80a73b4 <_ZNK6String6charAtEj>
      JSONcode[i][1] = tempCode.charAt(1);
 80a0cf6:	2101      	movs	r1, #1
      JSONcode[i][0] = tempCode.charAt(0);
 80a0cf8:	7028      	strb	r0, [r5, #0]
      JSONcode[i][1] = tempCode.charAt(1);
 80a0cfa:	4668      	mov	r0, sp
 80a0cfc:	f006 fb5a 	bl	80a73b4 <_ZNK6String6charAtEj>
      JSONcode[i][2] = '\0';
 80a0d00:	f04f 0300 	mov.w	r3, #0
      JSONcode[i][1] = tempCode.charAt(1);
 80a0d04:	7068      	strb	r0, [r5, #1]
 80a0d06:	4659      	mov	r1, fp
 80a0d08:	4668      	mov	r0, sp
      JSONcode[i][2] = '\0';
 80a0d0a:	70ab      	strb	r3, [r5, #2]
 80a0d0c:	f006 fb37 	bl	80a737e <_ZNK6String6equalsEPKc>
 80a0d10:	f8df 81d4 	ldr.w	r8, [pc, #468]	; 80a0ee8 <_Z14saveSensorInfov+0x23c>
 80a0d14:	4f6b      	ldr	r7, [pc, #428]	; (80a0ec4 <_Z14saveSensorInfov+0x218>)
 // "Hour": "{{Hr}}",
 // "Minute": "{{Mt}}",
 // "Second": "{{Sc}}",
 // "TimeZone": "{{Zo}}",

      if (tempCode == "Sc")
 80a0d16:	b378      	cbz	r0, 80a0d78 <_Z14saveSensorInfov+0xcc>
      {
        Readings[nReadingsSaved][i] = Time.second() * 1000;
 80a0d18:	f007 fd4c 	bl	80a87b4 <_ZN9TimeClass6secondEv>
 80a0d1c:	220e      	movs	r2, #14
 80a0d1e:	683b      	ldr	r3, [r7, #0]
 80a0d20:	fb02 4303 	mla	r3, r2, r3, r4
 80a0d24:	f44f 727a 	mov.w	r2, #1000	; 0x3e8
 80a0d28:	4342      	muls	r2, r0
 80a0d2a:	f848 2023 	str.w	r2, [r8, r3, lsl #2]
    for (size_t i = 0; i < nStaticReadings; i++)
 80a0d2e:	3401      	adds	r4, #1
 80a0d30:	2c0d      	cmp	r4, #13
 80a0d32:	f109 0910 	add.w	r9, r9, #16
 80a0d36:	f105 0503 	add.w	r5, r5, #3
 80a0d3a:	d1cd      	bne.n	80a0cd8 <_Z14saveSensorInfov+0x2c>
      else
      {
        Readings[nReadingsSaved][i] = (sensors.getLatestData())[i] * 1000;
      }
    }
    Readings[nReadingsSaved][nStaticReadings] = getDecimalDay() * 1000;
 80a0d3c:	f7ff fee8 	bl	80a0b10 <_Z13getDecimalDayv>
 80a0d40:	2338      	movs	r3, #56	; 0x38
 80a0d42:	683c      	ldr	r4, [r7, #0]
 80a0d44:	4960      	ldr	r1, [pc, #384]	; (80a0ec8 <_Z14saveSensorInfov+0x21c>)
 80a0d46:	fb03 8804 	mla	r8, r3, r4, r8
 80a0d4a:	f00b f905 	bl	80abf58 <__aeabi_fmul>
 80a0d4e:	f00b fac9 	bl	80ac2e4 <__aeabi_f2iz>
    nReadingsSaved++;
 80a0d52:	3401      	adds	r4, #1
    Readings[nReadingsSaved][nStaticReadings] = getDecimalDay() * 1000;
 80a0d54:	f8c8 0034 	str.w	r0, [r8, #52]	; 0x34
    nReadingsSaved++;
 80a0d58:	603c      	str	r4, [r7, #0]
    }

    haveSavedToCloud = true;
  }

  JSONcode[nStaticReadings][0] = 'D';
 80a0d5a:	2344      	movs	r3, #68	; 0x44
 80a0d5c:	f886 3027 	strb.w	r3, [r6, #39]	; 0x27
  JSONcode[nStaticReadings][1] = 'h';
 80a0d60:	2368      	movs	r3, #104	; 0x68
 80a0d62:	f886 3028 	strb.w	r3, [r6, #40]	; 0x28
  JSONcode[nStaticReadings][2] = '\0';
 80a0d66:	2300      	movs	r3, #0
  String tempCode = "--";
 80a0d68:	4668      	mov	r0, sp
  JSONcode[nStaticReadings][2] = '\0';
 80a0d6a:	f886 3029 	strb.w	r3, [r6, #41]	; 0x29
  String tempCode = "--";
 80a0d6e:	f006 f95d 	bl	80a702c <_ZN6StringD1Ev>
}
 80a0d72:	b009      	add	sp, #36	; 0x24
 80a0d74:	e8bd 8ff0 	ldmia.w	sp!, {r4, r5, r6, r7, r8, r9, sl, fp, pc}
        Readings[nReadingsSaved][i] = (sensors.getLatestData())[i] * 1000;
 80a0d78:	f04f 0a0e 	mov.w	sl, #14
 80a0d7c:	2068      	movs	r0, #104	; 0x68
 80a0d7e:	683b      	ldr	r3, [r7, #0]
 80a0d80:	fb0a 4a03 	mla	sl, sl, r3, r4
 80a0d84:	4b51      	ldr	r3, [pc, #324]	; (80a0ecc <_Z14saveSensorInfov+0x220>)
 80a0d86:	f8d3 19cc 	ldr.w	r1, [r3, #2508]	; 0x9cc
 80a0d8a:	1e4a      	subs	r2, r1, #1
 80a0d8c:	00e1      	lsls	r1, r4, #3
 80a0d8e:	fb00 1102 	mla	r1, r0, r2, r1
 80a0d92:	440b      	add	r3, r1
 80a0d94:	f503 619d 	add.w	r1, r3, #1256	; 0x4e8
 80a0d98:	2200      	movs	r2, #0
 80a0d9a:	e9d1 0100 	ldrd	r0, r1, [r1]
 80a0d9e:	4b4c      	ldr	r3, [pc, #304]	; (80a0ed0 <_Z14saveSensorInfov+0x224>)
 80a0da0:	f00a fc84 	bl	80ab6ac <__aeabi_dmul>
 80a0da4:	f00a ff32 	bl	80abc0c <__aeabi_d2iz>
 80a0da8:	f848 002a 	str.w	r0, [r8, sl, lsl #2]
 80a0dac:	e7bf      	b.n	80a0d2e <_Z14saveSensorInfov+0x82>
  else if (saveOffline)
 80a0dae:	4b49      	ldr	r3, [pc, #292]	; (80a0ed4 <_Z14saveSensorInfov+0x228>)
 80a0db0:	781b      	ldrb	r3, [r3, #0]
 80a0db2:	2b00      	cmp	r3, #0
 80a0db4:	d0d1      	beq.n	80a0d5a <_Z14saveSensorInfov+0xae>
 80a0db6:	4637      	mov	r7, r6
      JSONcode[i][0] = tempCode.charAt(0);
 80a0db8:	46aa      	mov	sl, r5
 80a0dba:	f8df 9124 	ldr.w	r9, [pc, #292]	; 80a0ee0 <_Z14saveSensorInfov+0x234>
 80a0dbe:	f8df b124 	ldr.w	fp, [pc, #292]	; 80a0ee4 <_Z14saveSensorInfov+0x238>
 80a0dc2:	4649      	mov	r1, r9
 80a0dc4:	a804      	add	r0, sp, #16
 80a0dc6:	f006 f9c5 	bl	80a7154 <_ZN6StringC1ERKS_>
      tempCode = String(sensors.getJsonCodes(i));
 80a0dca:	a904      	add	r1, sp, #16
 80a0dcc:	4668      	mov	r0, sp
 80a0dce:	f006 f9cc 	bl	80a716a <_ZN6StringaSEOS_>
 80a0dd2:	a804      	add	r0, sp, #16
 80a0dd4:	f006 f92a 	bl	80a702c <_ZN6StringD1Ev>
      JSONcode[i][0] = tempCode.charAt(0);
 80a0dd8:	2100      	movs	r1, #0
 80a0dda:	4668      	mov	r0, sp
 80a0ddc:	f006 faea 	bl	80a73b4 <_ZNK6String6charAtEj>
      JSONcode[i][1] = tempCode.charAt(1);
 80a0de0:	2101      	movs	r1, #1
      JSONcode[i][0] = tempCode.charAt(0);
 80a0de2:	7038      	strb	r0, [r7, #0]
      JSONcode[i][1] = tempCode.charAt(1);
 80a0de4:	4668      	mov	r0, sp
 80a0de6:	f006 fae5 	bl	80a73b4 <_ZNK6String6charAtEj>
 80a0dea:	4659      	mov	r1, fp
 80a0dec:	7078      	strb	r0, [r7, #1]
      JSONcode[i][2] = '\0';
 80a0dee:	f887 a002 	strb.w	sl, [r7, #2]
 80a0df2:	4668      	mov	r0, sp
 80a0df4:	f006 fac3 	bl	80a737e <_ZNK6String6equalsEPKc>
 80a0df8:	4c37      	ldr	r4, [pc, #220]	; (80a0ed8 <_Z14saveSensorInfov+0x22c>)
      if (tempCode == "Sc")
 80a0dfa:	2800      	cmp	r0, #0
 80a0dfc:	d03b      	beq.n	80a0e76 <_Z14saveSensorInfov+0x1ca>
        savedReadings[nOfflineReadingsSaved][i] = Time.second() * 1000;
 80a0dfe:	f007 fcd9 	bl	80a87b4 <_ZN9TimeClass6secondEv>
 80a0e02:	220e      	movs	r2, #14
 80a0e04:	f894 3be8 	ldrb.w	r3, [r4, #3048]	; 0xbe8
 80a0e08:	fb02 5303 	mla	r3, r2, r3, r5
 80a0e0c:	f44f 727a 	mov.w	r2, #1000	; 0x3e8
 80a0e10:	4342      	muls	r2, r0
 80a0e12:	eb04 0383 	add.w	r3, r4, r3, lsl #2
 80a0e16:	f8c3 2328 	str.w	r2, [r3, #808]	; 0x328
    for (size_t i = 0; i < nStaticReadings; i++)
 80a0e1a:	3501      	adds	r5, #1
 80a0e1c:	2d0d      	cmp	r5, #13
 80a0e1e:	f109 0910 	add.w	r9, r9, #16
 80a0e22:	f107 0703 	add.w	r7, r7, #3
 80a0e26:	d1cc      	bne.n	80a0dc2 <_Z14saveSensorInfov+0x116>
    delay(10);
 80a0e28:	200a      	movs	r0, #10
 80a0e2a:	f007 fd13 	bl	80a8854 <delay>
    savedReadings[nOfflineReadingsSaved][nStaticReadings] = getDecimalDay() * 1000;
 80a0e2e:	f7ff fe6f 	bl	80a0b10 <_Z13getDecimalDayv>
 80a0e32:	2338      	movs	r3, #56	; 0x38
 80a0e34:	f894 5be8 	ldrb.w	r5, [r4, #3048]	; 0xbe8
 80a0e38:	4923      	ldr	r1, [pc, #140]	; (80a0ec8 <_Z14saveSensorInfov+0x21c>)
 80a0e3a:	fb03 4505 	mla	r5, r3, r5, r4
 80a0e3e:	f00b f88b 	bl	80abf58 <__aeabi_fmul>
 80a0e42:	f00b fa4f 	bl	80ac2e4 <__aeabi_f2iz>
 80a0e46:	f8c5 035c 	str.w	r0, [r5, #860]	; 0x35c
    delay(10);
 80a0e4a:	200a      	movs	r0, #10
 80a0e4c:	f007 fd02 	bl	80a8854 <delay>
    nOfflineReadingsSaved++;
 80a0e50:	f894 3be8 	ldrb.w	r3, [r4, #3048]	; 0xbe8
    haveSavedToCloud = true;
 80a0e54:	2201      	movs	r2, #1
    nOfflineReadingsSaved++;
 80a0e56:	3301      	adds	r3, #1
 80a0e58:	b2db      	uxtb	r3, r3
    if (nOfflineReadingsSaved >= maxOfflineSaves)
 80a0e5a:	2b27      	cmp	r3, #39	; 0x27
      nOfflineReadingsSaved = 0;
 80a0e5c:	bf83      	ittte	hi
 80a0e5e:	2300      	movhi	r3, #0
 80a0e60:	f884 3be8 	strbhi.w	r3, [r4, #3048]	; 0xbe8
      loopedOfflineSaves = true;
 80a0e64:	2301      	movhi	r3, #1
    nOfflineReadingsSaved++;
 80a0e66:	f884 3be8 	strbls.w	r3, [r4, #3048]	; 0xbe8
      loopedOfflineSaves = true;
 80a0e6a:	bf88      	it	hi
 80a0e6c:	f884 3be9 	strbhi.w	r3, [r4, #3049]	; 0xbe9
    haveSavedToCloud = true;
 80a0e70:	4b1a      	ldr	r3, [pc, #104]	; (80a0edc <_Z14saveSensorInfov+0x230>)
 80a0e72:	701a      	strb	r2, [r3, #0]
 80a0e74:	e771      	b.n	80a0d5a <_Z14saveSensorInfov+0xae>
        savedReadings[nOfflineReadingsSaved][i] = (sensors.getLatestData())[i] * 1000;
 80a0e76:	230e      	movs	r3, #14
 80a0e78:	2068      	movs	r0, #104	; 0x68
 80a0e7a:	f894 8be8 	ldrb.w	r8, [r4, #3048]	; 0xbe8
 80a0e7e:	fb03 5808 	mla	r8, r3, r8, r5
 80a0e82:	4b12      	ldr	r3, [pc, #72]	; (80a0ecc <_Z14saveSensorInfov+0x220>)
 80a0e84:	eb04 0888 	add.w	r8, r4, r8, lsl #2
 80a0e88:	f8d3 19cc 	ldr.w	r1, [r3, #2508]	; 0x9cc
 80a0e8c:	1e4a      	subs	r2, r1, #1
 80a0e8e:	00e9      	lsls	r1, r5, #3
 80a0e90:	fb00 1102 	mla	r1, r0, r2, r1
 80a0e94:	440b      	add	r3, r1
 80a0e96:	f503 619d 	add.w	r1, r3, #1256	; 0x4e8
 80a0e9a:	2200      	movs	r2, #0
 80a0e9c:	e9d1 0100 	ldrd	r0, r1, [r1]
 80a0ea0:	4b0b      	ldr	r3, [pc, #44]	; (80a0ed0 <_Z14saveSensorInfov+0x224>)
 80a0ea2:	f00a fc03 	bl	80ab6ac <__aeabi_dmul>
 80a0ea6:	f00a feb1 	bl	80abc0c <__aeabi_d2iz>
 80a0eaa:	f8c8 0328 	str.w	r0, [r8, #808]	; 0x328
 80a0eae:	e7b4      	b.n	80a0e1a <_Z14saveSensorInfov+0x16e>
 80a0eb0:	080ad52c 	.word	0x080ad52c
 80a0eb4:	20000c64 	.word	0x20000c64
 80a0eb8:	080ad42d 	.word	0x080ad42d
 80a0ebc:	200001f9 	.word	0x200001f9
 80a0ec0:	20000170 	.word	0x20000170
 80a0ec4:	2000022c 	.word	0x2000022c
 80a0ec8:	447a0000 	.word	0x447a0000
 80a0ecc:	20000238 	.word	0x20000238
 80a0ed0:	408f4000 	.word	0x408f4000
 80a0ed4:	20000230 	.word	0x20000230
 80a0ed8:	40024000 	.word	0x40024000
 80a0edc:	20000202 	.word	0x20000202
 80a0ee0:	20000b30 	.word	0x20000b30
 80a0ee4:	080ad427 	.word	0x080ad427
 80a0ee8:	2000019c 	.word	0x2000019c

080a0eec <_Z14hasUpdatedTimev>:

//////////////////////////////////////////////////////////////
//            SYSTEM FUNCTIONS
//////////////////////////////////////////////////////////////
bool hasUpdatedTime()
{
 80a0eec:	b510      	push	{r4, lr}

  if (WifiOn || firstload)
 80a0eee:	4b83      	ldr	r3, [pc, #524]	; (80a10fc <_Z14hasUpdatedTimev+0x210>)
{
 80a0ef0:	b09c      	sub	sp, #112	; 0x70
  if (WifiOn || firstload)
 80a0ef2:	f893 2bea 	ldrb.w	r2, [r3, #3050]	; 0xbea
 80a0ef6:	b92a      	cbnz	r2, 80a0f04 <_Z14hasUpdatedTimev+0x18>
 80a0ef8:	f893 3beb 	ldrb.w	r3, [r3, #3051]	; 0xbeb
 80a0efc:	b913      	cbnz	r3, 80a0f04 <_Z14hasUpdatedTimev+0x18>
    else
    {
      return true;
    }
  }
  return true;
 80a0efe:	2001      	movs	r0, #1
}
 80a0f00:	b01c      	add	sp, #112	; 0x70
 80a0f02:	bd10      	pop	{r4, pc}
    if (Time.year() == 1999)
 80a0f04:	f007 fc76 	bl	80a87f4 <_ZN9TimeClass4yearEv>
 80a0f08:	f240 73cf 	movw	r3, #1999	; 0x7cf
 80a0f0c:	4298      	cmp	r0, r3
 80a0f0e:	d1f6      	bne.n	80a0efe <_Z14hasUpdatedTimev+0x12>
	StringSumHelper(const char *p) : String(p) {}
 80a0f10:	497b      	ldr	r1, [pc, #492]	; (80a1100 <_Z14hasUpdatedTimev+0x214>)
 80a0f12:	4668      	mov	r0, sp
 80a0f14:	f006 f8d4 	bl	80a70c0 <_ZN6StringC1EPKc>
      Log.info("Time: " + String(Time.day()) + "-" + String(Time.month()) + "-" + String(Time.year()) + " " + String(Time.hour()) + ":" + String(Time.minute()) + ":" + String(Time.second()));
 80a0f18:	f007 fc58 	bl	80a87cc <_ZN9TimeClass3dayEv>
 80a0f1c:	220a      	movs	r2, #10
 80a0f1e:	4601      	mov	r1, r0
 80a0f20:	a804      	add	r0, sp, #16
 80a0f22:	f006 f94d 	bl	80a71c0 <_ZN6StringC1Eih>
 80a0f26:	a904      	add	r1, sp, #16
 80a0f28:	4668      	mov	r0, sp
 80a0f2a:	f006 f9dc 	bl	80a72e6 <_ZplRK15StringSumHelperRK6String>
 80a0f2e:	4975      	ldr	r1, [pc, #468]	; (80a1104 <_Z14hasUpdatedTimev+0x218>)
 80a0f30:	f006 f9e5 	bl	80a72fe <_ZplRK15StringSumHelperPKc>
 80a0f34:	4604      	mov	r4, r0
 80a0f36:	f007 fc55 	bl	80a87e4 <_ZN9TimeClass5monthEv>
 80a0f3a:	220a      	movs	r2, #10
 80a0f3c:	4601      	mov	r1, r0
 80a0f3e:	a808      	add	r0, sp, #32
 80a0f40:	f006 f93e 	bl	80a71c0 <_ZN6StringC1Eih>
 80a0f44:	4620      	mov	r0, r4
 80a0f46:	a908      	add	r1, sp, #32
 80a0f48:	f006 f9cd 	bl	80a72e6 <_ZplRK15StringSumHelperRK6String>
 80a0f4c:	496d      	ldr	r1, [pc, #436]	; (80a1104 <_Z14hasUpdatedTimev+0x218>)
 80a0f4e:	f006 f9d6 	bl	80a72fe <_ZplRK15StringSumHelperPKc>
 80a0f52:	4604      	mov	r4, r0
 80a0f54:	f007 fc4e 	bl	80a87f4 <_ZN9TimeClass4yearEv>
 80a0f58:	220a      	movs	r2, #10
 80a0f5a:	4601      	mov	r1, r0
 80a0f5c:	a80c      	add	r0, sp, #48	; 0x30
 80a0f5e:	f006 f92f 	bl	80a71c0 <_ZN6StringC1Eih>
 80a0f62:	4620      	mov	r0, r4
 80a0f64:	a90c      	add	r1, sp, #48	; 0x30
 80a0f66:	f006 f9be 	bl	80a72e6 <_ZplRK15StringSumHelperRK6String>
 80a0f6a:	4967      	ldr	r1, [pc, #412]	; (80a1108 <_Z14hasUpdatedTimev+0x21c>)
 80a0f6c:	f006 f9c7 	bl	80a72fe <_ZplRK15StringSumHelperPKc>
 80a0f70:	4604      	mov	r4, r0
 80a0f72:	f007 fc07 	bl	80a8784 <_ZN9TimeClass4hourEv>
 80a0f76:	220a      	movs	r2, #10
 80a0f78:	4601      	mov	r1, r0
 80a0f7a:	a810      	add	r0, sp, #64	; 0x40
 80a0f7c:	f006 f920 	bl	80a71c0 <_ZN6StringC1Eih>
 80a0f80:	4620      	mov	r0, r4
 80a0f82:	a910      	add	r1, sp, #64	; 0x40
 80a0f84:	f006 f9af 	bl	80a72e6 <_ZplRK15StringSumHelperRK6String>
 80a0f88:	4960      	ldr	r1, [pc, #384]	; (80a110c <_Z14hasUpdatedTimev+0x220>)
 80a0f8a:	f006 f9b8 	bl	80a72fe <_ZplRK15StringSumHelperPKc>
 80a0f8e:	4604      	mov	r4, r0
 80a0f90:	f007 fc04 	bl	80a879c <_ZN9TimeClass6minuteEv>
 80a0f94:	220a      	movs	r2, #10
 80a0f96:	4601      	mov	r1, r0
 80a0f98:	a814      	add	r0, sp, #80	; 0x50
 80a0f9a:	f006 f911 	bl	80a71c0 <_ZN6StringC1Eih>
 80a0f9e:	4620      	mov	r0, r4
 80a0fa0:	a914      	add	r1, sp, #80	; 0x50
 80a0fa2:	f006 f9a0 	bl	80a72e6 <_ZplRK15StringSumHelperRK6String>
 80a0fa6:	4959      	ldr	r1, [pc, #356]	; (80a110c <_Z14hasUpdatedTimev+0x220>)
 80a0fa8:	f006 f9a9 	bl	80a72fe <_ZplRK15StringSumHelperPKc>
 80a0fac:	4604      	mov	r4, r0
 80a0fae:	f007 fc01 	bl	80a87b4 <_ZN9TimeClass6secondEv>
 80a0fb2:	220a      	movs	r2, #10
 80a0fb4:	4601      	mov	r1, r0
 80a0fb6:	a818      	add	r0, sp, #96	; 0x60
 80a0fb8:	f006 f902 	bl	80a71c0 <_ZN6StringC1Eih>
 80a0fbc:	a918      	add	r1, sp, #96	; 0x60
 80a0fbe:	4620      	mov	r0, r4
 80a0fc0:	f006 f991 	bl	80a72e6 <_ZplRK15StringSumHelperRK6String>
 80a0fc4:	6801      	ldr	r1, [r0, #0]
 80a0fc6:	4852      	ldr	r0, [pc, #328]	; (80a1110 <_Z14hasUpdatedTimev+0x224>)
 80a0fc8:	f7ff fc54 	bl	80a0874 <_ZNK5spark6Logger4infoEPKcz>
 80a0fcc:	a818      	add	r0, sp, #96	; 0x60
 80a0fce:	f006 f82d 	bl	80a702c <_ZN6StringD1Ev>
 80a0fd2:	a814      	add	r0, sp, #80	; 0x50
 80a0fd4:	f006 f82a 	bl	80a702c <_ZN6StringD1Ev>
 80a0fd8:	a810      	add	r0, sp, #64	; 0x40
 80a0fda:	f006 f827 	bl	80a702c <_ZN6StringD1Ev>
 80a0fde:	a80c      	add	r0, sp, #48	; 0x30
 80a0fe0:	f006 f824 	bl	80a702c <_ZN6StringD1Ev>
 80a0fe4:	a808      	add	r0, sp, #32
 80a0fe6:	f006 f821 	bl	80a702c <_ZN6StringD1Ev>
 80a0fea:	a804      	add	r0, sp, #16
 80a0fec:	f006 f81e 	bl	80a702c <_ZN6StringD1Ev>
class StringSumHelper : public String
 80a0ff0:	4668      	mov	r0, sp
 80a0ff2:	f006 f81b 	bl	80a702c <_ZN6StringD1Ev>
      Log.info("Syncing Time");
 80a0ff6:	4947      	ldr	r1, [pc, #284]	; (80a1114 <_Z14hasUpdatedTimev+0x228>)
 80a0ff8:	4845      	ldr	r0, [pc, #276]	; (80a1110 <_Z14hasUpdatedTimev+0x224>)
 80a0ffa:	f7ff fc3b 	bl	80a0874 <_ZNK5spark6Logger4infoEPKcz>
    static void sleep(Spark_Sleep_TypeDef sleepMode, long seconds=0) __attribute__ ((deprecated("Please use System.sleep() instead.")))
    { SystemClass::sleep(sleepMode, seconds); }
    static void sleep(uint16_t wakeUpPin, InterruptMode edgeTriggerMode, long seconds=0) __attribute__ ((deprecated("Please use System.sleep() instead.")))
    { SystemClass::sleep(wakeUpPin, edgeTriggerMode, seconds); }

    static bool connected(void) { return spark_cloud_flag_connected(); }
 80a0ffe:	f005 fd51 	bl	80a6aa4 <spark_cloud_flag_connected>
        if (!connected()) {
 80a1002:	b110      	cbz	r0, 80a100a <_Z14hasUpdatedTimev+0x11e>
        return spark_sync_time(NULL);
 80a1004:	2000      	movs	r0, #0
 80a1006:	f005 fd65 	bl	80a6ad4 <spark_sync_time>
	StringSumHelper(const char *p) : String(p) {}
 80a100a:	493d      	ldr	r1, [pc, #244]	; (80a1100 <_Z14hasUpdatedTimev+0x214>)
 80a100c:	4668      	mov	r0, sp
 80a100e:	f006 f857 	bl	80a70c0 <_ZN6StringC1EPKc>
      Log.info("Time: " + String(Time.day()) + "-" + String(Time.month()) + "-" + String(Time.year()) + " " + String(Time.hour()) + ":" + String(Time.minute()) + ":" + String(Time.second()));
 80a1012:	f007 fbdb 	bl	80a87cc <_ZN9TimeClass3dayEv>
 80a1016:	220a      	movs	r2, #10
 80a1018:	4601      	mov	r1, r0
 80a101a:	a804      	add	r0, sp, #16
 80a101c:	f006 f8d0 	bl	80a71c0 <_ZN6StringC1Eih>
 80a1020:	a904      	add	r1, sp, #16
 80a1022:	4668      	mov	r0, sp
 80a1024:	f006 f95f 	bl	80a72e6 <_ZplRK15StringSumHelperRK6String>
 80a1028:	4936      	ldr	r1, [pc, #216]	; (80a1104 <_Z14hasUpdatedTimev+0x218>)
 80a102a:	f006 f968 	bl	80a72fe <_ZplRK15StringSumHelperPKc>
 80a102e:	4604      	mov	r4, r0
 80a1030:	f007 fbd8 	bl	80a87e4 <_ZN9TimeClass5monthEv>
 80a1034:	220a      	movs	r2, #10
 80a1036:	4601      	mov	r1, r0
 80a1038:	a808      	add	r0, sp, #32
 80a103a:	f006 f8c1 	bl	80a71c0 <_ZN6StringC1Eih>
 80a103e:	4620      	mov	r0, r4
 80a1040:	a908      	add	r1, sp, #32
 80a1042:	f006 f950 	bl	80a72e6 <_ZplRK15StringSumHelperRK6String>
 80a1046:	492f      	ldr	r1, [pc, #188]	; (80a1104 <_Z14hasUpdatedTimev+0x218>)
 80a1048:	f006 f959 	bl	80a72fe <_ZplRK15StringSumHelperPKc>
 80a104c:	4604      	mov	r4, r0
 80a104e:	f007 fbd1 	bl	80a87f4 <_ZN9TimeClass4yearEv>
 80a1052:	220a      	movs	r2, #10
 80a1054:	4601      	mov	r1, r0
 80a1056:	a80c      	add	r0, sp, #48	; 0x30
 80a1058:	f006 f8b2 	bl	80a71c0 <_ZN6StringC1Eih>
 80a105c:	4620      	mov	r0, r4
 80a105e:	a90c      	add	r1, sp, #48	; 0x30
 80a1060:	f006 f941 	bl	80a72e6 <_ZplRK15StringSumHelperRK6String>
 80a1064:	4928      	ldr	r1, [pc, #160]	; (80a1108 <_Z14hasUpdatedTimev+0x21c>)
 80a1066:	f006 f94a 	bl	80a72fe <_ZplRK15StringSumHelperPKc>
 80a106a:	4604      	mov	r4, r0
 80a106c:	f007 fb8a 	bl	80a8784 <_ZN9TimeClass4hourEv>
 80a1070:	220a      	movs	r2, #10
 80a1072:	4601      	mov	r1, r0
 80a1074:	a810      	add	r0, sp, #64	; 0x40
 80a1076:	f006 f8a3 	bl	80a71c0 <_ZN6StringC1Eih>
 80a107a:	4620      	mov	r0, r4
 80a107c:	a910      	add	r1, sp, #64	; 0x40
 80a107e:	f006 f932 	bl	80a72e6 <_ZplRK15StringSumHelperRK6String>
 80a1082:	4922      	ldr	r1, [pc, #136]	; (80a110c <_Z14hasUpdatedTimev+0x220>)
 80a1084:	f006 f93b 	bl	80a72fe <_ZplRK15StringSumHelperPKc>
 80a1088:	4604      	mov	r4, r0
 80a108a:	f007 fb87 	bl	80a879c <_ZN9TimeClass6minuteEv>
 80a108e:	220a      	movs	r2, #10
 80a1090:	4601      	mov	r1, r0
 80a1092:	a814      	add	r0, sp, #80	; 0x50
 80a1094:	f006 f894 	bl	80a71c0 <_ZN6StringC1Eih>
 80a1098:	4620      	mov	r0, r4
 80a109a:	a914      	add	r1, sp, #80	; 0x50
 80a109c:	f006 f923 	bl	80a72e6 <_ZplRK15StringSumHelperRK6String>
 80a10a0:	491a      	ldr	r1, [pc, #104]	; (80a110c <_Z14hasUpdatedTimev+0x220>)
 80a10a2:	f006 f92c 	bl	80a72fe <_ZplRK15StringSumHelperPKc>
 80a10a6:	4604      	mov	r4, r0
 80a10a8:	f007 fb84 	bl	80a87b4 <_ZN9TimeClass6secondEv>
 80a10ac:	220a      	movs	r2, #10
 80a10ae:	4601      	mov	r1, r0
 80a10b0:	a818      	add	r0, sp, #96	; 0x60
 80a10b2:	f006 f885 	bl	80a71c0 <_ZN6StringC1Eih>
 80a10b6:	a918      	add	r1, sp, #96	; 0x60
 80a10b8:	4620      	mov	r0, r4
 80a10ba:	f006 f914 	bl	80a72e6 <_ZplRK15StringSumHelperRK6String>
 80a10be:	6801      	ldr	r1, [r0, #0]
 80a10c0:	4813      	ldr	r0, [pc, #76]	; (80a1110 <_Z14hasUpdatedTimev+0x224>)
 80a10c2:	f7ff fbd7 	bl	80a0874 <_ZNK5spark6Logger4infoEPKcz>
 80a10c6:	a818      	add	r0, sp, #96	; 0x60
 80a10c8:	f005 ffb0 	bl	80a702c <_ZN6StringD1Ev>
 80a10cc:	a814      	add	r0, sp, #80	; 0x50
 80a10ce:	f005 ffad 	bl	80a702c <_ZN6StringD1Ev>
 80a10d2:	a810      	add	r0, sp, #64	; 0x40
 80a10d4:	f005 ffaa 	bl	80a702c <_ZN6StringD1Ev>
 80a10d8:	a80c      	add	r0, sp, #48	; 0x30
 80a10da:	f005 ffa7 	bl	80a702c <_ZN6StringD1Ev>
 80a10de:	a808      	add	r0, sp, #32
 80a10e0:	f005 ffa4 	bl	80a702c <_ZN6StringD1Ev>
 80a10e4:	a804      	add	r0, sp, #16
 80a10e6:	f005 ffa1 	bl	80a702c <_ZN6StringD1Ev>
class StringSumHelper : public String
 80a10ea:	4668      	mov	r0, sp
 80a10ec:	f005 ff9e 	bl	80a702c <_ZN6StringD1Ev>
      delay(100);
 80a10f0:	2064      	movs	r0, #100	; 0x64
 80a10f2:	f007 fbaf 	bl	80a8854 <delay>
 80a10f6:	2000      	movs	r0, #0
 80a10f8:	e702      	b.n	80a0f00 <_Z14hasUpdatedTimev+0x14>
 80a10fa:	bf00      	nop
 80a10fc:	40024000 	.word	0x40024000
 80a1100:	080ad540 	.word	0x080ad540
 80a1104:	080ad42e 	.word	0x080ad42e
 80a1108:	080ad621 	.word	0x080ad621
 80a110c:	080ada87 	.word	0x080ada87
 80a1110:	20000c64 	.word	0x20000c64
 80a1114:	080ad547 	.word	0x080ad547

080a1118 <_Z8setupDIOv>:

void setupDIO()
{
 80a1118:	b570      	push	{r4, r5, r6, lr}
  pinMode(PIR1Pin, INPUT); //I have it pulled down in the circut. Doesnt need the particle pull down.
 80a111a:	4b1b      	ldr	r3, [pc, #108]	; (80a1188 <_Z8setupDIOv+0x70>)
 80a111c:	2100      	movs	r1, #0
 80a111e:	8818      	ldrh	r0, [r3, #0]
  delay(10);
  // pinMode(PIR2Pin, INPUT_PULLDOWN);
  pinMode(sensorPin, OUTPUT);
 80a1120:	4e1a      	ldr	r6, [pc, #104]	; (80a118c <_Z8setupDIOv+0x74>)
  pinMode(PIR1Pin, INPUT); //I have it pulled down in the circut. Doesnt need the particle pull down.
 80a1122:	f008 fc73 	bl	80a9a0c <pinMode>
  delay(10);
 80a1126:	200a      	movs	r0, #10
 80a1128:	f007 fb94 	bl	80a8854 <delay>
  delay(10);
  pinMode(powerPIn, OUTPUT);
 80a112c:	4d18      	ldr	r5, [pc, #96]	; (80a1190 <_Z8setupDIOv+0x78>)
  pinMode(sensorPin, OUTPUT);
 80a112e:	2101      	movs	r1, #1
 80a1130:	8830      	ldrh	r0, [r6, #0]
 80a1132:	f008 fc6b 	bl	80a9a0c <pinMode>
  delay(10);
 80a1136:	200a      	movs	r0, #10
 80a1138:	f007 fb8c 	bl	80a8854 <delay>
  delay(10);
  pinMode(WifiPin, OUTPUT);
 80a113c:	4c15      	ldr	r4, [pc, #84]	; (80a1194 <_Z8setupDIOv+0x7c>)
  pinMode(powerPIn, OUTPUT);
 80a113e:	2101      	movs	r1, #1
 80a1140:	8828      	ldrh	r0, [r5, #0]
 80a1142:	f008 fc63 	bl	80a9a0c <pinMode>
  delay(10);
 80a1146:	200a      	movs	r0, #10
 80a1148:	f007 fb84 	bl	80a8854 <delay>
  pinMode(WifiPin, OUTPUT);
 80a114c:	2101      	movs	r1, #1
 80a114e:	8820      	ldrh	r0, [r4, #0]
 80a1150:	f008 fc5c 	bl	80a9a0c <pinMode>
  delay(50);
 80a1154:	2032      	movs	r0, #50	; 0x32
 80a1156:	f007 fb7d 	bl	80a8854 <delay>

  digitalWrite(sensorPin, LOW);
 80a115a:	2100      	movs	r1, #0
 80a115c:	8830      	ldrh	r0, [r6, #0]
 80a115e:	f008 fc66 	bl	80a9a2e <digitalWrite>
  delay(50);
 80a1162:	2032      	movs	r0, #50	; 0x32
 80a1164:	f007 fb76 	bl	80a8854 <delay>
  digitalWrite(powerPIn, HIGH);
 80a1168:	2101      	movs	r1, #1
 80a116a:	8828      	ldrh	r0, [r5, #0]
 80a116c:	f008 fc5f 	bl	80a9a2e <digitalWrite>
  delay(50);
 80a1170:	2032      	movs	r0, #50	; 0x32
 80a1172:	f007 fb6f 	bl	80a8854 <delay>
  digitalWrite(WifiPin, LOW);
 80a1176:	8820      	ldrh	r0, [r4, #0]
 80a1178:	2100      	movs	r1, #0
 80a117a:	f008 fc58 	bl	80a9a2e <digitalWrite>
  delay(50);
}
 80a117e:	e8bd 4070 	ldmia.w	sp!, {r4, r5, r6, lr}
  delay(50);
 80a1182:	2032      	movs	r0, #50	; 0x32
 80a1184:	f007 bb66 	b.w	80a8854 <delay>
 80a1188:	20000004 	.word	0x20000004
 80a118c:	20000048 	.word	0x20000048
 80a1190:	20000040 	.word	0x20000040
 80a1194:	20000010 	.word	0x20000010

080a1198 <_Z13turnOnSensorsv>:
void turnOnSensors()
{
 80a1198:	b508      	push	{r3, lr}
  digitalWrite(sensorPin, HIGH);
 80a119a:	4b05      	ldr	r3, [pc, #20]	; (80a11b0 <_Z13turnOnSensorsv+0x18>)
 80a119c:	2101      	movs	r1, #1
 80a119e:	8818      	ldrh	r0, [r3, #0]
 80a11a0:	f008 fc45 	bl	80a9a2e <digitalWrite>
  delay(1000);
}
 80a11a4:	e8bd 4008 	ldmia.w	sp!, {r3, lr}
  delay(1000);
 80a11a8:	f44f 707a 	mov.w	r0, #1000	; 0x3e8
 80a11ac:	f007 bb52 	b.w	80a8854 <delay>
 80a11b0:	20000048 	.word	0x20000048

080a11b4 <_Z10turnOnWiFiv>:

void turnOnWiFi()
{  
 80a11b4:	b510      	push	{r4, lr}
  WifiOn = true;
 80a11b6:	2401      	movs	r4, #1
 80a11b8:	4b0d      	ldr	r3, [pc, #52]	; (80a11f0 <_Z10turnOnWiFiv+0x3c>)
  Log.info("Turning Wifi On");
 80a11ba:	490e      	ldr	r1, [pc, #56]	; (80a11f4 <_Z10turnOnWiFiv+0x40>)
 80a11bc:	480e      	ldr	r0, [pc, #56]	; (80a11f8 <_Z10turnOnWiFiv+0x44>)
  WifiOn = true;
 80a11be:	f883 4bea 	strb.w	r4, [r3, #3050]	; 0xbea
  Log.info("Turning Wifi On");
 80a11c2:	f7ff fb57 	bl	80a0874 <_ZNK5spark6Logger4infoEPKcz>
  digitalWrite(WifiPin, HIGH);
 80a11c6:	4b0d      	ldr	r3, [pc, #52]	; (80a11fc <_Z10turnOnWiFiv+0x48>)
 80a11c8:	4621      	mov	r1, r4
 80a11ca:	8818      	ldrh	r0, [r3, #0]
 80a11cc:	f008 fc2f 	bl	80a9a2e <digitalWrite>
  delay(10);
 80a11d0:	200a      	movs	r0, #10
 80a11d2:	f007 fb3f 	bl	80a8854 <delay>
  saveOffline = false;
 80a11d6:	2200      	movs	r2, #0
  delay(dongleDelay * 1000);
 80a11d8:	f44f 707a 	mov.w	r0, #1000	; 0x3e8
  saveOffline = false;
 80a11dc:	4b08      	ldr	r3, [pc, #32]	; (80a1200 <_Z10turnOnWiFiv+0x4c>)
 80a11de:	701a      	strb	r2, [r3, #0]
  delay(dongleDelay * 1000);
 80a11e0:	4b08      	ldr	r3, [pc, #32]	; (80a1204 <_Z10turnOnWiFiv+0x50>)
}
 80a11e2:	e8bd 4010 	ldmia.w	sp!, {r4, lr}
  delay(dongleDelay * 1000);
 80a11e6:	681b      	ldr	r3, [r3, #0]
 80a11e8:	4358      	muls	r0, r3
 80a11ea:	f007 bb33 	b.w	80a8854 <delay>
 80a11ee:	bf00      	nop
 80a11f0:	40024000 	.word	0x40024000
 80a11f4:	080ad554 	.word	0x080ad554
 80a11f8:	20000c64 	.word	0x20000c64
 80a11fc:	20000010 	.word	0x20000010
 80a1200:	20000230 	.word	0x20000230
 80a1204:	20000030 	.word	0x20000030

080a1208 <_Z11forcedResetv>:
  if ((haveReadEEPROM || getEEPROMdata()) && ActiveEEPROMData.setGas)
  {
    sensors.setGasBase(ActiveEEPROMData.eCO2_base, ActiveEEPROMData.TVOC_base);
  }
}
void forcedReset(){
 80a1208:	b570      	push	{r4, r5, r6, lr}
 80a120a:	b088      	sub	sp, #32
  
  int hr = Time.hour();
 80a120c:	f007 faba 	bl	80a8784 <_ZN9TimeClass4hourEv>
 80a1210:	4604      	mov	r4, r0
  int min = Time.minute();
 80a1212:	f007 fac3 	bl	80a879c <_ZN9TimeClass6minuteEv>
 80a1216:	4606      	mov	r6, r0
  int seconds = Time.second();
 80a1218:	f007 facc 	bl	80a87b4 <_ZN9TimeClass6secondEv>
  sleepRemaining = (interval - ((hr * 60 + min) % interval) - 1) * 60 + 60 - seconds; //(interval - (min % interval) - 1) * 60 + 60 - seconds;
 80a121c:	4b2a      	ldr	r3, [pc, #168]	; (80a12c8 <_Z11forcedResetv+0xc0>)
 80a121e:	4d2b      	ldr	r5, [pc, #172]	; (80a12cc <_Z11forcedResetv+0xc4>)
 80a1220:	6819      	ldr	r1, [r3, #0]
 80a1222:	233c      	movs	r3, #60	; 0x3c
 80a1224:	fb03 6204 	mla	r2, r3, r4, r6
 80a1228:	fb92 f4f1 	sdiv	r4, r2, r1
 80a122c:	fb01 2214 	mls	r2, r1, r4, r2
 80a1230:	1a89      	subs	r1, r1, r2
 80a1232:	434b      	muls	r3, r1
	StringSumHelper(const char *p) : String(p) {}
 80a1234:	4926      	ldr	r1, [pc, #152]	; (80a12d0 <_Z11forcedResetv+0xc8>)
 80a1236:	1a1b      	subs	r3, r3, r0
 80a1238:	a804      	add	r0, sp, #16
 80a123a:	f8c5 3bec 	str.w	r3, [r5, #3052]	; 0xbec
 80a123e:	f005 ff3f 	bl	80a70c0 <_ZN6StringC1EPKc>
  Log.info("Sleeping for " + String(sleepRemaining) + " seconds.");
 80a1242:	220a      	movs	r2, #10
 80a1244:	f8d5 1bec 	ldr.w	r1, [r5, #3052]	; 0xbec
 80a1248:	4668      	mov	r0, sp
 80a124a:	f005 ffb9 	bl	80a71c0 <_ZN6StringC1Eih>
 80a124e:	4669      	mov	r1, sp
 80a1250:	a804      	add	r0, sp, #16
 80a1252:	f006 f848 	bl	80a72e6 <_ZplRK15StringSumHelperRK6String>
 80a1256:	491f      	ldr	r1, [pc, #124]	; (80a12d4 <_Z11forcedResetv+0xcc>)
 80a1258:	f006 f851 	bl	80a72fe <_ZplRK15StringSumHelperPKc>
 80a125c:	6801      	ldr	r1, [r0, #0]
 80a125e:	481e      	ldr	r0, [pc, #120]	; (80a12d8 <_Z11forcedResetv+0xd0>)
 80a1260:	f7ff fb08 	bl	80a0874 <_ZNK5spark6Logger4infoEPKcz>
 80a1264:	4668      	mov	r0, sp
 80a1266:	f005 fee1 	bl	80a702c <_ZN6StringD1Ev>
class StringSumHelper : public String
 80a126a:	a804      	add	r0, sp, #16
 80a126c:	f005 fede 	bl	80a702c <_ZN6StringD1Ev>
  delay(50);
 80a1270:	2032      	movs	r0, #50	; 0x32
 80a1272:	f007 faef 	bl	80a8854 <delay>
  digitalWrite(sensorPin, LOW);
 80a1276:	4b19      	ldr	r3, [pc, #100]	; (80a12dc <_Z11forcedResetv+0xd4>)
 80a1278:	2100      	movs	r1, #0
 80a127a:	8818      	ldrh	r0, [r3, #0]
 80a127c:	f008 fbd7 	bl	80a9a2e <digitalWrite>
  delay(50);
 80a1280:	2032      	movs	r0, #50	; 0x32
 80a1282:	f007 fae7 	bl	80a8854 <delay>
  digitalWrite(WifiPin, LOW);
 80a1286:	4b16      	ldr	r3, [pc, #88]	; (80a12e0 <_Z11forcedResetv+0xd8>)
 80a1288:	2100      	movs	r1, #0
 80a128a:	8818      	ldrh	r0, [r3, #0]
 80a128c:	f008 fbcf 	bl	80a9a2e <digitalWrite>
  delay(50);
 80a1290:	2032      	movs	r0, #50	; 0x32
 80a1292:	f007 fadf 	bl	80a8854 <delay>
  digitalWrite(powerPIn, LOW);
 80a1296:	4b13      	ldr	r3, [pc, #76]	; (80a12e4 <_Z11forcedResetv+0xdc>)
 80a1298:	2100      	movs	r1, #0
 80a129a:	8818      	ldrh	r0, [r3, #0]
 80a129c:	f008 fbc7 	bl	80a9a2e <digitalWrite>
  delay(50);
 80a12a0:	2032      	movs	r0, #50	; 0x32
 80a12a2:	f007 fad7 	bl	80a8854 <delay>
  WifiOn = false;
 80a12a6:	2300      	movs	r3, #0
  delay(10);
 80a12a8:	200a      	movs	r0, #10
  WifiOn = false;
 80a12aa:	f885 3bea 	strb.w	r3, [r5, #3050]	; 0xbea
  delay(10);
 80a12ae:	f007 fad1 	bl	80a8854 <delay>
  
  System.sleep(SLEEP_MODE_DEEP, sleepRemaining);
 80a12b2:	4b0d      	ldr	r3, [pc, #52]	; (80a12e8 <_Z11forcedResetv+0xe0>)
 80a12b4:	2101      	movs	r1, #1
 80a12b6:	681b      	ldr	r3, [r3, #0]
 80a12b8:	f8d5 2bec 	ldr.w	r2, [r5, #3052]	; 0xbec
 80a12bc:	a804      	add	r0, sp, #16
 80a12be:	f005 fd5d 	bl	80a6d7c <_ZN11SystemClass5sleepE19Spark_Sleep_TypeDeflN8particle5FlagsI19SleepOptionFlagTypemEE>
}
 80a12c2:	b008      	add	sp, #32
 80a12c4:	bd70      	pop	{r4, r5, r6, pc}
 80a12c6:	bf00      	nop
 80a12c8:	20000038 	.word	0x20000038
 80a12cc:	40024000 	.word	0x40024000
 80a12d0:	080ad564 	.word	0x080ad564
 80a12d4:	080ad572 	.word	0x080ad572
 80a12d8:	20000c64 	.word	0x20000c64
 80a12dc:	20000048 	.word	0x20000048
 80a12e0:	20000010 	.word	0x20000010
 80a12e4:	20000040 	.word	0x20000040
 80a12e8:	200001f0 	.word	0x200001f0

080a12ec <_Z22frozenShutdownCallbackv>:
}

//////////////////////////////////////////////////////////////
//            WIFI AND CONNECTION FUNCTIONS
//////////////////////////////////////////////////////////////
void frozenShutdownCallback(){
 80a12ec:	b508      	push	{r3, lr}
  Log.info("Device is frozen. Forced shutdown...");
 80a12ee:	4904      	ldr	r1, [pc, #16]	; (80a1300 <_Z22frozenShutdownCallbackv+0x14>)
 80a12f0:	4804      	ldr	r0, [pc, #16]	; (80a1304 <_Z22frozenShutdownCallbackv+0x18>)
 80a12f2:	f7ff fabf 	bl	80a0874 <_ZNK5spark6Logger4infoEPKcz>
  forcedReset();
}
 80a12f6:	e8bd 4008 	ldmia.w	sp!, {r3, lr}
  forcedReset();
 80a12fa:	f7ff bf85 	b.w	80a1208 <_Z11forcedResetv>
 80a12fe:	bf00      	nop
 80a1300:	080ad57c 	.word	0x080ad57c
 80a1304:	20000c64 	.word	0x20000c64

080a1308 <_Z9goToSleepv>:
{
 80a1308:	b5f0      	push	{r4, r5, r6, r7, lr}
 80a130a:	b09d      	sub	sp, #116	; 0x74
	StringSumHelper(const char *p) : String(p) {}
 80a130c:	49a8      	ldr	r1, [pc, #672]	; (80a15b0 <_Z9goToSleepv+0x2a8>)
 80a130e:	a804      	add	r0, sp, #16
 80a1310:	f005 fed6 	bl	80a70c0 <_ZN6StringC1EPKc>
  Log.info("Time: " + String(Time.day()) + "-" + String(Time.month()) + "-" + String(Time.year()) + " " + String(Time.hour()) + ":" + String(Time.minute()) + ":" + String(Time.second()));
 80a1314:	f007 fa5a 	bl	80a87cc <_ZN9TimeClass3dayEv>
 80a1318:	220a      	movs	r2, #10
 80a131a:	4601      	mov	r1, r0
 80a131c:	4668      	mov	r0, sp
 80a131e:	f005 ff4f 	bl	80a71c0 <_ZN6StringC1Eih>
 80a1322:	4669      	mov	r1, sp
 80a1324:	a804      	add	r0, sp, #16
 80a1326:	f005 ffde 	bl	80a72e6 <_ZplRK15StringSumHelperRK6String>
 80a132a:	49a2      	ldr	r1, [pc, #648]	; (80a15b4 <_Z9goToSleepv+0x2ac>)
 80a132c:	f005 ffe7 	bl	80a72fe <_ZplRK15StringSumHelperPKc>
 80a1330:	4604      	mov	r4, r0
 80a1332:	f007 fa57 	bl	80a87e4 <_ZN9TimeClass5monthEv>
 80a1336:	220a      	movs	r2, #10
 80a1338:	4601      	mov	r1, r0
 80a133a:	a808      	add	r0, sp, #32
 80a133c:	f005 ff40 	bl	80a71c0 <_ZN6StringC1Eih>
 80a1340:	4620      	mov	r0, r4
 80a1342:	a908      	add	r1, sp, #32
 80a1344:	f005 ffcf 	bl	80a72e6 <_ZplRK15StringSumHelperRK6String>
 80a1348:	499a      	ldr	r1, [pc, #616]	; (80a15b4 <_Z9goToSleepv+0x2ac>)
 80a134a:	f005 ffd8 	bl	80a72fe <_ZplRK15StringSumHelperPKc>
 80a134e:	4604      	mov	r4, r0
 80a1350:	f007 fa50 	bl	80a87f4 <_ZN9TimeClass4yearEv>
 80a1354:	220a      	movs	r2, #10
 80a1356:	4601      	mov	r1, r0
 80a1358:	a80c      	add	r0, sp, #48	; 0x30
 80a135a:	f005 ff31 	bl	80a71c0 <_ZN6StringC1Eih>
 80a135e:	4620      	mov	r0, r4
 80a1360:	a90c      	add	r1, sp, #48	; 0x30
 80a1362:	f005 ffc0 	bl	80a72e6 <_ZplRK15StringSumHelperRK6String>
 80a1366:	4994      	ldr	r1, [pc, #592]	; (80a15b8 <_Z9goToSleepv+0x2b0>)
 80a1368:	f005 ffc9 	bl	80a72fe <_ZplRK15StringSumHelperPKc>
 80a136c:	4604      	mov	r4, r0
 80a136e:	f007 fa09 	bl	80a8784 <_ZN9TimeClass4hourEv>
 80a1372:	220a      	movs	r2, #10
 80a1374:	4601      	mov	r1, r0
 80a1376:	a810      	add	r0, sp, #64	; 0x40
 80a1378:	f005 ff22 	bl	80a71c0 <_ZN6StringC1Eih>
 80a137c:	4620      	mov	r0, r4
 80a137e:	a910      	add	r1, sp, #64	; 0x40
 80a1380:	f005 ffb1 	bl	80a72e6 <_ZplRK15StringSumHelperRK6String>
 80a1384:	498d      	ldr	r1, [pc, #564]	; (80a15bc <_Z9goToSleepv+0x2b4>)
 80a1386:	f005 ffba 	bl	80a72fe <_ZplRK15StringSumHelperPKc>
 80a138a:	4604      	mov	r4, r0
 80a138c:	f007 fa06 	bl	80a879c <_ZN9TimeClass6minuteEv>
 80a1390:	220a      	movs	r2, #10
 80a1392:	4601      	mov	r1, r0
 80a1394:	a814      	add	r0, sp, #80	; 0x50
 80a1396:	f005 ff13 	bl	80a71c0 <_ZN6StringC1Eih>
 80a139a:	4620      	mov	r0, r4
 80a139c:	a914      	add	r1, sp, #80	; 0x50
 80a139e:	f005 ffa2 	bl	80a72e6 <_ZplRK15StringSumHelperRK6String>
 80a13a2:	4986      	ldr	r1, [pc, #536]	; (80a15bc <_Z9goToSleepv+0x2b4>)
 80a13a4:	f005 ffab 	bl	80a72fe <_ZplRK15StringSumHelperPKc>
 80a13a8:	4604      	mov	r4, r0
 80a13aa:	f007 fa03 	bl	80a87b4 <_ZN9TimeClass6secondEv>
 80a13ae:	220a      	movs	r2, #10
 80a13b0:	4601      	mov	r1, r0
 80a13b2:	a818      	add	r0, sp, #96	; 0x60
 80a13b4:	f005 ff04 	bl	80a71c0 <_ZN6StringC1Eih>
 80a13b8:	4620      	mov	r0, r4
 80a13ba:	a918      	add	r1, sp, #96	; 0x60
 80a13bc:	f005 ff93 	bl	80a72e6 <_ZplRK15StringSumHelperRK6String>
 80a13c0:	6801      	ldr	r1, [r0, #0]
 80a13c2:	487f      	ldr	r0, [pc, #508]	; (80a15c0 <_Z9goToSleepv+0x2b8>)
 80a13c4:	f7ff fa56 	bl	80a0874 <_ZNK5spark6Logger4infoEPKcz>
 80a13c8:	a818      	add	r0, sp, #96	; 0x60
 80a13ca:	f005 fe2f 	bl	80a702c <_ZN6StringD1Ev>
 80a13ce:	a814      	add	r0, sp, #80	; 0x50
 80a13d0:	f005 fe2c 	bl	80a702c <_ZN6StringD1Ev>
 80a13d4:	a810      	add	r0, sp, #64	; 0x40
 80a13d6:	f005 fe29 	bl	80a702c <_ZN6StringD1Ev>
 80a13da:	a80c      	add	r0, sp, #48	; 0x30
 80a13dc:	f005 fe26 	bl	80a702c <_ZN6StringD1Ev>
 80a13e0:	a808      	add	r0, sp, #32
 80a13e2:	f005 fe23 	bl	80a702c <_ZN6StringD1Ev>
 80a13e6:	4668      	mov	r0, sp
 80a13e8:	f005 fe20 	bl	80a702c <_ZN6StringD1Ev>
class StringSumHelper : public String
 80a13ec:	a804      	add	r0, sp, #16
 80a13ee:	f005 fe1d 	bl	80a702c <_ZN6StringD1Ev>
	StringSumHelper(const char *p) : String(p) {}
 80a13f2:	4974      	ldr	r1, [pc, #464]	; (80a15c4 <_Z9goToSleepv+0x2bc>)
 80a13f4:	a818      	add	r0, sp, #96	; 0x60
 80a13f6:	f005 fe63 	bl	80a70c0 <_ZN6StringC1EPKc>

#ifdef __cplusplus
extern "C" {
#endif

inline system_tick_t millis(void) { return HAL_Timer_Get_Milli_Seconds(); }
 80a13fa:	f005 f88b 	bl	80a6514 <HAL_Timer_Get_Milli_Seconds>
  Log.info("Been awake for: " + String(millis() / 1000) + "seconds");
 80a13fe:	f44f 717a 	mov.w	r1, #1000	; 0x3e8
 80a1402:	220a      	movs	r2, #10
 80a1404:	fbb0 f1f1 	udiv	r1, r0, r1
 80a1408:	a814      	add	r0, sp, #80	; 0x50
 80a140a:	f005 feff 	bl	80a720c <_ZN6StringC1Emh>
 80a140e:	a914      	add	r1, sp, #80	; 0x50
 80a1410:	a818      	add	r0, sp, #96	; 0x60
 80a1412:	f005 ff68 	bl	80a72e6 <_ZplRK15StringSumHelperRK6String>
 80a1416:	496c      	ldr	r1, [pc, #432]	; (80a15c8 <_Z9goToSleepv+0x2c0>)
 80a1418:	f005 ff71 	bl	80a72fe <_ZplRK15StringSumHelperPKc>
 80a141c:	6801      	ldr	r1, [r0, #0]
 80a141e:	4868      	ldr	r0, [pc, #416]	; (80a15c0 <_Z9goToSleepv+0x2b8>)
 80a1420:	f7ff fa28 	bl	80a0874 <_ZNK5spark6Logger4infoEPKcz>
 80a1424:	a814      	add	r0, sp, #80	; 0x50
 80a1426:	f005 fe01 	bl	80a702c <_ZN6StringD1Ev>
class StringSumHelper : public String
 80a142a:	a818      	add	r0, sp, #96	; 0x60
 80a142c:	f005 fdfe 	bl	80a702c <_ZN6StringD1Ev>
  delay(100);
 80a1430:	2064      	movs	r0, #100	; 0x64
 80a1432:	f007 fa0f 	bl	80a8854 <delay>
  int hr = Time.hour();
 80a1436:	f007 f9a5 	bl	80a8784 <_ZN9TimeClass4hourEv>
 80a143a:	4605      	mov	r5, r0
  int min = Time.minute();
 80a143c:	f007 f9ae 	bl	80a879c <_ZN9TimeClass6minuteEv>
 80a1440:	4606      	mov	r6, r0
  int seconds = Time.second();
 80a1442:	f007 f9b7 	bl	80a87b4 <_ZN9TimeClass6secondEv>
  sleepRemaining = (interval - ((hr * 60 + min) % interval) - 1) * 60 + 60 - seconds; //(interval - (min % interval) - 1) * 60 + 60 - seconds;
 80a1446:	4b61      	ldr	r3, [pc, #388]	; (80a15cc <_Z9goToSleepv+0x2c4>)
 80a1448:	4c61      	ldr	r4, [pc, #388]	; (80a15d0 <_Z9goToSleepv+0x2c8>)
 80a144a:	6819      	ldr	r1, [r3, #0]
 80a144c:	233c      	movs	r3, #60	; 0x3c
 80a144e:	fb03 6205 	mla	r2, r3, r5, r6
 80a1452:	fb92 f5f1 	sdiv	r5, r2, r1
 80a1456:	fb01 2215 	mls	r2, r1, r5, r2
 80a145a:	1a89      	subs	r1, r1, r2
 80a145c:	434b      	muls	r3, r1
	StringSumHelper(const char *p) : String(p) {}
 80a145e:	495d      	ldr	r1, [pc, #372]	; (80a15d4 <_Z9goToSleepv+0x2cc>)
 80a1460:	1a1b      	subs	r3, r3, r0
 80a1462:	a818      	add	r0, sp, #96	; 0x60
 80a1464:	f8c4 3bec 	str.w	r3, [r4, #3052]	; 0xbec
 80a1468:	f005 fe2a 	bl	80a70c0 <_ZN6StringC1EPKc>
  Log.info("Sleeping for " + String(sleepRemaining) + " seconds.");
 80a146c:	220a      	movs	r2, #10
 80a146e:	f8d4 1bec 	ldr.w	r1, [r4, #3052]	; 0xbec
 80a1472:	a814      	add	r0, sp, #80	; 0x50
 80a1474:	f005 fea4 	bl	80a71c0 <_ZN6StringC1Eih>
 80a1478:	a914      	add	r1, sp, #80	; 0x50
 80a147a:	a818      	add	r0, sp, #96	; 0x60
 80a147c:	f005 ff33 	bl	80a72e6 <_ZplRK15StringSumHelperRK6String>
 80a1480:	4955      	ldr	r1, [pc, #340]	; (80a15d8 <_Z9goToSleepv+0x2d0>)
 80a1482:	f005 ff3c 	bl	80a72fe <_ZplRK15StringSumHelperPKc>
 80a1486:	6801      	ldr	r1, [r0, #0]
 80a1488:	484d      	ldr	r0, [pc, #308]	; (80a15c0 <_Z9goToSleepv+0x2b8>)
 80a148a:	f7ff f9f3 	bl	80a0874 <_ZNK5spark6Logger4infoEPKcz>
 80a148e:	a814      	add	r0, sp, #80	; 0x50
 80a1490:	f005 fdcc 	bl	80a702c <_ZN6StringD1Ev>
class StringSumHelper : public String
 80a1494:	a818      	add	r0, sp, #96	; 0x60
 80a1496:	f005 fdc9 	bl	80a702c <_ZN6StringD1Ev>
  delay(50);
 80a149a:	2032      	movs	r0, #50	; 0x32
 80a149c:	f007 f9da 	bl	80a8854 <delay>
  digitalWrite(sensorPin, LOW);
 80a14a0:	4b4e      	ldr	r3, [pc, #312]	; (80a15dc <_Z9goToSleepv+0x2d4>)
 80a14a2:	2100      	movs	r1, #0
 80a14a4:	8818      	ldrh	r0, [r3, #0]
 80a14a6:	f008 fac2 	bl	80a9a2e <digitalWrite>
  delay(50);
 80a14aa:	2032      	movs	r0, #50	; 0x32
 80a14ac:	f007 f9d2 	bl	80a8854 <delay>
  digitalWrite(WifiPin, LOW);
 80a14b0:	4b4b      	ldr	r3, [pc, #300]	; (80a15e0 <_Z9goToSleepv+0x2d8>)
 80a14b2:	2100      	movs	r1, #0
 80a14b4:	8818      	ldrh	r0, [r3, #0]
 80a14b6:	f008 faba 	bl	80a9a2e <digitalWrite>
  delay(50);
 80a14ba:	2032      	movs	r0, #50	; 0x32
 80a14bc:	f007 f9ca 	bl	80a8854 <delay>
  digitalWrite(powerPIn, LOW);
 80a14c0:	4b48      	ldr	r3, [pc, #288]	; (80a15e4 <_Z9goToSleepv+0x2dc>)
 80a14c2:	2100      	movs	r1, #0
 80a14c4:	8818      	ldrh	r0, [r3, #0]
 80a14c6:	f008 fab2 	bl	80a9a2e <digitalWrite>
  delay(50);
 80a14ca:	2032      	movs	r0, #50	; 0x32
 80a14cc:	f007 f9c2 	bl	80a8854 <delay>
  lastAwake = Time.hour() * 1.0 + Time.minute() * 1.0 / 60 + Time.second() * 1.0 / 3600;
 80a14d0:	f007 f958 	bl	80a8784 <_ZN9TimeClass4hourEv>
 80a14d4:	4605      	mov	r5, r0
 80a14d6:	f007 f961 	bl	80a879c <_ZN9TimeClass6minuteEv>
 80a14da:	f00a f87d 	bl	80ab5d8 <__aeabi_i2d>
 80a14de:	2200      	movs	r2, #0
 80a14e0:	4b41      	ldr	r3, [pc, #260]	; (80a15e8 <_Z9goToSleepv+0x2e0>)
 80a14e2:	f00a fa0d 	bl	80ab900 <__aeabi_ddiv>
 80a14e6:	4606      	mov	r6, r0
 80a14e8:	4628      	mov	r0, r5
 80a14ea:	460f      	mov	r7, r1
 80a14ec:	f00a f874 	bl	80ab5d8 <__aeabi_i2d>
 80a14f0:	4602      	mov	r2, r0
 80a14f2:	460b      	mov	r3, r1
 80a14f4:	4630      	mov	r0, r6
 80a14f6:	4639      	mov	r1, r7
 80a14f8:	f009 ff22 	bl	80ab340 <__adddf3>
 80a14fc:	460f      	mov	r7, r1
 80a14fe:	4606      	mov	r6, r0
 80a1500:	f007 f958 	bl	80a87b4 <_ZN9TimeClass6secondEv>
 80a1504:	f00a f868 	bl	80ab5d8 <__aeabi_i2d>
 80a1508:	a327      	add	r3, pc, #156	; (adr r3, 80a15a8 <_Z9goToSleepv+0x2a0>)
 80a150a:	e9d3 2300 	ldrd	r2, r3, [r3]
 80a150e:	f00a f9f7 	bl	80ab900 <__aeabi_ddiv>
 80a1512:	463b      	mov	r3, r7
 80a1514:	4632      	mov	r2, r6
 80a1516:	f009 ff13 	bl	80ab340 <__adddf3>
 80a151a:	f00a fbbf 	bl	80abc9c <__aeabi_d2f>
	StringSumHelper(const char *p) : String(p) {}
 80a151e:	4933      	ldr	r1, [pc, #204]	; (80a15ec <_Z9goToSleepv+0x2e4>)
 80a1520:	f8c4 0bf0 	str.w	r0, [r4, #3056]	; 0xbf0
 80a1524:	a818      	add	r0, sp, #96	; 0x60
 80a1526:	f005 fdcb 	bl	80a70c0 <_ZN6StringC1EPKc>
  Log.info("Last awake: " + String(lastAwake) + " hours.");
 80a152a:	2206      	movs	r2, #6
 80a152c:	f8d4 1bf0 	ldr.w	r1, [r4, #3056]	; 0xbf0
 80a1530:	a814      	add	r0, sp, #80	; 0x50
 80a1532:	f005 fe7f 	bl	80a7234 <_ZN6StringC1Efi>
 80a1536:	a914      	add	r1, sp, #80	; 0x50
 80a1538:	a818      	add	r0, sp, #96	; 0x60
 80a153a:	f005 fed4 	bl	80a72e6 <_ZplRK15StringSumHelperRK6String>
 80a153e:	492c      	ldr	r1, [pc, #176]	; (80a15f0 <_Z9goToSleepv+0x2e8>)
 80a1540:	f005 fedd 	bl	80a72fe <_ZplRK15StringSumHelperPKc>
 80a1544:	6801      	ldr	r1, [r0, #0]
 80a1546:	481e      	ldr	r0, [pc, #120]	; (80a15c0 <_Z9goToSleepv+0x2b8>)
 80a1548:	f7ff f994 	bl	80a0874 <_ZNK5spark6Logger4infoEPKcz>
 80a154c:	a814      	add	r0, sp, #80	; 0x50
 80a154e:	f005 fd6d 	bl	80a702c <_ZN6StringD1Ev>
class StringSumHelper : public String
 80a1552:	a818      	add	r0, sp, #96	; 0x60
 80a1554:	f005 fd6a 	bl	80a702c <_ZN6StringD1Ev>
  if (isSensorLoop)
 80a1558:	4b26      	ldr	r3, [pc, #152]	; (80a15f4 <_Z9goToSleepv+0x2ec>)
 80a155a:	781b      	ldrb	r3, [r3, #0]
 80a155c:	b303      	cbz	r3, 80a15a0 <_Z9goToSleepv+0x298>
    Log.info("Woke for sensor readings");
 80a155e:	4926      	ldr	r1, [pc, #152]	; (80a15f8 <_Z9goToSleepv+0x2f0>)
  WifiOn = false;
 80a1560:	2500      	movs	r5, #0
    Log.info("Woke for PIR movement");
 80a1562:	4817      	ldr	r0, [pc, #92]	; (80a15c0 <_Z9goToSleepv+0x2b8>)
 80a1564:	f7ff f986 	bl	80a0874 <_ZNK5spark6Logger4infoEPKcz>
  delay(10);
 80a1568:	200a      	movs	r0, #10
  WifiOn = false;
 80a156a:	f884 5bea 	strb.w	r5, [r4, #3050]	; 0xbea
  delay(10);
 80a156e:	f007 f971 	bl	80a8854 <delay>
  if (firstload)
 80a1572:	f894 3beb 	ldrb.w	r3, [r4, #3051]	; 0xbeb
 80a1576:	b14b      	cbz	r3, 80a158c <_Z9goToSleepv+0x284>
    System.sleep(SLEEP_MODE_DEEP, firstLoadDelay, SLEEP_DISABLE_WKP_PIN);
 80a1578:	4b20      	ldr	r3, [pc, #128]	; (80a15fc <_Z9goToSleepv+0x2f4>)
 80a157a:	4a21      	ldr	r2, [pc, #132]	; (80a1600 <_Z9goToSleepv+0x2f8>)
 80a157c:	2101      	movs	r1, #1
 80a157e:	681b      	ldr	r3, [r3, #0]
 80a1580:	6812      	ldr	r2, [r2, #0]
 80a1582:	a818      	add	r0, sp, #96	; 0x60
    firstload = false;
 80a1584:	f884 5beb 	strb.w	r5, [r4, #3051]	; 0xbeb
    System.sleep(SLEEP_MODE_DEEP, firstLoadDelay, SLEEP_DISABLE_WKP_PIN);
 80a1588:	f005 fbf8 	bl	80a6d7c <_ZN11SystemClass5sleepE19Spark_Sleep_TypeDeflN8particle5FlagsI19SleepOptionFlagTypemEE>
  System.sleep(SLEEP_MODE_DEEP, sleepRemaining);
 80a158c:	4b1d      	ldr	r3, [pc, #116]	; (80a1604 <_Z9goToSleepv+0x2fc>)
 80a158e:	2101      	movs	r1, #1
 80a1590:	681b      	ldr	r3, [r3, #0]
 80a1592:	f8d4 2bec 	ldr.w	r2, [r4, #3052]	; 0xbec
 80a1596:	a818      	add	r0, sp, #96	; 0x60
 80a1598:	f005 fbf0 	bl	80a6d7c <_ZN11SystemClass5sleepE19Spark_Sleep_TypeDeflN8particle5FlagsI19SleepOptionFlagTypemEE>
}
 80a159c:	b01d      	add	sp, #116	; 0x74
 80a159e:	bdf0      	pop	{r4, r5, r6, r7, pc}
    Log.info("Woke for PIR movement");
 80a15a0:	4919      	ldr	r1, [pc, #100]	; (80a1608 <_Z9goToSleepv+0x300>)
 80a15a2:	e7dd      	b.n	80a1560 <_Z9goToSleepv+0x258>
 80a15a4:	f3af 8000 	nop.w
 80a15a8:	00000000 	.word	0x00000000
 80a15ac:	40ac2000 	.word	0x40ac2000
 80a15b0:	080ad540 	.word	0x080ad540
 80a15b4:	080ad42e 	.word	0x080ad42e
 80a15b8:	080ad621 	.word	0x080ad621
 80a15bc:	080ada87 	.word	0x080ada87
 80a15c0:	20000c64 	.word	0x20000c64
 80a15c4:	080ad5a1 	.word	0x080ad5a1
 80a15c8:	080ad5b2 	.word	0x080ad5b2
 80a15cc:	20000038 	.word	0x20000038
 80a15d0:	40024000 	.word	0x40024000
 80a15d4:	080ad564 	.word	0x080ad564
 80a15d8:	080ad572 	.word	0x080ad572
 80a15dc:	20000048 	.word	0x20000048
 80a15e0:	20000010 	.word	0x20000010
 80a15e4:	20000040 	.word	0x20000040
 80a15e8:	404e0000 	.word	0x404e0000
 80a15ec:	080ad5ba 	.word	0x080ad5ba
 80a15f0:	080ad5c7 	.word	0x080ad5c7
 80a15f4:	20000204 	.word	0x20000204
 80a15f8:	080ad5cf 	.word	0x080ad5cf
 80a15fc:	200001f4 	.word	0x200001f4
 80a1600:	20000034 	.word	0x20000034
 80a1604:	200001f0 	.word	0x200001f0
 80a1608:	080ad5e8 	.word	0x080ad5e8

080a160c <_Z12tryPowerDownv>:
{
 80a160c:	b508      	push	{r3, lr}
  if (hasUpdatedTime() && (((isSensorLoop || saveOffline) && haveSavedToCloud) || !isSensorLoop))
 80a160e:	f7ff fc6d 	bl	80a0eec <_Z14hasUpdatedTimev>
 80a1612:	b168      	cbz	r0, 80a1630 <_Z12tryPowerDownv+0x24>
 80a1614:	4b07      	ldr	r3, [pc, #28]	; (80a1634 <_Z12tryPowerDownv+0x28>)
 80a1616:	781b      	ldrb	r3, [r3, #0]
 80a1618:	b913      	cbnz	r3, 80a1620 <_Z12tryPowerDownv+0x14>
 80a161a:	4a07      	ldr	r2, [pc, #28]	; (80a1638 <_Z12tryPowerDownv+0x2c>)
 80a161c:	7812      	ldrb	r2, [r2, #0]
 80a161e:	b11a      	cbz	r2, 80a1628 <_Z12tryPowerDownv+0x1c>
 80a1620:	4a06      	ldr	r2, [pc, #24]	; (80a163c <_Z12tryPowerDownv+0x30>)
 80a1622:	7812      	ldrb	r2, [r2, #0]
 80a1624:	b902      	cbnz	r2, 80a1628 <_Z12tryPowerDownv+0x1c>
 80a1626:	b91b      	cbnz	r3, 80a1630 <_Z12tryPowerDownv+0x24>
}
 80a1628:	e8bd 4008 	ldmia.w	sp!, {r3, lr}
    goToSleep();
 80a162c:	f7ff be6c 	b.w	80a1308 <_Z9goToSleepv>
}
 80a1630:	bd08      	pop	{r3, pc}
 80a1632:	bf00      	nop
 80a1634:	20000204 	.word	0x20000204
 80a1638:	20000230 	.word	0x20000230
 80a163c:	20000202 	.word	0x20000202

080a1640 <_Z13getEEPROMdatav>:
{
 80a1640:	b570      	push	{r4, r5, r6, lr}
  if (!haveReadEEPROM)
 80a1642:	4d41      	ldr	r5, [pc, #260]	; (80a1748 <_Z13getEEPROMdatav+0x108>)
{
 80a1644:	b090      	sub	sp, #64	; 0x40
  if (!haveReadEEPROM)
 80a1646:	782c      	ldrb	r4, [r5, #0]
 80a1648:	2c00      	cmp	r4, #0
 80a164a:	d14e      	bne.n	80a16ea <_Z13getEEPROMdatav+0xaa>
  EEPROMinfo() : flag(0), TVOC_base(0), eCO2_base(0), setGas(false)
 80a164c:	f8ad 403a 	strh.w	r4, [sp, #58]	; 0x3a
 80a1650:	f8ad 403c 	strh.w	r4, [sp, #60]	; 0x3c
 80a1654:	f88d 403e 	strb.w	r4, [sp, #62]	; 0x3e
 80a1658:	f8ad 4020 	strh.w	r4, [sp, #32]
    EEPROM.get(deviceNumberEEPROMAddress, EEPROMdata);
 80a165c:	f008 fa58 	bl	80a9b10 <_Z21__fetch_global_EEPROMv>
    uint16_t length()                    { return HAL_EEPROM_Length(); }

    //Functionality to 'get' and 'put' objects to and from EEPROM.
    template <typename T> T &get( int idx, T &t )
    {
        HAL_EEPROM_Get(idx, &t, sizeof(T));
 80a1660:	2220      	movs	r2, #32
 80a1662:	4b3a      	ldr	r3, [pc, #232]	; (80a174c <_Z13getEEPROMdatav+0x10c>)
 80a1664:	eb0d 0102 	add.w	r1, sp, r2
 80a1668:	6818      	ldr	r0, [r3, #0]
 80a166a:	f004 ff63 	bl	80a6534 <HAL_EEPROM_Get>
    if (EEPROMdata.flag != 0)
 80a166e:	f89d 3020 	ldrb.w	r3, [sp, #32]
 80a1672:	b133      	cbz	r3, 80a1682 <_Z13getEEPROMdatav+0x42>
      Log.info("EEPROM was empty");
 80a1674:	4936      	ldr	r1, [pc, #216]	; (80a1750 <_Z13getEEPROMdatav+0x110>)
 80a1676:	4837      	ldr	r0, [pc, #220]	; (80a1754 <_Z13getEEPROMdatav+0x114>)
 80a1678:	f7ff f8fc 	bl	80a0874 <_ZNK5spark6Logger4infoEPKcz>
}
 80a167c:	4620      	mov	r0, r4
 80a167e:	b010      	add	sp, #64	; 0x40
 80a1680:	bd70      	pop	{r4, r5, r6, pc}
    ActiveEEPROMData = EEPROMdata;
 80a1682:	4b35      	ldr	r3, [pc, #212]	; (80a1758 <_Z13getEEPROMdatav+0x118>)
 80a1684:	aa08      	add	r2, sp, #32
 80a1686:	ae0e      	add	r6, sp, #56	; 0x38
 80a1688:	4614      	mov	r4, r2
 80a168a:	cc03      	ldmia	r4!, {r0, r1}
 80a168c:	42b4      	cmp	r4, r6
 80a168e:	6018      	str	r0, [r3, #0]
 80a1690:	6059      	str	r1, [r3, #4]
 80a1692:	4622      	mov	r2, r4
 80a1694:	f103 0308 	add.w	r3, r3, #8
 80a1698:	d1f6      	bne.n	80a1688 <_Z13getEEPROMdatav+0x48>
 80a169a:	6820      	ldr	r0, [r4, #0]
 80a169c:	6018      	str	r0, [r3, #0]
 80a169e:	88a1      	ldrh	r1, [r4, #4]
 80a16a0:	79a2      	ldrb	r2, [r4, #6]
    haveReadEEPROM = true;
 80a16a2:	2401      	movs	r4, #1
    ActiveEEPROMData = EEPROMdata;
 80a16a4:	8099      	strh	r1, [r3, #4]
 80a16a6:	719a      	strb	r2, [r3, #6]
	StringSumHelper(const char *p) : String(p) {}
 80a16a8:	492c      	ldr	r1, [pc, #176]	; (80a175c <_Z13getEEPROMdatav+0x11c>)
 80a16aa:	a804      	add	r0, sp, #16
    haveReadEEPROM = true;
 80a16ac:	702c      	strb	r4, [r5, #0]
 80a16ae:	f005 fd07 	bl	80a70c0 <_ZN6StringC1EPKc>
    Log.info("Found EEPROM data, " + String(EEPROMdata.flag) + ": " + EEPROMdata.name);
 80a16b2:	220a      	movs	r2, #10
 80a16b4:	f89d 1020 	ldrb.w	r1, [sp, #32]
 80a16b8:	4668      	mov	r0, sp
 80a16ba:	f005 fd6f 	bl	80a719c <_ZN6StringC1Ehh>
 80a16be:	4669      	mov	r1, sp
 80a16c0:	a804      	add	r0, sp, #16
 80a16c2:	f005 fe10 	bl	80a72e6 <_ZplRK15StringSumHelperRK6String>
 80a16c6:	4926      	ldr	r1, [pc, #152]	; (80a1760 <_Z13getEEPROMdatav+0x120>)
 80a16c8:	f005 fe19 	bl	80a72fe <_ZplRK15StringSumHelperPKc>
 80a16cc:	f10d 0121 	add.w	r1, sp, #33	; 0x21
 80a16d0:	f005 fe15 	bl	80a72fe <_ZplRK15StringSumHelperPKc>
 80a16d4:	6801      	ldr	r1, [r0, #0]
 80a16d6:	481f      	ldr	r0, [pc, #124]	; (80a1754 <_Z13getEEPROMdatav+0x114>)
 80a16d8:	f7ff f8cc 	bl	80a0874 <_ZNK5spark6Logger4infoEPKcz>
 80a16dc:	4668      	mov	r0, sp
 80a16de:	f005 fca5 	bl	80a702c <_ZN6StringD1Ev>
class StringSumHelper : public String
 80a16e2:	a804      	add	r0, sp, #16
 80a16e4:	f005 fca2 	bl	80a702c <_ZN6StringD1Ev>
  return true;
 80a16e8:	e7c8      	b.n	80a167c <_Z13getEEPROMdatav+0x3c>
  Log.info("Already loaded EEPROM data. " + String(ActiveEEPROMData.flag) + "\nName: \t" + ActiveEEPROMData.name + "\nSet Gas: \t" + ActiveEEPROMData.setGas + "\nVoC: \t" + ActiveEEPROMData.TVOC_base + "\neCo2: \t" + ActiveEEPROMData.eCO2_base);
 80a16ea:	4d1b      	ldr	r5, [pc, #108]	; (80a1758 <_Z13getEEPROMdatav+0x118>)
	StringSumHelper(const char *p) : String(p) {}
 80a16ec:	491d      	ldr	r1, [pc, #116]	; (80a1764 <_Z13getEEPROMdatav+0x124>)
 80a16ee:	a808      	add	r0, sp, #32
 80a16f0:	f005 fce6 	bl	80a70c0 <_ZN6StringC1EPKc>
 80a16f4:	220a      	movs	r2, #10
 80a16f6:	7829      	ldrb	r1, [r5, #0]
 80a16f8:	a804      	add	r0, sp, #16
 80a16fa:	f005 fd4f 	bl	80a719c <_ZN6StringC1Ehh>
 80a16fe:	a904      	add	r1, sp, #16
 80a1700:	a808      	add	r0, sp, #32
 80a1702:	f005 fdf0 	bl	80a72e6 <_ZplRK15StringSumHelperRK6String>
 80a1706:	4918      	ldr	r1, [pc, #96]	; (80a1768 <_Z13getEEPROMdatav+0x128>)
 80a1708:	f005 fdf9 	bl	80a72fe <_ZplRK15StringSumHelperPKc>
 80a170c:	1c69      	adds	r1, r5, #1
 80a170e:	f005 fdf6 	bl	80a72fe <_ZplRK15StringSumHelperPKc>
 80a1712:	4916      	ldr	r1, [pc, #88]	; (80a176c <_Z13getEEPROMdatav+0x12c>)
 80a1714:	f005 fdf3 	bl	80a72fe <_ZplRK15StringSumHelperPKc>
 80a1718:	7fa9      	ldrb	r1, [r5, #30]
 80a171a:	f005 fe04 	bl	80a7326 <_ZplRK15StringSumHelperi>
 80a171e:	4914      	ldr	r1, [pc, #80]	; (80a1770 <_Z13getEEPROMdatav+0x130>)
 80a1720:	f005 fded 	bl	80a72fe <_ZplRK15StringSumHelperPKc>
 80a1724:	8b69      	ldrh	r1, [r5, #26]
 80a1726:	f005 fdfe 	bl	80a7326 <_ZplRK15StringSumHelperi>
 80a172a:	4912      	ldr	r1, [pc, #72]	; (80a1774 <_Z13getEEPROMdatav+0x134>)
 80a172c:	f005 fde7 	bl	80a72fe <_ZplRK15StringSumHelperPKc>
 80a1730:	8ba9      	ldrh	r1, [r5, #28]
 80a1732:	f005 fdf8 	bl	80a7326 <_ZplRK15StringSumHelperi>
 80a1736:	6801      	ldr	r1, [r0, #0]
 80a1738:	4806      	ldr	r0, [pc, #24]	; (80a1754 <_Z13getEEPROMdatav+0x114>)
 80a173a:	f7ff f89b 	bl	80a0874 <_ZNK5spark6Logger4infoEPKcz>
 80a173e:	a804      	add	r0, sp, #16
 80a1740:	f005 fc74 	bl	80a702c <_ZN6StringD1Ev>
class StringSumHelper : public String
 80a1744:	a808      	add	r0, sp, #32
 80a1746:	e7cd      	b.n	80a16e4 <_Z13getEEPROMdatav+0xa4>
 80a1748:	20000201 	.word	0x20000201
 80a174c:	200001fc 	.word	0x200001fc
 80a1750:	080ad5fe 	.word	0x080ad5fe
 80a1754:	20000c64 	.word	0x20000c64
 80a1758:	20000140 	.word	0x20000140
 80a175c:	080ad60f 	.word	0x080ad60f
 80a1760:	080ad718 	.word	0x080ad718
 80a1764:	080ad623 	.word	0x080ad623
 80a1768:	080ad640 	.word	0x080ad640
 80a176c:	080ad649 	.word	0x080ad649
 80a1770:	080ad655 	.word	0x080ad655
 80a1774:	080ad65d 	.word	0x080ad65d

080a1778 <_Z12setupSensorsv>:
{
 80a1778:	b508      	push	{r3, lr}
  sensors.SetupSensors();
 80a177a:	480c      	ldr	r0, [pc, #48]	; (80a17ac <_Z12setupSensorsv+0x34>)
 80a177c:	f7fe fe5a 	bl	80a0434 <_ZN16SensorController12SetupSensorsEv>
  delay(500);
 80a1780:	f44f 70fa 	mov.w	r0, #500	; 0x1f4
 80a1784:	f007 f866 	bl	80a8854 <delay>
  if ((haveReadEEPROM || getEEPROMdata()) && ActiveEEPROMData.setGas)
 80a1788:	4b09      	ldr	r3, [pc, #36]	; (80a17b0 <_Z12setupSensorsv+0x38>)
 80a178a:	781b      	ldrb	r3, [r3, #0]
 80a178c:	b14b      	cbz	r3, 80a17a2 <_Z12setupSensorsv+0x2a>
 80a178e:	4b09      	ldr	r3, [pc, #36]	; (80a17b4 <_Z12setupSensorsv+0x3c>)
 80a1790:	7f9a      	ldrb	r2, [r3, #30]
 80a1792:	b152      	cbz	r2, 80a17aa <_Z12setupSensorsv+0x32>
    sensors.setGasBase(ActiveEEPROMData.eCO2_base, ActiveEEPROMData.TVOC_base);
 80a1794:	8b5a      	ldrh	r2, [r3, #26]
 80a1796:	8b99      	ldrh	r1, [r3, #28]
 80a1798:	4804      	ldr	r0, [pc, #16]	; (80a17ac <_Z12setupSensorsv+0x34>)
}
 80a179a:	e8bd 4008 	ldmia.w	sp!, {r3, lr}
    sensors.setGasBase(ActiveEEPROMData.eCO2_base, ActiveEEPROMData.TVOC_base);
 80a179e:	f7fe bc95 	b.w	80a00cc <_ZN16SensorController10setGasBaseEtt>
  if ((haveReadEEPROM || getEEPROMdata()) && ActiveEEPROMData.setGas)
 80a17a2:	f7ff ff4d 	bl	80a1640 <_Z13getEEPROMdatav>
 80a17a6:	2800      	cmp	r0, #0
 80a17a8:	d1f1      	bne.n	80a178e <_Z12setupSensorsv+0x16>
}
 80a17aa:	bd08      	pop	{r3, pc}
 80a17ac:	20000238 	.word	0x20000238
 80a17b0:	20000201 	.word	0x20000201
 80a17b4:	20000140 	.word	0x20000140

080a17b8 <_Z12updateEEPROM10EEPROMinfo>:
{
 80a17b8:	b084      	sub	sp, #16
 80a17ba:	b530      	push	{r4, r5, lr}
 80a17bc:	b091      	sub	sp, #68	; 0x44
 80a17be:	ac14      	add	r4, sp, #80	; 0x50
 80a17c0:	e884 000f 	stmia.w	r4, {r0, r1, r2, r3}
  EEPROMinfo() : flag(0), TVOC_base(0), eCO2_base(0), setGas(false)
 80a17c4:	2300      	movs	r3, #0
 80a17c6:	f8ad 303a 	strh.w	r3, [sp, #58]	; 0x3a
 80a17ca:	f8ad 303c 	strh.w	r3, [sp, #60]	; 0x3c
 80a17ce:	f88d 303e 	strb.w	r3, [sp, #62]	; 0x3e
 80a17d2:	f8ad 3020 	strh.w	r3, [sp, #32]
  EEPROM.get(deviceNumberEEPROMAddress, EEPROMdata);
 80a17d6:	f008 f99b 	bl	80a9b10 <_Z21__fetch_global_EEPROMv>
 80a17da:	2220      	movs	r2, #32
 80a17dc:	4c4d      	ldr	r4, [pc, #308]	; (80a1914 <_Z12updateEEPROM10EEPROMinfo+0x15c>)
 80a17de:	eb0d 0102 	add.w	r1, sp, r2
 80a17e2:	6820      	ldr	r0, [r4, #0]
 80a17e4:	f004 fea6 	bl	80a6534 <HAL_EEPROM_Get>
  Log.info("Got info from EEPROM. Now checking.");
 80a17e8:	494b      	ldr	r1, [pc, #300]	; (80a1918 <_Z12updateEEPROM10EEPROMinfo+0x160>)
 80a17ea:	484c      	ldr	r0, [pc, #304]	; (80a191c <_Z12updateEEPROM10EEPROMinfo+0x164>)
 80a17ec:	f7ff f842 	bl	80a0874 <_ZNK5spark6Logger4infoEPKcz>
  if (EEPROMdata.flag != 0)
 80a17f0:	f89d 3020 	ldrb.w	r3, [sp, #32]
 80a17f4:	2b00      	cmp	r3, #0
 80a17f6:	d042      	beq.n	80a187e <_Z12updateEEPROM10EEPROMinfo+0xc6>
    Log.info("Data in EEPROM is not initialized. Putting new data.");
 80a17f8:	4949      	ldr	r1, [pc, #292]	; (80a1920 <_Z12updateEEPROM10EEPROMinfo+0x168>)
 80a17fa:	4848      	ldr	r0, [pc, #288]	; (80a191c <_Z12updateEEPROM10EEPROMinfo+0x164>)
 80a17fc:	f7ff f83a 	bl	80a0874 <_ZNK5spark6Logger4infoEPKcz>
      EEPROM.put(deviceNumberEEPROMAddress, newData);
 80a1800:	f008 f986 	bl	80a9b10 <_Z21__fetch_global_EEPROMv>
        return t;
    }

    template <typename T> const T &put( int idx, const T &t )
    {
        HAL_EEPROM_Put(idx, &t, sizeof(T));
 80a1804:	6820      	ldr	r0, [r4, #0]
 80a1806:	a914      	add	r1, sp, #80	; 0x50
 80a1808:	2220      	movs	r2, #32
 80a180a:	f004 fe9b 	bl	80a6544 <HAL_EEPROM_Put>
      Log.info("Data Put...");
 80a180e:	4945      	ldr	r1, [pc, #276]	; (80a1924 <_Z12updateEEPROM10EEPROMinfo+0x16c>)
 80a1810:	4842      	ldr	r0, [pc, #264]	; (80a191c <_Z12updateEEPROM10EEPROMinfo+0x164>)
 80a1812:	f7ff f82f 	bl	80a0874 <_ZNK5spark6Logger4infoEPKcz>
	StringSumHelper(const char *p) : String(p) {}
 80a1816:	4944      	ldr	r1, [pc, #272]	; (80a1928 <_Z12updateEEPROM10EEPROMinfo+0x170>)
 80a1818:	a804      	add	r0, sp, #16
 80a181a:	f005 fc51 	bl	80a70c0 <_ZN6StringC1EPKc>
  Log.info("Set new EEPROM data, " + String(EEPROMdata.flag) + ": " + EEPROMdata.name);
 80a181e:	220a      	movs	r2, #10
 80a1820:	f89d 1020 	ldrb.w	r1, [sp, #32]
 80a1824:	4668      	mov	r0, sp
 80a1826:	f005 fcb9 	bl	80a719c <_ZN6StringC1Ehh>
 80a182a:	4669      	mov	r1, sp
 80a182c:	a804      	add	r0, sp, #16
 80a182e:	f005 fd5a 	bl	80a72e6 <_ZplRK15StringSumHelperRK6String>
 80a1832:	493e      	ldr	r1, [pc, #248]	; (80a192c <_Z12updateEEPROM10EEPROMinfo+0x174>)
 80a1834:	f005 fd63 	bl	80a72fe <_ZplRK15StringSumHelperPKc>
 80a1838:	f10d 0121 	add.w	r1, sp, #33	; 0x21
 80a183c:	f005 fd5f 	bl	80a72fe <_ZplRK15StringSumHelperPKc>
 80a1840:	6801      	ldr	r1, [r0, #0]
 80a1842:	4836      	ldr	r0, [pc, #216]	; (80a191c <_Z12updateEEPROM10EEPROMinfo+0x164>)
 80a1844:	f7ff f816 	bl	80a0874 <_ZNK5spark6Logger4infoEPKcz>
 80a1848:	4668      	mov	r0, sp
 80a184a:	f005 fbef 	bl	80a702c <_ZN6StringD1Ev>
class StringSumHelper : public String
 80a184e:	a804      	add	r0, sp, #16
 80a1850:	f005 fbec 	bl	80a702c <_ZN6StringD1Ev>
  ActiveEEPROMData = newData;
 80a1854:	4a36      	ldr	r2, [pc, #216]	; (80a1930 <_Z12updateEEPROM10EEPROMinfo+0x178>)
 80a1856:	ab14      	add	r3, sp, #80	; 0x50
 80a1858:	a91b      	add	r1, sp, #108	; 0x6c
 80a185a:	f853 0b04 	ldr.w	r0, [r3], #4
 80a185e:	428b      	cmp	r3, r1
 80a1860:	f842 0b04 	str.w	r0, [r2], #4
 80a1864:	d1f9      	bne.n	80a185a <_Z12updateEEPROM10EEPROMinfo+0xa2>
 80a1866:	8819      	ldrh	r1, [r3, #0]
 80a1868:	8011      	strh	r1, [r2, #0]
 80a186a:	789b      	ldrb	r3, [r3, #2]
 80a186c:	7093      	strb	r3, [r2, #2]
  haveReadEEPROM = true;
 80a186e:	2201      	movs	r2, #1
 80a1870:	4b30      	ldr	r3, [pc, #192]	; (80a1934 <_Z12updateEEPROM10EEPROMinfo+0x17c>)
 80a1872:	701a      	strb	r2, [r3, #0]
}
 80a1874:	b011      	add	sp, #68	; 0x44
 80a1876:	e8bd 4030 	ldmia.w	sp!, {r4, r5, lr}
 80a187a:	b004      	add	sp, #16
 80a187c:	4770      	bx	lr
    if (String(newData.name) != String(EEPROMdata.name))
 80a187e:	f10d 0151 	add.w	r1, sp, #81	; 0x51
 80a1882:	4668      	mov	r0, sp
 80a1884:	f005 fc1c 	bl	80a70c0 <_ZN6StringC1EPKc>
 80a1888:	f10d 0121 	add.w	r1, sp, #33	; 0x21
 80a188c:	a804      	add	r0, sp, #16
 80a188e:	f005 fc17 	bl	80a70c0 <_ZN6StringC1EPKc>
	unsigned char operator != (const String &rhs) const {return !equals(rhs);}
 80a1892:	a904      	add	r1, sp, #16
 80a1894:	4668      	mov	r0, sp
 80a1896:	f005 fd65 	bl	80a7364 <_ZNK6String6equalsERKS_>
 80a189a:	4605      	mov	r5, r0
 80a189c:	a804      	add	r0, sp, #16
 80a189e:	f005 fbc5 	bl	80a702c <_ZN6StringD1Ev>
 80a18a2:	4668      	mov	r0, sp
 80a18a4:	f005 fbc2 	bl	80a702c <_ZN6StringD1Ev>
 80a18a8:	2d00      	cmp	r5, #0
 80a18aa:	d1b4      	bne.n	80a1816 <_Z12updateEEPROM10EEPROMinfo+0x5e>
      Log.info("Data exists but not the same as current name.");
 80a18ac:	4922      	ldr	r1, [pc, #136]	; (80a1938 <_Z12updateEEPROM10EEPROMinfo+0x180>)
 80a18ae:	481b      	ldr	r0, [pc, #108]	; (80a191c <_Z12updateEEPROM10EEPROMinfo+0x164>)
 80a18b0:	f7fe ffe0 	bl	80a0874 <_ZNK5spark6Logger4infoEPKcz>
	StringSumHelper(const char *p) : String(p) {}
 80a18b4:	4921      	ldr	r1, [pc, #132]	; (80a193c <_Z12updateEEPROM10EEPROMinfo+0x184>)
 80a18b6:	a804      	add	r0, sp, #16
 80a18b8:	f005 fc02 	bl	80a70c0 <_ZN6StringC1EPKc>
      Log.info("NAme in EEPROM: " + String(EEPROMdata.name));
 80a18bc:	f10d 0121 	add.w	r1, sp, #33	; 0x21
 80a18c0:	4668      	mov	r0, sp
 80a18c2:	f005 fbfd 	bl	80a70c0 <_ZN6StringC1EPKc>
 80a18c6:	4669      	mov	r1, sp
 80a18c8:	a804      	add	r0, sp, #16
 80a18ca:	f005 fd0c 	bl	80a72e6 <_ZplRK15StringSumHelperRK6String>
 80a18ce:	6801      	ldr	r1, [r0, #0]
 80a18d0:	4812      	ldr	r0, [pc, #72]	; (80a191c <_Z12updateEEPROM10EEPROMinfo+0x164>)
 80a18d2:	f7fe ffcf 	bl	80a0874 <_ZNK5spark6Logger4infoEPKcz>
 80a18d6:	4668      	mov	r0, sp
 80a18d8:	f005 fba8 	bl	80a702c <_ZN6StringD1Ev>
class StringSumHelper : public String
 80a18dc:	a804      	add	r0, sp, #16
 80a18de:	f005 fba5 	bl	80a702c <_ZN6StringD1Ev>
	StringSumHelper(const char *p) : String(p) {}
 80a18e2:	4917      	ldr	r1, [pc, #92]	; (80a1940 <_Z12updateEEPROM10EEPROMinfo+0x188>)
 80a18e4:	a804      	add	r0, sp, #16
 80a18e6:	f005 fbeb 	bl	80a70c0 <_ZN6StringC1EPKc>
      Log.info("new name      : " + String(newData.name));
 80a18ea:	f10d 0151 	add.w	r1, sp, #81	; 0x51
 80a18ee:	4668      	mov	r0, sp
 80a18f0:	f005 fbe6 	bl	80a70c0 <_ZN6StringC1EPKc>
 80a18f4:	4669      	mov	r1, sp
 80a18f6:	a804      	add	r0, sp, #16
 80a18f8:	f005 fcf5 	bl	80a72e6 <_ZplRK15StringSumHelperRK6String>
 80a18fc:	6801      	ldr	r1, [r0, #0]
 80a18fe:	4807      	ldr	r0, [pc, #28]	; (80a191c <_Z12updateEEPROM10EEPROMinfo+0x164>)
 80a1900:	f7fe ffb8 	bl	80a0874 <_ZNK5spark6Logger4infoEPKcz>
 80a1904:	4668      	mov	r0, sp
 80a1906:	f005 fb91 	bl	80a702c <_ZN6StringD1Ev>
class StringSumHelper : public String
 80a190a:	a804      	add	r0, sp, #16
 80a190c:	f005 fb8e 	bl	80a702c <_ZN6StringD1Ev>
 80a1910:	e776      	b.n	80a1800 <_Z12updateEEPROM10EEPROMinfo+0x48>
 80a1912:	bf00      	nop
 80a1914:	200001fc 	.word	0x200001fc
 80a1918:	080ad666 	.word	0x080ad666
 80a191c:	20000c64 	.word	0x20000c64
 80a1920:	080ad68a 	.word	0x080ad68a
 80a1924:	080ad6bf 	.word	0x080ad6bf
 80a1928:	080ad71b 	.word	0x080ad71b
 80a192c:	080ad718 	.word	0x080ad718
 80a1930:	20000140 	.word	0x20000140
 80a1934:	20000201 	.word	0x20000201
 80a1938:	080ad6cb 	.word	0x080ad6cb
 80a193c:	080ad6f9 	.word	0x080ad6f9
 80a1940:	080ad70a 	.word	0x080ad70a

080a1944 <_Z15setNameOfEEPROM10EEPROMinfo>:
{
 80a1944:	b084      	sub	sp, #16
 80a1946:	b530      	push	{r4, r5, lr}
 80a1948:	b095      	sub	sp, #84	; 0x54
 80a194a:	ac18      	add	r4, sp, #96	; 0x60
 80a194c:	e884 000f 	stmia.w	r4, {r0, r1, r2, r3}
	StringSumHelper(const char *p) : String(p) {}
 80a1950:	ac0c      	add	r4, sp, #48	; 0x30
 80a1952:	4937      	ldr	r1, [pc, #220]	; (80a1a30 <_Z15setNameOfEEPROM10EEPROMinfo+0xec>)
 80a1954:	4620      	mov	r0, r4
 80a1956:	f005 fbb3 	bl	80a70c0 <_ZN6StringC1EPKc>
  Log.info("NAme to save to EEPROM: " + String(newName.name));
 80a195a:	f10d 0161 	add.w	r1, sp, #97	; 0x61
 80a195e:	a808      	add	r0, sp, #32
 80a1960:	f005 fbae 	bl	80a70c0 <_ZN6StringC1EPKc>
 80a1964:	a908      	add	r1, sp, #32
 80a1966:	4620      	mov	r0, r4
 80a1968:	f005 fcbd 	bl	80a72e6 <_ZplRK15StringSumHelperRK6String>
 80a196c:	6801      	ldr	r1, [r0, #0]
 80a196e:	4831      	ldr	r0, [pc, #196]	; (80a1a34 <_Z15setNameOfEEPROM10EEPROMinfo+0xf0>)
 80a1970:	f7fe ff80 	bl	80a0874 <_ZNK5spark6Logger4infoEPKcz>
 80a1974:	a808      	add	r0, sp, #32
 80a1976:	f005 fb59 	bl	80a702c <_ZN6StringD1Ev>
class StringSumHelper : public String
 80a197a:	4620      	mov	r0, r4
 80a197c:	f005 fb56 	bl	80a702c <_ZN6StringD1Ev>
  String Shotname;
 80a1980:	492d      	ldr	r1, [pc, #180]	; (80a1a38 <_Z15setNameOfEEPROM10EEPROMinfo+0xf4>)
 80a1982:	a804      	add	r0, sp, #16
 80a1984:	f005 fb9c 	bl	80a70c0 <_ZN6StringC1EPKc>
  if (String(newName.name).length() > 23)
 80a1988:	f10d 0161 	add.w	r1, sp, #97	; 0x61
 80a198c:	4620      	mov	r0, r4
 80a198e:	f005 fb97 	bl	80a70c0 <_ZN6StringC1EPKc>
 80a1992:	9d0e      	ldr	r5, [sp, #56]	; 0x38
 80a1994:	4620      	mov	r0, r4
 80a1996:	f005 fb49 	bl	80a702c <_ZN6StringD1Ev>
 80a199a:	2d17      	cmp	r5, #23
    Shotname = String(newName.name).substring(0, 22);
 80a199c:	f10d 0161 	add.w	r1, sp, #97	; 0x61
  if (String(newName.name).length() > 23)
 80a19a0:	d93d      	bls.n	80a1a1e <_Z15setNameOfEEPROM10EEPROMinfo+0xda>
    Shotname = String(newName.name).substring(0, 22);
 80a19a2:	a808      	add	r0, sp, #32
 80a19a4:	f005 fb8c 	bl	80a70c0 <_ZN6StringC1EPKc>
 80a19a8:	2316      	movs	r3, #22
 80a19aa:	2200      	movs	r2, #0
 80a19ac:	4620      	mov	r0, r4
 80a19ae:	a908      	add	r1, sp, #32
 80a19b0:	f005 fd02 	bl	80a73b8 <_ZNK6String9substringEjj>
 80a19b4:	4621      	mov	r1, r4
 80a19b6:	a804      	add	r0, sp, #16
 80a19b8:	f005 fbd7 	bl	80a716a <_ZN6StringaSEOS_>
 80a19bc:	4620      	mov	r0, r4
 80a19be:	f005 fb35 	bl	80a702c <_ZN6StringD1Ev>
 80a19c2:	a808      	add	r0, sp, #32
    Shotname = String(newName.name);
 80a19c4:	f005 fb32 	bl	80a702c <_ZN6StringD1Ev>
	StringSumHelper(const char *p) : String(p) {}
 80a19c8:	4620      	mov	r0, r4
 80a19ca:	491c      	ldr	r1, [pc, #112]	; (80a1a3c <_Z15setNameOfEEPROM10EEPROMinfo+0xf8>)
 80a19cc:	f005 fb78 	bl	80a70c0 <_ZN6StringC1EPKc>
  Log.info("Name shortened to: " + Shotname);
 80a19d0:	a904      	add	r1, sp, #16
 80a19d2:	4620      	mov	r0, r4
 80a19d4:	f005 fc87 	bl	80a72e6 <_ZplRK15StringSumHelperRK6String>
 80a19d8:	6801      	ldr	r1, [r0, #0]
 80a19da:	4816      	ldr	r0, [pc, #88]	; (80a1a34 <_Z15setNameOfEEPROM10EEPROMinfo+0xf0>)
 80a19dc:	f7fe ff4a 	bl	80a0874 <_ZNK5spark6Logger4infoEPKcz>
class StringSumHelper : public String
 80a19e0:	4620      	mov	r0, r4
 80a19e2:	f005 fb23 	bl	80a702c <_ZN6StringD1Ev>
  EEPROMinfo newData = EEPROMinfo(Shotname);
 80a19e6:	a904      	add	r1, sp, #16
 80a19e8:	a808      	add	r0, sp, #32
 80a19ea:	f005 fbb3 	bl	80a7154 <_ZN6StringC1ERKS_>
 80a19ee:	a908      	add	r1, sp, #32
 80a19f0:	4620      	mov	r0, r4
 80a19f2:	f7ff f84b 	bl	80a0a8c <_ZN10EEPROMinfoC1E6String>
 80a19f6:	a808      	add	r0, sp, #32
 80a19f8:	f005 fb18 	bl	80a702c <_ZN6StringD1Ev>
  updateEEPROM(newData);
 80a19fc:	ab14      	add	r3, sp, #80	; 0x50
 80a19fe:	e913 000f 	ldmdb	r3, {r0, r1, r2, r3}
 80a1a02:	e88d 000f 	stmia.w	sp, {r0, r1, r2, r3}
 80a1a06:	e894 000f 	ldmia.w	r4, {r0, r1, r2, r3}
 80a1a0a:	f7ff fed5 	bl	80a17b8 <_Z12updateEEPROM10EEPROMinfo>
  String Shotname;
 80a1a0e:	a804      	add	r0, sp, #16
 80a1a10:	f005 fb0c 	bl	80a702c <_ZN6StringD1Ev>
}
 80a1a14:	b015      	add	sp, #84	; 0x54
 80a1a16:	e8bd 4030 	ldmia.w	sp!, {r4, r5, lr}
 80a1a1a:	b004      	add	sp, #16
 80a1a1c:	4770      	bx	lr
    Shotname = String(newName.name);
 80a1a1e:	4620      	mov	r0, r4
 80a1a20:	f005 fb4e 	bl	80a70c0 <_ZN6StringC1EPKc>
 80a1a24:	4621      	mov	r1, r4
 80a1a26:	a804      	add	r0, sp, #16
 80a1a28:	f005 fb9f 	bl	80a716a <_ZN6StringaSEOS_>
 80a1a2c:	4620      	mov	r0, r4
 80a1a2e:	e7c9      	b.n	80a19c4 <_Z15setNameOfEEPROM10EEPROMinfo+0x80>
 80a1a30:	080ad731 	.word	0x080ad731
 80a1a34:	20000c64 	.word	0x20000c64
 80a1a38:	080ad665 	.word	0x080ad665
 80a1a3c:	080ad74a 	.word	0x080ad74a

080a1a40 <_Z10setNewName6String>:
{
 80a1a40:	b5f0      	push	{r4, r5, r6, r7, lr}
 80a1a42:	4604      	mov	r4, r0
 80a1a44:	b085      	sub	sp, #20
  DeviceName = String(newName);
 80a1a46:	4601      	mov	r1, r0
 80a1a48:	4668      	mov	r0, sp
 80a1a4a:	f005 fb83 	bl	80a7154 <_ZN6StringC1ERKS_>
 80a1a4e:	4669      	mov	r1, sp
 80a1a50:	481d      	ldr	r0, [pc, #116]	; (80a1ac8 <_Z10setNewName6String+0x88>)
 80a1a52:	f005 fb8a 	bl	80a716a <_ZN6StringaSEOS_>
 80a1a56:	4668      	mov	r0, sp
 80a1a58:	f005 fae8 	bl	80a702c <_ZN6StringD1Ev>
  sensors.ComName = String(newName);
 80a1a5c:	4621      	mov	r1, r4
 80a1a5e:	4668      	mov	r0, sp
 80a1a60:	f005 fb78 	bl	80a7154 <_ZN6StringC1ERKS_>
 80a1a64:	4669      	mov	r1, sp
 80a1a66:	4819      	ldr	r0, [pc, #100]	; (80a1acc <_Z10setNewName6String+0x8c>)
 80a1a68:	f005 fb7f 	bl	80a716a <_ZN6StringaSEOS_>
 80a1a6c:	4668      	mov	r0, sp
 80a1a6e:	f005 fadd 	bl	80a702c <_ZN6StringD1Ev>
  if (newName.length() < 24)
 80a1a72:	68a3      	ldr	r3, [r4, #8]
 80a1a74:	4d16      	ldr	r5, [pc, #88]	; (80a1ad0 <_Z10setNewName6String+0x90>)
 80a1a76:	2b17      	cmp	r3, #23
 80a1a78:	d81a      	bhi.n	80a1ab0 <_Z10setNewName6String+0x70>
 80a1a7a:	462f      	mov	r7, r5
    for (size_t i = 0; i < newName.length(); i++)
 80a1a7c:	2600      	movs	r6, #0
 80a1a7e:	68a3      	ldr	r3, [r4, #8]
 80a1a80:	429e      	cmp	r6, r3
 80a1a82:	d207      	bcs.n	80a1a94 <_Z10setNewName6String+0x54>
      deviceNameRet[i] = newName.charAt(i);
 80a1a84:	4631      	mov	r1, r6
 80a1a86:	4620      	mov	r0, r4
 80a1a88:	f005 fc94 	bl	80a73b4 <_ZNK6String6charAtEj>
    for (size_t i = 0; i < newName.length(); i++)
 80a1a8c:	3601      	adds	r6, #1
      deviceNameRet[i] = newName.charAt(i);
 80a1a8e:	f807 0b01 	strb.w	r0, [r7], #1
    for (size_t i = 0; i < newName.length(); i++)
 80a1a92:	e7f4      	b.n	80a1a7e <_Z10setNewName6String+0x3e>
    if (DeviceName.length() < 7)
 80a1a94:	4b0c      	ldr	r3, [pc, #48]	; (80a1ac8 <_Z10setNewName6String+0x88>)
 80a1a96:	689b      	ldr	r3, [r3, #8]
 80a1a98:	2b06      	cmp	r3, #6
 80a1a9a:	d804      	bhi.n	80a1aa6 <_Z10setNewName6String+0x66>
        deviceNameRet[i] = '\0';
 80a1a9c:	2200      	movs	r2, #0
 80a1a9e:	555a      	strb	r2, [r3, r5]
      for (size_t i = DeviceName.length(); i < 7; i++)
 80a1aa0:	3301      	adds	r3, #1
 80a1aa2:	2b07      	cmp	r3, #7
 80a1aa4:	d1fb      	bne.n	80a1a9e <_Z10setNewName6String+0x5e>
  haveGotName = true;
 80a1aa6:	2201      	movs	r2, #1
 80a1aa8:	4b0a      	ldr	r3, [pc, #40]	; (80a1ad4 <_Z10setNewName6String+0x94>)
 80a1aaa:	701a      	strb	r2, [r3, #0]
}
 80a1aac:	b005      	add	sp, #20
 80a1aae:	bdf0      	pop	{r4, r5, r6, r7, pc}
    for (size_t i = 0; i < 24; i++)
 80a1ab0:	2600      	movs	r6, #0
      deviceNameRet[i] = newName.charAt(i);
 80a1ab2:	4631      	mov	r1, r6
 80a1ab4:	4620      	mov	r0, r4
 80a1ab6:	f005 fc7d 	bl	80a73b4 <_ZNK6String6charAtEj>
    for (size_t i = 0; i < 24; i++)
 80a1aba:	3601      	adds	r6, #1
 80a1abc:	2e18      	cmp	r6, #24
      deviceNameRet[i] = newName.charAt(i);
 80a1abe:	f805 0b01 	strb.w	r0, [r5], #1
    for (size_t i = 0; i < 24; i++)
 80a1ac2:	d1f6      	bne.n	80a1ab2 <_Z10setNewName6String+0x72>
 80a1ac4:	e7ef      	b.n	80a1aa6 <_Z10setNewName6String+0x66>
 80a1ac6:	bf00      	nop
 80a1ac8:	20000160 	.word	0x20000160
 80a1acc:	20000238 	.word	0x20000238
 80a1ad0:	20000014 	.word	0x20000014
 80a1ad4:	20000200 	.word	0x20000200

080a1ad8 <_Z7handlerPKcS0_>:
{
 80a1ad8:	b530      	push	{r4, r5, lr}
 80a1ada:	4605      	mov	r5, r0
 80a1adc:	460c      	mov	r4, r1
  Log.info("Call back for device name!");
 80a1ade:	4853      	ldr	r0, [pc, #332]	; (80a1c2c <_Z7handlerPKcS0_+0x154>)
 80a1ae0:	4953      	ldr	r1, [pc, #332]	; (80a1c30 <_Z7handlerPKcS0_+0x158>)
{
 80a1ae2:	b099      	sub	sp, #100	; 0x64
  Log.info("Call back for device name!");
 80a1ae4:	f7fe fec6 	bl	80a0874 <_ZNK5spark6Logger4infoEPKcz>
  if (!haveGotName)
 80a1ae8:	4b52      	ldr	r3, [pc, #328]	; (80a1c34 <_Z7handlerPKcS0_+0x15c>)
 80a1aea:	781b      	ldrb	r3, [r3, #0]
 80a1aec:	2b00      	cmp	r3, #0
 80a1aee:	f040 809b 	bne.w	80a1c28 <_Z7handlerPKcS0_+0x150>
    String loadedNAme = String(data);
 80a1af2:	4621      	mov	r1, r4
 80a1af4:	a804      	add	r0, sp, #16
    Log.info("received " + String(topic) + ": " + loadedNAme);
 80a1af6:	ac10      	add	r4, sp, #64	; 0x40
    String loadedNAme = String(data);
 80a1af8:	f005 fae2 	bl	80a70c0 <_ZN6StringC1EPKc>
	StringSumHelper(const char *p) : String(p) {}
 80a1afc:	494e      	ldr	r1, [pc, #312]	; (80a1c38 <_Z7handlerPKcS0_+0x160>)
 80a1afe:	a80c      	add	r0, sp, #48	; 0x30
 80a1b00:	f005 fade 	bl	80a70c0 <_ZN6StringC1EPKc>
    Log.info("received " + String(topic) + ": " + loadedNAme);
 80a1b04:	4629      	mov	r1, r5
 80a1b06:	4620      	mov	r0, r4
 80a1b08:	f005 fada 	bl	80a70c0 <_ZN6StringC1EPKc>
 80a1b0c:	4621      	mov	r1, r4
 80a1b0e:	a80c      	add	r0, sp, #48	; 0x30
 80a1b10:	f005 fbe9 	bl	80a72e6 <_ZplRK15StringSumHelperRK6String>
 80a1b14:	4949      	ldr	r1, [pc, #292]	; (80a1c3c <_Z7handlerPKcS0_+0x164>)
 80a1b16:	f005 fbf2 	bl	80a72fe <_ZplRK15StringSumHelperPKc>
 80a1b1a:	a904      	add	r1, sp, #16
 80a1b1c:	f005 fbe3 	bl	80a72e6 <_ZplRK15StringSumHelperRK6String>
 80a1b20:	6801      	ldr	r1, [r0, #0]
 80a1b22:	4842      	ldr	r0, [pc, #264]	; (80a1c2c <_Z7handlerPKcS0_+0x154>)
 80a1b24:	f7fe fea6 	bl	80a0874 <_ZNK5spark6Logger4infoEPKcz>
 80a1b28:	4620      	mov	r0, r4
 80a1b2a:	f005 fa7f 	bl	80a702c <_ZN6StringD1Ev>
class StringSumHelper : public String
 80a1b2e:	a80c      	add	r0, sp, #48	; 0x30
 80a1b30:	f005 fa7c 	bl	80a702c <_ZN6StringD1Ev>
    Log.info("Saving name...");
 80a1b34:	4942      	ldr	r1, [pc, #264]	; (80a1c40 <_Z7handlerPKcS0_+0x168>)
 80a1b36:	483d      	ldr	r0, [pc, #244]	; (80a1c2c <_Z7handlerPKcS0_+0x154>)
 80a1b38:	f7fe fe9c 	bl	80a0874 <_ZNK5spark6Logger4infoEPKcz>
	StringSumHelper(const char *p) : String(p) {}
 80a1b3c:	4941      	ldr	r1, [pc, #260]	; (80a1c44 <_Z7handlerPKcS0_+0x16c>)
 80a1b3e:	4620      	mov	r0, r4
 80a1b40:	f005 fabe 	bl	80a70c0 <_ZN6StringC1EPKc>
    Log.info("Setting new name...: " + loadedNAme);
 80a1b44:	a904      	add	r1, sp, #16
 80a1b46:	4620      	mov	r0, r4
 80a1b48:	f005 fbcd 	bl	80a72e6 <_ZplRK15StringSumHelperRK6String>
 80a1b4c:	6801      	ldr	r1, [r0, #0]
 80a1b4e:	4837      	ldr	r0, [pc, #220]	; (80a1c2c <_Z7handlerPKcS0_+0x154>)
 80a1b50:	f7fe fe90 	bl	80a0874 <_ZNK5spark6Logger4infoEPKcz>
class StringSumHelper : public String
 80a1b54:	4620      	mov	r0, r4
 80a1b56:	f005 fa69 	bl	80a702c <_ZN6StringD1Ev>
    setNewName(loadedNAme);
 80a1b5a:	a904      	add	r1, sp, #16
 80a1b5c:	4620      	mov	r0, r4
 80a1b5e:	f005 faf9 	bl	80a7154 <_ZN6StringC1ERKS_>
 80a1b62:	4620      	mov	r0, r4
 80a1b64:	f7ff ff6c 	bl	80a1a40 <_Z10setNewName6String>
 80a1b68:	4620      	mov	r0, r4
 80a1b6a:	f005 fa5f 	bl	80a702c <_ZN6StringD1Ev>
    Log.info("Set name, now saving to EEPROM...");
 80a1b6e:	4936      	ldr	r1, [pc, #216]	; (80a1c48 <_Z7handlerPKcS0_+0x170>)
 80a1b70:	482e      	ldr	r0, [pc, #184]	; (80a1c2c <_Z7handlerPKcS0_+0x154>)
 80a1b72:	f7fe fe7f 	bl	80a0874 <_ZNK5spark6Logger4infoEPKcz>
    EEPROMinfo Name = EEPROMinfo(loadedNAme);
 80a1b76:	a904      	add	r1, sp, #16
 80a1b78:	a80c      	add	r0, sp, #48	; 0x30
 80a1b7a:	f005 faeb 	bl	80a7154 <_ZN6StringC1ERKS_>
 80a1b7e:	a90c      	add	r1, sp, #48	; 0x30
 80a1b80:	4620      	mov	r0, r4
 80a1b82:	f7fe ff83 	bl	80a0a8c <_ZN10EEPROMinfoC1E6String>
 80a1b86:	a80c      	add	r0, sp, #48	; 0x30
 80a1b88:	f005 fa50 	bl	80a702c <_ZN6StringD1Ev>
    setNameOfEEPROM(Name);
 80a1b8c:	ab18      	add	r3, sp, #96	; 0x60
 80a1b8e:	e913 000f 	ldmdb	r3, {r0, r1, r2, r3}
 80a1b92:	e88d 000f 	stmia.w	sp, {r0, r1, r2, r3}
 80a1b96:	e894 000f 	ldmia.w	r4, {r0, r1, r2, r3}
 80a1b9a:	f7ff fed3 	bl	80a1944 <_Z15setNameOfEEPROM10EEPROMinfo>
	StringSumHelper(const char *p) : String(p) {}
 80a1b9e:	492b      	ldr	r1, [pc, #172]	; (80a1c4c <_Z7handlerPKcS0_+0x174>)
 80a1ba0:	a808      	add	r0, sp, #32
 80a1ba2:	f005 fa8d 	bl	80a70c0 <_ZN6StringC1EPKc>
    Log.info("We have a name in ram    : " + String(deviceNameRet));
 80a1ba6:	492a      	ldr	r1, [pc, #168]	; (80a1c50 <_Z7handlerPKcS0_+0x178>)
 80a1ba8:	a80c      	add	r0, sp, #48	; 0x30
 80a1baa:	f005 fa89 	bl	80a70c0 <_ZN6StringC1EPKc>
 80a1bae:	a90c      	add	r1, sp, #48	; 0x30
 80a1bb0:	a808      	add	r0, sp, #32
 80a1bb2:	f005 fb98 	bl	80a72e6 <_ZplRK15StringSumHelperRK6String>
 80a1bb6:	6801      	ldr	r1, [r0, #0]
 80a1bb8:	481c      	ldr	r0, [pc, #112]	; (80a1c2c <_Z7handlerPKcS0_+0x154>)
 80a1bba:	f7fe fe5b 	bl	80a0874 <_ZNK5spark6Logger4infoEPKcz>
 80a1bbe:	a80c      	add	r0, sp, #48	; 0x30
 80a1bc0:	f005 fa34 	bl	80a702c <_ZN6StringD1Ev>
class StringSumHelper : public String
 80a1bc4:	a808      	add	r0, sp, #32
 80a1bc6:	f005 fa31 	bl	80a702c <_ZN6StringD1Ev>
	StringSumHelper(const char *p) : String(p) {}
 80a1bca:	4922      	ldr	r1, [pc, #136]	; (80a1c54 <_Z7handlerPKcS0_+0x17c>)
 80a1bcc:	a808      	add	r0, sp, #32
 80a1bce:	f005 fa77 	bl	80a70c0 <_ZN6StringC1EPKc>
    Log.info("We have a name in on file: " + String(DeviceName));
 80a1bd2:	4921      	ldr	r1, [pc, #132]	; (80a1c58 <_Z7handlerPKcS0_+0x180>)
 80a1bd4:	a80c      	add	r0, sp, #48	; 0x30
 80a1bd6:	f005 fabd 	bl	80a7154 <_ZN6StringC1ERKS_>
 80a1bda:	a90c      	add	r1, sp, #48	; 0x30
 80a1bdc:	a808      	add	r0, sp, #32
 80a1bde:	f005 fb82 	bl	80a72e6 <_ZplRK15StringSumHelperRK6String>
 80a1be2:	6801      	ldr	r1, [r0, #0]
 80a1be4:	4811      	ldr	r0, [pc, #68]	; (80a1c2c <_Z7handlerPKcS0_+0x154>)
 80a1be6:	f7fe fe45 	bl	80a0874 <_ZNK5spark6Logger4infoEPKcz>
 80a1bea:	a80c      	add	r0, sp, #48	; 0x30
 80a1bec:	f005 fa1e 	bl	80a702c <_ZN6StringD1Ev>
class StringSumHelper : public String
 80a1bf0:	a808      	add	r0, sp, #32
 80a1bf2:	f005 fa1b 	bl	80a702c <_ZN6StringD1Ev>
	StringSumHelper(const char *p) : String(p) {}
 80a1bf6:	4919      	ldr	r1, [pc, #100]	; (80a1c5c <_Z7handlerPKcS0_+0x184>)
 80a1bf8:	a808      	add	r0, sp, #32
 80a1bfa:	f005 fa61 	bl	80a70c0 <_ZN6StringC1EPKc>
    Log.info("We have a name in EEPROM : " + String(ActiveEEPROMData.name));
 80a1bfe:	4918      	ldr	r1, [pc, #96]	; (80a1c60 <_Z7handlerPKcS0_+0x188>)
 80a1c00:	a80c      	add	r0, sp, #48	; 0x30
 80a1c02:	f005 fa5d 	bl	80a70c0 <_ZN6StringC1EPKc>
 80a1c06:	a90c      	add	r1, sp, #48	; 0x30
 80a1c08:	a808      	add	r0, sp, #32
 80a1c0a:	f005 fb6c 	bl	80a72e6 <_ZplRK15StringSumHelperRK6String>
 80a1c0e:	6801      	ldr	r1, [r0, #0]
 80a1c10:	4806      	ldr	r0, [pc, #24]	; (80a1c2c <_Z7handlerPKcS0_+0x154>)
 80a1c12:	f7fe fe2f 	bl	80a0874 <_ZNK5spark6Logger4infoEPKcz>
 80a1c16:	a80c      	add	r0, sp, #48	; 0x30
 80a1c18:	f005 fa08 	bl	80a702c <_ZN6StringD1Ev>
class StringSumHelper : public String
 80a1c1c:	a808      	add	r0, sp, #32
 80a1c1e:	f005 fa05 	bl	80a702c <_ZN6StringD1Ev>
    String loadedNAme = String(data);
 80a1c22:	a804      	add	r0, sp, #16
 80a1c24:	f005 fa02 	bl	80a702c <_ZN6StringD1Ev>
}
 80a1c28:	b019      	add	sp, #100	; 0x64
 80a1c2a:	bd30      	pop	{r4, r5, pc}
 80a1c2c:	20000c64 	.word	0x20000c64
 80a1c30:	080ad75e 	.word	0x080ad75e
 80a1c34:	20000200 	.word	0x20000200
 80a1c38:	080ad779 	.word	0x080ad779
 80a1c3c:	080ad718 	.word	0x080ad718
 80a1c40:	080ad783 	.word	0x080ad783
 80a1c44:	080ad792 	.word	0x080ad792
 80a1c48:	080ad7a8 	.word	0x080ad7a8
 80a1c4c:	080ad7ca 	.word	0x080ad7ca
 80a1c50:	20000014 	.word	0x20000014
 80a1c54:	080ad7e6 	.word	0x080ad7e6
 80a1c58:	20000160 	.word	0x20000160
 80a1c5c:	080ad802 	.word	0x080ad802
 80a1c60:	20000141 	.word	0x20000141

080a1c64 <_Z10cancelWiFiv>:
    cancelWiFi();
  }
}

void cancelWiFi()
{
 80a1c64:	b570      	push	{r4, r5, r6, lr}
  
  wifiReady = false;
 80a1c66:	2400      	movs	r4, #0
  cloudReady = false;
  connectingToCloud = false;
  WifiOn = false;
  saveOffline = true;
 80a1c68:	2201      	movs	r2, #1
  wifiReady = false;
 80a1c6a:	4b10      	ldr	r3, [pc, #64]	; (80a1cac <_Z10cancelWiFiv+0x48>)
  Log.info("Took too long to connect.... Now turning off wifi.");
 80a1c6c:	4d10      	ldr	r5, [pc, #64]	; (80a1cb0 <_Z10cancelWiFiv+0x4c>)
  wifiReady = false;
 80a1c6e:	701c      	strb	r4, [r3, #0]
  cloudReady = false;
 80a1c70:	4b10      	ldr	r3, [pc, #64]	; (80a1cb4 <_Z10cancelWiFiv+0x50>)
        network_disconnect(*this, NETWORK_DISCONNECT_REASON_USER, NULL);
 80a1c72:	4e11      	ldr	r6, [pc, #68]	; (80a1cb8 <_Z10cancelWiFiv+0x54>)
 80a1c74:	701c      	strb	r4, [r3, #0]
  connectingToCloud = false;
 80a1c76:	4b11      	ldr	r3, [pc, #68]	; (80a1cbc <_Z10cancelWiFiv+0x58>)
  Log.info("Took too long to connect.... Now turning off wifi.");
 80a1c78:	4628      	mov	r0, r5
  connectingToCloud = false;
 80a1c7a:	701c      	strb	r4, [r3, #0]
  WifiOn = false;
 80a1c7c:	4b10      	ldr	r3, [pc, #64]	; (80a1cc0 <_Z10cancelWiFiv+0x5c>)
  Log.info("Took too long to connect.... Now turning off wifi.");
 80a1c7e:	4911      	ldr	r1, [pc, #68]	; (80a1cc4 <_Z10cancelWiFiv+0x60>)
  WifiOn = false;
 80a1c80:	f883 4bea 	strb.w	r4, [r3, #3050]	; 0xbea
  saveOffline = true;
 80a1c84:	4b10      	ldr	r3, [pc, #64]	; (80a1cc8 <_Z10cancelWiFiv+0x64>)
 80a1c86:	701a      	strb	r2, [r3, #0]
  Log.info("Took too long to connect.... Now turning off wifi.");
 80a1c88:	f7fe fdf4 	bl	80a0874 <_ZNK5spark6Logger4infoEPKcz>
 80a1c8c:	4622      	mov	r2, r4
 80a1c8e:	6870      	ldr	r0, [r6, #4]
 80a1c90:	2102      	movs	r1, #2
 80a1c92:	f004 fea7 	bl	80a69e4 <network_disconnect>
        network_off(*this, 0, 0, NULL);
 80a1c96:	4621      	mov	r1, r4
 80a1c98:	6870      	ldr	r0, [r6, #4]
 80a1c9a:	4623      	mov	r3, r4
 80a1c9c:	4622      	mov	r2, r4
 80a1c9e:	f004 feb9 	bl	80a6a14 <network_off>
#if (PLATFORM_ID == PLATFORM_ARGON || PLATFORM_ID == PLATFORM_PHOTON_PRODUCTION)
  WiFi.disconnect();
  WiFi.off();
#endif
  Log.info("Turned off wifi.. now to reset bools.");
 80a1ca2:	4628      	mov	r0, r5
 80a1ca4:	4909      	ldr	r1, [pc, #36]	; (80a1ccc <_Z10cancelWiFiv+0x68>)
 80a1ca6:	f7fe fde5 	bl	80a0874 <_ZNK5spark6Logger4infoEPKcz>
  //isSensorLoop = false;
}
 80a1caa:	bd70      	pop	{r4, r5, r6, pc}
 80a1cac:	20000c34 	.word	0x20000c34
 80a1cb0:	20000c64 	.word	0x20000c64
 80a1cb4:	200001f9 	.word	0x200001f9
 80a1cb8:	20000d38 	.word	0x20000d38
 80a1cbc:	200001fa 	.word	0x200001fa
 80a1cc0:	40024000 	.word	0x40024000
 80a1cc4:	080ad81e 	.word	0x080ad81e
 80a1cc8:	20000230 	.word	0x20000230
 80a1ccc:	080ad851 	.word	0x080ad851

080a1cd0 <_Z12mycustomScanv>:
}

#if (PLATFORM_ID == PLATFORM_ARGON || PLATFORM_ID == PLATFORM_PHOTON_PRODUCTION)

void mycustomScan()
{
 80a1cd0:	e92d 4ff0 	stmdb	sp!, {r4, r5, r6, r7, r8, r9, sl, fp, lr}
 80a1cd4:	2500      	movs	r5, #0
 80a1cd6:	f2ad 5d7c 	subw	sp, sp, #1404	; 0x57c
 80a1cda:	ac46      	add	r4, sp, #280	; 0x118
  WiFiAccessPoint aps[20];
 80a1cdc:	1960      	adds	r0, r4, r5
 80a1cde:	3538      	adds	r5, #56	; 0x38
 80a1ce0:	f7fe fcd8 	bl	80a0694 <_ZN15WiFiAccessPointC1Ev>
 80a1ce4:	f5b5 6f8c 	cmp.w	r5, #1120	; 0x460
 80a1ce8:	46a0      	mov	r8, r4
 80a1cea:	d1f6      	bne.n	80a1cda <_Z12mycustomScanv+0xa>
 80a1cec:	2500      	movs	r5, #0
  WiFiAccessPoint Myap[5];
 80a1cee:	eb0d 0005 	add.w	r0, sp, r5
 80a1cf2:	3538      	adds	r5, #56	; 0x38
 80a1cf4:	f7fe fcce 	bl	80a0694 <_ZN15WiFiAccessPointC1Ev>
 80a1cf8:	f5b5 7f8c 	cmp.w	r5, #280	; 0x118
 80a1cfc:	d1f7      	bne.n	80a1cee <_Z12mycustomScanv+0x1e>
  int foundMy = WiFi.getCredentials(Myap, 5); //-1;//
 80a1cfe:	2205      	movs	r2, #5
 80a1d00:	4669      	mov	r1, sp
 80a1d02:	4820      	ldr	r0, [pc, #128]	; (80a1d84 <_Z12mycustomScanv+0xb4>)
 80a1d04:	f007 fbd2 	bl	80a94ac <_ZN5spark9WiFiClass14getCredentialsEP15WiFiAccessPointj>
  int found = WiFi.scan(aps, 20);             //0;//
 80a1d08:	2214      	movs	r2, #20
 80a1d0a:	4621      	mov	r1, r4
 80a1d0c:	481d      	ldr	r0, [pc, #116]	; (80a1d84 <_Z12mycustomScanv+0xb4>)
 80a1d0e:	f007 fbbb 	bl	80a9488 <_ZN5spark9WiFiClass4scanEP15WiFiAccessPointj>
  for (int i = 0; i < found; i++)
 80a1d12:	2500      	movs	r5, #0
  int found = WiFi.scan(aps, 20);             //0;//
 80a1d14:	4606      	mov	r6, r0
      }
    }
    else
    {

      Serial.print("Unknown SSID: ");
 80a1d16:	f8df 9074 	ldr.w	r9, [pc, #116]	; 80a1d8c <_Z12mycustomScanv+0xbc>
        Serial.print("SSID: ");
 80a1d1a:	f8df a074 	ldr.w	sl, [pc, #116]	; 80a1d90 <_Z12mycustomScanv+0xc0>
        WiFi.setCredentials(ap.ssid, PASS); //
 80a1d1e:	f8df b074 	ldr.w	fp, [pc, #116]	; 80a1d94 <_Z12mycustomScanv+0xc4>
  for (int i = 0; i < found; i++)
 80a1d22:	42b5      	cmp	r5, r6
 80a1d24:	da2a      	bge.n	80a1d7c <_Z12mycustomScanv+0xac>
    if (ap.ssid[0] == '3' && ap.ssid[1] == 'G')
 80a1d26:	2338      	movs	r3, #56	; 0x38
 80a1d28:	fb03 8305 	mla	r3, r3, r5, r8
 80a1d2c:	889a      	ldrh	r2, [r3, #4]
 80a1d2e:	f244 7333 	movw	r3, #18227	; 0x4733
 80a1d32:	429a      	cmp	r2, r3
 80a1d34:	f104 0704 	add.w	r7, r4, #4
 80a1d38:	d115      	bne.n	80a1d66 <_Z12mycustomScanv+0x96>
        Serial.print("SSID: ");
 80a1d3a:	f007 f9bb 	bl	80a90b4 <_Z16_fetch_usbserialv>
 80a1d3e:	4651      	mov	r1, sl
 80a1d40:	f005 fb72 	bl	80a7428 <_ZN5Print5printEPKc>
        Serial.println(ap.ssid);
 80a1d44:	f007 f9b6 	bl	80a90b4 <_Z16_fetch_usbserialv>
 80a1d48:	4639      	mov	r1, r7
 80a1d4a:	f005 fb80 	bl	80a744e <_ZN5Print7printlnEPKc>
        WiFi.setCredentials(ap.ssid, PASS); //
 80a1d4e:	f8db 2000 	ldr.w	r2, [fp]
 80a1d52:	4639      	mov	r1, r7
 80a1d54:	480b      	ldr	r0, [pc, #44]	; (80a1d84 <_Z12mycustomScanv+0xb4>)
 80a1d56:	f7fe fcb2 	bl	80a06be <_ZN5spark9WiFiClass14setCredentialsEPKcS2_>
        hasAddedNewSSID = true;
 80a1d5a:	2201      	movs	r2, #1
 80a1d5c:	4b0a      	ldr	r3, [pc, #40]	; (80a1d88 <_Z12mycustomScanv+0xb8>)
 80a1d5e:	701a      	strb	r2, [r3, #0]
  for (int i = 0; i < found; i++)
 80a1d60:	3501      	adds	r5, #1
 80a1d62:	3438      	adds	r4, #56	; 0x38
 80a1d64:	e7dd      	b.n	80a1d22 <_Z12mycustomScanv+0x52>
      Serial.print("Unknown SSID: ");
 80a1d66:	f007 f9a5 	bl	80a90b4 <_Z16_fetch_usbserialv>
 80a1d6a:	4649      	mov	r1, r9
 80a1d6c:	f005 fb5c 	bl	80a7428 <_ZN5Print5printEPKc>
      Serial.println(ap.ssid);
 80a1d70:	f007 f9a0 	bl	80a90b4 <_Z16_fetch_usbserialv>
 80a1d74:	4639      	mov	r1, r7
 80a1d76:	f005 fb6a 	bl	80a744e <_ZN5Print7printlnEPKc>
 80a1d7a:	e7f1      	b.n	80a1d60 <_Z12mycustomScanv+0x90>
    }
  }
}
 80a1d7c:	f20d 5d7c 	addw	sp, sp, #1404	; 0x57c
 80a1d80:	e8bd 8ff0 	ldmia.w	sp!, {r4, r5, r6, r7, r8, r9, sl, fp, pc}
 80a1d84:	20000d38 	.word	0x20000d38
 80a1d88:	40024000 	.word	0x40024000
 80a1d8c:	080ad48c 	.word	0x080ad48c
 80a1d90:	080ad494 	.word	0x080ad494
 80a1d94:	20000000 	.word	0x20000000

080a1d98 <_Z14tryConnectWifiv>:
{
 80a1d98:	b510      	push	{r4, lr}
  if (wiFiConnectionAttempts <= wiFiConnectionAttemptMAX)
 80a1d9a:	4b14      	ldr	r3, [pc, #80]	; (80a1dec <_Z14tryConnectWifiv+0x54>)
 80a1d9c:	681a      	ldr	r2, [r3, #0]
 80a1d9e:	4b14      	ldr	r3, [pc, #80]	; (80a1df0 <_Z14tryConnectWifiv+0x58>)
 80a1da0:	681b      	ldr	r3, [r3, #0]
 80a1da2:	429a      	cmp	r2, r3
 80a1da4:	dc1d      	bgt.n	80a1de2 <_Z14tryConnectWifiv+0x4a>
        network_on(*this, 0, 0, NULL);
 80a1da6:	2300      	movs	r3, #0
 80a1da8:	4c12      	ldr	r4, [pc, #72]	; (80a1df4 <_Z14tryConnectWifiv+0x5c>)
 80a1daa:	461a      	mov	r2, r3
 80a1dac:	4619      	mov	r1, r3
 80a1dae:	6860      	ldr	r0, [r4, #4]
 80a1db0:	f004 fe28 	bl	80a6a04 <network_on>
        network_connect(*this, flags, 0, NULL);
 80a1db4:	2300      	movs	r3, #0
 80a1db6:	6860      	ldr	r0, [r4, #4]
 80a1db8:	4619      	mov	r1, r3
 80a1dba:	461a      	mov	r2, r3
 80a1dbc:	f004 fe02 	bl	80a69c4 <network_connect>
    Log.info("Connecting WiFi...");
 80a1dc0:	490d      	ldr	r1, [pc, #52]	; (80a1df8 <_Z14tryConnectWifiv+0x60>)
 80a1dc2:	480e      	ldr	r0, [pc, #56]	; (80a1dfc <_Z14tryConnectWifiv+0x64>)
 80a1dc4:	f7fe fd56 	bl	80a0874 <_ZNK5spark6Logger4infoEPKcz>
    if (!hasAddedNewSSID)
 80a1dc8:	4b0d      	ldr	r3, [pc, #52]	; (80a1e00 <_Z14tryConnectWifiv+0x68>)
 80a1dca:	781b      	ldrb	r3, [r3, #0]
 80a1dcc:	b90b      	cbnz	r3, 80a1dd2 <_Z14tryConnectWifiv+0x3a>
      mycustomScan();
 80a1dce:	f7ff ff7f 	bl	80a1cd0 <_Z12mycustomScanv>
    Log.info("Connecting to Cloud..."); ///////////////////// UPDATE
 80a1dd2:	490c      	ldr	r1, [pc, #48]	; (80a1e04 <_Z14tryConnectWifiv+0x6c>)
 80a1dd4:	4809      	ldr	r0, [pc, #36]	; (80a1dfc <_Z14tryConnectWifiv+0x64>)
 80a1dd6:	f7fe fd4d 	bl	80a0874 <_ZNK5spark6Logger4infoEPKcz>
}
 80a1dda:	e8bd 4010 	ldmia.w	sp!, {r4, lr}
    tryConnectCloud();
 80a1dde:	f000 b813 	b.w	80a1e08 <_Z15tryConnectCloudv>
}
 80a1de2:	e8bd 4010 	ldmia.w	sp!, {r4, lr}
    cancelWiFi();
 80a1de6:	f7ff bf3d 	b.w	80a1c64 <_Z10cancelWiFiv>
 80a1dea:	bf00      	nop
 80a1dec:	20000c30 	.word	0x20000c30
 80a1df0:	20000050 	.word	0x20000050
 80a1df4:	20000d38 	.word	0x20000d38
 80a1df8:	080ad877 	.word	0x080ad877
 80a1dfc:	20000c64 	.word	0x20000c64
 80a1e00:	40024000 	.word	0x40024000
 80a1e04:	080ad88a 	.word	0x080ad88a

080a1e08 <_Z15tryConnectCloudv>:
{
 80a1e08:	e92d 4ff7 	stmdb	sp!, {r0, r1, r2, r4, r5, r6, r7, r8, r9, sl, fp, lr}
  if (WifiOn && !cloudReady)
 80a1e0c:	4b65      	ldr	r3, [pc, #404]	; (80a1fa4 <_Z15tryConnectCloudv+0x19c>)
 80a1e0e:	f893 2bea 	ldrb.w	r2, [r3, #3050]	; 0xbea
 80a1e12:	9301      	str	r3, [sp, #4]
 80a1e14:	2a00      	cmp	r2, #0
 80a1e16:	f000 80ac 	beq.w	80a1f72 <_Z15tryConnectCloudv+0x16a>
 80a1e1a:	4c63      	ldr	r4, [pc, #396]	; (80a1fa8 <_Z15tryConnectCloudv+0x1a0>)
 80a1e1c:	7823      	ldrb	r3, [r4, #0]
 80a1e1e:	b1c3      	cbz	r3, 80a1e52 <_Z15tryConnectCloudv+0x4a>
    static bool connected(void) { return spark_cloud_flag_connected(); }
 80a1e20:	f004 fe40 	bl	80a6aa4 <spark_cloud_flag_connected>
  if (WifiOn && Particle.connected() == false)
 80a1e24:	2800      	cmp	r0, #0
 80a1e26:	f040 80a4 	bne.w	80a1f72 <_Z15tryConnectCloudv+0x16a>
         wd->checkin();
 80a1e2a:	f7fe fcbb 	bl	80a07a4 <_ZN19ApplicationWatchdog7checkinEv>
 80a1e2e:	f004 fe39 	bl	80a6aa4 <spark_cloud_flag_connected>
    Log.info("Connecting to the cloud... ");
 80a1e32:	495e      	ldr	r1, [pc, #376]	; (80a1fac <_Z15tryConnectCloudv+0x1a4>)
    cloudReady = Particle.connected();
 80a1e34:	7020      	strb	r0, [r4, #0]
    Log.info("Connecting to the cloud... ");
 80a1e36:	485e      	ldr	r0, [pc, #376]	; (80a1fb0 <_Z15tryConnectCloudv+0x1a8>)
 80a1e38:	f7fe fd1c 	bl	80a0874 <_ZNK5spark6Logger4infoEPKcz>
         wd->checkin();
 80a1e3c:	f7fe fcb2 	bl	80a07a4 <_ZN19ApplicationWatchdog7checkinEv>
    static bool disconnected(void) { return !connected(); }
    static void connect(void) {
        spark_cloud_flag_connect();
 80a1e40:	f004 fe28 	bl	80a6a94 <spark_cloud_flag_connect>
    Log.info("should be connected to cloud... ");
 80a1e44:	495b      	ldr	r1, [pc, #364]	; (80a1fb4 <_Z15tryConnectCloudv+0x1ac>)
 80a1e46:	485a      	ldr	r0, [pc, #360]	; (80a1fb0 <_Z15tryConnectCloudv+0x1a8>)
 80a1e48:	f7fe fd14 	bl	80a0874 <_ZNK5spark6Logger4infoEPKcz>
         wd->checkin();
 80a1e4c:	f7fe fcaa 	bl	80a07a4 <_ZN19ApplicationWatchdog7checkinEv>
}
 80a1e50:	e08f      	b.n	80a1f72 <_Z15tryConnectCloudv+0x16a>
    if ((WiFi.ready() || WiFi.connecting())) //Mesh.ready() || Mesh.connecting())
 80a1e52:	4859      	ldr	r0, [pc, #356]	; (80a1fb8 <_Z15tryConnectCloudv+0x1b0>)
 80a1e54:	f7fe fc2e 	bl	80a06b4 <_ZN5spark9WiFiClass5readyEv>
 80a1e58:	b380      	cbz	r0, 80a1ebc <_Z15tryConnectCloudv+0xb4>
      if (WiFi.ready())
 80a1e5a:	4857      	ldr	r0, [pc, #348]	; (80a1fb8 <_Z15tryConnectCloudv+0x1b0>)
 80a1e5c:	f7fe fc2a 	bl	80a06b4 <_ZN5spark9WiFiClass5readyEv>
 80a1e60:	b118      	cbz	r0, 80a1e6a <_Z15tryConnectCloudv+0x62>
        Log.info("Wifi is ready.");
 80a1e62:	4956      	ldr	r1, [pc, #344]	; (80a1fbc <_Z15tryConnectCloudv+0x1b4>)
 80a1e64:	4852      	ldr	r0, [pc, #328]	; (80a1fb0 <_Z15tryConnectCloudv+0x1a8>)
 80a1e66:	f7fe fd05 	bl	80a0874 <_ZNK5spark6Logger4infoEPKcz>
         wd->checkin();
 80a1e6a:	f7fe fc9b 	bl	80a07a4 <_ZN19ApplicationWatchdog7checkinEv>
      if (WiFi.connecting())
 80a1e6e:	4852      	ldr	r0, [pc, #328]	; (80a1fb8 <_Z15tryConnectCloudv+0x1b0>)
 80a1e70:	f7fe fc1b 	bl	80a06aa <_ZN5spark9WiFiClass10connectingEv>
 80a1e74:	b118      	cbz	r0, 80a1e7e <_Z15tryConnectCloudv+0x76>
        Log.info("Wifi is connecting.");
 80a1e76:	4952      	ldr	r1, [pc, #328]	; (80a1fc0 <_Z15tryConnectCloudv+0x1b8>)
 80a1e78:	484d      	ldr	r0, [pc, #308]	; (80a1fb0 <_Z15tryConnectCloudv+0x1a8>)
 80a1e7a:	f7fe fcfb 	bl	80a0874 <_ZNK5spark6Logger4infoEPKcz>
         wd->checkin();
 80a1e7e:	f7fe fc91 	bl	80a07a4 <_ZN19ApplicationWatchdog7checkinEv>
      if (waitFor(WiFi.ready, wifiConnectionDuration)) //waitFor(Mesh.ready,wifiConnectionDuration))//
 80a1e82:	4b50      	ldr	r3, [pc, #320]	; (80a1fc4 <_Z15tryConnectCloudv+0x1bc>)
        return hal_timer_millis(nullptr);
 80a1e84:	2000      	movs	r0, #0
 80a1e86:	681e      	ldr	r6, [r3, #0]
 80a1e88:	f004 fb6c 	bl	80a6564 <hal_timer_millis>
 80a1e8c:	f04f 0a00 	mov.w	sl, #0
 80a1e90:	4605      	mov	r5, r0
        return waitConditionWhile(_condition, [=]{ return (millis()-start)<timeout; });
 80a1e92:	2700      	movs	r7, #0
 80a1e94:	f8df b120 	ldr.w	fp, [pc, #288]	; 80a1fb8 <_Z15tryConnectCloudv+0x1b0>
        return hal_timer_millis(nullptr);
 80a1e98:	2000      	movs	r0, #0
 80a1e9a:	f004 fb63 	bl	80a6564 <hal_timer_millis>
        return waitConditionWhile(_condition, [=]{ return (millis()-start)<timeout; });
 80a1e9e:	ebb0 0805 	subs.w	r8, r0, r5
 80a1ea2:	eb61 090a 	sbc.w	r9, r1, sl
        while (_while() && !_condition()) {
 80a1ea6:	45b9      	cmp	r9, r7
 80a1ea8:	bf08      	it	eq
 80a1eaa:	45b0      	cmpeq	r8, r6
 80a1eac:	d221      	bcs.n	80a1ef2 <_Z15tryConnectCloudv+0xea>
 80a1eae:	4658      	mov	r0, fp
 80a1eb0:	f7fe fc00 	bl	80a06b4 <_ZN5spark9WiFiClass5readyEv>
 80a1eb4:	b9e8      	cbnz	r0, 80a1ef2 <_Z15tryConnectCloudv+0xea>
            spark_process();
 80a1eb6:	f004 fde5 	bl	80a6a84 <spark_process>
        while (_while() && !_condition()) {
 80a1eba:	e7ed      	b.n	80a1e98 <_Z15tryConnectCloudv+0x90>
    if ((WiFi.ready() || WiFi.connecting())) //Mesh.ready() || Mesh.connecting())
 80a1ebc:	483e      	ldr	r0, [pc, #248]	; (80a1fb8 <_Z15tryConnectCloudv+0x1b0>)
 80a1ebe:	f7fe fbf4 	bl	80a06aa <_ZN5spark9WiFiClass10connectingEv>
 80a1ec2:	2800      	cmp	r0, #0
 80a1ec4:	d1c9      	bne.n	80a1e5a <_Z15tryConnectCloudv+0x52>
      if (wiFiConnectionAttempts > 1)
 80a1ec6:	4d40      	ldr	r5, [pc, #256]	; (80a1fc8 <_Z15tryConnectCloudv+0x1c0>)
      Log.info("Is a cloud loop but Wifi is not enabled, will now connect.");
 80a1ec8:	4940      	ldr	r1, [pc, #256]	; (80a1fcc <_Z15tryConnectCloudv+0x1c4>)
 80a1eca:	4839      	ldr	r0, [pc, #228]	; (80a1fb0 <_Z15tryConnectCloudv+0x1a8>)
 80a1ecc:	f7fe fcd2 	bl	80a0874 <_ZNK5spark6Logger4infoEPKcz>
         wd->checkin();
 80a1ed0:	f7fe fc68 	bl	80a07a4 <_ZN19ApplicationWatchdog7checkinEv>
      if (wiFiConnectionAttempts > 1)
 80a1ed4:	682b      	ldr	r3, [r5, #0]
 80a1ed6:	2b01      	cmp	r3, #1
 80a1ed8:	dd03      	ble.n	80a1ee2 <_Z15tryConnectCloudv+0xda>
        Log.info("Not connected to the cloud. will try again...");
 80a1eda:	493d      	ldr	r1, [pc, #244]	; (80a1fd0 <_Z15tryConnectCloudv+0x1c8>)
 80a1edc:	4834      	ldr	r0, [pc, #208]	; (80a1fb0 <_Z15tryConnectCloudv+0x1a8>)
 80a1ede:	f7fe fcc9 	bl	80a0874 <_ZNK5spark6Logger4infoEPKcz>
         wd->checkin();
 80a1ee2:	f7fe fc5f 	bl	80a07a4 <_ZN19ApplicationWatchdog7checkinEv>
      wiFiConnectionAttempts++;
 80a1ee6:	682b      	ldr	r3, [r5, #0]
 80a1ee8:	3301      	adds	r3, #1
 80a1eea:	602b      	str	r3, [r5, #0]
         wd->checkin();
 80a1eec:	f7fe fc5a 	bl	80a07a4 <_ZN19ApplicationWatchdog7checkinEv>
 80a1ef0:	e037      	b.n	80a1f62 <_Z15tryConnectCloudv+0x15a>
      if (waitFor(WiFi.ready, wifiConnectionDuration)) //waitFor(Mesh.ready,wifiConnectionDuration))//
 80a1ef2:	4831      	ldr	r0, [pc, #196]	; (80a1fb8 <_Z15tryConnectCloudv+0x1b0>)
 80a1ef4:	f7fe fbde 	bl	80a06b4 <_ZN5spark9WiFiClass5readyEv>
 80a1ef8:	2800      	cmp	r0, #0
 80a1efa:	d046      	beq.n	80a1f8a <_Z15tryConnectCloudv+0x182>
        wifiReady = true;
 80a1efc:	2501      	movs	r5, #1
        Log.info("Wifi is ready. now to connect to the cloud. ");
 80a1efe:	4935      	ldr	r1, [pc, #212]	; (80a1fd4 <_Z15tryConnectCloudv+0x1cc>)
 80a1f00:	482b      	ldr	r0, [pc, #172]	; (80a1fb0 <_Z15tryConnectCloudv+0x1a8>)
 80a1f02:	f7fe fcb7 	bl	80a0874 <_ZNK5spark6Logger4infoEPKcz>
        connectingToCloud = true;
 80a1f06:	4e34      	ldr	r6, [pc, #208]	; (80a1fd8 <_Z15tryConnectCloudv+0x1d0>)
         wd->checkin();
 80a1f08:	f7fe fc4c 	bl	80a07a4 <_ZN19ApplicationWatchdog7checkinEv>
        wifiReady = true;
 80a1f0c:	4b33      	ldr	r3, [pc, #204]	; (80a1fdc <_Z15tryConnectCloudv+0x1d4>)
        connectingToCloud = true;
 80a1f0e:	7035      	strb	r5, [r6, #0]
        wifiReady = true;
 80a1f10:	701d      	strb	r5, [r3, #0]
 80a1f12:	f004 fdbf 	bl	80a6a94 <spark_cloud_flag_connect>
    static bool connected(void) { return spark_cloud_flag_connected(); }
 80a1f16:	f004 fdc5 	bl	80a6aa4 <spark_cloud_flag_connected>
        if (Particle.connected())
 80a1f1a:	b368      	cbz	r0, 80a1f78 <_Z15tryConnectCloudv+0x170>
          Log.info("Connected to the cloud... ");
 80a1f1c:	4930      	ldr	r1, [pc, #192]	; (80a1fe0 <_Z15tryConnectCloudv+0x1d8>)
 80a1f1e:	4824      	ldr	r0, [pc, #144]	; (80a1fb0 <_Z15tryConnectCloudv+0x1a8>)
 80a1f20:	f7fe fca8 	bl	80a0874 <_ZNK5spark6Logger4infoEPKcz>
         wd->checkin();
 80a1f24:	f7fe fc3e 	bl	80a07a4 <_ZN19ApplicationWatchdog7checkinEv>
 80a1f28:	f004 fdbc 	bl	80a6aa4 <spark_cloud_flag_connected>
          connectingToCloud = false;
 80a1f2c:	2200      	movs	r2, #0
          wiFiConnectionAttempts = 0;
 80a1f2e:	4b26      	ldr	r3, [pc, #152]	; (80a1fc8 <_Z15tryConnectCloudv+0x1c0>)
        system_set_flag(flag, value, nullptr);
 80a1f30:	4629      	mov	r1, r5
          cloudReady = Particle.connected();
 80a1f32:	7020      	strb	r0, [r4, #0]
 80a1f34:	4628      	mov	r0, r5
          connectingToCloud = false;
 80a1f36:	7032      	strb	r2, [r6, #0]
          wiFiConnectionAttempts = 0;
 80a1f38:	601a      	str	r2, [r3, #0]
 80a1f3a:	f004 fd0f 	bl	80a695c <system_set_flag>
          Log.info("All setup, connected and ready to dance. Hazar");
 80a1f3e:	4929      	ldr	r1, [pc, #164]	; (80a1fe4 <_Z15tryConnectCloudv+0x1dc>)
 80a1f40:	481b      	ldr	r0, [pc, #108]	; (80a1fb0 <_Z15tryConnectCloudv+0x1a8>)
 80a1f42:	f7fe fc97 	bl	80a0874 <_ZNK5spark6Logger4infoEPKcz>
      if (WiFi.connecting())
 80a1f46:	481c      	ldr	r0, [pc, #112]	; (80a1fb8 <_Z15tryConnectCloudv+0x1b0>)
 80a1f48:	f7fe fbaf 	bl	80a06aa <_ZN5spark9WiFiClass10connectingEv>
 80a1f4c:	b158      	cbz	r0, 80a1f66 <_Z15tryConnectCloudv+0x15e>
        Log.info("We are still connecting to the cloud. Will try connect again.");
 80a1f4e:	4926      	ldr	r1, [pc, #152]	; (80a1fe8 <_Z15tryConnectCloudv+0x1e0>)
 80a1f50:	4817      	ldr	r0, [pc, #92]	; (80a1fb0 <_Z15tryConnectCloudv+0x1a8>)
 80a1f52:	f7fe fc8f 	bl	80a0874 <_ZNK5spark6Logger4infoEPKcz>
         wd->checkin();
 80a1f56:	f7fe fc25 	bl	80a07a4 <_ZN19ApplicationWatchdog7checkinEv>
        wiFiConnectionAttempts++;
 80a1f5a:	4a1b      	ldr	r2, [pc, #108]	; (80a1fc8 <_Z15tryConnectCloudv+0x1c0>)
 80a1f5c:	6813      	ldr	r3, [r2, #0]
 80a1f5e:	3301      	adds	r3, #1
 80a1f60:	6013      	str	r3, [r2, #0]
      tryConnectWifi();
 80a1f62:	f7ff ff19 	bl	80a1d98 <_Z14tryConnectWifiv>
  if (WifiOn && Particle.connected() == false)
 80a1f66:	9b01      	ldr	r3, [sp, #4]
 80a1f68:	f893 3bea 	ldrb.w	r3, [r3, #3050]	; 0xbea
 80a1f6c:	2b00      	cmp	r3, #0
 80a1f6e:	f47f af57 	bne.w	80a1e20 <_Z15tryConnectCloudv+0x18>
}
 80a1f72:	b003      	add	sp, #12
 80a1f74:	e8bd 8ff0 	ldmia.w	sp!, {r4, r5, r6, r7, r8, r9, sl, fp, pc}
          Log.info("should be connected to cloud... ");
 80a1f78:	490e      	ldr	r1, [pc, #56]	; (80a1fb4 <_Z15tryConnectCloudv+0x1ac>)
 80a1f7a:	480d      	ldr	r0, [pc, #52]	; (80a1fb0 <_Z15tryConnectCloudv+0x1a8>)
 80a1f7c:	f7fe fc7a 	bl	80a0874 <_ZNK5spark6Logger4infoEPKcz>
         wd->checkin();
 80a1f80:	f7fe fc10 	bl	80a07a4 <_ZN19ApplicationWatchdog7checkinEv>
        spark_cloud_flag_connect();
 80a1f84:	f004 fd86 	bl	80a6a94 <spark_cloud_flag_connect>
    }
 80a1f88:	e7dd      	b.n	80a1f46 <_Z15tryConnectCloudv+0x13e>
        Log.info("WiFi connection timed out, will try and connect...");
 80a1f8a:	4918      	ldr	r1, [pc, #96]	; (80a1fec <_Z15tryConnectCloudv+0x1e4>)
 80a1f8c:	4808      	ldr	r0, [pc, #32]	; (80a1fb0 <_Z15tryConnectCloudv+0x1a8>)
 80a1f8e:	f7fe fc71 	bl	80a0874 <_ZNK5spark6Logger4infoEPKcz>
         wd->checkin();
 80a1f92:	f7fe fc07 	bl	80a07a4 <_ZN19ApplicationWatchdog7checkinEv>
        wiFiConnectionAttempts++;
 80a1f96:	4a0c      	ldr	r2, [pc, #48]	; (80a1fc8 <_Z15tryConnectCloudv+0x1c0>)
 80a1f98:	6813      	ldr	r3, [r2, #0]
 80a1f9a:	3301      	adds	r3, #1
 80a1f9c:	6013      	str	r3, [r2, #0]
        tryConnectWifi();
 80a1f9e:	f7ff fefb 	bl	80a1d98 <_Z14tryConnectWifiv>
 80a1fa2:	e7d0      	b.n	80a1f46 <_Z15tryConnectCloudv+0x13e>
 80a1fa4:	40024000 	.word	0x40024000
 80a1fa8:	200001f9 	.word	0x200001f9
 80a1fac:	080ada36 	.word	0x080ada36
 80a1fb0:	20000c64 	.word	0x20000c64
 80a1fb4:	080ad976 	.word	0x080ad976
 80a1fb8:	20000d38 	.word	0x20000d38
 80a1fbc:	080ad8dc 	.word	0x080ad8dc
 80a1fc0:	080ad8eb 	.word	0x080ad8eb
 80a1fc4:	20000054 	.word	0x20000054
 80a1fc8:	20000c30 	.word	0x20000c30
 80a1fcc:	080ad8a1 	.word	0x080ad8a1
 80a1fd0:	080ada08 	.word	0x080ada08
 80a1fd4:	080ad8ff 	.word	0x080ad8ff
 80a1fd8:	200001fa 	.word	0x200001fa
 80a1fdc:	20000c34 	.word	0x20000c34
 80a1fe0:	080ad92c 	.word	0x080ad92c
 80a1fe4:	080ad947 	.word	0x080ad947
 80a1fe8:	080ad9ca 	.word	0x080ad9ca
 80a1fec:	080ad997 	.word	0x080ad997

080a1ff0 <_ZNSt14__shared_countILN9__gnu_cxx12_Lock_policyE0EED1Ev>:
      explicit __shared_count(const __weak_count<_Lp>& __r);

      // Does not throw if __r._M_get_use_count() == 0, caller must check.
      explicit __shared_count(const __weak_count<_Lp>& __r, std::nothrow_t);

      ~__shared_count() noexcept
 80a1ff0:	b538      	push	{r3, r4, r5, lr}
      {
	if (_M_pi != nullptr)
 80a1ff2:	6804      	ldr	r4, [r0, #0]
      ~__shared_count() noexcept
 80a1ff4:	4605      	mov	r5, r0
	if (_M_pi != nullptr)
 80a1ff6:	b17c      	cbz	r4, 80a2018 <_ZNSt14__shared_countILN9__gnu_cxx12_Lock_policyE0EED1Ev+0x28>
      if (--_M_use_count == 0)
 80a1ff8:	6863      	ldr	r3, [r4, #4]
 80a1ffa:	3b01      	subs	r3, #1
 80a1ffc:	6063      	str	r3, [r4, #4]
 80a1ffe:	b95b      	cbnz	r3, 80a2018 <_ZNSt14__shared_countILN9__gnu_cxx12_Lock_policyE0EED1Ev+0x28>
          _M_dispose();
 80a2000:	6823      	ldr	r3, [r4, #0]
 80a2002:	4620      	mov	r0, r4
 80a2004:	689b      	ldr	r3, [r3, #8]
 80a2006:	4798      	blx	r3
          if (--_M_weak_count == 0)
 80a2008:	68a3      	ldr	r3, [r4, #8]
 80a200a:	3b01      	subs	r3, #1
 80a200c:	60a3      	str	r3, [r4, #8]
 80a200e:	b91b      	cbnz	r3, 80a2018 <_ZNSt14__shared_countILN9__gnu_cxx12_Lock_policyE0EED1Ev+0x28>
            _M_destroy();
 80a2010:	6823      	ldr	r3, [r4, #0]
 80a2012:	4620      	mov	r0, r4
 80a2014:	68db      	ldr	r3, [r3, #12]
 80a2016:	4798      	blx	r3
	  _M_pi->_M_release();
      }
 80a2018:	4628      	mov	r0, r5
 80a201a:	bd38      	pop	{r3, r4, r5, pc}

080a201c <_Z15PublishPIR1Textv>:
{
 80a201c:	e92d 4ff0 	stmdb	sp!, {r4, r5, r6, r7, r8, r9, sl, fp, lr}
  if (nPIR1 > 0)
 80a2020:	4d8d      	ldr	r5, [pc, #564]	; (80a2258 <_Z15PublishPIR1Textv+0x23c>)
{
 80a2022:	b08f      	sub	sp, #60	; 0x3c
  if (nPIR1 > 0)
 80a2024:	786c      	ldrb	r4, [r5, #1]
 80a2026:	2c00      	cmp	r4, #0
 80a2028:	f000 8113 	beq.w	80a2252 <_Z15PublishPIR1Textv+0x236>
    if (LoopedPIR1)
 80a202c:	f895 3324 	ldrb.w	r3, [r5, #804]	; 0x324
 80a2030:	2b00      	cmp	r3, #0
 80a2032:	d146      	bne.n	80a20c2 <_Z15PublishPIR1Textv+0xa6>
      nLoops = (nPIR1 + 1) / nPerLoop;
 80a2034:	233b      	movs	r3, #59	; 0x3b
 80a2036:	3401      	adds	r4, #1
 80a2038:	fbb4 f4f3 	udiv	r4, r4, r3
 80a203c:	b2e4      	uxtb	r4, r4
    for (size_t j = 0; j < nLoops; j++)
 80a203e:	2700      	movs	r7, #0
      String message = "";
 80a2040:	f8df 8234 	ldr.w	r8, [pc, #564]	; 80a2278 <_Z15PublishPIR1Textv+0x25c>
      message.concat(String("{ \"P1\": \""));
 80a2044:	f8df 9234 	ldr.w	r9, [pc, #564]	; 80a227c <_Z15PublishPIR1Textv+0x260>
 80a2048:	263b      	movs	r6, #59	; 0x3b
    for (size_t j = 0; j < nLoops; j++)
 80a204a:	42bc      	cmp	r4, r7
 80a204c:	fb06 fb07 	mul.w	fp, r6, r7
 80a2050:	d97b      	bls.n	80a214a <_Z15PublishPIR1Textv+0x12e>
      String message = "";
 80a2052:	4641      	mov	r1, r8
 80a2054:	a802      	add	r0, sp, #8
 80a2056:	f005 f833 	bl	80a70c0 <_ZN6StringC1EPKc>
      message.concat(String("{ \"P1\": \""));
 80a205a:	26ec      	movs	r6, #236	; 0xec
 80a205c:	4649      	mov	r1, r9
 80a205e:	a80a      	add	r0, sp, #40	; 0x28
 80a2060:	f005 f82e 	bl	80a70c0 <_ZN6StringC1EPKc>
 80a2064:	a90a      	add	r1, sp, #40	; 0x28
 80a2066:	a802      	add	r0, sp, #8
 80a2068:	f005 f928 	bl	80a72bc <_ZN6String6concatERKS_>
 80a206c:	a80a      	add	r0, sp, #40	; 0x28
 80a206e:	f004 ffdd 	bl	80a702c <_ZN6StringD1Ev>
      for (size_t i = starti; i < starti + nPerLoop; i++)
 80a2072:	f11b 0f3c 	cmn.w	fp, #60	; 0x3c
 80a2076:	bf8c      	ite	hi
 80a2078:	f04f 0a01 	movhi.w	sl, #1
 80a207c:	f04f 0a3c 	movls.w	sl, #60	; 0x3c
 80a2080:	4b76      	ldr	r3, [pc, #472]	; (80a225c <_Z15PublishPIR1Textv+0x240>)
        message.concat(String(PIR1[i], 4) + "_");
 80a2082:	f8df b1fc 	ldr.w	fp, [pc, #508]	; 80a2280 <_Z15PublishPIR1Textv+0x264>
 80a2086:	fb06 3607 	mla	r6, r6, r7, r3
      for (size_t i = starti; i < starti + nPerLoop; i++)
 80a208a:	f1ba 0a01 	subs.w	sl, sl, #1
 80a208e:	d01a      	beq.n	80a20c6 <_Z15PublishPIR1Textv+0xaa>
        message.concat(String(PIR1[i], 4) + "_");
 80a2090:	2204      	movs	r2, #4
 80a2092:	f856 1b04 	ldr.w	r1, [r6], #4
 80a2096:	a806      	add	r0, sp, #24
 80a2098:	f005 f8cc 	bl	80a7234 <_ZN6StringC1Efi>
	StringSumHelper(const String &s) : String(s) {}
 80a209c:	a906      	add	r1, sp, #24
 80a209e:	a80a      	add	r0, sp, #40	; 0x28
 80a20a0:	f005 f858 	bl	80a7154 <_ZN6StringC1ERKS_>
 80a20a4:	4659      	mov	r1, fp
 80a20a6:	a80a      	add	r0, sp, #40	; 0x28
 80a20a8:	f005 f929 	bl	80a72fe <_ZplRK15StringSumHelperPKc>
 80a20ac:	4601      	mov	r1, r0
 80a20ae:	a802      	add	r0, sp, #8
 80a20b0:	f005 f904 	bl	80a72bc <_ZN6String6concatERKS_>
class StringSumHelper : public String
 80a20b4:	a80a      	add	r0, sp, #40	; 0x28
 80a20b6:	f004 ffb9 	bl	80a702c <_ZN6StringD1Ev>
 80a20ba:	a806      	add	r0, sp, #24
 80a20bc:	f004 ffb6 	bl	80a702c <_ZN6StringD1Ev>
      for (size_t i = starti; i < starti + nPerLoop; i++)
 80a20c0:	e7e3      	b.n	80a208a <_Z15PublishPIR1Textv+0x6e>
      nLoops = 4;
 80a20c2:	2404      	movs	r4, #4
 80a20c4:	e7bb      	b.n	80a203e <_Z15PublishPIR1Textv+0x22>
	StringSumHelper(const char *p) : String(p) {}
 80a20c6:	4966      	ldr	r1, [pc, #408]	; (80a2260 <_Z15PublishPIR1Textv+0x244>)
 80a20c8:	a80a      	add	r0, sp, #40	; 0x28
 80a20ca:	f004 fff9 	bl	80a70c0 <_ZN6StringC1EPKc>
      message.concat("\", \"Dv\": \"" + String(deviceNameRet) + "\" }");
 80a20ce:	4965      	ldr	r1, [pc, #404]	; (80a2264 <_Z15PublishPIR1Textv+0x248>)
 80a20d0:	a806      	add	r0, sp, #24
 80a20d2:	f004 fff5 	bl	80a70c0 <_ZN6StringC1EPKc>
 80a20d6:	a906      	add	r1, sp, #24
 80a20d8:	a80a      	add	r0, sp, #40	; 0x28
 80a20da:	f005 f904 	bl	80a72e6 <_ZplRK15StringSumHelperRK6String>
 80a20de:	4962      	ldr	r1, [pc, #392]	; (80a2268 <_Z15PublishPIR1Textv+0x24c>)
 80a20e0:	f005 f90d 	bl	80a72fe <_ZplRK15StringSumHelperPKc>
 80a20e4:	4601      	mov	r1, r0
 80a20e6:	a802      	add	r0, sp, #8
 80a20e8:	f005 f8e8 	bl	80a72bc <_ZN6String6concatERKS_>
 80a20ec:	a806      	add	r0, sp, #24
 80a20ee:	f004 ff9d 	bl	80a702c <_ZN6StringD1Ev>
class StringSumHelper : public String
 80a20f2:	a80a      	add	r0, sp, #40	; 0x28
 80a20f4:	f004 ff9a 	bl	80a702c <_ZN6StringD1Ev>
        operator const char*() const { return c_str(); }
 80a20f8:	4b5c      	ldr	r3, [pc, #368]	; (80a226c <_Z15PublishPIR1Textv+0x250>)
      Particle.publish(WebHookName, String(message), 60, PUBLIC); // WebHook to Google Sheets
 80a20fa:	a902      	add	r1, sp, #8
 80a20fc:	a80a      	add	r0, sp, #40	; 0x28
 80a20fe:	681e      	ldr	r6, [r3, #0]
 80a2100:	f005 f828 	bl	80a7154 <_ZN6StringC1ERKS_>
inline particle::Flags<TagT, ValueT>::Flags(Flag<TagT, ValueT> flag) :
        val_(flag.value()) {
}

template<typename TagT, typename ValueT>
inline particle::Flags<TagT, ValueT>::Flags(ValueT val) :
 80a2104:	4b5a      	ldr	r3, [pc, #360]	; (80a2270 <_Z15PublishPIR1Textv+0x254>)
        return publish_event(eventName, eventData, ttl, flags1 | flags2);
 80a2106:	9a0a      	ldr	r2, [sp, #40]	; 0x28
 80a2108:	781b      	ldrb	r3, [r3, #0]
 80a210a:	4631      	mov	r1, r6
 80a210c:	f88d 3000 	strb.w	r3, [sp]
 80a2110:	a806      	add	r0, sp, #24
 80a2112:	233c      	movs	r3, #60	; 0x3c
 80a2114:	f006 fd92 	bl	80a8c3c <_ZN10CloudClass13publish_eventEPKcS1_iN8particle5FlagsI15PublishFlagTypehEE>
	: _M_ptr(__p), _M_refcount(__r._M_refcount) // never throws
	{ }

      __shared_ptr(const __shared_ptr&) noexcept = default;
      __shared_ptr& operator=(const __shared_ptr&) noexcept = default;
      ~__shared_ptr() = default;
 80a2118:	a807      	add	r0, sp, #28
 80a211a:	f7ff ff69 	bl	80a1ff0 <_ZNSt14__shared_countILN9__gnu_cxx12_Lock_policyE0EED1Ev>
 80a211e:	a80a      	add	r0, sp, #40	; 0x28
 80a2120:	f004 ff84 	bl	80a702c <_ZN6StringD1Ev>
      Serial.println("Sent to the cloud... ");
 80a2124:	f006 ffc6 	bl	80a90b4 <_Z16_fetch_usbserialv>
 80a2128:	4952      	ldr	r1, [pc, #328]	; (80a2274 <_Z15PublishPIR1Textv+0x258>)
 80a212a:	f005 f990 	bl	80a744e <_ZN5Print7printlnEPKc>
      Serial.println(message);
 80a212e:	f006 ffc1 	bl	80a90b4 <_Z16_fetch_usbserialv>
 80a2132:	9902      	ldr	r1, [sp, #8]
 80a2134:	f005 f98b 	bl	80a744e <_ZN5Print7printlnEPKc>
      delay(1000);
 80a2138:	f44f 707a 	mov.w	r0, #1000	; 0x3e8
 80a213c:	f006 fb8a 	bl	80a8854 <delay>
      String message = "";
 80a2140:	a802      	add	r0, sp, #8
 80a2142:	f004 ff73 	bl	80a702c <_ZN6StringD1Ev>
    for (size_t j = 0; j < nLoops; j++)
 80a2146:	3701      	adds	r7, #1
 80a2148:	e77e      	b.n	80a2048 <_Z15PublishPIR1Textv+0x2c>
    if ((nPIR1 + 1) % nPerLoop > 0)
 80a214a:	786b      	ldrb	r3, [r5, #1]
 80a214c:	4374      	muls	r4, r6
 80a214e:	3301      	adds	r3, #1
 80a2150:	fb93 f2f6 	sdiv	r2, r3, r6
 80a2154:	fb06 3312 	mls	r3, r6, r2, r3
 80a2158:	2b00      	cmp	r3, #0
 80a215a:	d076      	beq.n	80a224a <_Z15PublishPIR1Textv+0x22e>
      String message = "";
 80a215c:	4946      	ldr	r1, [pc, #280]	; (80a2278 <_Z15PublishPIR1Textv+0x25c>)
 80a215e:	a802      	add	r0, sp, #8
 80a2160:	f004 ffae 	bl	80a70c0 <_ZN6StringC1EPKc>
      message.concat(String("{ \"P1\": \""));
 80a2164:	4945      	ldr	r1, [pc, #276]	; (80a227c <_Z15PublishPIR1Textv+0x260>)
 80a2166:	a80a      	add	r0, sp, #40	; 0x28
 80a2168:	f004 ffaa 	bl	80a70c0 <_ZN6StringC1EPKc>
 80a216c:	a90a      	add	r1, sp, #40	; 0x28
 80a216e:	a802      	add	r0, sp, #8
 80a2170:	f005 f8a4 	bl	80a72bc <_ZN6String6concatERKS_>
 80a2174:	a80a      	add	r0, sp, #40	; 0x28
 80a2176:	f004 ff59 	bl	80a702c <_ZN6StringD1Ev>
 80a217a:	4627      	mov	r7, r4
        message.concat(String(PIR1[i], 4) + "_");
 80a217c:	f8df 90dc 	ldr.w	r9, [pc, #220]	; 80a225c <_Z15PublishPIR1Textv+0x240>
 80a2180:	f8df 80fc 	ldr.w	r8, [pc, #252]	; 80a2280 <_Z15PublishPIR1Textv+0x264>
      for (size_t i = starti; i < starti + (nPIR1 + 1) % nPerLoop; i++)
 80a2184:	786b      	ldrb	r3, [r5, #1]
 80a2186:	1c5a      	adds	r2, r3, #1
 80a2188:	fbb2 f3f6 	udiv	r3, r2, r6
 80a218c:	fb06 2313 	mls	r3, r6, r3, r2
 80a2190:	4423      	add	r3, r4
 80a2192:	42bb      	cmp	r3, r7
 80a2194:	d919      	bls.n	80a21ca <_Z15PublishPIR1Textv+0x1ae>
        message.concat(String(PIR1[i], 4) + "_");
 80a2196:	2204      	movs	r2, #4
 80a2198:	f859 1027 	ldr.w	r1, [r9, r7, lsl #2]
 80a219c:	a806      	add	r0, sp, #24
 80a219e:	f005 f849 	bl	80a7234 <_ZN6StringC1Efi>
	StringSumHelper(const String &s) : String(s) {}
 80a21a2:	a906      	add	r1, sp, #24
 80a21a4:	a80a      	add	r0, sp, #40	; 0x28
 80a21a6:	f004 ffd5 	bl	80a7154 <_ZN6StringC1ERKS_>
 80a21aa:	4641      	mov	r1, r8
 80a21ac:	a80a      	add	r0, sp, #40	; 0x28
 80a21ae:	f005 f8a6 	bl	80a72fe <_ZplRK15StringSumHelperPKc>
 80a21b2:	4601      	mov	r1, r0
 80a21b4:	a802      	add	r0, sp, #8
 80a21b6:	f005 f881 	bl	80a72bc <_ZN6String6concatERKS_>
class StringSumHelper : public String
 80a21ba:	a80a      	add	r0, sp, #40	; 0x28
 80a21bc:	f004 ff36 	bl	80a702c <_ZN6StringD1Ev>
 80a21c0:	a806      	add	r0, sp, #24
 80a21c2:	f004 ff33 	bl	80a702c <_ZN6StringD1Ev>
      for (size_t i = starti; i < starti + (nPIR1 + 1) % nPerLoop; i++)
 80a21c6:	3701      	adds	r7, #1
 80a21c8:	e7dc      	b.n	80a2184 <_Z15PublishPIR1Textv+0x168>
	StringSumHelper(const char *p) : String(p) {}
 80a21ca:	4925      	ldr	r1, [pc, #148]	; (80a2260 <_Z15PublishPIR1Textv+0x244>)
 80a21cc:	a80a      	add	r0, sp, #40	; 0x28
 80a21ce:	f004 ff77 	bl	80a70c0 <_ZN6StringC1EPKc>
      message.concat("\", \"Dv\": \"" + String(deviceNameRet) + "\" }");
 80a21d2:	4924      	ldr	r1, [pc, #144]	; (80a2264 <_Z15PublishPIR1Textv+0x248>)
 80a21d4:	a806      	add	r0, sp, #24
 80a21d6:	f004 ff73 	bl	80a70c0 <_ZN6StringC1EPKc>
 80a21da:	a906      	add	r1, sp, #24
 80a21dc:	a80a      	add	r0, sp, #40	; 0x28
 80a21de:	f005 f882 	bl	80a72e6 <_ZplRK15StringSumHelperRK6String>
 80a21e2:	4921      	ldr	r1, [pc, #132]	; (80a2268 <_Z15PublishPIR1Textv+0x24c>)
 80a21e4:	f005 f88b 	bl	80a72fe <_ZplRK15StringSumHelperPKc>
 80a21e8:	4601      	mov	r1, r0
 80a21ea:	a802      	add	r0, sp, #8
 80a21ec:	f005 f866 	bl	80a72bc <_ZN6String6concatERKS_>
 80a21f0:	a806      	add	r0, sp, #24
 80a21f2:	f004 ff1b 	bl	80a702c <_ZN6StringD1Ev>
class StringSumHelper : public String
 80a21f6:	a80a      	add	r0, sp, #40	; 0x28
 80a21f8:	f004 ff18 	bl	80a702c <_ZN6StringD1Ev>
        operator const char*() const { return c_str(); }
 80a21fc:	4b1b      	ldr	r3, [pc, #108]	; (80a226c <_Z15PublishPIR1Textv+0x250>)
      Particle.publish(WebHookName, String(message), 60, PUBLIC); // WebHook to Google Sheets
 80a21fe:	a902      	add	r1, sp, #8
 80a2200:	a80a      	add	r0, sp, #40	; 0x28
 80a2202:	681c      	ldr	r4, [r3, #0]
 80a2204:	f004 ffa6 	bl	80a7154 <_ZN6StringC1ERKS_>
 80a2208:	4b19      	ldr	r3, [pc, #100]	; (80a2270 <_Z15PublishPIR1Textv+0x254>)
 80a220a:	9a0a      	ldr	r2, [sp, #40]	; 0x28
 80a220c:	781b      	ldrb	r3, [r3, #0]
 80a220e:	4621      	mov	r1, r4
 80a2210:	f88d 3000 	strb.w	r3, [sp]
 80a2214:	a806      	add	r0, sp, #24
 80a2216:	233c      	movs	r3, #60	; 0x3c
 80a2218:	f006 fd10 	bl	80a8c3c <_ZN10CloudClass13publish_eventEPKcS1_iN8particle5FlagsI15PublishFlagTypehEE>
 80a221c:	a807      	add	r0, sp, #28
 80a221e:	f7ff fee7 	bl	80a1ff0 <_ZNSt14__shared_countILN9__gnu_cxx12_Lock_policyE0EED1Ev>
 80a2222:	a80a      	add	r0, sp, #40	; 0x28
 80a2224:	f004 ff02 	bl	80a702c <_ZN6StringD1Ev>
      Serial.println("Sent to the cloud... ");
 80a2228:	f006 ff44 	bl	80a90b4 <_Z16_fetch_usbserialv>
 80a222c:	4911      	ldr	r1, [pc, #68]	; (80a2274 <_Z15PublishPIR1Textv+0x258>)
 80a222e:	f005 f90e 	bl	80a744e <_ZN5Print7printlnEPKc>
      Serial.println(message);
 80a2232:	f006 ff3f 	bl	80a90b4 <_Z16_fetch_usbserialv>
 80a2236:	9902      	ldr	r1, [sp, #8]
 80a2238:	f005 f909 	bl	80a744e <_ZN5Print7printlnEPKc>
      delay(1000);
